{
	"contracts/MyGov.sol": {
		"MyGovToken": {
			"abi": [
				{
					"inputs": [
						{
							"internalType": "uint256",
							"name": "tokensupply",
							"type": "uint256"
						}
					],
					"stateMutability": "nonpayable",
					"type": "constructor"
				},
				{
					"anonymous": false,
					"inputs": [
						{
							"indexed": true,
							"internalType": "address",
							"name": "owner",
							"type": "address"
						},
						{
							"indexed": true,
							"internalType": "address",
							"name": "spender",
							"type": "address"
						},
						{
							"indexed": false,
							"internalType": "uint256",
							"name": "value",
							"type": "uint256"
						}
					],
					"name": "Approval",
					"type": "event"
				},
				{
					"anonymous": false,
					"inputs": [
						{
							"indexed": true,
							"internalType": "address",
							"name": "from",
							"type": "address"
						},
						{
							"indexed": true,
							"internalType": "address",
							"name": "to",
							"type": "address"
						},
						{
							"indexed": false,
							"internalType": "uint256",
							"name": "value",
							"type": "uint256"
						}
					],
					"name": "Transfer",
					"type": "event"
				},
				{
					"inputs": [
						{
							"internalType": "address",
							"name": "owner",
							"type": "address"
						},
						{
							"internalType": "address",
							"name": "spender",
							"type": "address"
						}
					],
					"name": "allowance",
					"outputs": [
						{
							"internalType": "uint256",
							"name": "",
							"type": "uint256"
						}
					],
					"stateMutability": "view",
					"type": "function"
				},
				{
					"inputs": [
						{
							"internalType": "address",
							"name": "spender",
							"type": "address"
						},
						{
							"internalType": "uint256",
							"name": "amount",
							"type": "uint256"
						}
					],
					"name": "approve",
					"outputs": [
						{
							"internalType": "bool",
							"name": "",
							"type": "bool"
						}
					],
					"stateMutability": "nonpayable",
					"type": "function"
				},
				{
					"inputs": [
						{
							"internalType": "address",
							"name": "account",
							"type": "address"
						}
					],
					"name": "balanceOf",
					"outputs": [
						{
							"internalType": "uint256",
							"name": "",
							"type": "uint256"
						}
					],
					"stateMutability": "view",
					"type": "function"
				},
				{
					"inputs": [],
					"name": "decimals",
					"outputs": [
						{
							"internalType": "uint8",
							"name": "",
							"type": "uint8"
						}
					],
					"stateMutability": "view",
					"type": "function"
				},
				{
					"inputs": [
						{
							"internalType": "address",
							"name": "spender",
							"type": "address"
						},
						{
							"internalType": "uint256",
							"name": "subtractedValue",
							"type": "uint256"
						}
					],
					"name": "decreaseAllowance",
					"outputs": [
						{
							"internalType": "bool",
							"name": "",
							"type": "bool"
						}
					],
					"stateMutability": "nonpayable",
					"type": "function"
				},
				{
					"inputs": [],
					"name": "delegateVoteTo",
					"outputs": [],
					"stateMutability": "nonpayable",
					"type": "function"
				},
				{
					"inputs": [],
					"name": "donateEther",
					"outputs": [],
					"stateMutability": "payable",
					"type": "function"
				},
				{
					"inputs": [
						{
							"internalType": "uint256",
							"name": "amount",
							"type": "uint256"
						}
					],
					"name": "donateMyGovToken",
					"outputs": [],
					"stateMutability": "nonpayable",
					"type": "function"
				},
				{
					"inputs": [],
					"name": "getEtherReceivedByProject",
					"outputs": [],
					"stateMutability": "nonpayable",
					"type": "function"
				},
				{
					"inputs": [],
					"name": "getIsProjectFunded",
					"outputs": [],
					"stateMutability": "nonpayable",
					"type": "function"
				},
				{
					"inputs": [],
					"name": "getNoOfFundedProjects",
					"outputs": [],
					"stateMutability": "nonpayable",
					"type": "function"
				},
				{
					"inputs": [],
					"name": "getNoOfProjectProposals",
					"outputs": [],
					"stateMutability": "nonpayable",
					"type": "function"
				},
				{
					"inputs": [],
					"name": "getNoOfSurveys",
					"outputs": [],
					"stateMutability": "nonpayable",
					"type": "function"
				},
				{
					"inputs": [],
					"name": "getProjectInfo",
					"outputs": [],
					"stateMutability": "nonpayable",
					"type": "function"
				},
				{
					"inputs": [],
					"name": "getProjectNextPayment",
					"outputs": [],
					"stateMutability": "nonpayable",
					"type": "function"
				},
				{
					"inputs": [],
					"name": "getProjectOwner",
					"outputs": [],
					"stateMutability": "nonpayable",
					"type": "function"
				},
				{
					"inputs": [],
					"name": "getSurveyInfo",
					"outputs": [],
					"stateMutability": "nonpayable",
					"type": "function"
				},
				{
					"inputs": [],
					"name": "getSurveyOwner",
					"outputs": [],
					"stateMutability": "nonpayable",
					"type": "function"
				},
				{
					"inputs": [],
					"name": "getSurveyResults",
					"outputs": [],
					"stateMutability": "nonpayable",
					"type": "function"
				},
				{
					"inputs": [
						{
							"internalType": "address",
							"name": "spender",
							"type": "address"
						},
						{
							"internalType": "uint256",
							"name": "addedValue",
							"type": "uint256"
						}
					],
					"name": "increaseAllowance",
					"outputs": [
						{
							"internalType": "bool",
							"name": "",
							"type": "bool"
						}
					],
					"stateMutability": "nonpayable",
					"type": "function"
				},
				{
					"inputs": [],
					"name": "name",
					"outputs": [
						{
							"internalType": "string",
							"name": "",
							"type": "string"
						}
					],
					"stateMutability": "view",
					"type": "function"
				},
				{
					"inputs": [],
					"name": "reserveProjectGrant",
					"outputs": [],
					"stateMutability": "nonpayable",
					"type": "function"
				},
				{
					"inputs": [],
					"name": "submitProjectProposal",
					"outputs": [],
					"stateMutability": "nonpayable",
					"type": "function"
				},
				{
					"inputs": [],
					"name": "submitSurvey",
					"outputs": [],
					"stateMutability": "nonpayable",
					"type": "function"
				},
				{
					"inputs": [],
					"name": "symbol",
					"outputs": [
						{
							"internalType": "string",
							"name": "",
							"type": "string"
						}
					],
					"stateMutability": "view",
					"type": "function"
				},
				{
					"inputs": [],
					"name": "takeSurvey",
					"outputs": [],
					"stateMutability": "nonpayable",
					"type": "function"
				},
				{
					"inputs": [],
					"name": "totalSupply",
					"outputs": [
						{
							"internalType": "uint256",
							"name": "",
							"type": "uint256"
						}
					],
					"stateMutability": "view",
					"type": "function"
				},
				{
					"inputs": [
						{
							"internalType": "address",
							"name": "to",
							"type": "address"
						},
						{
							"internalType": "uint256",
							"name": "amount",
							"type": "uint256"
						}
					],
					"name": "transfer",
					"outputs": [
						{
							"internalType": "bool",
							"name": "",
							"type": "bool"
						}
					],
					"stateMutability": "nonpayable",
					"type": "function"
				},
				{
					"inputs": [
						{
							"internalType": "address",
							"name": "from",
							"type": "address"
						},
						{
							"internalType": "address",
							"name": "to",
							"type": "address"
						},
						{
							"internalType": "uint256",
							"name": "amount",
							"type": "uint256"
						}
					],
					"name": "transferFrom",
					"outputs": [
						{
							"internalType": "bool",
							"name": "",
							"type": "bool"
						}
					],
					"stateMutability": "nonpayable",
					"type": "function"
				},
				{
					"inputs": [],
					"name": "voteForProjectPayment",
					"outputs": [],
					"stateMutability": "nonpayable",
					"type": "function"
				},
				{
					"inputs": [],
					"name": "voteForProjectProposal",
					"outputs": [],
					"stateMutability": "nonpayable",
					"type": "function"
				},
				{
					"inputs": [],
					"name": "withdrawProjectPayment",
					"outputs": [],
					"stateMutability": "nonpayable",
					"type": "function"
				}
			],
			"devdoc": {
				"kind": "dev",
				"methods": {
					"allowance(address,address)": {
						"details": "See {IERC20-allowance}."
					},
					"approve(address,uint256)": {
						"details": "See {IERC20-approve}. NOTE: If `amount` is the maximum `uint256`, the allowance is not updated on `transferFrom`. This is semantically equivalent to an infinite approval. Requirements: - `spender` cannot be the zero address."
					},
					"balanceOf(address)": {
						"details": "See {IERC20-balanceOf}."
					},
					"decimals()": {
						"details": "Returns the number of decimals used to get its user representation. For example, if `decimals` equals `2`, a balance of `505` tokens should be displayed to a user as `5.05` (`505 / 10 ** 2`). Tokens usually opt for a value of 18, imitating the relationship between Ether and Wei. This is the value {ERC20} uses, unless this function is overridden; NOTE: This information is only used for _display_ purposes: it in no way affects any of the arithmetic of the contract, including {IERC20-balanceOf} and {IERC20-transfer}."
					},
					"decreaseAllowance(address,uint256)": {
						"details": "Atomically decreases the allowance granted to `spender` by the caller. This is an alternative to {approve} that can be used as a mitigation for problems described in {IERC20-approve}. Emits an {Approval} event indicating the updated allowance. Requirements: - `spender` cannot be the zero address. - `spender` must have allowance for the caller of at least `subtractedValue`."
					},
					"increaseAllowance(address,uint256)": {
						"details": "Atomically increases the allowance granted to `spender` by the caller. This is an alternative to {approve} that can be used as a mitigation for problems described in {IERC20-approve}. Emits an {Approval} event indicating the updated allowance. Requirements: - `spender` cannot be the zero address."
					},
					"name()": {
						"details": "Returns the name of the token."
					},
					"symbol()": {
						"details": "Returns the symbol of the token, usually a shorter version of the name."
					},
					"totalSupply()": {
						"details": "See {IERC20-totalSupply}."
					},
					"transfer(address,uint256)": {
						"details": "See {IERC20-transfer}. Requirements: - `to` cannot be the zero address. - the caller must have a balance of at least `amount`."
					},
					"transferFrom(address,address,uint256)": {
						"details": "See {IERC20-transferFrom}. Emits an {Approval} event indicating the updated allowance. This is not required by the EIP. See the note at the beginning of {ERC20}. NOTE: Does not update the allowance if the current allowance is the maximum `uint256`. Requirements: - `from` and `to` cannot be the zero address. - `from` must have a balance of at least `amount`. - the caller must have allowance for ``from``'s tokens of at least `amount`."
					}
				},
				"version": 1
			},
			"evm": {
				"assembly": "    /* \"contracts/MyGov.sol\":113:2115  contract MyGovToken is ERC20(\"MyGov Token\", \"MGT\"){... */\n  mstore(0x40, 0x80)\n    /* \"contracts/MyGov.sol\":211:339  constructor(uint tokensupply) {... */\n  callvalue\n  dup1\n  iszero\n  tag_1\n  jumpi\n  0x00\n  dup1\n  revert\ntag_1:\n  pop\n  mload(0x40)\n  sub(codesize, bytecodeSize)\n  dup1\n  bytecodeSize\n  dup4\n  codecopy\n  dup2\n  dup2\n  add\n  0x40\n  mstore\n  dup2\n  add\n  swap1\n  tag_2\n  swap2\n  swap1\n  tag_3\n  jump\t// in\ntag_2:\n    /* \"@openzeppelin/contracts/token/ERC20/ERC20.sol\":1976:2089  constructor(string memory name_, string memory symbol_) {... */\n  mload(0x40)\n  dup1\n  0x40\n  add\n  0x40\n  mstore\n  dup1\n  0x0b\n  dup2\n  mstore\n  0x20\n  add\n  0x4d79476f7620546f6b656e000000000000000000000000000000000000000000\n  dup2\n  mstore\n  pop\n  mload(0x40)\n  dup1\n  0x40\n  add\n  0x40\n  mstore\n  dup1\n  0x03\n  dup2\n  mstore\n  0x20\n  add\n  0x4d47540000000000000000000000000000000000000000000000000000000000\n  dup2\n  mstore\n  pop\n    /* \"@openzeppelin/contracts/token/ERC20/ERC20.sol\":2050:2055  name_ */\n  dup2\n    /* \"@openzeppelin/contracts/token/ERC20/ERC20.sol\":2042:2047  _name */\n  0x03\n    /* \"@openzeppelin/contracts/token/ERC20/ERC20.sol\":2042:2055  _name = name_ */\n  swap1\n  dup1\n  mload\n  swap1\n  0x20\n  add\n  swap1\n  tag_7\n  swap3\n  swap2\n  swap1\n  tag_8\n  jump\t// in\ntag_7:\n  pop\n    /* \"@openzeppelin/contracts/token/ERC20/ERC20.sol\":2075:2082  symbol_ */\n  dup1\n    /* \"@openzeppelin/contracts/token/ERC20/ERC20.sol\":2065:2072  _symbol */\n  0x04\n    /* \"@openzeppelin/contracts/token/ERC20/ERC20.sol\":2065:2082  _symbol = symbol_ */\n  swap1\n  dup1\n  mload\n  swap1\n  0x20\n  add\n  swap1\n  tag_9\n  swap3\n  swap2\n  swap1\n  tag_8\n  jump\t// in\ntag_9:\n  pop\n    /* \"@openzeppelin/contracts/token/ERC20/ERC20.sol\":1976:2089  constructor(string memory name_, string memory symbol_) {... */\n  pop\n  pop\n    /* \"contracts/MyGov.sol\":272:282  msg.sender */\n  caller\n    /* \"contracts/MyGov.sol\":251:261  tokenOwner */\n  0x05\n  0x00\n    /* \"contracts/MyGov.sol\":251:283  tokenOwner = payable(msg.sender) */\n  0x0100\n  exp\n  dup2\n  sload\n  dup2\n  0xffffffffffffffffffffffffffffffffffffffff\n  mul\n  not\n  and\n  swap1\n  dup4\n  0xffffffffffffffffffffffffffffffffffffffff\n  and\n  mul\n  or\n  swap1\n  sstore\n  pop\n    /* \"contracts/MyGov.sol\":293:332  _mint(msg.sender, tokensupply * 10**18) */\n  tag_11\n    /* \"contracts/MyGov.sol\":299:309  msg.sender */\n  caller\n    /* \"contracts/MyGov.sol\":325:331  10**18 */\n  0x0de0b6b3a7640000\n    /* \"contracts/MyGov.sol\":311:322  tokensupply */\n  dup4\n    /* \"contracts/MyGov.sol\":311:331  tokensupply * 10**18 */\n  tag_12\n  swap2\n  swap1\n  tag_13\n  jump\t// in\ntag_12:\n    /* \"contracts/MyGov.sol\":293:298  _mint */\n  shl(0x20, tag_14)\n    /* \"contracts/MyGov.sol\":293:332  _mint(msg.sender, tokensupply * 10**18) */\n  0x20\n  shr\n  jump\t// in\ntag_11:\n    /* \"contracts/MyGov.sol\":211:339  constructor(uint tokensupply) {... */\n  pop\n    /* \"contracts/MyGov.sol\":113:2115  contract MyGovToken is ERC20(\"MyGov Token\", \"MGT\"){... */\n  jump(tag_15)\n    /* \"@openzeppelin/contracts/token/ERC20/ERC20.sol\":8567:9102  function _mint(address account, uint256 amount) internal virtual {... */\ntag_14:\n    /* \"@openzeppelin/contracts/token/ERC20/ERC20.sol\":8669:8670  0 */\n  0x00\n    /* \"@openzeppelin/contracts/token/ERC20/ERC20.sol\":8650:8671  account != address(0) */\n  0xffffffffffffffffffffffffffffffffffffffff\n  and\n    /* \"@openzeppelin/contracts/token/ERC20/ERC20.sol\":8650:8657  account */\n  dup3\n    /* \"@openzeppelin/contracts/token/ERC20/ERC20.sol\":8650:8671  account != address(0) */\n  0xffffffffffffffffffffffffffffffffffffffff\n  and\n  eq\n  iszero\n    /* \"@openzeppelin/contracts/token/ERC20/ERC20.sol\":8642:8707  require(account != address(0), \"ERC20: mint to the zero address\") */\n  tag_17\n  jumpi\n  mload(0x40)\n  0x08c379a000000000000000000000000000000000000000000000000000000000\n  dup2\n  mstore\n  0x04\n  add\n  tag_18\n  swap1\n  tag_19\n  jump\t// in\ntag_18:\n  mload(0x40)\n  dup1\n  swap2\n  sub\n  swap1\n  revert\ntag_17:\n    /* \"@openzeppelin/contracts/token/ERC20/ERC20.sol\":8718:8767  _beforeTokenTransfer(address(0), account, amount) */\n  tag_20\n    /* \"@openzeppelin/contracts/token/ERC20/ERC20.sol\":8747:8748  0 */\n  0x00\n    /* \"@openzeppelin/contracts/token/ERC20/ERC20.sol\":8751:8758  account */\n  dup4\n    /* \"@openzeppelin/contracts/token/ERC20/ERC20.sol\":8760:8766  amount */\n  dup4\n    /* \"@openzeppelin/contracts/token/ERC20/ERC20.sol\":8718:8738  _beforeTokenTransfer */\n  shl(0x20, tag_21)\n    /* \"@openzeppelin/contracts/token/ERC20/ERC20.sol\":8718:8767  _beforeTokenTransfer(address(0), account, amount) */\n  0x20\n  shr\n  jump\t// in\ntag_20:\n    /* \"@openzeppelin/contracts/token/ERC20/ERC20.sol\":8794:8800  amount */\n  dup1\n    /* \"@openzeppelin/contracts/token/ERC20/ERC20.sol\":8778:8790  _totalSupply */\n  0x02\n  0x00\n    /* \"@openzeppelin/contracts/token/ERC20/ERC20.sol\":8778:8800  _totalSupply += amount */\n  dup3\n  dup3\n  sload\n  tag_22\n  swap2\n  swap1\n  tag_23\n  jump\t// in\ntag_22:\n  swap3\n  pop\n  pop\n  dup2\n  swap1\n  sstore\n  pop\n    /* \"@openzeppelin/contracts/token/ERC20/ERC20.sol\":8968:8974  amount */\n  dup1\n    /* \"@openzeppelin/contracts/token/ERC20/ERC20.sol\":8946:8955  _balances */\n  0x00\n    /* \"@openzeppelin/contracts/token/ERC20/ERC20.sol\":8946:8964  _balances[account] */\n  dup1\n    /* \"@openzeppelin/contracts/token/ERC20/ERC20.sol\":8956:8963  account */\n  dup5\n    /* \"@openzeppelin/contracts/token/ERC20/ERC20.sol\":8946:8964  _balances[account] */\n  0xffffffffffffffffffffffffffffffffffffffff\n  and\n  0xffffffffffffffffffffffffffffffffffffffff\n  and\n  dup2\n  mstore\n  0x20\n  add\n  swap1\n  dup2\n  mstore\n  0x20\n  add\n  0x00\n  keccak256\n  0x00\n    /* \"@openzeppelin/contracts/token/ERC20/ERC20.sol\":8946:8974  _balances[account] += amount */\n  dup3\n  dup3\n  sload\n  add\n  swap3\n  pop\n  pop\n  dup2\n  swap1\n  sstore\n  pop\n    /* \"@openzeppelin/contracts/token/ERC20/ERC20.sol\":9020:9027  account */\n  dup2\n    /* \"@openzeppelin/contracts/token/ERC20/ERC20.sol\":8999:9036  Transfer(address(0), account, amount) */\n  0xffffffffffffffffffffffffffffffffffffffff\n  and\n    /* \"@openzeppelin/contracts/token/ERC20/ERC20.sol\":9016:9017  0 */\n  0x00\n    /* \"@openzeppelin/contracts/token/ERC20/ERC20.sol\":8999:9036  Transfer(address(0), account, amount) */\n  0xffffffffffffffffffffffffffffffffffffffff\n  and\n  0xddf252ad1be2c89b69c2b068fc378daa952ba7f163c4a11628f55a4df523b3ef\n    /* \"@openzeppelin/contracts/token/ERC20/ERC20.sol\":9029:9035  amount */\n  dup4\n    /* \"@openzeppelin/contracts/token/ERC20/ERC20.sol\":8999:9036  Transfer(address(0), account, amount) */\n  mload(0x40)\n  tag_24\n  swap2\n  swap1\n  tag_25\n  jump\t// in\ntag_24:\n  mload(0x40)\n  dup1\n  swap2\n  sub\n  swap1\n  log3\n    /* \"@openzeppelin/contracts/token/ERC20/ERC20.sol\":9047:9095  _afterTokenTransfer(address(0), account, amount) */\n  tag_26\n    /* \"@openzeppelin/contracts/token/ERC20/ERC20.sol\":9075:9076  0 */\n  0x00\n    /* \"@openzeppelin/contracts/token/ERC20/ERC20.sol\":9079:9086  account */\n  dup4\n    /* \"@openzeppelin/contracts/token/ERC20/ERC20.sol\":9088:9094  amount */\n  dup4\n    /* \"@openzeppelin/contracts/token/ERC20/ERC20.sol\":9047:9066  _afterTokenTransfer */\n  shl(0x20, tag_27)\n    /* \"@openzeppelin/contracts/token/ERC20/ERC20.sol\":9047:9095  _afterTokenTransfer(address(0), account, amount) */\n  0x20\n  shr\n  jump\t// in\ntag_26:\n    /* \"@openzeppelin/contracts/token/ERC20/ERC20.sol\":8567:9102  function _mint(address account, uint256 amount) internal virtual {... */\n  pop\n  pop\n  jump\t// out\n    /* \"@openzeppelin/contracts/token/ERC20/ERC20.sol\":12180:12301  function _beforeTokenTransfer(... */\ntag_21:\n  pop\n  pop\n  pop\n  jump\t// out\n    /* \"@openzeppelin/contracts/token/ERC20/ERC20.sol\":12889:13009  function _afterTokenTransfer(... */\ntag_27:\n  pop\n  pop\n  pop\n  jump\t// out\n    /* \"contracts/MyGov.sol\":113:2115  contract MyGovToken is ERC20(\"MyGov Token\", \"MGT\"){... */\ntag_8:\n  dup3\n  dup1\n  sload\n  tag_30\n  swap1\n  tag_31\n  jump\t// in\ntag_30:\n  swap1\n  0x00\n  mstore\n  keccak256(0x00, 0x20)\n  swap1\n  0x1f\n  add\n  0x20\n  swap1\n  div\n  dup2\n  add\n  swap3\n  dup3\n  tag_33\n  jumpi\n  0x00\n  dup6\n  sstore\n  jump(tag_32)\ntag_33:\n  dup3\n  0x1f\n  lt\n  tag_34\n  jumpi\n  dup1\n  mload\n  not(0xff)\n  and\n  dup4\n  dup1\n  add\n  or\n  dup6\n  sstore\n  jump(tag_32)\ntag_34:\n  dup3\n  dup1\n  add\n  0x01\n  add\n  dup6\n  sstore\n  dup3\n  iszero\n  tag_32\n  jumpi\n  swap2\n  dup3\n  add\ntag_35:\n  dup3\n  dup2\n  gt\n  iszero\n  tag_36\n  jumpi\n  dup3\n  mload\n  dup3\n  sstore\n  swap2\n  0x20\n  add\n  swap2\n  swap1\n  0x01\n  add\n  swap1\n  jump(tag_35)\ntag_36:\ntag_32:\n  pop\n  swap1\n  pop\n  tag_37\n  swap2\n  swap1\n  tag_38\n  jump\t// in\ntag_37:\n  pop\n  swap1\n  jump\t// out\ntag_38:\ntag_39:\n  dup1\n  dup3\n  gt\n  iszero\n  tag_40\n  jumpi\n  0x00\n  dup2\n  0x00\n  swap1\n  sstore\n  pop\n  0x01\n  add\n  jump(tag_39)\ntag_40:\n  pop\n  swap1\n  jump\t// out\n    /* \"#utility.yul\":7:150   */\ntag_42:\n  0x00\n    /* \"#utility.yul\":95:101   */\n  dup2\n    /* \"#utility.yul\":89:102   */\n  mload\n    /* \"#utility.yul\":80:102   */\n  swap1\n  pop\n    /* \"#utility.yul\":111:144   */\n  tag_44\n    /* \"#utility.yul\":138:143   */\n  dup2\n    /* \"#utility.yul\":111:144   */\n  tag_45\n  jump\t// in\ntag_44:\n    /* \"#utility.yul\":70:150   */\n  swap3\n  swap2\n  pop\n  pop\n  jump\t// out\n    /* \"#utility.yul\":156:440   */\ntag_3:\n  0x00\n    /* \"#utility.yul\":275:277   */\n  0x20\n    /* \"#utility.yul\":263:272   */\n  dup3\n    /* \"#utility.yul\":254:261   */\n  dup5\n    /* \"#utility.yul\":250:273   */\n  sub\n    /* \"#utility.yul\":246:278   */\n  slt\n    /* \"#utility.yul\":243:245   */\n  iszero\n  tag_47\n  jumpi\n    /* \"#utility.yul\":291:292   */\n  0x00\n    /* \"#utility.yul\":288:289   */\n  dup1\n    /* \"#utility.yul\":281:293   */\n  revert\n    /* \"#utility.yul\":243:245   */\ntag_47:\n    /* \"#utility.yul\":334:335   */\n  0x00\n    /* \"#utility.yul\":359:423   */\n  tag_48\n    /* \"#utility.yul\":415:422   */\n  dup5\n    /* \"#utility.yul\":406:412   */\n  dup3\n    /* \"#utility.yul\":395:404   */\n  dup6\n    /* \"#utility.yul\":391:413   */\n  add\n    /* \"#utility.yul\":359:423   */\n  tag_42\n  jump\t// in\ntag_48:\n    /* \"#utility.yul\":349:423   */\n  swap2\n  pop\n    /* \"#utility.yul\":305:433   */\n  pop\n    /* \"#utility.yul\":233:440   */\n  swap3\n  swap2\n  pop\n  pop\n  jump\t// out\n    /* \"#utility.yul\":446:775   */\ntag_49:\n  0x00\n    /* \"#utility.yul\":609:676   */\n  tag_51\n    /* \"#utility.yul\":673:675   */\n  0x1f\n    /* \"#utility.yul\":668:671   */\n  dup4\n    /* \"#utility.yul\":609:676   */\n  tag_52\n  jump\t// in\ntag_51:\n    /* \"#utility.yul\":602:676   */\n  swap2\n  pop\n    /* \"#utility.yul\":706:739   */\n  0x45524332303a206d696e7420746f20746865207a65726f206164647265737300\n    /* \"#utility.yul\":702:703   */\n  0x00\n    /* \"#utility.yul\":697:700   */\n  dup4\n    /* \"#utility.yul\":693:704   */\n  add\n    /* \"#utility.yul\":686:740   */\n  mstore\n    /* \"#utility.yul\":766:768   */\n  0x20\n    /* \"#utility.yul\":761:764   */\n  dup3\n    /* \"#utility.yul\":757:769   */\n  add\n    /* \"#utility.yul\":750:769   */\n  swap1\n  pop\n    /* \"#utility.yul\":592:775   */\n  swap2\n  swap1\n  pop\n  jump\t// out\n    /* \"#utility.yul\":781:899   */\ntag_53:\n    /* \"#utility.yul\":868:892   */\n  tag_55\n    /* \"#utility.yul\":886:891   */\n  dup2\n    /* \"#utility.yul\":868:892   */\n  tag_56\n  jump\t// in\ntag_55:\n    /* \"#utility.yul\":863:866   */\n  dup3\n    /* \"#utility.yul\":856:893   */\n  mstore\n    /* \"#utility.yul\":846:899   */\n  pop\n  pop\n  jump\t// out\n    /* \"#utility.yul\":905:1324   */\ntag_19:\n  0x00\n    /* \"#utility.yul\":1109:1111   */\n  0x20\n    /* \"#utility.yul\":1098:1107   */\n  dup3\n    /* \"#utility.yul\":1094:1112   */\n  add\n    /* \"#utility.yul\":1086:1112   */\n  swap1\n  pop\n    /* \"#utility.yul\":1158:1167   */\n  dup2\n    /* \"#utility.yul\":1152:1156   */\n  dup2\n    /* \"#utility.yul\":1148:1168   */\n  sub\n    /* \"#utility.yul\":1144:1145   */\n  0x00\n    /* \"#utility.yul\":1133:1142   */\n  dup4\n    /* \"#utility.yul\":1129:1146   */\n  add\n    /* \"#utility.yul\":1122:1169   */\n  mstore\n    /* \"#utility.yul\":1186:1317   */\n  tag_58\n    /* \"#utility.yul\":1312:1316   */\n  dup2\n    /* \"#utility.yul\":1186:1317   */\n  tag_49\n  jump\t// in\ntag_58:\n    /* \"#utility.yul\":1178:1317   */\n  swap1\n  pop\n    /* \"#utility.yul\":1076:1324   */\n  swap2\n  swap1\n  pop\n  jump\t// out\n    /* \"#utility.yul\":1330:1552   */\ntag_25:\n  0x00\n    /* \"#utility.yul\":1461:1463   */\n  0x20\n    /* \"#utility.yul\":1450:1459   */\n  dup3\n    /* \"#utility.yul\":1446:1464   */\n  add\n    /* \"#utility.yul\":1438:1464   */\n  swap1\n  pop\n    /* \"#utility.yul\":1474:1545   */\n  tag_60\n    /* \"#utility.yul\":1542:1543   */\n  0x00\n    /* \"#utility.yul\":1531:1540   */\n  dup4\n    /* \"#utility.yul\":1527:1544   */\n  add\n    /* \"#utility.yul\":1518:1524   */\n  dup5\n    /* \"#utility.yul\":1474:1545   */\n  tag_53\n  jump\t// in\ntag_60:\n    /* \"#utility.yul\":1428:1552   */\n  swap3\n  swap2\n  pop\n  pop\n  jump\t// out\n    /* \"#utility.yul\":1558:1727   */\ntag_52:\n  0x00\n    /* \"#utility.yul\":1676:1682   */\n  dup3\n    /* \"#utility.yul\":1671:1674   */\n  dup3\n    /* \"#utility.yul\":1664:1683   */\n  mstore\n    /* \"#utility.yul\":1716:1720   */\n  0x20\n    /* \"#utility.yul\":1711:1714   */\n  dup3\n    /* \"#utility.yul\":1707:1721   */\n  add\n    /* \"#utility.yul\":1692:1721   */\n  swap1\n  pop\n    /* \"#utility.yul\":1654:1727   */\n  swap3\n  swap2\n  pop\n  pop\n  jump\t// out\n    /* \"#utility.yul\":1733:2038   */\ntag_23:\n  0x00\n    /* \"#utility.yul\":1792:1812   */\n  tag_63\n    /* \"#utility.yul\":1810:1811   */\n  dup3\n    /* \"#utility.yul\":1792:1812   */\n  tag_56\n  jump\t// in\ntag_63:\n    /* \"#utility.yul\":1787:1812   */\n  swap2\n  pop\n    /* \"#utility.yul\":1826:1846   */\n  tag_64\n    /* \"#utility.yul\":1844:1845   */\n  dup4\n    /* \"#utility.yul\":1826:1846   */\n  tag_56\n  jump\t// in\ntag_64:\n    /* \"#utility.yul\":1821:1846   */\n  swap3\n  pop\n    /* \"#utility.yul\":1980:1981   */\n  dup3\n    /* \"#utility.yul\":1912:1978   */\n  0xffffffffffffffffffffffffffffffffffffffffffffffffffffffffffffffff\n    /* \"#utility.yul\":1908:1982   */\n  sub\n    /* \"#utility.yul\":1905:1906   */\n  dup3\n    /* \"#utility.yul\":1902:1983   */\n  gt\n    /* \"#utility.yul\":1899:1901   */\n  iszero\n  tag_65\n  jumpi\n    /* \"#utility.yul\":1986:2004   */\n  tag_66\n  tag_67\n  jump\t// in\ntag_66:\n    /* \"#utility.yul\":1899:1901   */\ntag_65:\n    /* \"#utility.yul\":2030:2031   */\n  dup3\n    /* \"#utility.yul\":2027:2028   */\n  dup3\n    /* \"#utility.yul\":2023:2032   */\n  add\n    /* \"#utility.yul\":2016:2032   */\n  swap1\n  pop\n    /* \"#utility.yul\":1777:2038   */\n  swap3\n  swap2\n  pop\n  pop\n  jump\t// out\n    /* \"#utility.yul\":2044:2392   */\ntag_13:\n  0x00\n    /* \"#utility.yul\":2107:2127   */\n  tag_69\n    /* \"#utility.yul\":2125:2126   */\n  dup3\n    /* \"#utility.yul\":2107:2127   */\n  tag_56\n  jump\t// in\ntag_69:\n    /* \"#utility.yul\":2102:2127   */\n  swap2\n  pop\n    /* \"#utility.yul\":2141:2161   */\n  tag_70\n    /* \"#utility.yul\":2159:2160   */\n  dup4\n    /* \"#utility.yul\":2141:2161   */\n  tag_56\n  jump\t// in\ntag_70:\n    /* \"#utility.yul\":2136:2161   */\n  swap3\n  pop\n    /* \"#utility.yul\":2329:2330   */\n  dup2\n    /* \"#utility.yul\":2261:2327   */\n  0xffffffffffffffffffffffffffffffffffffffffffffffffffffffffffffffff\n    /* \"#utility.yul\":2257:2331   */\n  div\n    /* \"#utility.yul\":2254:2255   */\n  dup4\n    /* \"#utility.yul\":2251:2332   */\n  gt\n    /* \"#utility.yul\":2246:2247   */\n  dup3\n    /* \"#utility.yul\":2239:2248   */\n  iszero\n    /* \"#utility.yul\":2232:2249   */\n  iszero\n    /* \"#utility.yul\":2228:2333   */\n  and\n    /* \"#utility.yul\":2225:2227   */\n  iszero\n  tag_71\n  jumpi\n    /* \"#utility.yul\":2336:2354   */\n  tag_72\n  tag_67\n  jump\t// in\ntag_72:\n    /* \"#utility.yul\":2225:2227   */\ntag_71:\n    /* \"#utility.yul\":2384:2385   */\n  dup3\n    /* \"#utility.yul\":2381:2382   */\n  dup3\n    /* \"#utility.yul\":2377:2386   */\n  mul\n    /* \"#utility.yul\":2366:2386   */\n  swap1\n  pop\n    /* \"#utility.yul\":2092:2392   */\n  swap3\n  swap2\n  pop\n  pop\n  jump\t// out\n    /* \"#utility.yul\":2398:2475   */\ntag_56:\n  0x00\n    /* \"#utility.yul\":2464:2469   */\n  dup2\n    /* \"#utility.yul\":2453:2469   */\n  swap1\n  pop\n    /* \"#utility.yul\":2443:2475   */\n  swap2\n  swap1\n  pop\n  jump\t// out\n    /* \"#utility.yul\":2481:2801   */\ntag_31:\n  0x00\n    /* \"#utility.yul\":2562:2563   */\n  0x02\n    /* \"#utility.yul\":2556:2560   */\n  dup3\n    /* \"#utility.yul\":2552:2564   */\n  div\n    /* \"#utility.yul\":2542:2564   */\n  swap1\n  pop\n    /* \"#utility.yul\":2609:2610   */\n  0x01\n    /* \"#utility.yul\":2603:2607   */\n  dup3\n    /* \"#utility.yul\":2599:2611   */\n  and\n    /* \"#utility.yul\":2630:2648   */\n  dup1\n    /* \"#utility.yul\":2620:2622   */\n  tag_75\n  jumpi\n    /* \"#utility.yul\":2686:2690   */\n  0x7f\n    /* \"#utility.yul\":2678:2684   */\n  dup3\n    /* \"#utility.yul\":2674:2691   */\n  and\n    /* \"#utility.yul\":2664:2691   */\n  swap2\n  pop\n    /* \"#utility.yul\":2620:2622   */\ntag_75:\n    /* \"#utility.yul\":2748:2750   */\n  0x20\n    /* \"#utility.yul\":2740:2746   */\n  dup3\n    /* \"#utility.yul\":2737:2751   */\n  lt\n    /* \"#utility.yul\":2717:2735   */\n  dup2\n    /* \"#utility.yul\":2714:2752   */\n  eq\n    /* \"#utility.yul\":2711:2713   */\n  iszero\n  tag_76\n  jumpi\n    /* \"#utility.yul\":2767:2785   */\n  tag_77\n  tag_78\n  jump\t// in\ntag_77:\n    /* \"#utility.yul\":2711:2713   */\ntag_76:\n    /* \"#utility.yul\":2532:2801   */\n  pop\n  swap2\n  swap1\n  pop\n  jump\t// out\n    /* \"#utility.yul\":2807:2987   */\ntag_67:\n    /* \"#utility.yul\":2855:2932   */\n  0x4e487b7100000000000000000000000000000000000000000000000000000000\n    /* \"#utility.yul\":2852:2853   */\n  0x00\n    /* \"#utility.yul\":2845:2933   */\n  mstore\n    /* \"#utility.yul\":2952:2956   */\n  0x11\n    /* \"#utility.yul\":2949:2950   */\n  0x04\n    /* \"#utility.yul\":2942:2957   */\n  mstore\n    /* \"#utility.yul\":2976:2980   */\n  0x24\n    /* \"#utility.yul\":2973:2974   */\n  0x00\n    /* \"#utility.yul\":2966:2981   */\n  revert\n    /* \"#utility.yul\":2993:3173   */\ntag_78:\n    /* \"#utility.yul\":3041:3118   */\n  0x4e487b7100000000000000000000000000000000000000000000000000000000\n    /* \"#utility.yul\":3038:3039   */\n  0x00\n    /* \"#utility.yul\":3031:3119   */\n  mstore\n    /* \"#utility.yul\":3138:3142   */\n  0x22\n    /* \"#utility.yul\":3135:3136   */\n  0x04\n    /* \"#utility.yul\":3128:3143   */\n  mstore\n    /* \"#utility.yul\":3162:3166   */\n  0x24\n    /* \"#utility.yul\":3159:3160   */\n  0x00\n    /* \"#utility.yul\":3152:3167   */\n  revert\n    /* \"#utility.yul\":3179:3301   */\ntag_45:\n    /* \"#utility.yul\":3252:3276   */\n  tag_82\n    /* \"#utility.yul\":3270:3275   */\n  dup2\n    /* \"#utility.yul\":3252:3276   */\n  tag_56\n  jump\t// in\ntag_82:\n    /* \"#utility.yul\":3245:3250   */\n  dup2\n    /* \"#utility.yul\":3242:3277   */\n  eq\n    /* \"#utility.yul\":3232:3234   */\n  tag_83\n  jumpi\n    /* \"#utility.yul\":3291:3292   */\n  0x00\n    /* \"#utility.yul\":3288:3289   */\n  dup1\n    /* \"#utility.yul\":3281:3293   */\n  revert\n    /* \"#utility.yul\":3232:3234   */\ntag_83:\n    /* \"#utility.yul\":3222:3301   */\n  pop\n  jump\t// out\n    /* \"contracts/MyGov.sol\":113:2115  contract MyGovToken is ERC20(\"MyGov Token\", \"MGT\"){... */\ntag_15:\n  dataSize(sub_0)\n  dup1\n  dataOffset(sub_0)\n  0x00\n  codecopy\n  0x00\n  return\nstop\n\nsub_0: assembly {\n        /* \"contracts/MyGov.sol\":113:2115  contract MyGovToken is ERC20(\"MyGov Token\", \"MGT\"){... */\n      mstore(0x40, 0x80)\n      jumpi(tag_1, lt(calldatasize, 0x04))\n      shr(0xe0, calldataload(0x00))\n      dup1\n      0x70e1133c\n      gt\n      tag_34\n      jumpi\n      dup1\n      0xa9059cbb\n      gt\n      tag_35\n      jumpi\n      dup1\n      0xbf50556d\n      gt\n      tag_36\n      jumpi\n      dup1\n      0xbf50556d\n      eq\n      tag_30\n      jumpi\n      dup1\n      0xdd62ed3e\n      eq\n      tag_31\n      jumpi\n      dup1\n      0xe00e03f9\n      eq\n      tag_32\n      jumpi\n      dup1\n      0xe6d68595\n      eq\n      tag_33\n      jumpi\n      jump(tag_1)\n    tag_36:\n      dup1\n      0xa9059cbb\n      eq\n      tag_26\n      jumpi\n      dup1\n      0xaf60d560\n      eq\n      tag_27\n      jumpi\n      dup1\n      0xb28a7df0\n      eq\n      tag_28\n      jumpi\n      dup1\n      0xbafc462d\n      eq\n      tag_29\n      jumpi\n      jump(tag_1)\n    tag_35:\n      dup1\n      0x8fbe3750\n      gt\n      tag_37\n      jumpi\n      dup1\n      0x8fbe3750\n      eq\n      tag_22\n      jumpi\n      dup1\n      0x95d89b41\n      eq\n      tag_23\n      jumpi\n      dup1\n      0x97cfe54b\n      eq\n      tag_24\n      jumpi\n      dup1\n      0xa457c2d7\n      eq\n      tag_25\n      jumpi\n      jump(tag_1)\n    tag_37:\n      dup1\n      0x70e1133c\n      eq\n      tag_18\n      jumpi\n      dup1\n      0x72a4e9ba\n      eq\n      tag_19\n      jumpi\n      dup1\n      0x774f6fe7\n      eq\n      tag_20\n      jumpi\n      dup1\n      0x863451dd\n      eq\n      tag_21\n      jumpi\n      jump(tag_1)\n    tag_34:\n      dup1\n      0x35655237\n      gt\n      tag_38\n      jumpi\n      dup1\n      0x492ff0b7\n      gt\n      tag_39\n      jumpi\n      dup1\n      0x492ff0b7\n      eq\n      tag_14\n      jumpi\n      dup1\n      0x5d801b37\n      eq\n      tag_15\n      jumpi\n      dup1\n      0x67c897fe\n      eq\n      tag_16\n      jumpi\n      dup1\n      0x70a08231\n      eq\n      tag_17\n      jumpi\n      jump(tag_1)\n    tag_39:\n      dup1\n      0x35655237\n      eq\n      tag_10\n      jumpi\n      dup1\n      0x36d8ef39\n      eq\n      tag_11\n      jumpi\n      dup1\n      0x39509351\n      eq\n      tag_12\n      jumpi\n      dup1\n      0x39c94d2d\n      eq\n      tag_13\n      jumpi\n      jump(tag_1)\n    tag_38:\n      dup1\n      0x18160ddd\n      gt\n      tag_40\n      jumpi\n      dup1\n      0x18160ddd\n      eq\n      tag_6\n      jumpi\n      dup1\n      0x23b872dd\n      eq\n      tag_7\n      jumpi\n      dup1\n      0x23fd498b\n      eq\n      tag_8\n      jumpi\n      dup1\n      0x313ce567\n      eq\n      tag_9\n      jumpi\n      jump(tag_1)\n    tag_40:\n      dup1\n      0x033cb2d3\n      eq\n      tag_2\n      jumpi\n      dup1\n      0x06fdde03\n      eq\n      tag_3\n      jumpi\n      dup1\n      0x095ea7b3\n      eq\n      tag_4\n      jumpi\n      dup1\n      0x164dfd3b\n      eq\n      tag_5\n      jumpi\n    tag_1:\n      0x00\n      dup1\n      revert\n        /* \"contracts/MyGov.sol\":950:1020  function takeSurvey()public{... */\n    tag_2:\n      callvalue\n      dup1\n      iszero\n      tag_41\n      jumpi\n      0x00\n      dup1\n      revert\n    tag_41:\n      pop\n      tag_42\n      tag_43\n      jump\t// in\n    tag_42:\n      stop\n        /* \"@openzeppelin/contracts/token/ERC20/ERC20.sol\":2154:2252  function name() public view virtual override returns (string memory) {... */\n    tag_3:\n      callvalue\n      dup1\n      iszero\n      tag_44\n      jumpi\n      0x00\n      dup1\n      revert\n    tag_44:\n      pop\n      tag_45\n      tag_46\n      jump\t// in\n    tag_45:\n      mload(0x40)\n      tag_47\n      swap2\n      swap1\n      tag_48\n      jump\t// in\n    tag_47:\n      mload(0x40)\n      dup1\n      swap2\n      sub\n      swap1\n      return\n        /* \"@openzeppelin/contracts/token/ERC20/ERC20.sol\":4431:4628  function approve(address spender, uint256 amount) public virtual override returns (bool) {... */\n    tag_4:\n      callvalue\n      dup1\n      iszero\n      tag_49\n      jumpi\n      0x00\n      dup1\n      revert\n    tag_49:\n      pop\n      tag_50\n      0x04\n      dup1\n      calldatasize\n      sub\n      dup2\n      add\n      swap1\n      tag_51\n      swap2\n      swap1\n      tag_52\n      jump\t// in\n    tag_51:\n      tag_53\n      jump\t// in\n    tag_50:\n      mload(0x40)\n      tag_54\n      swap2\n      swap1\n      tag_55\n      jump\t// in\n    tag_54:\n      mload(0x40)\n      dup1\n      swap2\n      sub\n      swap1\n      return\n        /* \"contracts/MyGov.sol\":1948:2033  function getEtherReceivedByProject()public{... */\n    tag_5:\n      callvalue\n      dup1\n      iszero\n      tag_56\n      jumpi\n      0x00\n      dup1\n      revert\n    tag_56:\n      pop\n      tag_57\n      tag_58\n      jump\t// in\n    tag_57:\n      stop\n        /* \"@openzeppelin/contracts/token/ERC20/ERC20.sol\":3242:3348  function totalSupply() public view virtual override returns (uint256) {... */\n    tag_6:\n      callvalue\n      dup1\n      iszero\n      tag_59\n      jumpi\n      0x00\n      dup1\n      revert\n    tag_59:\n      pop\n      tag_60\n      tag_61\n      jump\t// in\n    tag_60:\n      mload(0x40)\n      tag_62\n      swap2\n      swap1\n      tag_63\n      jump\t// in\n    tag_62:\n      mload(0x40)\n      dup1\n      swap2\n      sub\n      swap1\n      return\n        /* \"@openzeppelin/contracts/token/ERC20/ERC20.sol\":5190:5476  function transferFrom(... */\n    tag_7:\n      callvalue\n      dup1\n      iszero\n      tag_64\n      jumpi\n      0x00\n      dup1\n      revert\n    tag_64:\n      pop\n      tag_65\n      0x04\n      dup1\n      calldatasize\n      sub\n      dup2\n      add\n      swap1\n      tag_66\n      swap2\n      swap1\n      tag_67\n      jump\t// in\n    tag_66:\n      tag_68\n      jump\t// in\n    tag_65:\n      mload(0x40)\n      tag_69\n      swap2\n      swap1\n      tag_55\n      jump\t// in\n    tag_69:\n      mload(0x40)\n      dup1\n      swap2\n      sub\n      swap1\n      return\n        /* \"contracts/MyGov.sol\":1772:1855  function getNoOfProjectProposals()public{... */\n    tag_8:\n      callvalue\n      dup1\n      iszero\n      tag_70\n      jumpi\n      0x00\n      dup1\n      revert\n    tag_70:\n      pop\n      tag_71\n      tag_72\n      jump\t// in\n    tag_71:\n      stop\n        /* \"@openzeppelin/contracts/token/ERC20/ERC20.sol\":3091:3182  function decimals() public view virtual override returns (uint8) {... */\n    tag_9:\n      callvalue\n      dup1\n      iszero\n      tag_73\n      jumpi\n      0x00\n      dup1\n      revert\n    tag_73:\n      pop\n      tag_74\n      tag_75\n      jump\t// in\n    tag_74:\n      mload(0x40)\n      tag_76\n      swap2\n      swap1\n      tag_77\n      jump\t// in\n    tag_76:\n      mload(0x40)\n      dup1\n      swap2\n      sub\n      swap1\n      return\n        /* \"contracts/MyGov.sol\":1440:1518  function getIsProjectFunded()public{... */\n    tag_10:\n      callvalue\n      dup1\n      iszero\n      tag_78\n      jumpi\n      0x00\n      dup1\n      revert\n    tag_78:\n      pop\n      tag_79\n      tag_80\n      jump\t// in\n    tag_79:\n      stop\n        /* \"contracts/MyGov.sol\":785:866  function submitProjectProposal()public{... */\n    tag_11:\n      callvalue\n      dup1\n      iszero\n      tag_81\n      jumpi\n      0x00\n      dup1\n      revert\n    tag_81:\n      pop\n      tag_82\n      tag_83\n      jump\t// in\n    tag_82:\n      stop\n        /* \"@openzeppelin/contracts/token/ERC20/ERC20.sol\":5871:6105  function increaseAllowance(address spender, uint256 addedValue) public virtual returns (bool) {... */\n    tag_12:\n      callvalue\n      dup1\n      iszero\n      tag_84\n      jumpi\n      0x00\n      dup1\n      revert\n    tag_84:\n      pop\n      tag_85\n      0x04\n      dup1\n      calldatasize\n      sub\n      dup2\n      add\n      swap1\n      tag_86\n      swap2\n      swap1\n      tag_52\n      jump\t// in\n    tag_86:\n      tag_87\n      jump\t// in\n    tag_85:\n      mload(0x40)\n      tag_88\n      swap2\n      swap1\n      tag_55\n      jump\t// in\n    tag_88:\n      mload(0x40)\n      dup1\n      swap2\n      sub\n      swap1\n      return\n        /* \"contracts/MyGov.sol\":513:604  function donateMyGovToken(uint amount) public {... */\n    tag_13:\n      callvalue\n      dup1\n      iszero\n      tag_89\n      jumpi\n      0x00\n      dup1\n      revert\n    tag_89:\n      pop\n      tag_90\n      0x04\n      dup1\n      calldatasize\n      sub\n      dup2\n      add\n      swap1\n      tag_91\n      swap2\n      swap1\n      tag_92\n      jump\t// in\n    tag_91:\n      tag_93\n      jump\t// in\n    tag_90:\n      stop\n        /* \"contracts/MyGov.sol\":1360:1434  function getSurveyOwner()public{... */\n    tag_14:\n      callvalue\n      dup1\n      iszero\n      tag_94\n      jumpi\n      0x00\n      dup1\n      revert\n    tag_94:\n      pop\n      tag_95\n      tag_96\n      jump\t// in\n    tag_95:\n      stop\n        /* \"contracts/MyGov.sol\":2039:2113  function getNoOfSurveys()public{... */\n    tag_15:\n      callvalue\n      dup1\n      iszero\n      tag_97\n      jumpi\n      0x00\n      dup1\n      revert\n    tag_97:\n      pop\n      tag_98\n      tag_99\n      jump\t// in\n    tag_98:\n      stop\n        /* \"contracts/MyGov.sol\":1692:1766  function getProjectInfo()public{... */\n    tag_16:\n      callvalue\n      dup1\n      iszero\n      tag_100\n      jumpi\n      0x00\n      dup1\n      revert\n    tag_100:\n      pop\n      tag_101\n      tag_102\n      jump\t// in\n    tag_101:\n      stop\n        /* \"@openzeppelin/contracts/token/ERC20/ERC20.sol\":3406:3531  function balanceOf(address account) public view virtual override returns (uint256) {... */\n    tag_17:\n      callvalue\n      dup1\n      iszero\n      tag_103\n      jumpi\n      0x00\n      dup1\n      revert\n    tag_103:\n      pop\n      tag_104\n      0x04\n      dup1\n      calldatasize\n      sub\n      dup2\n      add\n      swap1\n      tag_105\n      swap2\n      swap1\n      tag_106\n      jump\t// in\n    tag_105:\n      tag_107\n      jump\t// in\n    tag_104:\n      mload(0x40)\n      tag_108\n      swap2\n      swap1\n      tag_63\n      jump\t// in\n    tag_108:\n      mload(0x40)\n      dup1\n      swap2\n      sub\n      swap1\n      return\n        /* \"contracts/MyGov.sol\":1111:1193  function withdrawProjectPayment()public{... */\n    tag_18:\n      callvalue\n      dup1\n      iszero\n      tag_109\n      jumpi\n      0x00\n      dup1\n      revert\n    tag_109:\n      pop\n      tag_110\n      tag_111\n      jump\t// in\n    tag_110:\n      stop\n        /* \"contracts/MyGov.sol\":698:779  function voteForProjectPayment()public{... */\n    tag_19:\n      callvalue\n      dup1\n      iszero\n      tag_112\n      jumpi\n      0x00\n      dup1\n      revert\n    tag_112:\n      pop\n      tag_113\n      tag_114\n      jump\t// in\n    tag_113:\n      stop\n        /* \"contracts/MyGov.sol\":610:692  function voteForProjectProposal()public{... */\n    tag_20:\n      callvalue\n      dup1\n      iszero\n      tag_115\n      jumpi\n      0x00\n      dup1\n      revert\n    tag_115:\n      pop\n      tag_116\n      tag_117\n      jump\t// in\n    tag_116:\n      stop\n        /* \"contracts/MyGov.sol\":426:507  function donateEther() external payable {... */\n    tag_21:\n      tag_118\n      tag_119\n      jump\t// in\n    tag_118:\n      stop\n        /* \"contracts/MyGov.sol\":1199:1275  function getSurveyResults()public{... */\n    tag_22:\n      callvalue\n      dup1\n      iszero\n      tag_120\n      jumpi\n      0x00\n      dup1\n      revert\n    tag_120:\n      pop\n      tag_121\n      tag_122\n      jump\t// in\n    tag_121:\n      stop\n        /* \"@openzeppelin/contracts/token/ERC20/ERC20.sol\":2365:2467  function symbol() public view virtual override returns (string memory) {... */\n    tag_23:\n      callvalue\n      dup1\n      iszero\n      tag_123\n      jumpi\n      0x00\n      dup1\n      revert\n    tag_123:\n      pop\n      tag_124\n      tag_125\n      jump\t// in\n    tag_124:\n      mload(0x40)\n      tag_126\n      swap2\n      swap1\n      tag_48\n      jump\t// in\n    tag_126:\n      mload(0x40)\n      dup1\n      swap2\n      sub\n      swap1\n      return\n        /* \"contracts/MyGov.sol\":872:944  function submitSurvey()public{... */\n    tag_24:\n      callvalue\n      dup1\n      iszero\n      tag_127\n      jumpi\n      0x00\n      dup1\n      revert\n    tag_127:\n      pop\n      tag_128\n      tag_129\n      jump\t// in\n    tag_128:\n      stop\n        /* \"@openzeppelin/contracts/token/ERC20/ERC20.sol\":6592:7019  function decreaseAllowance(address spender, uint256 subtractedValue) public virtual returns (bool) {... */\n    tag_25:\n      callvalue\n      dup1\n      iszero\n      tag_130\n      jumpi\n      0x00\n      dup1\n      revert\n    tag_130:\n      pop\n      tag_131\n      0x04\n      dup1\n      calldatasize\n      sub\n      dup2\n      add\n      swap1\n      tag_132\n      swap2\n      swap1\n      tag_52\n      jump\t// in\n    tag_132:\n      tag_133\n      jump\t// in\n    tag_131:\n      mload(0x40)\n      tag_134\n      swap2\n      swap1\n      tag_55\n      jump\t// in\n    tag_134:\n      mload(0x40)\n      dup1\n      swap2\n      sub\n      swap1\n      return\n        /* \"@openzeppelin/contracts/token/ERC20/ERC20.sol\":3727:3916  function transfer(address to, uint256 amount) public virtual override returns (bool) {... */\n    tag_26:\n      callvalue\n      dup1\n      iszero\n      tag_135\n      jumpi\n      0x00\n      dup1\n      revert\n    tag_135:\n      pop\n      tag_136\n      0x04\n      dup1\n      calldatasize\n      sub\n      dup2\n      add\n      swap1\n      tag_137\n      swap2\n      swap1\n      tag_52\n      jump\t// in\n    tag_137:\n      tag_138\n      jump\t// in\n    tag_136:\n      mload(0x40)\n      tag_139\n      swap2\n      swap1\n      tag_55\n      jump\t// in\n    tag_139:\n      mload(0x40)\n      dup1\n      swap2\n      sub\n      swap1\n      return\n        /* \"contracts/MyGov.sol\":1281:1354  function getSurveyInfo()public{... */\n    tag_27:\n      callvalue\n      dup1\n      iszero\n      tag_140\n      jumpi\n      0x00\n      dup1\n      revert\n    tag_140:\n      pop\n      tag_141\n      tag_142\n      jump\t// in\n    tag_141:\n      stop\n        /* \"contracts/MyGov.sol\":345:420  function delegateVoteTo() public{... */\n    tag_28:\n      callvalue\n      dup1\n      iszero\n      tag_143\n      jumpi\n      0x00\n      dup1\n      revert\n    tag_143:\n      pop\n      tag_144\n      tag_145\n      jump\t// in\n    tag_144:\n      stop\n        /* \"contracts/MyGov.sol\":1026:1105  function reserveProjectGrant()public{... */\n    tag_29:\n      callvalue\n      dup1\n      iszero\n      tag_146\n      jumpi\n      0x00\n      dup1\n      revert\n    tag_146:\n      pop\n      tag_147\n      tag_148\n      jump\t// in\n    tag_147:\n      stop\n        /* \"contracts/MyGov.sol\":1861:1942  function getNoOfFundedProjects()public{... */\n    tag_30:\n      callvalue\n      dup1\n      iszero\n      tag_149\n      jumpi\n      0x00\n      dup1\n      revert\n    tag_149:\n      pop\n      tag_150\n      tag_151\n      jump\t// in\n    tag_150:\n      stop\n        /* \"@openzeppelin/contracts/token/ERC20/ERC20.sol\":3974:4123  function allowance(address owner, address spender) public view virtual override returns (uint256) {... */\n    tag_31:\n      callvalue\n      dup1\n      iszero\n      tag_152\n      jumpi\n      0x00\n      dup1\n      revert\n    tag_152:\n      pop\n      tag_153\n      0x04\n      dup1\n      calldatasize\n      sub\n      dup2\n      add\n      swap1\n      tag_154\n      swap2\n      swap1\n      tag_155\n      jump\t// in\n    tag_154:\n      tag_156\n      jump\t// in\n    tag_153:\n      mload(0x40)\n      tag_157\n      swap2\n      swap1\n      tag_63\n      jump\t// in\n    tag_157:\n      mload(0x40)\n      dup1\n      swap2\n      sub\n      swap1\n      return\n        /* \"contracts/MyGov.sol\":1524:1605  function getProjectNextPayment()public{... */\n    tag_32:\n      callvalue\n      dup1\n      iszero\n      tag_158\n      jumpi\n      0x00\n      dup1\n      revert\n    tag_158:\n      pop\n      tag_159\n      tag_160\n      jump\t// in\n    tag_159:\n      stop\n        /* \"contracts/MyGov.sol\":1611:1686  function getProjectOwner()public{... */\n    tag_33:\n      callvalue\n      dup1\n      iszero\n      tag_161\n      jumpi\n      0x00\n      dup1\n      revert\n    tag_161:\n      pop\n      tag_162\n      tag_163\n      jump\t// in\n    tag_162:\n      stop\n        /* \"contracts/MyGov.sol\":950:1020  function takeSurvey()public{... */\n    tag_43:\n      jump\t// out\n        /* \"@openzeppelin/contracts/token/ERC20/ERC20.sol\":2154:2252  function name() public view virtual override returns (string memory) {... */\n    tag_46:\n        /* \"@openzeppelin/contracts/token/ERC20/ERC20.sol\":2208:2221  string memory */\n      0x60\n        /* \"@openzeppelin/contracts/token/ERC20/ERC20.sol\":2240:2245  _name */\n      0x03\n        /* \"@openzeppelin/contracts/token/ERC20/ERC20.sol\":2233:2245  return _name */\n      dup1\n      sload\n      tag_166\n      swap1\n      tag_167\n      jump\t// in\n    tag_166:\n      dup1\n      0x1f\n      add\n      0x20\n      dup1\n      swap2\n      div\n      mul\n      0x20\n      add\n      mload(0x40)\n      swap1\n      dup2\n      add\n      0x40\n      mstore\n      dup1\n      swap3\n      swap2\n      swap1\n      dup2\n      dup2\n      mstore\n      0x20\n      add\n      dup3\n      dup1\n      sload\n      tag_168\n      swap1\n      tag_167\n      jump\t// in\n    tag_168:\n      dup1\n      iszero\n      tag_169\n      jumpi\n      dup1\n      0x1f\n      lt\n      tag_170\n      jumpi\n      0x0100\n      dup1\n      dup4\n      sload\n      div\n      mul\n      dup4\n      mstore\n      swap2\n      0x20\n      add\n      swap2\n      jump(tag_169)\n    tag_170:\n      dup3\n      add\n      swap2\n      swap1\n      0x00\n      mstore\n      keccak256(0x00, 0x20)\n      swap1\n    tag_171:\n      dup2\n      sload\n      dup2\n      mstore\n      swap1\n      0x01\n      add\n      swap1\n      0x20\n      add\n      dup1\n      dup4\n      gt\n      tag_171\n      jumpi\n      dup3\n      swap1\n      sub\n      0x1f\n      and\n      dup3\n      add\n      swap2\n    tag_169:\n      pop\n      pop\n      pop\n      pop\n      pop\n      swap1\n      pop\n        /* \"@openzeppelin/contracts/token/ERC20/ERC20.sol\":2154:2252  function name() public view virtual override returns (string memory) {... */\n      swap1\n      jump\t// out\n        /* \"@openzeppelin/contracts/token/ERC20/ERC20.sol\":4431:4628  function approve(address spender, uint256 amount) public virtual override returns (bool) {... */\n    tag_53:\n        /* \"@openzeppelin/contracts/token/ERC20/ERC20.sol\":4514:4518  bool */\n      0x00\n        /* \"@openzeppelin/contracts/token/ERC20/ERC20.sol\":4530:4543  address owner */\n      dup1\n        /* \"@openzeppelin/contracts/token/ERC20/ERC20.sol\":4546:4558  _msgSender() */\n      tag_173\n        /* \"@openzeppelin/contracts/token/ERC20/ERC20.sol\":4546:4556  _msgSender */\n      tag_174\n        /* \"@openzeppelin/contracts/token/ERC20/ERC20.sol\":4546:4558  _msgSender() */\n      jump\t// in\n    tag_173:\n        /* \"@openzeppelin/contracts/token/ERC20/ERC20.sol\":4530:4558  address owner = _msgSender() */\n      swap1\n      pop\n        /* \"@openzeppelin/contracts/token/ERC20/ERC20.sol\":4568:4600  _approve(owner, spender, amount) */\n      tag_175\n        /* \"@openzeppelin/contracts/token/ERC20/ERC20.sol\":4577:4582  owner */\n      dup2\n        /* \"@openzeppelin/contracts/token/ERC20/ERC20.sol\":4584:4591  spender */\n      dup6\n        /* \"@openzeppelin/contracts/token/ERC20/ERC20.sol\":4593:4599  amount */\n      dup6\n        /* \"@openzeppelin/contracts/token/ERC20/ERC20.sol\":4568:4576  _approve */\n      tag_176\n        /* \"@openzeppelin/contracts/token/ERC20/ERC20.sol\":4568:4600  _approve(owner, spender, amount) */\n      jump\t// in\n    tag_175:\n        /* \"@openzeppelin/contracts/token/ERC20/ERC20.sol\":4617:4621  true */\n      0x01\n        /* \"@openzeppelin/contracts/token/ERC20/ERC20.sol\":4610:4621  return true */\n      swap2\n      pop\n      pop\n        /* \"@openzeppelin/contracts/token/ERC20/ERC20.sol\":4431:4628  function approve(address spender, uint256 amount) public virtual override returns (bool) {... */\n      swap3\n      swap2\n      pop\n      pop\n      jump\t// out\n        /* \"contracts/MyGov.sol\":1948:2033  function getEtherReceivedByProject()public{... */\n    tag_58:\n      jump\t// out\n        /* \"@openzeppelin/contracts/token/ERC20/ERC20.sol\":3242:3348  function totalSupply() public view virtual override returns (uint256) {... */\n    tag_61:\n        /* \"@openzeppelin/contracts/token/ERC20/ERC20.sol\":3303:3310  uint256 */\n      0x00\n        /* \"@openzeppelin/contracts/token/ERC20/ERC20.sol\":3329:3341  _totalSupply */\n      sload(0x02)\n        /* \"@openzeppelin/contracts/token/ERC20/ERC20.sol\":3322:3341  return _totalSupply */\n      swap1\n      pop\n        /* \"@openzeppelin/contracts/token/ERC20/ERC20.sol\":3242:3348  function totalSupply() public view virtual override returns (uint256) {... */\n      swap1\n      jump\t// out\n        /* \"@openzeppelin/contracts/token/ERC20/ERC20.sol\":5190:5476  function transferFrom(... */\n    tag_68:\n        /* \"@openzeppelin/contracts/token/ERC20/ERC20.sol\":5317:5321  bool */\n      0x00\n        /* \"@openzeppelin/contracts/token/ERC20/ERC20.sol\":5333:5348  address spender */\n      dup1\n        /* \"@openzeppelin/contracts/token/ERC20/ERC20.sol\":5351:5363  _msgSender() */\n      tag_180\n        /* \"@openzeppelin/contracts/token/ERC20/ERC20.sol\":5351:5361  _msgSender */\n      tag_174\n        /* \"@openzeppelin/contracts/token/ERC20/ERC20.sol\":5351:5363  _msgSender() */\n      jump\t// in\n    tag_180:\n        /* \"@openzeppelin/contracts/token/ERC20/ERC20.sol\":5333:5363  address spender = _msgSender() */\n      swap1\n      pop\n        /* \"@openzeppelin/contracts/token/ERC20/ERC20.sol\":5373:5411  _spendAllowance(from, spender, amount) */\n      tag_181\n        /* \"@openzeppelin/contracts/token/ERC20/ERC20.sol\":5389:5393  from */\n      dup6\n        /* \"@openzeppelin/contracts/token/ERC20/ERC20.sol\":5395:5402  spender */\n      dup3\n        /* \"@openzeppelin/contracts/token/ERC20/ERC20.sol\":5404:5410  amount */\n      dup6\n        /* \"@openzeppelin/contracts/token/ERC20/ERC20.sol\":5373:5388  _spendAllowance */\n      tag_182\n        /* \"@openzeppelin/contracts/token/ERC20/ERC20.sol\":5373:5411  _spendAllowance(from, spender, amount) */\n      jump\t// in\n    tag_181:\n        /* \"@openzeppelin/contracts/token/ERC20/ERC20.sol\":5421:5448  _transfer(from, to, amount) */\n      tag_183\n        /* \"@openzeppelin/contracts/token/ERC20/ERC20.sol\":5431:5435  from */\n      dup6\n        /* \"@openzeppelin/contracts/token/ERC20/ERC20.sol\":5437:5439  to */\n      dup6\n        /* \"@openzeppelin/contracts/token/ERC20/ERC20.sol\":5441:5447  amount */\n      dup6\n        /* \"@openzeppelin/contracts/token/ERC20/ERC20.sol\":5421:5430  _transfer */\n      tag_184\n        /* \"@openzeppelin/contracts/token/ERC20/ERC20.sol\":5421:5448  _transfer(from, to, amount) */\n      jump\t// in\n    tag_183:\n        /* \"@openzeppelin/contracts/token/ERC20/ERC20.sol\":5465:5469  true */\n      0x01\n        /* \"@openzeppelin/contracts/token/ERC20/ERC20.sol\":5458:5469  return true */\n      swap2\n      pop\n      pop\n        /* \"@openzeppelin/contracts/token/ERC20/ERC20.sol\":5190:5476  function transferFrom(... */\n      swap4\n      swap3\n      pop\n      pop\n      pop\n      jump\t// out\n        /* \"contracts/MyGov.sol\":1772:1855  function getNoOfProjectProposals()public{... */\n    tag_72:\n      jump\t// out\n        /* \"@openzeppelin/contracts/token/ERC20/ERC20.sol\":3091:3182  function decimals() public view virtual override returns (uint8) {... */\n    tag_75:\n        /* \"@openzeppelin/contracts/token/ERC20/ERC20.sol\":3149:3154  uint8 */\n      0x00\n        /* \"@openzeppelin/contracts/token/ERC20/ERC20.sol\":3173:3175  18 */\n      0x12\n        /* \"@openzeppelin/contracts/token/ERC20/ERC20.sol\":3166:3175  return 18 */\n      swap1\n      pop\n        /* \"@openzeppelin/contracts/token/ERC20/ERC20.sol\":3091:3182  function decimals() public view virtual override returns (uint8) {... */\n      swap1\n      jump\t// out\n        /* \"contracts/MyGov.sol\":1440:1518  function getIsProjectFunded()public{... */\n    tag_80:\n      jump\t// out\n        /* \"contracts/MyGov.sol\":785:866  function submitProjectProposal()public{... */\n    tag_83:\n      jump\t// out\n        /* \"@openzeppelin/contracts/token/ERC20/ERC20.sol\":5871:6105  function increaseAllowance(address spender, uint256 addedValue) public virtual returns (bool) {... */\n    tag_87:\n        /* \"@openzeppelin/contracts/token/ERC20/ERC20.sol\":5959:5963  bool */\n      0x00\n        /* \"@openzeppelin/contracts/token/ERC20/ERC20.sol\":5975:5988  address owner */\n      dup1\n        /* \"@openzeppelin/contracts/token/ERC20/ERC20.sol\":5991:6003  _msgSender() */\n      tag_190\n        /* \"@openzeppelin/contracts/token/ERC20/ERC20.sol\":5991:6001  _msgSender */\n      tag_174\n        /* \"@openzeppelin/contracts/token/ERC20/ERC20.sol\":5991:6003  _msgSender() */\n      jump\t// in\n    tag_190:\n        /* \"@openzeppelin/contracts/token/ERC20/ERC20.sol\":5975:6003  address owner = _msgSender() */\n      swap1\n      pop\n        /* \"@openzeppelin/contracts/token/ERC20/ERC20.sol\":6013:6077  _approve(owner, spender, allowance(owner, spender) + addedValue) */\n      tag_191\n        /* \"@openzeppelin/contracts/token/ERC20/ERC20.sol\":6022:6027  owner */\n      dup2\n        /* \"@openzeppelin/contracts/token/ERC20/ERC20.sol\":6029:6036  spender */\n      dup6\n        /* \"@openzeppelin/contracts/token/ERC20/ERC20.sol\":6066:6076  addedValue */\n      dup6\n        /* \"@openzeppelin/contracts/token/ERC20/ERC20.sol\":6038:6063  allowance(owner, spender) */\n      tag_192\n        /* \"@openzeppelin/contracts/token/ERC20/ERC20.sol\":6048:6053  owner */\n      dup6\n        /* \"@openzeppelin/contracts/token/ERC20/ERC20.sol\":6055:6062  spender */\n      dup10\n        /* \"@openzeppelin/contracts/token/ERC20/ERC20.sol\":6038:6047  allowance */\n      tag_156\n        /* \"@openzeppelin/contracts/token/ERC20/ERC20.sol\":6038:6063  allowance(owner, spender) */\n      jump\t// in\n    tag_192:\n        /* \"@openzeppelin/contracts/token/ERC20/ERC20.sol\":6038:6076  allowance(owner, spender) + addedValue */\n      tag_193\n      swap2\n      swap1\n      tag_194\n      jump\t// in\n    tag_193:\n        /* \"@openzeppelin/contracts/token/ERC20/ERC20.sol\":6013:6021  _approve */\n      tag_176\n        /* \"@openzeppelin/contracts/token/ERC20/ERC20.sol\":6013:6077  _approve(owner, spender, allowance(owner, spender) + addedValue) */\n      jump\t// in\n    tag_191:\n        /* \"@openzeppelin/contracts/token/ERC20/ERC20.sol\":6094:6098  true */\n      0x01\n        /* \"@openzeppelin/contracts/token/ERC20/ERC20.sol\":6087:6098  return true */\n      swap2\n      pop\n      pop\n        /* \"@openzeppelin/contracts/token/ERC20/ERC20.sol\":5871:6105  function increaseAllowance(address spender, uint256 addedValue) public virtual returns (bool) {... */\n      swap3\n      swap2\n      pop\n      pop\n      jump\t// out\n        /* \"contracts/MyGov.sol\":513:604  function donateMyGovToken(uint amount) public {... */\n    tag_93:\n        /* \"contracts/MyGov.sol\":569:597  transfer(tokenOwner, amount) */\n      tag_196\n        /* \"contracts/MyGov.sol\":578:588  tokenOwner */\n      0x05\n      0x00\n      swap1\n      sload\n      swap1\n      0x0100\n      exp\n      swap1\n      div\n      0xffffffffffffffffffffffffffffffffffffffff\n      and\n        /* \"contracts/MyGov.sol\":590:596  amount */\n      dup3\n        /* \"contracts/MyGov.sol\":569:577  transfer */\n      tag_138\n        /* \"contracts/MyGov.sol\":569:597  transfer(tokenOwner, amount) */\n      jump\t// in\n    tag_196:\n      pop\n        /* \"contracts/MyGov.sol\":513:604  function donateMyGovToken(uint amount) public {... */\n      pop\n      jump\t// out\n        /* \"contracts/MyGov.sol\":1360:1434  function getSurveyOwner()public{... */\n    tag_96:\n      jump\t// out\n        /* \"contracts/MyGov.sol\":2039:2113  function getNoOfSurveys()public{... */\n    tag_99:\n      jump\t// out\n        /* \"contracts/MyGov.sol\":1692:1766  function getProjectInfo()public{... */\n    tag_102:\n      jump\t// out\n        /* \"@openzeppelin/contracts/token/ERC20/ERC20.sol\":3406:3531  function balanceOf(address account) public view virtual override returns (uint256) {... */\n    tag_107:\n        /* \"@openzeppelin/contracts/token/ERC20/ERC20.sol\":3480:3487  uint256 */\n      0x00\n        /* \"@openzeppelin/contracts/token/ERC20/ERC20.sol\":3506:3515  _balances */\n      dup1\n        /* \"@openzeppelin/contracts/token/ERC20/ERC20.sol\":3506:3524  _balances[account] */\n      0x00\n        /* \"@openzeppelin/contracts/token/ERC20/ERC20.sol\":3516:3523  account */\n      dup4\n        /* \"@openzeppelin/contracts/token/ERC20/ERC20.sol\":3506:3524  _balances[account] */\n      0xffffffffffffffffffffffffffffffffffffffff\n      and\n      0xffffffffffffffffffffffffffffffffffffffff\n      and\n      dup2\n      mstore\n      0x20\n      add\n      swap1\n      dup2\n      mstore\n      0x20\n      add\n      0x00\n      keccak256\n      sload\n        /* \"@openzeppelin/contracts/token/ERC20/ERC20.sol\":3499:3524  return _balances[account] */\n      swap1\n      pop\n        /* \"@openzeppelin/contracts/token/ERC20/ERC20.sol\":3406:3531  function balanceOf(address account) public view virtual override returns (uint256) {... */\n      swap2\n      swap1\n      pop\n      jump\t// out\n        /* \"contracts/MyGov.sol\":1111:1193  function withdrawProjectPayment()public{... */\n    tag_111:\n      jump\t// out\n        /* \"contracts/MyGov.sol\":698:779  function voteForProjectPayment()public{... */\n    tag_114:\n      jump\t// out\n        /* \"contracts/MyGov.sol\":610:692  function voteForProjectProposal()public{... */\n    tag_117:\n      jump\t// out\n        /* \"contracts/MyGov.sol\":426:507  function donateEther() external payable {... */\n    tag_119:\n        /* \"contracts/MyGov.sol\":476:486  tokenOwner */\n      0x05\n      0x00\n      swap1\n      sload\n      swap1\n      0x0100\n      exp\n      swap1\n      div\n      0xffffffffffffffffffffffffffffffffffffffff\n      and\n        /* \"contracts/MyGov.sol\":476:495  tokenOwner.transfer */\n      0xffffffffffffffffffffffffffffffffffffffff\n      and\n        /* \"contracts/MyGov.sol\":476:500  tokenOwner.transfer(123) */\n      0x08fc\n        /* \"contracts/MyGov.sol\":496:499  123 */\n      0x7b\n        /* \"contracts/MyGov.sol\":476:500  tokenOwner.transfer(123) */\n      swap1\n      dup2\n      iszero\n      mul\n      swap1\n      mload(0x40)\n      0x00\n      mload(0x40)\n      dup1\n      dup4\n      sub\n      dup2\n      dup6\n      dup9\n      dup9\n      call\n      swap4\n      pop\n      pop\n      pop\n      pop\n      iszero\n      dup1\n      iszero\n      tag_206\n      jumpi\n      returndatasize\n      0x00\n      dup1\n      returndatacopy\n      revert(0x00, returndatasize)\n    tag_206:\n      pop\n        /* \"contracts/MyGov.sol\":426:507  function donateEther() external payable {... */\n      jump\t// out\n        /* \"contracts/MyGov.sol\":1199:1275  function getSurveyResults()public{... */\n    tag_122:\n      jump\t// out\n        /* \"@openzeppelin/contracts/token/ERC20/ERC20.sol\":2365:2467  function symbol() public view virtual override returns (string memory) {... */\n    tag_125:\n        /* \"@openzeppelin/contracts/token/ERC20/ERC20.sol\":2421:2434  string memory */\n      0x60\n        /* \"@openzeppelin/contracts/token/ERC20/ERC20.sol\":2453:2460  _symbol */\n      0x04\n        /* \"@openzeppelin/contracts/token/ERC20/ERC20.sol\":2446:2460  return _symbol */\n      dup1\n      sload\n      tag_209\n      swap1\n      tag_167\n      jump\t// in\n    tag_209:\n      dup1\n      0x1f\n      add\n      0x20\n      dup1\n      swap2\n      div\n      mul\n      0x20\n      add\n      mload(0x40)\n      swap1\n      dup2\n      add\n      0x40\n      mstore\n      dup1\n      swap3\n      swap2\n      swap1\n      dup2\n      dup2\n      mstore\n      0x20\n      add\n      dup3\n      dup1\n      sload\n      tag_210\n      swap1\n      tag_167\n      jump\t// in\n    tag_210:\n      dup1\n      iszero\n      tag_211\n      jumpi\n      dup1\n      0x1f\n      lt\n      tag_212\n      jumpi\n      0x0100\n      dup1\n      dup4\n      sload\n      div\n      mul\n      dup4\n      mstore\n      swap2\n      0x20\n      add\n      swap2\n      jump(tag_211)\n    tag_212:\n      dup3\n      add\n      swap2\n      swap1\n      0x00\n      mstore\n      keccak256(0x00, 0x20)\n      swap1\n    tag_213:\n      dup2\n      sload\n      dup2\n      mstore\n      swap1\n      0x01\n      add\n      swap1\n      0x20\n      add\n      dup1\n      dup4\n      gt\n      tag_213\n      jumpi\n      dup3\n      swap1\n      sub\n      0x1f\n      and\n      dup3\n      add\n      swap2\n    tag_211:\n      pop\n      pop\n      pop\n      pop\n      pop\n      swap1\n      pop\n        /* \"@openzeppelin/contracts/token/ERC20/ERC20.sol\":2365:2467  function symbol() public view virtual override returns (string memory) {... */\n      swap1\n      jump\t// out\n        /* \"contracts/MyGov.sol\":872:944  function submitSurvey()public{... */\n    tag_129:\n      jump\t// out\n        /* \"@openzeppelin/contracts/token/ERC20/ERC20.sol\":6592:7019  function decreaseAllowance(address spender, uint256 subtractedValue) public virtual returns (bool) {... */\n    tag_133:\n        /* \"@openzeppelin/contracts/token/ERC20/ERC20.sol\":6685:6689  bool */\n      0x00\n        /* \"@openzeppelin/contracts/token/ERC20/ERC20.sol\":6701:6714  address owner */\n      dup1\n        /* \"@openzeppelin/contracts/token/ERC20/ERC20.sol\":6717:6729  _msgSender() */\n      tag_216\n        /* \"@openzeppelin/contracts/token/ERC20/ERC20.sol\":6717:6727  _msgSender */\n      tag_174\n        /* \"@openzeppelin/contracts/token/ERC20/ERC20.sol\":6717:6729  _msgSender() */\n      jump\t// in\n    tag_216:\n        /* \"@openzeppelin/contracts/token/ERC20/ERC20.sol\":6701:6729  address owner = _msgSender() */\n      swap1\n      pop\n        /* \"@openzeppelin/contracts/token/ERC20/ERC20.sol\":6739:6763  uint256 currentAllowance */\n      0x00\n        /* \"@openzeppelin/contracts/token/ERC20/ERC20.sol\":6766:6791  allowance(owner, spender) */\n      tag_217\n        /* \"@openzeppelin/contracts/token/ERC20/ERC20.sol\":6776:6781  owner */\n      dup3\n        /* \"@openzeppelin/contracts/token/ERC20/ERC20.sol\":6783:6790  spender */\n      dup7\n        /* \"@openzeppelin/contracts/token/ERC20/ERC20.sol\":6766:6775  allowance */\n      tag_156\n        /* \"@openzeppelin/contracts/token/ERC20/ERC20.sol\":6766:6791  allowance(owner, spender) */\n      jump\t// in\n    tag_217:\n        /* \"@openzeppelin/contracts/token/ERC20/ERC20.sol\":6739:6791  uint256 currentAllowance = allowance(owner, spender) */\n      swap1\n      pop\n        /* \"@openzeppelin/contracts/token/ERC20/ERC20.sol\":6829:6844  subtractedValue */\n      dup4\n        /* \"@openzeppelin/contracts/token/ERC20/ERC20.sol\":6809:6825  currentAllowance */\n      dup2\n        /* \"@openzeppelin/contracts/token/ERC20/ERC20.sol\":6809:6844  currentAllowance >= subtractedValue */\n      lt\n      iszero\n        /* \"@openzeppelin/contracts/token/ERC20/ERC20.sol\":6801:6886  require(currentAllowance >= subtractedValue, \"ERC20: decreased allowance below zero\") */\n      tag_218\n      jumpi\n      mload(0x40)\n      0x08c379a000000000000000000000000000000000000000000000000000000000\n      dup2\n      mstore\n      0x04\n      add\n      tag_219\n      swap1\n      tag_220\n      jump\t// in\n    tag_219:\n      mload(0x40)\n      dup1\n      swap2\n      sub\n      swap1\n      revert\n    tag_218:\n        /* \"@openzeppelin/contracts/token/ERC20/ERC20.sol\":6920:6980  _approve(owner, spender, currentAllowance - subtractedValue) */\n      tag_221\n        /* \"@openzeppelin/contracts/token/ERC20/ERC20.sol\":6929:6934  owner */\n      dup3\n        /* \"@openzeppelin/contracts/token/ERC20/ERC20.sol\":6936:6943  spender */\n      dup7\n        /* \"@openzeppelin/contracts/token/ERC20/ERC20.sol\":6964:6979  subtractedValue */\n      dup7\n        /* \"@openzeppelin/contracts/token/ERC20/ERC20.sol\":6945:6961  currentAllowance */\n      dup5\n        /* \"@openzeppelin/contracts/token/ERC20/ERC20.sol\":6945:6979  currentAllowance - subtractedValue */\n      sub\n        /* \"@openzeppelin/contracts/token/ERC20/ERC20.sol\":6920:6928  _approve */\n      tag_176\n        /* \"@openzeppelin/contracts/token/ERC20/ERC20.sol\":6920:6980  _approve(owner, spender, currentAllowance - subtractedValue) */\n      jump\t// in\n    tag_221:\n        /* \"@openzeppelin/contracts/token/ERC20/ERC20.sol\":7008:7012  true */\n      0x01\n        /* \"@openzeppelin/contracts/token/ERC20/ERC20.sol\":7001:7012  return true */\n      swap3\n      pop\n      pop\n      pop\n        /* \"@openzeppelin/contracts/token/ERC20/ERC20.sol\":6592:7019  function decreaseAllowance(address spender, uint256 subtractedValue) public virtual returns (bool) {... */\n      swap3\n      swap2\n      pop\n      pop\n      jump\t// out\n        /* \"@openzeppelin/contracts/token/ERC20/ERC20.sol\":3727:3916  function transfer(address to, uint256 amount) public virtual override returns (bool) {... */\n    tag_138:\n        /* \"@openzeppelin/contracts/token/ERC20/ERC20.sol\":3806:3810  bool */\n      0x00\n        /* \"@openzeppelin/contracts/token/ERC20/ERC20.sol\":3822:3835  address owner */\n      dup1\n        /* \"@openzeppelin/contracts/token/ERC20/ERC20.sol\":3838:3850  _msgSender() */\n      tag_223\n        /* \"@openzeppelin/contracts/token/ERC20/ERC20.sol\":3838:3848  _msgSender */\n      tag_174\n        /* \"@openzeppelin/contracts/token/ERC20/ERC20.sol\":3838:3850  _msgSender() */\n      jump\t// in\n    tag_223:\n        /* \"@openzeppelin/contracts/token/ERC20/ERC20.sol\":3822:3850  address owner = _msgSender() */\n      swap1\n      pop\n        /* \"@openzeppelin/contracts/token/ERC20/ERC20.sol\":3860:3888  _transfer(owner, to, amount) */\n      tag_224\n        /* \"@openzeppelin/contracts/token/ERC20/ERC20.sol\":3870:3875  owner */\n      dup2\n        /* \"@openzeppelin/contracts/token/ERC20/ERC20.sol\":3877:3879  to */\n      dup6\n        /* \"@openzeppelin/contracts/token/ERC20/ERC20.sol\":3881:3887  amount */\n      dup6\n        /* \"@openzeppelin/contracts/token/ERC20/ERC20.sol\":3860:3869  _transfer */\n      tag_184\n        /* \"@openzeppelin/contracts/token/ERC20/ERC20.sol\":3860:3888  _transfer(owner, to, amount) */\n      jump\t// in\n    tag_224:\n        /* \"@openzeppelin/contracts/token/ERC20/ERC20.sol\":3905:3909  true */\n      0x01\n        /* \"@openzeppelin/contracts/token/ERC20/ERC20.sol\":3898:3909  return true */\n      swap2\n      pop\n      pop\n        /* \"@openzeppelin/contracts/token/ERC20/ERC20.sol\":3727:3916  function transfer(address to, uint256 amount) public virtual override returns (bool) {... */\n      swap3\n      swap2\n      pop\n      pop\n      jump\t// out\n        /* \"contracts/MyGov.sol\":1281:1354  function getSurveyInfo()public{... */\n    tag_142:\n      jump\t// out\n        /* \"contracts/MyGov.sol\":345:420  function delegateVoteTo() public{... */\n    tag_145:\n      jump\t// out\n        /* \"contracts/MyGov.sol\":1026:1105  function reserveProjectGrant()public{... */\n    tag_148:\n      jump\t// out\n        /* \"contracts/MyGov.sol\":1861:1942  function getNoOfFundedProjects()public{... */\n    tag_151:\n      jump\t// out\n        /* \"@openzeppelin/contracts/token/ERC20/ERC20.sol\":3974:4123  function allowance(address owner, address spender) public view virtual override returns (uint256) {... */\n    tag_156:\n        /* \"@openzeppelin/contracts/token/ERC20/ERC20.sol\":4063:4070  uint256 */\n      0x00\n        /* \"@openzeppelin/contracts/token/ERC20/ERC20.sol\":4089:4100  _allowances */\n      0x01\n        /* \"@openzeppelin/contracts/token/ERC20/ERC20.sol\":4089:4107  _allowances[owner] */\n      0x00\n        /* \"@openzeppelin/contracts/token/ERC20/ERC20.sol\":4101:4106  owner */\n      dup5\n        /* \"@openzeppelin/contracts/token/ERC20/ERC20.sol\":4089:4107  _allowances[owner] */\n      0xffffffffffffffffffffffffffffffffffffffff\n      and\n      0xffffffffffffffffffffffffffffffffffffffff\n      and\n      dup2\n      mstore\n      0x20\n      add\n      swap1\n      dup2\n      mstore\n      0x20\n      add\n      0x00\n      keccak256\n        /* \"@openzeppelin/contracts/token/ERC20/ERC20.sol\":4089:4116  _allowances[owner][spender] */\n      0x00\n        /* \"@openzeppelin/contracts/token/ERC20/ERC20.sol\":4108:4115  spender */\n      dup4\n        /* \"@openzeppelin/contracts/token/ERC20/ERC20.sol\":4089:4116  _allowances[owner][spender] */\n      0xffffffffffffffffffffffffffffffffffffffff\n      and\n      0xffffffffffffffffffffffffffffffffffffffff\n      and\n      dup2\n      mstore\n      0x20\n      add\n      swap1\n      dup2\n      mstore\n      0x20\n      add\n      0x00\n      keccak256\n      sload\n        /* \"@openzeppelin/contracts/token/ERC20/ERC20.sol\":4082:4116  return _allowances[owner][spender] */\n      swap1\n      pop\n        /* \"@openzeppelin/contracts/token/ERC20/ERC20.sol\":3974:4123  function allowance(address owner, address spender) public view virtual override returns (uint256) {... */\n      swap3\n      swap2\n      pop\n      pop\n      jump\t// out\n        /* \"contracts/MyGov.sol\":1524:1605  function getProjectNextPayment()public{... */\n    tag_160:\n      jump\t// out\n        /* \"contracts/MyGov.sol\":1611:1686  function getProjectOwner()public{... */\n    tag_163:\n      jump\t// out\n        /* \"@openzeppelin/contracts/utils/Context.sol\":640:736  function _msgSender() internal view virtual returns (address) {... */\n    tag_174:\n        /* \"@openzeppelin/contracts/utils/Context.sol\":693:700  address */\n      0x00\n        /* \"@openzeppelin/contracts/utils/Context.sol\":719:729  msg.sender */\n      caller\n        /* \"@openzeppelin/contracts/utils/Context.sol\":712:729  return msg.sender */\n      swap1\n      pop\n        /* \"@openzeppelin/contracts/utils/Context.sol\":640:736  function _msgSender() internal view virtual returns (address) {... */\n      swap1\n      jump\t// out\n        /* \"@openzeppelin/contracts/token/ERC20/ERC20.sol\":10504:10874  function _approve(... */\n    tag_176:\n        /* \"@openzeppelin/contracts/token/ERC20/ERC20.sol\":10652:10653  0 */\n      0x00\n        /* \"@openzeppelin/contracts/token/ERC20/ERC20.sol\":10635:10654  owner != address(0) */\n      0xffffffffffffffffffffffffffffffffffffffff\n      and\n        /* \"@openzeppelin/contracts/token/ERC20/ERC20.sol\":10635:10640  owner */\n      dup4\n        /* \"@openzeppelin/contracts/token/ERC20/ERC20.sol\":10635:10654  owner != address(0) */\n      0xffffffffffffffffffffffffffffffffffffffff\n      and\n      eq\n      iszero\n        /* \"@openzeppelin/contracts/token/ERC20/ERC20.sol\":10627:10695  require(owner != address(0), \"ERC20: approve from the zero address\") */\n      tag_234\n      jumpi\n      mload(0x40)\n      0x08c379a000000000000000000000000000000000000000000000000000000000\n      dup2\n      mstore\n      0x04\n      add\n      tag_235\n      swap1\n      tag_236\n      jump\t// in\n    tag_235:\n      mload(0x40)\n      dup1\n      swap2\n      sub\n      swap1\n      revert\n    tag_234:\n        /* \"@openzeppelin/contracts/token/ERC20/ERC20.sol\":10732:10733  0 */\n      0x00\n        /* \"@openzeppelin/contracts/token/ERC20/ERC20.sol\":10713:10734  spender != address(0) */\n      0xffffffffffffffffffffffffffffffffffffffff\n      and\n        /* \"@openzeppelin/contracts/token/ERC20/ERC20.sol\":10713:10720  spender */\n      dup3\n        /* \"@openzeppelin/contracts/token/ERC20/ERC20.sol\":10713:10734  spender != address(0) */\n      0xffffffffffffffffffffffffffffffffffffffff\n      and\n      eq\n      iszero\n        /* \"@openzeppelin/contracts/token/ERC20/ERC20.sol\":10705:10773  require(spender != address(0), \"ERC20: approve to the zero address\") */\n      tag_237\n      jumpi\n      mload(0x40)\n      0x08c379a000000000000000000000000000000000000000000000000000000000\n      dup2\n      mstore\n      0x04\n      add\n      tag_238\n      swap1\n      tag_239\n      jump\t// in\n    tag_238:\n      mload(0x40)\n      dup1\n      swap2\n      sub\n      swap1\n      revert\n    tag_237:\n        /* \"@openzeppelin/contracts/token/ERC20/ERC20.sol\":10814:10820  amount */\n      dup1\n        /* \"@openzeppelin/contracts/token/ERC20/ERC20.sol\":10784:10795  _allowances */\n      0x01\n        /* \"@openzeppelin/contracts/token/ERC20/ERC20.sol\":10784:10802  _allowances[owner] */\n      0x00\n        /* \"@openzeppelin/contracts/token/ERC20/ERC20.sol\":10796:10801  owner */\n      dup6\n        /* \"@openzeppelin/contracts/token/ERC20/ERC20.sol\":10784:10802  _allowances[owner] */\n      0xffffffffffffffffffffffffffffffffffffffff\n      and\n      0xffffffffffffffffffffffffffffffffffffffff\n      and\n      dup2\n      mstore\n      0x20\n      add\n      swap1\n      dup2\n      mstore\n      0x20\n      add\n      0x00\n      keccak256\n        /* \"@openzeppelin/contracts/token/ERC20/ERC20.sol\":10784:10811  _allowances[owner][spender] */\n      0x00\n        /* \"@openzeppelin/contracts/token/ERC20/ERC20.sol\":10803:10810  spender */\n      dup5\n        /* \"@openzeppelin/contracts/token/ERC20/ERC20.sol\":10784:10811  _allowances[owner][spender] */\n      0xffffffffffffffffffffffffffffffffffffffff\n      and\n      0xffffffffffffffffffffffffffffffffffffffff\n      and\n      dup2\n      mstore\n      0x20\n      add\n      swap1\n      dup2\n      mstore\n      0x20\n      add\n      0x00\n      keccak256\n        /* \"@openzeppelin/contracts/token/ERC20/ERC20.sol\":10784:10820  _allowances[owner][spender] = amount */\n      dup2\n      swap1\n      sstore\n      pop\n        /* \"@openzeppelin/contracts/token/ERC20/ERC20.sol\":10851:10858  spender */\n      dup2\n        /* \"@openzeppelin/contracts/token/ERC20/ERC20.sol\":10835:10867  Approval(owner, spender, amount) */\n      0xffffffffffffffffffffffffffffffffffffffff\n      and\n        /* \"@openzeppelin/contracts/token/ERC20/ERC20.sol\":10844:10849  owner */\n      dup4\n        /* \"@openzeppelin/contracts/token/ERC20/ERC20.sol\":10835:10867  Approval(owner, spender, amount) */\n      0xffffffffffffffffffffffffffffffffffffffff\n      and\n      0x8c5be1e5ebec7d5bd14f71427d1e84f3dd0314c0f7b2291e5b200ac8c7c3b925\n        /* \"@openzeppelin/contracts/token/ERC20/ERC20.sol\":10860:10866  amount */\n      dup4\n        /* \"@openzeppelin/contracts/token/ERC20/ERC20.sol\":10835:10867  Approval(owner, spender, amount) */\n      mload(0x40)\n      tag_240\n      swap2\n      swap1\n      tag_63\n      jump\t// in\n    tag_240:\n      mload(0x40)\n      dup1\n      swap2\n      sub\n      swap1\n      log3\n        /* \"@openzeppelin/contracts/token/ERC20/ERC20.sol\":10504:10874  function _approve(... */\n      pop\n      pop\n      pop\n      jump\t// out\n        /* \"@openzeppelin/contracts/token/ERC20/ERC20.sol\":11155:11596  function _spendAllowance(... */\n    tag_182:\n        /* \"@openzeppelin/contracts/token/ERC20/ERC20.sol\":11285:11309  uint256 currentAllowance */\n      0x00\n        /* \"@openzeppelin/contracts/token/ERC20/ERC20.sol\":11312:11337  allowance(owner, spender) */\n      tag_242\n        /* \"@openzeppelin/contracts/token/ERC20/ERC20.sol\":11322:11327  owner */\n      dup5\n        /* \"@openzeppelin/contracts/token/ERC20/ERC20.sol\":11329:11336  spender */\n      dup5\n        /* \"@openzeppelin/contracts/token/ERC20/ERC20.sol\":11312:11321  allowance */\n      tag_156\n        /* \"@openzeppelin/contracts/token/ERC20/ERC20.sol\":11312:11337  allowance(owner, spender) */\n      jump\t// in\n    tag_242:\n        /* \"@openzeppelin/contracts/token/ERC20/ERC20.sol\":11285:11337  uint256 currentAllowance = allowance(owner, spender) */\n      swap1\n      pop\n        /* \"@openzeppelin/contracts/token/ERC20/ERC20.sol\":11371:11388  type(uint256).max */\n      0xffffffffffffffffffffffffffffffffffffffffffffffffffffffffffffffff\n        /* \"@openzeppelin/contracts/token/ERC20/ERC20.sol\":11351:11367  currentAllowance */\n      dup2\n        /* \"@openzeppelin/contracts/token/ERC20/ERC20.sol\":11351:11388  currentAllowance != type(uint256).max */\n      eq\n        /* \"@openzeppelin/contracts/token/ERC20/ERC20.sol\":11347:11590  if (currentAllowance != type(uint256).max) {... */\n      tag_243\n      jumpi\n        /* \"@openzeppelin/contracts/token/ERC20/ERC20.sol\":11432:11438  amount */\n      dup2\n        /* \"@openzeppelin/contracts/token/ERC20/ERC20.sol\":11412:11428  currentAllowance */\n      dup2\n        /* \"@openzeppelin/contracts/token/ERC20/ERC20.sol\":11412:11438  currentAllowance >= amount */\n      lt\n      iszero\n        /* \"@openzeppelin/contracts/token/ERC20/ERC20.sol\":11404:11472  require(currentAllowance >= amount, \"ERC20: insufficient allowance\") */\n      tag_244\n      jumpi\n      mload(0x40)\n      0x08c379a000000000000000000000000000000000000000000000000000000000\n      dup2\n      mstore\n      0x04\n      add\n      tag_245\n      swap1\n      tag_246\n      jump\t// in\n    tag_245:\n      mload(0x40)\n      dup1\n      swap2\n      sub\n      swap1\n      revert\n    tag_244:\n        /* \"@openzeppelin/contracts/token/ERC20/ERC20.sol\":11514:11565  _approve(owner, spender, currentAllowance - amount) */\n      tag_247\n        /* \"@openzeppelin/contracts/token/ERC20/ERC20.sol\":11523:11528  owner */\n      dup5\n        /* \"@openzeppelin/contracts/token/ERC20/ERC20.sol\":11530:11537  spender */\n      dup5\n        /* \"@openzeppelin/contracts/token/ERC20/ERC20.sol\":11558:11564  amount */\n      dup5\n        /* \"@openzeppelin/contracts/token/ERC20/ERC20.sol\":11539:11555  currentAllowance */\n      dup5\n        /* \"@openzeppelin/contracts/token/ERC20/ERC20.sol\":11539:11564  currentAllowance - amount */\n      sub\n        /* \"@openzeppelin/contracts/token/ERC20/ERC20.sol\":11514:11522  _approve */\n      tag_176\n        /* \"@openzeppelin/contracts/token/ERC20/ERC20.sol\":11514:11565  _approve(owner, spender, currentAllowance - amount) */\n      jump\t// in\n    tag_247:\n        /* \"@openzeppelin/contracts/token/ERC20/ERC20.sol\":11347:11590  if (currentAllowance != type(uint256).max) {... */\n    tag_243:\n        /* \"@openzeppelin/contracts/token/ERC20/ERC20.sol\":11155:11596  function _spendAllowance(... */\n      pop\n      pop\n      pop\n      pop\n      jump\t// out\n        /* \"@openzeppelin/contracts/token/ERC20/ERC20.sol\":7473:8291  function _transfer(... */\n    tag_184:\n        /* \"@openzeppelin/contracts/token/ERC20/ERC20.sol\":7615:7616  0 */\n      0x00\n        /* \"@openzeppelin/contracts/token/ERC20/ERC20.sol\":7599:7617  from != address(0) */\n      0xffffffffffffffffffffffffffffffffffffffff\n      and\n        /* \"@openzeppelin/contracts/token/ERC20/ERC20.sol\":7599:7603  from */\n      dup4\n        /* \"@openzeppelin/contracts/token/ERC20/ERC20.sol\":7599:7617  from != address(0) */\n      0xffffffffffffffffffffffffffffffffffffffff\n      and\n      eq\n      iszero\n        /* \"@openzeppelin/contracts/token/ERC20/ERC20.sol\":7591:7659  require(from != address(0), \"ERC20: transfer from the zero address\") */\n      tag_249\n      jumpi\n      mload(0x40)\n      0x08c379a000000000000000000000000000000000000000000000000000000000\n      dup2\n      mstore\n      0x04\n      add\n      tag_250\n      swap1\n      tag_251\n      jump\t// in\n    tag_250:\n      mload(0x40)\n      dup1\n      swap2\n      sub\n      swap1\n      revert\n    tag_249:\n        /* \"@openzeppelin/contracts/token/ERC20/ERC20.sol\":7691:7692  0 */\n      0x00\n        /* \"@openzeppelin/contracts/token/ERC20/ERC20.sol\":7677:7693  to != address(0) */\n      0xffffffffffffffffffffffffffffffffffffffff\n      and\n        /* \"@openzeppelin/contracts/token/ERC20/ERC20.sol\":7677:7679  to */\n      dup3\n        /* \"@openzeppelin/contracts/token/ERC20/ERC20.sol\":7677:7693  to != address(0) */\n      0xffffffffffffffffffffffffffffffffffffffff\n      and\n      eq\n      iszero\n        /* \"@openzeppelin/contracts/token/ERC20/ERC20.sol\":7669:7733  require(to != address(0), \"ERC20: transfer to the zero address\") */\n      tag_252\n      jumpi\n      mload(0x40)\n      0x08c379a000000000000000000000000000000000000000000000000000000000\n      dup2\n      mstore\n      0x04\n      add\n      tag_253\n      swap1\n      tag_254\n      jump\t// in\n    tag_253:\n      mload(0x40)\n      dup1\n      swap2\n      sub\n      swap1\n      revert\n    tag_252:\n        /* \"@openzeppelin/contracts/token/ERC20/ERC20.sol\":7744:7782  _beforeTokenTransfer(from, to, amount) */\n      tag_255\n        /* \"@openzeppelin/contracts/token/ERC20/ERC20.sol\":7765:7769  from */\n      dup4\n        /* \"@openzeppelin/contracts/token/ERC20/ERC20.sol\":7771:7773  to */\n      dup4\n        /* \"@openzeppelin/contracts/token/ERC20/ERC20.sol\":7775:7781  amount */\n      dup4\n        /* \"@openzeppelin/contracts/token/ERC20/ERC20.sol\":7744:7764  _beforeTokenTransfer */\n      tag_256\n        /* \"@openzeppelin/contracts/token/ERC20/ERC20.sol\":7744:7782  _beforeTokenTransfer(from, to, amount) */\n      jump\t// in\n    tag_255:\n        /* \"@openzeppelin/contracts/token/ERC20/ERC20.sol\":7793:7812  uint256 fromBalance */\n      0x00\n        /* \"@openzeppelin/contracts/token/ERC20/ERC20.sol\":7815:7824  _balances */\n      dup1\n        /* \"@openzeppelin/contracts/token/ERC20/ERC20.sol\":7815:7830  _balances[from] */\n      0x00\n        /* \"@openzeppelin/contracts/token/ERC20/ERC20.sol\":7825:7829  from */\n      dup6\n        /* \"@openzeppelin/contracts/token/ERC20/ERC20.sol\":7815:7830  _balances[from] */\n      0xffffffffffffffffffffffffffffffffffffffff\n      and\n      0xffffffffffffffffffffffffffffffffffffffff\n      and\n      dup2\n      mstore\n      0x20\n      add\n      swap1\n      dup2\n      mstore\n      0x20\n      add\n      0x00\n      keccak256\n      sload\n        /* \"@openzeppelin/contracts/token/ERC20/ERC20.sol\":7793:7830  uint256 fromBalance = _balances[from] */\n      swap1\n      pop\n        /* \"@openzeppelin/contracts/token/ERC20/ERC20.sol\":7863:7869  amount */\n      dup2\n        /* \"@openzeppelin/contracts/token/ERC20/ERC20.sol\":7848:7859  fromBalance */\n      dup2\n        /* \"@openzeppelin/contracts/token/ERC20/ERC20.sol\":7848:7869  fromBalance >= amount */\n      lt\n      iszero\n        /* \"@openzeppelin/contracts/token/ERC20/ERC20.sol\":7840:7912  require(fromBalance >= amount, \"ERC20: transfer amount exceeds balance\") */\n      tag_257\n      jumpi\n      mload(0x40)\n      0x08c379a000000000000000000000000000000000000000000000000000000000\n      dup2\n      mstore\n      0x04\n      add\n      tag_258\n      swap1\n      tag_259\n      jump\t// in\n    tag_258:\n      mload(0x40)\n      dup1\n      swap2\n      sub\n      swap1\n      revert\n    tag_257:\n        /* \"@openzeppelin/contracts/token/ERC20/ERC20.sol\":7978:7984  amount */\n      dup2\n        /* \"@openzeppelin/contracts/token/ERC20/ERC20.sol\":7964:7975  fromBalance */\n      dup2\n        /* \"@openzeppelin/contracts/token/ERC20/ERC20.sol\":7964:7984  fromBalance - amount */\n      sub\n        /* \"@openzeppelin/contracts/token/ERC20/ERC20.sol\":7946:7955  _balances */\n      0x00\n        /* \"@openzeppelin/contracts/token/ERC20/ERC20.sol\":7946:7961  _balances[from] */\n      dup1\n        /* \"@openzeppelin/contracts/token/ERC20/ERC20.sol\":7956:7960  from */\n      dup7\n        /* \"@openzeppelin/contracts/token/ERC20/ERC20.sol\":7946:7961  _balances[from] */\n      0xffffffffffffffffffffffffffffffffffffffff\n      and\n      0xffffffffffffffffffffffffffffffffffffffff\n      and\n      dup2\n      mstore\n      0x20\n      add\n      swap1\n      dup2\n      mstore\n      0x20\n      add\n      0x00\n      keccak256\n        /* \"@openzeppelin/contracts/token/ERC20/ERC20.sol\":7946:7984  _balances[from] = fromBalance - amount */\n      dup2\n      swap1\n      sstore\n      pop\n        /* \"@openzeppelin/contracts/token/ERC20/ERC20.sol\":8178:8184  amount */\n      dup2\n        /* \"@openzeppelin/contracts/token/ERC20/ERC20.sol\":8161:8170  _balances */\n      0x00\n        /* \"@openzeppelin/contracts/token/ERC20/ERC20.sol\":8161:8174  _balances[to] */\n      dup1\n        /* \"@openzeppelin/contracts/token/ERC20/ERC20.sol\":8171:8173  to */\n      dup6\n        /* \"@openzeppelin/contracts/token/ERC20/ERC20.sol\":8161:8174  _balances[to] */\n      0xffffffffffffffffffffffffffffffffffffffff\n      and\n      0xffffffffffffffffffffffffffffffffffffffff\n      and\n      dup2\n      mstore\n      0x20\n      add\n      swap1\n      dup2\n      mstore\n      0x20\n      add\n      0x00\n      keccak256\n      0x00\n        /* \"@openzeppelin/contracts/token/ERC20/ERC20.sol\":8161:8184  _balances[to] += amount */\n      dup3\n      dup3\n      sload\n      add\n      swap3\n      pop\n      pop\n      dup2\n      swap1\n      sstore\n      pop\n        /* \"@openzeppelin/contracts/token/ERC20/ERC20.sol\":8225:8227  to */\n      dup3\n        /* \"@openzeppelin/contracts/token/ERC20/ERC20.sol\":8210:8236  Transfer(from, to, amount) */\n      0xffffffffffffffffffffffffffffffffffffffff\n      and\n        /* \"@openzeppelin/contracts/token/ERC20/ERC20.sol\":8219:8223  from */\n      dup5\n        /* \"@openzeppelin/contracts/token/ERC20/ERC20.sol\":8210:8236  Transfer(from, to, amount) */\n      0xffffffffffffffffffffffffffffffffffffffff\n      and\n      0xddf252ad1be2c89b69c2b068fc378daa952ba7f163c4a11628f55a4df523b3ef\n        /* \"@openzeppelin/contracts/token/ERC20/ERC20.sol\":8229:8235  amount */\n      dup5\n        /* \"@openzeppelin/contracts/token/ERC20/ERC20.sol\":8210:8236  Transfer(from, to, amount) */\n      mload(0x40)\n      tag_260\n      swap2\n      swap1\n      tag_63\n      jump\t// in\n    tag_260:\n      mload(0x40)\n      dup1\n      swap2\n      sub\n      swap1\n      log3\n        /* \"@openzeppelin/contracts/token/ERC20/ERC20.sol\":8247:8284  _afterTokenTransfer(from, to, amount) */\n      tag_261\n        /* \"@openzeppelin/contracts/token/ERC20/ERC20.sol\":8267:8271  from */\n      dup5\n        /* \"@openzeppelin/contracts/token/ERC20/ERC20.sol\":8273:8275  to */\n      dup5\n        /* \"@openzeppelin/contracts/token/ERC20/ERC20.sol\":8277:8283  amount */\n      dup5\n        /* \"@openzeppelin/contracts/token/ERC20/ERC20.sol\":8247:8266  _afterTokenTransfer */\n      tag_262\n        /* \"@openzeppelin/contracts/token/ERC20/ERC20.sol\":8247:8284  _afterTokenTransfer(from, to, amount) */\n      jump\t// in\n    tag_261:\n        /* \"@openzeppelin/contracts/token/ERC20/ERC20.sol\":7473:8291  function _transfer(... */\n      pop\n      pop\n      pop\n      pop\n      jump\t// out\n        /* \"@openzeppelin/contracts/token/ERC20/ERC20.sol\":12180:12301  function _beforeTokenTransfer(... */\n    tag_256:\n      pop\n      pop\n      pop\n      jump\t// out\n        /* \"@openzeppelin/contracts/token/ERC20/ERC20.sol\":12889:13009  function _afterTokenTransfer(... */\n    tag_262:\n      pop\n      pop\n      pop\n      jump\t// out\n        /* \"#utility.yul\":7:146   */\n    tag_266:\n      0x00\n        /* \"#utility.yul\":91:97   */\n      dup2\n        /* \"#utility.yul\":78:98   */\n      calldataload\n        /* \"#utility.yul\":69:98   */\n      swap1\n      pop\n        /* \"#utility.yul\":107:140   */\n      tag_268\n        /* \"#utility.yul\":134:139   */\n      dup2\n        /* \"#utility.yul\":107:140   */\n      tag_269\n      jump\t// in\n    tag_268:\n        /* \"#utility.yul\":59:146   */\n      swap3\n      swap2\n      pop\n      pop\n      jump\t// out\n        /* \"#utility.yul\":152:291   */\n    tag_270:\n      0x00\n        /* \"#utility.yul\":236:242   */\n      dup2\n        /* \"#utility.yul\":223:243   */\n      calldataload\n        /* \"#utility.yul\":214:243   */\n      swap1\n      pop\n        /* \"#utility.yul\":252:285   */\n      tag_272\n        /* \"#utility.yul\":279:284   */\n      dup2\n        /* \"#utility.yul\":252:285   */\n      tag_273\n      jump\t// in\n    tag_272:\n        /* \"#utility.yul\":204:291   */\n      swap3\n      swap2\n      pop\n      pop\n      jump\t// out\n        /* \"#utility.yul\":297:559   */\n    tag_106:\n      0x00\n        /* \"#utility.yul\":405:407   */\n      0x20\n        /* \"#utility.yul\":393:402   */\n      dup3\n        /* \"#utility.yul\":384:391   */\n      dup5\n        /* \"#utility.yul\":380:403   */\n      sub\n        /* \"#utility.yul\":376:408   */\n      slt\n        /* \"#utility.yul\":373:375   */\n      iszero\n      tag_275\n      jumpi\n        /* \"#utility.yul\":421:422   */\n      0x00\n        /* \"#utility.yul\":418:419   */\n      dup1\n        /* \"#utility.yul\":411:423   */\n      revert\n        /* \"#utility.yul\":373:375   */\n    tag_275:\n        /* \"#utility.yul\":464:465   */\n      0x00\n        /* \"#utility.yul\":489:542   */\n      tag_276\n        /* \"#utility.yul\":534:541   */\n      dup5\n        /* \"#utility.yul\":525:531   */\n      dup3\n        /* \"#utility.yul\":514:523   */\n      dup6\n        /* \"#utility.yul\":510:532   */\n      add\n        /* \"#utility.yul\":489:542   */\n      tag_266\n      jump\t// in\n    tag_276:\n        /* \"#utility.yul\":479:542   */\n      swap2\n      pop\n        /* \"#utility.yul\":435:552   */\n      pop\n        /* \"#utility.yul\":363:559   */\n      swap3\n      swap2\n      pop\n      pop\n      jump\t// out\n        /* \"#utility.yul\":565:972   */\n    tag_155:\n      0x00\n      dup1\n        /* \"#utility.yul\":690:692   */\n      0x40\n        /* \"#utility.yul\":678:687   */\n      dup4\n        /* \"#utility.yul\":669:676   */\n      dup6\n        /* \"#utility.yul\":665:688   */\n      sub\n        /* \"#utility.yul\":661:693   */\n      slt\n        /* \"#utility.yul\":658:660   */\n      iszero\n      tag_278\n      jumpi\n        /* \"#utility.yul\":706:707   */\n      0x00\n        /* \"#utility.yul\":703:704   */\n      dup1\n        /* \"#utility.yul\":696:708   */\n      revert\n        /* \"#utility.yul\":658:660   */\n    tag_278:\n        /* \"#utility.yul\":749:750   */\n      0x00\n        /* \"#utility.yul\":774:827   */\n      tag_279\n        /* \"#utility.yul\":819:826   */\n      dup6\n        /* \"#utility.yul\":810:816   */\n      dup3\n        /* \"#utility.yul\":799:808   */\n      dup7\n        /* \"#utility.yul\":795:817   */\n      add\n        /* \"#utility.yul\":774:827   */\n      tag_266\n      jump\t// in\n    tag_279:\n        /* \"#utility.yul\":764:827   */\n      swap3\n      pop\n        /* \"#utility.yul\":720:837   */\n      pop\n        /* \"#utility.yul\":876:878   */\n      0x20\n        /* \"#utility.yul\":902:955   */\n      tag_280\n        /* \"#utility.yul\":947:954   */\n      dup6\n        /* \"#utility.yul\":938:944   */\n      dup3\n        /* \"#utility.yul\":927:936   */\n      dup7\n        /* \"#utility.yul\":923:945   */\n      add\n        /* \"#utility.yul\":902:955   */\n      tag_266\n      jump\t// in\n    tag_280:\n        /* \"#utility.yul\":892:955   */\n      swap2\n      pop\n        /* \"#utility.yul\":847:965   */\n      pop\n        /* \"#utility.yul\":648:972   */\n      swap3\n      pop\n      swap3\n      swap1\n      pop\n      jump\t// out\n        /* \"#utility.yul\":978:1530   */\n    tag_67:\n      0x00\n      dup1\n      0x00\n        /* \"#utility.yul\":1120:1122   */\n      0x60\n        /* \"#utility.yul\":1108:1117   */\n      dup5\n        /* \"#utility.yul\":1099:1106   */\n      dup7\n        /* \"#utility.yul\":1095:1118   */\n      sub\n        /* \"#utility.yul\":1091:1123   */\n      slt\n        /* \"#utility.yul\":1088:1090   */\n      iszero\n      tag_282\n      jumpi\n        /* \"#utility.yul\":1136:1137   */\n      0x00\n        /* \"#utility.yul\":1133:1134   */\n      dup1\n        /* \"#utility.yul\":1126:1138   */\n      revert\n        /* \"#utility.yul\":1088:1090   */\n    tag_282:\n        /* \"#utility.yul\":1179:1180   */\n      0x00\n        /* \"#utility.yul\":1204:1257   */\n      tag_283\n        /* \"#utility.yul\":1249:1256   */\n      dup7\n        /* \"#utility.yul\":1240:1246   */\n      dup3\n        /* \"#utility.yul\":1229:1238   */\n      dup8\n        /* \"#utility.yul\":1225:1247   */\n      add\n        /* \"#utility.yul\":1204:1257   */\n      tag_266\n      jump\t// in\n    tag_283:\n        /* \"#utility.yul\":1194:1257   */\n      swap4\n      pop\n        /* \"#utility.yul\":1150:1267   */\n      pop\n        /* \"#utility.yul\":1306:1308   */\n      0x20\n        /* \"#utility.yul\":1332:1385   */\n      tag_284\n        /* \"#utility.yul\":1377:1384   */\n      dup7\n        /* \"#utility.yul\":1368:1374   */\n      dup3\n        /* \"#utility.yul\":1357:1366   */\n      dup8\n        /* \"#utility.yul\":1353:1375   */\n      add\n        /* \"#utility.yul\":1332:1385   */\n      tag_266\n      jump\t// in\n    tag_284:\n        /* \"#utility.yul\":1322:1385   */\n      swap3\n      pop\n        /* \"#utility.yul\":1277:1395   */\n      pop\n        /* \"#utility.yul\":1434:1436   */\n      0x40\n        /* \"#utility.yul\":1460:1513   */\n      tag_285\n        /* \"#utility.yul\":1505:1512   */\n      dup7\n        /* \"#utility.yul\":1496:1502   */\n      dup3\n        /* \"#utility.yul\":1485:1494   */\n      dup8\n        /* \"#utility.yul\":1481:1503   */\n      add\n        /* \"#utility.yul\":1460:1513   */\n      tag_270\n      jump\t// in\n    tag_285:\n        /* \"#utility.yul\":1450:1513   */\n      swap2\n      pop\n        /* \"#utility.yul\":1405:1523   */\n      pop\n        /* \"#utility.yul\":1078:1530   */\n      swap3\n      pop\n      swap3\n      pop\n      swap3\n      jump\t// out\n        /* \"#utility.yul\":1536:1943   */\n    tag_52:\n      0x00\n      dup1\n        /* \"#utility.yul\":1661:1663   */\n      0x40\n        /* \"#utility.yul\":1649:1658   */\n      dup4\n        /* \"#utility.yul\":1640:1647   */\n      dup6\n        /* \"#utility.yul\":1636:1659   */\n      sub\n        /* \"#utility.yul\":1632:1664   */\n      slt\n        /* \"#utility.yul\":1629:1631   */\n      iszero\n      tag_287\n      jumpi\n        /* \"#utility.yul\":1677:1678   */\n      0x00\n        /* \"#utility.yul\":1674:1675   */\n      dup1\n        /* \"#utility.yul\":1667:1679   */\n      revert\n        /* \"#utility.yul\":1629:1631   */\n    tag_287:\n        /* \"#utility.yul\":1720:1721   */\n      0x00\n        /* \"#utility.yul\":1745:1798   */\n      tag_288\n        /* \"#utility.yul\":1790:1797   */\n      dup6\n        /* \"#utility.yul\":1781:1787   */\n      dup3\n        /* \"#utility.yul\":1770:1779   */\n      dup7\n        /* \"#utility.yul\":1766:1788   */\n      add\n        /* \"#utility.yul\":1745:1798   */\n      tag_266\n      jump\t// in\n    tag_288:\n        /* \"#utility.yul\":1735:1798   */\n      swap3\n      pop\n        /* \"#utility.yul\":1691:1808   */\n      pop\n        /* \"#utility.yul\":1847:1849   */\n      0x20\n        /* \"#utility.yul\":1873:1926   */\n      tag_289\n        /* \"#utility.yul\":1918:1925   */\n      dup6\n        /* \"#utility.yul\":1909:1915   */\n      dup3\n        /* \"#utility.yul\":1898:1907   */\n      dup7\n        /* \"#utility.yul\":1894:1916   */\n      add\n        /* \"#utility.yul\":1873:1926   */\n      tag_270\n      jump\t// in\n    tag_289:\n        /* \"#utility.yul\":1863:1926   */\n      swap2\n      pop\n        /* \"#utility.yul\":1818:1936   */\n      pop\n        /* \"#utility.yul\":1619:1943   */\n      swap3\n      pop\n      swap3\n      swap1\n      pop\n      jump\t// out\n        /* \"#utility.yul\":1949:2211   */\n    tag_92:\n      0x00\n        /* \"#utility.yul\":2057:2059   */\n      0x20\n        /* \"#utility.yul\":2045:2054   */\n      dup3\n        /* \"#utility.yul\":2036:2043   */\n      dup5\n        /* \"#utility.yul\":2032:2055   */\n      sub\n        /* \"#utility.yul\":2028:2060   */\n      slt\n        /* \"#utility.yul\":2025:2027   */\n      iszero\n      tag_291\n      jumpi\n        /* \"#utility.yul\":2073:2074   */\n      0x00\n        /* \"#utility.yul\":2070:2071   */\n      dup1\n        /* \"#utility.yul\":2063:2075   */\n      revert\n        /* \"#utility.yul\":2025:2027   */\n    tag_291:\n        /* \"#utility.yul\":2116:2117   */\n      0x00\n        /* \"#utility.yul\":2141:2194   */\n      tag_292\n        /* \"#utility.yul\":2186:2193   */\n      dup5\n        /* \"#utility.yul\":2177:2183   */\n      dup3\n        /* \"#utility.yul\":2166:2175   */\n      dup6\n        /* \"#utility.yul\":2162:2184   */\n      add\n        /* \"#utility.yul\":2141:2194   */\n      tag_270\n      jump\t// in\n    tag_292:\n        /* \"#utility.yul\":2131:2194   */\n      swap2\n      pop\n        /* \"#utility.yul\":2087:2204   */\n      pop\n        /* \"#utility.yul\":2015:2211   */\n      swap3\n      swap2\n      pop\n      pop\n      jump\t// out\n        /* \"#utility.yul\":2217:2326   */\n    tag_293:\n        /* \"#utility.yul\":2298:2319   */\n      tag_295\n        /* \"#utility.yul\":2313:2318   */\n      dup2\n        /* \"#utility.yul\":2298:2319   */\n      tag_296\n      jump\t// in\n    tag_295:\n        /* \"#utility.yul\":2293:2296   */\n      dup3\n        /* \"#utility.yul\":2286:2320   */\n      mstore\n        /* \"#utility.yul\":2276:2326   */\n      pop\n      pop\n      jump\t// out\n        /* \"#utility.yul\":2332:2696   */\n    tag_297:\n      0x00\n        /* \"#utility.yul\":2448:2487   */\n      tag_299\n        /* \"#utility.yul\":2481:2486   */\n      dup3\n        /* \"#utility.yul\":2448:2487   */\n      tag_300\n      jump\t// in\n    tag_299:\n        /* \"#utility.yul\":2503:2574   */\n      tag_301\n        /* \"#utility.yul\":2567:2573   */\n      dup2\n        /* \"#utility.yul\":2562:2565   */\n      dup6\n        /* \"#utility.yul\":2503:2574   */\n      tag_302\n      jump\t// in\n    tag_301:\n        /* \"#utility.yul\":2496:2574   */\n      swap4\n      pop\n        /* \"#utility.yul\":2583:2635   */\n      tag_303\n        /* \"#utility.yul\":2628:2634   */\n      dup2\n        /* \"#utility.yul\":2623:2626   */\n      dup6\n        /* \"#utility.yul\":2616:2620   */\n      0x20\n        /* \"#utility.yul\":2609:2614   */\n      dup7\n        /* \"#utility.yul\":2605:2621   */\n      add\n        /* \"#utility.yul\":2583:2635   */\n      tag_304\n      jump\t// in\n    tag_303:\n        /* \"#utility.yul\":2660:2689   */\n      tag_305\n        /* \"#utility.yul\":2682:2688   */\n      dup2\n        /* \"#utility.yul\":2660:2689   */\n      tag_306\n      jump\t// in\n    tag_305:\n        /* \"#utility.yul\":2655:2658   */\n      dup5\n        /* \"#utility.yul\":2651:2690   */\n      add\n        /* \"#utility.yul\":2644:2690   */\n      swap2\n      pop\n        /* \"#utility.yul\":2424:2696   */\n      pop\n      swap3\n      swap2\n      pop\n      pop\n      jump\t// out\n        /* \"#utility.yul\":2702:3069   */\n    tag_307:\n      0x00\n        /* \"#utility.yul\":2865:2932   */\n      tag_309\n        /* \"#utility.yul\":2929:2931   */\n      0x23\n        /* \"#utility.yul\":2924:2927   */\n      dup4\n        /* \"#utility.yul\":2865:2932   */\n      tag_302\n      jump\t// in\n    tag_309:\n        /* \"#utility.yul\":2858:2932   */\n      swap2\n      pop\n        /* \"#utility.yul\":2962:2996   */\n      0x45524332303a207472616e7366657220746f20746865207a65726f2061646472\n        /* \"#utility.yul\":2958:2959   */\n      0x00\n        /* \"#utility.yul\":2953:2956   */\n      dup4\n        /* \"#utility.yul\":2949:2960   */\n      add\n        /* \"#utility.yul\":2942:2997   */\n      mstore\n        /* \"#utility.yul\":3028:3033   */\n      0x6573730000000000000000000000000000000000000000000000000000000000\n        /* \"#utility.yul\":3023:3025   */\n      0x20\n        /* \"#utility.yul\":3018:3021   */\n      dup4\n        /* \"#utility.yul\":3014:3026   */\n      add\n        /* \"#utility.yul\":3007:3034   */\n      mstore\n        /* \"#utility.yul\":3060:3062   */\n      0x40\n        /* \"#utility.yul\":3055:3058   */\n      dup3\n        /* \"#utility.yul\":3051:3063   */\n      add\n        /* \"#utility.yul\":3044:3063   */\n      swap1\n      pop\n        /* \"#utility.yul\":2848:3069   */\n      swap2\n      swap1\n      pop\n      jump\t// out\n        /* \"#utility.yul\":3075:3441   */\n    tag_310:\n      0x00\n        /* \"#utility.yul\":3238:3305   */\n      tag_312\n        /* \"#utility.yul\":3302:3304   */\n      0x22\n        /* \"#utility.yul\":3297:3300   */\n      dup4\n        /* \"#utility.yul\":3238:3305   */\n      tag_302\n      jump\t// in\n    tag_312:\n        /* \"#utility.yul\":3231:3305   */\n      swap2\n      pop\n        /* \"#utility.yul\":3335:3369   */\n      0x45524332303a20617070726f766520746f20746865207a65726f206164647265\n        /* \"#utility.yul\":3331:3332   */\n      0x00\n        /* \"#utility.yul\":3326:3329   */\n      dup4\n        /* \"#utility.yul\":3322:3333   */\n      add\n        /* \"#utility.yul\":3315:3370   */\n      mstore\n        /* \"#utility.yul\":3401:3405   */\n      0x7373000000000000000000000000000000000000000000000000000000000000\n        /* \"#utility.yul\":3396:3398   */\n      0x20\n        /* \"#utility.yul\":3391:3394   */\n      dup4\n        /* \"#utility.yul\":3387:3399   */\n      add\n        /* \"#utility.yul\":3380:3406   */\n      mstore\n        /* \"#utility.yul\":3432:3434   */\n      0x40\n        /* \"#utility.yul\":3427:3430   */\n      dup3\n        /* \"#utility.yul\":3423:3435   */\n      add\n        /* \"#utility.yul\":3416:3435   */\n      swap1\n      pop\n        /* \"#utility.yul\":3221:3441   */\n      swap2\n      swap1\n      pop\n      jump\t// out\n        /* \"#utility.yul\":3447:3774   */\n    tag_313:\n      0x00\n        /* \"#utility.yul\":3610:3677   */\n      tag_315\n        /* \"#utility.yul\":3674:3676   */\n      0x1d\n        /* \"#utility.yul\":3669:3672   */\n      dup4\n        /* \"#utility.yul\":3610:3677   */\n      tag_302\n      jump\t// in\n    tag_315:\n        /* \"#utility.yul\":3603:3677   */\n      swap2\n      pop\n        /* \"#utility.yul\":3707:3738   */\n      0x45524332303a20696e73756666696369656e7420616c6c6f77616e6365000000\n        /* \"#utility.yul\":3703:3704   */\n      0x00\n        /* \"#utility.yul\":3698:3701   */\n      dup4\n        /* \"#utility.yul\":3694:3705   */\n      add\n        /* \"#utility.yul\":3687:3739   */\n      mstore\n        /* \"#utility.yul\":3765:3767   */\n      0x20\n        /* \"#utility.yul\":3760:3763   */\n      dup3\n        /* \"#utility.yul\":3756:3768   */\n      add\n        /* \"#utility.yul\":3749:3768   */\n      swap1\n      pop\n        /* \"#utility.yul\":3593:3774   */\n      swap2\n      swap1\n      pop\n      jump\t// out\n        /* \"#utility.yul\":3780:4150   */\n    tag_316:\n      0x00\n        /* \"#utility.yul\":3943:4010   */\n      tag_318\n        /* \"#utility.yul\":4007:4009   */\n      0x26\n        /* \"#utility.yul\":4002:4005   */\n      dup4\n        /* \"#utility.yul\":3943:4010   */\n      tag_302\n      jump\t// in\n    tag_318:\n        /* \"#utility.yul\":3936:4010   */\n      swap2\n      pop\n        /* \"#utility.yul\":4040:4074   */\n      0x45524332303a207472616e7366657220616d6f756e7420657863656564732062\n        /* \"#utility.yul\":4036:4037   */\n      0x00\n        /* \"#utility.yul\":4031:4034   */\n      dup4\n        /* \"#utility.yul\":4027:4038   */\n      add\n        /* \"#utility.yul\":4020:4075   */\n      mstore\n        /* \"#utility.yul\":4106:4114   */\n      0x616c616e63650000000000000000000000000000000000000000000000000000\n        /* \"#utility.yul\":4101:4103   */\n      0x20\n        /* \"#utility.yul\":4096:4099   */\n      dup4\n        /* \"#utility.yul\":4092:4104   */\n      add\n        /* \"#utility.yul\":4085:4115   */\n      mstore\n        /* \"#utility.yul\":4141:4143   */\n      0x40\n        /* \"#utility.yul\":4136:4139   */\n      dup3\n        /* \"#utility.yul\":4132:4144   */\n      add\n        /* \"#utility.yul\":4125:4144   */\n      swap1\n      pop\n        /* \"#utility.yul\":3926:4150   */\n      swap2\n      swap1\n      pop\n      jump\t// out\n        /* \"#utility.yul\":4156:4525   */\n    tag_319:\n      0x00\n        /* \"#utility.yul\":4319:4386   */\n      tag_321\n        /* \"#utility.yul\":4383:4385   */\n      0x25\n        /* \"#utility.yul\":4378:4381   */\n      dup4\n        /* \"#utility.yul\":4319:4386   */\n      tag_302\n      jump\t// in\n    tag_321:\n        /* \"#utility.yul\":4312:4386   */\n      swap2\n      pop\n        /* \"#utility.yul\":4416:4450   */\n      0x45524332303a207472616e736665722066726f6d20746865207a65726f206164\n        /* \"#utility.yul\":4412:4413   */\n      0x00\n        /* \"#utility.yul\":4407:4410   */\n      dup4\n        /* \"#utility.yul\":4403:4414   */\n      add\n        /* \"#utility.yul\":4396:4451   */\n      mstore\n        /* \"#utility.yul\":4482:4489   */\n      0x6472657373000000000000000000000000000000000000000000000000000000\n        /* \"#utility.yul\":4477:4479   */\n      0x20\n        /* \"#utility.yul\":4472:4475   */\n      dup4\n        /* \"#utility.yul\":4468:4480   */\n      add\n        /* \"#utility.yul\":4461:4490   */\n      mstore\n        /* \"#utility.yul\":4516:4518   */\n      0x40\n        /* \"#utility.yul\":4511:4514   */\n      dup3\n        /* \"#utility.yul\":4507:4519   */\n      add\n        /* \"#utility.yul\":4500:4519   */\n      swap1\n      pop\n        /* \"#utility.yul\":4302:4525   */\n      swap2\n      swap1\n      pop\n      jump\t// out\n        /* \"#utility.yul\":4531:4899   */\n    tag_322:\n      0x00\n        /* \"#utility.yul\":4694:4761   */\n      tag_324\n        /* \"#utility.yul\":4758:4760   */\n      0x24\n        /* \"#utility.yul\":4753:4756   */\n      dup4\n        /* \"#utility.yul\":4694:4761   */\n      tag_302\n      jump\t// in\n    tag_324:\n        /* \"#utility.yul\":4687:4761   */\n      swap2\n      pop\n        /* \"#utility.yul\":4791:4825   */\n      0x45524332303a20617070726f76652066726f6d20746865207a65726f20616464\n        /* \"#utility.yul\":4787:4788   */\n      0x00\n        /* \"#utility.yul\":4782:4785   */\n      dup4\n        /* \"#utility.yul\":4778:4789   */\n      add\n        /* \"#utility.yul\":4771:4826   */\n      mstore\n        /* \"#utility.yul\":4857:4863   */\n      0x7265737300000000000000000000000000000000000000000000000000000000\n        /* \"#utility.yul\":4852:4854   */\n      0x20\n        /* \"#utility.yul\":4847:4850   */\n      dup4\n        /* \"#utility.yul\":4843:4855   */\n      add\n        /* \"#utility.yul\":4836:4864   */\n      mstore\n        /* \"#utility.yul\":4890:4892   */\n      0x40\n        /* \"#utility.yul\":4885:4888   */\n      dup3\n        /* \"#utility.yul\":4881:4893   */\n      add\n        /* \"#utility.yul\":4874:4893   */\n      swap1\n      pop\n        /* \"#utility.yul\":4677:4899   */\n      swap2\n      swap1\n      pop\n      jump\t// out\n        /* \"#utility.yul\":4905:5274   */\n    tag_325:\n      0x00\n        /* \"#utility.yul\":5068:5135   */\n      tag_327\n        /* \"#utility.yul\":5132:5134   */\n      0x25\n        /* \"#utility.yul\":5127:5130   */\n      dup4\n        /* \"#utility.yul\":5068:5135   */\n      tag_302\n      jump\t// in\n    tag_327:\n        /* \"#utility.yul\":5061:5135   */\n      swap2\n      pop\n        /* \"#utility.yul\":5165:5199   */\n      0x45524332303a2064656372656173656420616c6c6f77616e63652062656c6f77\n        /* \"#utility.yul\":5161:5162   */\n      0x00\n        /* \"#utility.yul\":5156:5159   */\n      dup4\n        /* \"#utility.yul\":5152:5163   */\n      add\n        /* \"#utility.yul\":5145:5200   */\n      mstore\n        /* \"#utility.yul\":5231:5238   */\n      0x207a65726f000000000000000000000000000000000000000000000000000000\n        /* \"#utility.yul\":5226:5228   */\n      0x20\n        /* \"#utility.yul\":5221:5224   */\n      dup4\n        /* \"#utility.yul\":5217:5229   */\n      add\n        /* \"#utility.yul\":5210:5239   */\n      mstore\n        /* \"#utility.yul\":5265:5267   */\n      0x40\n        /* \"#utility.yul\":5260:5263   */\n      dup3\n        /* \"#utility.yul\":5256:5268   */\n      add\n        /* \"#utility.yul\":5249:5268   */\n      swap1\n      pop\n        /* \"#utility.yul\":5051:5274   */\n      swap2\n      swap1\n      pop\n      jump\t// out\n        /* \"#utility.yul\":5280:5398   */\n    tag_328:\n        /* \"#utility.yul\":5367:5391   */\n      tag_330\n        /* \"#utility.yul\":5385:5390   */\n      dup2\n        /* \"#utility.yul\":5367:5391   */\n      tag_331\n      jump\t// in\n    tag_330:\n        /* \"#utility.yul\":5362:5365   */\n      dup3\n        /* \"#utility.yul\":5355:5392   */\n      mstore\n        /* \"#utility.yul\":5345:5398   */\n      pop\n      pop\n      jump\t// out\n        /* \"#utility.yul\":5404:5516   */\n    tag_332:\n        /* \"#utility.yul\":5487:5509   */\n      tag_334\n        /* \"#utility.yul\":5503:5508   */\n      dup2\n        /* \"#utility.yul\":5487:5509   */\n      tag_335\n      jump\t// in\n    tag_334:\n        /* \"#utility.yul\":5482:5485   */\n      dup3\n        /* \"#utility.yul\":5475:5510   */\n      mstore\n        /* \"#utility.yul\":5465:5516   */\n      pop\n      pop\n      jump\t// out\n        /* \"#utility.yul\":5522:5732   */\n    tag_55:\n      0x00\n        /* \"#utility.yul\":5647:5649   */\n      0x20\n        /* \"#utility.yul\":5636:5645   */\n      dup3\n        /* \"#utility.yul\":5632:5650   */\n      add\n        /* \"#utility.yul\":5624:5650   */\n      swap1\n      pop\n        /* \"#utility.yul\":5660:5725   */\n      tag_337\n        /* \"#utility.yul\":5722:5723   */\n      0x00\n        /* \"#utility.yul\":5711:5720   */\n      dup4\n        /* \"#utility.yul\":5707:5724   */\n      add\n        /* \"#utility.yul\":5698:5704   */\n      dup5\n        /* \"#utility.yul\":5660:5725   */\n      tag_293\n      jump\t// in\n    tag_337:\n        /* \"#utility.yul\":5614:5732   */\n      swap3\n      swap2\n      pop\n      pop\n      jump\t// out\n        /* \"#utility.yul\":5738:6051   */\n    tag_48:\n      0x00\n        /* \"#utility.yul\":5889:5891   */\n      0x20\n        /* \"#utility.yul\":5878:5887   */\n      dup3\n        /* \"#utility.yul\":5874:5892   */\n      add\n        /* \"#utility.yul\":5866:5892   */\n      swap1\n      pop\n        /* \"#utility.yul\":5938:5947   */\n      dup2\n        /* \"#utility.yul\":5932:5936   */\n      dup2\n        /* \"#utility.yul\":5928:5948   */\n      sub\n        /* \"#utility.yul\":5924:5925   */\n      0x00\n        /* \"#utility.yul\":5913:5922   */\n      dup4\n        /* \"#utility.yul\":5909:5926   */\n      add\n        /* \"#utility.yul\":5902:5949   */\n      mstore\n        /* \"#utility.yul\":5966:6044   */\n      tag_339\n        /* \"#utility.yul\":6039:6043   */\n      dup2\n        /* \"#utility.yul\":6030:6036   */\n      dup5\n        /* \"#utility.yul\":5966:6044   */\n      tag_297\n      jump\t// in\n    tag_339:\n        /* \"#utility.yul\":5958:6044   */\n      swap1\n      pop\n        /* \"#utility.yul\":5856:6051   */\n      swap3\n      swap2\n      pop\n      pop\n      jump\t// out\n        /* \"#utility.yul\":6057:6476   */\n    tag_254:\n      0x00\n        /* \"#utility.yul\":6261:6263   */\n      0x20\n        /* \"#utility.yul\":6250:6259   */\n      dup3\n        /* \"#utility.yul\":6246:6264   */\n      add\n        /* \"#utility.yul\":6238:6264   */\n      swap1\n      pop\n        /* \"#utility.yul\":6310:6319   */\n      dup2\n        /* \"#utility.yul\":6304:6308   */\n      dup2\n        /* \"#utility.yul\":6300:6320   */\n      sub\n        /* \"#utility.yul\":6296:6297   */\n      0x00\n        /* \"#utility.yul\":6285:6294   */\n      dup4\n        /* \"#utility.yul\":6281:6298   */\n      add\n        /* \"#utility.yul\":6274:6321   */\n      mstore\n        /* \"#utility.yul\":6338:6469   */\n      tag_341\n        /* \"#utility.yul\":6464:6468   */\n      dup2\n        /* \"#utility.yul\":6338:6469   */\n      tag_307\n      jump\t// in\n    tag_341:\n        /* \"#utility.yul\":6330:6469   */\n      swap1\n      pop\n        /* \"#utility.yul\":6228:6476   */\n      swap2\n      swap1\n      pop\n      jump\t// out\n        /* \"#utility.yul\":6482:6901   */\n    tag_239:\n      0x00\n        /* \"#utility.yul\":6686:6688   */\n      0x20\n        /* \"#utility.yul\":6675:6684   */\n      dup3\n        /* \"#utility.yul\":6671:6689   */\n      add\n        /* \"#utility.yul\":6663:6689   */\n      swap1\n      pop\n        /* \"#utility.yul\":6735:6744   */\n      dup2\n        /* \"#utility.yul\":6729:6733   */\n      dup2\n        /* \"#utility.yul\":6725:6745   */\n      sub\n        /* \"#utility.yul\":6721:6722   */\n      0x00\n        /* \"#utility.yul\":6710:6719   */\n      dup4\n        /* \"#utility.yul\":6706:6723   */\n      add\n        /* \"#utility.yul\":6699:6746   */\n      mstore\n        /* \"#utility.yul\":6763:6894   */\n      tag_343\n        /* \"#utility.yul\":6889:6893   */\n      dup2\n        /* \"#utility.yul\":6763:6894   */\n      tag_310\n      jump\t// in\n    tag_343:\n        /* \"#utility.yul\":6755:6894   */\n      swap1\n      pop\n        /* \"#utility.yul\":6653:6901   */\n      swap2\n      swap1\n      pop\n      jump\t// out\n        /* \"#utility.yul\":6907:7326   */\n    tag_246:\n      0x00\n        /* \"#utility.yul\":7111:7113   */\n      0x20\n        /* \"#utility.yul\":7100:7109   */\n      dup3\n        /* \"#utility.yul\":7096:7114   */\n      add\n        /* \"#utility.yul\":7088:7114   */\n      swap1\n      pop\n        /* \"#utility.yul\":7160:7169   */\n      dup2\n        /* \"#utility.yul\":7154:7158   */\n      dup2\n        /* \"#utility.yul\":7150:7170   */\n      sub\n        /* \"#utility.yul\":7146:7147   */\n      0x00\n        /* \"#utility.yul\":7135:7144   */\n      dup4\n        /* \"#utility.yul\":7131:7148   */\n      add\n        /* \"#utility.yul\":7124:7171   */\n      mstore\n        /* \"#utility.yul\":7188:7319   */\n      tag_345\n        /* \"#utility.yul\":7314:7318   */\n      dup2\n        /* \"#utility.yul\":7188:7319   */\n      tag_313\n      jump\t// in\n    tag_345:\n        /* \"#utility.yul\":7180:7319   */\n      swap1\n      pop\n        /* \"#utility.yul\":7078:7326   */\n      swap2\n      swap1\n      pop\n      jump\t// out\n        /* \"#utility.yul\":7332:7751   */\n    tag_259:\n      0x00\n        /* \"#utility.yul\":7536:7538   */\n      0x20\n        /* \"#utility.yul\":7525:7534   */\n      dup3\n        /* \"#utility.yul\":7521:7539   */\n      add\n        /* \"#utility.yul\":7513:7539   */\n      swap1\n      pop\n        /* \"#utility.yul\":7585:7594   */\n      dup2\n        /* \"#utility.yul\":7579:7583   */\n      dup2\n        /* \"#utility.yul\":7575:7595   */\n      sub\n        /* \"#utility.yul\":7571:7572   */\n      0x00\n        /* \"#utility.yul\":7560:7569   */\n      dup4\n        /* \"#utility.yul\":7556:7573   */\n      add\n        /* \"#utility.yul\":7549:7596   */\n      mstore\n        /* \"#utility.yul\":7613:7744   */\n      tag_347\n        /* \"#utility.yul\":7739:7743   */\n      dup2\n        /* \"#utility.yul\":7613:7744   */\n      tag_316\n      jump\t// in\n    tag_347:\n        /* \"#utility.yul\":7605:7744   */\n      swap1\n      pop\n        /* \"#utility.yul\":7503:7751   */\n      swap2\n      swap1\n      pop\n      jump\t// out\n        /* \"#utility.yul\":7757:8176   */\n    tag_251:\n      0x00\n        /* \"#utility.yul\":7961:7963   */\n      0x20\n        /* \"#utility.yul\":7950:7959   */\n      dup3\n        /* \"#utility.yul\":7946:7964   */\n      add\n        /* \"#utility.yul\":7938:7964   */\n      swap1\n      pop\n        /* \"#utility.yul\":8010:8019   */\n      dup2\n        /* \"#utility.yul\":8004:8008   */\n      dup2\n        /* \"#utility.yul\":8000:8020   */\n      sub\n        /* \"#utility.yul\":7996:7997   */\n      0x00\n        /* \"#utility.yul\":7985:7994   */\n      dup4\n        /* \"#utility.yul\":7981:7998   */\n      add\n        /* \"#utility.yul\":7974:8021   */\n      mstore\n        /* \"#utility.yul\":8038:8169   */\n      tag_349\n        /* \"#utility.yul\":8164:8168   */\n      dup2\n        /* \"#utility.yul\":8038:8169   */\n      tag_319\n      jump\t// in\n    tag_349:\n        /* \"#utility.yul\":8030:8169   */\n      swap1\n      pop\n        /* \"#utility.yul\":7928:8176   */\n      swap2\n      swap1\n      pop\n      jump\t// out\n        /* \"#utility.yul\":8182:8601   */\n    tag_236:\n      0x00\n        /* \"#utility.yul\":8386:8388   */\n      0x20\n        /* \"#utility.yul\":8375:8384   */\n      dup3\n        /* \"#utility.yul\":8371:8389   */\n      add\n        /* \"#utility.yul\":8363:8389   */\n      swap1\n      pop\n        /* \"#utility.yul\":8435:8444   */\n      dup2\n        /* \"#utility.yul\":8429:8433   */\n      dup2\n        /* \"#utility.yul\":8425:8445   */\n      sub\n        /* \"#utility.yul\":8421:8422   */\n      0x00\n        /* \"#utility.yul\":8410:8419   */\n      dup4\n        /* \"#utility.yul\":8406:8423   */\n      add\n        /* \"#utility.yul\":8399:8446   */\n      mstore\n        /* \"#utility.yul\":8463:8594   */\n      tag_351\n        /* \"#utility.yul\":8589:8593   */\n      dup2\n        /* \"#utility.yul\":8463:8594   */\n      tag_322\n      jump\t// in\n    tag_351:\n        /* \"#utility.yul\":8455:8594   */\n      swap1\n      pop\n        /* \"#utility.yul\":8353:8601   */\n      swap2\n      swap1\n      pop\n      jump\t// out\n        /* \"#utility.yul\":8607:9026   */\n    tag_220:\n      0x00\n        /* \"#utility.yul\":8811:8813   */\n      0x20\n        /* \"#utility.yul\":8800:8809   */\n      dup3\n        /* \"#utility.yul\":8796:8814   */\n      add\n        /* \"#utility.yul\":8788:8814   */\n      swap1\n      pop\n        /* \"#utility.yul\":8860:8869   */\n      dup2\n        /* \"#utility.yul\":8854:8858   */\n      dup2\n        /* \"#utility.yul\":8850:8870   */\n      sub\n        /* \"#utility.yul\":8846:8847   */\n      0x00\n        /* \"#utility.yul\":8835:8844   */\n      dup4\n        /* \"#utility.yul\":8831:8848   */\n      add\n        /* \"#utility.yul\":8824:8871   */\n      mstore\n        /* \"#utility.yul\":8888:9019   */\n      tag_353\n        /* \"#utility.yul\":9014:9018   */\n      dup2\n        /* \"#utility.yul\":8888:9019   */\n      tag_325\n      jump\t// in\n    tag_353:\n        /* \"#utility.yul\":8880:9019   */\n      swap1\n      pop\n        /* \"#utility.yul\":8778:9026   */\n      swap2\n      swap1\n      pop\n      jump\t// out\n        /* \"#utility.yul\":9032:9254   */\n    tag_63:\n      0x00\n        /* \"#utility.yul\":9163:9165   */\n      0x20\n        /* \"#utility.yul\":9152:9161   */\n      dup3\n        /* \"#utility.yul\":9148:9166   */\n      add\n        /* \"#utility.yul\":9140:9166   */\n      swap1\n      pop\n        /* \"#utility.yul\":9176:9247   */\n      tag_355\n        /* \"#utility.yul\":9244:9245   */\n      0x00\n        /* \"#utility.yul\":9233:9242   */\n      dup4\n        /* \"#utility.yul\":9229:9246   */\n      add\n        /* \"#utility.yul\":9220:9226   */\n      dup5\n        /* \"#utility.yul\":9176:9247   */\n      tag_328\n      jump\t// in\n    tag_355:\n        /* \"#utility.yul\":9130:9254   */\n      swap3\n      swap2\n      pop\n      pop\n      jump\t// out\n        /* \"#utility.yul\":9260:9474   */\n    tag_77:\n      0x00\n        /* \"#utility.yul\":9387:9389   */\n      0x20\n        /* \"#utility.yul\":9376:9385   */\n      dup3\n        /* \"#utility.yul\":9372:9390   */\n      add\n        /* \"#utility.yul\":9364:9390   */\n      swap1\n      pop\n        /* \"#utility.yul\":9400:9467   */\n      tag_357\n        /* \"#utility.yul\":9464:9465   */\n      0x00\n        /* \"#utility.yul\":9453:9462   */\n      dup4\n        /* \"#utility.yul\":9449:9466   */\n      add\n        /* \"#utility.yul\":9440:9446   */\n      dup5\n        /* \"#utility.yul\":9400:9467   */\n      tag_332\n      jump\t// in\n    tag_357:\n        /* \"#utility.yul\":9354:9474   */\n      swap3\n      swap2\n      pop\n      pop\n      jump\t// out\n        /* \"#utility.yul\":9480:9579   */\n    tag_300:\n      0x00\n        /* \"#utility.yul\":9566:9571   */\n      dup2\n        /* \"#utility.yul\":9560:9572   */\n      mload\n        /* \"#utility.yul\":9550:9572   */\n      swap1\n      pop\n        /* \"#utility.yul\":9539:9579   */\n      swap2\n      swap1\n      pop\n      jump\t// out\n        /* \"#utility.yul\":9585:9754   */\n    tag_302:\n      0x00\n        /* \"#utility.yul\":9703:9709   */\n      dup3\n        /* \"#utility.yul\":9698:9701   */\n      dup3\n        /* \"#utility.yul\":9691:9710   */\n      mstore\n        /* \"#utility.yul\":9743:9747   */\n      0x20\n        /* \"#utility.yul\":9738:9741   */\n      dup3\n        /* \"#utility.yul\":9734:9748   */\n      add\n        /* \"#utility.yul\":9719:9748   */\n      swap1\n      pop\n        /* \"#utility.yul\":9681:9754   */\n      swap3\n      swap2\n      pop\n      pop\n      jump\t// out\n        /* \"#utility.yul\":9760:10065   */\n    tag_194:\n      0x00\n        /* \"#utility.yul\":9819:9839   */\n      tag_361\n        /* \"#utility.yul\":9837:9838   */\n      dup3\n        /* \"#utility.yul\":9819:9839   */\n      tag_331\n      jump\t// in\n    tag_361:\n        /* \"#utility.yul\":9814:9839   */\n      swap2\n      pop\n        /* \"#utility.yul\":9853:9873   */\n      tag_362\n        /* \"#utility.yul\":9871:9872   */\n      dup4\n        /* \"#utility.yul\":9853:9873   */\n      tag_331\n      jump\t// in\n    tag_362:\n        /* \"#utility.yul\":9848:9873   */\n      swap3\n      pop\n        /* \"#utility.yul\":10007:10008   */\n      dup3\n        /* \"#utility.yul\":9939:10005   */\n      0xffffffffffffffffffffffffffffffffffffffffffffffffffffffffffffffff\n        /* \"#utility.yul\":9935:10009   */\n      sub\n        /* \"#utility.yul\":9932:9933   */\n      dup3\n        /* \"#utility.yul\":9929:10010   */\n      gt\n        /* \"#utility.yul\":9926:9928   */\n      iszero\n      tag_363\n      jumpi\n        /* \"#utility.yul\":10013:10031   */\n      tag_364\n      tag_365\n      jump\t// in\n    tag_364:\n        /* \"#utility.yul\":9926:9928   */\n    tag_363:\n        /* \"#utility.yul\":10057:10058   */\n      dup3\n        /* \"#utility.yul\":10054:10055   */\n      dup3\n        /* \"#utility.yul\":10050:10059   */\n      add\n        /* \"#utility.yul\":10043:10059   */\n      swap1\n      pop\n        /* \"#utility.yul\":9804:10065   */\n      swap3\n      swap2\n      pop\n      pop\n      jump\t// out\n        /* \"#utility.yul\":10071:10167   */\n    tag_366:\n      0x00\n        /* \"#utility.yul\":10137:10161   */\n      tag_368\n        /* \"#utility.yul\":10155:10160   */\n      dup3\n        /* \"#utility.yul\":10137:10161   */\n      tag_369\n      jump\t// in\n    tag_368:\n        /* \"#utility.yul\":10126:10161   */\n      swap1\n      pop\n        /* \"#utility.yul\":10116:10167   */\n      swap2\n      swap1\n      pop\n      jump\t// out\n        /* \"#utility.yul\":10173:10263   */\n    tag_296:\n      0x00\n        /* \"#utility.yul\":10250:10255   */\n      dup2\n        /* \"#utility.yul\":10243:10256   */\n      iszero\n        /* \"#utility.yul\":10236:10257   */\n      iszero\n        /* \"#utility.yul\":10225:10257   */\n      swap1\n      pop\n        /* \"#utility.yul\":10215:10263   */\n      swap2\n      swap1\n      pop\n      jump\t// out\n        /* \"#utility.yul\":10269:10395   */\n    tag_369:\n      0x00\n        /* \"#utility.yul\":10346:10388   */\n      0xffffffffffffffffffffffffffffffffffffffff\n        /* \"#utility.yul\":10339:10344   */\n      dup3\n        /* \"#utility.yul\":10335:10389   */\n      and\n        /* \"#utility.yul\":10324:10389   */\n      swap1\n      pop\n        /* \"#utility.yul\":10314:10395   */\n      swap2\n      swap1\n      pop\n      jump\t// out\n        /* \"#utility.yul\":10401:10478   */\n    tag_331:\n      0x00\n        /* \"#utility.yul\":10467:10472   */\n      dup2\n        /* \"#utility.yul\":10456:10472   */\n      swap1\n      pop\n        /* \"#utility.yul\":10446:10478   */\n      swap2\n      swap1\n      pop\n      jump\t// out\n        /* \"#utility.yul\":10484:10570   */\n    tag_335:\n      0x00\n        /* \"#utility.yul\":10559:10563   */\n      0xff\n        /* \"#utility.yul\":10552:10557   */\n      dup3\n        /* \"#utility.yul\":10548:10564   */\n      and\n        /* \"#utility.yul\":10537:10564   */\n      swap1\n      pop\n        /* \"#utility.yul\":10527:10570   */\n      swap2\n      swap1\n      pop\n      jump\t// out\n        /* \"#utility.yul\":10576:10883   */\n    tag_304:\n        /* \"#utility.yul\":10644:10645   */\n      0x00\n        /* \"#utility.yul\":10654:10767   */\n    tag_375:\n        /* \"#utility.yul\":10668:10674   */\n      dup4\n        /* \"#utility.yul\":10665:10666   */\n      dup2\n        /* \"#utility.yul\":10662:10675   */\n      lt\n        /* \"#utility.yul\":10654:10767   */\n      iszero\n      tag_377\n      jumpi\n        /* \"#utility.yul\":10753:10754   */\n      dup1\n        /* \"#utility.yul\":10748:10751   */\n      dup3\n        /* \"#utility.yul\":10744:10755   */\n      add\n        /* \"#utility.yul\":10738:10756   */\n      mload\n        /* \"#utility.yul\":10734:10735   */\n      dup2\n        /* \"#utility.yul\":10729:10732   */\n      dup5\n        /* \"#utility.yul\":10725:10736   */\n      add\n        /* \"#utility.yul\":10718:10757   */\n      mstore\n        /* \"#utility.yul\":10690:10692   */\n      0x20\n        /* \"#utility.yul\":10687:10688   */\n      dup2\n        /* \"#utility.yul\":10683:10693   */\n      add\n        /* \"#utility.yul\":10678:10693   */\n      swap1\n      pop\n        /* \"#utility.yul\":10654:10767   */\n      jump(tag_375)\n    tag_377:\n        /* \"#utility.yul\":10785:10791   */\n      dup4\n        /* \"#utility.yul\":10782:10783   */\n      dup2\n        /* \"#utility.yul\":10779:10792   */\n      gt\n        /* \"#utility.yul\":10776:10778   */\n      iszero\n      tag_378\n      jumpi\n        /* \"#utility.yul\":10865:10866   */\n      0x00\n        /* \"#utility.yul\":10856:10862   */\n      dup5\n        /* \"#utility.yul\":10851:10854   */\n      dup5\n        /* \"#utility.yul\":10847:10863   */\n      add\n        /* \"#utility.yul\":10840:10867   */\n      mstore\n        /* \"#utility.yul\":10776:10778   */\n    tag_378:\n        /* \"#utility.yul\":10625:10883   */\n      pop\n      pop\n      pop\n      pop\n      jump\t// out\n        /* \"#utility.yul\":10889:11209   */\n    tag_167:\n      0x00\n        /* \"#utility.yul\":10970:10971   */\n      0x02\n        /* \"#utility.yul\":10964:10968   */\n      dup3\n        /* \"#utility.yul\":10960:10972   */\n      div\n        /* \"#utility.yul\":10950:10972   */\n      swap1\n      pop\n        /* \"#utility.yul\":11017:11018   */\n      0x01\n        /* \"#utility.yul\":11011:11015   */\n      dup3\n        /* \"#utility.yul\":11007:11019   */\n      and\n        /* \"#utility.yul\":11038:11056   */\n      dup1\n        /* \"#utility.yul\":11028:11030   */\n      tag_380\n      jumpi\n        /* \"#utility.yul\":11094:11098   */\n      0x7f\n        /* \"#utility.yul\":11086:11092   */\n      dup3\n        /* \"#utility.yul\":11082:11099   */\n      and\n        /* \"#utility.yul\":11072:11099   */\n      swap2\n      pop\n        /* \"#utility.yul\":11028:11030   */\n    tag_380:\n        /* \"#utility.yul\":11156:11158   */\n      0x20\n        /* \"#utility.yul\":11148:11154   */\n      dup3\n        /* \"#utility.yul\":11145:11159   */\n      lt\n        /* \"#utility.yul\":11125:11143   */\n      dup2\n        /* \"#utility.yul\":11122:11160   */\n      eq\n        /* \"#utility.yul\":11119:11121   */\n      iszero\n      tag_381\n      jumpi\n        /* \"#utility.yul\":11175:11193   */\n      tag_382\n      tag_383\n      jump\t// in\n    tag_382:\n        /* \"#utility.yul\":11119:11121   */\n    tag_381:\n        /* \"#utility.yul\":10940:11209   */\n      pop\n      swap2\n      swap1\n      pop\n      jump\t// out\n        /* \"#utility.yul\":11215:11395   */\n    tag_365:\n        /* \"#utility.yul\":11263:11340   */\n      0x4e487b7100000000000000000000000000000000000000000000000000000000\n        /* \"#utility.yul\":11260:11261   */\n      0x00\n        /* \"#utility.yul\":11253:11341   */\n      mstore\n        /* \"#utility.yul\":11360:11364   */\n      0x11\n        /* \"#utility.yul\":11357:11358   */\n      0x04\n        /* \"#utility.yul\":11350:11365   */\n      mstore\n        /* \"#utility.yul\":11384:11388   */\n      0x24\n        /* \"#utility.yul\":11381:11382   */\n      0x00\n        /* \"#utility.yul\":11374:11389   */\n      revert\n        /* \"#utility.yul\":11401:11581   */\n    tag_383:\n        /* \"#utility.yul\":11449:11526   */\n      0x4e487b7100000000000000000000000000000000000000000000000000000000\n        /* \"#utility.yul\":11446:11447   */\n      0x00\n        /* \"#utility.yul\":11439:11527   */\n      mstore\n        /* \"#utility.yul\":11546:11550   */\n      0x22\n        /* \"#utility.yul\":11543:11544   */\n      0x04\n        /* \"#utility.yul\":11536:11551   */\n      mstore\n        /* \"#utility.yul\":11570:11574   */\n      0x24\n        /* \"#utility.yul\":11567:11568   */\n      0x00\n        /* \"#utility.yul\":11560:11575   */\n      revert\n        /* \"#utility.yul\":11587:11689   */\n    tag_306:\n      0x00\n        /* \"#utility.yul\":11679:11681   */\n      0x1f\n        /* \"#utility.yul\":11675:11682   */\n      not\n        /* \"#utility.yul\":11670:11672   */\n      0x1f\n        /* \"#utility.yul\":11663:11668   */\n      dup4\n        /* \"#utility.yul\":11659:11673   */\n      add\n        /* \"#utility.yul\":11655:11683   */\n      and\n        /* \"#utility.yul\":11645:11683   */\n      swap1\n      pop\n        /* \"#utility.yul\":11635:11689   */\n      swap2\n      swap1\n      pop\n      jump\t// out\n        /* \"#utility.yul\":11695:11817   */\n    tag_269:\n        /* \"#utility.yul\":11768:11792   */\n      tag_388\n        /* \"#utility.yul\":11786:11791   */\n      dup2\n        /* \"#utility.yul\":11768:11792   */\n      tag_366\n      jump\t// in\n    tag_388:\n        /* \"#utility.yul\":11761:11766   */\n      dup2\n        /* \"#utility.yul\":11758:11793   */\n      eq\n        /* \"#utility.yul\":11748:11750   */\n      tag_389\n      jumpi\n        /* \"#utility.yul\":11807:11808   */\n      0x00\n        /* \"#utility.yul\":11804:11805   */\n      dup1\n        /* \"#utility.yul\":11797:11809   */\n      revert\n        /* \"#utility.yul\":11748:11750   */\n    tag_389:\n        /* \"#utility.yul\":11738:11817   */\n      pop\n      jump\t// out\n        /* \"#utility.yul\":11823:11945   */\n    tag_273:\n        /* \"#utility.yul\":11896:11920   */\n      tag_391\n        /* \"#utility.yul\":11914:11919   */\n      dup2\n        /* \"#utility.yul\":11896:11920   */\n      tag_331\n      jump\t// in\n    tag_391:\n        /* \"#utility.yul\":11889:11894   */\n      dup2\n        /* \"#utility.yul\":11886:11921   */\n      eq\n        /* \"#utility.yul\":11876:11878   */\n      tag_392\n      jumpi\n        /* \"#utility.yul\":11935:11936   */\n      0x00\n        /* \"#utility.yul\":11932:11933   */\n      dup1\n        /* \"#utility.yul\":11925:11937   */\n      revert\n        /* \"#utility.yul\":11876:11878   */\n    tag_392:\n        /* \"#utility.yul\":11866:11945   */\n      pop\n      jump\t// out\n\n    auxdata: 0xa2646970667358221220e6265da4802c7deae4866dd769dda069113d01fcddf4723c188995a640d56cac64736f6c63430008000033\n}\n",
				"bytecode": {
					"linkReferences": {},
					"object": "60806040523480156200001157600080fd5b5060405162001c6c38038062001c6c833981810160405281019062000037919062000385565b6040518060400160405280600b81526020017f4d79476f7620546f6b656e0000000000000000000000000000000000000000008152506040518060400160405280600381526020017f4d475400000000000000000000000000000000000000000000000000000000008152508160039080519060200190620000bb929190620002be565b508060049080519060200190620000d4929190620002be565b50505033600560006101000a81548173ffffffffffffffffffffffffffffffffffffffff021916908373ffffffffffffffffffffffffffffffffffffffff1602179055506200013f33670de0b6b3a764000083620001339190620004b1565b6200014660201b60201c565b50620005ca565b600073ffffffffffffffffffffffffffffffffffffffff168273ffffffffffffffffffffffffffffffffffffffff161415620001b9576040517f08c379a0000000000000000000000000000000000000000000000000000000008152600401620001b09062000404565b60405180910390fd5b620001cd60008383620002b460201b60201c565b8060026000828254620001e1919062000454565b92505081905550806000808473ffffffffffffffffffffffffffffffffffffffff1673ffffffffffffffffffffffffffffffffffffffff168152602001908152602001600020600082825401925050819055508173ffffffffffffffffffffffffffffffffffffffff16600073ffffffffffffffffffffffffffffffffffffffff167fddf252ad1be2c89b69c2b068fc378daa952ba7f163c4a11628f55a4df523b3ef8360405162000294919062000426565b60405180910390a3620002b060008383620002b960201b60201c565b5050565b505050565b505050565b828054620002cc906200051c565b90600052602060002090601f016020900481019282620002f057600085556200033c565b82601f106200030b57805160ff19168380011785556200033c565b828001600101855582156200033c579182015b828111156200033b5782518255916020019190600101906200031e565b5b5090506200034b91906200034f565b5090565b5b808211156200036a57600081600090555060010162000350565b5090565b6000815190506200037f81620005b0565b92915050565b6000602082840312156200039857600080fd5b6000620003a8848285016200036e565b91505092915050565b6000620003c0601f8362000443565b91507f45524332303a206d696e7420746f20746865207a65726f2061646472657373006000830152602082019050919050565b620003fe8162000512565b82525050565b600060208201905081810360008301526200041f81620003b1565b9050919050565b60006020820190506200043d6000830184620003f3565b92915050565b600082825260208201905092915050565b6000620004618262000512565b91506200046e8362000512565b9250827fffffffffffffffffffffffffffffffffffffffffffffffffffffffffffffffff03821115620004a657620004a562000552565b5b828201905092915050565b6000620004be8262000512565b9150620004cb8362000512565b9250817fffffffffffffffffffffffffffffffffffffffffffffffffffffffffffffffff048311821515161562000507576200050662000552565b5b828202905092915050565b6000819050919050565b600060028204905060018216806200053557607f821691505b602082108114156200054c576200054b62000581565b5b50919050565b7f4e487b7100000000000000000000000000000000000000000000000000000000600052601160045260246000fd5b7f4e487b7100000000000000000000000000000000000000000000000000000000600052602260045260246000fd5b620005bb8162000512565b8114620005c757600080fd5b50565b61169280620005da6000396000f3fe6080604052600436106101e35760003560e01c806370e1133c11610102578063a9059cbb11610095578063bf50556d11610064578063bf50556d146105a5578063dd62ed3e146105bc578063e00e03f9146105f9578063e6d6859514610610576101e3565b8063a9059cbb14610523578063af60d56014610560578063b28a7df014610577578063bafc462d1461058e576101e3565b80638fbe3750116100d15780638fbe37501461048d57806395d89b41146104a457806397cfe54b146104cf578063a457c2d7146104e6576101e3565b806370e1133c1461043e57806372a4e9ba14610455578063774f6fe71461046c578063863451dd14610483576101e3565b8063356552371161017a578063492ff0b711610149578063492ff0b7146103bc5780635d801b37146103d357806367c897fe146103ea57806370a0823114610401576101e3565b8063356552371461032857806336d8ef391461033f578063395093511461035657806339c94d2d14610393576101e3565b806318160ddd116101b657806318160ddd1461027e57806323b872dd146102a957806323fd498b146102e6578063313ce567146102fd576101e3565b8063033cb2d3146101e857806306fdde03146101ff578063095ea7b31461022a578063164dfd3b14610267575b600080fd5b3480156101f457600080fd5b506101fd610627565b005b34801561020b57600080fd5b50610214610629565b604051610221919061135b565b60405180910390f35b34801561023657600080fd5b50610251600480360381019061024c9190610fd1565b6106bb565b60405161025e9190611340565b60405180910390f35b34801561027357600080fd5b5061027c6106de565b005b34801561028a57600080fd5b506102936106e0565b6040516102a0919061145d565b60405180910390f35b3480156102b557600080fd5b506102d060048036038101906102cb9190610f82565b6106ea565b6040516102dd9190611340565b60405180910390f35b3480156102f257600080fd5b506102fb610719565b005b34801561030957600080fd5b5061031261071b565b60405161031f9190611478565b60405180910390f35b34801561033457600080fd5b5061033d610724565b005b34801561034b57600080fd5b50610354610726565b005b34801561036257600080fd5b5061037d60048036038101906103789190610fd1565b610728565b60405161038a9190611340565b60405180910390f35b34801561039f57600080fd5b506103ba60048036038101906103b5919061100d565b61075f565b005b3480156103c857600080fd5b506103d161078f565b005b3480156103df57600080fd5b506103e8610791565b005b3480156103f657600080fd5b506103ff610793565b005b34801561040d57600080fd5b5061042860048036038101906104239190610f1d565b610795565b604051610435919061145d565b60405180910390f35b34801561044a57600080fd5b506104536107dd565b005b34801561046157600080fd5b5061046a6107df565b005b34801561047857600080fd5b506104816107e1565b005b61048b6107e3565b005b34801561049957600080fd5b506104a261084f565b005b3480156104b057600080fd5b506104b9610851565b6040516104c6919061135b565b60405180910390f35b3480156104db57600080fd5b506104e46108e3565b005b3480156104f257600080fd5b5061050d60048036038101906105089190610fd1565b6108e5565b60405161051a9190611340565b60405180910390f35b34801561052f57600080fd5b5061054a60048036038101906105459190610fd1565b61095c565b6040516105579190611340565b60405180910390f35b34801561056c57600080fd5b5061057561097f565b005b34801561058357600080fd5b5061058c610981565b005b34801561059a57600080fd5b506105a3610983565b005b3480156105b157600080fd5b506105ba610985565b005b3480156105c857600080fd5b506105e360048036038101906105de9190610f46565b610987565b6040516105f0919061145d565b60405180910390f35b34801561060557600080fd5b5061060e610a0e565b005b34801561061c57600080fd5b50610625610a10565b005b565b6060600380546106389061158d565b80601f01602080910402602001604051908101604052809291908181526020018280546106649061158d565b80156106b15780601f10610686576101008083540402835291602001916106b1565b820191906000526020600020905b81548152906001019060200180831161069457829003601f168201915b5050505050905090565b6000806106c6610a12565b90506106d3818585610a1a565b600191505092915050565b565b6000600254905090565b6000806106f5610a12565b9050610702858285610be5565b61070d858585610c71565b60019150509392505050565b565b60006012905090565b565b565b600080610733610a12565b90506107548185856107458589610987565b61074f91906114af565b610a1a565b600191505092915050565b61078b600560009054906101000a900473ffffffffffffffffffffffffffffffffffffffff168261095c565b5050565b565b565b565b60008060008373ffffffffffffffffffffffffffffffffffffffff1673ffffffffffffffffffffffffffffffffffffffff168152602001908152602001600020549050919050565b565b565b565b600560009054906101000a900473ffffffffffffffffffffffffffffffffffffffff1673ffffffffffffffffffffffffffffffffffffffff166108fc607b9081150290604051600060405180830381858888f1935050505015801561084c573d6000803e3d6000fd5b50565b565b6060600480546108609061158d565b80601f016020809104026020016040519081016040528092919081815260200182805461088c9061158d565b80156108d95780601f106108ae576101008083540402835291602001916108d9565b820191906000526020600020905b8154815290600101906020018083116108bc57829003601f168201915b5050505050905090565b565b6000806108f0610a12565b905060006108fe8286610987565b905083811015610943576040517f08c379a000000000000000000000000000000000000000000000000000000000815260040161093a9061143d565b60405180910390fd5b6109508286868403610a1a565b60019250505092915050565b600080610967610a12565b9050610974818585610c71565b600191505092915050565b565b565b565b565b6000600160008473ffffffffffffffffffffffffffffffffffffffff1673ffffffffffffffffffffffffffffffffffffffff16815260200190815260200160002060008373ffffffffffffffffffffffffffffffffffffffff1673ffffffffffffffffffffffffffffffffffffffff16815260200190815260200160002054905092915050565b565b565b600033905090565b600073ffffffffffffffffffffffffffffffffffffffff168373ffffffffffffffffffffffffffffffffffffffff161415610a8a576040517f08c379a0000000000000000000000000000000000000000000000000000000008152600401610a819061141d565b60405180910390fd5b600073ffffffffffffffffffffffffffffffffffffffff168273ffffffffffffffffffffffffffffffffffffffff161415610afa576040517f08c379a0000000000000000000000000000000000000000000000000000000008152600401610af19061139d565b60405180910390fd5b80600160008573ffffffffffffffffffffffffffffffffffffffff1673ffffffffffffffffffffffffffffffffffffffff16815260200190815260200160002060008473ffffffffffffffffffffffffffffffffffffffff1673ffffffffffffffffffffffffffffffffffffffff168152602001908152602001600020819055508173ffffffffffffffffffffffffffffffffffffffff168373ffffffffffffffffffffffffffffffffffffffff167f8c5be1e5ebec7d5bd14f71427d1e84f3dd0314c0f7b2291e5b200ac8c7c3b92583604051610bd8919061145d565b60405180910390a3505050565b6000610bf18484610987565b90507fffffffffffffffffffffffffffffffffffffffffffffffffffffffffffffffff8114610c6b5781811015610c5d576040517f08c379a0000000000000000000000000000000000000000000000000000000008152600401610c54906113bd565b60405180910390fd5b610c6a8484848403610a1a565b5b50505050565b600073ffffffffffffffffffffffffffffffffffffffff168373ffffffffffffffffffffffffffffffffffffffff161415610ce1576040517f08c379a0000000000000000000000000000000000000000000000000000000008152600401610cd8906113fd565b60405180910390fd5b600073ffffffffffffffffffffffffffffffffffffffff168273ffffffffffffffffffffffffffffffffffffffff161415610d51576040517f08c379a0000000000000000000000000000000000000000000000000000000008152600401610d489061137d565b60405180910390fd5b610d5c838383610ee9565b60008060008573ffffffffffffffffffffffffffffffffffffffff1673ffffffffffffffffffffffffffffffffffffffff16815260200190815260200160002054905081811015610de2576040517f08c379a0000000000000000000000000000000000000000000000000000000008152600401610dd9906113dd565b60405180910390fd5b8181036000808673ffffffffffffffffffffffffffffffffffffffff1673ffffffffffffffffffffffffffffffffffffffff16815260200190815260200160002081905550816000808573ffffffffffffffffffffffffffffffffffffffff1673ffffffffffffffffffffffffffffffffffffffff168152602001908152602001600020600082825401925050819055508273ffffffffffffffffffffffffffffffffffffffff168473ffffffffffffffffffffffffffffffffffffffff167fddf252ad1be2c89b69c2b068fc378daa952ba7f163c4a11628f55a4df523b3ef84604051610ed0919061145d565b60405180910390a3610ee3848484610eee565b50505050565b505050565b505050565b600081359050610f028161162e565b92915050565b600081359050610f1781611645565b92915050565b600060208284031215610f2f57600080fd5b6000610f3d84828501610ef3565b91505092915050565b60008060408385031215610f5957600080fd5b6000610f6785828601610ef3565b9250506020610f7885828601610ef3565b9150509250929050565b600080600060608486031215610f9757600080fd5b6000610fa586828701610ef3565b9350506020610fb686828701610ef3565b9250506040610fc786828701610f08565b9150509250925092565b60008060408385031215610fe457600080fd5b6000610ff285828601610ef3565b925050602061100385828601610f08565b9150509250929050565b60006020828403121561101f57600080fd5b600061102d84828501610f08565b91505092915050565b61103f81611517565b82525050565b600061105082611493565b61105a818561149e565b935061106a81856020860161155a565b6110738161161d565b840191505092915050565b600061108b60238361149e565b91507f45524332303a207472616e7366657220746f20746865207a65726f206164647260008301527f65737300000000000000000000000000000000000000000000000000000000006020830152604082019050919050565b60006110f160228361149e565b91507f45524332303a20617070726f766520746f20746865207a65726f20616464726560008301527f73730000000000000000000000000000000000000000000000000000000000006020830152604082019050919050565b6000611157601d8361149e565b91507f45524332303a20696e73756666696369656e7420616c6c6f77616e63650000006000830152602082019050919050565b600061119760268361149e565b91507f45524332303a207472616e7366657220616d6f756e742065786365656473206260008301527f616c616e636500000000000000000000000000000000000000000000000000006020830152604082019050919050565b60006111fd60258361149e565b91507f45524332303a207472616e736665722066726f6d20746865207a65726f20616460008301527f64726573730000000000000000000000000000000000000000000000000000006020830152604082019050919050565b600061126360248361149e565b91507f45524332303a20617070726f76652066726f6d20746865207a65726f2061646460008301527f72657373000000000000000000000000000000000000000000000000000000006020830152604082019050919050565b60006112c960258361149e565b91507f45524332303a2064656372656173656420616c6c6f77616e63652062656c6f7760008301527f207a65726f0000000000000000000000000000000000000000000000000000006020830152604082019050919050565b61132b81611543565b82525050565b61133a8161154d565b82525050565b60006020820190506113556000830184611036565b92915050565b600060208201905081810360008301526113758184611045565b905092915050565b600060208201905081810360008301526113968161107e565b9050919050565b600060208201905081810360008301526113b6816110e4565b9050919050565b600060208201905081810360008301526113d68161114a565b9050919050565b600060208201905081810360008301526113f68161118a565b9050919050565b60006020820190508181036000830152611416816111f0565b9050919050565b6000602082019050818103600083015261143681611256565b9050919050565b60006020820190508181036000830152611456816112bc565b9050919050565b60006020820190506114726000830184611322565b92915050565b600060208201905061148d6000830184611331565b92915050565b600081519050919050565b600082825260208201905092915050565b60006114ba82611543565b91506114c583611543565b9250827fffffffffffffffffffffffffffffffffffffffffffffffffffffffffffffffff038211156114fa576114f96115bf565b5b828201905092915050565b600061151082611523565b9050919050565b60008115159050919050565b600073ffffffffffffffffffffffffffffffffffffffff82169050919050565b6000819050919050565b600060ff82169050919050565b60005b8381101561157857808201518184015260208101905061155d565b83811115611587576000848401525b50505050565b600060028204905060018216806115a557607f821691505b602082108114156115b9576115b86115ee565b5b50919050565b7f4e487b7100000000000000000000000000000000000000000000000000000000600052601160045260246000fd5b7f4e487b7100000000000000000000000000000000000000000000000000000000600052602260045260246000fd5b6000601f19601f8301169050919050565b61163781611505565b811461164257600080fd5b50565b61164e81611543565b811461165957600080fd5b5056fea2646970667358221220e6265da4802c7deae4866dd769dda069113d01fcddf4723c188995a640d56cac64736f6c63430008000033",
					"opcodes": "PUSH1 0x80 PUSH1 0x40 MSTORE CALLVALUE DUP1 ISZERO PUSH3 0x11 JUMPI PUSH1 0x0 DUP1 REVERT JUMPDEST POP PUSH1 0x40 MLOAD PUSH3 0x1C6C CODESIZE SUB DUP1 PUSH3 0x1C6C DUP4 CODECOPY DUP2 DUP2 ADD PUSH1 0x40 MSTORE DUP2 ADD SWAP1 PUSH3 0x37 SWAP2 SWAP1 PUSH3 0x385 JUMP JUMPDEST PUSH1 0x40 MLOAD DUP1 PUSH1 0x40 ADD PUSH1 0x40 MSTORE DUP1 PUSH1 0xB DUP2 MSTORE PUSH1 0x20 ADD PUSH32 0x4D79476F7620546F6B656E000000000000000000000000000000000000000000 DUP2 MSTORE POP PUSH1 0x40 MLOAD DUP1 PUSH1 0x40 ADD PUSH1 0x40 MSTORE DUP1 PUSH1 0x3 DUP2 MSTORE PUSH1 0x20 ADD PUSH32 0x4D47540000000000000000000000000000000000000000000000000000000000 DUP2 MSTORE POP DUP2 PUSH1 0x3 SWAP1 DUP1 MLOAD SWAP1 PUSH1 0x20 ADD SWAP1 PUSH3 0xBB SWAP3 SWAP2 SWAP1 PUSH3 0x2BE JUMP JUMPDEST POP DUP1 PUSH1 0x4 SWAP1 DUP1 MLOAD SWAP1 PUSH1 0x20 ADD SWAP1 PUSH3 0xD4 SWAP3 SWAP2 SWAP1 PUSH3 0x2BE JUMP JUMPDEST POP POP POP CALLER PUSH1 0x5 PUSH1 0x0 PUSH2 0x100 EXP DUP2 SLOAD DUP2 PUSH20 0xFFFFFFFFFFFFFFFFFFFFFFFFFFFFFFFFFFFFFFFF MUL NOT AND SWAP1 DUP4 PUSH20 0xFFFFFFFFFFFFFFFFFFFFFFFFFFFFFFFFFFFFFFFF AND MUL OR SWAP1 SSTORE POP PUSH3 0x13F CALLER PUSH8 0xDE0B6B3A7640000 DUP4 PUSH3 0x133 SWAP2 SWAP1 PUSH3 0x4B1 JUMP JUMPDEST PUSH3 0x146 PUSH1 0x20 SHL PUSH1 0x20 SHR JUMP JUMPDEST POP PUSH3 0x5CA JUMP JUMPDEST PUSH1 0x0 PUSH20 0xFFFFFFFFFFFFFFFFFFFFFFFFFFFFFFFFFFFFFFFF AND DUP3 PUSH20 0xFFFFFFFFFFFFFFFFFFFFFFFFFFFFFFFFFFFFFFFF AND EQ ISZERO PUSH3 0x1B9 JUMPI PUSH1 0x40 MLOAD PUSH32 0x8C379A000000000000000000000000000000000000000000000000000000000 DUP2 MSTORE PUSH1 0x4 ADD PUSH3 0x1B0 SWAP1 PUSH3 0x404 JUMP JUMPDEST PUSH1 0x40 MLOAD DUP1 SWAP2 SUB SWAP1 REVERT JUMPDEST PUSH3 0x1CD PUSH1 0x0 DUP4 DUP4 PUSH3 0x2B4 PUSH1 0x20 SHL PUSH1 0x20 SHR JUMP JUMPDEST DUP1 PUSH1 0x2 PUSH1 0x0 DUP3 DUP3 SLOAD PUSH3 0x1E1 SWAP2 SWAP1 PUSH3 0x454 JUMP JUMPDEST SWAP3 POP POP DUP2 SWAP1 SSTORE POP DUP1 PUSH1 0x0 DUP1 DUP5 PUSH20 0xFFFFFFFFFFFFFFFFFFFFFFFFFFFFFFFFFFFFFFFF AND PUSH20 0xFFFFFFFFFFFFFFFFFFFFFFFFFFFFFFFFFFFFFFFF AND DUP2 MSTORE PUSH1 0x20 ADD SWAP1 DUP2 MSTORE PUSH1 0x20 ADD PUSH1 0x0 KECCAK256 PUSH1 0x0 DUP3 DUP3 SLOAD ADD SWAP3 POP POP DUP2 SWAP1 SSTORE POP DUP2 PUSH20 0xFFFFFFFFFFFFFFFFFFFFFFFFFFFFFFFFFFFFFFFF AND PUSH1 0x0 PUSH20 0xFFFFFFFFFFFFFFFFFFFFFFFFFFFFFFFFFFFFFFFF AND PUSH32 0xDDF252AD1BE2C89B69C2B068FC378DAA952BA7F163C4A11628F55A4DF523B3EF DUP4 PUSH1 0x40 MLOAD PUSH3 0x294 SWAP2 SWAP1 PUSH3 0x426 JUMP JUMPDEST PUSH1 0x40 MLOAD DUP1 SWAP2 SUB SWAP1 LOG3 PUSH3 0x2B0 PUSH1 0x0 DUP4 DUP4 PUSH3 0x2B9 PUSH1 0x20 SHL PUSH1 0x20 SHR JUMP JUMPDEST POP POP JUMP JUMPDEST POP POP POP JUMP JUMPDEST POP POP POP JUMP JUMPDEST DUP3 DUP1 SLOAD PUSH3 0x2CC SWAP1 PUSH3 0x51C JUMP JUMPDEST SWAP1 PUSH1 0x0 MSTORE PUSH1 0x20 PUSH1 0x0 KECCAK256 SWAP1 PUSH1 0x1F ADD PUSH1 0x20 SWAP1 DIV DUP2 ADD SWAP3 DUP3 PUSH3 0x2F0 JUMPI PUSH1 0x0 DUP6 SSTORE PUSH3 0x33C JUMP JUMPDEST DUP3 PUSH1 0x1F LT PUSH3 0x30B JUMPI DUP1 MLOAD PUSH1 0xFF NOT AND DUP4 DUP1 ADD OR DUP6 SSTORE PUSH3 0x33C JUMP JUMPDEST DUP3 DUP1 ADD PUSH1 0x1 ADD DUP6 SSTORE DUP3 ISZERO PUSH3 0x33C JUMPI SWAP2 DUP3 ADD JUMPDEST DUP3 DUP2 GT ISZERO PUSH3 0x33B JUMPI DUP3 MLOAD DUP3 SSTORE SWAP2 PUSH1 0x20 ADD SWAP2 SWAP1 PUSH1 0x1 ADD SWAP1 PUSH3 0x31E JUMP JUMPDEST JUMPDEST POP SWAP1 POP PUSH3 0x34B SWAP2 SWAP1 PUSH3 0x34F JUMP JUMPDEST POP SWAP1 JUMP JUMPDEST JUMPDEST DUP1 DUP3 GT ISZERO PUSH3 0x36A JUMPI PUSH1 0x0 DUP2 PUSH1 0x0 SWAP1 SSTORE POP PUSH1 0x1 ADD PUSH3 0x350 JUMP JUMPDEST POP SWAP1 JUMP JUMPDEST PUSH1 0x0 DUP2 MLOAD SWAP1 POP PUSH3 0x37F DUP2 PUSH3 0x5B0 JUMP JUMPDEST SWAP3 SWAP2 POP POP JUMP JUMPDEST PUSH1 0x0 PUSH1 0x20 DUP3 DUP5 SUB SLT ISZERO PUSH3 0x398 JUMPI PUSH1 0x0 DUP1 REVERT JUMPDEST PUSH1 0x0 PUSH3 0x3A8 DUP5 DUP3 DUP6 ADD PUSH3 0x36E JUMP JUMPDEST SWAP2 POP POP SWAP3 SWAP2 POP POP JUMP JUMPDEST PUSH1 0x0 PUSH3 0x3C0 PUSH1 0x1F DUP4 PUSH3 0x443 JUMP JUMPDEST SWAP2 POP PUSH32 0x45524332303A206D696E7420746F20746865207A65726F206164647265737300 PUSH1 0x0 DUP4 ADD MSTORE PUSH1 0x20 DUP3 ADD SWAP1 POP SWAP2 SWAP1 POP JUMP JUMPDEST PUSH3 0x3FE DUP2 PUSH3 0x512 JUMP JUMPDEST DUP3 MSTORE POP POP JUMP JUMPDEST PUSH1 0x0 PUSH1 0x20 DUP3 ADD SWAP1 POP DUP2 DUP2 SUB PUSH1 0x0 DUP4 ADD MSTORE PUSH3 0x41F DUP2 PUSH3 0x3B1 JUMP JUMPDEST SWAP1 POP SWAP2 SWAP1 POP JUMP JUMPDEST PUSH1 0x0 PUSH1 0x20 DUP3 ADD SWAP1 POP PUSH3 0x43D PUSH1 0x0 DUP4 ADD DUP5 PUSH3 0x3F3 JUMP JUMPDEST SWAP3 SWAP2 POP POP JUMP JUMPDEST PUSH1 0x0 DUP3 DUP3 MSTORE PUSH1 0x20 DUP3 ADD SWAP1 POP SWAP3 SWAP2 POP POP JUMP JUMPDEST PUSH1 0x0 PUSH3 0x461 DUP3 PUSH3 0x512 JUMP JUMPDEST SWAP2 POP PUSH3 0x46E DUP4 PUSH3 0x512 JUMP JUMPDEST SWAP3 POP DUP3 PUSH32 0xFFFFFFFFFFFFFFFFFFFFFFFFFFFFFFFFFFFFFFFFFFFFFFFFFFFFFFFFFFFFFFFF SUB DUP3 GT ISZERO PUSH3 0x4A6 JUMPI PUSH3 0x4A5 PUSH3 0x552 JUMP JUMPDEST JUMPDEST DUP3 DUP3 ADD SWAP1 POP SWAP3 SWAP2 POP POP JUMP JUMPDEST PUSH1 0x0 PUSH3 0x4BE DUP3 PUSH3 0x512 JUMP JUMPDEST SWAP2 POP PUSH3 0x4CB DUP4 PUSH3 0x512 JUMP JUMPDEST SWAP3 POP DUP2 PUSH32 0xFFFFFFFFFFFFFFFFFFFFFFFFFFFFFFFFFFFFFFFFFFFFFFFFFFFFFFFFFFFFFFFF DIV DUP4 GT DUP3 ISZERO ISZERO AND ISZERO PUSH3 0x507 JUMPI PUSH3 0x506 PUSH3 0x552 JUMP JUMPDEST JUMPDEST DUP3 DUP3 MUL SWAP1 POP SWAP3 SWAP2 POP POP JUMP JUMPDEST PUSH1 0x0 DUP2 SWAP1 POP SWAP2 SWAP1 POP JUMP JUMPDEST PUSH1 0x0 PUSH1 0x2 DUP3 DIV SWAP1 POP PUSH1 0x1 DUP3 AND DUP1 PUSH3 0x535 JUMPI PUSH1 0x7F DUP3 AND SWAP2 POP JUMPDEST PUSH1 0x20 DUP3 LT DUP2 EQ ISZERO PUSH3 0x54C JUMPI PUSH3 0x54B PUSH3 0x581 JUMP JUMPDEST JUMPDEST POP SWAP2 SWAP1 POP JUMP JUMPDEST PUSH32 0x4E487B7100000000000000000000000000000000000000000000000000000000 PUSH1 0x0 MSTORE PUSH1 0x11 PUSH1 0x4 MSTORE PUSH1 0x24 PUSH1 0x0 REVERT JUMPDEST PUSH32 0x4E487B7100000000000000000000000000000000000000000000000000000000 PUSH1 0x0 MSTORE PUSH1 0x22 PUSH1 0x4 MSTORE PUSH1 0x24 PUSH1 0x0 REVERT JUMPDEST PUSH3 0x5BB DUP2 PUSH3 0x512 JUMP JUMPDEST DUP2 EQ PUSH3 0x5C7 JUMPI PUSH1 0x0 DUP1 REVERT JUMPDEST POP JUMP JUMPDEST PUSH2 0x1692 DUP1 PUSH3 0x5DA PUSH1 0x0 CODECOPY PUSH1 0x0 RETURN INVALID PUSH1 0x80 PUSH1 0x40 MSTORE PUSH1 0x4 CALLDATASIZE LT PUSH2 0x1E3 JUMPI PUSH1 0x0 CALLDATALOAD PUSH1 0xE0 SHR DUP1 PUSH4 0x70E1133C GT PUSH2 0x102 JUMPI DUP1 PUSH4 0xA9059CBB GT PUSH2 0x95 JUMPI DUP1 PUSH4 0xBF50556D GT PUSH2 0x64 JUMPI DUP1 PUSH4 0xBF50556D EQ PUSH2 0x5A5 JUMPI DUP1 PUSH4 0xDD62ED3E EQ PUSH2 0x5BC JUMPI DUP1 PUSH4 0xE00E03F9 EQ PUSH2 0x5F9 JUMPI DUP1 PUSH4 0xE6D68595 EQ PUSH2 0x610 JUMPI PUSH2 0x1E3 JUMP JUMPDEST DUP1 PUSH4 0xA9059CBB EQ PUSH2 0x523 JUMPI DUP1 PUSH4 0xAF60D560 EQ PUSH2 0x560 JUMPI DUP1 PUSH4 0xB28A7DF0 EQ PUSH2 0x577 JUMPI DUP1 PUSH4 0xBAFC462D EQ PUSH2 0x58E JUMPI PUSH2 0x1E3 JUMP JUMPDEST DUP1 PUSH4 0x8FBE3750 GT PUSH2 0xD1 JUMPI DUP1 PUSH4 0x8FBE3750 EQ PUSH2 0x48D JUMPI DUP1 PUSH4 0x95D89B41 EQ PUSH2 0x4A4 JUMPI DUP1 PUSH4 0x97CFE54B EQ PUSH2 0x4CF JUMPI DUP1 PUSH4 0xA457C2D7 EQ PUSH2 0x4E6 JUMPI PUSH2 0x1E3 JUMP JUMPDEST DUP1 PUSH4 0x70E1133C EQ PUSH2 0x43E JUMPI DUP1 PUSH4 0x72A4E9BA EQ PUSH2 0x455 JUMPI DUP1 PUSH4 0x774F6FE7 EQ PUSH2 0x46C JUMPI DUP1 PUSH4 0x863451DD EQ PUSH2 0x483 JUMPI PUSH2 0x1E3 JUMP JUMPDEST DUP1 PUSH4 0x35655237 GT PUSH2 0x17A JUMPI DUP1 PUSH4 0x492FF0B7 GT PUSH2 0x149 JUMPI DUP1 PUSH4 0x492FF0B7 EQ PUSH2 0x3BC JUMPI DUP1 PUSH4 0x5D801B37 EQ PUSH2 0x3D3 JUMPI DUP1 PUSH4 0x67C897FE EQ PUSH2 0x3EA JUMPI DUP1 PUSH4 0x70A08231 EQ PUSH2 0x401 JUMPI PUSH2 0x1E3 JUMP JUMPDEST DUP1 PUSH4 0x35655237 EQ PUSH2 0x328 JUMPI DUP1 PUSH4 0x36D8EF39 EQ PUSH2 0x33F JUMPI DUP1 PUSH4 0x39509351 EQ PUSH2 0x356 JUMPI DUP1 PUSH4 0x39C94D2D EQ PUSH2 0x393 JUMPI PUSH2 0x1E3 JUMP JUMPDEST DUP1 PUSH4 0x18160DDD GT PUSH2 0x1B6 JUMPI DUP1 PUSH4 0x18160DDD EQ PUSH2 0x27E JUMPI DUP1 PUSH4 0x23B872DD EQ PUSH2 0x2A9 JUMPI DUP1 PUSH4 0x23FD498B EQ PUSH2 0x2E6 JUMPI DUP1 PUSH4 0x313CE567 EQ PUSH2 0x2FD JUMPI PUSH2 0x1E3 JUMP JUMPDEST DUP1 PUSH4 0x33CB2D3 EQ PUSH2 0x1E8 JUMPI DUP1 PUSH4 0x6FDDE03 EQ PUSH2 0x1FF JUMPI DUP1 PUSH4 0x95EA7B3 EQ PUSH2 0x22A JUMPI DUP1 PUSH4 0x164DFD3B EQ PUSH2 0x267 JUMPI JUMPDEST PUSH1 0x0 DUP1 REVERT JUMPDEST CALLVALUE DUP1 ISZERO PUSH2 0x1F4 JUMPI PUSH1 0x0 DUP1 REVERT JUMPDEST POP PUSH2 0x1FD PUSH2 0x627 JUMP JUMPDEST STOP JUMPDEST CALLVALUE DUP1 ISZERO PUSH2 0x20B JUMPI PUSH1 0x0 DUP1 REVERT JUMPDEST POP PUSH2 0x214 PUSH2 0x629 JUMP JUMPDEST PUSH1 0x40 MLOAD PUSH2 0x221 SWAP2 SWAP1 PUSH2 0x135B JUMP JUMPDEST PUSH1 0x40 MLOAD DUP1 SWAP2 SUB SWAP1 RETURN JUMPDEST CALLVALUE DUP1 ISZERO PUSH2 0x236 JUMPI PUSH1 0x0 DUP1 REVERT JUMPDEST POP PUSH2 0x251 PUSH1 0x4 DUP1 CALLDATASIZE SUB DUP2 ADD SWAP1 PUSH2 0x24C SWAP2 SWAP1 PUSH2 0xFD1 JUMP JUMPDEST PUSH2 0x6BB JUMP JUMPDEST PUSH1 0x40 MLOAD PUSH2 0x25E SWAP2 SWAP1 PUSH2 0x1340 JUMP JUMPDEST PUSH1 0x40 MLOAD DUP1 SWAP2 SUB SWAP1 RETURN JUMPDEST CALLVALUE DUP1 ISZERO PUSH2 0x273 JUMPI PUSH1 0x0 DUP1 REVERT JUMPDEST POP PUSH2 0x27C PUSH2 0x6DE JUMP JUMPDEST STOP JUMPDEST CALLVALUE DUP1 ISZERO PUSH2 0x28A JUMPI PUSH1 0x0 DUP1 REVERT JUMPDEST POP PUSH2 0x293 PUSH2 0x6E0 JUMP JUMPDEST PUSH1 0x40 MLOAD PUSH2 0x2A0 SWAP2 SWAP1 PUSH2 0x145D JUMP JUMPDEST PUSH1 0x40 MLOAD DUP1 SWAP2 SUB SWAP1 RETURN JUMPDEST CALLVALUE DUP1 ISZERO PUSH2 0x2B5 JUMPI PUSH1 0x0 DUP1 REVERT JUMPDEST POP PUSH2 0x2D0 PUSH1 0x4 DUP1 CALLDATASIZE SUB DUP2 ADD SWAP1 PUSH2 0x2CB SWAP2 SWAP1 PUSH2 0xF82 JUMP JUMPDEST PUSH2 0x6EA JUMP JUMPDEST PUSH1 0x40 MLOAD PUSH2 0x2DD SWAP2 SWAP1 PUSH2 0x1340 JUMP JUMPDEST PUSH1 0x40 MLOAD DUP1 SWAP2 SUB SWAP1 RETURN JUMPDEST CALLVALUE DUP1 ISZERO PUSH2 0x2F2 JUMPI PUSH1 0x0 DUP1 REVERT JUMPDEST POP PUSH2 0x2FB PUSH2 0x719 JUMP JUMPDEST STOP JUMPDEST CALLVALUE DUP1 ISZERO PUSH2 0x309 JUMPI PUSH1 0x0 DUP1 REVERT JUMPDEST POP PUSH2 0x312 PUSH2 0x71B JUMP JUMPDEST PUSH1 0x40 MLOAD PUSH2 0x31F SWAP2 SWAP1 PUSH2 0x1478 JUMP JUMPDEST PUSH1 0x40 MLOAD DUP1 SWAP2 SUB SWAP1 RETURN JUMPDEST CALLVALUE DUP1 ISZERO PUSH2 0x334 JUMPI PUSH1 0x0 DUP1 REVERT JUMPDEST POP PUSH2 0x33D PUSH2 0x724 JUMP JUMPDEST STOP JUMPDEST CALLVALUE DUP1 ISZERO PUSH2 0x34B JUMPI PUSH1 0x0 DUP1 REVERT JUMPDEST POP PUSH2 0x354 PUSH2 0x726 JUMP JUMPDEST STOP JUMPDEST CALLVALUE DUP1 ISZERO PUSH2 0x362 JUMPI PUSH1 0x0 DUP1 REVERT JUMPDEST POP PUSH2 0x37D PUSH1 0x4 DUP1 CALLDATASIZE SUB DUP2 ADD SWAP1 PUSH2 0x378 SWAP2 SWAP1 PUSH2 0xFD1 JUMP JUMPDEST PUSH2 0x728 JUMP JUMPDEST PUSH1 0x40 MLOAD PUSH2 0x38A SWAP2 SWAP1 PUSH2 0x1340 JUMP JUMPDEST PUSH1 0x40 MLOAD DUP1 SWAP2 SUB SWAP1 RETURN JUMPDEST CALLVALUE DUP1 ISZERO PUSH2 0x39F JUMPI PUSH1 0x0 DUP1 REVERT JUMPDEST POP PUSH2 0x3BA PUSH1 0x4 DUP1 CALLDATASIZE SUB DUP2 ADD SWAP1 PUSH2 0x3B5 SWAP2 SWAP1 PUSH2 0x100D JUMP JUMPDEST PUSH2 0x75F JUMP JUMPDEST STOP JUMPDEST CALLVALUE DUP1 ISZERO PUSH2 0x3C8 JUMPI PUSH1 0x0 DUP1 REVERT JUMPDEST POP PUSH2 0x3D1 PUSH2 0x78F JUMP JUMPDEST STOP JUMPDEST CALLVALUE DUP1 ISZERO PUSH2 0x3DF JUMPI PUSH1 0x0 DUP1 REVERT JUMPDEST POP PUSH2 0x3E8 PUSH2 0x791 JUMP JUMPDEST STOP JUMPDEST CALLVALUE DUP1 ISZERO PUSH2 0x3F6 JUMPI PUSH1 0x0 DUP1 REVERT JUMPDEST POP PUSH2 0x3FF PUSH2 0x793 JUMP JUMPDEST STOP JUMPDEST CALLVALUE DUP1 ISZERO PUSH2 0x40D JUMPI PUSH1 0x0 DUP1 REVERT JUMPDEST POP PUSH2 0x428 PUSH1 0x4 DUP1 CALLDATASIZE SUB DUP2 ADD SWAP1 PUSH2 0x423 SWAP2 SWAP1 PUSH2 0xF1D JUMP JUMPDEST PUSH2 0x795 JUMP JUMPDEST PUSH1 0x40 MLOAD PUSH2 0x435 SWAP2 SWAP1 PUSH2 0x145D JUMP JUMPDEST PUSH1 0x40 MLOAD DUP1 SWAP2 SUB SWAP1 RETURN JUMPDEST CALLVALUE DUP1 ISZERO PUSH2 0x44A JUMPI PUSH1 0x0 DUP1 REVERT JUMPDEST POP PUSH2 0x453 PUSH2 0x7DD JUMP JUMPDEST STOP JUMPDEST CALLVALUE DUP1 ISZERO PUSH2 0x461 JUMPI PUSH1 0x0 DUP1 REVERT JUMPDEST POP PUSH2 0x46A PUSH2 0x7DF JUMP JUMPDEST STOP JUMPDEST CALLVALUE DUP1 ISZERO PUSH2 0x478 JUMPI PUSH1 0x0 DUP1 REVERT JUMPDEST POP PUSH2 0x481 PUSH2 0x7E1 JUMP JUMPDEST STOP JUMPDEST PUSH2 0x48B PUSH2 0x7E3 JUMP JUMPDEST STOP JUMPDEST CALLVALUE DUP1 ISZERO PUSH2 0x499 JUMPI PUSH1 0x0 DUP1 REVERT JUMPDEST POP PUSH2 0x4A2 PUSH2 0x84F JUMP JUMPDEST STOP JUMPDEST CALLVALUE DUP1 ISZERO PUSH2 0x4B0 JUMPI PUSH1 0x0 DUP1 REVERT JUMPDEST POP PUSH2 0x4B9 PUSH2 0x851 JUMP JUMPDEST PUSH1 0x40 MLOAD PUSH2 0x4C6 SWAP2 SWAP1 PUSH2 0x135B JUMP JUMPDEST PUSH1 0x40 MLOAD DUP1 SWAP2 SUB SWAP1 RETURN JUMPDEST CALLVALUE DUP1 ISZERO PUSH2 0x4DB JUMPI PUSH1 0x0 DUP1 REVERT JUMPDEST POP PUSH2 0x4E4 PUSH2 0x8E3 JUMP JUMPDEST STOP JUMPDEST CALLVALUE DUP1 ISZERO PUSH2 0x4F2 JUMPI PUSH1 0x0 DUP1 REVERT JUMPDEST POP PUSH2 0x50D PUSH1 0x4 DUP1 CALLDATASIZE SUB DUP2 ADD SWAP1 PUSH2 0x508 SWAP2 SWAP1 PUSH2 0xFD1 JUMP JUMPDEST PUSH2 0x8E5 JUMP JUMPDEST PUSH1 0x40 MLOAD PUSH2 0x51A SWAP2 SWAP1 PUSH2 0x1340 JUMP JUMPDEST PUSH1 0x40 MLOAD DUP1 SWAP2 SUB SWAP1 RETURN JUMPDEST CALLVALUE DUP1 ISZERO PUSH2 0x52F JUMPI PUSH1 0x0 DUP1 REVERT JUMPDEST POP PUSH2 0x54A PUSH1 0x4 DUP1 CALLDATASIZE SUB DUP2 ADD SWAP1 PUSH2 0x545 SWAP2 SWAP1 PUSH2 0xFD1 JUMP JUMPDEST PUSH2 0x95C JUMP JUMPDEST PUSH1 0x40 MLOAD PUSH2 0x557 SWAP2 SWAP1 PUSH2 0x1340 JUMP JUMPDEST PUSH1 0x40 MLOAD DUP1 SWAP2 SUB SWAP1 RETURN JUMPDEST CALLVALUE DUP1 ISZERO PUSH2 0x56C JUMPI PUSH1 0x0 DUP1 REVERT JUMPDEST POP PUSH2 0x575 PUSH2 0x97F JUMP JUMPDEST STOP JUMPDEST CALLVALUE DUP1 ISZERO PUSH2 0x583 JUMPI PUSH1 0x0 DUP1 REVERT JUMPDEST POP PUSH2 0x58C PUSH2 0x981 JUMP JUMPDEST STOP JUMPDEST CALLVALUE DUP1 ISZERO PUSH2 0x59A JUMPI PUSH1 0x0 DUP1 REVERT JUMPDEST POP PUSH2 0x5A3 PUSH2 0x983 JUMP JUMPDEST STOP JUMPDEST CALLVALUE DUP1 ISZERO PUSH2 0x5B1 JUMPI PUSH1 0x0 DUP1 REVERT JUMPDEST POP PUSH2 0x5BA PUSH2 0x985 JUMP JUMPDEST STOP JUMPDEST CALLVALUE DUP1 ISZERO PUSH2 0x5C8 JUMPI PUSH1 0x0 DUP1 REVERT JUMPDEST POP PUSH2 0x5E3 PUSH1 0x4 DUP1 CALLDATASIZE SUB DUP2 ADD SWAP1 PUSH2 0x5DE SWAP2 SWAP1 PUSH2 0xF46 JUMP JUMPDEST PUSH2 0x987 JUMP JUMPDEST PUSH1 0x40 MLOAD PUSH2 0x5F0 SWAP2 SWAP1 PUSH2 0x145D JUMP JUMPDEST PUSH1 0x40 MLOAD DUP1 SWAP2 SUB SWAP1 RETURN JUMPDEST CALLVALUE DUP1 ISZERO PUSH2 0x605 JUMPI PUSH1 0x0 DUP1 REVERT JUMPDEST POP PUSH2 0x60E PUSH2 0xA0E JUMP JUMPDEST STOP JUMPDEST CALLVALUE DUP1 ISZERO PUSH2 0x61C JUMPI PUSH1 0x0 DUP1 REVERT JUMPDEST POP PUSH2 0x625 PUSH2 0xA10 JUMP JUMPDEST STOP JUMPDEST JUMP JUMPDEST PUSH1 0x60 PUSH1 0x3 DUP1 SLOAD PUSH2 0x638 SWAP1 PUSH2 0x158D JUMP JUMPDEST DUP1 PUSH1 0x1F ADD PUSH1 0x20 DUP1 SWAP2 DIV MUL PUSH1 0x20 ADD PUSH1 0x40 MLOAD SWAP1 DUP2 ADD PUSH1 0x40 MSTORE DUP1 SWAP3 SWAP2 SWAP1 DUP2 DUP2 MSTORE PUSH1 0x20 ADD DUP3 DUP1 SLOAD PUSH2 0x664 SWAP1 PUSH2 0x158D JUMP JUMPDEST DUP1 ISZERO PUSH2 0x6B1 JUMPI DUP1 PUSH1 0x1F LT PUSH2 0x686 JUMPI PUSH2 0x100 DUP1 DUP4 SLOAD DIV MUL DUP4 MSTORE SWAP2 PUSH1 0x20 ADD SWAP2 PUSH2 0x6B1 JUMP JUMPDEST DUP3 ADD SWAP2 SWAP1 PUSH1 0x0 MSTORE PUSH1 0x20 PUSH1 0x0 KECCAK256 SWAP1 JUMPDEST DUP2 SLOAD DUP2 MSTORE SWAP1 PUSH1 0x1 ADD SWAP1 PUSH1 0x20 ADD DUP1 DUP4 GT PUSH2 0x694 JUMPI DUP3 SWAP1 SUB PUSH1 0x1F AND DUP3 ADD SWAP2 JUMPDEST POP POP POP POP POP SWAP1 POP SWAP1 JUMP JUMPDEST PUSH1 0x0 DUP1 PUSH2 0x6C6 PUSH2 0xA12 JUMP JUMPDEST SWAP1 POP PUSH2 0x6D3 DUP2 DUP6 DUP6 PUSH2 0xA1A JUMP JUMPDEST PUSH1 0x1 SWAP2 POP POP SWAP3 SWAP2 POP POP JUMP JUMPDEST JUMP JUMPDEST PUSH1 0x0 PUSH1 0x2 SLOAD SWAP1 POP SWAP1 JUMP JUMPDEST PUSH1 0x0 DUP1 PUSH2 0x6F5 PUSH2 0xA12 JUMP JUMPDEST SWAP1 POP PUSH2 0x702 DUP6 DUP3 DUP6 PUSH2 0xBE5 JUMP JUMPDEST PUSH2 0x70D DUP6 DUP6 DUP6 PUSH2 0xC71 JUMP JUMPDEST PUSH1 0x1 SWAP2 POP POP SWAP4 SWAP3 POP POP POP JUMP JUMPDEST JUMP JUMPDEST PUSH1 0x0 PUSH1 0x12 SWAP1 POP SWAP1 JUMP JUMPDEST JUMP JUMPDEST JUMP JUMPDEST PUSH1 0x0 DUP1 PUSH2 0x733 PUSH2 0xA12 JUMP JUMPDEST SWAP1 POP PUSH2 0x754 DUP2 DUP6 DUP6 PUSH2 0x745 DUP6 DUP10 PUSH2 0x987 JUMP JUMPDEST PUSH2 0x74F SWAP2 SWAP1 PUSH2 0x14AF JUMP JUMPDEST PUSH2 0xA1A JUMP JUMPDEST PUSH1 0x1 SWAP2 POP POP SWAP3 SWAP2 POP POP JUMP JUMPDEST PUSH2 0x78B PUSH1 0x5 PUSH1 0x0 SWAP1 SLOAD SWAP1 PUSH2 0x100 EXP SWAP1 DIV PUSH20 0xFFFFFFFFFFFFFFFFFFFFFFFFFFFFFFFFFFFFFFFF AND DUP3 PUSH2 0x95C JUMP JUMPDEST POP POP JUMP JUMPDEST JUMP JUMPDEST JUMP JUMPDEST JUMP JUMPDEST PUSH1 0x0 DUP1 PUSH1 0x0 DUP4 PUSH20 0xFFFFFFFFFFFFFFFFFFFFFFFFFFFFFFFFFFFFFFFF AND PUSH20 0xFFFFFFFFFFFFFFFFFFFFFFFFFFFFFFFFFFFFFFFF AND DUP2 MSTORE PUSH1 0x20 ADD SWAP1 DUP2 MSTORE PUSH1 0x20 ADD PUSH1 0x0 KECCAK256 SLOAD SWAP1 POP SWAP2 SWAP1 POP JUMP JUMPDEST JUMP JUMPDEST JUMP JUMPDEST JUMP JUMPDEST PUSH1 0x5 PUSH1 0x0 SWAP1 SLOAD SWAP1 PUSH2 0x100 EXP SWAP1 DIV PUSH20 0xFFFFFFFFFFFFFFFFFFFFFFFFFFFFFFFFFFFFFFFF AND PUSH20 0xFFFFFFFFFFFFFFFFFFFFFFFFFFFFFFFFFFFFFFFF AND PUSH2 0x8FC PUSH1 0x7B SWAP1 DUP2 ISZERO MUL SWAP1 PUSH1 0x40 MLOAD PUSH1 0x0 PUSH1 0x40 MLOAD DUP1 DUP4 SUB DUP2 DUP6 DUP9 DUP9 CALL SWAP4 POP POP POP POP ISZERO DUP1 ISZERO PUSH2 0x84C JUMPI RETURNDATASIZE PUSH1 0x0 DUP1 RETURNDATACOPY RETURNDATASIZE PUSH1 0x0 REVERT JUMPDEST POP JUMP JUMPDEST JUMP JUMPDEST PUSH1 0x60 PUSH1 0x4 DUP1 SLOAD PUSH2 0x860 SWAP1 PUSH2 0x158D JUMP JUMPDEST DUP1 PUSH1 0x1F ADD PUSH1 0x20 DUP1 SWAP2 DIV MUL PUSH1 0x20 ADD PUSH1 0x40 MLOAD SWAP1 DUP2 ADD PUSH1 0x40 MSTORE DUP1 SWAP3 SWAP2 SWAP1 DUP2 DUP2 MSTORE PUSH1 0x20 ADD DUP3 DUP1 SLOAD PUSH2 0x88C SWAP1 PUSH2 0x158D JUMP JUMPDEST DUP1 ISZERO PUSH2 0x8D9 JUMPI DUP1 PUSH1 0x1F LT PUSH2 0x8AE JUMPI PUSH2 0x100 DUP1 DUP4 SLOAD DIV MUL DUP4 MSTORE SWAP2 PUSH1 0x20 ADD SWAP2 PUSH2 0x8D9 JUMP JUMPDEST DUP3 ADD SWAP2 SWAP1 PUSH1 0x0 MSTORE PUSH1 0x20 PUSH1 0x0 KECCAK256 SWAP1 JUMPDEST DUP2 SLOAD DUP2 MSTORE SWAP1 PUSH1 0x1 ADD SWAP1 PUSH1 0x20 ADD DUP1 DUP4 GT PUSH2 0x8BC JUMPI DUP3 SWAP1 SUB PUSH1 0x1F AND DUP3 ADD SWAP2 JUMPDEST POP POP POP POP POP SWAP1 POP SWAP1 JUMP JUMPDEST JUMP JUMPDEST PUSH1 0x0 DUP1 PUSH2 0x8F0 PUSH2 0xA12 JUMP JUMPDEST SWAP1 POP PUSH1 0x0 PUSH2 0x8FE DUP3 DUP7 PUSH2 0x987 JUMP JUMPDEST SWAP1 POP DUP4 DUP2 LT ISZERO PUSH2 0x943 JUMPI PUSH1 0x40 MLOAD PUSH32 0x8C379A000000000000000000000000000000000000000000000000000000000 DUP2 MSTORE PUSH1 0x4 ADD PUSH2 0x93A SWAP1 PUSH2 0x143D JUMP JUMPDEST PUSH1 0x40 MLOAD DUP1 SWAP2 SUB SWAP1 REVERT JUMPDEST PUSH2 0x950 DUP3 DUP7 DUP7 DUP5 SUB PUSH2 0xA1A JUMP JUMPDEST PUSH1 0x1 SWAP3 POP POP POP SWAP3 SWAP2 POP POP JUMP JUMPDEST PUSH1 0x0 DUP1 PUSH2 0x967 PUSH2 0xA12 JUMP JUMPDEST SWAP1 POP PUSH2 0x974 DUP2 DUP6 DUP6 PUSH2 0xC71 JUMP JUMPDEST PUSH1 0x1 SWAP2 POP POP SWAP3 SWAP2 POP POP JUMP JUMPDEST JUMP JUMPDEST JUMP JUMPDEST JUMP JUMPDEST JUMP JUMPDEST PUSH1 0x0 PUSH1 0x1 PUSH1 0x0 DUP5 PUSH20 0xFFFFFFFFFFFFFFFFFFFFFFFFFFFFFFFFFFFFFFFF AND PUSH20 0xFFFFFFFFFFFFFFFFFFFFFFFFFFFFFFFFFFFFFFFF AND DUP2 MSTORE PUSH1 0x20 ADD SWAP1 DUP2 MSTORE PUSH1 0x20 ADD PUSH1 0x0 KECCAK256 PUSH1 0x0 DUP4 PUSH20 0xFFFFFFFFFFFFFFFFFFFFFFFFFFFFFFFFFFFFFFFF AND PUSH20 0xFFFFFFFFFFFFFFFFFFFFFFFFFFFFFFFFFFFFFFFF AND DUP2 MSTORE PUSH1 0x20 ADD SWAP1 DUP2 MSTORE PUSH1 0x20 ADD PUSH1 0x0 KECCAK256 SLOAD SWAP1 POP SWAP3 SWAP2 POP POP JUMP JUMPDEST JUMP JUMPDEST JUMP JUMPDEST PUSH1 0x0 CALLER SWAP1 POP SWAP1 JUMP JUMPDEST PUSH1 0x0 PUSH20 0xFFFFFFFFFFFFFFFFFFFFFFFFFFFFFFFFFFFFFFFF AND DUP4 PUSH20 0xFFFFFFFFFFFFFFFFFFFFFFFFFFFFFFFFFFFFFFFF AND EQ ISZERO PUSH2 0xA8A JUMPI PUSH1 0x40 MLOAD PUSH32 0x8C379A000000000000000000000000000000000000000000000000000000000 DUP2 MSTORE PUSH1 0x4 ADD PUSH2 0xA81 SWAP1 PUSH2 0x141D JUMP JUMPDEST PUSH1 0x40 MLOAD DUP1 SWAP2 SUB SWAP1 REVERT JUMPDEST PUSH1 0x0 PUSH20 0xFFFFFFFFFFFFFFFFFFFFFFFFFFFFFFFFFFFFFFFF AND DUP3 PUSH20 0xFFFFFFFFFFFFFFFFFFFFFFFFFFFFFFFFFFFFFFFF AND EQ ISZERO PUSH2 0xAFA JUMPI PUSH1 0x40 MLOAD PUSH32 0x8C379A000000000000000000000000000000000000000000000000000000000 DUP2 MSTORE PUSH1 0x4 ADD PUSH2 0xAF1 SWAP1 PUSH2 0x139D JUMP JUMPDEST PUSH1 0x40 MLOAD DUP1 SWAP2 SUB SWAP1 REVERT JUMPDEST DUP1 PUSH1 0x1 PUSH1 0x0 DUP6 PUSH20 0xFFFFFFFFFFFFFFFFFFFFFFFFFFFFFFFFFFFFFFFF AND PUSH20 0xFFFFFFFFFFFFFFFFFFFFFFFFFFFFFFFFFFFFFFFF AND DUP2 MSTORE PUSH1 0x20 ADD SWAP1 DUP2 MSTORE PUSH1 0x20 ADD PUSH1 0x0 KECCAK256 PUSH1 0x0 DUP5 PUSH20 0xFFFFFFFFFFFFFFFFFFFFFFFFFFFFFFFFFFFFFFFF AND PUSH20 0xFFFFFFFFFFFFFFFFFFFFFFFFFFFFFFFFFFFFFFFF AND DUP2 MSTORE PUSH1 0x20 ADD SWAP1 DUP2 MSTORE PUSH1 0x20 ADD PUSH1 0x0 KECCAK256 DUP2 SWAP1 SSTORE POP DUP2 PUSH20 0xFFFFFFFFFFFFFFFFFFFFFFFFFFFFFFFFFFFFFFFF AND DUP4 PUSH20 0xFFFFFFFFFFFFFFFFFFFFFFFFFFFFFFFFFFFFFFFF AND PUSH32 0x8C5BE1E5EBEC7D5BD14F71427D1E84F3DD0314C0F7B2291E5B200AC8C7C3B925 DUP4 PUSH1 0x40 MLOAD PUSH2 0xBD8 SWAP2 SWAP1 PUSH2 0x145D JUMP JUMPDEST PUSH1 0x40 MLOAD DUP1 SWAP2 SUB SWAP1 LOG3 POP POP POP JUMP JUMPDEST PUSH1 0x0 PUSH2 0xBF1 DUP5 DUP5 PUSH2 0x987 JUMP JUMPDEST SWAP1 POP PUSH32 0xFFFFFFFFFFFFFFFFFFFFFFFFFFFFFFFFFFFFFFFFFFFFFFFFFFFFFFFFFFFFFFFF DUP2 EQ PUSH2 0xC6B JUMPI DUP2 DUP2 LT ISZERO PUSH2 0xC5D JUMPI PUSH1 0x40 MLOAD PUSH32 0x8C379A000000000000000000000000000000000000000000000000000000000 DUP2 MSTORE PUSH1 0x4 ADD PUSH2 0xC54 SWAP1 PUSH2 0x13BD JUMP JUMPDEST PUSH1 0x40 MLOAD DUP1 SWAP2 SUB SWAP1 REVERT JUMPDEST PUSH2 0xC6A DUP5 DUP5 DUP5 DUP5 SUB PUSH2 0xA1A JUMP JUMPDEST JUMPDEST POP POP POP POP JUMP JUMPDEST PUSH1 0x0 PUSH20 0xFFFFFFFFFFFFFFFFFFFFFFFFFFFFFFFFFFFFFFFF AND DUP4 PUSH20 0xFFFFFFFFFFFFFFFFFFFFFFFFFFFFFFFFFFFFFFFF AND EQ ISZERO PUSH2 0xCE1 JUMPI PUSH1 0x40 MLOAD PUSH32 0x8C379A000000000000000000000000000000000000000000000000000000000 DUP2 MSTORE PUSH1 0x4 ADD PUSH2 0xCD8 SWAP1 PUSH2 0x13FD JUMP JUMPDEST PUSH1 0x40 MLOAD DUP1 SWAP2 SUB SWAP1 REVERT JUMPDEST PUSH1 0x0 PUSH20 0xFFFFFFFFFFFFFFFFFFFFFFFFFFFFFFFFFFFFFFFF AND DUP3 PUSH20 0xFFFFFFFFFFFFFFFFFFFFFFFFFFFFFFFFFFFFFFFF AND EQ ISZERO PUSH2 0xD51 JUMPI PUSH1 0x40 MLOAD PUSH32 0x8C379A000000000000000000000000000000000000000000000000000000000 DUP2 MSTORE PUSH1 0x4 ADD PUSH2 0xD48 SWAP1 PUSH2 0x137D JUMP JUMPDEST PUSH1 0x40 MLOAD DUP1 SWAP2 SUB SWAP1 REVERT JUMPDEST PUSH2 0xD5C DUP4 DUP4 DUP4 PUSH2 0xEE9 JUMP JUMPDEST PUSH1 0x0 DUP1 PUSH1 0x0 DUP6 PUSH20 0xFFFFFFFFFFFFFFFFFFFFFFFFFFFFFFFFFFFFFFFF AND PUSH20 0xFFFFFFFFFFFFFFFFFFFFFFFFFFFFFFFFFFFFFFFF AND DUP2 MSTORE PUSH1 0x20 ADD SWAP1 DUP2 MSTORE PUSH1 0x20 ADD PUSH1 0x0 KECCAK256 SLOAD SWAP1 POP DUP2 DUP2 LT ISZERO PUSH2 0xDE2 JUMPI PUSH1 0x40 MLOAD PUSH32 0x8C379A000000000000000000000000000000000000000000000000000000000 DUP2 MSTORE PUSH1 0x4 ADD PUSH2 0xDD9 SWAP1 PUSH2 0x13DD JUMP JUMPDEST PUSH1 0x40 MLOAD DUP1 SWAP2 SUB SWAP1 REVERT JUMPDEST DUP2 DUP2 SUB PUSH1 0x0 DUP1 DUP7 PUSH20 0xFFFFFFFFFFFFFFFFFFFFFFFFFFFFFFFFFFFFFFFF AND PUSH20 0xFFFFFFFFFFFFFFFFFFFFFFFFFFFFFFFFFFFFFFFF AND DUP2 MSTORE PUSH1 0x20 ADD SWAP1 DUP2 MSTORE PUSH1 0x20 ADD PUSH1 0x0 KECCAK256 DUP2 SWAP1 SSTORE POP DUP2 PUSH1 0x0 DUP1 DUP6 PUSH20 0xFFFFFFFFFFFFFFFFFFFFFFFFFFFFFFFFFFFFFFFF AND PUSH20 0xFFFFFFFFFFFFFFFFFFFFFFFFFFFFFFFFFFFFFFFF AND DUP2 MSTORE PUSH1 0x20 ADD SWAP1 DUP2 MSTORE PUSH1 0x20 ADD PUSH1 0x0 KECCAK256 PUSH1 0x0 DUP3 DUP3 SLOAD ADD SWAP3 POP POP DUP2 SWAP1 SSTORE POP DUP3 PUSH20 0xFFFFFFFFFFFFFFFFFFFFFFFFFFFFFFFFFFFFFFFF AND DUP5 PUSH20 0xFFFFFFFFFFFFFFFFFFFFFFFFFFFFFFFFFFFFFFFF AND PUSH32 0xDDF252AD1BE2C89B69C2B068FC378DAA952BA7F163C4A11628F55A4DF523B3EF DUP5 PUSH1 0x40 MLOAD PUSH2 0xED0 SWAP2 SWAP1 PUSH2 0x145D JUMP JUMPDEST PUSH1 0x40 MLOAD DUP1 SWAP2 SUB SWAP1 LOG3 PUSH2 0xEE3 DUP5 DUP5 DUP5 PUSH2 0xEEE JUMP JUMPDEST POP POP POP POP JUMP JUMPDEST POP POP POP JUMP JUMPDEST POP POP POP JUMP JUMPDEST PUSH1 0x0 DUP2 CALLDATALOAD SWAP1 POP PUSH2 0xF02 DUP2 PUSH2 0x162E JUMP JUMPDEST SWAP3 SWAP2 POP POP JUMP JUMPDEST PUSH1 0x0 DUP2 CALLDATALOAD SWAP1 POP PUSH2 0xF17 DUP2 PUSH2 0x1645 JUMP JUMPDEST SWAP3 SWAP2 POP POP JUMP JUMPDEST PUSH1 0x0 PUSH1 0x20 DUP3 DUP5 SUB SLT ISZERO PUSH2 0xF2F JUMPI PUSH1 0x0 DUP1 REVERT JUMPDEST PUSH1 0x0 PUSH2 0xF3D DUP5 DUP3 DUP6 ADD PUSH2 0xEF3 JUMP JUMPDEST SWAP2 POP POP SWAP3 SWAP2 POP POP JUMP JUMPDEST PUSH1 0x0 DUP1 PUSH1 0x40 DUP4 DUP6 SUB SLT ISZERO PUSH2 0xF59 JUMPI PUSH1 0x0 DUP1 REVERT JUMPDEST PUSH1 0x0 PUSH2 0xF67 DUP6 DUP3 DUP7 ADD PUSH2 0xEF3 JUMP JUMPDEST SWAP3 POP POP PUSH1 0x20 PUSH2 0xF78 DUP6 DUP3 DUP7 ADD PUSH2 0xEF3 JUMP JUMPDEST SWAP2 POP POP SWAP3 POP SWAP3 SWAP1 POP JUMP JUMPDEST PUSH1 0x0 DUP1 PUSH1 0x0 PUSH1 0x60 DUP5 DUP7 SUB SLT ISZERO PUSH2 0xF97 JUMPI PUSH1 0x0 DUP1 REVERT JUMPDEST PUSH1 0x0 PUSH2 0xFA5 DUP7 DUP3 DUP8 ADD PUSH2 0xEF3 JUMP JUMPDEST SWAP4 POP POP PUSH1 0x20 PUSH2 0xFB6 DUP7 DUP3 DUP8 ADD PUSH2 0xEF3 JUMP JUMPDEST SWAP3 POP POP PUSH1 0x40 PUSH2 0xFC7 DUP7 DUP3 DUP8 ADD PUSH2 0xF08 JUMP JUMPDEST SWAP2 POP POP SWAP3 POP SWAP3 POP SWAP3 JUMP JUMPDEST PUSH1 0x0 DUP1 PUSH1 0x40 DUP4 DUP6 SUB SLT ISZERO PUSH2 0xFE4 JUMPI PUSH1 0x0 DUP1 REVERT JUMPDEST PUSH1 0x0 PUSH2 0xFF2 DUP6 DUP3 DUP7 ADD PUSH2 0xEF3 JUMP JUMPDEST SWAP3 POP POP PUSH1 0x20 PUSH2 0x1003 DUP6 DUP3 DUP7 ADD PUSH2 0xF08 JUMP JUMPDEST SWAP2 POP POP SWAP3 POP SWAP3 SWAP1 POP JUMP JUMPDEST PUSH1 0x0 PUSH1 0x20 DUP3 DUP5 SUB SLT ISZERO PUSH2 0x101F JUMPI PUSH1 0x0 DUP1 REVERT JUMPDEST PUSH1 0x0 PUSH2 0x102D DUP5 DUP3 DUP6 ADD PUSH2 0xF08 JUMP JUMPDEST SWAP2 POP POP SWAP3 SWAP2 POP POP JUMP JUMPDEST PUSH2 0x103F DUP2 PUSH2 0x1517 JUMP JUMPDEST DUP3 MSTORE POP POP JUMP JUMPDEST PUSH1 0x0 PUSH2 0x1050 DUP3 PUSH2 0x1493 JUMP JUMPDEST PUSH2 0x105A DUP2 DUP6 PUSH2 0x149E JUMP JUMPDEST SWAP4 POP PUSH2 0x106A DUP2 DUP6 PUSH1 0x20 DUP7 ADD PUSH2 0x155A JUMP JUMPDEST PUSH2 0x1073 DUP2 PUSH2 0x161D JUMP JUMPDEST DUP5 ADD SWAP2 POP POP SWAP3 SWAP2 POP POP JUMP JUMPDEST PUSH1 0x0 PUSH2 0x108B PUSH1 0x23 DUP4 PUSH2 0x149E JUMP JUMPDEST SWAP2 POP PUSH32 0x45524332303A207472616E7366657220746F20746865207A65726F2061646472 PUSH1 0x0 DUP4 ADD MSTORE PUSH32 0x6573730000000000000000000000000000000000000000000000000000000000 PUSH1 0x20 DUP4 ADD MSTORE PUSH1 0x40 DUP3 ADD SWAP1 POP SWAP2 SWAP1 POP JUMP JUMPDEST PUSH1 0x0 PUSH2 0x10F1 PUSH1 0x22 DUP4 PUSH2 0x149E JUMP JUMPDEST SWAP2 POP PUSH32 0x45524332303A20617070726F766520746F20746865207A65726F206164647265 PUSH1 0x0 DUP4 ADD MSTORE PUSH32 0x7373000000000000000000000000000000000000000000000000000000000000 PUSH1 0x20 DUP4 ADD MSTORE PUSH1 0x40 DUP3 ADD SWAP1 POP SWAP2 SWAP1 POP JUMP JUMPDEST PUSH1 0x0 PUSH2 0x1157 PUSH1 0x1D DUP4 PUSH2 0x149E JUMP JUMPDEST SWAP2 POP PUSH32 0x45524332303A20696E73756666696369656E7420616C6C6F77616E6365000000 PUSH1 0x0 DUP4 ADD MSTORE PUSH1 0x20 DUP3 ADD SWAP1 POP SWAP2 SWAP1 POP JUMP JUMPDEST PUSH1 0x0 PUSH2 0x1197 PUSH1 0x26 DUP4 PUSH2 0x149E JUMP JUMPDEST SWAP2 POP PUSH32 0x45524332303A207472616E7366657220616D6F756E7420657863656564732062 PUSH1 0x0 DUP4 ADD MSTORE PUSH32 0x616C616E63650000000000000000000000000000000000000000000000000000 PUSH1 0x20 DUP4 ADD MSTORE PUSH1 0x40 DUP3 ADD SWAP1 POP SWAP2 SWAP1 POP JUMP JUMPDEST PUSH1 0x0 PUSH2 0x11FD PUSH1 0x25 DUP4 PUSH2 0x149E JUMP JUMPDEST SWAP2 POP PUSH32 0x45524332303A207472616E736665722066726F6D20746865207A65726F206164 PUSH1 0x0 DUP4 ADD MSTORE PUSH32 0x6472657373000000000000000000000000000000000000000000000000000000 PUSH1 0x20 DUP4 ADD MSTORE PUSH1 0x40 DUP3 ADD SWAP1 POP SWAP2 SWAP1 POP JUMP JUMPDEST PUSH1 0x0 PUSH2 0x1263 PUSH1 0x24 DUP4 PUSH2 0x149E JUMP JUMPDEST SWAP2 POP PUSH32 0x45524332303A20617070726F76652066726F6D20746865207A65726F20616464 PUSH1 0x0 DUP4 ADD MSTORE PUSH32 0x7265737300000000000000000000000000000000000000000000000000000000 PUSH1 0x20 DUP4 ADD MSTORE PUSH1 0x40 DUP3 ADD SWAP1 POP SWAP2 SWAP1 POP JUMP JUMPDEST PUSH1 0x0 PUSH2 0x12C9 PUSH1 0x25 DUP4 PUSH2 0x149E JUMP JUMPDEST SWAP2 POP PUSH32 0x45524332303A2064656372656173656420616C6C6F77616E63652062656C6F77 PUSH1 0x0 DUP4 ADD MSTORE PUSH32 0x207A65726F000000000000000000000000000000000000000000000000000000 PUSH1 0x20 DUP4 ADD MSTORE PUSH1 0x40 DUP3 ADD SWAP1 POP SWAP2 SWAP1 POP JUMP JUMPDEST PUSH2 0x132B DUP2 PUSH2 0x1543 JUMP JUMPDEST DUP3 MSTORE POP POP JUMP JUMPDEST PUSH2 0x133A DUP2 PUSH2 0x154D JUMP JUMPDEST DUP3 MSTORE POP POP JUMP JUMPDEST PUSH1 0x0 PUSH1 0x20 DUP3 ADD SWAP1 POP PUSH2 0x1355 PUSH1 0x0 DUP4 ADD DUP5 PUSH2 0x1036 JUMP JUMPDEST SWAP3 SWAP2 POP POP JUMP JUMPDEST PUSH1 0x0 PUSH1 0x20 DUP3 ADD SWAP1 POP DUP2 DUP2 SUB PUSH1 0x0 DUP4 ADD MSTORE PUSH2 0x1375 DUP2 DUP5 PUSH2 0x1045 JUMP JUMPDEST SWAP1 POP SWAP3 SWAP2 POP POP JUMP JUMPDEST PUSH1 0x0 PUSH1 0x20 DUP3 ADD SWAP1 POP DUP2 DUP2 SUB PUSH1 0x0 DUP4 ADD MSTORE PUSH2 0x1396 DUP2 PUSH2 0x107E JUMP JUMPDEST SWAP1 POP SWAP2 SWAP1 POP JUMP JUMPDEST PUSH1 0x0 PUSH1 0x20 DUP3 ADD SWAP1 POP DUP2 DUP2 SUB PUSH1 0x0 DUP4 ADD MSTORE PUSH2 0x13B6 DUP2 PUSH2 0x10E4 JUMP JUMPDEST SWAP1 POP SWAP2 SWAP1 POP JUMP JUMPDEST PUSH1 0x0 PUSH1 0x20 DUP3 ADD SWAP1 POP DUP2 DUP2 SUB PUSH1 0x0 DUP4 ADD MSTORE PUSH2 0x13D6 DUP2 PUSH2 0x114A JUMP JUMPDEST SWAP1 POP SWAP2 SWAP1 POP JUMP JUMPDEST PUSH1 0x0 PUSH1 0x20 DUP3 ADD SWAP1 POP DUP2 DUP2 SUB PUSH1 0x0 DUP4 ADD MSTORE PUSH2 0x13F6 DUP2 PUSH2 0x118A JUMP JUMPDEST SWAP1 POP SWAP2 SWAP1 POP JUMP JUMPDEST PUSH1 0x0 PUSH1 0x20 DUP3 ADD SWAP1 POP DUP2 DUP2 SUB PUSH1 0x0 DUP4 ADD MSTORE PUSH2 0x1416 DUP2 PUSH2 0x11F0 JUMP JUMPDEST SWAP1 POP SWAP2 SWAP1 POP JUMP JUMPDEST PUSH1 0x0 PUSH1 0x20 DUP3 ADD SWAP1 POP DUP2 DUP2 SUB PUSH1 0x0 DUP4 ADD MSTORE PUSH2 0x1436 DUP2 PUSH2 0x1256 JUMP JUMPDEST SWAP1 POP SWAP2 SWAP1 POP JUMP JUMPDEST PUSH1 0x0 PUSH1 0x20 DUP3 ADD SWAP1 POP DUP2 DUP2 SUB PUSH1 0x0 DUP4 ADD MSTORE PUSH2 0x1456 DUP2 PUSH2 0x12BC JUMP JUMPDEST SWAP1 POP SWAP2 SWAP1 POP JUMP JUMPDEST PUSH1 0x0 PUSH1 0x20 DUP3 ADD SWAP1 POP PUSH2 0x1472 PUSH1 0x0 DUP4 ADD DUP5 PUSH2 0x1322 JUMP JUMPDEST SWAP3 SWAP2 POP POP JUMP JUMPDEST PUSH1 0x0 PUSH1 0x20 DUP3 ADD SWAP1 POP PUSH2 0x148D PUSH1 0x0 DUP4 ADD DUP5 PUSH2 0x1331 JUMP JUMPDEST SWAP3 SWAP2 POP POP JUMP JUMPDEST PUSH1 0x0 DUP2 MLOAD SWAP1 POP SWAP2 SWAP1 POP JUMP JUMPDEST PUSH1 0x0 DUP3 DUP3 MSTORE PUSH1 0x20 DUP3 ADD SWAP1 POP SWAP3 SWAP2 POP POP JUMP JUMPDEST PUSH1 0x0 PUSH2 0x14BA DUP3 PUSH2 0x1543 JUMP JUMPDEST SWAP2 POP PUSH2 0x14C5 DUP4 PUSH2 0x1543 JUMP JUMPDEST SWAP3 POP DUP3 PUSH32 0xFFFFFFFFFFFFFFFFFFFFFFFFFFFFFFFFFFFFFFFFFFFFFFFFFFFFFFFFFFFFFFFF SUB DUP3 GT ISZERO PUSH2 0x14FA JUMPI PUSH2 0x14F9 PUSH2 0x15BF JUMP JUMPDEST JUMPDEST DUP3 DUP3 ADD SWAP1 POP SWAP3 SWAP2 POP POP JUMP JUMPDEST PUSH1 0x0 PUSH2 0x1510 DUP3 PUSH2 0x1523 JUMP JUMPDEST SWAP1 POP SWAP2 SWAP1 POP JUMP JUMPDEST PUSH1 0x0 DUP2 ISZERO ISZERO SWAP1 POP SWAP2 SWAP1 POP JUMP JUMPDEST PUSH1 0x0 PUSH20 0xFFFFFFFFFFFFFFFFFFFFFFFFFFFFFFFFFFFFFFFF DUP3 AND SWAP1 POP SWAP2 SWAP1 POP JUMP JUMPDEST PUSH1 0x0 DUP2 SWAP1 POP SWAP2 SWAP1 POP JUMP JUMPDEST PUSH1 0x0 PUSH1 0xFF DUP3 AND SWAP1 POP SWAP2 SWAP1 POP JUMP JUMPDEST PUSH1 0x0 JUMPDEST DUP4 DUP2 LT ISZERO PUSH2 0x1578 JUMPI DUP1 DUP3 ADD MLOAD DUP2 DUP5 ADD MSTORE PUSH1 0x20 DUP2 ADD SWAP1 POP PUSH2 0x155D JUMP JUMPDEST DUP4 DUP2 GT ISZERO PUSH2 0x1587 JUMPI PUSH1 0x0 DUP5 DUP5 ADD MSTORE JUMPDEST POP POP POP POP JUMP JUMPDEST PUSH1 0x0 PUSH1 0x2 DUP3 DIV SWAP1 POP PUSH1 0x1 DUP3 AND DUP1 PUSH2 0x15A5 JUMPI PUSH1 0x7F DUP3 AND SWAP2 POP JUMPDEST PUSH1 0x20 DUP3 LT DUP2 EQ ISZERO PUSH2 0x15B9 JUMPI PUSH2 0x15B8 PUSH2 0x15EE JUMP JUMPDEST JUMPDEST POP SWAP2 SWAP1 POP JUMP JUMPDEST PUSH32 0x4E487B7100000000000000000000000000000000000000000000000000000000 PUSH1 0x0 MSTORE PUSH1 0x11 PUSH1 0x4 MSTORE PUSH1 0x24 PUSH1 0x0 REVERT JUMPDEST PUSH32 0x4E487B7100000000000000000000000000000000000000000000000000000000 PUSH1 0x0 MSTORE PUSH1 0x22 PUSH1 0x4 MSTORE PUSH1 0x24 PUSH1 0x0 REVERT JUMPDEST PUSH1 0x0 PUSH1 0x1F NOT PUSH1 0x1F DUP4 ADD AND SWAP1 POP SWAP2 SWAP1 POP JUMP JUMPDEST PUSH2 0x1637 DUP2 PUSH2 0x1505 JUMP JUMPDEST DUP2 EQ PUSH2 0x1642 JUMPI PUSH1 0x0 DUP1 REVERT JUMPDEST POP JUMP JUMPDEST PUSH2 0x164E DUP2 PUSH2 0x1543 JUMP JUMPDEST DUP2 EQ PUSH2 0x1659 JUMPI PUSH1 0x0 DUP1 REVERT JUMPDEST POP JUMP INVALID LOG2 PUSH5 0x6970667358 0x22 SLT KECCAK256 0xE6 0x26 0x5D LOG4 DUP1 0x2C PUSH30 0xEAE4866DD769DDA069113D01FCDDF4723C188995A640D56CAC64736F6C63 NUMBER STOP ADDMOD STOP STOP CALLER "
				},
				"gasEstimates": {
					"creation": {
						"codeDepositCost": "1155600",
						"executionCost": "infinite",
						"totalCost": "infinite"
					},
					"external": {
						"allowance(address,address)": "infinite",
						"approve(address,uint256)": "infinite",
						"balanceOf(address)": "1652",
						"decimals()": "455",
						"decreaseAllowance(address,uint256)": "infinite",
						"delegateVoteTo()": "233",
						"donateEther()": "infinite",
						"donateMyGovToken(uint256)": "infinite",
						"getEtherReceivedByProject()": "257",
						"getIsProjectFunded()": "190",
						"getNoOfFundedProjects()": "188",
						"getNoOfProjectProposals()": "234",
						"getNoOfSurveys()": "211",
						"getProjectInfo()": "233",
						"getProjectNextPayment()": "232",
						"getProjectOwner()": "254",
						"getSurveyInfo()": "211",
						"getSurveyOwner()": "189",
						"getSurveyResults()": "189",
						"increaseAllowance(address,uint256)": "infinite",
						"name()": "infinite",
						"reserveProjectGrant()": "255",
						"submitProjectProposal()": "212",
						"submitSurvey()": "233",
						"symbol()": "infinite",
						"takeSurvey()": "191",
						"totalSupply()": "1183",
						"transfer(address,uint256)": "infinite",
						"transferFrom(address,address,uint256)": "infinite",
						"voteForProjectPayment()": "212",
						"voteForProjectProposal()": "234",
						"withdrawProjectPayment()": "190"
					}
				},
				"methodIdentifiers": {
					"allowance(address,address)": "dd62ed3e",
					"approve(address,uint256)": "095ea7b3",
					"balanceOf(address)": "70a08231",
					"decimals()": "313ce567",
					"decreaseAllowance(address,uint256)": "a457c2d7",
					"delegateVoteTo()": "b28a7df0",
					"donateEther()": "863451dd",
					"donateMyGovToken(uint256)": "39c94d2d",
					"getEtherReceivedByProject()": "164dfd3b",
					"getIsProjectFunded()": "35655237",
					"getNoOfFundedProjects()": "bf50556d",
					"getNoOfProjectProposals()": "23fd498b",
					"getNoOfSurveys()": "5d801b37",
					"getProjectInfo()": "67c897fe",
					"getProjectNextPayment()": "e00e03f9",
					"getProjectOwner()": "e6d68595",
					"getSurveyInfo()": "af60d560",
					"getSurveyOwner()": "492ff0b7",
					"getSurveyResults()": "8fbe3750",
					"increaseAllowance(address,uint256)": "39509351",
					"name()": "06fdde03",
					"reserveProjectGrant()": "bafc462d",
					"submitProjectProposal()": "36d8ef39",
					"submitSurvey()": "97cfe54b",
					"symbol()": "95d89b41",
					"takeSurvey()": "033cb2d3",
					"totalSupply()": "18160ddd",
					"transfer(address,uint256)": "a9059cbb",
					"transferFrom(address,address,uint256)": "23b872dd",
					"voteForProjectPayment()": "72a4e9ba",
					"voteForProjectProposal()": "774f6fe7",
					"withdrawProjectPayment()": "70e1133c"
				}
			},
			"storageLayout": {
				"storage": [
					{
						"astId": 15,
						"contract": "contracts/MyGov.sol:MyGovToken",
						"label": "_balances",
						"offset": 0,
						"slot": "0",
						"type": "t_mapping(t_address,t_uint256)"
					},
					{
						"astId": 21,
						"contract": "contracts/MyGov.sol:MyGovToken",
						"label": "_allowances",
						"offset": 0,
						"slot": "1",
						"type": "t_mapping(t_address,t_mapping(t_address,t_uint256))"
					},
					{
						"astId": 23,
						"contract": "contracts/MyGov.sol:MyGovToken",
						"label": "_totalSupply",
						"offset": 0,
						"slot": "2",
						"type": "t_uint256"
					},
					{
						"astId": 25,
						"contract": "contracts/MyGov.sol:MyGovToken",
						"label": "_name",
						"offset": 0,
						"slot": "3",
						"type": "t_string_storage"
					},
					{
						"astId": 27,
						"contract": "contracts/MyGov.sol:MyGovToken",
						"label": "_symbol",
						"offset": 0,
						"slot": "4",
						"type": "t_string_storage"
					},
					{
						"astId": 720,
						"contract": "contracts/MyGov.sol:MyGovToken",
						"label": "tokenOwner",
						"offset": 0,
						"slot": "5",
						"type": "t_address_payable"
					}
				],
				"types": {
					"t_address": {
						"encoding": "inplace",
						"label": "address",
						"numberOfBytes": "20"
					},
					"t_address_payable": {
						"encoding": "inplace",
						"label": "address payable",
						"numberOfBytes": "20"
					},
					"t_mapping(t_address,t_mapping(t_address,t_uint256))": {
						"encoding": "mapping",
						"key": "t_address",
						"label": "mapping(address => mapping(address => uint256))",
						"numberOfBytes": "32",
						"value": "t_mapping(t_address,t_uint256)"
					},
					"t_mapping(t_address,t_uint256)": {
						"encoding": "mapping",
						"key": "t_address",
						"label": "mapping(address => uint256)",
						"numberOfBytes": "32",
						"value": "t_uint256"
					},
					"t_string_storage": {
						"encoding": "bytes",
						"label": "string",
						"numberOfBytes": "32"
					},
					"t_uint256": {
						"encoding": "inplace",
						"label": "uint256",
						"numberOfBytes": "32"
					}
				}
			},
			"userdoc": {
				"kind": "user",
				"methods": {},
				"version": 1
			}
		}
	}
}