{
	"contracts/MyGov.sol": {
		"MyGovToken": {
			"abi": [
				{
					"inputs": [
						{
							"internalType": "uint256",
							"name": "tokensupply",
							"type": "uint256"
						}
					],
					"stateMutability": "nonpayable",
					"type": "constructor"
				},
				{
					"anonymous": false,
					"inputs": [
						{
							"indexed": true,
							"internalType": "address",
							"name": "owner",
							"type": "address"
						},
						{
							"indexed": true,
							"internalType": "address",
							"name": "spender",
							"type": "address"
						},
						{
							"indexed": false,
							"internalType": "uint256",
							"name": "value",
							"type": "uint256"
						}
					],
					"name": "Approval",
					"type": "event"
				},
				{
					"anonymous": false,
					"inputs": [
						{
							"indexed": true,
							"internalType": "address",
							"name": "from",
							"type": "address"
						},
						{
							"indexed": true,
							"internalType": "address",
							"name": "to",
							"type": "address"
						},
						{
							"indexed": false,
							"internalType": "uint256",
							"name": "value",
							"type": "uint256"
						}
					],
					"name": "Transfer",
					"type": "event"
				},
				{
					"inputs": [
						{
							"internalType": "address",
							"name": "owner",
							"type": "address"
						},
						{
							"internalType": "address",
							"name": "spender",
							"type": "address"
						}
					],
					"name": "allowance",
					"outputs": [
						{
							"internalType": "uint256",
							"name": "",
							"type": "uint256"
						}
					],
					"stateMutability": "view",
					"type": "function"
				},
				{
					"inputs": [
						{
							"internalType": "address",
							"name": "spender",
							"type": "address"
						},
						{
							"internalType": "uint256",
							"name": "amount",
							"type": "uint256"
						}
					],
					"name": "approve",
					"outputs": [
						{
							"internalType": "bool",
							"name": "",
							"type": "bool"
						}
					],
					"stateMutability": "nonpayable",
					"type": "function"
				},
				{
					"inputs": [
						{
							"internalType": "address",
							"name": "account",
							"type": "address"
						}
					],
					"name": "balanceOf",
					"outputs": [
						{
							"internalType": "uint256",
							"name": "",
							"type": "uint256"
						}
					],
					"stateMutability": "view",
					"type": "function"
				},
				{
					"inputs": [],
					"name": "decimals",
					"outputs": [
						{
							"internalType": "uint8",
							"name": "",
							"type": "uint8"
						}
					],
					"stateMutability": "view",
					"type": "function"
				},
				{
					"inputs": [
						{
							"internalType": "address",
							"name": "spender",
							"type": "address"
						},
						{
							"internalType": "uint256",
							"name": "subtractedValue",
							"type": "uint256"
						}
					],
					"name": "decreaseAllowance",
					"outputs": [
						{
							"internalType": "bool",
							"name": "",
							"type": "bool"
						}
					],
					"stateMutability": "nonpayable",
					"type": "function"
				},
				{
					"inputs": [
						{
							"internalType": "address",
							"name": "memberaddr",
							"type": "address"
						},
						{
							"internalType": "uint256",
							"name": "projectid",
							"type": "uint256"
						}
					],
					"name": "delegateVoteTo",
					"outputs": [],
					"stateMutability": "nonpayable",
					"type": "function"
				},
				{
					"inputs": [],
					"name": "donateEther",
					"outputs": [],
					"stateMutability": "payable",
					"type": "function"
				},
				{
					"inputs": [
						{
							"internalType": "uint256",
							"name": "amount",
							"type": "uint256"
						}
					],
					"name": "donateMyGovToken",
					"outputs": [],
					"stateMutability": "nonpayable",
					"type": "function"
				},
				{
					"inputs": [],
					"name": "getEtherReceivedByProject",
					"outputs": [],
					"stateMutability": "nonpayable",
					"type": "function"
				},
				{
					"inputs": [],
					"name": "getIsProjectFunded",
					"outputs": [],
					"stateMutability": "nonpayable",
					"type": "function"
				},
				{
					"inputs": [],
					"name": "getNoOfFundedProjects",
					"outputs": [
						{
							"internalType": "uint256",
							"name": "numfunded",
							"type": "uint256"
						}
					],
					"stateMutability": "view",
					"type": "function"
				},
				{
					"inputs": [],
					"name": "getNoOfProjectProposals",
					"outputs": [
						{
							"internalType": "uint256",
							"name": "numofproposals",
							"type": "uint256"
						}
					],
					"stateMutability": "view",
					"type": "function"
				},
				{
					"inputs": [],
					"name": "getNoOfSurveys",
					"outputs": [
						{
							"internalType": "uint256",
							"name": "numsurveys",
							"type": "uint256"
						}
					],
					"stateMutability": "view",
					"type": "function"
				},
				{
					"inputs": [],
					"name": "getProjectInfo",
					"outputs": [],
					"stateMutability": "nonpayable",
					"type": "function"
				},
				{
					"inputs": [],
					"name": "getProjectNextPayment",
					"outputs": [],
					"stateMutability": "nonpayable",
					"type": "function"
				},
				{
					"inputs": [],
					"name": "getProjectOwner",
					"outputs": [],
					"stateMutability": "nonpayable",
					"type": "function"
				},
				{
					"inputs": [],
					"name": "getSurveyInfo",
					"outputs": [],
					"stateMutability": "nonpayable",
					"type": "function"
				},
				{
					"inputs": [
						{
							"internalType": "uint256",
							"name": "surveyid",
							"type": "uint256"
						}
					],
					"name": "getSurveyOwner",
					"outputs": [
						{
							"internalType": "address",
							"name": "surveyowner",
							"type": "address"
						}
					],
					"stateMutability": "view",
					"type": "function"
				},
				{
					"inputs": [],
					"name": "getSurveyResults",
					"outputs": [],
					"stateMutability": "nonpayable",
					"type": "function"
				},
				{
					"inputs": [
						{
							"internalType": "address",
							"name": "spender",
							"type": "address"
						},
						{
							"internalType": "uint256",
							"name": "addedValue",
							"type": "uint256"
						}
					],
					"name": "increaseAllowance",
					"outputs": [
						{
							"internalType": "bool",
							"name": "",
							"type": "bool"
						}
					],
					"stateMutability": "nonpayable",
					"type": "function"
				},
				{
					"inputs": [],
					"name": "name",
					"outputs": [
						{
							"internalType": "string",
							"name": "",
							"type": "string"
						}
					],
					"stateMutability": "view",
					"type": "function"
				},
				{
					"inputs": [
						{
							"internalType": "uint256",
							"name": "",
							"type": "uint256"
						}
					],
					"name": "proposals",
					"outputs": [
						{
							"internalType": "bytes",
							"name": "name",
							"type": "bytes"
						},
						{
							"internalType": "uint256",
							"name": "voteCount",
							"type": "uint256"
						},
						{
							"internalType": "bool",
							"name": "isWon",
							"type": "bool"
						},
						{
							"internalType": "bool",
							"name": "isFunded",
							"type": "bool"
						}
					],
					"stateMutability": "view",
					"type": "function"
				},
				{
					"inputs": [],
					"name": "reserveProjectGrant",
					"outputs": [],
					"stateMutability": "nonpayable",
					"type": "function"
				},
				{
					"inputs": [
						{
							"internalType": "string",
							"name": "ipfshash",
							"type": "string"
						},
						{
							"internalType": "uint256",
							"name": "votedeadline",
							"type": "uint256"
						},
						{
							"internalType": "uint256[]",
							"name": "paymentamounts",
							"type": "uint256[]"
						},
						{
							"internalType": "uint256[]",
							"name": "payschedule",
							"type": "uint256[]"
						}
					],
					"name": "submitProjectProposal",
					"outputs": [],
					"stateMutability": "nonpayable",
					"type": "function"
				},
				{
					"inputs": [],
					"name": "submitSurvey",
					"outputs": [],
					"stateMutability": "nonpayable",
					"type": "function"
				},
				{
					"inputs": [
						{
							"internalType": "uint256",
							"name": "",
							"type": "uint256"
						}
					],
					"name": "surveys",
					"outputs": [
						{
							"internalType": "bytes32",
							"name": "name",
							"type": "bytes32"
						}
					],
					"stateMutability": "view",
					"type": "function"
				},
				{
					"inputs": [],
					"name": "symbol",
					"outputs": [
						{
							"internalType": "string",
							"name": "",
							"type": "string"
						}
					],
					"stateMutability": "view",
					"type": "function"
				},
				{
					"inputs": [],
					"name": "takeSurvey",
					"outputs": [],
					"stateMutability": "nonpayable",
					"type": "function"
				},
				{
					"inputs": [],
					"name": "totalSupply",
					"outputs": [
						{
							"internalType": "uint256",
							"name": "",
							"type": "uint256"
						}
					],
					"stateMutability": "view",
					"type": "function"
				},
				{
					"inputs": [
						{
							"internalType": "address",
							"name": "to",
							"type": "address"
						},
						{
							"internalType": "uint256",
							"name": "amount",
							"type": "uint256"
						}
					],
					"name": "transfer",
					"outputs": [
						{
							"internalType": "bool",
							"name": "",
							"type": "bool"
						}
					],
					"stateMutability": "nonpayable",
					"type": "function"
				},
				{
					"inputs": [
						{
							"internalType": "address",
							"name": "from",
							"type": "address"
						},
						{
							"internalType": "address",
							"name": "to",
							"type": "address"
						},
						{
							"internalType": "uint256",
							"name": "amount",
							"type": "uint256"
						}
					],
					"name": "transferFrom",
					"outputs": [
						{
							"internalType": "bool",
							"name": "",
							"type": "bool"
						}
					],
					"stateMutability": "nonpayable",
					"type": "function"
				},
				{
					"inputs": [],
					"name": "voteForProjectPayment",
					"outputs": [],
					"stateMutability": "nonpayable",
					"type": "function"
				},
				{
					"inputs": [
						{
							"internalType": "uint256",
							"name": "projectid",
							"type": "uint256"
						},
						{
							"internalType": "bool",
							"name": "choice",
							"type": "bool"
						}
					],
					"name": "voteForProjectProposal",
					"outputs": [],
					"stateMutability": "nonpayable",
					"type": "function"
				},
				{
					"inputs": [
						{
							"internalType": "address",
							"name": "",
							"type": "address"
						}
					],
					"name": "voters",
					"outputs": [
						{
							"internalType": "uint256",
							"name": "weight",
							"type": "uint256"
						},
						{
							"internalType": "bool",
							"name": "voted",
							"type": "bool"
						},
						{
							"internalType": "address",
							"name": "delegate",
							"type": "address"
						},
						{
							"internalType": "uint256",
							"name": "votedProposal",
							"type": "uint256"
						}
					],
					"stateMutability": "view",
					"type": "function"
				},
				{
					"inputs": [],
					"name": "withdrawProjectPayment",
					"outputs": [],
					"stateMutability": "nonpayable",
					"type": "function"
				}
			],
			"devdoc": {
				"kind": "dev",
				"methods": {
					"allowance(address,address)": {
						"details": "See {IERC20-allowance}."
					},
					"approve(address,uint256)": {
						"details": "See {IERC20-approve}. NOTE: If `amount` is the maximum `uint256`, the allowance is not updated on `transferFrom`. This is semantically equivalent to an infinite approval. Requirements: - `spender` cannot be the zero address."
					},
					"balanceOf(address)": {
						"details": "See {IERC20-balanceOf}."
					},
					"decimals()": {
						"details": "Returns the number of decimals used to get its user representation. For example, if `decimals` equals `2`, a balance of `505` tokens should be displayed to a user as `5.05` (`505 / 10 ** 2`). Tokens usually opt for a value of 18, imitating the relationship between Ether and Wei. This is the value {ERC20} uses, unless this function is overridden; NOTE: This information is only used for _display_ purposes: it in no way affects any of the arithmetic of the contract, including {IERC20-balanceOf} and {IERC20-transfer}."
					},
					"decreaseAllowance(address,uint256)": {
						"details": "Atomically decreases the allowance granted to `spender` by the caller. This is an alternative to {approve} that can be used as a mitigation for problems described in {IERC20-approve}. Emits an {Approval} event indicating the updated allowance. Requirements: - `spender` cannot be the zero address. - `spender` must have allowance for the caller of at least `subtractedValue`."
					},
					"increaseAllowance(address,uint256)": {
						"details": "Atomically increases the allowance granted to `spender` by the caller. This is an alternative to {approve} that can be used as a mitigation for problems described in {IERC20-approve}. Emits an {Approval} event indicating the updated allowance. Requirements: - `spender` cannot be the zero address."
					},
					"name()": {
						"details": "Returns the name of the token."
					},
					"symbol()": {
						"details": "Returns the symbol of the token, usually a shorter version of the name."
					},
					"totalSupply()": {
						"details": "See {IERC20-totalSupply}."
					},
					"transfer(address,uint256)": {
						"details": "See {IERC20-transfer}. Requirements: - `to` cannot be the zero address. - the caller must have a balance of at least `amount`."
					},
					"transferFrom(address,address,uint256)": {
						"details": "See {IERC20-transferFrom}. Emits an {Approval} event indicating the updated allowance. This is not required by the EIP. See the note at the beginning of {ERC20}. NOTE: Does not update the allowance if the current allowance is the maximum `uint256`. Requirements: - `from` and `to` cannot be the zero address. - `from` must have a balance of at least `amount`. - the caller must have allowance for ``from``'s tokens of at least `amount`."
					}
				},
				"version": 1
			},
			"evm": {
				"assembly": "    /* \"contracts/MyGov.sol\":327:3849  contract MyGovToken is ERC20(\"MyGov Token\", \"MGT\"){... */\n  mstore(0x40, 0x80)\n    /* \"contracts/MyGov.sol\":388:516  constructor(uint tokensupply) {... */\n  callvalue\n  dup1\n  iszero\n  tag_1\n  jumpi\n  0x00\n  dup1\n  revert\ntag_1:\n  pop\n  mload(0x40)\n  sub(codesize, bytecodeSize)\n  dup1\n  bytecodeSize\n  dup4\n  codecopy\n  dup2\n  dup2\n  add\n  0x40\n  mstore\n  dup2\n  add\n  swap1\n  tag_2\n  swap2\n  swap1\n  tag_3\n  jump\t// in\ntag_2:\n    /* \"@openzeppelin/contracts/token/ERC20/ERC20.sol\":1976:2089  constructor(string memory name_, string memory symbol_) {... */\n  mload(0x40)\n  dup1\n  0x40\n  add\n  0x40\n  mstore\n  dup1\n  0x0b\n  dup2\n  mstore\n  0x20\n  add\n  0x4d79476f7620546f6b656e000000000000000000000000000000000000000000\n  dup2\n  mstore\n  pop\n  mload(0x40)\n  dup1\n  0x40\n  add\n  0x40\n  mstore\n  dup1\n  0x03\n  dup2\n  mstore\n  0x20\n  add\n  0x4d47540000000000000000000000000000000000000000000000000000000000\n  dup2\n  mstore\n  pop\n    /* \"@openzeppelin/contracts/token/ERC20/ERC20.sol\":2050:2055  name_ */\n  dup2\n    /* \"@openzeppelin/contracts/token/ERC20/ERC20.sol\":2042:2047  _name */\n  0x03\n    /* \"@openzeppelin/contracts/token/ERC20/ERC20.sol\":2042:2055  _name = name_ */\n  swap1\n  dup1\n  mload\n  swap1\n  0x20\n  add\n  swap1\n  tag_7\n  swap3\n  swap2\n  swap1\n  tag_8\n  jump\t// in\ntag_7:\n  pop\n    /* \"@openzeppelin/contracts/token/ERC20/ERC20.sol\":2075:2082  symbol_ */\n  dup1\n    /* \"@openzeppelin/contracts/token/ERC20/ERC20.sol\":2065:2072  _symbol */\n  0x04\n    /* \"@openzeppelin/contracts/token/ERC20/ERC20.sol\":2065:2082  _symbol = symbol_ */\n  swap1\n  dup1\n  mload\n  swap1\n  0x20\n  add\n  swap1\n  tag_9\n  swap3\n  swap2\n  swap1\n  tag_8\n  jump\t// in\ntag_9:\n  pop\n    /* \"@openzeppelin/contracts/token/ERC20/ERC20.sol\":1976:2089  constructor(string memory name_, string memory symbol_) {... */\n  pop\n  pop\n    /* \"contracts/MyGov.sol\":449:459  msg.sender */\n  caller\n    /* \"contracts/MyGov.sol\":428:438  tokenOwner */\n  0x05\n  0x00\n    /* \"contracts/MyGov.sol\":428:460  tokenOwner = payable(msg.sender) */\n  0x0100\n  exp\n  dup2\n  sload\n  dup2\n  0xffffffffffffffffffffffffffffffffffffffff\n  mul\n  not\n  and\n  swap1\n  dup4\n  0xffffffffffffffffffffffffffffffffffffffff\n  and\n  mul\n  or\n  swap1\n  sstore\n  pop\n    /* \"contracts/MyGov.sol\":470:509  _mint(msg.sender, tokensupply * 10**18) */\n  tag_11\n    /* \"contracts/MyGov.sol\":476:486  msg.sender */\n  caller\n    /* \"contracts/MyGov.sol\":502:508  10**18 */\n  0x0de0b6b3a7640000\n    /* \"contracts/MyGov.sol\":488:499  tokensupply */\n  dup4\n    /* \"contracts/MyGov.sol\":488:508  tokensupply * 10**18 */\n  tag_12\n  swap2\n  swap1\n  tag_13\n  jump\t// in\ntag_12:\n    /* \"contracts/MyGov.sol\":470:475  _mint */\n  shl(0x20, tag_14)\n    /* \"contracts/MyGov.sol\":470:509  _mint(msg.sender, tokensupply * 10**18) */\n  0x20\n  shr\n  jump\t// in\ntag_11:\n    /* \"contracts/MyGov.sol\":388:516  constructor(uint tokensupply) {... */\n  pop\n    /* \"contracts/MyGov.sol\":327:3849  contract MyGovToken is ERC20(\"MyGov Token\", \"MGT\"){... */\n  jump(tag_15)\n    /* \"@openzeppelin/contracts/token/ERC20/ERC20.sol\":8567:9102  function _mint(address account, uint256 amount) internal virtual {... */\ntag_14:\n    /* \"@openzeppelin/contracts/token/ERC20/ERC20.sol\":8669:8670  0 */\n  0x00\n    /* \"@openzeppelin/contracts/token/ERC20/ERC20.sol\":8650:8671  account != address(0) */\n  0xffffffffffffffffffffffffffffffffffffffff\n  and\n    /* \"@openzeppelin/contracts/token/ERC20/ERC20.sol\":8650:8657  account */\n  dup3\n    /* \"@openzeppelin/contracts/token/ERC20/ERC20.sol\":8650:8671  account != address(0) */\n  0xffffffffffffffffffffffffffffffffffffffff\n  and\n  eq\n  iszero\n    /* \"@openzeppelin/contracts/token/ERC20/ERC20.sol\":8642:8707  require(account != address(0), \"ERC20: mint to the zero address\") */\n  tag_17\n  jumpi\n  mload(0x40)\n  0x08c379a000000000000000000000000000000000000000000000000000000000\n  dup2\n  mstore\n  0x04\n  add\n  tag_18\n  swap1\n  tag_19\n  jump\t// in\ntag_18:\n  mload(0x40)\n  dup1\n  swap2\n  sub\n  swap1\n  revert\ntag_17:\n    /* \"@openzeppelin/contracts/token/ERC20/ERC20.sol\":8718:8767  _beforeTokenTransfer(address(0), account, amount) */\n  tag_20\n    /* \"@openzeppelin/contracts/token/ERC20/ERC20.sol\":8747:8748  0 */\n  0x00\n    /* \"@openzeppelin/contracts/token/ERC20/ERC20.sol\":8751:8758  account */\n  dup4\n    /* \"@openzeppelin/contracts/token/ERC20/ERC20.sol\":8760:8766  amount */\n  dup4\n    /* \"@openzeppelin/contracts/token/ERC20/ERC20.sol\":8718:8738  _beforeTokenTransfer */\n  shl(0x20, tag_21)\n    /* \"@openzeppelin/contracts/token/ERC20/ERC20.sol\":8718:8767  _beforeTokenTransfer(address(0), account, amount) */\n  0x20\n  shr\n  jump\t// in\ntag_20:\n    /* \"@openzeppelin/contracts/token/ERC20/ERC20.sol\":8794:8800  amount */\n  dup1\n    /* \"@openzeppelin/contracts/token/ERC20/ERC20.sol\":8778:8790  _totalSupply */\n  0x02\n  0x00\n    /* \"@openzeppelin/contracts/token/ERC20/ERC20.sol\":8778:8800  _totalSupply += amount */\n  dup3\n  dup3\n  sload\n  tag_22\n  swap2\n  swap1\n  tag_23\n  jump\t// in\ntag_22:\n  swap3\n  pop\n  pop\n  dup2\n  swap1\n  sstore\n  pop\n    /* \"@openzeppelin/contracts/token/ERC20/ERC20.sol\":8968:8974  amount */\n  dup1\n    /* \"@openzeppelin/contracts/token/ERC20/ERC20.sol\":8946:8955  _balances */\n  0x00\n    /* \"@openzeppelin/contracts/token/ERC20/ERC20.sol\":8946:8964  _balances[account] */\n  dup1\n    /* \"@openzeppelin/contracts/token/ERC20/ERC20.sol\":8956:8963  account */\n  dup5\n    /* \"@openzeppelin/contracts/token/ERC20/ERC20.sol\":8946:8964  _balances[account] */\n  0xffffffffffffffffffffffffffffffffffffffff\n  and\n  0xffffffffffffffffffffffffffffffffffffffff\n  and\n  dup2\n  mstore\n  0x20\n  add\n  swap1\n  dup2\n  mstore\n  0x20\n  add\n  0x00\n  keccak256\n  0x00\n    /* \"@openzeppelin/contracts/token/ERC20/ERC20.sol\":8946:8974  _balances[account] += amount */\n  dup3\n  dup3\n  sload\n  add\n  swap3\n  pop\n  pop\n  dup2\n  swap1\n  sstore\n  pop\n    /* \"@openzeppelin/contracts/token/ERC20/ERC20.sol\":9020:9027  account */\n  dup2\n    /* \"@openzeppelin/contracts/token/ERC20/ERC20.sol\":8999:9036  Transfer(address(0), account, amount) */\n  0xffffffffffffffffffffffffffffffffffffffff\n  and\n    /* \"@openzeppelin/contracts/token/ERC20/ERC20.sol\":9016:9017  0 */\n  0x00\n    /* \"@openzeppelin/contracts/token/ERC20/ERC20.sol\":8999:9036  Transfer(address(0), account, amount) */\n  0xffffffffffffffffffffffffffffffffffffffff\n  and\n  0xddf252ad1be2c89b69c2b068fc378daa952ba7f163c4a11628f55a4df523b3ef\n    /* \"@openzeppelin/contracts/token/ERC20/ERC20.sol\":9029:9035  amount */\n  dup4\n    /* \"@openzeppelin/contracts/token/ERC20/ERC20.sol\":8999:9036  Transfer(address(0), account, amount) */\n  mload(0x40)\n  tag_24\n  swap2\n  swap1\n  tag_25\n  jump\t// in\ntag_24:\n  mload(0x40)\n  dup1\n  swap2\n  sub\n  swap1\n  log3\n    /* \"@openzeppelin/contracts/token/ERC20/ERC20.sol\":9047:9095  _afterTokenTransfer(address(0), account, amount) */\n  tag_26\n    /* \"@openzeppelin/contracts/token/ERC20/ERC20.sol\":9075:9076  0 */\n  0x00\n    /* \"@openzeppelin/contracts/token/ERC20/ERC20.sol\":9079:9086  account */\n  dup4\n    /* \"@openzeppelin/contracts/token/ERC20/ERC20.sol\":9088:9094  amount */\n  dup4\n    /* \"@openzeppelin/contracts/token/ERC20/ERC20.sol\":9047:9066  _afterTokenTransfer */\n  shl(0x20, tag_27)\n    /* \"@openzeppelin/contracts/token/ERC20/ERC20.sol\":9047:9095  _afterTokenTransfer(address(0), account, amount) */\n  0x20\n  shr\n  jump\t// in\ntag_26:\n    /* \"@openzeppelin/contracts/token/ERC20/ERC20.sol\":8567:9102  function _mint(address account, uint256 amount) internal virtual {... */\n  pop\n  pop\n  jump\t// out\n    /* \"@openzeppelin/contracts/token/ERC20/ERC20.sol\":12180:12301  function _beforeTokenTransfer(... */\ntag_21:\n  pop\n  pop\n  pop\n  jump\t// out\n    /* \"@openzeppelin/contracts/token/ERC20/ERC20.sol\":12889:13009  function _afterTokenTransfer(... */\ntag_27:\n  pop\n  pop\n  pop\n  jump\t// out\n    /* \"contracts/MyGov.sol\":327:3849  contract MyGovToken is ERC20(\"MyGov Token\", \"MGT\"){... */\ntag_8:\n  dup3\n  dup1\n  sload\n  tag_30\n  swap1\n  tag_31\n  jump\t// in\ntag_30:\n  swap1\n  0x00\n  mstore\n  keccak256(0x00, 0x20)\n  swap1\n  0x1f\n  add\n  0x20\n  swap1\n  div\n  dup2\n  add\n  swap3\n  dup3\n  tag_33\n  jumpi\n  0x00\n  dup6\n  sstore\n  jump(tag_32)\ntag_33:\n  dup3\n  0x1f\n  lt\n  tag_34\n  jumpi\n  dup1\n  mload\n  not(0xff)\n  and\n  dup4\n  dup1\n  add\n  or\n  dup6\n  sstore\n  jump(tag_32)\ntag_34:\n  dup3\n  dup1\n  add\n  0x01\n  add\n  dup6\n  sstore\n  dup3\n  iszero\n  tag_32\n  jumpi\n  swap2\n  dup3\n  add\ntag_35:\n  dup3\n  dup2\n  gt\n  iszero\n  tag_36\n  jumpi\n  dup3\n  mload\n  dup3\n  sstore\n  swap2\n  0x20\n  add\n  swap2\n  swap1\n  0x01\n  add\n  swap1\n  jump(tag_35)\ntag_36:\ntag_32:\n  pop\n  swap1\n  pop\n  tag_37\n  swap2\n  swap1\n  tag_38\n  jump\t// in\ntag_37:\n  pop\n  swap1\n  jump\t// out\ntag_38:\ntag_39:\n  dup1\n  dup3\n  gt\n  iszero\n  tag_40\n  jumpi\n  0x00\n  dup2\n  0x00\n  swap1\n  sstore\n  pop\n  0x01\n  add\n  jump(tag_39)\ntag_40:\n  pop\n  swap1\n  jump\t// out\n    /* \"#utility.yul\":7:150   */\ntag_42:\n  0x00\n    /* \"#utility.yul\":95:101   */\n  dup2\n    /* \"#utility.yul\":89:102   */\n  mload\n    /* \"#utility.yul\":80:102   */\n  swap1\n  pop\n    /* \"#utility.yul\":111:144   */\n  tag_44\n    /* \"#utility.yul\":138:143   */\n  dup2\n    /* \"#utility.yul\":111:144   */\n  tag_45\n  jump\t// in\ntag_44:\n    /* \"#utility.yul\":70:150   */\n  swap3\n  swap2\n  pop\n  pop\n  jump\t// out\n    /* \"#utility.yul\":156:440   */\ntag_3:\n  0x00\n    /* \"#utility.yul\":275:277   */\n  0x20\n    /* \"#utility.yul\":263:272   */\n  dup3\n    /* \"#utility.yul\":254:261   */\n  dup5\n    /* \"#utility.yul\":250:273   */\n  sub\n    /* \"#utility.yul\":246:278   */\n  slt\n    /* \"#utility.yul\":243:245   */\n  iszero\n  tag_47\n  jumpi\n    /* \"#utility.yul\":291:292   */\n  0x00\n    /* \"#utility.yul\":288:289   */\n  dup1\n    /* \"#utility.yul\":281:293   */\n  revert\n    /* \"#utility.yul\":243:245   */\ntag_47:\n    /* \"#utility.yul\":334:335   */\n  0x00\n    /* \"#utility.yul\":359:423   */\n  tag_48\n    /* \"#utility.yul\":415:422   */\n  dup5\n    /* \"#utility.yul\":406:412   */\n  dup3\n    /* \"#utility.yul\":395:404   */\n  dup6\n    /* \"#utility.yul\":391:413   */\n  add\n    /* \"#utility.yul\":359:423   */\n  tag_42\n  jump\t// in\ntag_48:\n    /* \"#utility.yul\":349:423   */\n  swap2\n  pop\n    /* \"#utility.yul\":305:433   */\n  pop\n    /* \"#utility.yul\":233:440   */\n  swap3\n  swap2\n  pop\n  pop\n  jump\t// out\n    /* \"#utility.yul\":446:775   */\ntag_49:\n  0x00\n    /* \"#utility.yul\":609:676   */\n  tag_51\n    /* \"#utility.yul\":673:675   */\n  0x1f\n    /* \"#utility.yul\":668:671   */\n  dup4\n    /* \"#utility.yul\":609:676   */\n  tag_52\n  jump\t// in\ntag_51:\n    /* \"#utility.yul\":602:676   */\n  swap2\n  pop\n    /* \"#utility.yul\":706:739   */\n  0x45524332303a206d696e7420746f20746865207a65726f206164647265737300\n    /* \"#utility.yul\":702:703   */\n  0x00\n    /* \"#utility.yul\":697:700   */\n  dup4\n    /* \"#utility.yul\":693:704   */\n  add\n    /* \"#utility.yul\":686:740   */\n  mstore\n    /* \"#utility.yul\":766:768   */\n  0x20\n    /* \"#utility.yul\":761:764   */\n  dup3\n    /* \"#utility.yul\":757:769   */\n  add\n    /* \"#utility.yul\":750:769   */\n  swap1\n  pop\n    /* \"#utility.yul\":592:775   */\n  swap2\n  swap1\n  pop\n  jump\t// out\n    /* \"#utility.yul\":781:899   */\ntag_53:\n    /* \"#utility.yul\":868:892   */\n  tag_55\n    /* \"#utility.yul\":886:891   */\n  dup2\n    /* \"#utility.yul\":868:892   */\n  tag_56\n  jump\t// in\ntag_55:\n    /* \"#utility.yul\":863:866   */\n  dup3\n    /* \"#utility.yul\":856:893   */\n  mstore\n    /* \"#utility.yul\":846:899   */\n  pop\n  pop\n  jump\t// out\n    /* \"#utility.yul\":905:1324   */\ntag_19:\n  0x00\n    /* \"#utility.yul\":1109:1111   */\n  0x20\n    /* \"#utility.yul\":1098:1107   */\n  dup3\n    /* \"#utility.yul\":1094:1112   */\n  add\n    /* \"#utility.yul\":1086:1112   */\n  swap1\n  pop\n    /* \"#utility.yul\":1158:1167   */\n  dup2\n    /* \"#utility.yul\":1152:1156   */\n  dup2\n    /* \"#utility.yul\":1148:1168   */\n  sub\n    /* \"#utility.yul\":1144:1145   */\n  0x00\n    /* \"#utility.yul\":1133:1142   */\n  dup4\n    /* \"#utility.yul\":1129:1146   */\n  add\n    /* \"#utility.yul\":1122:1169   */\n  mstore\n    /* \"#utility.yul\":1186:1317   */\n  tag_58\n    /* \"#utility.yul\":1312:1316   */\n  dup2\n    /* \"#utility.yul\":1186:1317   */\n  tag_49\n  jump\t// in\ntag_58:\n    /* \"#utility.yul\":1178:1317   */\n  swap1\n  pop\n    /* \"#utility.yul\":1076:1324   */\n  swap2\n  swap1\n  pop\n  jump\t// out\n    /* \"#utility.yul\":1330:1552   */\ntag_25:\n  0x00\n    /* \"#utility.yul\":1461:1463   */\n  0x20\n    /* \"#utility.yul\":1450:1459   */\n  dup3\n    /* \"#utility.yul\":1446:1464   */\n  add\n    /* \"#utility.yul\":1438:1464   */\n  swap1\n  pop\n    /* \"#utility.yul\":1474:1545   */\n  tag_60\n    /* \"#utility.yul\":1542:1543   */\n  0x00\n    /* \"#utility.yul\":1531:1540   */\n  dup4\n    /* \"#utility.yul\":1527:1544   */\n  add\n    /* \"#utility.yul\":1518:1524   */\n  dup5\n    /* \"#utility.yul\":1474:1545   */\n  tag_53\n  jump\t// in\ntag_60:\n    /* \"#utility.yul\":1428:1552   */\n  swap3\n  swap2\n  pop\n  pop\n  jump\t// out\n    /* \"#utility.yul\":1558:1727   */\ntag_52:\n  0x00\n    /* \"#utility.yul\":1676:1682   */\n  dup3\n    /* \"#utility.yul\":1671:1674   */\n  dup3\n    /* \"#utility.yul\":1664:1683   */\n  mstore\n    /* \"#utility.yul\":1716:1720   */\n  0x20\n    /* \"#utility.yul\":1711:1714   */\n  dup3\n    /* \"#utility.yul\":1707:1721   */\n  add\n    /* \"#utility.yul\":1692:1721   */\n  swap1\n  pop\n    /* \"#utility.yul\":1654:1727   */\n  swap3\n  swap2\n  pop\n  pop\n  jump\t// out\n    /* \"#utility.yul\":1733:2038   */\ntag_23:\n  0x00\n    /* \"#utility.yul\":1792:1812   */\n  tag_63\n    /* \"#utility.yul\":1810:1811   */\n  dup3\n    /* \"#utility.yul\":1792:1812   */\n  tag_56\n  jump\t// in\ntag_63:\n    /* \"#utility.yul\":1787:1812   */\n  swap2\n  pop\n    /* \"#utility.yul\":1826:1846   */\n  tag_64\n    /* \"#utility.yul\":1844:1845   */\n  dup4\n    /* \"#utility.yul\":1826:1846   */\n  tag_56\n  jump\t// in\ntag_64:\n    /* \"#utility.yul\":1821:1846   */\n  swap3\n  pop\n    /* \"#utility.yul\":1980:1981   */\n  dup3\n    /* \"#utility.yul\":1912:1978   */\n  0xffffffffffffffffffffffffffffffffffffffffffffffffffffffffffffffff\n    /* \"#utility.yul\":1908:1982   */\n  sub\n    /* \"#utility.yul\":1905:1906   */\n  dup3\n    /* \"#utility.yul\":1902:1983   */\n  gt\n    /* \"#utility.yul\":1899:1901   */\n  iszero\n  tag_65\n  jumpi\n    /* \"#utility.yul\":1986:2004   */\n  tag_66\n  tag_67\n  jump\t// in\ntag_66:\n    /* \"#utility.yul\":1899:1901   */\ntag_65:\n    /* \"#utility.yul\":2030:2031   */\n  dup3\n    /* \"#utility.yul\":2027:2028   */\n  dup3\n    /* \"#utility.yul\":2023:2032   */\n  add\n    /* \"#utility.yul\":2016:2032   */\n  swap1\n  pop\n    /* \"#utility.yul\":1777:2038   */\n  swap3\n  swap2\n  pop\n  pop\n  jump\t// out\n    /* \"#utility.yul\":2044:2392   */\ntag_13:\n  0x00\n    /* \"#utility.yul\":2107:2127   */\n  tag_69\n    /* \"#utility.yul\":2125:2126   */\n  dup3\n    /* \"#utility.yul\":2107:2127   */\n  tag_56\n  jump\t// in\ntag_69:\n    /* \"#utility.yul\":2102:2127   */\n  swap2\n  pop\n    /* \"#utility.yul\":2141:2161   */\n  tag_70\n    /* \"#utility.yul\":2159:2160   */\n  dup4\n    /* \"#utility.yul\":2141:2161   */\n  tag_56\n  jump\t// in\ntag_70:\n    /* \"#utility.yul\":2136:2161   */\n  swap3\n  pop\n    /* \"#utility.yul\":2329:2330   */\n  dup2\n    /* \"#utility.yul\":2261:2327   */\n  0xffffffffffffffffffffffffffffffffffffffffffffffffffffffffffffffff\n    /* \"#utility.yul\":2257:2331   */\n  div\n    /* \"#utility.yul\":2254:2255   */\n  dup4\n    /* \"#utility.yul\":2251:2332   */\n  gt\n    /* \"#utility.yul\":2246:2247   */\n  dup3\n    /* \"#utility.yul\":2239:2248   */\n  iszero\n    /* \"#utility.yul\":2232:2249   */\n  iszero\n    /* \"#utility.yul\":2228:2333   */\n  and\n    /* \"#utility.yul\":2225:2227   */\n  iszero\n  tag_71\n  jumpi\n    /* \"#utility.yul\":2336:2354   */\n  tag_72\n  tag_67\n  jump\t// in\ntag_72:\n    /* \"#utility.yul\":2225:2227   */\ntag_71:\n    /* \"#utility.yul\":2384:2385   */\n  dup3\n    /* \"#utility.yul\":2381:2382   */\n  dup3\n    /* \"#utility.yul\":2377:2386   */\n  mul\n    /* \"#utility.yul\":2366:2386   */\n  swap1\n  pop\n    /* \"#utility.yul\":2092:2392   */\n  swap3\n  swap2\n  pop\n  pop\n  jump\t// out\n    /* \"#utility.yul\":2398:2475   */\ntag_56:\n  0x00\n    /* \"#utility.yul\":2464:2469   */\n  dup2\n    /* \"#utility.yul\":2453:2469   */\n  swap1\n  pop\n    /* \"#utility.yul\":2443:2475   */\n  swap2\n  swap1\n  pop\n  jump\t// out\n    /* \"#utility.yul\":2481:2801   */\ntag_31:\n  0x00\n    /* \"#utility.yul\":2562:2563   */\n  0x02\n    /* \"#utility.yul\":2556:2560   */\n  dup3\n    /* \"#utility.yul\":2552:2564   */\n  div\n    /* \"#utility.yul\":2542:2564   */\n  swap1\n  pop\n    /* \"#utility.yul\":2609:2610   */\n  0x01\n    /* \"#utility.yul\":2603:2607   */\n  dup3\n    /* \"#utility.yul\":2599:2611   */\n  and\n    /* \"#utility.yul\":2630:2648   */\n  dup1\n    /* \"#utility.yul\":2620:2622   */\n  tag_75\n  jumpi\n    /* \"#utility.yul\":2686:2690   */\n  0x7f\n    /* \"#utility.yul\":2678:2684   */\n  dup3\n    /* \"#utility.yul\":2674:2691   */\n  and\n    /* \"#utility.yul\":2664:2691   */\n  swap2\n  pop\n    /* \"#utility.yul\":2620:2622   */\ntag_75:\n    /* \"#utility.yul\":2748:2750   */\n  0x20\n    /* \"#utility.yul\":2740:2746   */\n  dup3\n    /* \"#utility.yul\":2737:2751   */\n  lt\n    /* \"#utility.yul\":2717:2735   */\n  dup2\n    /* \"#utility.yul\":2714:2752   */\n  eq\n    /* \"#utility.yul\":2711:2713   */\n  iszero\n  tag_76\n  jumpi\n    /* \"#utility.yul\":2767:2785   */\n  tag_77\n  tag_78\n  jump\t// in\ntag_77:\n    /* \"#utility.yul\":2711:2713   */\ntag_76:\n    /* \"#utility.yul\":2532:2801   */\n  pop\n  swap2\n  swap1\n  pop\n  jump\t// out\n    /* \"#utility.yul\":2807:2987   */\ntag_67:\n    /* \"#utility.yul\":2855:2932   */\n  0x4e487b7100000000000000000000000000000000000000000000000000000000\n    /* \"#utility.yul\":2852:2853   */\n  0x00\n    /* \"#utility.yul\":2845:2933   */\n  mstore\n    /* \"#utility.yul\":2952:2956   */\n  0x11\n    /* \"#utility.yul\":2949:2950   */\n  0x04\n    /* \"#utility.yul\":2942:2957   */\n  mstore\n    /* \"#utility.yul\":2976:2980   */\n  0x24\n    /* \"#utility.yul\":2973:2974   */\n  0x00\n    /* \"#utility.yul\":2966:2981   */\n  revert\n    /* \"#utility.yul\":2993:3173   */\ntag_78:\n    /* \"#utility.yul\":3041:3118   */\n  0x4e487b7100000000000000000000000000000000000000000000000000000000\n    /* \"#utility.yul\":3038:3039   */\n  0x00\n    /* \"#utility.yul\":3031:3119   */\n  mstore\n    /* \"#utility.yul\":3138:3142   */\n  0x22\n    /* \"#utility.yul\":3135:3136   */\n  0x04\n    /* \"#utility.yul\":3128:3143   */\n  mstore\n    /* \"#utility.yul\":3162:3166   */\n  0x24\n    /* \"#utility.yul\":3159:3160   */\n  0x00\n    /* \"#utility.yul\":3152:3167   */\n  revert\n    /* \"#utility.yul\":3179:3301   */\ntag_45:\n    /* \"#utility.yul\":3252:3276   */\n  tag_82\n    /* \"#utility.yul\":3270:3275   */\n  dup2\n    /* \"#utility.yul\":3252:3276   */\n  tag_56\n  jump\t// in\ntag_82:\n    /* \"#utility.yul\":3245:3250   */\n  dup2\n    /* \"#utility.yul\":3242:3277   */\n  eq\n    /* \"#utility.yul\":3232:3234   */\n  tag_83\n  jumpi\n    /* \"#utility.yul\":3291:3292   */\n  0x00\n    /* \"#utility.yul\":3288:3289   */\n  dup1\n    /* \"#utility.yul\":3281:3293   */\n  revert\n    /* \"#utility.yul\":3232:3234   */\ntag_83:\n    /* \"#utility.yul\":3222:3301   */\n  pop\n  jump\t// out\n    /* \"contracts/MyGov.sol\":327:3849  contract MyGovToken is ERC20(\"MyGov Token\", \"MGT\"){... */\ntag_15:\n  dataSize(sub_0)\n  dup1\n  dataOffset(sub_0)\n  0x00\n  codecopy\n  0x00\n  return\nstop\n\nsub_0: assembly {\n        /* \"contracts/MyGov.sol\":327:3849  contract MyGovToken is ERC20(\"MyGov Token\", \"MGT\"){... */\n      mstore(0x40, 0x80)\n      jumpi(tag_1, lt(calldatasize, 0x04))\n      shr(0xe0, calldataload(0x00))\n      dup1\n      0x863451dd\n      gt\n      tag_37\n      jumpi\n      dup1\n      0xa5e898e1\n      gt\n      tag_38\n      jumpi\n      dup1\n      0xbf50556d\n      gt\n      tag_39\n      jumpi\n      dup1\n      0xbf50556d\n      eq\n      tag_32\n      jumpi\n      dup1\n      0xdd62ed3e\n      eq\n      tag_33\n      jumpi\n      dup1\n      0xe00e03f9\n      eq\n      tag_34\n      jumpi\n      dup1\n      0xe6d68595\n      eq\n      tag_35\n      jumpi\n      dup1\n      0xf22449ba\n      eq\n      tag_36\n      jumpi\n      jump(tag_1)\n    tag_39:\n      dup1\n      0xa5e898e1\n      eq\n      tag_28\n      jumpi\n      dup1\n      0xa9059cbb\n      eq\n      tag_29\n      jumpi\n      dup1\n      0xaf60d560\n      eq\n      tag_30\n      jumpi\n      dup1\n      0xbafc462d\n      eq\n      tag_31\n      jumpi\n      jump(tag_1)\n    tag_38:\n      dup1\n      0x95d89b41\n      gt\n      tag_40\n      jumpi\n      dup1\n      0x95d89b41\n      eq\n      tag_23\n      jumpi\n      dup1\n      0x97cfe54b\n      eq\n      tag_24\n      jumpi\n      dup1\n      0xa1669b32\n      eq\n      tag_25\n      jumpi\n      dup1\n      0xa3ec138d\n      eq\n      tag_26\n      jumpi\n      dup1\n      0xa457c2d7\n      eq\n      tag_27\n      jumpi\n      jump(tag_1)\n    tag_40:\n      dup1\n      0x863451dd\n      eq\n      tag_19\n      jumpi\n      dup1\n      0x86e68b90\n      eq\n      tag_20\n      jumpi\n      dup1\n      0x875b5076\n      eq\n      tag_21\n      jumpi\n      dup1\n      0x8fbe3750\n      eq\n      tag_22\n      jumpi\n      jump(tag_1)\n    tag_37:\n      dup1\n      0x313ce567\n      gt\n      tag_41\n      jumpi\n      dup1\n      0x5d801b37\n      gt\n      tag_42\n      jumpi\n      dup1\n      0x5d801b37\n      eq\n      tag_14\n      jumpi\n      dup1\n      0x67c897fe\n      eq\n      tag_15\n      jumpi\n      dup1\n      0x70a08231\n      eq\n      tag_16\n      jumpi\n      dup1\n      0x70e1133c\n      eq\n      tag_17\n      jumpi\n      dup1\n      0x72a4e9ba\n      eq\n      tag_18\n      jumpi\n      jump(tag_1)\n    tag_42:\n      dup1\n      0x313ce567\n      eq\n      tag_10\n      jumpi\n      dup1\n      0x35655237\n      eq\n      tag_11\n      jumpi\n      dup1\n      0x39509351\n      eq\n      tag_12\n      jumpi\n      dup1\n      0x39c94d2d\n      eq\n      tag_13\n      jumpi\n      jump(tag_1)\n    tag_41:\n      dup1\n      0x164dfd3b\n      gt\n      tag_43\n      jumpi\n      dup1\n      0x164dfd3b\n      eq\n      tag_6\n      jumpi\n      dup1\n      0x18160ddd\n      eq\n      tag_7\n      jumpi\n      dup1\n      0x23b872dd\n      eq\n      tag_8\n      jumpi\n      dup1\n      0x23fd498b\n      eq\n      tag_9\n      jumpi\n      jump(tag_1)\n    tag_43:\n      dup1\n      0x013cf08b\n      eq\n      tag_2\n      jumpi\n      dup1\n      0x033cb2d3\n      eq\n      tag_3\n      jumpi\n      dup1\n      0x06fdde03\n      eq\n      tag_4\n      jumpi\n      dup1\n      0x095ea7b3\n      eq\n      tag_5\n      jumpi\n    tag_1:\n      0x00\n      dup1\n      revert\n        /* \"contracts/MyGov.sol\":936:963  Proposal[] public proposals */\n    tag_2:\n      callvalue\n      dup1\n      iszero\n      tag_44\n      jumpi\n      0x00\n      dup1\n      revert\n    tag_44:\n      pop\n      tag_45\n      0x04\n      dup1\n      calldatasize\n      sub\n      dup2\n      add\n      swap1\n      tag_46\n      swap2\n      swap1\n      tag_47\n      jump\t// in\n    tag_46:\n      tag_48\n      jump\t// in\n    tag_45:\n      mload(0x40)\n      tag_49\n      swap5\n      swap4\n      swap3\n      swap2\n      swap1\n      tag_50\n      jump\t// in\n    tag_49:\n      mload(0x40)\n      dup1\n      swap2\n      sub\n      swap1\n      return\n        /* \"contracts/MyGov.sol\":2393:2463  function takeSurvey()public{... */\n    tag_3:\n      callvalue\n      dup1\n      iszero\n      tag_51\n      jumpi\n      0x00\n      dup1\n      revert\n    tag_51:\n      pop\n      tag_52\n      tag_53\n      jump\t// in\n    tag_52:\n      stop\n        /* \"@openzeppelin/contracts/token/ERC20/ERC20.sol\":2154:2252  function name() public view virtual override returns (string memory) {... */\n    tag_4:\n      callvalue\n      dup1\n      iszero\n      tag_54\n      jumpi\n      0x00\n      dup1\n      revert\n    tag_54:\n      pop\n      tag_55\n      tag_56\n      jump\t// in\n    tag_55:\n      mload(0x40)\n      tag_57\n      swap2\n      swap1\n      tag_58\n      jump\t// in\n    tag_57:\n      mload(0x40)\n      dup1\n      swap2\n      sub\n      swap1\n      return\n        /* \"@openzeppelin/contracts/token/ERC20/ERC20.sol\":4431:4628  function approve(address spender, uint256 amount) public virtual override returns (bool) {... */\n    tag_5:\n      callvalue\n      dup1\n      iszero\n      tag_59\n      jumpi\n      0x00\n      dup1\n      revert\n    tag_59:\n      pop\n      tag_60\n      0x04\n      dup1\n      calldatasize\n      sub\n      dup2\n      add\n      swap1\n      tag_61\n      swap2\n      swap1\n      tag_62\n      jump\t// in\n    tag_61:\n      tag_63\n      jump\t// in\n    tag_60:\n      mload(0x40)\n      tag_64\n      swap2\n      swap1\n      tag_65\n      jump\t// in\n    tag_64:\n      mload(0x40)\n      dup1\n      swap2\n      sub\n      swap1\n      return\n        /* \"contracts/MyGov.sol\":3648:3733  function getEtherReceivedByProject()public{... */\n    tag_6:\n      callvalue\n      dup1\n      iszero\n      tag_66\n      jumpi\n      0x00\n      dup1\n      revert\n    tag_66:\n      pop\n      tag_67\n      tag_68\n      jump\t// in\n    tag_67:\n      stop\n        /* \"@openzeppelin/contracts/token/ERC20/ERC20.sol\":3242:3348  function totalSupply() public view virtual override returns (uint256) {... */\n    tag_7:\n      callvalue\n      dup1\n      iszero\n      tag_69\n      jumpi\n      0x00\n      dup1\n      revert\n    tag_69:\n      pop\n      tag_70\n      tag_71\n      jump\t// in\n    tag_70:\n      mload(0x40)\n      tag_72\n      swap2\n      swap1\n      tag_73\n      jump\t// in\n    tag_72:\n      mload(0x40)\n      dup1\n      swap2\n      sub\n      swap1\n      return\n        /* \"@openzeppelin/contracts/token/ERC20/ERC20.sol\":5190:5476  function transferFrom(... */\n    tag_8:\n      callvalue\n      dup1\n      iszero\n      tag_74\n      jumpi\n      0x00\n      dup1\n      revert\n    tag_74:\n      pop\n      tag_75\n      0x04\n      dup1\n      calldatasize\n      sub\n      dup2\n      add\n      swap1\n      tag_76\n      swap2\n      swap1\n      tag_77\n      jump\t// in\n    tag_76:\n      tag_78\n      jump\t// in\n    tag_75:\n      mload(0x40)\n      tag_79\n      swap2\n      swap1\n      tag_65\n      jump\t// in\n    tag_79:\n      mload(0x40)\n      dup1\n      swap2\n      sub\n      swap1\n      return\n        /* \"contracts/MyGov.sol\":3237:3363  function getNoOfProjectProposals() public view returns (uint numofproposals){... */\n    tag_9:\n      callvalue\n      dup1\n      iszero\n      tag_80\n      jumpi\n      0x00\n      dup1\n      revert\n    tag_80:\n      pop\n      tag_81\n      tag_82\n      jump\t// in\n    tag_81:\n      mload(0x40)\n      tag_83\n      swap2\n      swap1\n      tag_73\n      jump\t// in\n    tag_83:\n      mload(0x40)\n      dup1\n      swap2\n      sub\n      swap1\n      return\n        /* \"@openzeppelin/contracts/token/ERC20/ERC20.sol\":3091:3182  function decimals() public view virtual override returns (uint8) {... */\n    tag_10:\n      callvalue\n      dup1\n      iszero\n      tag_84\n      jumpi\n      0x00\n      dup1\n      revert\n    tag_84:\n      pop\n      tag_85\n      tag_86\n      jump\t// in\n    tag_85:\n      mload(0x40)\n      tag_87\n      swap2\n      swap1\n      tag_88\n      jump\t// in\n    tag_87:\n      mload(0x40)\n      dup1\n      swap2\n      sub\n      swap1\n      return\n        /* \"contracts/MyGov.sol\":2905:2983  function getIsProjectFunded()public{... */\n    tag_11:\n      callvalue\n      dup1\n      iszero\n      tag_89\n      jumpi\n      0x00\n      dup1\n      revert\n    tag_89:\n      pop\n      tag_90\n      tag_91\n      jump\t// in\n    tag_90:\n      stop\n        /* \"@openzeppelin/contracts/token/ERC20/ERC20.sol\":5871:6105  function increaseAllowance(address spender, uint256 addedValue) public virtual returns (bool) {... */\n    tag_12:\n      callvalue\n      dup1\n      iszero\n      tag_92\n      jumpi\n      0x00\n      dup1\n      revert\n    tag_92:\n      pop\n      tag_93\n      0x04\n      dup1\n      calldatasize\n      sub\n      dup2\n      add\n      swap1\n      tag_94\n      swap2\n      swap1\n      tag_62\n      jump\t// in\n    tag_94:\n      tag_95\n      jump\t// in\n    tag_93:\n      mload(0x40)\n      tag_96\n      swap2\n      swap1\n      tag_65\n      jump\t// in\n    tag_96:\n      mload(0x40)\n      dup1\n      swap2\n      sub\n      swap1\n      return\n        /* \"contracts/MyGov.sol\":1511:1602  function donateMyGovToken(uint amount) public {... */\n    tag_13:\n      callvalue\n      dup1\n      iszero\n      tag_97\n      jumpi\n      0x00\n      dup1\n      revert\n    tag_97:\n      pop\n      tag_98\n      0x04\n      dup1\n      calldatasize\n      sub\n      dup2\n      add\n      swap1\n      tag_99\n      swap2\n      swap1\n      tag_47\n      jump\t// in\n    tag_99:\n      tag_100\n      jump\t// in\n    tag_98:\n      stop\n        /* \"contracts/MyGov.sol\":3739:3847  function getNoOfSurveys() public view returns (uint numsurveys) {... */\n    tag_14:\n      callvalue\n      dup1\n      iszero\n      tag_101\n      jumpi\n      0x00\n      dup1\n      revert\n    tag_101:\n      pop\n      tag_102\n      tag_103\n      jump\t// in\n    tag_102:\n      mload(0x40)\n      tag_104\n      swap2\n      swap1\n      tag_73\n      jump\t// in\n    tag_104:\n      mload(0x40)\n      dup1\n      swap2\n      sub\n      swap1\n      return\n        /* \"contracts/MyGov.sol\":3157:3231  function getProjectInfo()public{... */\n    tag_15:\n      callvalue\n      dup1\n      iszero\n      tag_105\n      jumpi\n      0x00\n      dup1\n      revert\n    tag_105:\n      pop\n      tag_106\n      tag_107\n      jump\t// in\n    tag_106:\n      stop\n        /* \"@openzeppelin/contracts/token/ERC20/ERC20.sol\":3406:3531  function balanceOf(address account) public view virtual override returns (uint256) {... */\n    tag_16:\n      callvalue\n      dup1\n      iszero\n      tag_108\n      jumpi\n      0x00\n      dup1\n      revert\n    tag_108:\n      pop\n      tag_109\n      0x04\n      dup1\n      calldatasize\n      sub\n      dup2\n      add\n      swap1\n      tag_110\n      swap2\n      swap1\n      tag_111\n      jump\t// in\n    tag_110:\n      tag_112\n      jump\t// in\n    tag_109:\n      mload(0x40)\n      tag_113\n      swap2\n      swap1\n      tag_73\n      jump\t// in\n    tag_113:\n      mload(0x40)\n      dup1\n      swap2\n      sub\n      swap1\n      return\n        /* \"contracts/MyGov.sol\":2554:2636  function withdrawProjectPayment()public{... */\n    tag_17:\n      callvalue\n      dup1\n      iszero\n      tag_114\n      jumpi\n      0x00\n      dup1\n      revert\n    tag_114:\n      pop\n      tag_115\n      tag_116\n      jump\t// in\n    tag_115:\n      stop\n        /* \"contracts/MyGov.sol\":1868:1949  function voteForProjectPayment()public{... */\n    tag_18:\n      callvalue\n      dup1\n      iszero\n      tag_117\n      jumpi\n      0x00\n      dup1\n      revert\n    tag_117:\n      pop\n      tag_118\n      tag_119\n      jump\t// in\n    tag_118:\n      stop\n        /* \"contracts/MyGov.sol\":1424:1505  function donateEther() external payable {... */\n    tag_19:\n      tag_120\n      tag_121\n      jump\t// in\n    tag_120:\n      stop\n        /* \"contracts/MyGov.sol\":969:992  Survey[] public surveys */\n    tag_20:\n      callvalue\n      dup1\n      iszero\n      tag_122\n      jumpi\n      0x00\n      dup1\n      revert\n    tag_122:\n      pop\n      tag_123\n      0x04\n      dup1\n      calldatasize\n      sub\n      dup2\n      add\n      swap1\n      tag_124\n      swap2\n      swap1\n      tag_47\n      jump\t// in\n    tag_124:\n      tag_125\n      jump\t// in\n    tag_123:\n      mload(0x40)\n      tag_126\n      swap2\n      swap1\n      tag_127\n      jump\t// in\n    tag_126:\n      mload(0x40)\n      dup1\n      swap2\n      sub\n      swap1\n      return\n        /* \"contracts/MyGov.sol\":2803:2899  function getSurveyOwner(uint surveyid) public view returns(address surveyowner) {... */\n    tag_21:\n      callvalue\n      dup1\n      iszero\n      tag_128\n      jumpi\n      0x00\n      dup1\n      revert\n    tag_128:\n      pop\n      tag_129\n      0x04\n      dup1\n      calldatasize\n      sub\n      dup2\n      add\n      swap1\n      tag_130\n      swap2\n      swap1\n      tag_47\n      jump\t// in\n    tag_130:\n      tag_131\n      jump\t// in\n    tag_129:\n      mload(0x40)\n      tag_132\n      swap2\n      swap1\n      tag_133\n      jump\t// in\n    tag_132:\n      mload(0x40)\n      dup1\n      swap2\n      sub\n      swap1\n      return\n        /* \"contracts/MyGov.sol\":2642:2718  function getSurveyResults()public{... */\n    tag_22:\n      callvalue\n      dup1\n      iszero\n      tag_134\n      jumpi\n      0x00\n      dup1\n      revert\n    tag_134:\n      pop\n      tag_135\n      tag_136\n      jump\t// in\n    tag_135:\n      stop\n        /* \"@openzeppelin/contracts/token/ERC20/ERC20.sol\":2365:2467  function symbol() public view virtual override returns (string memory) {... */\n    tag_23:\n      callvalue\n      dup1\n      iszero\n      tag_137\n      jumpi\n      0x00\n      dup1\n      revert\n    tag_137:\n      pop\n      tag_138\n      tag_139\n      jump\t// in\n    tag_138:\n      mload(0x40)\n      tag_140\n      swap2\n      swap1\n      tag_58\n      jump\t// in\n    tag_140:\n      mload(0x40)\n      dup1\n      swap2\n      sub\n      swap1\n      return\n        /* \"contracts/MyGov.sol\":2315:2387  function submitSurvey()public{... */\n    tag_24:\n      callvalue\n      dup1\n      iszero\n      tag_141\n      jumpi\n      0x00\n      dup1\n      revert\n    tag_141:\n      pop\n      tag_142\n      tag_143\n      jump\t// in\n    tag_142:\n      stop\n        /* \"contracts/MyGov.sol\":999:1418  function delegateVoteTo(address memberaddr, uint projectid) public {... */\n    tag_25:\n      callvalue\n      dup1\n      iszero\n      tag_144\n      jumpi\n      0x00\n      dup1\n      revert\n    tag_144:\n      pop\n      tag_145\n      0x04\n      dup1\n      calldatasize\n      sub\n      dup2\n      add\n      swap1\n      tag_146\n      swap2\n      swap1\n      tag_62\n      jump\t// in\n    tag_146:\n      tag_147\n      jump\t// in\n    tag_145:\n      stop\n        /* \"contracts/MyGov.sol\":891:930  mapping(address => Voter) public voters */\n    tag_26:\n      callvalue\n      dup1\n      iszero\n      tag_148\n      jumpi\n      0x00\n      dup1\n      revert\n    tag_148:\n      pop\n      tag_149\n      0x04\n      dup1\n      calldatasize\n      sub\n      dup2\n      add\n      swap1\n      tag_150\n      swap2\n      swap1\n      tag_111\n      jump\t// in\n    tag_150:\n      tag_151\n      jump\t// in\n    tag_149:\n      mload(0x40)\n      tag_152\n      swap5\n      swap4\n      swap3\n      swap2\n      swap1\n      tag_153\n      jump\t// in\n    tag_152:\n      mload(0x40)\n      dup1\n      swap2\n      sub\n      swap1\n      return\n        /* \"@openzeppelin/contracts/token/ERC20/ERC20.sol\":6592:7019  function decreaseAllowance(address spender, uint256 subtractedValue) public virtual returns (bool) {... */\n    tag_27:\n      callvalue\n      dup1\n      iszero\n      tag_154\n      jumpi\n      0x00\n      dup1\n      revert\n    tag_154:\n      pop\n      tag_155\n      0x04\n      dup1\n      calldatasize\n      sub\n      dup2\n      add\n      swap1\n      tag_156\n      swap2\n      swap1\n      tag_62\n      jump\t// in\n    tag_156:\n      tag_157\n      jump\t// in\n    tag_155:\n      mload(0x40)\n      tag_158\n      swap2\n      swap1\n      tag_65\n      jump\t// in\n    tag_158:\n      mload(0x40)\n      dup1\n      swap2\n      sub\n      swap1\n      return\n        /* \"contracts/MyGov.sol\":1955:2309  function submitProjectProposal(... */\n    tag_28:\n      callvalue\n      dup1\n      iszero\n      tag_159\n      jumpi\n      0x00\n      dup1\n      revert\n    tag_159:\n      pop\n      tag_160\n      0x04\n      dup1\n      calldatasize\n      sub\n      dup2\n      add\n      swap1\n      tag_161\n      swap2\n      swap1\n      tag_162\n      jump\t// in\n    tag_161:\n      tag_163\n      jump\t// in\n    tag_160:\n      stop\n        /* \"@openzeppelin/contracts/token/ERC20/ERC20.sol\":3727:3916  function transfer(address to, uint256 amount) public virtual override returns (bool) {... */\n    tag_29:\n      callvalue\n      dup1\n      iszero\n      tag_164\n      jumpi\n      0x00\n      dup1\n      revert\n    tag_164:\n      pop\n      tag_165\n      0x04\n      dup1\n      calldatasize\n      sub\n      dup2\n      add\n      swap1\n      tag_166\n      swap2\n      swap1\n      tag_62\n      jump\t// in\n    tag_166:\n      tag_167\n      jump\t// in\n    tag_165:\n      mload(0x40)\n      tag_168\n      swap2\n      swap1\n      tag_65\n      jump\t// in\n    tag_168:\n      mload(0x40)\n      dup1\n      swap2\n      sub\n      swap1\n      return\n        /* \"contracts/MyGov.sol\":2724:2797  function getSurveyInfo()public{... */\n    tag_30:\n      callvalue\n      dup1\n      iszero\n      tag_169\n      jumpi\n      0x00\n      dup1\n      revert\n    tag_169:\n      pop\n      tag_170\n      tag_171\n      jump\t// in\n    tag_170:\n      stop\n        /* \"contracts/MyGov.sol\":2469:2548  function reserveProjectGrant()public{... */\n    tag_31:\n      callvalue\n      dup1\n      iszero\n      tag_172\n      jumpi\n      0x00\n      dup1\n      revert\n    tag_172:\n      pop\n      tag_173\n      tag_174\n      jump\t// in\n    tag_173:\n      stop\n        /* \"contracts/MyGov.sol\":3369:3642  function getNoOfFundedProjects() public view returns (uint numfunded){... */\n    tag_32:\n      callvalue\n      dup1\n      iszero\n      tag_175\n      jumpi\n      0x00\n      dup1\n      revert\n    tag_175:\n      pop\n      tag_176\n      tag_177\n      jump\t// in\n    tag_176:\n      mload(0x40)\n      tag_178\n      swap2\n      swap1\n      tag_73\n      jump\t// in\n    tag_178:\n      mload(0x40)\n      dup1\n      swap2\n      sub\n      swap1\n      return\n        /* \"@openzeppelin/contracts/token/ERC20/ERC20.sol\":3974:4123  function allowance(address owner, address spender) public view virtual override returns (uint256) {... */\n    tag_33:\n      callvalue\n      dup1\n      iszero\n      tag_179\n      jumpi\n      0x00\n      dup1\n      revert\n    tag_179:\n      pop\n      tag_180\n      0x04\n      dup1\n      calldatasize\n      sub\n      dup2\n      add\n      swap1\n      tag_181\n      swap2\n      swap1\n      tag_182\n      jump\t// in\n    tag_181:\n      tag_183\n      jump\t// in\n    tag_180:\n      mload(0x40)\n      tag_184\n      swap2\n      swap1\n      tag_73\n      jump\t// in\n    tag_184:\n      mload(0x40)\n      dup1\n      swap2\n      sub\n      swap1\n      return\n        /* \"contracts/MyGov.sol\":2989:3070  function getProjectNextPayment()public{... */\n    tag_34:\n      callvalue\n      dup1\n      iszero\n      tag_185\n      jumpi\n      0x00\n      dup1\n      revert\n    tag_185:\n      pop\n      tag_186\n      tag_187\n      jump\t// in\n    tag_186:\n      stop\n        /* \"contracts/MyGov.sol\":3076:3151  function getProjectOwner()public{... */\n    tag_35:\n      callvalue\n      dup1\n      iszero\n      tag_188\n      jumpi\n      0x00\n      dup1\n      revert\n    tag_188:\n      pop\n      tag_189\n      tag_190\n      jump\t// in\n    tag_189:\n      stop\n        /* \"contracts/MyGov.sol\":1608:1862  function voteForProjectProposal(uint projectid, bool choice) public {... */\n    tag_36:\n      callvalue\n      dup1\n      iszero\n      tag_191\n      jumpi\n      0x00\n      dup1\n      revert\n    tag_191:\n      pop\n      tag_192\n      0x04\n      dup1\n      calldatasize\n      sub\n      dup2\n      add\n      swap1\n      tag_193\n      swap2\n      swap1\n      tag_194\n      jump\t// in\n    tag_193:\n      tag_195\n      jump\t// in\n    tag_192:\n      stop\n        /* \"contracts/MyGov.sol\":936:963  Proposal[] public proposals */\n    tag_48:\n      0x07\n      dup2\n      dup2\n      sload\n      dup2\n      lt\n      tag_196\n      jumpi\n      0x00\n      dup1\n      revert\n    tag_196:\n      swap1\n      0x00\n      mstore\n      keccak256(0x00, 0x20)\n      swap1\n      0x03\n      mul\n      add\n      0x00\n      swap2\n      pop\n      swap1\n      pop\n      dup1\n      0x00\n      add\n      dup1\n      sload\n      tag_198\n      swap1\n      tag_199\n      jump\t// in\n    tag_198:\n      dup1\n      0x1f\n      add\n      0x20\n      dup1\n      swap2\n      div\n      mul\n      0x20\n      add\n      mload(0x40)\n      swap1\n      dup2\n      add\n      0x40\n      mstore\n      dup1\n      swap3\n      swap2\n      swap1\n      dup2\n      dup2\n      mstore\n      0x20\n      add\n      dup3\n      dup1\n      sload\n      tag_200\n      swap1\n      tag_199\n      jump\t// in\n    tag_200:\n      dup1\n      iszero\n      tag_201\n      jumpi\n      dup1\n      0x1f\n      lt\n      tag_202\n      jumpi\n      0x0100\n      dup1\n      dup4\n      sload\n      div\n      mul\n      dup4\n      mstore\n      swap2\n      0x20\n      add\n      swap2\n      jump(tag_201)\n    tag_202:\n      dup3\n      add\n      swap2\n      swap1\n      0x00\n      mstore\n      keccak256(0x00, 0x20)\n      swap1\n    tag_203:\n      dup2\n      sload\n      dup2\n      mstore\n      swap1\n      0x01\n      add\n      swap1\n      0x20\n      add\n      dup1\n      dup4\n      gt\n      tag_203\n      jumpi\n      dup3\n      swap1\n      sub\n      0x1f\n      and\n      dup3\n      add\n      swap2\n    tag_201:\n      pop\n      pop\n      pop\n      pop\n      pop\n      swap1\n      dup1\n      0x01\n      add\n      sload\n      swap1\n      dup1\n      0x02\n      add\n      0x00\n      swap1\n      sload\n      swap1\n      0x0100\n      exp\n      swap1\n      div\n      0xff\n      and\n      swap1\n      dup1\n      0x02\n      add\n      0x01\n      swap1\n      sload\n      swap1\n      0x0100\n      exp\n      swap1\n      div\n      0xff\n      and\n      swap1\n      pop\n      dup5\n      jump\t// out\n        /* \"contracts/MyGov.sol\":2393:2463  function takeSurvey()public{... */\n    tag_53:\n      jump\t// out\n        /* \"@openzeppelin/contracts/token/ERC20/ERC20.sol\":2154:2252  function name() public view virtual override returns (string memory) {... */\n    tag_56:\n        /* \"@openzeppelin/contracts/token/ERC20/ERC20.sol\":2208:2221  string memory */\n      0x60\n        /* \"@openzeppelin/contracts/token/ERC20/ERC20.sol\":2240:2245  _name */\n      0x03\n        /* \"@openzeppelin/contracts/token/ERC20/ERC20.sol\":2233:2245  return _name */\n      dup1\n      sload\n      tag_206\n      swap1\n      tag_199\n      jump\t// in\n    tag_206:\n      dup1\n      0x1f\n      add\n      0x20\n      dup1\n      swap2\n      div\n      mul\n      0x20\n      add\n      mload(0x40)\n      swap1\n      dup2\n      add\n      0x40\n      mstore\n      dup1\n      swap3\n      swap2\n      swap1\n      dup2\n      dup2\n      mstore\n      0x20\n      add\n      dup3\n      dup1\n      sload\n      tag_207\n      swap1\n      tag_199\n      jump\t// in\n    tag_207:\n      dup1\n      iszero\n      tag_208\n      jumpi\n      dup1\n      0x1f\n      lt\n      tag_209\n      jumpi\n      0x0100\n      dup1\n      dup4\n      sload\n      div\n      mul\n      dup4\n      mstore\n      swap2\n      0x20\n      add\n      swap2\n      jump(tag_208)\n    tag_209:\n      dup3\n      add\n      swap2\n      swap1\n      0x00\n      mstore\n      keccak256(0x00, 0x20)\n      swap1\n    tag_210:\n      dup2\n      sload\n      dup2\n      mstore\n      swap1\n      0x01\n      add\n      swap1\n      0x20\n      add\n      dup1\n      dup4\n      gt\n      tag_210\n      jumpi\n      dup3\n      swap1\n      sub\n      0x1f\n      and\n      dup3\n      add\n      swap2\n    tag_208:\n      pop\n      pop\n      pop\n      pop\n      pop\n      swap1\n      pop\n        /* \"@openzeppelin/contracts/token/ERC20/ERC20.sol\":2154:2252  function name() public view virtual override returns (string memory) {... */\n      swap1\n      jump\t// out\n        /* \"@openzeppelin/contracts/token/ERC20/ERC20.sol\":4431:4628  function approve(address spender, uint256 amount) public virtual override returns (bool) {... */\n    tag_63:\n        /* \"@openzeppelin/contracts/token/ERC20/ERC20.sol\":4514:4518  bool */\n      0x00\n        /* \"@openzeppelin/contracts/token/ERC20/ERC20.sol\":4530:4543  address owner */\n      dup1\n        /* \"@openzeppelin/contracts/token/ERC20/ERC20.sol\":4546:4558  _msgSender() */\n      tag_212\n        /* \"@openzeppelin/contracts/token/ERC20/ERC20.sol\":4546:4556  _msgSender */\n      tag_213\n        /* \"@openzeppelin/contracts/token/ERC20/ERC20.sol\":4546:4558  _msgSender() */\n      jump\t// in\n    tag_212:\n        /* \"@openzeppelin/contracts/token/ERC20/ERC20.sol\":4530:4558  address owner = _msgSender() */\n      swap1\n      pop\n        /* \"@openzeppelin/contracts/token/ERC20/ERC20.sol\":4568:4600  _approve(owner, spender, amount) */\n      tag_214\n        /* \"@openzeppelin/contracts/token/ERC20/ERC20.sol\":4577:4582  owner */\n      dup2\n        /* \"@openzeppelin/contracts/token/ERC20/ERC20.sol\":4584:4591  spender */\n      dup6\n        /* \"@openzeppelin/contracts/token/ERC20/ERC20.sol\":4593:4599  amount */\n      dup6\n        /* \"@openzeppelin/contracts/token/ERC20/ERC20.sol\":4568:4576  _approve */\n      tag_215\n        /* \"@openzeppelin/contracts/token/ERC20/ERC20.sol\":4568:4600  _approve(owner, spender, amount) */\n      jump\t// in\n    tag_214:\n        /* \"@openzeppelin/contracts/token/ERC20/ERC20.sol\":4617:4621  true */\n      0x01\n        /* \"@openzeppelin/contracts/token/ERC20/ERC20.sol\":4610:4621  return true */\n      swap2\n      pop\n      pop\n        /* \"@openzeppelin/contracts/token/ERC20/ERC20.sol\":4431:4628  function approve(address spender, uint256 amount) public virtual override returns (bool) {... */\n      swap3\n      swap2\n      pop\n      pop\n      jump\t// out\n        /* \"contracts/MyGov.sol\":3648:3733  function getEtherReceivedByProject()public{... */\n    tag_68:\n      jump\t// out\n        /* \"@openzeppelin/contracts/token/ERC20/ERC20.sol\":3242:3348  function totalSupply() public view virtual override returns (uint256) {... */\n    tag_71:\n        /* \"@openzeppelin/contracts/token/ERC20/ERC20.sol\":3303:3310  uint256 */\n      0x00\n        /* \"@openzeppelin/contracts/token/ERC20/ERC20.sol\":3329:3341  _totalSupply */\n      sload(0x02)\n        /* \"@openzeppelin/contracts/token/ERC20/ERC20.sol\":3322:3341  return _totalSupply */\n      swap1\n      pop\n        /* \"@openzeppelin/contracts/token/ERC20/ERC20.sol\":3242:3348  function totalSupply() public view virtual override returns (uint256) {... */\n      swap1\n      jump\t// out\n        /* \"@openzeppelin/contracts/token/ERC20/ERC20.sol\":5190:5476  function transferFrom(... */\n    tag_78:\n        /* \"@openzeppelin/contracts/token/ERC20/ERC20.sol\":5317:5321  bool */\n      0x00\n        /* \"@openzeppelin/contracts/token/ERC20/ERC20.sol\":5333:5348  address spender */\n      dup1\n        /* \"@openzeppelin/contracts/token/ERC20/ERC20.sol\":5351:5363  _msgSender() */\n      tag_219\n        /* \"@openzeppelin/contracts/token/ERC20/ERC20.sol\":5351:5361  _msgSender */\n      tag_213\n        /* \"@openzeppelin/contracts/token/ERC20/ERC20.sol\":5351:5363  _msgSender() */\n      jump\t// in\n    tag_219:\n        /* \"@openzeppelin/contracts/token/ERC20/ERC20.sol\":5333:5363  address spender = _msgSender() */\n      swap1\n      pop\n        /* \"@openzeppelin/contracts/token/ERC20/ERC20.sol\":5373:5411  _spendAllowance(from, spender, amount) */\n      tag_220\n        /* \"@openzeppelin/contracts/token/ERC20/ERC20.sol\":5389:5393  from */\n      dup6\n        /* \"@openzeppelin/contracts/token/ERC20/ERC20.sol\":5395:5402  spender */\n      dup3\n        /* \"@openzeppelin/contracts/token/ERC20/ERC20.sol\":5404:5410  amount */\n      dup6\n        /* \"@openzeppelin/contracts/token/ERC20/ERC20.sol\":5373:5388  _spendAllowance */\n      tag_221\n        /* \"@openzeppelin/contracts/token/ERC20/ERC20.sol\":5373:5411  _spendAllowance(from, spender, amount) */\n      jump\t// in\n    tag_220:\n        /* \"@openzeppelin/contracts/token/ERC20/ERC20.sol\":5421:5448  _transfer(from, to, amount) */\n      tag_222\n        /* \"@openzeppelin/contracts/token/ERC20/ERC20.sol\":5431:5435  from */\n      dup6\n        /* \"@openzeppelin/contracts/token/ERC20/ERC20.sol\":5437:5439  to */\n      dup6\n        /* \"@openzeppelin/contracts/token/ERC20/ERC20.sol\":5441:5447  amount */\n      dup6\n        /* \"@openzeppelin/contracts/token/ERC20/ERC20.sol\":5421:5430  _transfer */\n      tag_223\n        /* \"@openzeppelin/contracts/token/ERC20/ERC20.sol\":5421:5448  _transfer(from, to, amount) */\n      jump\t// in\n    tag_222:\n        /* \"@openzeppelin/contracts/token/ERC20/ERC20.sol\":5465:5469  true */\n      0x01\n        /* \"@openzeppelin/contracts/token/ERC20/ERC20.sol\":5458:5469  return true */\n      swap2\n      pop\n      pop\n        /* \"@openzeppelin/contracts/token/ERC20/ERC20.sol\":5190:5476  function transferFrom(... */\n      swap4\n      swap3\n      pop\n      pop\n      pop\n      jump\t// out\n        /* \"contracts/MyGov.sol\":3237:3363  function getNoOfProjectProposals() public view returns (uint numofproposals){... */\n    tag_82:\n        /* \"contracts/MyGov.sol\":3293:3312  uint numofproposals */\n      0x00\n        /* \"contracts/MyGov.sol\":3340:3349  proposals */\n      0x07\n        /* \"contracts/MyGov.sol\":3340:3356  proposals.length */\n      dup1\n      sload\n      swap1\n      pop\n        /* \"contracts/MyGov.sol\":3323:3356  numofproposals = proposals.length */\n      swap1\n      pop\n        /* \"contracts/MyGov.sol\":3237:3363  function getNoOfProjectProposals() public view returns (uint numofproposals){... */\n      swap1\n      jump\t// out\n        /* \"@openzeppelin/contracts/token/ERC20/ERC20.sol\":3091:3182  function decimals() public view virtual override returns (uint8) {... */\n    tag_86:\n        /* \"@openzeppelin/contracts/token/ERC20/ERC20.sol\":3149:3154  uint8 */\n      0x00\n        /* \"@openzeppelin/contracts/token/ERC20/ERC20.sol\":3173:3175  18 */\n      0x12\n        /* \"@openzeppelin/contracts/token/ERC20/ERC20.sol\":3166:3175  return 18 */\n      swap1\n      pop\n        /* \"@openzeppelin/contracts/token/ERC20/ERC20.sol\":3091:3182  function decimals() public view virtual override returns (uint8) {... */\n      swap1\n      jump\t// out\n        /* \"contracts/MyGov.sol\":2905:2983  function getIsProjectFunded()public{... */\n    tag_91:\n      jump\t// out\n        /* \"@openzeppelin/contracts/token/ERC20/ERC20.sol\":5871:6105  function increaseAllowance(address spender, uint256 addedValue) public virtual returns (bool) {... */\n    tag_95:\n        /* \"@openzeppelin/contracts/token/ERC20/ERC20.sol\":5959:5963  bool */\n      0x00\n        /* \"@openzeppelin/contracts/token/ERC20/ERC20.sol\":5975:5988  address owner */\n      dup1\n        /* \"@openzeppelin/contracts/token/ERC20/ERC20.sol\":5991:6003  _msgSender() */\n      tag_228\n        /* \"@openzeppelin/contracts/token/ERC20/ERC20.sol\":5991:6001  _msgSender */\n      tag_213\n        /* \"@openzeppelin/contracts/token/ERC20/ERC20.sol\":5991:6003  _msgSender() */\n      jump\t// in\n    tag_228:\n        /* \"@openzeppelin/contracts/token/ERC20/ERC20.sol\":5975:6003  address owner = _msgSender() */\n      swap1\n      pop\n        /* \"@openzeppelin/contracts/token/ERC20/ERC20.sol\":6013:6077  _approve(owner, spender, allowance(owner, spender) + addedValue) */\n      tag_229\n        /* \"@openzeppelin/contracts/token/ERC20/ERC20.sol\":6022:6027  owner */\n      dup2\n        /* \"@openzeppelin/contracts/token/ERC20/ERC20.sol\":6029:6036  spender */\n      dup6\n        /* \"@openzeppelin/contracts/token/ERC20/ERC20.sol\":6066:6076  addedValue */\n      dup6\n        /* \"@openzeppelin/contracts/token/ERC20/ERC20.sol\":6038:6063  allowance(owner, spender) */\n      tag_230\n        /* \"@openzeppelin/contracts/token/ERC20/ERC20.sol\":6048:6053  owner */\n      dup6\n        /* \"@openzeppelin/contracts/token/ERC20/ERC20.sol\":6055:6062  spender */\n      dup10\n        /* \"@openzeppelin/contracts/token/ERC20/ERC20.sol\":6038:6047  allowance */\n      tag_183\n        /* \"@openzeppelin/contracts/token/ERC20/ERC20.sol\":6038:6063  allowance(owner, spender) */\n      jump\t// in\n    tag_230:\n        /* \"@openzeppelin/contracts/token/ERC20/ERC20.sol\":6038:6076  allowance(owner, spender) + addedValue */\n      tag_231\n      swap2\n      swap1\n      tag_232\n      jump\t// in\n    tag_231:\n        /* \"@openzeppelin/contracts/token/ERC20/ERC20.sol\":6013:6021  _approve */\n      tag_215\n        /* \"@openzeppelin/contracts/token/ERC20/ERC20.sol\":6013:6077  _approve(owner, spender, allowance(owner, spender) + addedValue) */\n      jump\t// in\n    tag_229:\n        /* \"@openzeppelin/contracts/token/ERC20/ERC20.sol\":6094:6098  true */\n      0x01\n        /* \"@openzeppelin/contracts/token/ERC20/ERC20.sol\":6087:6098  return true */\n      swap2\n      pop\n      pop\n        /* \"@openzeppelin/contracts/token/ERC20/ERC20.sol\":5871:6105  function increaseAllowance(address spender, uint256 addedValue) public virtual returns (bool) {... */\n      swap3\n      swap2\n      pop\n      pop\n      jump\t// out\n        /* \"contracts/MyGov.sol\":1511:1602  function donateMyGovToken(uint amount) public {... */\n    tag_100:\n        /* \"contracts/MyGov.sol\":1567:1595  transfer(tokenOwner, amount) */\n      tag_234\n        /* \"contracts/MyGov.sol\":1576:1586  tokenOwner */\n      0x05\n      0x00\n      swap1\n      sload\n      swap1\n      0x0100\n      exp\n      swap1\n      div\n      0xffffffffffffffffffffffffffffffffffffffff\n      and\n        /* \"contracts/MyGov.sol\":1588:1594  amount */\n      dup3\n        /* \"contracts/MyGov.sol\":1567:1575  transfer */\n      tag_167\n        /* \"contracts/MyGov.sol\":1567:1595  transfer(tokenOwner, amount) */\n      jump\t// in\n    tag_234:\n      pop\n        /* \"contracts/MyGov.sol\":1511:1602  function donateMyGovToken(uint amount) public {... */\n      pop\n      jump\t// out\n        /* \"contracts/MyGov.sol\":3739:3847  function getNoOfSurveys() public view returns (uint numsurveys) {... */\n    tag_103:\n        /* \"contracts/MyGov.sol\":3786:3801  uint numsurveys */\n      0x00\n        /* \"contracts/MyGov.sol\":3826:3833  surveys */\n      0x08\n        /* \"contracts/MyGov.sol\":3826:3840  surveys.length */\n      dup1\n      sload\n      swap1\n      pop\n        /* \"contracts/MyGov.sol\":3813:3840  numsurveys = surveys.length */\n      swap1\n      pop\n        /* \"contracts/MyGov.sol\":3739:3847  function getNoOfSurveys() public view returns (uint numsurveys) {... */\n      swap1\n      jump\t// out\n        /* \"contracts/MyGov.sol\":3157:3231  function getProjectInfo()public{... */\n    tag_107:\n      jump\t// out\n        /* \"@openzeppelin/contracts/token/ERC20/ERC20.sol\":3406:3531  function balanceOf(address account) public view virtual override returns (uint256) {... */\n    tag_112:\n        /* \"@openzeppelin/contracts/token/ERC20/ERC20.sol\":3480:3487  uint256 */\n      0x00\n        /* \"@openzeppelin/contracts/token/ERC20/ERC20.sol\":3506:3515  _balances */\n      dup1\n        /* \"@openzeppelin/contracts/token/ERC20/ERC20.sol\":3506:3524  _balances[account] */\n      0x00\n        /* \"@openzeppelin/contracts/token/ERC20/ERC20.sol\":3516:3523  account */\n      dup4\n        /* \"@openzeppelin/contracts/token/ERC20/ERC20.sol\":3506:3524  _balances[account] */\n      0xffffffffffffffffffffffffffffffffffffffff\n      and\n      0xffffffffffffffffffffffffffffffffffffffff\n      and\n      dup2\n      mstore\n      0x20\n      add\n      swap1\n      dup2\n      mstore\n      0x20\n      add\n      0x00\n      keccak256\n      sload\n        /* \"@openzeppelin/contracts/token/ERC20/ERC20.sol\":3499:3524  return _balances[account] */\n      swap1\n      pop\n        /* \"@openzeppelin/contracts/token/ERC20/ERC20.sol\":3406:3531  function balanceOf(address account) public view virtual override returns (uint256) {... */\n      swap2\n      swap1\n      pop\n      jump\t// out\n        /* \"contracts/MyGov.sol\":2554:2636  function withdrawProjectPayment()public{... */\n    tag_116:\n      jump\t// out\n        /* \"contracts/MyGov.sol\":1868:1949  function voteForProjectPayment()public{... */\n    tag_119:\n      jump\t// out\n        /* \"contracts/MyGov.sol\":1424:1505  function donateEther() external payable {... */\n    tag_121:\n        /* \"contracts/MyGov.sol\":1474:1484  tokenOwner */\n      0x05\n      0x00\n      swap1\n      sload\n      swap1\n      0x0100\n      exp\n      swap1\n      div\n      0xffffffffffffffffffffffffffffffffffffffff\n      and\n        /* \"contracts/MyGov.sol\":1474:1493  tokenOwner.transfer */\n      0xffffffffffffffffffffffffffffffffffffffff\n      and\n        /* \"contracts/MyGov.sol\":1474:1498  tokenOwner.transfer(123) */\n      0x08fc\n        /* \"contracts/MyGov.sol\":1494:1497  123 */\n      0x7b\n        /* \"contracts/MyGov.sol\":1474:1498  tokenOwner.transfer(123) */\n      swap1\n      dup2\n      iszero\n      mul\n      swap1\n      mload(0x40)\n      0x00\n      mload(0x40)\n      dup1\n      dup4\n      sub\n      dup2\n      dup6\n      dup9\n      dup9\n      call\n      swap4\n      pop\n      pop\n      pop\n      pop\n      iszero\n      dup1\n      iszero\n      tag_242\n      jumpi\n      returndatasize\n      0x00\n      dup1\n      returndatacopy\n      revert(0x00, returndatasize)\n    tag_242:\n      pop\n        /* \"contracts/MyGov.sol\":1424:1505  function donateEther() external payable {... */\n      jump\t// out\n        /* \"contracts/MyGov.sol\":969:992  Survey[] public surveys */\n    tag_125:\n      0x08\n      dup2\n      dup2\n      sload\n      dup2\n      lt\n      tag_243\n      jumpi\n      0x00\n      dup1\n      revert\n    tag_243:\n      swap1\n      0x00\n      mstore\n      keccak256(0x00, 0x20)\n      swap1\n      0x03\n      mul\n      add\n      0x00\n      swap2\n      pop\n      swap1\n      pop\n      dup1\n      0x00\n      add\n      sload\n      swap1\n      pop\n      dup2\n      jump\t// out\n        /* \"contracts/MyGov.sol\":2803:2899  function getSurveyOwner(uint surveyid) public view returns(address surveyowner) {... */\n    tag_131:\n        /* \"contracts/MyGov.sol\":2862:2881  address surveyowner */\n      0x00\n        /* \"contracts/MyGov.sol\":2803:2899  function getSurveyOwner(uint surveyid) public view returns(address surveyowner) {... */\n      swap2\n      swap1\n      pop\n      jump\t// out\n        /* \"contracts/MyGov.sol\":2642:2718  function getSurveyResults()public{... */\n    tag_136:\n      jump\t// out\n        /* \"@openzeppelin/contracts/token/ERC20/ERC20.sol\":2365:2467  function symbol() public view virtual override returns (string memory) {... */\n    tag_139:\n        /* \"@openzeppelin/contracts/token/ERC20/ERC20.sol\":2421:2434  string memory */\n      0x60\n        /* \"@openzeppelin/contracts/token/ERC20/ERC20.sol\":2453:2460  _symbol */\n      0x04\n        /* \"@openzeppelin/contracts/token/ERC20/ERC20.sol\":2446:2460  return _symbol */\n      dup1\n      sload\n      tag_248\n      swap1\n      tag_199\n      jump\t// in\n    tag_248:\n      dup1\n      0x1f\n      add\n      0x20\n      dup1\n      swap2\n      div\n      mul\n      0x20\n      add\n      mload(0x40)\n      swap1\n      dup2\n      add\n      0x40\n      mstore\n      dup1\n      swap3\n      swap2\n      swap1\n      dup2\n      dup2\n      mstore\n      0x20\n      add\n      dup3\n      dup1\n      sload\n      tag_249\n      swap1\n      tag_199\n      jump\t// in\n    tag_249:\n      dup1\n      iszero\n      tag_250\n      jumpi\n      dup1\n      0x1f\n      lt\n      tag_251\n      jumpi\n      0x0100\n      dup1\n      dup4\n      sload\n      div\n      mul\n      dup4\n      mstore\n      swap2\n      0x20\n      add\n      swap2\n      jump(tag_250)\n    tag_251:\n      dup3\n      add\n      swap2\n      swap1\n      0x00\n      mstore\n      keccak256(0x00, 0x20)\n      swap1\n    tag_252:\n      dup2\n      sload\n      dup2\n      mstore\n      swap1\n      0x01\n      add\n      swap1\n      0x20\n      add\n      dup1\n      dup4\n      gt\n      tag_252\n      jumpi\n      dup3\n      swap1\n      sub\n      0x1f\n      and\n      dup3\n      add\n      swap2\n    tag_250:\n      pop\n      pop\n      pop\n      pop\n      pop\n      swap1\n      pop\n        /* \"@openzeppelin/contracts/token/ERC20/ERC20.sol\":2365:2467  function symbol() public view virtual override returns (string memory) {... */\n      swap1\n      jump\t// out\n        /* \"contracts/MyGov.sol\":2315:2387  function submitSurvey()public{... */\n    tag_143:\n      jump\t// out\n        /* \"contracts/MyGov.sol\":999:1418  function delegateVoteTo(address memberaddr, uint projectid) public {... */\n    tag_147:\n        /* \"contracts/MyGov.sol\":1076:1096  Voter storage sender */\n      0x00\n        /* \"contracts/MyGov.sol\":1099:1105  voters */\n      0x06\n        /* \"contracts/MyGov.sol\":1099:1117  voters[msg.sender] */\n      0x00\n        /* \"contracts/MyGov.sol\":1106:1116  msg.sender */\n      caller\n        /* \"contracts/MyGov.sol\":1099:1117  voters[msg.sender] */\n      0xffffffffffffffffffffffffffffffffffffffff\n      and\n      0xffffffffffffffffffffffffffffffffffffffff\n      and\n      dup2\n      mstore\n      0x20\n      add\n      swap1\n      dup2\n      mstore\n      0x20\n      add\n      0x00\n      keccak256\n        /* \"contracts/MyGov.sol\":1076:1117  Voter storage sender = voters[msg.sender] */\n      swap1\n      pop\n        /* \"contracts/MyGov.sol\":1136:1142  sender */\n      dup1\n        /* \"contracts/MyGov.sol\":1136:1148  sender.voted */\n      0x01\n      add\n      0x00\n      swap1\n      sload\n      swap1\n      0x0100\n      exp\n      swap1\n      div\n      0xff\n      and\n        /* \"contracts/MyGov.sol\":1135:1148  !sender.voted */\n      iszero\n        /* \"contracts/MyGov.sol\":1127:1171  require(!sender.voted, \"You already voted!\") */\n      tag_255\n      jumpi\n      mload(0x40)\n      0x08c379a000000000000000000000000000000000000000000000000000000000\n      dup2\n      mstore\n      0x04\n      add\n      tag_256\n      swap1\n      tag_257\n      jump\t// in\n    tag_256:\n      mload(0x40)\n      dup1\n      swap2\n      sub\n      swap1\n      revert\n    tag_255:\n        /* \"contracts/MyGov.sol\":1203:1213  msg.sender */\n      caller\n        /* \"contracts/MyGov.sol\":1189:1213  memberaddr != msg.sender */\n      0xffffffffffffffffffffffffffffffffffffffff\n      and\n        /* \"contracts/MyGov.sol\":1189:1199  memberaddr */\n      dup4\n        /* \"contracts/MyGov.sol\":1189:1213  memberaddr != msg.sender */\n      0xffffffffffffffffffffffffffffffffffffffff\n      and\n      eq\n      iszero\n        /* \"contracts/MyGov.sol\":1181:1246  require(memberaddr != msg.sender, \"Self delegation not allowed!\") */\n      tag_258\n      jumpi\n      mload(0x40)\n      0x08c379a000000000000000000000000000000000000000000000000000000000\n      dup2\n      mstore\n      0x04\n      add\n      tag_259\n      swap1\n      tag_260\n      jump\t// in\n    tag_259:\n      mload(0x40)\n      dup1\n      swap2\n      sub\n      swap1\n      revert\n    tag_258:\n        /* \"contracts/MyGov.sol\":1272:1276  true */\n      0x01\n        /* \"contracts/MyGov.sol\":1257:1263  sender */\n      dup2\n        /* \"contracts/MyGov.sol\":1257:1269  sender.voted */\n      0x01\n      add\n      0x00\n        /* \"contracts/MyGov.sol\":1257:1276  sender.voted = true */\n      0x0100\n      exp\n      dup2\n      sload\n      dup2\n      0xff\n      mul\n      not\n      and\n      swap1\n      dup4\n      iszero\n      iszero\n      mul\n      or\n      swap1\n      sstore\n      pop\n        /* \"contracts/MyGov.sol\":1304:1314  memberaddr */\n      dup3\n        /* \"contracts/MyGov.sol\":1286:1292  sender */\n      dup2\n        /* \"contracts/MyGov.sol\":1286:1301  sender.delegate */\n      0x01\n      add\n      0x01\n        /* \"contracts/MyGov.sol\":1286:1314  sender.delegate = memberaddr */\n      0x0100\n      exp\n      dup2\n      sload\n      dup2\n      0xffffffffffffffffffffffffffffffffffffffff\n      mul\n      not\n      and\n      swap1\n      dup4\n      0xffffffffffffffffffffffffffffffffffffffff\n      and\n      mul\n      or\n      swap1\n      sstore\n      pop\n        /* \"contracts/MyGov.sol\":1325:1347  Voter storage delegate */\n      0x00\n        /* \"contracts/MyGov.sol\":1350:1356  voters */\n      0x06\n        /* \"contracts/MyGov.sol\":1350:1368  voters[memberaddr] */\n      0x00\n        /* \"contracts/MyGov.sol\":1357:1367  memberaddr */\n      dup6\n        /* \"contracts/MyGov.sol\":1350:1368  voters[memberaddr] */\n      0xffffffffffffffffffffffffffffffffffffffff\n      and\n      0xffffffffffffffffffffffffffffffffffffffff\n      and\n      dup2\n      mstore\n      0x20\n      add\n      swap1\n      dup2\n      mstore\n      0x20\n      add\n      0x00\n      keccak256\n        /* \"contracts/MyGov.sol\":1325:1368  Voter storage delegate = voters[memberaddr] */\n      swap1\n      pop\n        /* \"contracts/MyGov.sol\":1398:1404  sender */\n      dup2\n        /* \"contracts/MyGov.sol\":1398:1411  sender.weight */\n      0x00\n      add\n      sload\n        /* \"contracts/MyGov.sol\":1379:1387  delegate */\n      dup2\n        /* \"contracts/MyGov.sol\":1379:1394  delegate.weight */\n      0x00\n      add\n      0x00\n        /* \"contracts/MyGov.sol\":1379:1411  delegate.weight += sender.weight */\n      dup3\n      dup3\n      sload\n      tag_261\n      swap2\n      swap1\n      tag_232\n      jump\t// in\n    tag_261:\n      swap3\n      pop\n      pop\n      dup2\n      swap1\n      sstore\n      pop\n        /* \"contracts/MyGov.sol\":999:1418  function delegateVoteTo(address memberaddr, uint projectid) public {... */\n      pop\n      pop\n      pop\n      pop\n      jump\t// out\n        /* \"contracts/MyGov.sol\":891:930  mapping(address => Voter) public voters */\n    tag_151:\n      mstore(0x20, 0x06)\n      dup1\n      0x00\n      mstore\n      keccak256(0x00, 0x40)\n      0x00\n      swap2\n      pop\n      swap1\n      pop\n      dup1\n      0x00\n      add\n      sload\n      swap1\n      dup1\n      0x01\n      add\n      0x00\n      swap1\n      sload\n      swap1\n      0x0100\n      exp\n      swap1\n      div\n      0xff\n      and\n      swap1\n      dup1\n      0x01\n      add\n      0x01\n      swap1\n      sload\n      swap1\n      0x0100\n      exp\n      swap1\n      div\n      0xffffffffffffffffffffffffffffffffffffffff\n      and\n      swap1\n      dup1\n      0x02\n      add\n      sload\n      swap1\n      pop\n      dup5\n      jump\t// out\n        /* \"@openzeppelin/contracts/token/ERC20/ERC20.sol\":6592:7019  function decreaseAllowance(address spender, uint256 subtractedValue) public virtual returns (bool) {... */\n    tag_157:\n        /* \"@openzeppelin/contracts/token/ERC20/ERC20.sol\":6685:6689  bool */\n      0x00\n        /* \"@openzeppelin/contracts/token/ERC20/ERC20.sol\":6701:6714  address owner */\n      dup1\n        /* \"@openzeppelin/contracts/token/ERC20/ERC20.sol\":6717:6729  _msgSender() */\n      tag_263\n        /* \"@openzeppelin/contracts/token/ERC20/ERC20.sol\":6717:6727  _msgSender */\n      tag_213\n        /* \"@openzeppelin/contracts/token/ERC20/ERC20.sol\":6717:6729  _msgSender() */\n      jump\t// in\n    tag_263:\n        /* \"@openzeppelin/contracts/token/ERC20/ERC20.sol\":6701:6729  address owner = _msgSender() */\n      swap1\n      pop\n        /* \"@openzeppelin/contracts/token/ERC20/ERC20.sol\":6739:6763  uint256 currentAllowance */\n      0x00\n        /* \"@openzeppelin/contracts/token/ERC20/ERC20.sol\":6766:6791  allowance(owner, spender) */\n      tag_264\n        /* \"@openzeppelin/contracts/token/ERC20/ERC20.sol\":6776:6781  owner */\n      dup3\n        /* \"@openzeppelin/contracts/token/ERC20/ERC20.sol\":6783:6790  spender */\n      dup7\n        /* \"@openzeppelin/contracts/token/ERC20/ERC20.sol\":6766:6775  allowance */\n      tag_183\n        /* \"@openzeppelin/contracts/token/ERC20/ERC20.sol\":6766:6791  allowance(owner, spender) */\n      jump\t// in\n    tag_264:\n        /* \"@openzeppelin/contracts/token/ERC20/ERC20.sol\":6739:6791  uint256 currentAllowance = allowance(owner, spender) */\n      swap1\n      pop\n        /* \"@openzeppelin/contracts/token/ERC20/ERC20.sol\":6829:6844  subtractedValue */\n      dup4\n        /* \"@openzeppelin/contracts/token/ERC20/ERC20.sol\":6809:6825  currentAllowance */\n      dup2\n        /* \"@openzeppelin/contracts/token/ERC20/ERC20.sol\":6809:6844  currentAllowance >= subtractedValue */\n      lt\n      iszero\n        /* \"@openzeppelin/contracts/token/ERC20/ERC20.sol\":6801:6886  require(currentAllowance >= subtractedValue, \"ERC20: decreased allowance below zero\") */\n      tag_265\n      jumpi\n      mload(0x40)\n      0x08c379a000000000000000000000000000000000000000000000000000000000\n      dup2\n      mstore\n      0x04\n      add\n      tag_266\n      swap1\n      tag_267\n      jump\t// in\n    tag_266:\n      mload(0x40)\n      dup1\n      swap2\n      sub\n      swap1\n      revert\n    tag_265:\n        /* \"@openzeppelin/contracts/token/ERC20/ERC20.sol\":6920:6980  _approve(owner, spender, currentAllowance - subtractedValue) */\n      tag_268\n        /* \"@openzeppelin/contracts/token/ERC20/ERC20.sol\":6929:6934  owner */\n      dup3\n        /* \"@openzeppelin/contracts/token/ERC20/ERC20.sol\":6936:6943  spender */\n      dup7\n        /* \"@openzeppelin/contracts/token/ERC20/ERC20.sol\":6964:6979  subtractedValue */\n      dup7\n        /* \"@openzeppelin/contracts/token/ERC20/ERC20.sol\":6945:6961  currentAllowance */\n      dup5\n        /* \"@openzeppelin/contracts/token/ERC20/ERC20.sol\":6945:6979  currentAllowance - subtractedValue */\n      sub\n        /* \"@openzeppelin/contracts/token/ERC20/ERC20.sol\":6920:6928  _approve */\n      tag_215\n        /* \"@openzeppelin/contracts/token/ERC20/ERC20.sol\":6920:6980  _approve(owner, spender, currentAllowance - subtractedValue) */\n      jump\t// in\n    tag_268:\n        /* \"@openzeppelin/contracts/token/ERC20/ERC20.sol\":7008:7012  true */\n      0x01\n        /* \"@openzeppelin/contracts/token/ERC20/ERC20.sol\":7001:7012  return true */\n      swap3\n      pop\n      pop\n      pop\n        /* \"@openzeppelin/contracts/token/ERC20/ERC20.sol\":6592:7019  function decreaseAllowance(address spender, uint256 subtractedValue) public virtual returns (bool) {... */\n      swap3\n      swap2\n      pop\n      pop\n      jump\t// out\n        /* \"contracts/MyGov.sol\":1955:2309  function submitProjectProposal(... */\n    tag_163:\n        /* \"contracts/MyGov.sol\":2145:2169  bytes memory nameinbytes */\n      0x00\n        /* \"contracts/MyGov.sol\":2178:2186  ipfshash */\n      dup5\n        /* \"contracts/MyGov.sol\":2145:2187  bytes memory nameinbytes = bytes(ipfshash) */\n      swap1\n      pop\n        /* \"contracts/MyGov.sol\":2197:2224  Proposal memory newProposal */\n      0x00\n        /* \"contracts/MyGov.sol\":2227:2265  Proposal(nameinbytes, 0, false, false) */\n      mload(0x40)\n      dup1\n      0x80\n      add\n      0x40\n      mstore\n      dup1\n        /* \"contracts/MyGov.sol\":2236:2247  nameinbytes */\n      dup4\n        /* \"contracts/MyGov.sol\":2227:2265  Proposal(nameinbytes, 0, false, false) */\n      dup2\n      mstore\n      0x20\n      add\n        /* \"contracts/MyGov.sol\":2249:2250  0 */\n      0x00\n        /* \"contracts/MyGov.sol\":2227:2265  Proposal(nameinbytes, 0, false, false) */\n      dup2\n      mstore\n      0x20\n      add\n        /* \"contracts/MyGov.sol\":2252:2257  false */\n      0x00\n        /* \"contracts/MyGov.sol\":2227:2265  Proposal(nameinbytes, 0, false, false) */\n      iszero\n      iszero\n      dup2\n      mstore\n      0x20\n      add\n        /* \"contracts/MyGov.sol\":2259:2264  false */\n      0x00\n        /* \"contracts/MyGov.sol\":2227:2265  Proposal(nameinbytes, 0, false, false) */\n      iszero\n      iszero\n      dup2\n      mstore\n      pop\n        /* \"contracts/MyGov.sol\":2197:2265  Proposal memory newProposal = Proposal(nameinbytes, 0, false, false) */\n      swap1\n      pop\n        /* \"contracts/MyGov.sol\":2275:2284  proposals */\n      0x07\n        /* \"contracts/MyGov.sol\":2290:2301  newProposal */\n      dup2\n        /* \"contracts/MyGov.sol\":2275:2302  proposals.push(newProposal) */\n      swap1\n      dup1\n      0x01\n      dup2\n      sload\n      add\n      dup1\n      dup3\n      sstore\n      dup1\n      swap2\n      pop\n      pop\n      0x01\n      swap1\n      sub\n      swap1\n      0x00\n      mstore\n      keccak256(0x00, 0x20)\n      swap1\n      0x03\n      mul\n      add\n      0x00\n      swap1\n      swap2\n      swap1\n      swap2\n      swap1\n      swap2\n      pop\n      0x00\n      dup3\n      add\n      mload\n      dup2\n      0x00\n      add\n      swap1\n      dup1\n      mload\n      swap1\n      0x20\n      add\n      swap1\n      tag_271\n      swap3\n      swap2\n      swap1\n      tag_272\n      jump\t// in\n    tag_271:\n      pop\n      0x20\n      dup3\n      add\n      mload\n      dup2\n      0x01\n      add\n      sstore\n      0x40\n      dup3\n      add\n      mload\n      dup2\n      0x02\n      add\n      exp(0x0100, 0x00)\n      dup2\n      sload\n      dup2\n      0xff\n      mul\n      not\n      and\n      swap1\n      dup4\n      iszero\n      iszero\n      mul\n      or\n      swap1\n      sstore\n      pop\n      0x60\n      dup3\n      add\n      mload\n      dup2\n      0x02\n      add\n      exp(0x0100, 0x01)\n      dup2\n      sload\n      dup2\n      0xff\n      mul\n      not\n      and\n      swap1\n      dup4\n      iszero\n      iszero\n      mul\n      or\n      swap1\n      sstore\n      pop\n      pop\n      pop\n        /* \"contracts/MyGov.sol\":1955:2309  function submitProjectProposal(... */\n      pop\n      pop\n      pop\n      pop\n      pop\n      pop\n      jump\t// out\n        /* \"@openzeppelin/contracts/token/ERC20/ERC20.sol\":3727:3916  function transfer(address to, uint256 amount) public virtual override returns (bool) {... */\n    tag_167:\n        /* \"@openzeppelin/contracts/token/ERC20/ERC20.sol\":3806:3810  bool */\n      0x00\n        /* \"@openzeppelin/contracts/token/ERC20/ERC20.sol\":3822:3835  address owner */\n      dup1\n        /* \"@openzeppelin/contracts/token/ERC20/ERC20.sol\":3838:3850  _msgSender() */\n      tag_274\n        /* \"@openzeppelin/contracts/token/ERC20/ERC20.sol\":3838:3848  _msgSender */\n      tag_213\n        /* \"@openzeppelin/contracts/token/ERC20/ERC20.sol\":3838:3850  _msgSender() */\n      jump\t// in\n    tag_274:\n        /* \"@openzeppelin/contracts/token/ERC20/ERC20.sol\":3822:3850  address owner = _msgSender() */\n      swap1\n      pop\n        /* \"@openzeppelin/contracts/token/ERC20/ERC20.sol\":3860:3888  _transfer(owner, to, amount) */\n      tag_275\n        /* \"@openzeppelin/contracts/token/ERC20/ERC20.sol\":3870:3875  owner */\n      dup2\n        /* \"@openzeppelin/contracts/token/ERC20/ERC20.sol\":3877:3879  to */\n      dup6\n        /* \"@openzeppelin/contracts/token/ERC20/ERC20.sol\":3881:3887  amount */\n      dup6\n        /* \"@openzeppelin/contracts/token/ERC20/ERC20.sol\":3860:3869  _transfer */\n      tag_223\n        /* \"@openzeppelin/contracts/token/ERC20/ERC20.sol\":3860:3888  _transfer(owner, to, amount) */\n      jump\t// in\n    tag_275:\n        /* \"@openzeppelin/contracts/token/ERC20/ERC20.sol\":3905:3909  true */\n      0x01\n        /* \"@openzeppelin/contracts/token/ERC20/ERC20.sol\":3898:3909  return true */\n      swap2\n      pop\n      pop\n        /* \"@openzeppelin/contracts/token/ERC20/ERC20.sol\":3727:3916  function transfer(address to, uint256 amount) public virtual override returns (bool) {... */\n      swap3\n      swap2\n      pop\n      pop\n      jump\t// out\n        /* \"contracts/MyGov.sol\":2724:2797  function getSurveyInfo()public{... */\n    tag_171:\n      jump\t// out\n        /* \"contracts/MyGov.sol\":2469:2548  function reserveProjectGrant()public{... */\n    tag_174:\n      jump\t// out\n        /* \"contracts/MyGov.sol\":3369:3642  function getNoOfFundedProjects() public view returns (uint numfunded){... */\n    tag_177:\n        /* \"contracts/MyGov.sol\":3423:3437  uint numfunded */\n      0x00\n        /* \"contracts/MyGov.sol\":3448:3465  uint total_funded */\n      dup1\n        /* \"contracts/MyGov.sol\":3468:3469  0 */\n      0x00\n        /* \"contracts/MyGov.sol\":3448:3469  uint total_funded = 0 */\n      swap1\n      pop\n        /* \"contracts/MyGov.sol\":3483:3489  uint i */\n      0x00\n        /* \"contracts/MyGov.sol\":3479:3602  for(uint i = 0; i < proposals.length; i++){... */\n    tag_279:\n        /* \"contracts/MyGov.sol\":3499:3508  proposals */\n      0x07\n        /* \"contracts/MyGov.sol\":3499:3515  proposals.length */\n      dup1\n      sload\n      swap1\n      pop\n        /* \"contracts/MyGov.sol\":3495:3496  i */\n      dup2\n        /* \"contracts/MyGov.sol\":3495:3515  i < proposals.length */\n      lt\n        /* \"contracts/MyGov.sol\":3479:3602  for(uint i = 0; i < proposals.length; i++){... */\n      iszero\n      tag_280\n      jumpi\n        /* \"contracts/MyGov.sol\":3538:3547  proposals */\n      0x07\n        /* \"contracts/MyGov.sol\":3548:3549  i */\n      dup2\n        /* \"contracts/MyGov.sol\":3538:3550  proposals[i] */\n      dup2\n      sload\n      dup2\n      lt\n      tag_282\n      jumpi\n      mstore(0x00, 0x4e487b7100000000000000000000000000000000000000000000000000000000)\n      mstore(0x04, 0x32)\n      revert(0x00, 0x24)\n    tag_282:\n      swap1\n      0x00\n      mstore\n      keccak256(0x00, 0x20)\n      swap1\n      0x03\n      mul\n      add\n        /* \"contracts/MyGov.sol\":3538:3559  proposals[i].isFunded */\n      0x02\n      add\n      0x01\n      swap1\n      sload\n      swap1\n      0x0100\n      exp\n      swap1\n      div\n      0xff\n      and\n        /* \"contracts/MyGov.sol\":3535:3591  if(proposals[i].isFunded)... */\n      iszero\n      tag_284\n      jumpi\n        /* \"contracts/MyGov.sol\":3577:3591  total_funded++ */\n      dup2\n      dup1\n      tag_285\n      swap1\n      tag_286\n      jump\t// in\n    tag_285:\n      swap3\n      pop\n      pop\n        /* \"contracts/MyGov.sol\":3535:3591  if(proposals[i].isFunded)... */\n    tag_284:\n        /* \"contracts/MyGov.sol\":3517:3520  i++ */\n      dup1\n      dup1\n      tag_287\n      swap1\n      tag_286\n      jump\t// in\n    tag_287:\n      swap2\n      pop\n      pop\n        /* \"contracts/MyGov.sol\":3479:3602  for(uint i = 0; i < proposals.length; i++){... */\n      jump(tag_279)\n    tag_280:\n      pop\n        /* \"contracts/MyGov.sol\":3623:3635  total_funded */\n      dup1\n        /* \"contracts/MyGov.sol\":3611:3635  numfunded = total_funded */\n      swap2\n      pop\n        /* \"contracts/MyGov.sol\":3369:3642  function getNoOfFundedProjects() public view returns (uint numfunded){... */\n      pop\n      swap1\n      jump\t// out\n        /* \"@openzeppelin/contracts/token/ERC20/ERC20.sol\":3974:4123  function allowance(address owner, address spender) public view virtual override returns (uint256) {... */\n    tag_183:\n        /* \"@openzeppelin/contracts/token/ERC20/ERC20.sol\":4063:4070  uint256 */\n      0x00\n        /* \"@openzeppelin/contracts/token/ERC20/ERC20.sol\":4089:4100  _allowances */\n      0x01\n        /* \"@openzeppelin/contracts/token/ERC20/ERC20.sol\":4089:4107  _allowances[owner] */\n      0x00\n        /* \"@openzeppelin/contracts/token/ERC20/ERC20.sol\":4101:4106  owner */\n      dup5\n        /* \"@openzeppelin/contracts/token/ERC20/ERC20.sol\":4089:4107  _allowances[owner] */\n      0xffffffffffffffffffffffffffffffffffffffff\n      and\n      0xffffffffffffffffffffffffffffffffffffffff\n      and\n      dup2\n      mstore\n      0x20\n      add\n      swap1\n      dup2\n      mstore\n      0x20\n      add\n      0x00\n      keccak256\n        /* \"@openzeppelin/contracts/token/ERC20/ERC20.sol\":4089:4116  _allowances[owner][spender] */\n      0x00\n        /* \"@openzeppelin/contracts/token/ERC20/ERC20.sol\":4108:4115  spender */\n      dup4\n        /* \"@openzeppelin/contracts/token/ERC20/ERC20.sol\":4089:4116  _allowances[owner][spender] */\n      0xffffffffffffffffffffffffffffffffffffffff\n      and\n      0xffffffffffffffffffffffffffffffffffffffff\n      and\n      dup2\n      mstore\n      0x20\n      add\n      swap1\n      dup2\n      mstore\n      0x20\n      add\n      0x00\n      keccak256\n      sload\n        /* \"@openzeppelin/contracts/token/ERC20/ERC20.sol\":4082:4116  return _allowances[owner][spender] */\n      swap1\n      pop\n        /* \"@openzeppelin/contracts/token/ERC20/ERC20.sol\":3974:4123  function allowance(address owner, address spender) public view virtual override returns (uint256) {... */\n      swap3\n      swap2\n      pop\n      pop\n      jump\t// out\n        /* \"contracts/MyGov.sol\":2989:3070  function getProjectNextPayment()public{... */\n    tag_187:\n      jump\t// out\n        /* \"contracts/MyGov.sol\":3076:3151  function getProjectOwner()public{... */\n    tag_190:\n      jump\t// out\n        /* \"contracts/MyGov.sol\":1608:1862  function voteForProjectProposal(uint projectid, bool choice) public {... */\n    tag_195:\n        /* \"contracts/MyGov.sol\":1686:1706  Voter storage sender */\n      0x00\n        /* \"contracts/MyGov.sol\":1709:1715  voters */\n      0x06\n        /* \"contracts/MyGov.sol\":1709:1727  voters[msg.sender] */\n      0x00\n        /* \"contracts/MyGov.sol\":1716:1726  msg.sender */\n      caller\n        /* \"contracts/MyGov.sol\":1709:1727  voters[msg.sender] */\n      0xffffffffffffffffffffffffffffffffffffffff\n      and\n      0xffffffffffffffffffffffffffffffffffffffff\n      and\n      dup2\n      mstore\n      0x20\n      add\n      swap1\n      dup2\n      mstore\n      0x20\n      add\n      0x00\n      keccak256\n        /* \"contracts/MyGov.sol\":1686:1727  Voter storage sender = voters[msg.sender] */\n      swap1\n      pop\n        /* \"contracts/MyGov.sol\":1752:1756  true */\n      0x01\n        /* \"contracts/MyGov.sol\":1737:1743  sender */\n      dup2\n        /* \"contracts/MyGov.sol\":1737:1749  sender.voted */\n      0x01\n      add\n      0x00\n        /* \"contracts/MyGov.sol\":1737:1756  sender.voted = true */\n      0x0100\n      exp\n      dup2\n      sload\n      dup2\n      0xff\n      mul\n      not\n      and\n      swap1\n      dup4\n      iszero\n      iszero\n      mul\n      or\n      swap1\n      sstore\n      pop\n        /* \"contracts/MyGov.sol\":1789:1798  projectid */\n      dup3\n        /* \"contracts/MyGov.sol\":1766:1772  sender */\n      dup2\n        /* \"contracts/MyGov.sol\":1766:1786  sender.votedProposal */\n      0x02\n      add\n        /* \"contracts/MyGov.sol\":1766:1798  sender.votedProposal = projectid */\n      dup2\n      swap1\n      sstore\n      pop\n        /* \"contracts/MyGov.sol\":1842:1848  sender */\n      dup1\n        /* \"contracts/MyGov.sol\":1842:1855  sender.weight */\n      0x00\n      add\n      sload\n        /* \"contracts/MyGov.sol\":1808:1817  proposals */\n      0x07\n        /* \"contracts/MyGov.sol\":1818:1827  projectid */\n      dup5\n        /* \"contracts/MyGov.sol\":1808:1828  proposals[projectid] */\n      dup2\n      sload\n      dup2\n      lt\n      tag_292\n      jumpi\n      mstore(0x00, 0x4e487b7100000000000000000000000000000000000000000000000000000000)\n      mstore(0x04, 0x32)\n      revert(0x00, 0x24)\n    tag_292:\n      swap1\n      0x00\n      mstore\n      keccak256(0x00, 0x20)\n      swap1\n      0x03\n      mul\n      add\n        /* \"contracts/MyGov.sol\":1808:1838  proposals[projectid].voteCount */\n      0x01\n      add\n      0x00\n        /* \"contracts/MyGov.sol\":1808:1855  proposals[projectid].voteCount += sender.weight */\n      dup3\n      dup3\n      sload\n      tag_294\n      swap2\n      swap1\n      tag_232\n      jump\t// in\n    tag_294:\n      swap3\n      pop\n      pop\n      dup2\n      swap1\n      sstore\n      pop\n        /* \"contracts/MyGov.sol\":1608:1862  function voteForProjectProposal(uint projectid, bool choice) public {... */\n      pop\n      pop\n      pop\n      jump\t// out\n        /* \"@openzeppelin/contracts/utils/Context.sol\":640:736  function _msgSender() internal view virtual returns (address) {... */\n    tag_213:\n        /* \"@openzeppelin/contracts/utils/Context.sol\":693:700  address */\n      0x00\n        /* \"@openzeppelin/contracts/utils/Context.sol\":719:729  msg.sender */\n      caller\n        /* \"@openzeppelin/contracts/utils/Context.sol\":712:729  return msg.sender */\n      swap1\n      pop\n        /* \"@openzeppelin/contracts/utils/Context.sol\":640:736  function _msgSender() internal view virtual returns (address) {... */\n      swap1\n      jump\t// out\n        /* \"@openzeppelin/contracts/token/ERC20/ERC20.sol\":10504:10874  function _approve(... */\n    tag_215:\n        /* \"@openzeppelin/contracts/token/ERC20/ERC20.sol\":10652:10653  0 */\n      0x00\n        /* \"@openzeppelin/contracts/token/ERC20/ERC20.sol\":10635:10654  owner != address(0) */\n      0xffffffffffffffffffffffffffffffffffffffff\n      and\n        /* \"@openzeppelin/contracts/token/ERC20/ERC20.sol\":10635:10640  owner */\n      dup4\n        /* \"@openzeppelin/contracts/token/ERC20/ERC20.sol\":10635:10654  owner != address(0) */\n      0xffffffffffffffffffffffffffffffffffffffff\n      and\n      eq\n      iszero\n        /* \"@openzeppelin/contracts/token/ERC20/ERC20.sol\":10627:10695  require(owner != address(0), \"ERC20: approve from the zero address\") */\n      tag_297\n      jumpi\n      mload(0x40)\n      0x08c379a000000000000000000000000000000000000000000000000000000000\n      dup2\n      mstore\n      0x04\n      add\n      tag_298\n      swap1\n      tag_299\n      jump\t// in\n    tag_298:\n      mload(0x40)\n      dup1\n      swap2\n      sub\n      swap1\n      revert\n    tag_297:\n        /* \"@openzeppelin/contracts/token/ERC20/ERC20.sol\":10732:10733  0 */\n      0x00\n        /* \"@openzeppelin/contracts/token/ERC20/ERC20.sol\":10713:10734  spender != address(0) */\n      0xffffffffffffffffffffffffffffffffffffffff\n      and\n        /* \"@openzeppelin/contracts/token/ERC20/ERC20.sol\":10713:10720  spender */\n      dup3\n        /* \"@openzeppelin/contracts/token/ERC20/ERC20.sol\":10713:10734  spender != address(0) */\n      0xffffffffffffffffffffffffffffffffffffffff\n      and\n      eq\n      iszero\n        /* \"@openzeppelin/contracts/token/ERC20/ERC20.sol\":10705:10773  require(spender != address(0), \"ERC20: approve to the zero address\") */\n      tag_300\n      jumpi\n      mload(0x40)\n      0x08c379a000000000000000000000000000000000000000000000000000000000\n      dup2\n      mstore\n      0x04\n      add\n      tag_301\n      swap1\n      tag_302\n      jump\t// in\n    tag_301:\n      mload(0x40)\n      dup1\n      swap2\n      sub\n      swap1\n      revert\n    tag_300:\n        /* \"@openzeppelin/contracts/token/ERC20/ERC20.sol\":10814:10820  amount */\n      dup1\n        /* \"@openzeppelin/contracts/token/ERC20/ERC20.sol\":10784:10795  _allowances */\n      0x01\n        /* \"@openzeppelin/contracts/token/ERC20/ERC20.sol\":10784:10802  _allowances[owner] */\n      0x00\n        /* \"@openzeppelin/contracts/token/ERC20/ERC20.sol\":10796:10801  owner */\n      dup6\n        /* \"@openzeppelin/contracts/token/ERC20/ERC20.sol\":10784:10802  _allowances[owner] */\n      0xffffffffffffffffffffffffffffffffffffffff\n      and\n      0xffffffffffffffffffffffffffffffffffffffff\n      and\n      dup2\n      mstore\n      0x20\n      add\n      swap1\n      dup2\n      mstore\n      0x20\n      add\n      0x00\n      keccak256\n        /* \"@openzeppelin/contracts/token/ERC20/ERC20.sol\":10784:10811  _allowances[owner][spender] */\n      0x00\n        /* \"@openzeppelin/contracts/token/ERC20/ERC20.sol\":10803:10810  spender */\n      dup5\n        /* \"@openzeppelin/contracts/token/ERC20/ERC20.sol\":10784:10811  _allowances[owner][spender] */\n      0xffffffffffffffffffffffffffffffffffffffff\n      and\n      0xffffffffffffffffffffffffffffffffffffffff\n      and\n      dup2\n      mstore\n      0x20\n      add\n      swap1\n      dup2\n      mstore\n      0x20\n      add\n      0x00\n      keccak256\n        /* \"@openzeppelin/contracts/token/ERC20/ERC20.sol\":10784:10820  _allowances[owner][spender] = amount */\n      dup2\n      swap1\n      sstore\n      pop\n        /* \"@openzeppelin/contracts/token/ERC20/ERC20.sol\":10851:10858  spender */\n      dup2\n        /* \"@openzeppelin/contracts/token/ERC20/ERC20.sol\":10835:10867  Approval(owner, spender, amount) */\n      0xffffffffffffffffffffffffffffffffffffffff\n      and\n        /* \"@openzeppelin/contracts/token/ERC20/ERC20.sol\":10844:10849  owner */\n      dup4\n        /* \"@openzeppelin/contracts/token/ERC20/ERC20.sol\":10835:10867  Approval(owner, spender, amount) */\n      0xffffffffffffffffffffffffffffffffffffffff\n      and\n      0x8c5be1e5ebec7d5bd14f71427d1e84f3dd0314c0f7b2291e5b200ac8c7c3b925\n        /* \"@openzeppelin/contracts/token/ERC20/ERC20.sol\":10860:10866  amount */\n      dup4\n        /* \"@openzeppelin/contracts/token/ERC20/ERC20.sol\":10835:10867  Approval(owner, spender, amount) */\n      mload(0x40)\n      tag_303\n      swap2\n      swap1\n      tag_73\n      jump\t// in\n    tag_303:\n      mload(0x40)\n      dup1\n      swap2\n      sub\n      swap1\n      log3\n        /* \"@openzeppelin/contracts/token/ERC20/ERC20.sol\":10504:10874  function _approve(... */\n      pop\n      pop\n      pop\n      jump\t// out\n        /* \"@openzeppelin/contracts/token/ERC20/ERC20.sol\":11155:11596  function _spendAllowance(... */\n    tag_221:\n        /* \"@openzeppelin/contracts/token/ERC20/ERC20.sol\":11285:11309  uint256 currentAllowance */\n      0x00\n        /* \"@openzeppelin/contracts/token/ERC20/ERC20.sol\":11312:11337  allowance(owner, spender) */\n      tag_305\n        /* \"@openzeppelin/contracts/token/ERC20/ERC20.sol\":11322:11327  owner */\n      dup5\n        /* \"@openzeppelin/contracts/token/ERC20/ERC20.sol\":11329:11336  spender */\n      dup5\n        /* \"@openzeppelin/contracts/token/ERC20/ERC20.sol\":11312:11321  allowance */\n      tag_183\n        /* \"@openzeppelin/contracts/token/ERC20/ERC20.sol\":11312:11337  allowance(owner, spender) */\n      jump\t// in\n    tag_305:\n        /* \"@openzeppelin/contracts/token/ERC20/ERC20.sol\":11285:11337  uint256 currentAllowance = allowance(owner, spender) */\n      swap1\n      pop\n        /* \"@openzeppelin/contracts/token/ERC20/ERC20.sol\":11371:11388  type(uint256).max */\n      0xffffffffffffffffffffffffffffffffffffffffffffffffffffffffffffffff\n        /* \"@openzeppelin/contracts/token/ERC20/ERC20.sol\":11351:11367  currentAllowance */\n      dup2\n        /* \"@openzeppelin/contracts/token/ERC20/ERC20.sol\":11351:11388  currentAllowance != type(uint256).max */\n      eq\n        /* \"@openzeppelin/contracts/token/ERC20/ERC20.sol\":11347:11590  if (currentAllowance != type(uint256).max) {... */\n      tag_306\n      jumpi\n        /* \"@openzeppelin/contracts/token/ERC20/ERC20.sol\":11432:11438  amount */\n      dup2\n        /* \"@openzeppelin/contracts/token/ERC20/ERC20.sol\":11412:11428  currentAllowance */\n      dup2\n        /* \"@openzeppelin/contracts/token/ERC20/ERC20.sol\":11412:11438  currentAllowance >= amount */\n      lt\n      iszero\n        /* \"@openzeppelin/contracts/token/ERC20/ERC20.sol\":11404:11472  require(currentAllowance >= amount, \"ERC20: insufficient allowance\") */\n      tag_307\n      jumpi\n      mload(0x40)\n      0x08c379a000000000000000000000000000000000000000000000000000000000\n      dup2\n      mstore\n      0x04\n      add\n      tag_308\n      swap1\n      tag_309\n      jump\t// in\n    tag_308:\n      mload(0x40)\n      dup1\n      swap2\n      sub\n      swap1\n      revert\n    tag_307:\n        /* \"@openzeppelin/contracts/token/ERC20/ERC20.sol\":11514:11565  _approve(owner, spender, currentAllowance - amount) */\n      tag_310\n        /* \"@openzeppelin/contracts/token/ERC20/ERC20.sol\":11523:11528  owner */\n      dup5\n        /* \"@openzeppelin/contracts/token/ERC20/ERC20.sol\":11530:11537  spender */\n      dup5\n        /* \"@openzeppelin/contracts/token/ERC20/ERC20.sol\":11558:11564  amount */\n      dup5\n        /* \"@openzeppelin/contracts/token/ERC20/ERC20.sol\":11539:11555  currentAllowance */\n      dup5\n        /* \"@openzeppelin/contracts/token/ERC20/ERC20.sol\":11539:11564  currentAllowance - amount */\n      sub\n        /* \"@openzeppelin/contracts/token/ERC20/ERC20.sol\":11514:11522  _approve */\n      tag_215\n        /* \"@openzeppelin/contracts/token/ERC20/ERC20.sol\":11514:11565  _approve(owner, spender, currentAllowance - amount) */\n      jump\t// in\n    tag_310:\n        /* \"@openzeppelin/contracts/token/ERC20/ERC20.sol\":11347:11590  if (currentAllowance != type(uint256).max) {... */\n    tag_306:\n        /* \"@openzeppelin/contracts/token/ERC20/ERC20.sol\":11155:11596  function _spendAllowance(... */\n      pop\n      pop\n      pop\n      pop\n      jump\t// out\n        /* \"@openzeppelin/contracts/token/ERC20/ERC20.sol\":7473:8291  function _transfer(... */\n    tag_223:\n        /* \"@openzeppelin/contracts/token/ERC20/ERC20.sol\":7615:7616  0 */\n      0x00\n        /* \"@openzeppelin/contracts/token/ERC20/ERC20.sol\":7599:7617  from != address(0) */\n      0xffffffffffffffffffffffffffffffffffffffff\n      and\n        /* \"@openzeppelin/contracts/token/ERC20/ERC20.sol\":7599:7603  from */\n      dup4\n        /* \"@openzeppelin/contracts/token/ERC20/ERC20.sol\":7599:7617  from != address(0) */\n      0xffffffffffffffffffffffffffffffffffffffff\n      and\n      eq\n      iszero\n        /* \"@openzeppelin/contracts/token/ERC20/ERC20.sol\":7591:7659  require(from != address(0), \"ERC20: transfer from the zero address\") */\n      tag_312\n      jumpi\n      mload(0x40)\n      0x08c379a000000000000000000000000000000000000000000000000000000000\n      dup2\n      mstore\n      0x04\n      add\n      tag_313\n      swap1\n      tag_314\n      jump\t// in\n    tag_313:\n      mload(0x40)\n      dup1\n      swap2\n      sub\n      swap1\n      revert\n    tag_312:\n        /* \"@openzeppelin/contracts/token/ERC20/ERC20.sol\":7691:7692  0 */\n      0x00\n        /* \"@openzeppelin/contracts/token/ERC20/ERC20.sol\":7677:7693  to != address(0) */\n      0xffffffffffffffffffffffffffffffffffffffff\n      and\n        /* \"@openzeppelin/contracts/token/ERC20/ERC20.sol\":7677:7679  to */\n      dup3\n        /* \"@openzeppelin/contracts/token/ERC20/ERC20.sol\":7677:7693  to != address(0) */\n      0xffffffffffffffffffffffffffffffffffffffff\n      and\n      eq\n      iszero\n        /* \"@openzeppelin/contracts/token/ERC20/ERC20.sol\":7669:7733  require(to != address(0), \"ERC20: transfer to the zero address\") */\n      tag_315\n      jumpi\n      mload(0x40)\n      0x08c379a000000000000000000000000000000000000000000000000000000000\n      dup2\n      mstore\n      0x04\n      add\n      tag_316\n      swap1\n      tag_317\n      jump\t// in\n    tag_316:\n      mload(0x40)\n      dup1\n      swap2\n      sub\n      swap1\n      revert\n    tag_315:\n        /* \"@openzeppelin/contracts/token/ERC20/ERC20.sol\":7744:7782  _beforeTokenTransfer(from, to, amount) */\n      tag_318\n        /* \"@openzeppelin/contracts/token/ERC20/ERC20.sol\":7765:7769  from */\n      dup4\n        /* \"@openzeppelin/contracts/token/ERC20/ERC20.sol\":7771:7773  to */\n      dup4\n        /* \"@openzeppelin/contracts/token/ERC20/ERC20.sol\":7775:7781  amount */\n      dup4\n        /* \"@openzeppelin/contracts/token/ERC20/ERC20.sol\":7744:7764  _beforeTokenTransfer */\n      tag_319\n        /* \"@openzeppelin/contracts/token/ERC20/ERC20.sol\":7744:7782  _beforeTokenTransfer(from, to, amount) */\n      jump\t// in\n    tag_318:\n        /* \"@openzeppelin/contracts/token/ERC20/ERC20.sol\":7793:7812  uint256 fromBalance */\n      0x00\n        /* \"@openzeppelin/contracts/token/ERC20/ERC20.sol\":7815:7824  _balances */\n      dup1\n        /* \"@openzeppelin/contracts/token/ERC20/ERC20.sol\":7815:7830  _balances[from] */\n      0x00\n        /* \"@openzeppelin/contracts/token/ERC20/ERC20.sol\":7825:7829  from */\n      dup6\n        /* \"@openzeppelin/contracts/token/ERC20/ERC20.sol\":7815:7830  _balances[from] */\n      0xffffffffffffffffffffffffffffffffffffffff\n      and\n      0xffffffffffffffffffffffffffffffffffffffff\n      and\n      dup2\n      mstore\n      0x20\n      add\n      swap1\n      dup2\n      mstore\n      0x20\n      add\n      0x00\n      keccak256\n      sload\n        /* \"@openzeppelin/contracts/token/ERC20/ERC20.sol\":7793:7830  uint256 fromBalance = _balances[from] */\n      swap1\n      pop\n        /* \"@openzeppelin/contracts/token/ERC20/ERC20.sol\":7863:7869  amount */\n      dup2\n        /* \"@openzeppelin/contracts/token/ERC20/ERC20.sol\":7848:7859  fromBalance */\n      dup2\n        /* \"@openzeppelin/contracts/token/ERC20/ERC20.sol\":7848:7869  fromBalance >= amount */\n      lt\n      iszero\n        /* \"@openzeppelin/contracts/token/ERC20/ERC20.sol\":7840:7912  require(fromBalance >= amount, \"ERC20: transfer amount exceeds balance\") */\n      tag_320\n      jumpi\n      mload(0x40)\n      0x08c379a000000000000000000000000000000000000000000000000000000000\n      dup2\n      mstore\n      0x04\n      add\n      tag_321\n      swap1\n      tag_322\n      jump\t// in\n    tag_321:\n      mload(0x40)\n      dup1\n      swap2\n      sub\n      swap1\n      revert\n    tag_320:\n        /* \"@openzeppelin/contracts/token/ERC20/ERC20.sol\":7978:7984  amount */\n      dup2\n        /* \"@openzeppelin/contracts/token/ERC20/ERC20.sol\":7964:7975  fromBalance */\n      dup2\n        /* \"@openzeppelin/contracts/token/ERC20/ERC20.sol\":7964:7984  fromBalance - amount */\n      sub\n        /* \"@openzeppelin/contracts/token/ERC20/ERC20.sol\":7946:7955  _balances */\n      0x00\n        /* \"@openzeppelin/contracts/token/ERC20/ERC20.sol\":7946:7961  _balances[from] */\n      dup1\n        /* \"@openzeppelin/contracts/token/ERC20/ERC20.sol\":7956:7960  from */\n      dup7\n        /* \"@openzeppelin/contracts/token/ERC20/ERC20.sol\":7946:7961  _balances[from] */\n      0xffffffffffffffffffffffffffffffffffffffff\n      and\n      0xffffffffffffffffffffffffffffffffffffffff\n      and\n      dup2\n      mstore\n      0x20\n      add\n      swap1\n      dup2\n      mstore\n      0x20\n      add\n      0x00\n      keccak256\n        /* \"@openzeppelin/contracts/token/ERC20/ERC20.sol\":7946:7984  _balances[from] = fromBalance - amount */\n      dup2\n      swap1\n      sstore\n      pop\n        /* \"@openzeppelin/contracts/token/ERC20/ERC20.sol\":8178:8184  amount */\n      dup2\n        /* \"@openzeppelin/contracts/token/ERC20/ERC20.sol\":8161:8170  _balances */\n      0x00\n        /* \"@openzeppelin/contracts/token/ERC20/ERC20.sol\":8161:8174  _balances[to] */\n      dup1\n        /* \"@openzeppelin/contracts/token/ERC20/ERC20.sol\":8171:8173  to */\n      dup6\n        /* \"@openzeppelin/contracts/token/ERC20/ERC20.sol\":8161:8174  _balances[to] */\n      0xffffffffffffffffffffffffffffffffffffffff\n      and\n      0xffffffffffffffffffffffffffffffffffffffff\n      and\n      dup2\n      mstore\n      0x20\n      add\n      swap1\n      dup2\n      mstore\n      0x20\n      add\n      0x00\n      keccak256\n      0x00\n        /* \"@openzeppelin/contracts/token/ERC20/ERC20.sol\":8161:8184  _balances[to] += amount */\n      dup3\n      dup3\n      sload\n      add\n      swap3\n      pop\n      pop\n      dup2\n      swap1\n      sstore\n      pop\n        /* \"@openzeppelin/contracts/token/ERC20/ERC20.sol\":8225:8227  to */\n      dup3\n        /* \"@openzeppelin/contracts/token/ERC20/ERC20.sol\":8210:8236  Transfer(from, to, amount) */\n      0xffffffffffffffffffffffffffffffffffffffff\n      and\n        /* \"@openzeppelin/contracts/token/ERC20/ERC20.sol\":8219:8223  from */\n      dup5\n        /* \"@openzeppelin/contracts/token/ERC20/ERC20.sol\":8210:8236  Transfer(from, to, amount) */\n      0xffffffffffffffffffffffffffffffffffffffff\n      and\n      0xddf252ad1be2c89b69c2b068fc378daa952ba7f163c4a11628f55a4df523b3ef\n        /* \"@openzeppelin/contracts/token/ERC20/ERC20.sol\":8229:8235  amount */\n      dup5\n        /* \"@openzeppelin/contracts/token/ERC20/ERC20.sol\":8210:8236  Transfer(from, to, amount) */\n      mload(0x40)\n      tag_323\n      swap2\n      swap1\n      tag_73\n      jump\t// in\n    tag_323:\n      mload(0x40)\n      dup1\n      swap2\n      sub\n      swap1\n      log3\n        /* \"@openzeppelin/contracts/token/ERC20/ERC20.sol\":8247:8284  _afterTokenTransfer(from, to, amount) */\n      tag_324\n        /* \"@openzeppelin/contracts/token/ERC20/ERC20.sol\":8267:8271  from */\n      dup5\n        /* \"@openzeppelin/contracts/token/ERC20/ERC20.sol\":8273:8275  to */\n      dup5\n        /* \"@openzeppelin/contracts/token/ERC20/ERC20.sol\":8277:8283  amount */\n      dup5\n        /* \"@openzeppelin/contracts/token/ERC20/ERC20.sol\":8247:8266  _afterTokenTransfer */\n      tag_325\n        /* \"@openzeppelin/contracts/token/ERC20/ERC20.sol\":8247:8284  _afterTokenTransfer(from, to, amount) */\n      jump\t// in\n    tag_324:\n        /* \"@openzeppelin/contracts/token/ERC20/ERC20.sol\":7473:8291  function _transfer(... */\n      pop\n      pop\n      pop\n      pop\n      jump\t// out\n        /* \"@openzeppelin/contracts/token/ERC20/ERC20.sol\":12180:12301  function _beforeTokenTransfer(... */\n    tag_319:\n      pop\n      pop\n      pop\n      jump\t// out\n        /* \"@openzeppelin/contracts/token/ERC20/ERC20.sol\":12889:13009  function _afterTokenTransfer(... */\n    tag_325:\n      pop\n      pop\n      pop\n      jump\t// out\n    tag_272:\n      dup3\n      dup1\n      sload\n      tag_328\n      swap1\n      tag_199\n      jump\t// in\n    tag_328:\n      swap1\n      0x00\n      mstore\n      keccak256(0x00, 0x20)\n      swap1\n      0x1f\n      add\n      0x20\n      swap1\n      div\n      dup2\n      add\n      swap3\n      dup3\n      tag_330\n      jumpi\n      0x00\n      dup6\n      sstore\n      jump(tag_329)\n    tag_330:\n      dup3\n      0x1f\n      lt\n      tag_331\n      jumpi\n      dup1\n      mload\n      not(0xff)\n      and\n      dup4\n      dup1\n      add\n      or\n      dup6\n      sstore\n      jump(tag_329)\n    tag_331:\n      dup3\n      dup1\n      add\n      0x01\n      add\n      dup6\n      sstore\n      dup3\n      iszero\n      tag_329\n      jumpi\n      swap2\n      dup3\n      add\n    tag_332:\n      dup3\n      dup2\n      gt\n      iszero\n      tag_333\n      jumpi\n      dup3\n      mload\n      dup3\n      sstore\n      swap2\n      0x20\n      add\n      swap2\n      swap1\n      0x01\n      add\n      swap1\n      jump(tag_332)\n    tag_333:\n    tag_329:\n      pop\n      swap1\n      pop\n      tag_334\n      swap2\n      swap1\n      tag_335\n      jump\t// in\n    tag_334:\n      pop\n      swap1\n      jump\t// out\n    tag_335:\n    tag_336:\n      dup1\n      dup3\n      gt\n      iszero\n      tag_337\n      jumpi\n      0x00\n      dup2\n      0x00\n      swap1\n      sstore\n      pop\n      0x01\n      add\n      jump(tag_336)\n    tag_337:\n      pop\n      swap1\n      jump\t// out\n        /* \"#utility.yul\":24:646   */\n    tag_339:\n      0x00\n        /* \"#utility.yul\":145:225   */\n      tag_341\n        /* \"#utility.yul\":160:224   */\n      tag_342\n        /* \"#utility.yul\":217:223   */\n      dup5\n        /* \"#utility.yul\":160:224   */\n      tag_343\n      jump\t// in\n    tag_342:\n        /* \"#utility.yul\":145:225   */\n      tag_344\n      jump\t// in\n    tag_341:\n        /* \"#utility.yul\":136:225   */\n      swap1\n      pop\n        /* \"#utility.yul\":245:250   */\n      dup1\n        /* \"#utility.yul\":273:279   */\n      dup4\n        /* \"#utility.yul\":266:271   */\n      dup3\n        /* \"#utility.yul\":259:280   */\n      mstore\n        /* \"#utility.yul\":299:303   */\n      0x20\n        /* \"#utility.yul\":292:297   */\n      dup3\n        /* \"#utility.yul\":288:304   */\n      add\n        /* \"#utility.yul\":281:304   */\n      swap1\n      pop\n        /* \"#utility.yul\":324:330   */\n      dup3\n        /* \"#utility.yul\":374:377   */\n      dup6\n        /* \"#utility.yul\":366:370   */\n      0x20\n        /* \"#utility.yul\":358:364   */\n      dup7\n        /* \"#utility.yul\":354:371   */\n      mul\n        /* \"#utility.yul\":349:352   */\n      dup3\n        /* \"#utility.yul\":345:372   */\n      add\n        /* \"#utility.yul\":342:378   */\n      gt\n        /* \"#utility.yul\":339:341   */\n      iszero\n      tag_345\n      jumpi\n        /* \"#utility.yul\":391:392   */\n      0x00\n        /* \"#utility.yul\":388:389   */\n      dup1\n        /* \"#utility.yul\":381:393   */\n      revert\n        /* \"#utility.yul\":339:341   */\n    tag_345:\n        /* \"#utility.yul\":419:420   */\n      0x00\n        /* \"#utility.yul\":404:640   */\n    tag_346:\n        /* \"#utility.yul\":429:435   */\n      dup6\n        /* \"#utility.yul\":426:427   */\n      dup2\n        /* \"#utility.yul\":423:436   */\n      lt\n        /* \"#utility.yul\":404:640   */\n      iszero\n      tag_348\n      jumpi\n        /* \"#utility.yul\":496:499   */\n      dup2\n        /* \"#utility.yul\":524:561   */\n      tag_349\n        /* \"#utility.yul\":557:560   */\n      dup9\n        /* \"#utility.yul\":545:555   */\n      dup3\n        /* \"#utility.yul\":524:561   */\n      tag_350\n      jump\t// in\n    tag_349:\n        /* \"#utility.yul\":519:522   */\n      dup5\n        /* \"#utility.yul\":512:562   */\n      mstore\n        /* \"#utility.yul\":591:595   */\n      0x20\n        /* \"#utility.yul\":586:589   */\n      dup5\n        /* \"#utility.yul\":582:596   */\n      add\n        /* \"#utility.yul\":575:596   */\n      swap4\n      pop\n        /* \"#utility.yul\":625:629   */\n      0x20\n        /* \"#utility.yul\":620:623   */\n      dup4\n        /* \"#utility.yul\":616:630   */\n      add\n        /* \"#utility.yul\":609:630   */\n      swap3\n      pop\n        /* \"#utility.yul\":464:640   */\n      pop\n        /* \"#utility.yul\":451:452   */\n      0x01\n        /* \"#utility.yul\":448:449   */\n      dup2\n        /* \"#utility.yul\":444:453   */\n      add\n        /* \"#utility.yul\":439:453   */\n      swap1\n      pop\n        /* \"#utility.yul\":404:640   */\n      jump(tag_346)\n    tag_348:\n        /* \"#utility.yul\":408:422   */\n      pop\n        /* \"#utility.yul\":126:646   */\n      pop\n      pop\n      swap4\n      swap3\n      pop\n      pop\n      pop\n      jump\t// out\n        /* \"#utility.yul\":652:996   */\n    tag_351:\n      0x00\n        /* \"#utility.yul\":755:820   */\n      tag_353\n        /* \"#utility.yul\":770:819   */\n      tag_354\n        /* \"#utility.yul\":812:818   */\n      dup5\n        /* \"#utility.yul\":770:819   */\n      tag_355\n      jump\t// in\n    tag_354:\n        /* \"#utility.yul\":755:820   */\n      tag_344\n      jump\t// in\n    tag_353:\n        /* \"#utility.yul\":746:820   */\n      swap1\n      pop\n        /* \"#utility.yul\":843:849   */\n      dup3\n        /* \"#utility.yul\":836:841   */\n      dup2\n        /* \"#utility.yul\":829:850   */\n      mstore\n        /* \"#utility.yul\":881:885   */\n      0x20\n        /* \"#utility.yul\":874:879   */\n      dup2\n        /* \"#utility.yul\":870:886   */\n      add\n        /* \"#utility.yul\":919:922   */\n      dup5\n        /* \"#utility.yul\":910:916   */\n      dup5\n        /* \"#utility.yul\":905:908   */\n      dup5\n        /* \"#utility.yul\":901:917   */\n      add\n        /* \"#utility.yul\":898:923   */\n      gt\n        /* \"#utility.yul\":895:897   */\n      iszero\n      tag_356\n      jumpi\n        /* \"#utility.yul\":936:937   */\n      0x00\n        /* \"#utility.yul\":933:934   */\n      dup1\n        /* \"#utility.yul\":926:938   */\n      revert\n        /* \"#utility.yul\":895:897   */\n    tag_356:\n        /* \"#utility.yul\":949:990   */\n      tag_357\n        /* \"#utility.yul\":983:989   */\n      dup5\n        /* \"#utility.yul\":978:981   */\n      dup3\n        /* \"#utility.yul\":973:976   */\n      dup6\n        /* \"#utility.yul\":949:990   */\n      tag_358\n      jump\t// in\n    tag_357:\n        /* \"#utility.yul\":736:996   */\n      pop\n      swap4\n      swap3\n      pop\n      pop\n      pop\n      jump\t// out\n        /* \"#utility.yul\":1002:1141   */\n    tag_359:\n      0x00\n        /* \"#utility.yul\":1086:1092   */\n      dup2\n        /* \"#utility.yul\":1073:1093   */\n      calldataload\n        /* \"#utility.yul\":1064:1093   */\n      swap1\n      pop\n        /* \"#utility.yul\":1102:1135   */\n      tag_361\n        /* \"#utility.yul\":1129:1134   */\n      dup2\n        /* \"#utility.yul\":1102:1135   */\n      tag_362\n      jump\t// in\n    tag_361:\n        /* \"#utility.yul\":1054:1141   */\n      swap3\n      swap2\n      pop\n      pop\n      jump\t// out\n        /* \"#utility.yul\":1164:1467   */\n    tag_363:\n      0x00\n        /* \"#utility.yul\":1284:1287   */\n      dup3\n        /* \"#utility.yul\":1277:1281   */\n      0x1f\n        /* \"#utility.yul\":1269:1275   */\n      dup4\n        /* \"#utility.yul\":1265:1282   */\n      add\n        /* \"#utility.yul\":1261:1288   */\n      slt\n        /* \"#utility.yul\":1251:1253   */\n      tag_365\n      jumpi\n        /* \"#utility.yul\":1302:1303   */\n      0x00\n        /* \"#utility.yul\":1299:1300   */\n      dup1\n        /* \"#utility.yul\":1292:1304   */\n      revert\n        /* \"#utility.yul\":1251:1253   */\n    tag_365:\n        /* \"#utility.yul\":1342:1348   */\n      dup2\n        /* \"#utility.yul\":1329:1349   */\n      calldataload\n        /* \"#utility.yul\":1367:1461   */\n      tag_366\n        /* \"#utility.yul\":1457:1460   */\n      dup5\n        /* \"#utility.yul\":1449:1455   */\n      dup3\n        /* \"#utility.yul\":1442:1446   */\n      0x20\n        /* \"#utility.yul\":1434:1440   */\n      dup7\n        /* \"#utility.yul\":1430:1447   */\n      add\n        /* \"#utility.yul\":1367:1461   */\n      tag_339\n      jump\t// in\n    tag_366:\n        /* \"#utility.yul\":1358:1461   */\n      swap2\n      pop\n        /* \"#utility.yul\":1241:1467   */\n      pop\n      swap3\n      swap2\n      pop\n      pop\n      jump\t// out\n        /* \"#utility.yul\":1473:1606   */\n    tag_367:\n      0x00\n        /* \"#utility.yul\":1554:1560   */\n      dup2\n        /* \"#utility.yul\":1541:1561   */\n      calldataload\n        /* \"#utility.yul\":1532:1561   */\n      swap1\n      pop\n        /* \"#utility.yul\":1570:1600   */\n      tag_369\n        /* \"#utility.yul\":1594:1599   */\n      dup2\n        /* \"#utility.yul\":1570:1600   */\n      tag_370\n      jump\t// in\n    tag_369:\n        /* \"#utility.yul\":1522:1606   */\n      swap3\n      swap2\n      pop\n      pop\n      jump\t// out\n        /* \"#utility.yul\":1626:1899   */\n    tag_371:\n      0x00\n        /* \"#utility.yul\":1731:1734   */\n      dup3\n        /* \"#utility.yul\":1724:1728   */\n      0x1f\n        /* \"#utility.yul\":1716:1722   */\n      dup4\n        /* \"#utility.yul\":1712:1729   */\n      add\n        /* \"#utility.yul\":1708:1735   */\n      slt\n        /* \"#utility.yul\":1698:1700   */\n      tag_373\n      jumpi\n        /* \"#utility.yul\":1749:1750   */\n      0x00\n        /* \"#utility.yul\":1746:1747   */\n      dup1\n        /* \"#utility.yul\":1739:1751   */\n      revert\n        /* \"#utility.yul\":1698:1700   */\n    tag_373:\n        /* \"#utility.yul\":1789:1795   */\n      dup2\n        /* \"#utility.yul\":1776:1796   */\n      calldataload\n        /* \"#utility.yul\":1814:1893   */\n      tag_374\n        /* \"#utility.yul\":1889:1892   */\n      dup5\n        /* \"#utility.yul\":1881:1887   */\n      dup3\n        /* \"#utility.yul\":1874:1878   */\n      0x20\n        /* \"#utility.yul\":1866:1872   */\n      dup7\n        /* \"#utility.yul\":1862:1879   */\n      add\n        /* \"#utility.yul\":1814:1893   */\n      tag_351\n      jump\t// in\n    tag_374:\n        /* \"#utility.yul\":1805:1893   */\n      swap2\n      pop\n        /* \"#utility.yul\":1688:1899   */\n      pop\n      swap3\n      swap2\n      pop\n      pop\n      jump\t// out\n        /* \"#utility.yul\":1905:2044   */\n    tag_350:\n      0x00\n        /* \"#utility.yul\":1989:1995   */\n      dup2\n        /* \"#utility.yul\":1976:1996   */\n      calldataload\n        /* \"#utility.yul\":1967:1996   */\n      swap1\n      pop\n        /* \"#utility.yul\":2005:2038   */\n      tag_376\n        /* \"#utility.yul\":2032:2037   */\n      dup2\n        /* \"#utility.yul\":2005:2038   */\n      tag_377\n      jump\t// in\n    tag_376:\n        /* \"#utility.yul\":1957:2044   */\n      swap3\n      swap2\n      pop\n      pop\n      jump\t// out\n        /* \"#utility.yul\":2050:2312   */\n    tag_111:\n      0x00\n        /* \"#utility.yul\":2158:2160   */\n      0x20\n        /* \"#utility.yul\":2146:2155   */\n      dup3\n        /* \"#utility.yul\":2137:2144   */\n      dup5\n        /* \"#utility.yul\":2133:2156   */\n      sub\n        /* \"#utility.yul\":2129:2161   */\n      slt\n        /* \"#utility.yul\":2126:2128   */\n      iszero\n      tag_379\n      jumpi\n        /* \"#utility.yul\":2174:2175   */\n      0x00\n        /* \"#utility.yul\":2171:2172   */\n      dup1\n        /* \"#utility.yul\":2164:2176   */\n      revert\n        /* \"#utility.yul\":2126:2128   */\n    tag_379:\n        /* \"#utility.yul\":2217:2218   */\n      0x00\n        /* \"#utility.yul\":2242:2295   */\n      tag_380\n        /* \"#utility.yul\":2287:2294   */\n      dup5\n        /* \"#utility.yul\":2278:2284   */\n      dup3\n        /* \"#utility.yul\":2267:2276   */\n      dup6\n        /* \"#utility.yul\":2263:2285   */\n      add\n        /* \"#utility.yul\":2242:2295   */\n      tag_359\n      jump\t// in\n    tag_380:\n        /* \"#utility.yul\":2232:2295   */\n      swap2\n      pop\n        /* \"#utility.yul\":2188:2305   */\n      pop\n        /* \"#utility.yul\":2116:2312   */\n      swap3\n      swap2\n      pop\n      pop\n      jump\t// out\n        /* \"#utility.yul\":2318:2725   */\n    tag_182:\n      0x00\n      dup1\n        /* \"#utility.yul\":2443:2445   */\n      0x40\n        /* \"#utility.yul\":2431:2440   */\n      dup4\n        /* \"#utility.yul\":2422:2429   */\n      dup6\n        /* \"#utility.yul\":2418:2441   */\n      sub\n        /* \"#utility.yul\":2414:2446   */\n      slt\n        /* \"#utility.yul\":2411:2413   */\n      iszero\n      tag_382\n      jumpi\n        /* \"#utility.yul\":2459:2460   */\n      0x00\n        /* \"#utility.yul\":2456:2457   */\n      dup1\n        /* \"#utility.yul\":2449:2461   */\n      revert\n        /* \"#utility.yul\":2411:2413   */\n    tag_382:\n        /* \"#utility.yul\":2502:2503   */\n      0x00\n        /* \"#utility.yul\":2527:2580   */\n      tag_383\n        /* \"#utility.yul\":2572:2579   */\n      dup6\n        /* \"#utility.yul\":2563:2569   */\n      dup3\n        /* \"#utility.yul\":2552:2561   */\n      dup7\n        /* \"#utility.yul\":2548:2570   */\n      add\n        /* \"#utility.yul\":2527:2580   */\n      tag_359\n      jump\t// in\n    tag_383:\n        /* \"#utility.yul\":2517:2580   */\n      swap3\n      pop\n        /* \"#utility.yul\":2473:2590   */\n      pop\n        /* \"#utility.yul\":2629:2631   */\n      0x20\n        /* \"#utility.yul\":2655:2708   */\n      tag_384\n        /* \"#utility.yul\":2700:2707   */\n      dup6\n        /* \"#utility.yul\":2691:2697   */\n      dup3\n        /* \"#utility.yul\":2680:2689   */\n      dup7\n        /* \"#utility.yul\":2676:2698   */\n      add\n        /* \"#utility.yul\":2655:2708   */\n      tag_359\n      jump\t// in\n    tag_384:\n        /* \"#utility.yul\":2645:2708   */\n      swap2\n      pop\n        /* \"#utility.yul\":2600:2718   */\n      pop\n        /* \"#utility.yul\":2401:2725   */\n      swap3\n      pop\n      swap3\n      swap1\n      pop\n      jump\t// out\n        /* \"#utility.yul\":2731:3283   */\n    tag_77:\n      0x00\n      dup1\n      0x00\n        /* \"#utility.yul\":2873:2875   */\n      0x60\n        /* \"#utility.yul\":2861:2870   */\n      dup5\n        /* \"#utility.yul\":2852:2859   */\n      dup7\n        /* \"#utility.yul\":2848:2871   */\n      sub\n        /* \"#utility.yul\":2844:2876   */\n      slt\n        /* \"#utility.yul\":2841:2843   */\n      iszero\n      tag_386\n      jumpi\n        /* \"#utility.yul\":2889:2890   */\n      0x00\n        /* \"#utility.yul\":2886:2887   */\n      dup1\n        /* \"#utility.yul\":2879:2891   */\n      revert\n        /* \"#utility.yul\":2841:2843   */\n    tag_386:\n        /* \"#utility.yul\":2932:2933   */\n      0x00\n        /* \"#utility.yul\":2957:3010   */\n      tag_387\n        /* \"#utility.yul\":3002:3009   */\n      dup7\n        /* \"#utility.yul\":2993:2999   */\n      dup3\n        /* \"#utility.yul\":2982:2991   */\n      dup8\n        /* \"#utility.yul\":2978:3000   */\n      add\n        /* \"#utility.yul\":2957:3010   */\n      tag_359\n      jump\t// in\n    tag_387:\n        /* \"#utility.yul\":2947:3010   */\n      swap4\n      pop\n        /* \"#utility.yul\":2903:3020   */\n      pop\n        /* \"#utility.yul\":3059:3061   */\n      0x20\n        /* \"#utility.yul\":3085:3138   */\n      tag_388\n        /* \"#utility.yul\":3130:3137   */\n      dup7\n        /* \"#utility.yul\":3121:3127   */\n      dup3\n        /* \"#utility.yul\":3110:3119   */\n      dup8\n        /* \"#utility.yul\":3106:3128   */\n      add\n        /* \"#utility.yul\":3085:3138   */\n      tag_359\n      jump\t// in\n    tag_388:\n        /* \"#utility.yul\":3075:3138   */\n      swap3\n      pop\n        /* \"#utility.yul\":3030:3148   */\n      pop\n        /* \"#utility.yul\":3187:3189   */\n      0x40\n        /* \"#utility.yul\":3213:3266   */\n      tag_389\n        /* \"#utility.yul\":3258:3265   */\n      dup7\n        /* \"#utility.yul\":3249:3255   */\n      dup3\n        /* \"#utility.yul\":3238:3247   */\n      dup8\n        /* \"#utility.yul\":3234:3256   */\n      add\n        /* \"#utility.yul\":3213:3266   */\n      tag_350\n      jump\t// in\n    tag_389:\n        /* \"#utility.yul\":3203:3266   */\n      swap2\n      pop\n        /* \"#utility.yul\":3158:3276   */\n      pop\n        /* \"#utility.yul\":2831:3283   */\n      swap3\n      pop\n      swap3\n      pop\n      swap3\n      jump\t// out\n        /* \"#utility.yul\":3289:3696   */\n    tag_62:\n      0x00\n      dup1\n        /* \"#utility.yul\":3414:3416   */\n      0x40\n        /* \"#utility.yul\":3402:3411   */\n      dup4\n        /* \"#utility.yul\":3393:3400   */\n      dup6\n        /* \"#utility.yul\":3389:3412   */\n      sub\n        /* \"#utility.yul\":3385:3417   */\n      slt\n        /* \"#utility.yul\":3382:3384   */\n      iszero\n      tag_391\n      jumpi\n        /* \"#utility.yul\":3430:3431   */\n      0x00\n        /* \"#utility.yul\":3427:3428   */\n      dup1\n        /* \"#utility.yul\":3420:3432   */\n      revert\n        /* \"#utility.yul\":3382:3384   */\n    tag_391:\n        /* \"#utility.yul\":3473:3474   */\n      0x00\n        /* \"#utility.yul\":3498:3551   */\n      tag_392\n        /* \"#utility.yul\":3543:3550   */\n      dup6\n        /* \"#utility.yul\":3534:3540   */\n      dup3\n        /* \"#utility.yul\":3523:3532   */\n      dup7\n        /* \"#utility.yul\":3519:3541   */\n      add\n        /* \"#utility.yul\":3498:3551   */\n      tag_359\n      jump\t// in\n    tag_392:\n        /* \"#utility.yul\":3488:3551   */\n      swap3\n      pop\n        /* \"#utility.yul\":3444:3561   */\n      pop\n        /* \"#utility.yul\":3600:3602   */\n      0x20\n        /* \"#utility.yul\":3626:3679   */\n      tag_393\n        /* \"#utility.yul\":3671:3678   */\n      dup6\n        /* \"#utility.yul\":3662:3668   */\n      dup3\n        /* \"#utility.yul\":3651:3660   */\n      dup7\n        /* \"#utility.yul\":3647:3669   */\n      add\n        /* \"#utility.yul\":3626:3679   */\n      tag_350\n      jump\t// in\n    tag_393:\n        /* \"#utility.yul\":3616:3679   */\n      swap2\n      pop\n        /* \"#utility.yul\":3571:3689   */\n      pop\n        /* \"#utility.yul\":3372:3696   */\n      swap3\n      pop\n      swap3\n      swap1\n      pop\n      jump\t// out\n        /* \"#utility.yul\":3702:4799   */\n    tag_162:\n      0x00\n      dup1\n      0x00\n      dup1\n        /* \"#utility.yul\":3921:3924   */\n      0x80\n        /* \"#utility.yul\":3909:3918   */\n      dup6\n        /* \"#utility.yul\":3900:3907   */\n      dup8\n        /* \"#utility.yul\":3896:3919   */\n      sub\n        /* \"#utility.yul\":3892:3925   */\n      slt\n        /* \"#utility.yul\":3889:3891   */\n      iszero\n      tag_395\n      jumpi\n        /* \"#utility.yul\":3938:3939   */\n      0x00\n        /* \"#utility.yul\":3935:3936   */\n      dup1\n        /* \"#utility.yul\":3928:3940   */\n      revert\n        /* \"#utility.yul\":3889:3891   */\n    tag_395:\n        /* \"#utility.yul\":4009:4010   */\n      0x00\n        /* \"#utility.yul\":3998:4007   */\n      dup6\n        /* \"#utility.yul\":3994:4011   */\n      add\n        /* \"#utility.yul\":3981:4012   */\n      calldataload\n        /* \"#utility.yul\":4039:4057   */\n      0xffffffffffffffff\n        /* \"#utility.yul\":4031:4037   */\n      dup2\n        /* \"#utility.yul\":4028:4058   */\n      gt\n        /* \"#utility.yul\":4025:4027   */\n      iszero\n      tag_396\n      jumpi\n        /* \"#utility.yul\":4071:4072   */\n      0x00\n        /* \"#utility.yul\":4068:4069   */\n      dup1\n        /* \"#utility.yul\":4061:4073   */\n      revert\n        /* \"#utility.yul\":4025:4027   */\n    tag_396:\n        /* \"#utility.yul\":4099:4162   */\n      tag_397\n        /* \"#utility.yul\":4154:4161   */\n      dup8\n        /* \"#utility.yul\":4145:4151   */\n      dup3\n        /* \"#utility.yul\":4134:4143   */\n      dup9\n        /* \"#utility.yul\":4130:4152   */\n      add\n        /* \"#utility.yul\":4099:4162   */\n      tag_371\n      jump\t// in\n    tag_397:\n        /* \"#utility.yul\":4089:4162   */\n      swap5\n      pop\n        /* \"#utility.yul\":3952:4172   */\n      pop\n        /* \"#utility.yul\":4211:4213   */\n      0x20\n        /* \"#utility.yul\":4237:4290   */\n      tag_398\n        /* \"#utility.yul\":4282:4289   */\n      dup8\n        /* \"#utility.yul\":4273:4279   */\n      dup3\n        /* \"#utility.yul\":4262:4271   */\n      dup9\n        /* \"#utility.yul\":4258:4280   */\n      add\n        /* \"#utility.yul\":4237:4290   */\n      tag_350\n      jump\t// in\n    tag_398:\n        /* \"#utility.yul\":4227:4290   */\n      swap4\n      pop\n        /* \"#utility.yul\":4182:4300   */\n      pop\n        /* \"#utility.yul\":4367:4369   */\n      0x40\n        /* \"#utility.yul\":4356:4365   */\n      dup6\n        /* \"#utility.yul\":4352:4370   */\n      add\n        /* \"#utility.yul\":4339:4371   */\n      calldataload\n        /* \"#utility.yul\":4398:4416   */\n      0xffffffffffffffff\n        /* \"#utility.yul\":4390:4396   */\n      dup2\n        /* \"#utility.yul\":4387:4417   */\n      gt\n        /* \"#utility.yul\":4384:4386   */\n      iszero\n      tag_399\n      jumpi\n        /* \"#utility.yul\":4430:4431   */\n      0x00\n        /* \"#utility.yul\":4427:4428   */\n      dup1\n        /* \"#utility.yul\":4420:4432   */\n      revert\n        /* \"#utility.yul\":4384:4386   */\n    tag_399:\n        /* \"#utility.yul\":4458:4536   */\n      tag_400\n        /* \"#utility.yul\":4528:4535   */\n      dup8\n        /* \"#utility.yul\":4519:4525   */\n      dup3\n        /* \"#utility.yul\":4508:4517   */\n      dup9\n        /* \"#utility.yul\":4504:4526   */\n      add\n        /* \"#utility.yul\":4458:4536   */\n      tag_363\n      jump\t// in\n    tag_400:\n        /* \"#utility.yul\":4448:4536   */\n      swap3\n      pop\n        /* \"#utility.yul\":4310:4546   */\n      pop\n        /* \"#utility.yul\":4613:4615   */\n      0x60\n        /* \"#utility.yul\":4602:4611   */\n      dup6\n        /* \"#utility.yul\":4598:4616   */\n      add\n        /* \"#utility.yul\":4585:4617   */\n      calldataload\n        /* \"#utility.yul\":4644:4662   */\n      0xffffffffffffffff\n        /* \"#utility.yul\":4636:4642   */\n      dup2\n        /* \"#utility.yul\":4633:4663   */\n      gt\n        /* \"#utility.yul\":4630:4632   */\n      iszero\n      tag_401\n      jumpi\n        /* \"#utility.yul\":4676:4677   */\n      0x00\n        /* \"#utility.yul\":4673:4674   */\n      dup1\n        /* \"#utility.yul\":4666:4678   */\n      revert\n        /* \"#utility.yul\":4630:4632   */\n    tag_401:\n        /* \"#utility.yul\":4704:4782   */\n      tag_402\n        /* \"#utility.yul\":4774:4781   */\n      dup8\n        /* \"#utility.yul\":4765:4771   */\n      dup3\n        /* \"#utility.yul\":4754:4763   */\n      dup9\n        /* \"#utility.yul\":4750:4772   */\n      add\n        /* \"#utility.yul\":4704:4782   */\n      tag_363\n      jump\t// in\n    tag_402:\n        /* \"#utility.yul\":4694:4782   */\n      swap2\n      pop\n        /* \"#utility.yul\":4556:4792   */\n      pop\n        /* \"#utility.yul\":3879:4799   */\n      swap3\n      swap6\n      swap2\n      swap5\n      pop\n      swap3\n      pop\n      jump\t// out\n        /* \"#utility.yul\":4805:5067   */\n    tag_47:\n      0x00\n        /* \"#utility.yul\":4913:4915   */\n      0x20\n        /* \"#utility.yul\":4901:4910   */\n      dup3\n        /* \"#utility.yul\":4892:4899   */\n      dup5\n        /* \"#utility.yul\":4888:4911   */\n      sub\n        /* \"#utility.yul\":4884:4916   */\n      slt\n        /* \"#utility.yul\":4881:4883   */\n      iszero\n      tag_404\n      jumpi\n        /* \"#utility.yul\":4929:4930   */\n      0x00\n        /* \"#utility.yul\":4926:4927   */\n      dup1\n        /* \"#utility.yul\":4919:4931   */\n      revert\n        /* \"#utility.yul\":4881:4883   */\n    tag_404:\n        /* \"#utility.yul\":4972:4973   */\n      0x00\n        /* \"#utility.yul\":4997:5050   */\n      tag_405\n        /* \"#utility.yul\":5042:5049   */\n      dup5\n        /* \"#utility.yul\":5033:5039   */\n      dup3\n        /* \"#utility.yul\":5022:5031   */\n      dup6\n        /* \"#utility.yul\":5018:5040   */\n      add\n        /* \"#utility.yul\":4997:5050   */\n      tag_350\n      jump\t// in\n    tag_405:\n        /* \"#utility.yul\":4987:5050   */\n      swap2\n      pop\n        /* \"#utility.yul\":4943:5060   */\n      pop\n        /* \"#utility.yul\":4871:5067   */\n      swap3\n      swap2\n      pop\n      pop\n      jump\t// out\n        /* \"#utility.yul\":5073:5474   */\n    tag_194:\n      0x00\n      dup1\n        /* \"#utility.yul\":5195:5197   */\n      0x40\n        /* \"#utility.yul\":5183:5192   */\n      dup4\n        /* \"#utility.yul\":5174:5181   */\n      dup6\n        /* \"#utility.yul\":5170:5193   */\n      sub\n        /* \"#utility.yul\":5166:5198   */\n      slt\n        /* \"#utility.yul\":5163:5165   */\n      iszero\n      tag_407\n      jumpi\n        /* \"#utility.yul\":5211:5212   */\n      0x00\n        /* \"#utility.yul\":5208:5209   */\n      dup1\n        /* \"#utility.yul\":5201:5213   */\n      revert\n        /* \"#utility.yul\":5163:5165   */\n    tag_407:\n        /* \"#utility.yul\":5254:5255   */\n      0x00\n        /* \"#utility.yul\":5279:5332   */\n      tag_408\n        /* \"#utility.yul\":5324:5331   */\n      dup6\n        /* \"#utility.yul\":5315:5321   */\n      dup3\n        /* \"#utility.yul\":5304:5313   */\n      dup7\n        /* \"#utility.yul\":5300:5322   */\n      add\n        /* \"#utility.yul\":5279:5332   */\n      tag_350\n      jump\t// in\n    tag_408:\n        /* \"#utility.yul\":5269:5332   */\n      swap3\n      pop\n        /* \"#utility.yul\":5225:5342   */\n      pop\n        /* \"#utility.yul\":5381:5383   */\n      0x20\n        /* \"#utility.yul\":5407:5457   */\n      tag_409\n        /* \"#utility.yul\":5449:5456   */\n      dup6\n        /* \"#utility.yul\":5440:5446   */\n      dup3\n        /* \"#utility.yul\":5429:5438   */\n      dup7\n        /* \"#utility.yul\":5425:5447   */\n      add\n        /* \"#utility.yul\":5407:5457   */\n      tag_367\n      jump\t// in\n    tag_409:\n        /* \"#utility.yul\":5397:5457   */\n      swap2\n      pop\n        /* \"#utility.yul\":5352:5467   */\n      pop\n        /* \"#utility.yul\":5153:5474   */\n      swap3\n      pop\n      swap3\n      swap1\n      pop\n      jump\t// out\n        /* \"#utility.yul\":5480:5598   */\n    tag_410:\n        /* \"#utility.yul\":5567:5591   */\n      tag_412\n        /* \"#utility.yul\":5585:5590   */\n      dup2\n        /* \"#utility.yul\":5567:5591   */\n      tag_413\n      jump\t// in\n    tag_412:\n        /* \"#utility.yul\":5562:5565   */\n      dup3\n        /* \"#utility.yul\":5555:5592   */\n      mstore\n        /* \"#utility.yul\":5545:5598   */\n      pop\n      pop\n      jump\t// out\n        /* \"#utility.yul\":5604:5713   */\n    tag_414:\n        /* \"#utility.yul\":5685:5706   */\n      tag_416\n        /* \"#utility.yul\":5700:5705   */\n      dup2\n        /* \"#utility.yul\":5685:5706   */\n      tag_417\n      jump\t// in\n    tag_416:\n        /* \"#utility.yul\":5680:5683   */\n      dup3\n        /* \"#utility.yul\":5673:5707   */\n      mstore\n        /* \"#utility.yul\":5663:5713   */\n      pop\n      pop\n      jump\t// out\n        /* \"#utility.yul\":5719:5837   */\n    tag_418:\n        /* \"#utility.yul\":5806:5830   */\n      tag_420\n        /* \"#utility.yul\":5824:5829   */\n      dup2\n        /* \"#utility.yul\":5806:5830   */\n      tag_421\n      jump\t// in\n    tag_420:\n        /* \"#utility.yul\":5801:5804   */\n      dup3\n        /* \"#utility.yul\":5794:5831   */\n      mstore\n        /* \"#utility.yul\":5784:5837   */\n      pop\n      pop\n      jump\t// out\n        /* \"#utility.yul\":5843:6203   */\n    tag_422:\n      0x00\n        /* \"#utility.yul\":5957:5995   */\n      tag_424\n        /* \"#utility.yul\":5989:5994   */\n      dup3\n        /* \"#utility.yul\":5957:5995   */\n      tag_425\n      jump\t// in\n    tag_424:\n        /* \"#utility.yul\":6011:6081   */\n      tag_426\n        /* \"#utility.yul\":6074:6080   */\n      dup2\n        /* \"#utility.yul\":6069:6072   */\n      dup6\n        /* \"#utility.yul\":6011:6081   */\n      tag_427\n      jump\t// in\n    tag_426:\n        /* \"#utility.yul\":6004:6081   */\n      swap4\n      pop\n        /* \"#utility.yul\":6090:6142   */\n      tag_428\n        /* \"#utility.yul\":6135:6141   */\n      dup2\n        /* \"#utility.yul\":6130:6133   */\n      dup6\n        /* \"#utility.yul\":6123:6127   */\n      0x20\n        /* \"#utility.yul\":6116:6121   */\n      dup7\n        /* \"#utility.yul\":6112:6128   */\n      add\n        /* \"#utility.yul\":6090:6142   */\n      tag_429\n      jump\t// in\n    tag_428:\n        /* \"#utility.yul\":6167:6196   */\n      tag_430\n        /* \"#utility.yul\":6189:6195   */\n      dup2\n        /* \"#utility.yul\":6167:6196   */\n      tag_431\n      jump\t// in\n    tag_430:\n        /* \"#utility.yul\":6162:6165   */\n      dup5\n        /* \"#utility.yul\":6158:6197   */\n      add\n        /* \"#utility.yul\":6151:6197   */\n      swap2\n      pop\n        /* \"#utility.yul\":5933:6203   */\n      pop\n      swap3\n      swap2\n      pop\n      pop\n      jump\t// out\n        /* \"#utility.yul\":6209:6573   */\n    tag_432:\n      0x00\n        /* \"#utility.yul\":6325:6364   */\n      tag_434\n        /* \"#utility.yul\":6358:6363   */\n      dup3\n        /* \"#utility.yul\":6325:6364   */\n      tag_435\n      jump\t// in\n    tag_434:\n        /* \"#utility.yul\":6380:6451   */\n      tag_436\n        /* \"#utility.yul\":6444:6450   */\n      dup2\n        /* \"#utility.yul\":6439:6442   */\n      dup6\n        /* \"#utility.yul\":6380:6451   */\n      tag_437\n      jump\t// in\n    tag_436:\n        /* \"#utility.yul\":6373:6451   */\n      swap4\n      pop\n        /* \"#utility.yul\":6460:6512   */\n      tag_438\n        /* \"#utility.yul\":6505:6511   */\n      dup2\n        /* \"#utility.yul\":6500:6503   */\n      dup6\n        /* \"#utility.yul\":6493:6497   */\n      0x20\n        /* \"#utility.yul\":6486:6491   */\n      dup7\n        /* \"#utility.yul\":6482:6498   */\n      add\n        /* \"#utility.yul\":6460:6512   */\n      tag_429\n      jump\t// in\n    tag_438:\n        /* \"#utility.yul\":6537:6566   */\n      tag_439\n        /* \"#utility.yul\":6559:6565   */\n      dup2\n        /* \"#utility.yul\":6537:6566   */\n      tag_431\n      jump\t// in\n    tag_439:\n        /* \"#utility.yul\":6532:6535   */\n      dup5\n        /* \"#utility.yul\":6528:6567   */\n      add\n        /* \"#utility.yul\":6521:6567   */\n      swap2\n      pop\n        /* \"#utility.yul\":6301:6573   */\n      pop\n      swap3\n      swap2\n      pop\n      pop\n      jump\t// out\n        /* \"#utility.yul\":6579:6946   */\n    tag_440:\n      0x00\n        /* \"#utility.yul\":6742:6809   */\n      tag_442\n        /* \"#utility.yul\":6806:6808   */\n      0x23\n        /* \"#utility.yul\":6801:6804   */\n      dup4\n        /* \"#utility.yul\":6742:6809   */\n      tag_437\n      jump\t// in\n    tag_442:\n        /* \"#utility.yul\":6735:6809   */\n      swap2\n      pop\n        /* \"#utility.yul\":6839:6873   */\n      0x45524332303a207472616e7366657220746f20746865207a65726f2061646472\n        /* \"#utility.yul\":6835:6836   */\n      0x00\n        /* \"#utility.yul\":6830:6833   */\n      dup4\n        /* \"#utility.yul\":6826:6837   */\n      add\n        /* \"#utility.yul\":6819:6874   */\n      mstore\n        /* \"#utility.yul\":6905:6910   */\n      0x6573730000000000000000000000000000000000000000000000000000000000\n        /* \"#utility.yul\":6900:6902   */\n      0x20\n        /* \"#utility.yul\":6895:6898   */\n      dup4\n        /* \"#utility.yul\":6891:6903   */\n      add\n        /* \"#utility.yul\":6884:6911   */\n      mstore\n        /* \"#utility.yul\":6937:6939   */\n      0x40\n        /* \"#utility.yul\":6932:6935   */\n      dup3\n        /* \"#utility.yul\":6928:6940   */\n      add\n        /* \"#utility.yul\":6921:6940   */\n      swap1\n      pop\n        /* \"#utility.yul\":6725:6946   */\n      swap2\n      swap1\n      pop\n      jump\t// out\n        /* \"#utility.yul\":6952:7278   */\n    tag_443:\n      0x00\n        /* \"#utility.yul\":7115:7182   */\n      tag_445\n        /* \"#utility.yul\":7179:7181   */\n      0x1c\n        /* \"#utility.yul\":7174:7177   */\n      dup4\n        /* \"#utility.yul\":7115:7182   */\n      tag_437\n      jump\t// in\n    tag_445:\n        /* \"#utility.yul\":7108:7182   */\n      swap2\n      pop\n        /* \"#utility.yul\":7212:7242   */\n      0x53656c662064656c65676174696f6e206e6f7420616c6c6f7765642100000000\n        /* \"#utility.yul\":7208:7209   */\n      0x00\n        /* \"#utility.yul\":7203:7206   */\n      dup4\n        /* \"#utility.yul\":7199:7210   */\n      add\n        /* \"#utility.yul\":7192:7243   */\n      mstore\n        /* \"#utility.yul\":7269:7271   */\n      0x20\n        /* \"#utility.yul\":7264:7267   */\n      dup3\n        /* \"#utility.yul\":7260:7272   */\n      add\n        /* \"#utility.yul\":7253:7272   */\n      swap1\n      pop\n        /* \"#utility.yul\":7098:7278   */\n      swap2\n      swap1\n      pop\n      jump\t// out\n        /* \"#utility.yul\":7284:7650   */\n    tag_446:\n      0x00\n        /* \"#utility.yul\":7447:7514   */\n      tag_448\n        /* \"#utility.yul\":7511:7513   */\n      0x22\n        /* \"#utility.yul\":7506:7509   */\n      dup4\n        /* \"#utility.yul\":7447:7514   */\n      tag_437\n      jump\t// in\n    tag_448:\n        /* \"#utility.yul\":7440:7514   */\n      swap2\n      pop\n        /* \"#utility.yul\":7544:7578   */\n      0x45524332303a20617070726f766520746f20746865207a65726f206164647265\n        /* \"#utility.yul\":7540:7541   */\n      0x00\n        /* \"#utility.yul\":7535:7538   */\n      dup4\n        /* \"#utility.yul\":7531:7542   */\n      add\n        /* \"#utility.yul\":7524:7579   */\n      mstore\n        /* \"#utility.yul\":7610:7614   */\n      0x7373000000000000000000000000000000000000000000000000000000000000\n        /* \"#utility.yul\":7605:7607   */\n      0x20\n        /* \"#utility.yul\":7600:7603   */\n      dup4\n        /* \"#utility.yul\":7596:7608   */\n      add\n        /* \"#utility.yul\":7589:7615   */\n      mstore\n        /* \"#utility.yul\":7641:7643   */\n      0x40\n        /* \"#utility.yul\":7636:7639   */\n      dup3\n        /* \"#utility.yul\":7632:7644   */\n      add\n        /* \"#utility.yul\":7625:7644   */\n      swap1\n      pop\n        /* \"#utility.yul\":7430:7650   */\n      swap2\n      swap1\n      pop\n      jump\t// out\n        /* \"#utility.yul\":7656:7983   */\n    tag_449:\n      0x00\n        /* \"#utility.yul\":7819:7886   */\n      tag_451\n        /* \"#utility.yul\":7883:7885   */\n      0x1d\n        /* \"#utility.yul\":7878:7881   */\n      dup4\n        /* \"#utility.yul\":7819:7886   */\n      tag_437\n      jump\t// in\n    tag_451:\n        /* \"#utility.yul\":7812:7886   */\n      swap2\n      pop\n        /* \"#utility.yul\":7916:7947   */\n      0x45524332303a20696e73756666696369656e7420616c6c6f77616e6365000000\n        /* \"#utility.yul\":7912:7913   */\n      0x00\n        /* \"#utility.yul\":7907:7910   */\n      dup4\n        /* \"#utility.yul\":7903:7914   */\n      add\n        /* \"#utility.yul\":7896:7948   */\n      mstore\n        /* \"#utility.yul\":7974:7976   */\n      0x20\n        /* \"#utility.yul\":7969:7972   */\n      dup3\n        /* \"#utility.yul\":7965:7977   */\n      add\n        /* \"#utility.yul\":7958:7977   */\n      swap1\n      pop\n        /* \"#utility.yul\":7802:7983   */\n      swap2\n      swap1\n      pop\n      jump\t// out\n        /* \"#utility.yul\":7989:8359   */\n    tag_452:\n      0x00\n        /* \"#utility.yul\":8152:8219   */\n      tag_454\n        /* \"#utility.yul\":8216:8218   */\n      0x26\n        /* \"#utility.yul\":8211:8214   */\n      dup4\n        /* \"#utility.yul\":8152:8219   */\n      tag_437\n      jump\t// in\n    tag_454:\n        /* \"#utility.yul\":8145:8219   */\n      swap2\n      pop\n        /* \"#utility.yul\":8249:8283   */\n      0x45524332303a207472616e7366657220616d6f756e7420657863656564732062\n        /* \"#utility.yul\":8245:8246   */\n      0x00\n        /* \"#utility.yul\":8240:8243   */\n      dup4\n        /* \"#utility.yul\":8236:8247   */\n      add\n        /* \"#utility.yul\":8229:8284   */\n      mstore\n        /* \"#utility.yul\":8315:8323   */\n      0x616c616e63650000000000000000000000000000000000000000000000000000\n        /* \"#utility.yul\":8310:8312   */\n      0x20\n        /* \"#utility.yul\":8305:8308   */\n      dup4\n        /* \"#utility.yul\":8301:8313   */\n      add\n        /* \"#utility.yul\":8294:8324   */\n      mstore\n        /* \"#utility.yul\":8350:8352   */\n      0x40\n        /* \"#utility.yul\":8345:8348   */\n      dup3\n        /* \"#utility.yul\":8341:8353   */\n      add\n        /* \"#utility.yul\":8334:8353   */\n      swap1\n      pop\n        /* \"#utility.yul\":8135:8359   */\n      swap2\n      swap1\n      pop\n      jump\t// out\n        /* \"#utility.yul\":8365:8734   */\n    tag_455:\n      0x00\n        /* \"#utility.yul\":8528:8595   */\n      tag_457\n        /* \"#utility.yul\":8592:8594   */\n      0x25\n        /* \"#utility.yul\":8587:8590   */\n      dup4\n        /* \"#utility.yul\":8528:8595   */\n      tag_437\n      jump\t// in\n    tag_457:\n        /* \"#utility.yul\":8521:8595   */\n      swap2\n      pop\n        /* \"#utility.yul\":8625:8659   */\n      0x45524332303a207472616e736665722066726f6d20746865207a65726f206164\n        /* \"#utility.yul\":8621:8622   */\n      0x00\n        /* \"#utility.yul\":8616:8619   */\n      dup4\n        /* \"#utility.yul\":8612:8623   */\n      add\n        /* \"#utility.yul\":8605:8660   */\n      mstore\n        /* \"#utility.yul\":8691:8698   */\n      0x6472657373000000000000000000000000000000000000000000000000000000\n        /* \"#utility.yul\":8686:8688   */\n      0x20\n        /* \"#utility.yul\":8681:8684   */\n      dup4\n        /* \"#utility.yul\":8677:8689   */\n      add\n        /* \"#utility.yul\":8670:8699   */\n      mstore\n        /* \"#utility.yul\":8725:8727   */\n      0x40\n        /* \"#utility.yul\":8720:8723   */\n      dup3\n        /* \"#utility.yul\":8716:8728   */\n      add\n        /* \"#utility.yul\":8709:8728   */\n      swap1\n      pop\n        /* \"#utility.yul\":8511:8734   */\n      swap2\n      swap1\n      pop\n      jump\t// out\n        /* \"#utility.yul\":8740:9056   */\n    tag_458:\n      0x00\n        /* \"#utility.yul\":8903:8970   */\n      tag_460\n        /* \"#utility.yul\":8967:8969   */\n      0x12\n        /* \"#utility.yul\":8962:8965   */\n      dup4\n        /* \"#utility.yul\":8903:8970   */\n      tag_437\n      jump\t// in\n    tag_460:\n        /* \"#utility.yul\":8896:8970   */\n      swap2\n      pop\n        /* \"#utility.yul\":9000:9020   */\n      0x596f7520616c726561647920766f746564210000000000000000000000000000\n        /* \"#utility.yul\":8996:8997   */\n      0x00\n        /* \"#utility.yul\":8991:8994   */\n      dup4\n        /* \"#utility.yul\":8987:8998   */\n      add\n        /* \"#utility.yul\":8980:9021   */\n      mstore\n        /* \"#utility.yul\":9047:9049   */\n      0x20\n        /* \"#utility.yul\":9042:9045   */\n      dup3\n        /* \"#utility.yul\":9038:9050   */\n      add\n        /* \"#utility.yul\":9031:9050   */\n      swap1\n      pop\n        /* \"#utility.yul\":8886:9056   */\n      swap2\n      swap1\n      pop\n      jump\t// out\n        /* \"#utility.yul\":9062:9430   */\n    tag_461:\n      0x00\n        /* \"#utility.yul\":9225:9292   */\n      tag_463\n        /* \"#utility.yul\":9289:9291   */\n      0x24\n        /* \"#utility.yul\":9284:9287   */\n      dup4\n        /* \"#utility.yul\":9225:9292   */\n      tag_437\n      jump\t// in\n    tag_463:\n        /* \"#utility.yul\":9218:9292   */\n      swap2\n      pop\n        /* \"#utility.yul\":9322:9356   */\n      0x45524332303a20617070726f76652066726f6d20746865207a65726f20616464\n        /* \"#utility.yul\":9318:9319   */\n      0x00\n        /* \"#utility.yul\":9313:9316   */\n      dup4\n        /* \"#utility.yul\":9309:9320   */\n      add\n        /* \"#utility.yul\":9302:9357   */\n      mstore\n        /* \"#utility.yul\":9388:9394   */\n      0x7265737300000000000000000000000000000000000000000000000000000000\n        /* \"#utility.yul\":9383:9385   */\n      0x20\n        /* \"#utility.yul\":9378:9381   */\n      dup4\n        /* \"#utility.yul\":9374:9386   */\n      add\n        /* \"#utility.yul\":9367:9395   */\n      mstore\n        /* \"#utility.yul\":9421:9423   */\n      0x40\n        /* \"#utility.yul\":9416:9419   */\n      dup3\n        /* \"#utility.yul\":9412:9424   */\n      add\n        /* \"#utility.yul\":9405:9424   */\n      swap1\n      pop\n        /* \"#utility.yul\":9208:9430   */\n      swap2\n      swap1\n      pop\n      jump\t// out\n        /* \"#utility.yul\":9436:9805   */\n    tag_464:\n      0x00\n        /* \"#utility.yul\":9599:9666   */\n      tag_466\n        /* \"#utility.yul\":9663:9665   */\n      0x25\n        /* \"#utility.yul\":9658:9661   */\n      dup4\n        /* \"#utility.yul\":9599:9666   */\n      tag_437\n      jump\t// in\n    tag_466:\n        /* \"#utility.yul\":9592:9666   */\n      swap2\n      pop\n        /* \"#utility.yul\":9696:9730   */\n      0x45524332303a2064656372656173656420616c6c6f77616e63652062656c6f77\n        /* \"#utility.yul\":9692:9693   */\n      0x00\n        /* \"#utility.yul\":9687:9690   */\n      dup4\n        /* \"#utility.yul\":9683:9694   */\n      add\n        /* \"#utility.yul\":9676:9731   */\n      mstore\n        /* \"#utility.yul\":9762:9769   */\n      0x207a65726f000000000000000000000000000000000000000000000000000000\n        /* \"#utility.yul\":9757:9759   */\n      0x20\n        /* \"#utility.yul\":9752:9755   */\n      dup4\n        /* \"#utility.yul\":9748:9760   */\n      add\n        /* \"#utility.yul\":9741:9770   */\n      mstore\n        /* \"#utility.yul\":9796:9798   */\n      0x40\n        /* \"#utility.yul\":9791:9794   */\n      dup3\n        /* \"#utility.yul\":9787:9799   */\n      add\n        /* \"#utility.yul\":9780:9799   */\n      swap1\n      pop\n        /* \"#utility.yul\":9582:9805   */\n      swap2\n      swap1\n      pop\n      jump\t// out\n        /* \"#utility.yul\":9811:9929   */\n    tag_467:\n        /* \"#utility.yul\":9898:9922   */\n      tag_469\n        /* \"#utility.yul\":9916:9921   */\n      dup2\n        /* \"#utility.yul\":9898:9922   */\n      tag_470\n      jump\t// in\n    tag_469:\n        /* \"#utility.yul\":9893:9896   */\n      dup3\n        /* \"#utility.yul\":9886:9923   */\n      mstore\n        /* \"#utility.yul\":9876:9929   */\n      pop\n      pop\n      jump\t// out\n        /* \"#utility.yul\":9935:10047   */\n    tag_471:\n        /* \"#utility.yul\":10018:10040   */\n      tag_473\n        /* \"#utility.yul\":10034:10039   */\n      dup2\n        /* \"#utility.yul\":10018:10040   */\n      tag_474\n      jump\t// in\n    tag_473:\n        /* \"#utility.yul\":10013:10016   */\n      dup3\n        /* \"#utility.yul\":10006:10041   */\n      mstore\n        /* \"#utility.yul\":9996:10047   */\n      pop\n      pop\n      jump\t// out\n        /* \"#utility.yul\":10053:10275   */\n    tag_133:\n      0x00\n        /* \"#utility.yul\":10184:10186   */\n      0x20\n        /* \"#utility.yul\":10173:10182   */\n      dup3\n        /* \"#utility.yul\":10169:10187   */\n      add\n        /* \"#utility.yul\":10161:10187   */\n      swap1\n      pop\n        /* \"#utility.yul\":10197:10268   */\n      tag_476\n        /* \"#utility.yul\":10265:10266   */\n      0x00\n        /* \"#utility.yul\":10254:10263   */\n      dup4\n        /* \"#utility.yul\":10250:10267   */\n      add\n        /* \"#utility.yul\":10241:10247   */\n      dup5\n        /* \"#utility.yul\":10197:10268   */\n      tag_410\n      jump\t// in\n    tag_476:\n        /* \"#utility.yul\":10151:10275   */\n      swap3\n      swap2\n      pop\n      pop\n      jump\t// out\n        /* \"#utility.yul\":10281:10491   */\n    tag_65:\n      0x00\n        /* \"#utility.yul\":10406:10408   */\n      0x20\n        /* \"#utility.yul\":10395:10404   */\n      dup3\n        /* \"#utility.yul\":10391:10409   */\n      add\n        /* \"#utility.yul\":10383:10409   */\n      swap1\n      pop\n        /* \"#utility.yul\":10419:10484   */\n      tag_478\n        /* \"#utility.yul\":10481:10482   */\n      0x00\n        /* \"#utility.yul\":10470:10479   */\n      dup4\n        /* \"#utility.yul\":10466:10483   */\n      add\n        /* \"#utility.yul\":10457:10463   */\n      dup5\n        /* \"#utility.yul\":10419:10484   */\n      tag_414\n      jump\t// in\n    tag_478:\n        /* \"#utility.yul\":10373:10491   */\n      swap3\n      swap2\n      pop\n      pop\n      jump\t// out\n        /* \"#utility.yul\":10497:10719   */\n    tag_127:\n      0x00\n        /* \"#utility.yul\":10628:10630   */\n      0x20\n        /* \"#utility.yul\":10617:10626   */\n      dup3\n        /* \"#utility.yul\":10613:10631   */\n      add\n        /* \"#utility.yul\":10605:10631   */\n      swap1\n      pop\n        /* \"#utility.yul\":10641:10712   */\n      tag_480\n        /* \"#utility.yul\":10709:10710   */\n      0x00\n        /* \"#utility.yul\":10698:10707   */\n      dup4\n        /* \"#utility.yul\":10694:10711   */\n      add\n        /* \"#utility.yul\":10685:10691   */\n      dup5\n        /* \"#utility.yul\":10641:10712   */\n      tag_418\n      jump\t// in\n    tag_480:\n        /* \"#utility.yul\":10595:10719   */\n      swap3\n      swap2\n      pop\n      pop\n      jump\t// out\n        /* \"#utility.yul\":10725:11341   */\n    tag_50:\n      0x00\n        /* \"#utility.yul\":10946:10949   */\n      0x80\n        /* \"#utility.yul\":10935:10944   */\n      dup3\n        /* \"#utility.yul\":10931:10950   */\n      add\n        /* \"#utility.yul\":10923:10950   */\n      swap1\n      pop\n        /* \"#utility.yul\":10996:11005   */\n      dup2\n        /* \"#utility.yul\":10990:10994   */\n      dup2\n        /* \"#utility.yul\":10986:11006   */\n      sub\n        /* \"#utility.yul\":10982:10983   */\n      0x00\n        /* \"#utility.yul\":10971:10980   */\n      dup4\n        /* \"#utility.yul\":10967:10984   */\n      add\n        /* \"#utility.yul\":10960:11007   */\n      mstore\n        /* \"#utility.yul\":11024:11100   */\n      tag_482\n        /* \"#utility.yul\":11095:11099   */\n      dup2\n        /* \"#utility.yul\":11086:11092   */\n      dup8\n        /* \"#utility.yul\":11024:11100   */\n      tag_422\n      jump\t// in\n    tag_482:\n        /* \"#utility.yul\":11016:11100   */\n      swap1\n      pop\n        /* \"#utility.yul\":11110:11182   */\n      tag_483\n        /* \"#utility.yul\":11178:11180   */\n      0x20\n        /* \"#utility.yul\":11167:11176   */\n      dup4\n        /* \"#utility.yul\":11163:11181   */\n      add\n        /* \"#utility.yul\":11154:11160   */\n      dup7\n        /* \"#utility.yul\":11110:11182   */\n      tag_467\n      jump\t// in\n    tag_483:\n        /* \"#utility.yul\":11192:11258   */\n      tag_484\n        /* \"#utility.yul\":11254:11256   */\n      0x40\n        /* \"#utility.yul\":11243:11252   */\n      dup4\n        /* \"#utility.yul\":11239:11257   */\n      add\n        /* \"#utility.yul\":11230:11236   */\n      dup6\n        /* \"#utility.yul\":11192:11258   */\n      tag_414\n      jump\t// in\n    tag_484:\n        /* \"#utility.yul\":11268:11334   */\n      tag_485\n        /* \"#utility.yul\":11330:11332   */\n      0x60\n        /* \"#utility.yul\":11319:11328   */\n      dup4\n        /* \"#utility.yul\":11315:11333   */\n      add\n        /* \"#utility.yul\":11306:11312   */\n      dup5\n        /* \"#utility.yul\":11268:11334   */\n      tag_414\n      jump\t// in\n    tag_485:\n        /* \"#utility.yul\":10913:11341   */\n      swap6\n      swap5\n      pop\n      pop\n      pop\n      pop\n      pop\n      jump\t// out\n        /* \"#utility.yul\":11347:11660   */\n    tag_58:\n      0x00\n        /* \"#utility.yul\":11498:11500   */\n      0x20\n        /* \"#utility.yul\":11487:11496   */\n      dup3\n        /* \"#utility.yul\":11483:11501   */\n      add\n        /* \"#utility.yul\":11475:11501   */\n      swap1\n      pop\n        /* \"#utility.yul\":11547:11556   */\n      dup2\n        /* \"#utility.yul\":11541:11545   */\n      dup2\n        /* \"#utility.yul\":11537:11557   */\n      sub\n        /* \"#utility.yul\":11533:11534   */\n      0x00\n        /* \"#utility.yul\":11522:11531   */\n      dup4\n        /* \"#utility.yul\":11518:11535   */\n      add\n        /* \"#utility.yul\":11511:11558   */\n      mstore\n        /* \"#utility.yul\":11575:11653   */\n      tag_487\n        /* \"#utility.yul\":11648:11652   */\n      dup2\n        /* \"#utility.yul\":11639:11645   */\n      dup5\n        /* \"#utility.yul\":11575:11653   */\n      tag_432\n      jump\t// in\n    tag_487:\n        /* \"#utility.yul\":11567:11653   */\n      swap1\n      pop\n        /* \"#utility.yul\":11465:11660   */\n      swap3\n      swap2\n      pop\n      pop\n      jump\t// out\n        /* \"#utility.yul\":11666:12085   */\n    tag_317:\n      0x00\n        /* \"#utility.yul\":11870:11872   */\n      0x20\n        /* \"#utility.yul\":11859:11868   */\n      dup3\n        /* \"#utility.yul\":11855:11873   */\n      add\n        /* \"#utility.yul\":11847:11873   */\n      swap1\n      pop\n        /* \"#utility.yul\":11919:11928   */\n      dup2\n        /* \"#utility.yul\":11913:11917   */\n      dup2\n        /* \"#utility.yul\":11909:11929   */\n      sub\n        /* \"#utility.yul\":11905:11906   */\n      0x00\n        /* \"#utility.yul\":11894:11903   */\n      dup4\n        /* \"#utility.yul\":11890:11907   */\n      add\n        /* \"#utility.yul\":11883:11930   */\n      mstore\n        /* \"#utility.yul\":11947:12078   */\n      tag_489\n        /* \"#utility.yul\":12073:12077   */\n      dup2\n        /* \"#utility.yul\":11947:12078   */\n      tag_440\n      jump\t// in\n    tag_489:\n        /* \"#utility.yul\":11939:12078   */\n      swap1\n      pop\n        /* \"#utility.yul\":11837:12085   */\n      swap2\n      swap1\n      pop\n      jump\t// out\n        /* \"#utility.yul\":12091:12510   */\n    tag_260:\n      0x00\n        /* \"#utility.yul\":12295:12297   */\n      0x20\n        /* \"#utility.yul\":12284:12293   */\n      dup3\n        /* \"#utility.yul\":12280:12298   */\n      add\n        /* \"#utility.yul\":12272:12298   */\n      swap1\n      pop\n        /* \"#utility.yul\":12344:12353   */\n      dup2\n        /* \"#utility.yul\":12338:12342   */\n      dup2\n        /* \"#utility.yul\":12334:12354   */\n      sub\n        /* \"#utility.yul\":12330:12331   */\n      0x00\n        /* \"#utility.yul\":12319:12328   */\n      dup4\n        /* \"#utility.yul\":12315:12332   */\n      add\n        /* \"#utility.yul\":12308:12355   */\n      mstore\n        /* \"#utility.yul\":12372:12503   */\n      tag_491\n        /* \"#utility.yul\":12498:12502   */\n      dup2\n        /* \"#utility.yul\":12372:12503   */\n      tag_443\n      jump\t// in\n    tag_491:\n        /* \"#utility.yul\":12364:12503   */\n      swap1\n      pop\n        /* \"#utility.yul\":12262:12510   */\n      swap2\n      swap1\n      pop\n      jump\t// out\n        /* \"#utility.yul\":12516:12935   */\n    tag_302:\n      0x00\n        /* \"#utility.yul\":12720:12722   */\n      0x20\n        /* \"#utility.yul\":12709:12718   */\n      dup3\n        /* \"#utility.yul\":12705:12723   */\n      add\n        /* \"#utility.yul\":12697:12723   */\n      swap1\n      pop\n        /* \"#utility.yul\":12769:12778   */\n      dup2\n        /* \"#utility.yul\":12763:12767   */\n      dup2\n        /* \"#utility.yul\":12759:12779   */\n      sub\n        /* \"#utility.yul\":12755:12756   */\n      0x00\n        /* \"#utility.yul\":12744:12753   */\n      dup4\n        /* \"#utility.yul\":12740:12757   */\n      add\n        /* \"#utility.yul\":12733:12780   */\n      mstore\n        /* \"#utility.yul\":12797:12928   */\n      tag_493\n        /* \"#utility.yul\":12923:12927   */\n      dup2\n        /* \"#utility.yul\":12797:12928   */\n      tag_446\n      jump\t// in\n    tag_493:\n        /* \"#utility.yul\":12789:12928   */\n      swap1\n      pop\n        /* \"#utility.yul\":12687:12935   */\n      swap2\n      swap1\n      pop\n      jump\t// out\n        /* \"#utility.yul\":12941:13360   */\n    tag_309:\n      0x00\n        /* \"#utility.yul\":13145:13147   */\n      0x20\n        /* \"#utility.yul\":13134:13143   */\n      dup3\n        /* \"#utility.yul\":13130:13148   */\n      add\n        /* \"#utility.yul\":13122:13148   */\n      swap1\n      pop\n        /* \"#utility.yul\":13194:13203   */\n      dup2\n        /* \"#utility.yul\":13188:13192   */\n      dup2\n        /* \"#utility.yul\":13184:13204   */\n      sub\n        /* \"#utility.yul\":13180:13181   */\n      0x00\n        /* \"#utility.yul\":13169:13178   */\n      dup4\n        /* \"#utility.yul\":13165:13182   */\n      add\n        /* \"#utility.yul\":13158:13205   */\n      mstore\n        /* \"#utility.yul\":13222:13353   */\n      tag_495\n        /* \"#utility.yul\":13348:13352   */\n      dup2\n        /* \"#utility.yul\":13222:13353   */\n      tag_449\n      jump\t// in\n    tag_495:\n        /* \"#utility.yul\":13214:13353   */\n      swap1\n      pop\n        /* \"#utility.yul\":13112:13360   */\n      swap2\n      swap1\n      pop\n      jump\t// out\n        /* \"#utility.yul\":13366:13785   */\n    tag_322:\n      0x00\n        /* \"#utility.yul\":13570:13572   */\n      0x20\n        /* \"#utility.yul\":13559:13568   */\n      dup3\n        /* \"#utility.yul\":13555:13573   */\n      add\n        /* \"#utility.yul\":13547:13573   */\n      swap1\n      pop\n        /* \"#utility.yul\":13619:13628   */\n      dup2\n        /* \"#utility.yul\":13613:13617   */\n      dup2\n        /* \"#utility.yul\":13609:13629   */\n      sub\n        /* \"#utility.yul\":13605:13606   */\n      0x00\n        /* \"#utility.yul\":13594:13603   */\n      dup4\n        /* \"#utility.yul\":13590:13607   */\n      add\n        /* \"#utility.yul\":13583:13630   */\n      mstore\n        /* \"#utility.yul\":13647:13778   */\n      tag_497\n        /* \"#utility.yul\":13773:13777   */\n      dup2\n        /* \"#utility.yul\":13647:13778   */\n      tag_452\n      jump\t// in\n    tag_497:\n        /* \"#utility.yul\":13639:13778   */\n      swap1\n      pop\n        /* \"#utility.yul\":13537:13785   */\n      swap2\n      swap1\n      pop\n      jump\t// out\n        /* \"#utility.yul\":13791:14210   */\n    tag_314:\n      0x00\n        /* \"#utility.yul\":13995:13997   */\n      0x20\n        /* \"#utility.yul\":13984:13993   */\n      dup3\n        /* \"#utility.yul\":13980:13998   */\n      add\n        /* \"#utility.yul\":13972:13998   */\n      swap1\n      pop\n        /* \"#utility.yul\":14044:14053   */\n      dup2\n        /* \"#utility.yul\":14038:14042   */\n      dup2\n        /* \"#utility.yul\":14034:14054   */\n      sub\n        /* \"#utility.yul\":14030:14031   */\n      0x00\n        /* \"#utility.yul\":14019:14028   */\n      dup4\n        /* \"#utility.yul\":14015:14032   */\n      add\n        /* \"#utility.yul\":14008:14055   */\n      mstore\n        /* \"#utility.yul\":14072:14203   */\n      tag_499\n        /* \"#utility.yul\":14198:14202   */\n      dup2\n        /* \"#utility.yul\":14072:14203   */\n      tag_455\n      jump\t// in\n    tag_499:\n        /* \"#utility.yul\":14064:14203   */\n      swap1\n      pop\n        /* \"#utility.yul\":13962:14210   */\n      swap2\n      swap1\n      pop\n      jump\t// out\n        /* \"#utility.yul\":14216:14635   */\n    tag_257:\n      0x00\n        /* \"#utility.yul\":14420:14422   */\n      0x20\n        /* \"#utility.yul\":14409:14418   */\n      dup3\n        /* \"#utility.yul\":14405:14423   */\n      add\n        /* \"#utility.yul\":14397:14423   */\n      swap1\n      pop\n        /* \"#utility.yul\":14469:14478   */\n      dup2\n        /* \"#utility.yul\":14463:14467   */\n      dup2\n        /* \"#utility.yul\":14459:14479   */\n      sub\n        /* \"#utility.yul\":14455:14456   */\n      0x00\n        /* \"#utility.yul\":14444:14453   */\n      dup4\n        /* \"#utility.yul\":14440:14457   */\n      add\n        /* \"#utility.yul\":14433:14480   */\n      mstore\n        /* \"#utility.yul\":14497:14628   */\n      tag_501\n        /* \"#utility.yul\":14623:14627   */\n      dup2\n        /* \"#utility.yul\":14497:14628   */\n      tag_458\n      jump\t// in\n    tag_501:\n        /* \"#utility.yul\":14489:14628   */\n      swap1\n      pop\n        /* \"#utility.yul\":14387:14635   */\n      swap2\n      swap1\n      pop\n      jump\t// out\n        /* \"#utility.yul\":14641:15060   */\n    tag_299:\n      0x00\n        /* \"#utility.yul\":14845:14847   */\n      0x20\n        /* \"#utility.yul\":14834:14843   */\n      dup3\n        /* \"#utility.yul\":14830:14848   */\n      add\n        /* \"#utility.yul\":14822:14848   */\n      swap1\n      pop\n        /* \"#utility.yul\":14894:14903   */\n      dup2\n        /* \"#utility.yul\":14888:14892   */\n      dup2\n        /* \"#utility.yul\":14884:14904   */\n      sub\n        /* \"#utility.yul\":14880:14881   */\n      0x00\n        /* \"#utility.yul\":14869:14878   */\n      dup4\n        /* \"#utility.yul\":14865:14882   */\n      add\n        /* \"#utility.yul\":14858:14905   */\n      mstore\n        /* \"#utility.yul\":14922:15053   */\n      tag_503\n        /* \"#utility.yul\":15048:15052   */\n      dup2\n        /* \"#utility.yul\":14922:15053   */\n      tag_461\n      jump\t// in\n    tag_503:\n        /* \"#utility.yul\":14914:15053   */\n      swap1\n      pop\n        /* \"#utility.yul\":14812:15060   */\n      swap2\n      swap1\n      pop\n      jump\t// out\n        /* \"#utility.yul\":15066:15485   */\n    tag_267:\n      0x00\n        /* \"#utility.yul\":15270:15272   */\n      0x20\n        /* \"#utility.yul\":15259:15268   */\n      dup3\n        /* \"#utility.yul\":15255:15273   */\n      add\n        /* \"#utility.yul\":15247:15273   */\n      swap1\n      pop\n        /* \"#utility.yul\":15319:15328   */\n      dup2\n        /* \"#utility.yul\":15313:15317   */\n      dup2\n        /* \"#utility.yul\":15309:15329   */\n      sub\n        /* \"#utility.yul\":15305:15306   */\n      0x00\n        /* \"#utility.yul\":15294:15303   */\n      dup4\n        /* \"#utility.yul\":15290:15307   */\n      add\n        /* \"#utility.yul\":15283:15330   */\n      mstore\n        /* \"#utility.yul\":15347:15478   */\n      tag_505\n        /* \"#utility.yul\":15473:15477   */\n      dup2\n        /* \"#utility.yul\":15347:15478   */\n      tag_464\n      jump\t// in\n    tag_505:\n        /* \"#utility.yul\":15339:15478   */\n      swap1\n      pop\n        /* \"#utility.yul\":15237:15485   */\n      swap2\n      swap1\n      pop\n      jump\t// out\n        /* \"#utility.yul\":15491:15713   */\n    tag_73:\n      0x00\n        /* \"#utility.yul\":15622:15624   */\n      0x20\n        /* \"#utility.yul\":15611:15620   */\n      dup3\n        /* \"#utility.yul\":15607:15625   */\n      add\n        /* \"#utility.yul\":15599:15625   */\n      swap1\n      pop\n        /* \"#utility.yul\":15635:15706   */\n      tag_507\n        /* \"#utility.yul\":15703:15704   */\n      0x00\n        /* \"#utility.yul\":15692:15701   */\n      dup4\n        /* \"#utility.yul\":15688:15705   */\n      add\n        /* \"#utility.yul\":15679:15685   */\n      dup5\n        /* \"#utility.yul\":15635:15706   */\n      tag_467\n      jump\t// in\n    tag_507:\n        /* \"#utility.yul\":15589:15713   */\n      swap3\n      swap2\n      pop\n      pop\n      jump\t// out\n        /* \"#utility.yul\":15719:16260   */\n    tag_153:\n      0x00\n        /* \"#utility.yul\":15928:15931   */\n      0x80\n        /* \"#utility.yul\":15917:15926   */\n      dup3\n        /* \"#utility.yul\":15913:15932   */\n      add\n        /* \"#utility.yul\":15905:15932   */\n      swap1\n      pop\n        /* \"#utility.yul\":15942:16013   */\n      tag_509\n        /* \"#utility.yul\":16010:16011   */\n      0x00\n        /* \"#utility.yul\":15999:16008   */\n      dup4\n        /* \"#utility.yul\":15995:16012   */\n      add\n        /* \"#utility.yul\":15986:15992   */\n      dup8\n        /* \"#utility.yul\":15942:16013   */\n      tag_467\n      jump\t// in\n    tag_509:\n        /* \"#utility.yul\":16023:16089   */\n      tag_510\n        /* \"#utility.yul\":16085:16087   */\n      0x20\n        /* \"#utility.yul\":16074:16083   */\n      dup4\n        /* \"#utility.yul\":16070:16088   */\n      add\n        /* \"#utility.yul\":16061:16067   */\n      dup7\n        /* \"#utility.yul\":16023:16089   */\n      tag_414\n      jump\t// in\n    tag_510:\n        /* \"#utility.yul\":16099:16171   */\n      tag_511\n        /* \"#utility.yul\":16167:16169   */\n      0x40\n        /* \"#utility.yul\":16156:16165   */\n      dup4\n        /* \"#utility.yul\":16152:16170   */\n      add\n        /* \"#utility.yul\":16143:16149   */\n      dup6\n        /* \"#utility.yul\":16099:16171   */\n      tag_410\n      jump\t// in\n    tag_511:\n        /* \"#utility.yul\":16181:16253   */\n      tag_512\n        /* \"#utility.yul\":16249:16251   */\n      0x60\n        /* \"#utility.yul\":16238:16247   */\n      dup4\n        /* \"#utility.yul\":16234:16252   */\n      add\n        /* \"#utility.yul\":16225:16231   */\n      dup5\n        /* \"#utility.yul\":16181:16253   */\n      tag_467\n      jump\t// in\n    tag_512:\n        /* \"#utility.yul\":15895:16260   */\n      swap6\n      swap5\n      pop\n      pop\n      pop\n      pop\n      pop\n      jump\t// out\n        /* \"#utility.yul\":16266:16480   */\n    tag_88:\n      0x00\n        /* \"#utility.yul\":16393:16395   */\n      0x20\n        /* \"#utility.yul\":16382:16391   */\n      dup3\n        /* \"#utility.yul\":16378:16396   */\n      add\n        /* \"#utility.yul\":16370:16396   */\n      swap1\n      pop\n        /* \"#utility.yul\":16406:16473   */\n      tag_514\n        /* \"#utility.yul\":16470:16471   */\n      0x00\n        /* \"#utility.yul\":16459:16468   */\n      dup4\n        /* \"#utility.yul\":16455:16472   */\n      add\n        /* \"#utility.yul\":16446:16452   */\n      dup5\n        /* \"#utility.yul\":16406:16473   */\n      tag_471\n      jump\t// in\n    tag_514:\n        /* \"#utility.yul\":16360:16480   */\n      swap3\n      swap2\n      pop\n      pop\n      jump\t// out\n        /* \"#utility.yul\":16486:16769   */\n    tag_344:\n      0x00\n        /* \"#utility.yul\":16552:16554   */\n      0x40\n        /* \"#utility.yul\":16546:16555   */\n      mload\n        /* \"#utility.yul\":16536:16555   */\n      swap1\n      pop\n        /* \"#utility.yul\":16594:16598   */\n      dup2\n        /* \"#utility.yul\":16586:16592   */\n      dup2\n        /* \"#utility.yul\":16582:16599   */\n      add\n        /* \"#utility.yul\":16701:16707   */\n      dup2\n        /* \"#utility.yul\":16689:16699   */\n      dup2\n        /* \"#utility.yul\":16686:16708   */\n      lt\n        /* \"#utility.yul\":16665:16683   */\n      0xffffffffffffffff\n        /* \"#utility.yul\":16653:16663   */\n      dup3\n        /* \"#utility.yul\":16650:16684   */\n      gt\n        /* \"#utility.yul\":16647:16709   */\n      or\n        /* \"#utility.yul\":16644:16646   */\n      iszero\n      tag_516\n      jumpi\n        /* \"#utility.yul\":16712:16730   */\n      tag_517\n      tag_518\n      jump\t// in\n    tag_517:\n        /* \"#utility.yul\":16644:16646   */\n    tag_516:\n        /* \"#utility.yul\":16752:16762   */\n      dup1\n        /* \"#utility.yul\":16748:16750   */\n      0x40\n        /* \"#utility.yul\":16741:16763   */\n      mstore\n        /* \"#utility.yul\":16526:16769   */\n      pop\n      swap2\n      swap1\n      pop\n      jump\t// out\n        /* \"#utility.yul\":16775:17086   */\n    tag_343:\n      0x00\n        /* \"#utility.yul\":16942:16960   */\n      0xffffffffffffffff\n        /* \"#utility.yul\":16934:16940   */\n      dup3\n        /* \"#utility.yul\":16931:16961   */\n      gt\n        /* \"#utility.yul\":16928:16930   */\n      iszero\n      tag_520\n      jumpi\n        /* \"#utility.yul\":16964:16982   */\n      tag_521\n      tag_518\n      jump\t// in\n    tag_521:\n        /* \"#utility.yul\":16928:16930   */\n    tag_520:\n        /* \"#utility.yul\":17014:17018   */\n      0x20\n        /* \"#utility.yul\":17006:17012   */\n      dup3\n        /* \"#utility.yul\":17002:17019   */\n      mul\n        /* \"#utility.yul\":16994:17019   */\n      swap1\n      pop\n        /* \"#utility.yul\":17074:17078   */\n      0x20\n        /* \"#utility.yul\":17068:17072   */\n      dup2\n        /* \"#utility.yul\":17064:17079   */\n      add\n        /* \"#utility.yul\":17056:17079   */\n      swap1\n      pop\n        /* \"#utility.yul\":16857:17086   */\n      swap2\n      swap1\n      pop\n      jump\t// out\n        /* \"#utility.yul\":17092:17424   */\n    tag_355:\n      0x00\n        /* \"#utility.yul\":17244:17262   */\n      0xffffffffffffffff\n        /* \"#utility.yul\":17236:17242   */\n      dup3\n        /* \"#utility.yul\":17233:17263   */\n      gt\n        /* \"#utility.yul\":17230:17232   */\n      iszero\n      tag_523\n      jumpi\n        /* \"#utility.yul\":17266:17284   */\n      tag_524\n      tag_518\n      jump\t// in\n    tag_524:\n        /* \"#utility.yul\":17230:17232   */\n    tag_523:\n        /* \"#utility.yul\":17351:17355   */\n      0x1f\n        /* \"#utility.yul\":17347:17356   */\n      not\n        /* \"#utility.yul\":17340:17344   */\n      0x1f\n        /* \"#utility.yul\":17332:17338   */\n      dup4\n        /* \"#utility.yul\":17328:17345   */\n      add\n        /* \"#utility.yul\":17324:17357   */\n      and\n        /* \"#utility.yul\":17316:17357   */\n      swap1\n      pop\n        /* \"#utility.yul\":17412:17416   */\n      0x20\n        /* \"#utility.yul\":17406:17410   */\n      dup2\n        /* \"#utility.yul\":17402:17417   */\n      add\n        /* \"#utility.yul\":17394:17417   */\n      swap1\n      pop\n        /* \"#utility.yul\":17159:17424   */\n      swap2\n      swap1\n      pop\n      jump\t// out\n        /* \"#utility.yul\":17430:17528   */\n    tag_425:\n      0x00\n        /* \"#utility.yul\":17515:17520   */\n      dup2\n        /* \"#utility.yul\":17509:17521   */\n      mload\n        /* \"#utility.yul\":17499:17521   */\n      swap1\n      pop\n        /* \"#utility.yul\":17488:17528   */\n      swap2\n      swap1\n      pop\n      jump\t// out\n        /* \"#utility.yul\":17534:17633   */\n    tag_435:\n      0x00\n        /* \"#utility.yul\":17620:17625   */\n      dup2\n        /* \"#utility.yul\":17614:17626   */\n      mload\n        /* \"#utility.yul\":17604:17626   */\n      swap1\n      pop\n        /* \"#utility.yul\":17593:17633   */\n      swap2\n      swap1\n      pop\n      jump\t// out\n        /* \"#utility.yul\":17639:17807   */\n    tag_427:\n      0x00\n        /* \"#utility.yul\":17756:17762   */\n      dup3\n        /* \"#utility.yul\":17751:17754   */\n      dup3\n        /* \"#utility.yul\":17744:17763   */\n      mstore\n        /* \"#utility.yul\":17796:17800   */\n      0x20\n        /* \"#utility.yul\":17791:17794   */\n      dup3\n        /* \"#utility.yul\":17787:17801   */\n      add\n        /* \"#utility.yul\":17772:17801   */\n      swap1\n      pop\n        /* \"#utility.yul\":17734:17807   */\n      swap3\n      swap2\n      pop\n      pop\n      jump\t// out\n        /* \"#utility.yul\":17813:17982   */\n    tag_437:\n      0x00\n        /* \"#utility.yul\":17931:17937   */\n      dup3\n        /* \"#utility.yul\":17926:17929   */\n      dup3\n        /* \"#utility.yul\":17919:17938   */\n      mstore\n        /* \"#utility.yul\":17971:17975   */\n      0x20\n        /* \"#utility.yul\":17966:17969   */\n      dup3\n        /* \"#utility.yul\":17962:17976   */\n      add\n        /* \"#utility.yul\":17947:17976   */\n      swap1\n      pop\n        /* \"#utility.yul\":17909:17982   */\n      swap3\n      swap2\n      pop\n      pop\n      jump\t// out\n        /* \"#utility.yul\":17988:18293   */\n    tag_232:\n      0x00\n        /* \"#utility.yul\":18047:18067   */\n      tag_530\n        /* \"#utility.yul\":18065:18066   */\n      dup3\n        /* \"#utility.yul\":18047:18067   */\n      tag_470\n      jump\t// in\n    tag_530:\n        /* \"#utility.yul\":18042:18067   */\n      swap2\n      pop\n        /* \"#utility.yul\":18081:18101   */\n      tag_531\n        /* \"#utility.yul\":18099:18100   */\n      dup4\n        /* \"#utility.yul\":18081:18101   */\n      tag_470\n      jump\t// in\n    tag_531:\n        /* \"#utility.yul\":18076:18101   */\n      swap3\n      pop\n        /* \"#utility.yul\":18235:18236   */\n      dup3\n        /* \"#utility.yul\":18167:18233   */\n      0xffffffffffffffffffffffffffffffffffffffffffffffffffffffffffffffff\n        /* \"#utility.yul\":18163:18237   */\n      sub\n        /* \"#utility.yul\":18160:18161   */\n      dup3\n        /* \"#utility.yul\":18157:18238   */\n      gt\n        /* \"#utility.yul\":18154:18156   */\n      iszero\n      tag_532\n      jumpi\n        /* \"#utility.yul\":18241:18259   */\n      tag_533\n      tag_534\n      jump\t// in\n    tag_533:\n        /* \"#utility.yul\":18154:18156   */\n    tag_532:\n        /* \"#utility.yul\":18285:18286   */\n      dup3\n        /* \"#utility.yul\":18282:18283   */\n      dup3\n        /* \"#utility.yul\":18278:18287   */\n      add\n        /* \"#utility.yul\":18271:18287   */\n      swap1\n      pop\n        /* \"#utility.yul\":18032:18293   */\n      swap3\n      swap2\n      pop\n      pop\n      jump\t// out\n        /* \"#utility.yul\":18299:18395   */\n    tag_413:\n      0x00\n        /* \"#utility.yul\":18365:18389   */\n      tag_536\n        /* \"#utility.yul\":18383:18388   */\n      dup3\n        /* \"#utility.yul\":18365:18389   */\n      tag_537\n      jump\t// in\n    tag_536:\n        /* \"#utility.yul\":18354:18389   */\n      swap1\n      pop\n        /* \"#utility.yul\":18344:18395   */\n      swap2\n      swap1\n      pop\n      jump\t// out\n        /* \"#utility.yul\":18401:18491   */\n    tag_417:\n      0x00\n        /* \"#utility.yul\":18478:18483   */\n      dup2\n        /* \"#utility.yul\":18471:18484   */\n      iszero\n        /* \"#utility.yul\":18464:18485   */\n      iszero\n        /* \"#utility.yul\":18453:18485   */\n      swap1\n      pop\n        /* \"#utility.yul\":18443:18491   */\n      swap2\n      swap1\n      pop\n      jump\t// out\n        /* \"#utility.yul\":18497:18574   */\n    tag_421:\n      0x00\n        /* \"#utility.yul\":18563:18568   */\n      dup2\n        /* \"#utility.yul\":18552:18568   */\n      swap1\n      pop\n        /* \"#utility.yul\":18542:18574   */\n      swap2\n      swap1\n      pop\n      jump\t// out\n        /* \"#utility.yul\":18580:18706   */\n    tag_537:\n      0x00\n        /* \"#utility.yul\":18657:18699   */\n      0xffffffffffffffffffffffffffffffffffffffff\n        /* \"#utility.yul\":18650:18655   */\n      dup3\n        /* \"#utility.yul\":18646:18700   */\n      and\n        /* \"#utility.yul\":18635:18700   */\n      swap1\n      pop\n        /* \"#utility.yul\":18625:18706   */\n      swap2\n      swap1\n      pop\n      jump\t// out\n        /* \"#utility.yul\":18712:18789   */\n    tag_470:\n      0x00\n        /* \"#utility.yul\":18778:18783   */\n      dup2\n        /* \"#utility.yul\":18767:18783   */\n      swap1\n      pop\n        /* \"#utility.yul\":18757:18789   */\n      swap2\n      swap1\n      pop\n      jump\t// out\n        /* \"#utility.yul\":18795:18881   */\n    tag_474:\n      0x00\n        /* \"#utility.yul\":18870:18874   */\n      0xff\n        /* \"#utility.yul\":18863:18868   */\n      dup3\n        /* \"#utility.yul\":18859:18875   */\n      and\n        /* \"#utility.yul\":18848:18875   */\n      swap1\n      pop\n        /* \"#utility.yul\":18838:18881   */\n      swap2\n      swap1\n      pop\n      jump\t// out\n        /* \"#utility.yul\":18887:19041   */\n    tag_358:\n        /* \"#utility.yul\":18971:18977   */\n      dup3\n        /* \"#utility.yul\":18966:18969   */\n      dup2\n        /* \"#utility.yul\":18961:18964   */\n      dup4\n        /* \"#utility.yul\":18948:18978   */\n      calldatacopy\n        /* \"#utility.yul\":19033:19034   */\n      0x00\n        /* \"#utility.yul\":19024:19030   */\n      dup4\n        /* \"#utility.yul\":19019:19022   */\n      dup4\n        /* \"#utility.yul\":19015:19031   */\n      add\n        /* \"#utility.yul\":19008:19035   */\n      mstore\n        /* \"#utility.yul\":18938:19041   */\n      pop\n      pop\n      pop\n      jump\t// out\n        /* \"#utility.yul\":19047:19354   */\n    tag_429:\n        /* \"#utility.yul\":19115:19116   */\n      0x00\n        /* \"#utility.yul\":19125:19238   */\n    tag_545:\n        /* \"#utility.yul\":19139:19145   */\n      dup4\n        /* \"#utility.yul\":19136:19137   */\n      dup2\n        /* \"#utility.yul\":19133:19146   */\n      lt\n        /* \"#utility.yul\":19125:19238   */\n      iszero\n      tag_547\n      jumpi\n        /* \"#utility.yul\":19224:19225   */\n      dup1\n        /* \"#utility.yul\":19219:19222   */\n      dup3\n        /* \"#utility.yul\":19215:19226   */\n      add\n        /* \"#utility.yul\":19209:19227   */\n      mload\n        /* \"#utility.yul\":19205:19206   */\n      dup2\n        /* \"#utility.yul\":19200:19203   */\n      dup5\n        /* \"#utility.yul\":19196:19207   */\n      add\n        /* \"#utility.yul\":19189:19228   */\n      mstore\n        /* \"#utility.yul\":19161:19163   */\n      0x20\n        /* \"#utility.yul\":19158:19159   */\n      dup2\n        /* \"#utility.yul\":19154:19164   */\n      add\n        /* \"#utility.yul\":19149:19164   */\n      swap1\n      pop\n        /* \"#utility.yul\":19125:19238   */\n      jump(tag_545)\n    tag_547:\n        /* \"#utility.yul\":19256:19262   */\n      dup4\n        /* \"#utility.yul\":19253:19254   */\n      dup2\n        /* \"#utility.yul\":19250:19263   */\n      gt\n        /* \"#utility.yul\":19247:19249   */\n      iszero\n      tag_548\n      jumpi\n        /* \"#utility.yul\":19336:19337   */\n      0x00\n        /* \"#utility.yul\":19327:19333   */\n      dup5\n        /* \"#utility.yul\":19322:19325   */\n      dup5\n        /* \"#utility.yul\":19318:19334   */\n      add\n        /* \"#utility.yul\":19311:19338   */\n      mstore\n        /* \"#utility.yul\":19247:19249   */\n    tag_548:\n        /* \"#utility.yul\":19096:19354   */\n      pop\n      pop\n      pop\n      pop\n      jump\t// out\n        /* \"#utility.yul\":19360:19680   */\n    tag_199:\n      0x00\n        /* \"#utility.yul\":19441:19442   */\n      0x02\n        /* \"#utility.yul\":19435:19439   */\n      dup3\n        /* \"#utility.yul\":19431:19443   */\n      div\n        /* \"#utility.yul\":19421:19443   */\n      swap1\n      pop\n        /* \"#utility.yul\":19488:19489   */\n      0x01\n        /* \"#utility.yul\":19482:19486   */\n      dup3\n        /* \"#utility.yul\":19478:19490   */\n      and\n        /* \"#utility.yul\":19509:19527   */\n      dup1\n        /* \"#utility.yul\":19499:19501   */\n      tag_550\n      jumpi\n        /* \"#utility.yul\":19565:19569   */\n      0x7f\n        /* \"#utility.yul\":19557:19563   */\n      dup3\n        /* \"#utility.yul\":19553:19570   */\n      and\n        /* \"#utility.yul\":19543:19570   */\n      swap2\n      pop\n        /* \"#utility.yul\":19499:19501   */\n    tag_550:\n        /* \"#utility.yul\":19627:19629   */\n      0x20\n        /* \"#utility.yul\":19619:19625   */\n      dup3\n        /* \"#utility.yul\":19616:19630   */\n      lt\n        /* \"#utility.yul\":19596:19614   */\n      dup2\n        /* \"#utility.yul\":19593:19631   */\n      eq\n        /* \"#utility.yul\":19590:19592   */\n      iszero\n      tag_551\n      jumpi\n        /* \"#utility.yul\":19646:19664   */\n      tag_552\n      tag_553\n      jump\t// in\n    tag_552:\n        /* \"#utility.yul\":19590:19592   */\n    tag_551:\n        /* \"#utility.yul\":19411:19680   */\n      pop\n      swap2\n      swap1\n      pop\n      jump\t// out\n        /* \"#utility.yul\":19686:19919   */\n    tag_286:\n      0x00\n        /* \"#utility.yul\":19748:19772   */\n      tag_555\n        /* \"#utility.yul\":19766:19771   */\n      dup3\n        /* \"#utility.yul\":19748:19772   */\n      tag_470\n      jump\t// in\n    tag_555:\n        /* \"#utility.yul\":19739:19772   */\n      swap2\n      pop\n        /* \"#utility.yul\":19794:19860   */\n      0xffffffffffffffffffffffffffffffffffffffffffffffffffffffffffffffff\n        /* \"#utility.yul\":19787:19792   */\n      dup3\n        /* \"#utility.yul\":19784:19861   */\n      eq\n        /* \"#utility.yul\":19781:19783   */\n      iszero\n      tag_556\n      jumpi\n        /* \"#utility.yul\":19864:19882   */\n      tag_557\n      tag_534\n      jump\t// in\n    tag_557:\n        /* \"#utility.yul\":19781:19783   */\n    tag_556:\n        /* \"#utility.yul\":19911:19912   */\n      0x01\n        /* \"#utility.yul\":19904:19909   */\n      dup3\n        /* \"#utility.yul\":19900:19913   */\n      add\n        /* \"#utility.yul\":19893:19913   */\n      swap1\n      pop\n        /* \"#utility.yul\":19729:19919   */\n      swap2\n      swap1\n      pop\n      jump\t// out\n        /* \"#utility.yul\":19925:20105   */\n    tag_534:\n        /* \"#utility.yul\":19973:20050   */\n      0x4e487b7100000000000000000000000000000000000000000000000000000000\n        /* \"#utility.yul\":19970:19971   */\n      0x00\n        /* \"#utility.yul\":19963:20051   */\n      mstore\n        /* \"#utility.yul\":20070:20074   */\n      0x11\n        /* \"#utility.yul\":20067:20068   */\n      0x04\n        /* \"#utility.yul\":20060:20075   */\n      mstore\n        /* \"#utility.yul\":20094:20098   */\n      0x24\n        /* \"#utility.yul\":20091:20092   */\n      0x00\n        /* \"#utility.yul\":20084:20099   */\n      revert\n        /* \"#utility.yul\":20111:20291   */\n    tag_553:\n        /* \"#utility.yul\":20159:20236   */\n      0x4e487b7100000000000000000000000000000000000000000000000000000000\n        /* \"#utility.yul\":20156:20157   */\n      0x00\n        /* \"#utility.yul\":20149:20237   */\n      mstore\n        /* \"#utility.yul\":20256:20260   */\n      0x22\n        /* \"#utility.yul\":20253:20254   */\n      0x04\n        /* \"#utility.yul\":20246:20261   */\n      mstore\n        /* \"#utility.yul\":20280:20284   */\n      0x24\n        /* \"#utility.yul\":20277:20278   */\n      0x00\n        /* \"#utility.yul\":20270:20285   */\n      revert\n        /* \"#utility.yul\":20297:20477   */\n    tag_518:\n        /* \"#utility.yul\":20345:20422   */\n      0x4e487b7100000000000000000000000000000000000000000000000000000000\n        /* \"#utility.yul\":20342:20343   */\n      0x00\n        /* \"#utility.yul\":20335:20423   */\n      mstore\n        /* \"#utility.yul\":20442:20446   */\n      0x41\n        /* \"#utility.yul\":20439:20440   */\n      0x04\n        /* \"#utility.yul\":20432:20447   */\n      mstore\n        /* \"#utility.yul\":20466:20470   */\n      0x24\n        /* \"#utility.yul\":20463:20464   */\n      0x00\n        /* \"#utility.yul\":20456:20471   */\n      revert\n        /* \"#utility.yul\":20483:20585   */\n    tag_431:\n      0x00\n        /* \"#utility.yul\":20575:20577   */\n      0x1f\n        /* \"#utility.yul\":20571:20578   */\n      not\n        /* \"#utility.yul\":20566:20568   */\n      0x1f\n        /* \"#utility.yul\":20559:20564   */\n      dup4\n        /* \"#utility.yul\":20555:20569   */\n      add\n        /* \"#utility.yul\":20551:20579   */\n      and\n        /* \"#utility.yul\":20541:20579   */\n      swap1\n      pop\n        /* \"#utility.yul\":20531:20585   */\n      swap2\n      swap1\n      pop\n      jump\t// out\n        /* \"#utility.yul\":20591:20713   */\n    tag_362:\n        /* \"#utility.yul\":20664:20688   */\n      tag_563\n        /* \"#utility.yul\":20682:20687   */\n      dup2\n        /* \"#utility.yul\":20664:20688   */\n      tag_413\n      jump\t// in\n    tag_563:\n        /* \"#utility.yul\":20657:20662   */\n      dup2\n        /* \"#utility.yul\":20654:20689   */\n      eq\n        /* \"#utility.yul\":20644:20646   */\n      tag_564\n      jumpi\n        /* \"#utility.yul\":20703:20704   */\n      0x00\n        /* \"#utility.yul\":20700:20701   */\n      dup1\n        /* \"#utility.yul\":20693:20705   */\n      revert\n        /* \"#utility.yul\":20644:20646   */\n    tag_564:\n        /* \"#utility.yul\":20634:20713   */\n      pop\n      jump\t// out\n        /* \"#utility.yul\":20719:20835   */\n    tag_370:\n        /* \"#utility.yul\":20789:20810   */\n      tag_566\n        /* \"#utility.yul\":20804:20809   */\n      dup2\n        /* \"#utility.yul\":20789:20810   */\n      tag_417\n      jump\t// in\n    tag_566:\n        /* \"#utility.yul\":20782:20787   */\n      dup2\n        /* \"#utility.yul\":20779:20811   */\n      eq\n        /* \"#utility.yul\":20769:20771   */\n      tag_567\n      jumpi\n        /* \"#utility.yul\":20825:20826   */\n      0x00\n        /* \"#utility.yul\":20822:20823   */\n      dup1\n        /* \"#utility.yul\":20815:20827   */\n      revert\n        /* \"#utility.yul\":20769:20771   */\n    tag_567:\n        /* \"#utility.yul\":20759:20835   */\n      pop\n      jump\t// out\n        /* \"#utility.yul\":20841:20963   */\n    tag_377:\n        /* \"#utility.yul\":20914:20938   */\n      tag_569\n        /* \"#utility.yul\":20932:20937   */\n      dup2\n        /* \"#utility.yul\":20914:20938   */\n      tag_470\n      jump\t// in\n    tag_569:\n        /* \"#utility.yul\":20907:20912   */\n      dup2\n        /* \"#utility.yul\":20904:20939   */\n      eq\n        /* \"#utility.yul\":20894:20896   */\n      tag_570\n      jumpi\n        /* \"#utility.yul\":20953:20954   */\n      0x00\n        /* \"#utility.yul\":20950:20951   */\n      dup1\n        /* \"#utility.yul\":20943:20955   */\n      revert\n        /* \"#utility.yul\":20894:20896   */\n    tag_570:\n        /* \"#utility.yul\":20884:20963   */\n      pop\n      jump\t// out\n\n    auxdata: 0xa264697066735822122052b95db3c281b6ae31deb00d689e003a76c0232b0e45073b2c228dc427ecf49f64736f6c63430008000033\n}\n",
				"bytecode": {
					"linkReferences": {},
					"object": "60806040523480156200001157600080fd5b506040516200293b3803806200293b833981810160405281019062000037919062000385565b6040518060400160405280600b81526020017f4d79476f7620546f6b656e0000000000000000000000000000000000000000008152506040518060400160405280600381526020017f4d475400000000000000000000000000000000000000000000000000000000008152508160039080519060200190620000bb929190620002be565b508060049080519060200190620000d4929190620002be565b50505033600560006101000a81548173ffffffffffffffffffffffffffffffffffffffff021916908373ffffffffffffffffffffffffffffffffffffffff1602179055506200013f33670de0b6b3a764000083620001339190620004b1565b6200014660201b60201c565b50620005ca565b600073ffffffffffffffffffffffffffffffffffffffff168273ffffffffffffffffffffffffffffffffffffffff161415620001b9576040517f08c379a0000000000000000000000000000000000000000000000000000000008152600401620001b09062000404565b60405180910390fd5b620001cd60008383620002b460201b60201c565b8060026000828254620001e1919062000454565b92505081905550806000808473ffffffffffffffffffffffffffffffffffffffff1673ffffffffffffffffffffffffffffffffffffffff168152602001908152602001600020600082825401925050819055508173ffffffffffffffffffffffffffffffffffffffff16600073ffffffffffffffffffffffffffffffffffffffff167fddf252ad1be2c89b69c2b068fc378daa952ba7f163c4a11628f55a4df523b3ef8360405162000294919062000426565b60405180910390a3620002b060008383620002b960201b60201c565b5050565b505050565b505050565b828054620002cc906200051c565b90600052602060002090601f016020900481019282620002f057600085556200033c565b82601f106200030b57805160ff19168380011785556200033c565b828001600101855582156200033c579182015b828111156200033b5782518255916020019190600101906200031e565b5b5090506200034b91906200034f565b5090565b5b808211156200036a57600081600090555060010162000350565b5090565b6000815190506200037f81620005b0565b92915050565b6000602082840312156200039857600080fd5b6000620003a8848285016200036e565b91505092915050565b6000620003c0601f8362000443565b91507f45524332303a206d696e7420746f20746865207a65726f2061646472657373006000830152602082019050919050565b620003fe8162000512565b82525050565b600060208201905081810360008301526200041f81620003b1565b9050919050565b60006020820190506200043d6000830184620003f3565b92915050565b600082825260208201905092915050565b6000620004618262000512565b91506200046e8362000512565b9250827fffffffffffffffffffffffffffffffffffffffffffffffffffffffffffffffff03821115620004a657620004a562000552565b5b828201905092915050565b6000620004be8262000512565b9150620004cb8362000512565b9250817fffffffffffffffffffffffffffffffffffffffffffffffffffffffffffffffff048311821515161562000507576200050662000552565b5b828202905092915050565b6000819050919050565b600060028204905060018216806200053557607f821691505b602082108114156200054c576200054b62000581565b5b50919050565b7f4e487b7100000000000000000000000000000000000000000000000000000000600052601160045260246000fd5b7f4e487b7100000000000000000000000000000000000000000000000000000000600052602260045260246000fd5b620005bb8162000512565b8114620005c757600080fd5b50565b61236180620005da6000396000f3fe6080604052600436106102045760003560e01c8063863451dd11610118578063a5e898e1116100a0578063bf50556d1161006f578063bf50556d146106de578063dd62ed3e14610709578063e00e03f914610746578063e6d685951461075d578063f22449ba1461077457610204565b8063a5e898e11461064a578063a9059cbb14610673578063af60d560146106b0578063bafc462d146106c757610204565b806395d89b41116100e757806395d89b411461056257806397cfe54b1461058d578063a1669b32146105a4578063a3ec138d146105cd578063a457c2d71461060d57610204565b8063863451dd146104c757806386e68b90146104d1578063875b50761461050e5780638fbe37501461054b57610204565b8063313ce5671161019b5780635d801b371161016a5780635d801b371461041a57806367c897fe1461044557806370a082311461045c57806370e1133c1461049957806372a4e9ba146104b057610204565b8063313ce56714610372578063356552371461039d57806339509351146103b457806339c94d2d146103f157610204565b8063164dfd3b116101d7578063164dfd3b146102c857806318160ddd146102df57806323b872dd1461030a57806323fd498b1461034757610204565b8063013cf08b14610209578063033cb2d31461024957806306fdde0314610260578063095ea7b31461028b575b600080fd5b34801561021557600080fd5b50610230600480360381019061022b9190611971565b61079d565b6040516102409493929190611e08565b60405180910390f35b34801561025557600080fd5b5061025e61087f565b005b34801561026c57600080fd5b50610275610881565b6040516102829190611e54565b60405180910390f35b34801561029757600080fd5b506102b260048036038101906102ad919061188a565b610913565b6040516102bf9190611dd2565b60405180910390f35b3480156102d457600080fd5b506102dd610936565b005b3480156102eb57600080fd5b506102f4610938565b6040516103019190611f96565b60405180910390f35b34801561031657600080fd5b50610331600480360381019061032c919061183b565b610942565b60405161033e9190611dd2565b60405180910390f35b34801561035357600080fd5b5061035c610971565b6040516103699190611f96565b60405180910390f35b34801561037e57600080fd5b5061038761097e565b6040516103949190611ff6565b60405180910390f35b3480156103a957600080fd5b506103b2610987565b005b3480156103c057600080fd5b506103db60048036038101906103d6919061188a565b610989565b6040516103e89190611dd2565b60405180910390f35b3480156103fd57600080fd5b5061041860048036038101906104139190611971565b6109c0565b005b34801561042657600080fd5b5061042f6109f0565b60405161043c9190611f96565b60405180910390f35b34801561045157600080fd5b5061045a6109fd565b005b34801561046857600080fd5b50610483600480360381019061047e91906117d6565b6109ff565b6040516104909190611f96565b60405180910390f35b3480156104a557600080fd5b506104ae610a47565b005b3480156104bc57600080fd5b506104c5610a49565b005b6104cf610a4b565b005b3480156104dd57600080fd5b506104f860048036038101906104f39190611971565b610ab7565b6040516105059190611ded565b60405180910390f35b34801561051a57600080fd5b5061053560048036038101906105309190611971565b610ae5565b6040516105429190611db7565b60405180910390f35b34801561055757600080fd5b50610560610aec565b005b34801561056e57600080fd5b50610577610aee565b6040516105849190611e54565b60405180910390f35b34801561059957600080fd5b506105a2610b80565b005b3480156105b057600080fd5b506105cb60048036038101906105c6919061188a565b610b82565b005b3480156105d957600080fd5b506105f460048036038101906105ef91906117d6565b610d4e565b6040516106049493929190611fb1565b60405180910390f35b34801561061957600080fd5b50610634600480360381019061062f919061188a565b610dab565b6040516106419190611dd2565b60405180910390f35b34801561065657600080fd5b50610671600480360381019061066c91906118c6565b610e22565b005b34801561067f57600080fd5b5061069a6004803603810190610695919061188a565b610ef0565b6040516106a79190611dd2565b60405180910390f35b3480156106bc57600080fd5b506106c5610f13565b005b3480156106d357600080fd5b506106dc610f15565b005b3480156106ea57600080fd5b506106f3610f17565b6040516107009190611f96565b60405180910390f35b34801561071557600080fd5b50610730600480360381019061072b91906117ff565b610fb6565b60405161073d9190611f96565b60405180910390f35b34801561075257600080fd5b5061075b61103d565b005b34801561076957600080fd5b5061077261103f565b005b34801561078057600080fd5b5061079b6004803603810190610796919061199a565b611041565b005b600781815481106107ad57600080fd5b90600052602060002090600302016000915090508060000180546107d0906121cd565b80601f01602080910402602001604051908101604052809291908181526020018280546107fc906121cd565b80156108495780601f1061081e57610100808354040283529160200191610849565b820191906000526020600020905b81548152906001019060200180831161082c57829003601f168201915b5050505050908060010154908060020160009054906101000a900460ff16908060020160019054906101000a900460ff16905084565b565b606060038054610890906121cd565b80601f01602080910402602001604051908101604052809291908181526020018280546108bc906121cd565b80156109095780601f106108de57610100808354040283529160200191610909565b820191906000526020600020905b8154815290600101906020018083116108ec57829003601f168201915b5050505050905090565b60008061091e611115565b905061092b81858561111d565b600191505092915050565b565b6000600254905090565b60008061094d611115565b905061095a8582856112e8565b610965858585611374565b60019150509392505050565b6000600780549050905090565b60006012905090565b565b600080610994611115565b90506109b58185856109a68589610fb6565b6109b091906120d6565b61111d565b600191505092915050565b6109ec600560009054906101000a900473ffffffffffffffffffffffffffffffffffffffff1682610ef0565b5050565b6000600880549050905090565b565b60008060008373ffffffffffffffffffffffffffffffffffffffff1673ffffffffffffffffffffffffffffffffffffffff168152602001908152602001600020549050919050565b565b565b600560009054906101000a900473ffffffffffffffffffffffffffffffffffffffff1673ffffffffffffffffffffffffffffffffffffffff166108fc607b9081150290604051600060405180830381858888f19350505050158015610ab4573d6000803e3d6000fd5b50565b60088181548110610ac757600080fd5b90600052602060002090600302016000915090508060000154905081565b6000919050565b565b606060048054610afd906121cd565b80601f0160208091040260200160405190810160405280929190818152602001828054610b29906121cd565b8015610b765780601f10610b4b57610100808354040283529160200191610b76565b820191906000526020600020905b815481529060010190602001808311610b5957829003601f168201915b5050505050905090565b565b6000600660003373ffffffffffffffffffffffffffffffffffffffff1673ffffffffffffffffffffffffffffffffffffffff16815260200190815260200160002090508060010160009054906101000a900460ff1615610c17576040517f08c379a0000000000000000000000000000000000000000000000000000000008152600401610c0e90611f36565b60405180910390fd5b3373ffffffffffffffffffffffffffffffffffffffff168373ffffffffffffffffffffffffffffffffffffffff161415610c86576040517f08c379a0000000000000000000000000000000000000000000000000000000008152600401610c7d90611e96565b60405180910390fd5b60018160010160006101000a81548160ff021916908315150217905550828160010160016101000a81548173ffffffffffffffffffffffffffffffffffffffff021916908373ffffffffffffffffffffffffffffffffffffffff1602179055506000600660008573ffffffffffffffffffffffffffffffffffffffff1673ffffffffffffffffffffffffffffffffffffffff16815260200190815260200160002090508160000154816000016000828254610d4191906120d6565b9250508190555050505050565b60066020528060005260406000206000915090508060000154908060010160009054906101000a900460ff16908060010160019054906101000a900473ffffffffffffffffffffffffffffffffffffffff16908060020154905084565b600080610db6611115565b90506000610dc48286610fb6565b905083811015610e09576040517f08c379a0000000000000000000000000000000000000000000000000000000008152600401610e0090611f76565b60405180910390fd5b610e16828686840361111d565b60019250505092915050565b6000849050600060405180608001604052808381526020016000815260200160001515815260200160001515815250905060078190806001815401808255809150506001900390600052602060002090600302016000909190919091506000820151816000019080519060200190610e9b9291906115f6565b506020820151816001015560408201518160020160006101000a81548160ff02191690831515021790555060608201518160020160016101000a81548160ff0219169083151502179055505050505050505050565b600080610efb611115565b9050610f08818585611374565b600191505092915050565b565b565b6000806000905060005b600780549050811015610fae5760078181548110610f68577f4e487b7100000000000000000000000000000000000000000000000000000000600052603260045260246000fd5b906000526020600020906003020160020160019054906101000a900460ff1615610f9b578180610f97906121ff565b9250505b8080610fa6906121ff565b915050610f21565b508091505090565b6000600160008473ffffffffffffffffffffffffffffffffffffffff1673ffffffffffffffffffffffffffffffffffffffff16815260200190815260200160002060008373ffffffffffffffffffffffffffffffffffffffff1673ffffffffffffffffffffffffffffffffffffffff16815260200190815260200160002054905092915050565b565b565b6000600660003373ffffffffffffffffffffffffffffffffffffffff1673ffffffffffffffffffffffffffffffffffffffff168152602001908152602001600020905060018160010160006101000a81548160ff0219169083151502179055508281600201819055508060000154600784815481106110e9577f4e487b7100000000000000000000000000000000000000000000000000000000600052603260045260246000fd5b9060005260206000209060030201600101600082825461110991906120d6565b92505081905550505050565b600033905090565b600073ffffffffffffffffffffffffffffffffffffffff168373ffffffffffffffffffffffffffffffffffffffff16141561118d576040517f08c379a000000000000000000000000000000000000000000000000000000000815260040161118490611f56565b60405180910390fd5b600073ffffffffffffffffffffffffffffffffffffffff168273ffffffffffffffffffffffffffffffffffffffff1614156111fd576040517f08c379a00000000000000000000000000000000000000000000000000000000081526004016111f490611eb6565b60405180910390fd5b80600160008573ffffffffffffffffffffffffffffffffffffffff1673ffffffffffffffffffffffffffffffffffffffff16815260200190815260200160002060008473ffffffffffffffffffffffffffffffffffffffff1673ffffffffffffffffffffffffffffffffffffffff168152602001908152602001600020819055508173ffffffffffffffffffffffffffffffffffffffff168373ffffffffffffffffffffffffffffffffffffffff167f8c5be1e5ebec7d5bd14f71427d1e84f3dd0314c0f7b2291e5b200ac8c7c3b925836040516112db9190611f96565b60405180910390a3505050565b60006112f48484610fb6565b90507fffffffffffffffffffffffffffffffffffffffffffffffffffffffffffffffff811461136e5781811015611360576040517f08c379a000000000000000000000000000000000000000000000000000000000815260040161135790611ed6565b60405180910390fd5b61136d848484840361111d565b5b50505050565b600073ffffffffffffffffffffffffffffffffffffffff168373ffffffffffffffffffffffffffffffffffffffff1614156113e4576040517f08c379a00000000000000000000000000000000000000000000000000000000081526004016113db90611f16565b60405180910390fd5b600073ffffffffffffffffffffffffffffffffffffffff168273ffffffffffffffffffffffffffffffffffffffff161415611454576040517f08c379a000000000000000000000000000000000000000000000000000000000815260040161144b90611e76565b60405180910390fd5b61145f8383836115ec565b60008060008573ffffffffffffffffffffffffffffffffffffffff1673ffffffffffffffffffffffffffffffffffffffff168152602001908152602001600020549050818110156114e5576040517f08c379a00000000000000000000000000000000000000000000000000000000081526004016114dc90611ef6565b60405180910390fd5b8181036000808673ffffffffffffffffffffffffffffffffffffffff1673ffffffffffffffffffffffffffffffffffffffff16815260200190815260200160002081905550816000808573ffffffffffffffffffffffffffffffffffffffff1673ffffffffffffffffffffffffffffffffffffffff168152602001908152602001600020600082825401925050819055508273ffffffffffffffffffffffffffffffffffffffff168473ffffffffffffffffffffffffffffffffffffffff167fddf252ad1be2c89b69c2b068fc378daa952ba7f163c4a11628f55a4df523b3ef846040516115d39190611f96565b60405180910390a36115e68484846115f1565b50505050565b505050565b505050565b828054611602906121cd565b90600052602060002090601f016020900481019282611624576000855561166b565b82601f1061163d57805160ff191683800117855561166b565b8280016001018555821561166b579182015b8281111561166a57825182559160200191906001019061164f565b5b509050611678919061167c565b5090565b5b8082111561169557600081600090555060010161167d565b5090565b60006116ac6116a784612042565b612011565b905080838252602082019050828560208602820111156116cb57600080fd5b60005b858110156116fb57816116e188826117c1565b8452602084019350602083019250506001810190506116ce565b5050509392505050565b60006117186117138461206e565b612011565b90508281526020810184848401111561173057600080fd5b61173b84828561218b565b509392505050565b600081359050611752816122e6565b92915050565b600082601f83011261176957600080fd5b8135611779848260208601611699565b91505092915050565b600081359050611791816122fd565b92915050565b600082601f8301126117a857600080fd5b81356117b8848260208601611705565b91505092915050565b6000813590506117d081612314565b92915050565b6000602082840312156117e857600080fd5b60006117f684828501611743565b91505092915050565b6000806040838503121561181257600080fd5b600061182085828601611743565b925050602061183185828601611743565b9150509250929050565b60008060006060848603121561185057600080fd5b600061185e86828701611743565b935050602061186f86828701611743565b9250506040611880868287016117c1565b9150509250925092565b6000806040838503121561189d57600080fd5b60006118ab85828601611743565b92505060206118bc858286016117c1565b9150509250929050565b600080600080608085870312156118dc57600080fd5b600085013567ffffffffffffffff8111156118f657600080fd5b61190287828801611797565b9450506020611913878288016117c1565b935050604085013567ffffffffffffffff81111561193057600080fd5b61193c87828801611758565b925050606085013567ffffffffffffffff81111561195957600080fd5b61196587828801611758565b91505092959194509250565b60006020828403121561198357600080fd5b6000611991848285016117c1565b91505092915050565b600080604083850312156119ad57600080fd5b60006119bb858286016117c1565b92505060206119cc85828601611782565b9150509250929050565b6119df8161212c565b82525050565b6119ee8161213e565b82525050565b6119fd8161214a565b82525050565b6000611a0e8261209e565b611a1881856120b4565b9350611a2881856020860161219a565b611a31816122d5565b840191505092915050565b6000611a47826120a9565b611a5181856120c5565b9350611a6181856020860161219a565b611a6a816122d5565b840191505092915050565b6000611a826023836120c5565b91507f45524332303a207472616e7366657220746f20746865207a65726f206164647260008301527f65737300000000000000000000000000000000000000000000000000000000006020830152604082019050919050565b6000611ae8601c836120c5565b91507f53656c662064656c65676174696f6e206e6f7420616c6c6f77656421000000006000830152602082019050919050565b6000611b286022836120c5565b91507f45524332303a20617070726f766520746f20746865207a65726f20616464726560008301527f73730000000000000000000000000000000000000000000000000000000000006020830152604082019050919050565b6000611b8e601d836120c5565b91507f45524332303a20696e73756666696369656e7420616c6c6f77616e63650000006000830152602082019050919050565b6000611bce6026836120c5565b91507f45524332303a207472616e7366657220616d6f756e742065786365656473206260008301527f616c616e636500000000000000000000000000000000000000000000000000006020830152604082019050919050565b6000611c346025836120c5565b91507f45524332303a207472616e736665722066726f6d20746865207a65726f20616460008301527f64726573730000000000000000000000000000000000000000000000000000006020830152604082019050919050565b6000611c9a6012836120c5565b91507f596f7520616c726561647920766f7465642100000000000000000000000000006000830152602082019050919050565b6000611cda6024836120c5565b91507f45524332303a20617070726f76652066726f6d20746865207a65726f2061646460008301527f72657373000000000000000000000000000000000000000000000000000000006020830152604082019050919050565b6000611d406025836120c5565b91507f45524332303a2064656372656173656420616c6c6f77616e63652062656c6f7760008301527f207a65726f0000000000000000000000000000000000000000000000000000006020830152604082019050919050565b611da281612174565b82525050565b611db18161217e565b82525050565b6000602082019050611dcc60008301846119d6565b92915050565b6000602082019050611de760008301846119e5565b92915050565b6000602082019050611e0260008301846119f4565b92915050565b60006080820190508181036000830152611e228187611a03565b9050611e316020830186611d99565b611e3e60408301856119e5565b611e4b60608301846119e5565b95945050505050565b60006020820190508181036000830152611e6e8184611a3c565b905092915050565b60006020820190508181036000830152611e8f81611a75565b9050919050565b60006020820190508181036000830152611eaf81611adb565b9050919050565b60006020820190508181036000830152611ecf81611b1b565b9050919050565b60006020820190508181036000830152611eef81611b81565b9050919050565b60006020820190508181036000830152611f0f81611bc1565b9050919050565b60006020820190508181036000830152611f2f81611c27565b9050919050565b60006020820190508181036000830152611f4f81611c8d565b9050919050565b60006020820190508181036000830152611f6f81611ccd565b9050919050565b60006020820190508181036000830152611f8f81611d33565b9050919050565b6000602082019050611fab6000830184611d99565b92915050565b6000608082019050611fc66000830187611d99565b611fd360208301866119e5565b611fe060408301856119d6565b611fed6060830184611d99565b95945050505050565b600060208201905061200b6000830184611da8565b92915050565b6000604051905081810181811067ffffffffffffffff82111715612038576120376122a6565b5b8060405250919050565b600067ffffffffffffffff82111561205d5761205c6122a6565b5b602082029050602081019050919050565b600067ffffffffffffffff821115612089576120886122a6565b5b601f19601f8301169050602081019050919050565b600081519050919050565b600081519050919050565b600082825260208201905092915050565b600082825260208201905092915050565b60006120e182612174565b91506120ec83612174565b9250827fffffffffffffffffffffffffffffffffffffffffffffffffffffffffffffffff0382111561212157612120612248565b5b828201905092915050565b600061213782612154565b9050919050565b60008115159050919050565b6000819050919050565b600073ffffffffffffffffffffffffffffffffffffffff82169050919050565b6000819050919050565b600060ff82169050919050565b82818337600083830152505050565b60005b838110156121b857808201518184015260208101905061219d565b838111156121c7576000848401525b50505050565b600060028204905060018216806121e557607f821691505b602082108114156121f9576121f8612277565b5b50919050565b600061220a82612174565b91507fffffffffffffffffffffffffffffffffffffffffffffffffffffffffffffffff82141561223d5761223c612248565b5b600182019050919050565b7f4e487b7100000000000000000000000000000000000000000000000000000000600052601160045260246000fd5b7f4e487b7100000000000000000000000000000000000000000000000000000000600052602260045260246000fd5b7f4e487b7100000000000000000000000000000000000000000000000000000000600052604160045260246000fd5b6000601f19601f8301169050919050565b6122ef8161212c565b81146122fa57600080fd5b50565b6123068161213e565b811461231157600080fd5b50565b61231d81612174565b811461232857600080fd5b5056fea264697066735822122052b95db3c281b6ae31deb00d689e003a76c0232b0e45073b2c228dc427ecf49f64736f6c63430008000033",
					"opcodes": "PUSH1 0x80 PUSH1 0x40 MSTORE CALLVALUE DUP1 ISZERO PUSH3 0x11 JUMPI PUSH1 0x0 DUP1 REVERT JUMPDEST POP PUSH1 0x40 MLOAD PUSH3 0x293B CODESIZE SUB DUP1 PUSH3 0x293B DUP4 CODECOPY DUP2 DUP2 ADD PUSH1 0x40 MSTORE DUP2 ADD SWAP1 PUSH3 0x37 SWAP2 SWAP1 PUSH3 0x385 JUMP JUMPDEST PUSH1 0x40 MLOAD DUP1 PUSH1 0x40 ADD PUSH1 0x40 MSTORE DUP1 PUSH1 0xB DUP2 MSTORE PUSH1 0x20 ADD PUSH32 0x4D79476F7620546F6B656E000000000000000000000000000000000000000000 DUP2 MSTORE POP PUSH1 0x40 MLOAD DUP1 PUSH1 0x40 ADD PUSH1 0x40 MSTORE DUP1 PUSH1 0x3 DUP2 MSTORE PUSH1 0x20 ADD PUSH32 0x4D47540000000000000000000000000000000000000000000000000000000000 DUP2 MSTORE POP DUP2 PUSH1 0x3 SWAP1 DUP1 MLOAD SWAP1 PUSH1 0x20 ADD SWAP1 PUSH3 0xBB SWAP3 SWAP2 SWAP1 PUSH3 0x2BE JUMP JUMPDEST POP DUP1 PUSH1 0x4 SWAP1 DUP1 MLOAD SWAP1 PUSH1 0x20 ADD SWAP1 PUSH3 0xD4 SWAP3 SWAP2 SWAP1 PUSH3 0x2BE JUMP JUMPDEST POP POP POP CALLER PUSH1 0x5 PUSH1 0x0 PUSH2 0x100 EXP DUP2 SLOAD DUP2 PUSH20 0xFFFFFFFFFFFFFFFFFFFFFFFFFFFFFFFFFFFFFFFF MUL NOT AND SWAP1 DUP4 PUSH20 0xFFFFFFFFFFFFFFFFFFFFFFFFFFFFFFFFFFFFFFFF AND MUL OR SWAP1 SSTORE POP PUSH3 0x13F CALLER PUSH8 0xDE0B6B3A7640000 DUP4 PUSH3 0x133 SWAP2 SWAP1 PUSH3 0x4B1 JUMP JUMPDEST PUSH3 0x146 PUSH1 0x20 SHL PUSH1 0x20 SHR JUMP JUMPDEST POP PUSH3 0x5CA JUMP JUMPDEST PUSH1 0x0 PUSH20 0xFFFFFFFFFFFFFFFFFFFFFFFFFFFFFFFFFFFFFFFF AND DUP3 PUSH20 0xFFFFFFFFFFFFFFFFFFFFFFFFFFFFFFFFFFFFFFFF AND EQ ISZERO PUSH3 0x1B9 JUMPI PUSH1 0x40 MLOAD PUSH32 0x8C379A000000000000000000000000000000000000000000000000000000000 DUP2 MSTORE PUSH1 0x4 ADD PUSH3 0x1B0 SWAP1 PUSH3 0x404 JUMP JUMPDEST PUSH1 0x40 MLOAD DUP1 SWAP2 SUB SWAP1 REVERT JUMPDEST PUSH3 0x1CD PUSH1 0x0 DUP4 DUP4 PUSH3 0x2B4 PUSH1 0x20 SHL PUSH1 0x20 SHR JUMP JUMPDEST DUP1 PUSH1 0x2 PUSH1 0x0 DUP3 DUP3 SLOAD PUSH3 0x1E1 SWAP2 SWAP1 PUSH3 0x454 JUMP JUMPDEST SWAP3 POP POP DUP2 SWAP1 SSTORE POP DUP1 PUSH1 0x0 DUP1 DUP5 PUSH20 0xFFFFFFFFFFFFFFFFFFFFFFFFFFFFFFFFFFFFFFFF AND PUSH20 0xFFFFFFFFFFFFFFFFFFFFFFFFFFFFFFFFFFFFFFFF AND DUP2 MSTORE PUSH1 0x20 ADD SWAP1 DUP2 MSTORE PUSH1 0x20 ADD PUSH1 0x0 KECCAK256 PUSH1 0x0 DUP3 DUP3 SLOAD ADD SWAP3 POP POP DUP2 SWAP1 SSTORE POP DUP2 PUSH20 0xFFFFFFFFFFFFFFFFFFFFFFFFFFFFFFFFFFFFFFFF AND PUSH1 0x0 PUSH20 0xFFFFFFFFFFFFFFFFFFFFFFFFFFFFFFFFFFFFFFFF AND PUSH32 0xDDF252AD1BE2C89B69C2B068FC378DAA952BA7F163C4A11628F55A4DF523B3EF DUP4 PUSH1 0x40 MLOAD PUSH3 0x294 SWAP2 SWAP1 PUSH3 0x426 JUMP JUMPDEST PUSH1 0x40 MLOAD DUP1 SWAP2 SUB SWAP1 LOG3 PUSH3 0x2B0 PUSH1 0x0 DUP4 DUP4 PUSH3 0x2B9 PUSH1 0x20 SHL PUSH1 0x20 SHR JUMP JUMPDEST POP POP JUMP JUMPDEST POP POP POP JUMP JUMPDEST POP POP POP JUMP JUMPDEST DUP3 DUP1 SLOAD PUSH3 0x2CC SWAP1 PUSH3 0x51C JUMP JUMPDEST SWAP1 PUSH1 0x0 MSTORE PUSH1 0x20 PUSH1 0x0 KECCAK256 SWAP1 PUSH1 0x1F ADD PUSH1 0x20 SWAP1 DIV DUP2 ADD SWAP3 DUP3 PUSH3 0x2F0 JUMPI PUSH1 0x0 DUP6 SSTORE PUSH3 0x33C JUMP JUMPDEST DUP3 PUSH1 0x1F LT PUSH3 0x30B JUMPI DUP1 MLOAD PUSH1 0xFF NOT AND DUP4 DUP1 ADD OR DUP6 SSTORE PUSH3 0x33C JUMP JUMPDEST DUP3 DUP1 ADD PUSH1 0x1 ADD DUP6 SSTORE DUP3 ISZERO PUSH3 0x33C JUMPI SWAP2 DUP3 ADD JUMPDEST DUP3 DUP2 GT ISZERO PUSH3 0x33B JUMPI DUP3 MLOAD DUP3 SSTORE SWAP2 PUSH1 0x20 ADD SWAP2 SWAP1 PUSH1 0x1 ADD SWAP1 PUSH3 0x31E JUMP JUMPDEST JUMPDEST POP SWAP1 POP PUSH3 0x34B SWAP2 SWAP1 PUSH3 0x34F JUMP JUMPDEST POP SWAP1 JUMP JUMPDEST JUMPDEST DUP1 DUP3 GT ISZERO PUSH3 0x36A JUMPI PUSH1 0x0 DUP2 PUSH1 0x0 SWAP1 SSTORE POP PUSH1 0x1 ADD PUSH3 0x350 JUMP JUMPDEST POP SWAP1 JUMP JUMPDEST PUSH1 0x0 DUP2 MLOAD SWAP1 POP PUSH3 0x37F DUP2 PUSH3 0x5B0 JUMP JUMPDEST SWAP3 SWAP2 POP POP JUMP JUMPDEST PUSH1 0x0 PUSH1 0x20 DUP3 DUP5 SUB SLT ISZERO PUSH3 0x398 JUMPI PUSH1 0x0 DUP1 REVERT JUMPDEST PUSH1 0x0 PUSH3 0x3A8 DUP5 DUP3 DUP6 ADD PUSH3 0x36E JUMP JUMPDEST SWAP2 POP POP SWAP3 SWAP2 POP POP JUMP JUMPDEST PUSH1 0x0 PUSH3 0x3C0 PUSH1 0x1F DUP4 PUSH3 0x443 JUMP JUMPDEST SWAP2 POP PUSH32 0x45524332303A206D696E7420746F20746865207A65726F206164647265737300 PUSH1 0x0 DUP4 ADD MSTORE PUSH1 0x20 DUP3 ADD SWAP1 POP SWAP2 SWAP1 POP JUMP JUMPDEST PUSH3 0x3FE DUP2 PUSH3 0x512 JUMP JUMPDEST DUP3 MSTORE POP POP JUMP JUMPDEST PUSH1 0x0 PUSH1 0x20 DUP3 ADD SWAP1 POP DUP2 DUP2 SUB PUSH1 0x0 DUP4 ADD MSTORE PUSH3 0x41F DUP2 PUSH3 0x3B1 JUMP JUMPDEST SWAP1 POP SWAP2 SWAP1 POP JUMP JUMPDEST PUSH1 0x0 PUSH1 0x20 DUP3 ADD SWAP1 POP PUSH3 0x43D PUSH1 0x0 DUP4 ADD DUP5 PUSH3 0x3F3 JUMP JUMPDEST SWAP3 SWAP2 POP POP JUMP JUMPDEST PUSH1 0x0 DUP3 DUP3 MSTORE PUSH1 0x20 DUP3 ADD SWAP1 POP SWAP3 SWAP2 POP POP JUMP JUMPDEST PUSH1 0x0 PUSH3 0x461 DUP3 PUSH3 0x512 JUMP JUMPDEST SWAP2 POP PUSH3 0x46E DUP4 PUSH3 0x512 JUMP JUMPDEST SWAP3 POP DUP3 PUSH32 0xFFFFFFFFFFFFFFFFFFFFFFFFFFFFFFFFFFFFFFFFFFFFFFFFFFFFFFFFFFFFFFFF SUB DUP3 GT ISZERO PUSH3 0x4A6 JUMPI PUSH3 0x4A5 PUSH3 0x552 JUMP JUMPDEST JUMPDEST DUP3 DUP3 ADD SWAP1 POP SWAP3 SWAP2 POP POP JUMP JUMPDEST PUSH1 0x0 PUSH3 0x4BE DUP3 PUSH3 0x512 JUMP JUMPDEST SWAP2 POP PUSH3 0x4CB DUP4 PUSH3 0x512 JUMP JUMPDEST SWAP3 POP DUP2 PUSH32 0xFFFFFFFFFFFFFFFFFFFFFFFFFFFFFFFFFFFFFFFFFFFFFFFFFFFFFFFFFFFFFFFF DIV DUP4 GT DUP3 ISZERO ISZERO AND ISZERO PUSH3 0x507 JUMPI PUSH3 0x506 PUSH3 0x552 JUMP JUMPDEST JUMPDEST DUP3 DUP3 MUL SWAP1 POP SWAP3 SWAP2 POP POP JUMP JUMPDEST PUSH1 0x0 DUP2 SWAP1 POP SWAP2 SWAP1 POP JUMP JUMPDEST PUSH1 0x0 PUSH1 0x2 DUP3 DIV SWAP1 POP PUSH1 0x1 DUP3 AND DUP1 PUSH3 0x535 JUMPI PUSH1 0x7F DUP3 AND SWAP2 POP JUMPDEST PUSH1 0x20 DUP3 LT DUP2 EQ ISZERO PUSH3 0x54C JUMPI PUSH3 0x54B PUSH3 0x581 JUMP JUMPDEST JUMPDEST POP SWAP2 SWAP1 POP JUMP JUMPDEST PUSH32 0x4E487B7100000000000000000000000000000000000000000000000000000000 PUSH1 0x0 MSTORE PUSH1 0x11 PUSH1 0x4 MSTORE PUSH1 0x24 PUSH1 0x0 REVERT JUMPDEST PUSH32 0x4E487B7100000000000000000000000000000000000000000000000000000000 PUSH1 0x0 MSTORE PUSH1 0x22 PUSH1 0x4 MSTORE PUSH1 0x24 PUSH1 0x0 REVERT JUMPDEST PUSH3 0x5BB DUP2 PUSH3 0x512 JUMP JUMPDEST DUP2 EQ PUSH3 0x5C7 JUMPI PUSH1 0x0 DUP1 REVERT JUMPDEST POP JUMP JUMPDEST PUSH2 0x2361 DUP1 PUSH3 0x5DA PUSH1 0x0 CODECOPY PUSH1 0x0 RETURN INVALID PUSH1 0x80 PUSH1 0x40 MSTORE PUSH1 0x4 CALLDATASIZE LT PUSH2 0x204 JUMPI PUSH1 0x0 CALLDATALOAD PUSH1 0xE0 SHR DUP1 PUSH4 0x863451DD GT PUSH2 0x118 JUMPI DUP1 PUSH4 0xA5E898E1 GT PUSH2 0xA0 JUMPI DUP1 PUSH4 0xBF50556D GT PUSH2 0x6F JUMPI DUP1 PUSH4 0xBF50556D EQ PUSH2 0x6DE JUMPI DUP1 PUSH4 0xDD62ED3E EQ PUSH2 0x709 JUMPI DUP1 PUSH4 0xE00E03F9 EQ PUSH2 0x746 JUMPI DUP1 PUSH4 0xE6D68595 EQ PUSH2 0x75D JUMPI DUP1 PUSH4 0xF22449BA EQ PUSH2 0x774 JUMPI PUSH2 0x204 JUMP JUMPDEST DUP1 PUSH4 0xA5E898E1 EQ PUSH2 0x64A JUMPI DUP1 PUSH4 0xA9059CBB EQ PUSH2 0x673 JUMPI DUP1 PUSH4 0xAF60D560 EQ PUSH2 0x6B0 JUMPI DUP1 PUSH4 0xBAFC462D EQ PUSH2 0x6C7 JUMPI PUSH2 0x204 JUMP JUMPDEST DUP1 PUSH4 0x95D89B41 GT PUSH2 0xE7 JUMPI DUP1 PUSH4 0x95D89B41 EQ PUSH2 0x562 JUMPI DUP1 PUSH4 0x97CFE54B EQ PUSH2 0x58D JUMPI DUP1 PUSH4 0xA1669B32 EQ PUSH2 0x5A4 JUMPI DUP1 PUSH4 0xA3EC138D EQ PUSH2 0x5CD JUMPI DUP1 PUSH4 0xA457C2D7 EQ PUSH2 0x60D JUMPI PUSH2 0x204 JUMP JUMPDEST DUP1 PUSH4 0x863451DD EQ PUSH2 0x4C7 JUMPI DUP1 PUSH4 0x86E68B90 EQ PUSH2 0x4D1 JUMPI DUP1 PUSH4 0x875B5076 EQ PUSH2 0x50E JUMPI DUP1 PUSH4 0x8FBE3750 EQ PUSH2 0x54B JUMPI PUSH2 0x204 JUMP JUMPDEST DUP1 PUSH4 0x313CE567 GT PUSH2 0x19B JUMPI DUP1 PUSH4 0x5D801B37 GT PUSH2 0x16A JUMPI DUP1 PUSH4 0x5D801B37 EQ PUSH2 0x41A JUMPI DUP1 PUSH4 0x67C897FE EQ PUSH2 0x445 JUMPI DUP1 PUSH4 0x70A08231 EQ PUSH2 0x45C JUMPI DUP1 PUSH4 0x70E1133C EQ PUSH2 0x499 JUMPI DUP1 PUSH4 0x72A4E9BA EQ PUSH2 0x4B0 JUMPI PUSH2 0x204 JUMP JUMPDEST DUP1 PUSH4 0x313CE567 EQ PUSH2 0x372 JUMPI DUP1 PUSH4 0x35655237 EQ PUSH2 0x39D JUMPI DUP1 PUSH4 0x39509351 EQ PUSH2 0x3B4 JUMPI DUP1 PUSH4 0x39C94D2D EQ PUSH2 0x3F1 JUMPI PUSH2 0x204 JUMP JUMPDEST DUP1 PUSH4 0x164DFD3B GT PUSH2 0x1D7 JUMPI DUP1 PUSH4 0x164DFD3B EQ PUSH2 0x2C8 JUMPI DUP1 PUSH4 0x18160DDD EQ PUSH2 0x2DF JUMPI DUP1 PUSH4 0x23B872DD EQ PUSH2 0x30A JUMPI DUP1 PUSH4 0x23FD498B EQ PUSH2 0x347 JUMPI PUSH2 0x204 JUMP JUMPDEST DUP1 PUSH4 0x13CF08B EQ PUSH2 0x209 JUMPI DUP1 PUSH4 0x33CB2D3 EQ PUSH2 0x249 JUMPI DUP1 PUSH4 0x6FDDE03 EQ PUSH2 0x260 JUMPI DUP1 PUSH4 0x95EA7B3 EQ PUSH2 0x28B JUMPI JUMPDEST PUSH1 0x0 DUP1 REVERT JUMPDEST CALLVALUE DUP1 ISZERO PUSH2 0x215 JUMPI PUSH1 0x0 DUP1 REVERT JUMPDEST POP PUSH2 0x230 PUSH1 0x4 DUP1 CALLDATASIZE SUB DUP2 ADD SWAP1 PUSH2 0x22B SWAP2 SWAP1 PUSH2 0x1971 JUMP JUMPDEST PUSH2 0x79D JUMP JUMPDEST PUSH1 0x40 MLOAD PUSH2 0x240 SWAP5 SWAP4 SWAP3 SWAP2 SWAP1 PUSH2 0x1E08 JUMP JUMPDEST PUSH1 0x40 MLOAD DUP1 SWAP2 SUB SWAP1 RETURN JUMPDEST CALLVALUE DUP1 ISZERO PUSH2 0x255 JUMPI PUSH1 0x0 DUP1 REVERT JUMPDEST POP PUSH2 0x25E PUSH2 0x87F JUMP JUMPDEST STOP JUMPDEST CALLVALUE DUP1 ISZERO PUSH2 0x26C JUMPI PUSH1 0x0 DUP1 REVERT JUMPDEST POP PUSH2 0x275 PUSH2 0x881 JUMP JUMPDEST PUSH1 0x40 MLOAD PUSH2 0x282 SWAP2 SWAP1 PUSH2 0x1E54 JUMP JUMPDEST PUSH1 0x40 MLOAD DUP1 SWAP2 SUB SWAP1 RETURN JUMPDEST CALLVALUE DUP1 ISZERO PUSH2 0x297 JUMPI PUSH1 0x0 DUP1 REVERT JUMPDEST POP PUSH2 0x2B2 PUSH1 0x4 DUP1 CALLDATASIZE SUB DUP2 ADD SWAP1 PUSH2 0x2AD SWAP2 SWAP1 PUSH2 0x188A JUMP JUMPDEST PUSH2 0x913 JUMP JUMPDEST PUSH1 0x40 MLOAD PUSH2 0x2BF SWAP2 SWAP1 PUSH2 0x1DD2 JUMP JUMPDEST PUSH1 0x40 MLOAD DUP1 SWAP2 SUB SWAP1 RETURN JUMPDEST CALLVALUE DUP1 ISZERO PUSH2 0x2D4 JUMPI PUSH1 0x0 DUP1 REVERT JUMPDEST POP PUSH2 0x2DD PUSH2 0x936 JUMP JUMPDEST STOP JUMPDEST CALLVALUE DUP1 ISZERO PUSH2 0x2EB JUMPI PUSH1 0x0 DUP1 REVERT JUMPDEST POP PUSH2 0x2F4 PUSH2 0x938 JUMP JUMPDEST PUSH1 0x40 MLOAD PUSH2 0x301 SWAP2 SWAP1 PUSH2 0x1F96 JUMP JUMPDEST PUSH1 0x40 MLOAD DUP1 SWAP2 SUB SWAP1 RETURN JUMPDEST CALLVALUE DUP1 ISZERO PUSH2 0x316 JUMPI PUSH1 0x0 DUP1 REVERT JUMPDEST POP PUSH2 0x331 PUSH1 0x4 DUP1 CALLDATASIZE SUB DUP2 ADD SWAP1 PUSH2 0x32C SWAP2 SWAP1 PUSH2 0x183B JUMP JUMPDEST PUSH2 0x942 JUMP JUMPDEST PUSH1 0x40 MLOAD PUSH2 0x33E SWAP2 SWAP1 PUSH2 0x1DD2 JUMP JUMPDEST PUSH1 0x40 MLOAD DUP1 SWAP2 SUB SWAP1 RETURN JUMPDEST CALLVALUE DUP1 ISZERO PUSH2 0x353 JUMPI PUSH1 0x0 DUP1 REVERT JUMPDEST POP PUSH2 0x35C PUSH2 0x971 JUMP JUMPDEST PUSH1 0x40 MLOAD PUSH2 0x369 SWAP2 SWAP1 PUSH2 0x1F96 JUMP JUMPDEST PUSH1 0x40 MLOAD DUP1 SWAP2 SUB SWAP1 RETURN JUMPDEST CALLVALUE DUP1 ISZERO PUSH2 0x37E JUMPI PUSH1 0x0 DUP1 REVERT JUMPDEST POP PUSH2 0x387 PUSH2 0x97E JUMP JUMPDEST PUSH1 0x40 MLOAD PUSH2 0x394 SWAP2 SWAP1 PUSH2 0x1FF6 JUMP JUMPDEST PUSH1 0x40 MLOAD DUP1 SWAP2 SUB SWAP1 RETURN JUMPDEST CALLVALUE DUP1 ISZERO PUSH2 0x3A9 JUMPI PUSH1 0x0 DUP1 REVERT JUMPDEST POP PUSH2 0x3B2 PUSH2 0x987 JUMP JUMPDEST STOP JUMPDEST CALLVALUE DUP1 ISZERO PUSH2 0x3C0 JUMPI PUSH1 0x0 DUP1 REVERT JUMPDEST POP PUSH2 0x3DB PUSH1 0x4 DUP1 CALLDATASIZE SUB DUP2 ADD SWAP1 PUSH2 0x3D6 SWAP2 SWAP1 PUSH2 0x188A JUMP JUMPDEST PUSH2 0x989 JUMP JUMPDEST PUSH1 0x40 MLOAD PUSH2 0x3E8 SWAP2 SWAP1 PUSH2 0x1DD2 JUMP JUMPDEST PUSH1 0x40 MLOAD DUP1 SWAP2 SUB SWAP1 RETURN JUMPDEST CALLVALUE DUP1 ISZERO PUSH2 0x3FD JUMPI PUSH1 0x0 DUP1 REVERT JUMPDEST POP PUSH2 0x418 PUSH1 0x4 DUP1 CALLDATASIZE SUB DUP2 ADD SWAP1 PUSH2 0x413 SWAP2 SWAP1 PUSH2 0x1971 JUMP JUMPDEST PUSH2 0x9C0 JUMP JUMPDEST STOP JUMPDEST CALLVALUE DUP1 ISZERO PUSH2 0x426 JUMPI PUSH1 0x0 DUP1 REVERT JUMPDEST POP PUSH2 0x42F PUSH2 0x9F0 JUMP JUMPDEST PUSH1 0x40 MLOAD PUSH2 0x43C SWAP2 SWAP1 PUSH2 0x1F96 JUMP JUMPDEST PUSH1 0x40 MLOAD DUP1 SWAP2 SUB SWAP1 RETURN JUMPDEST CALLVALUE DUP1 ISZERO PUSH2 0x451 JUMPI PUSH1 0x0 DUP1 REVERT JUMPDEST POP PUSH2 0x45A PUSH2 0x9FD JUMP JUMPDEST STOP JUMPDEST CALLVALUE DUP1 ISZERO PUSH2 0x468 JUMPI PUSH1 0x0 DUP1 REVERT JUMPDEST POP PUSH2 0x483 PUSH1 0x4 DUP1 CALLDATASIZE SUB DUP2 ADD SWAP1 PUSH2 0x47E SWAP2 SWAP1 PUSH2 0x17D6 JUMP JUMPDEST PUSH2 0x9FF JUMP JUMPDEST PUSH1 0x40 MLOAD PUSH2 0x490 SWAP2 SWAP1 PUSH2 0x1F96 JUMP JUMPDEST PUSH1 0x40 MLOAD DUP1 SWAP2 SUB SWAP1 RETURN JUMPDEST CALLVALUE DUP1 ISZERO PUSH2 0x4A5 JUMPI PUSH1 0x0 DUP1 REVERT JUMPDEST POP PUSH2 0x4AE PUSH2 0xA47 JUMP JUMPDEST STOP JUMPDEST CALLVALUE DUP1 ISZERO PUSH2 0x4BC JUMPI PUSH1 0x0 DUP1 REVERT JUMPDEST POP PUSH2 0x4C5 PUSH2 0xA49 JUMP JUMPDEST STOP JUMPDEST PUSH2 0x4CF PUSH2 0xA4B JUMP JUMPDEST STOP JUMPDEST CALLVALUE DUP1 ISZERO PUSH2 0x4DD JUMPI PUSH1 0x0 DUP1 REVERT JUMPDEST POP PUSH2 0x4F8 PUSH1 0x4 DUP1 CALLDATASIZE SUB DUP2 ADD SWAP1 PUSH2 0x4F3 SWAP2 SWAP1 PUSH2 0x1971 JUMP JUMPDEST PUSH2 0xAB7 JUMP JUMPDEST PUSH1 0x40 MLOAD PUSH2 0x505 SWAP2 SWAP1 PUSH2 0x1DED JUMP JUMPDEST PUSH1 0x40 MLOAD DUP1 SWAP2 SUB SWAP1 RETURN JUMPDEST CALLVALUE DUP1 ISZERO PUSH2 0x51A JUMPI PUSH1 0x0 DUP1 REVERT JUMPDEST POP PUSH2 0x535 PUSH1 0x4 DUP1 CALLDATASIZE SUB DUP2 ADD SWAP1 PUSH2 0x530 SWAP2 SWAP1 PUSH2 0x1971 JUMP JUMPDEST PUSH2 0xAE5 JUMP JUMPDEST PUSH1 0x40 MLOAD PUSH2 0x542 SWAP2 SWAP1 PUSH2 0x1DB7 JUMP JUMPDEST PUSH1 0x40 MLOAD DUP1 SWAP2 SUB SWAP1 RETURN JUMPDEST CALLVALUE DUP1 ISZERO PUSH2 0x557 JUMPI PUSH1 0x0 DUP1 REVERT JUMPDEST POP PUSH2 0x560 PUSH2 0xAEC JUMP JUMPDEST STOP JUMPDEST CALLVALUE DUP1 ISZERO PUSH2 0x56E JUMPI PUSH1 0x0 DUP1 REVERT JUMPDEST POP PUSH2 0x577 PUSH2 0xAEE JUMP JUMPDEST PUSH1 0x40 MLOAD PUSH2 0x584 SWAP2 SWAP1 PUSH2 0x1E54 JUMP JUMPDEST PUSH1 0x40 MLOAD DUP1 SWAP2 SUB SWAP1 RETURN JUMPDEST CALLVALUE DUP1 ISZERO PUSH2 0x599 JUMPI PUSH1 0x0 DUP1 REVERT JUMPDEST POP PUSH2 0x5A2 PUSH2 0xB80 JUMP JUMPDEST STOP JUMPDEST CALLVALUE DUP1 ISZERO PUSH2 0x5B0 JUMPI PUSH1 0x0 DUP1 REVERT JUMPDEST POP PUSH2 0x5CB PUSH1 0x4 DUP1 CALLDATASIZE SUB DUP2 ADD SWAP1 PUSH2 0x5C6 SWAP2 SWAP1 PUSH2 0x188A JUMP JUMPDEST PUSH2 0xB82 JUMP JUMPDEST STOP JUMPDEST CALLVALUE DUP1 ISZERO PUSH2 0x5D9 JUMPI PUSH1 0x0 DUP1 REVERT JUMPDEST POP PUSH2 0x5F4 PUSH1 0x4 DUP1 CALLDATASIZE SUB DUP2 ADD SWAP1 PUSH2 0x5EF SWAP2 SWAP1 PUSH2 0x17D6 JUMP JUMPDEST PUSH2 0xD4E JUMP JUMPDEST PUSH1 0x40 MLOAD PUSH2 0x604 SWAP5 SWAP4 SWAP3 SWAP2 SWAP1 PUSH2 0x1FB1 JUMP JUMPDEST PUSH1 0x40 MLOAD DUP1 SWAP2 SUB SWAP1 RETURN JUMPDEST CALLVALUE DUP1 ISZERO PUSH2 0x619 JUMPI PUSH1 0x0 DUP1 REVERT JUMPDEST POP PUSH2 0x634 PUSH1 0x4 DUP1 CALLDATASIZE SUB DUP2 ADD SWAP1 PUSH2 0x62F SWAP2 SWAP1 PUSH2 0x188A JUMP JUMPDEST PUSH2 0xDAB JUMP JUMPDEST PUSH1 0x40 MLOAD PUSH2 0x641 SWAP2 SWAP1 PUSH2 0x1DD2 JUMP JUMPDEST PUSH1 0x40 MLOAD DUP1 SWAP2 SUB SWAP1 RETURN JUMPDEST CALLVALUE DUP1 ISZERO PUSH2 0x656 JUMPI PUSH1 0x0 DUP1 REVERT JUMPDEST POP PUSH2 0x671 PUSH1 0x4 DUP1 CALLDATASIZE SUB DUP2 ADD SWAP1 PUSH2 0x66C SWAP2 SWAP1 PUSH2 0x18C6 JUMP JUMPDEST PUSH2 0xE22 JUMP JUMPDEST STOP JUMPDEST CALLVALUE DUP1 ISZERO PUSH2 0x67F JUMPI PUSH1 0x0 DUP1 REVERT JUMPDEST POP PUSH2 0x69A PUSH1 0x4 DUP1 CALLDATASIZE SUB DUP2 ADD SWAP1 PUSH2 0x695 SWAP2 SWAP1 PUSH2 0x188A JUMP JUMPDEST PUSH2 0xEF0 JUMP JUMPDEST PUSH1 0x40 MLOAD PUSH2 0x6A7 SWAP2 SWAP1 PUSH2 0x1DD2 JUMP JUMPDEST PUSH1 0x40 MLOAD DUP1 SWAP2 SUB SWAP1 RETURN JUMPDEST CALLVALUE DUP1 ISZERO PUSH2 0x6BC JUMPI PUSH1 0x0 DUP1 REVERT JUMPDEST POP PUSH2 0x6C5 PUSH2 0xF13 JUMP JUMPDEST STOP JUMPDEST CALLVALUE DUP1 ISZERO PUSH2 0x6D3 JUMPI PUSH1 0x0 DUP1 REVERT JUMPDEST POP PUSH2 0x6DC PUSH2 0xF15 JUMP JUMPDEST STOP JUMPDEST CALLVALUE DUP1 ISZERO PUSH2 0x6EA JUMPI PUSH1 0x0 DUP1 REVERT JUMPDEST POP PUSH2 0x6F3 PUSH2 0xF17 JUMP JUMPDEST PUSH1 0x40 MLOAD PUSH2 0x700 SWAP2 SWAP1 PUSH2 0x1F96 JUMP JUMPDEST PUSH1 0x40 MLOAD DUP1 SWAP2 SUB SWAP1 RETURN JUMPDEST CALLVALUE DUP1 ISZERO PUSH2 0x715 JUMPI PUSH1 0x0 DUP1 REVERT JUMPDEST POP PUSH2 0x730 PUSH1 0x4 DUP1 CALLDATASIZE SUB DUP2 ADD SWAP1 PUSH2 0x72B SWAP2 SWAP1 PUSH2 0x17FF JUMP JUMPDEST PUSH2 0xFB6 JUMP JUMPDEST PUSH1 0x40 MLOAD PUSH2 0x73D SWAP2 SWAP1 PUSH2 0x1F96 JUMP JUMPDEST PUSH1 0x40 MLOAD DUP1 SWAP2 SUB SWAP1 RETURN JUMPDEST CALLVALUE DUP1 ISZERO PUSH2 0x752 JUMPI PUSH1 0x0 DUP1 REVERT JUMPDEST POP PUSH2 0x75B PUSH2 0x103D JUMP JUMPDEST STOP JUMPDEST CALLVALUE DUP1 ISZERO PUSH2 0x769 JUMPI PUSH1 0x0 DUP1 REVERT JUMPDEST POP PUSH2 0x772 PUSH2 0x103F JUMP JUMPDEST STOP JUMPDEST CALLVALUE DUP1 ISZERO PUSH2 0x780 JUMPI PUSH1 0x0 DUP1 REVERT JUMPDEST POP PUSH2 0x79B PUSH1 0x4 DUP1 CALLDATASIZE SUB DUP2 ADD SWAP1 PUSH2 0x796 SWAP2 SWAP1 PUSH2 0x199A JUMP JUMPDEST PUSH2 0x1041 JUMP JUMPDEST STOP JUMPDEST PUSH1 0x7 DUP2 DUP2 SLOAD DUP2 LT PUSH2 0x7AD JUMPI PUSH1 0x0 DUP1 REVERT JUMPDEST SWAP1 PUSH1 0x0 MSTORE PUSH1 0x20 PUSH1 0x0 KECCAK256 SWAP1 PUSH1 0x3 MUL ADD PUSH1 0x0 SWAP2 POP SWAP1 POP DUP1 PUSH1 0x0 ADD DUP1 SLOAD PUSH2 0x7D0 SWAP1 PUSH2 0x21CD JUMP JUMPDEST DUP1 PUSH1 0x1F ADD PUSH1 0x20 DUP1 SWAP2 DIV MUL PUSH1 0x20 ADD PUSH1 0x40 MLOAD SWAP1 DUP2 ADD PUSH1 0x40 MSTORE DUP1 SWAP3 SWAP2 SWAP1 DUP2 DUP2 MSTORE PUSH1 0x20 ADD DUP3 DUP1 SLOAD PUSH2 0x7FC SWAP1 PUSH2 0x21CD JUMP JUMPDEST DUP1 ISZERO PUSH2 0x849 JUMPI DUP1 PUSH1 0x1F LT PUSH2 0x81E JUMPI PUSH2 0x100 DUP1 DUP4 SLOAD DIV MUL DUP4 MSTORE SWAP2 PUSH1 0x20 ADD SWAP2 PUSH2 0x849 JUMP JUMPDEST DUP3 ADD SWAP2 SWAP1 PUSH1 0x0 MSTORE PUSH1 0x20 PUSH1 0x0 KECCAK256 SWAP1 JUMPDEST DUP2 SLOAD DUP2 MSTORE SWAP1 PUSH1 0x1 ADD SWAP1 PUSH1 0x20 ADD DUP1 DUP4 GT PUSH2 0x82C JUMPI DUP3 SWAP1 SUB PUSH1 0x1F AND DUP3 ADD SWAP2 JUMPDEST POP POP POP POP POP SWAP1 DUP1 PUSH1 0x1 ADD SLOAD SWAP1 DUP1 PUSH1 0x2 ADD PUSH1 0x0 SWAP1 SLOAD SWAP1 PUSH2 0x100 EXP SWAP1 DIV PUSH1 0xFF AND SWAP1 DUP1 PUSH1 0x2 ADD PUSH1 0x1 SWAP1 SLOAD SWAP1 PUSH2 0x100 EXP SWAP1 DIV PUSH1 0xFF AND SWAP1 POP DUP5 JUMP JUMPDEST JUMP JUMPDEST PUSH1 0x60 PUSH1 0x3 DUP1 SLOAD PUSH2 0x890 SWAP1 PUSH2 0x21CD JUMP JUMPDEST DUP1 PUSH1 0x1F ADD PUSH1 0x20 DUP1 SWAP2 DIV MUL PUSH1 0x20 ADD PUSH1 0x40 MLOAD SWAP1 DUP2 ADD PUSH1 0x40 MSTORE DUP1 SWAP3 SWAP2 SWAP1 DUP2 DUP2 MSTORE PUSH1 0x20 ADD DUP3 DUP1 SLOAD PUSH2 0x8BC SWAP1 PUSH2 0x21CD JUMP JUMPDEST DUP1 ISZERO PUSH2 0x909 JUMPI DUP1 PUSH1 0x1F LT PUSH2 0x8DE JUMPI PUSH2 0x100 DUP1 DUP4 SLOAD DIV MUL DUP4 MSTORE SWAP2 PUSH1 0x20 ADD SWAP2 PUSH2 0x909 JUMP JUMPDEST DUP3 ADD SWAP2 SWAP1 PUSH1 0x0 MSTORE PUSH1 0x20 PUSH1 0x0 KECCAK256 SWAP1 JUMPDEST DUP2 SLOAD DUP2 MSTORE SWAP1 PUSH1 0x1 ADD SWAP1 PUSH1 0x20 ADD DUP1 DUP4 GT PUSH2 0x8EC JUMPI DUP3 SWAP1 SUB PUSH1 0x1F AND DUP3 ADD SWAP2 JUMPDEST POP POP POP POP POP SWAP1 POP SWAP1 JUMP JUMPDEST PUSH1 0x0 DUP1 PUSH2 0x91E PUSH2 0x1115 JUMP JUMPDEST SWAP1 POP PUSH2 0x92B DUP2 DUP6 DUP6 PUSH2 0x111D JUMP JUMPDEST PUSH1 0x1 SWAP2 POP POP SWAP3 SWAP2 POP POP JUMP JUMPDEST JUMP JUMPDEST PUSH1 0x0 PUSH1 0x2 SLOAD SWAP1 POP SWAP1 JUMP JUMPDEST PUSH1 0x0 DUP1 PUSH2 0x94D PUSH2 0x1115 JUMP JUMPDEST SWAP1 POP PUSH2 0x95A DUP6 DUP3 DUP6 PUSH2 0x12E8 JUMP JUMPDEST PUSH2 0x965 DUP6 DUP6 DUP6 PUSH2 0x1374 JUMP JUMPDEST PUSH1 0x1 SWAP2 POP POP SWAP4 SWAP3 POP POP POP JUMP JUMPDEST PUSH1 0x0 PUSH1 0x7 DUP1 SLOAD SWAP1 POP SWAP1 POP SWAP1 JUMP JUMPDEST PUSH1 0x0 PUSH1 0x12 SWAP1 POP SWAP1 JUMP JUMPDEST JUMP JUMPDEST PUSH1 0x0 DUP1 PUSH2 0x994 PUSH2 0x1115 JUMP JUMPDEST SWAP1 POP PUSH2 0x9B5 DUP2 DUP6 DUP6 PUSH2 0x9A6 DUP6 DUP10 PUSH2 0xFB6 JUMP JUMPDEST PUSH2 0x9B0 SWAP2 SWAP1 PUSH2 0x20D6 JUMP JUMPDEST PUSH2 0x111D JUMP JUMPDEST PUSH1 0x1 SWAP2 POP POP SWAP3 SWAP2 POP POP JUMP JUMPDEST PUSH2 0x9EC PUSH1 0x5 PUSH1 0x0 SWAP1 SLOAD SWAP1 PUSH2 0x100 EXP SWAP1 DIV PUSH20 0xFFFFFFFFFFFFFFFFFFFFFFFFFFFFFFFFFFFFFFFF AND DUP3 PUSH2 0xEF0 JUMP JUMPDEST POP POP JUMP JUMPDEST PUSH1 0x0 PUSH1 0x8 DUP1 SLOAD SWAP1 POP SWAP1 POP SWAP1 JUMP JUMPDEST JUMP JUMPDEST PUSH1 0x0 DUP1 PUSH1 0x0 DUP4 PUSH20 0xFFFFFFFFFFFFFFFFFFFFFFFFFFFFFFFFFFFFFFFF AND PUSH20 0xFFFFFFFFFFFFFFFFFFFFFFFFFFFFFFFFFFFFFFFF AND DUP2 MSTORE PUSH1 0x20 ADD SWAP1 DUP2 MSTORE PUSH1 0x20 ADD PUSH1 0x0 KECCAK256 SLOAD SWAP1 POP SWAP2 SWAP1 POP JUMP JUMPDEST JUMP JUMPDEST JUMP JUMPDEST PUSH1 0x5 PUSH1 0x0 SWAP1 SLOAD SWAP1 PUSH2 0x100 EXP SWAP1 DIV PUSH20 0xFFFFFFFFFFFFFFFFFFFFFFFFFFFFFFFFFFFFFFFF AND PUSH20 0xFFFFFFFFFFFFFFFFFFFFFFFFFFFFFFFFFFFFFFFF AND PUSH2 0x8FC PUSH1 0x7B SWAP1 DUP2 ISZERO MUL SWAP1 PUSH1 0x40 MLOAD PUSH1 0x0 PUSH1 0x40 MLOAD DUP1 DUP4 SUB DUP2 DUP6 DUP9 DUP9 CALL SWAP4 POP POP POP POP ISZERO DUP1 ISZERO PUSH2 0xAB4 JUMPI RETURNDATASIZE PUSH1 0x0 DUP1 RETURNDATACOPY RETURNDATASIZE PUSH1 0x0 REVERT JUMPDEST POP JUMP JUMPDEST PUSH1 0x8 DUP2 DUP2 SLOAD DUP2 LT PUSH2 0xAC7 JUMPI PUSH1 0x0 DUP1 REVERT JUMPDEST SWAP1 PUSH1 0x0 MSTORE PUSH1 0x20 PUSH1 0x0 KECCAK256 SWAP1 PUSH1 0x3 MUL ADD PUSH1 0x0 SWAP2 POP SWAP1 POP DUP1 PUSH1 0x0 ADD SLOAD SWAP1 POP DUP2 JUMP JUMPDEST PUSH1 0x0 SWAP2 SWAP1 POP JUMP JUMPDEST JUMP JUMPDEST PUSH1 0x60 PUSH1 0x4 DUP1 SLOAD PUSH2 0xAFD SWAP1 PUSH2 0x21CD JUMP JUMPDEST DUP1 PUSH1 0x1F ADD PUSH1 0x20 DUP1 SWAP2 DIV MUL PUSH1 0x20 ADD PUSH1 0x40 MLOAD SWAP1 DUP2 ADD PUSH1 0x40 MSTORE DUP1 SWAP3 SWAP2 SWAP1 DUP2 DUP2 MSTORE PUSH1 0x20 ADD DUP3 DUP1 SLOAD PUSH2 0xB29 SWAP1 PUSH2 0x21CD JUMP JUMPDEST DUP1 ISZERO PUSH2 0xB76 JUMPI DUP1 PUSH1 0x1F LT PUSH2 0xB4B JUMPI PUSH2 0x100 DUP1 DUP4 SLOAD DIV MUL DUP4 MSTORE SWAP2 PUSH1 0x20 ADD SWAP2 PUSH2 0xB76 JUMP JUMPDEST DUP3 ADD SWAP2 SWAP1 PUSH1 0x0 MSTORE PUSH1 0x20 PUSH1 0x0 KECCAK256 SWAP1 JUMPDEST DUP2 SLOAD DUP2 MSTORE SWAP1 PUSH1 0x1 ADD SWAP1 PUSH1 0x20 ADD DUP1 DUP4 GT PUSH2 0xB59 JUMPI DUP3 SWAP1 SUB PUSH1 0x1F AND DUP3 ADD SWAP2 JUMPDEST POP POP POP POP POP SWAP1 POP SWAP1 JUMP JUMPDEST JUMP JUMPDEST PUSH1 0x0 PUSH1 0x6 PUSH1 0x0 CALLER PUSH20 0xFFFFFFFFFFFFFFFFFFFFFFFFFFFFFFFFFFFFFFFF AND PUSH20 0xFFFFFFFFFFFFFFFFFFFFFFFFFFFFFFFFFFFFFFFF AND DUP2 MSTORE PUSH1 0x20 ADD SWAP1 DUP2 MSTORE PUSH1 0x20 ADD PUSH1 0x0 KECCAK256 SWAP1 POP DUP1 PUSH1 0x1 ADD PUSH1 0x0 SWAP1 SLOAD SWAP1 PUSH2 0x100 EXP SWAP1 DIV PUSH1 0xFF AND ISZERO PUSH2 0xC17 JUMPI PUSH1 0x40 MLOAD PUSH32 0x8C379A000000000000000000000000000000000000000000000000000000000 DUP2 MSTORE PUSH1 0x4 ADD PUSH2 0xC0E SWAP1 PUSH2 0x1F36 JUMP JUMPDEST PUSH1 0x40 MLOAD DUP1 SWAP2 SUB SWAP1 REVERT JUMPDEST CALLER PUSH20 0xFFFFFFFFFFFFFFFFFFFFFFFFFFFFFFFFFFFFFFFF AND DUP4 PUSH20 0xFFFFFFFFFFFFFFFFFFFFFFFFFFFFFFFFFFFFFFFF AND EQ ISZERO PUSH2 0xC86 JUMPI PUSH1 0x40 MLOAD PUSH32 0x8C379A000000000000000000000000000000000000000000000000000000000 DUP2 MSTORE PUSH1 0x4 ADD PUSH2 0xC7D SWAP1 PUSH2 0x1E96 JUMP JUMPDEST PUSH1 0x40 MLOAD DUP1 SWAP2 SUB SWAP1 REVERT JUMPDEST PUSH1 0x1 DUP2 PUSH1 0x1 ADD PUSH1 0x0 PUSH2 0x100 EXP DUP2 SLOAD DUP2 PUSH1 0xFF MUL NOT AND SWAP1 DUP4 ISZERO ISZERO MUL OR SWAP1 SSTORE POP DUP3 DUP2 PUSH1 0x1 ADD PUSH1 0x1 PUSH2 0x100 EXP DUP2 SLOAD DUP2 PUSH20 0xFFFFFFFFFFFFFFFFFFFFFFFFFFFFFFFFFFFFFFFF MUL NOT AND SWAP1 DUP4 PUSH20 0xFFFFFFFFFFFFFFFFFFFFFFFFFFFFFFFFFFFFFFFF AND MUL OR SWAP1 SSTORE POP PUSH1 0x0 PUSH1 0x6 PUSH1 0x0 DUP6 PUSH20 0xFFFFFFFFFFFFFFFFFFFFFFFFFFFFFFFFFFFFFFFF AND PUSH20 0xFFFFFFFFFFFFFFFFFFFFFFFFFFFFFFFFFFFFFFFF AND DUP2 MSTORE PUSH1 0x20 ADD SWAP1 DUP2 MSTORE PUSH1 0x20 ADD PUSH1 0x0 KECCAK256 SWAP1 POP DUP2 PUSH1 0x0 ADD SLOAD DUP2 PUSH1 0x0 ADD PUSH1 0x0 DUP3 DUP3 SLOAD PUSH2 0xD41 SWAP2 SWAP1 PUSH2 0x20D6 JUMP JUMPDEST SWAP3 POP POP DUP2 SWAP1 SSTORE POP POP POP POP POP JUMP JUMPDEST PUSH1 0x6 PUSH1 0x20 MSTORE DUP1 PUSH1 0x0 MSTORE PUSH1 0x40 PUSH1 0x0 KECCAK256 PUSH1 0x0 SWAP2 POP SWAP1 POP DUP1 PUSH1 0x0 ADD SLOAD SWAP1 DUP1 PUSH1 0x1 ADD PUSH1 0x0 SWAP1 SLOAD SWAP1 PUSH2 0x100 EXP SWAP1 DIV PUSH1 0xFF AND SWAP1 DUP1 PUSH1 0x1 ADD PUSH1 0x1 SWAP1 SLOAD SWAP1 PUSH2 0x100 EXP SWAP1 DIV PUSH20 0xFFFFFFFFFFFFFFFFFFFFFFFFFFFFFFFFFFFFFFFF AND SWAP1 DUP1 PUSH1 0x2 ADD SLOAD SWAP1 POP DUP5 JUMP JUMPDEST PUSH1 0x0 DUP1 PUSH2 0xDB6 PUSH2 0x1115 JUMP JUMPDEST SWAP1 POP PUSH1 0x0 PUSH2 0xDC4 DUP3 DUP7 PUSH2 0xFB6 JUMP JUMPDEST SWAP1 POP DUP4 DUP2 LT ISZERO PUSH2 0xE09 JUMPI PUSH1 0x40 MLOAD PUSH32 0x8C379A000000000000000000000000000000000000000000000000000000000 DUP2 MSTORE PUSH1 0x4 ADD PUSH2 0xE00 SWAP1 PUSH2 0x1F76 JUMP JUMPDEST PUSH1 0x40 MLOAD DUP1 SWAP2 SUB SWAP1 REVERT JUMPDEST PUSH2 0xE16 DUP3 DUP7 DUP7 DUP5 SUB PUSH2 0x111D JUMP JUMPDEST PUSH1 0x1 SWAP3 POP POP POP SWAP3 SWAP2 POP POP JUMP JUMPDEST PUSH1 0x0 DUP5 SWAP1 POP PUSH1 0x0 PUSH1 0x40 MLOAD DUP1 PUSH1 0x80 ADD PUSH1 0x40 MSTORE DUP1 DUP4 DUP2 MSTORE PUSH1 0x20 ADD PUSH1 0x0 DUP2 MSTORE PUSH1 0x20 ADD PUSH1 0x0 ISZERO ISZERO DUP2 MSTORE PUSH1 0x20 ADD PUSH1 0x0 ISZERO ISZERO DUP2 MSTORE POP SWAP1 POP PUSH1 0x7 DUP2 SWAP1 DUP1 PUSH1 0x1 DUP2 SLOAD ADD DUP1 DUP3 SSTORE DUP1 SWAP2 POP POP PUSH1 0x1 SWAP1 SUB SWAP1 PUSH1 0x0 MSTORE PUSH1 0x20 PUSH1 0x0 KECCAK256 SWAP1 PUSH1 0x3 MUL ADD PUSH1 0x0 SWAP1 SWAP2 SWAP1 SWAP2 SWAP1 SWAP2 POP PUSH1 0x0 DUP3 ADD MLOAD DUP2 PUSH1 0x0 ADD SWAP1 DUP1 MLOAD SWAP1 PUSH1 0x20 ADD SWAP1 PUSH2 0xE9B SWAP3 SWAP2 SWAP1 PUSH2 0x15F6 JUMP JUMPDEST POP PUSH1 0x20 DUP3 ADD MLOAD DUP2 PUSH1 0x1 ADD SSTORE PUSH1 0x40 DUP3 ADD MLOAD DUP2 PUSH1 0x2 ADD PUSH1 0x0 PUSH2 0x100 EXP DUP2 SLOAD DUP2 PUSH1 0xFF MUL NOT AND SWAP1 DUP4 ISZERO ISZERO MUL OR SWAP1 SSTORE POP PUSH1 0x60 DUP3 ADD MLOAD DUP2 PUSH1 0x2 ADD PUSH1 0x1 PUSH2 0x100 EXP DUP2 SLOAD DUP2 PUSH1 0xFF MUL NOT AND SWAP1 DUP4 ISZERO ISZERO MUL OR SWAP1 SSTORE POP POP POP POP POP POP POP POP POP JUMP JUMPDEST PUSH1 0x0 DUP1 PUSH2 0xEFB PUSH2 0x1115 JUMP JUMPDEST SWAP1 POP PUSH2 0xF08 DUP2 DUP6 DUP6 PUSH2 0x1374 JUMP JUMPDEST PUSH1 0x1 SWAP2 POP POP SWAP3 SWAP2 POP POP JUMP JUMPDEST JUMP JUMPDEST JUMP JUMPDEST PUSH1 0x0 DUP1 PUSH1 0x0 SWAP1 POP PUSH1 0x0 JUMPDEST PUSH1 0x7 DUP1 SLOAD SWAP1 POP DUP2 LT ISZERO PUSH2 0xFAE JUMPI PUSH1 0x7 DUP2 DUP2 SLOAD DUP2 LT PUSH2 0xF68 JUMPI PUSH32 0x4E487B7100000000000000000000000000000000000000000000000000000000 PUSH1 0x0 MSTORE PUSH1 0x32 PUSH1 0x4 MSTORE PUSH1 0x24 PUSH1 0x0 REVERT JUMPDEST SWAP1 PUSH1 0x0 MSTORE PUSH1 0x20 PUSH1 0x0 KECCAK256 SWAP1 PUSH1 0x3 MUL ADD PUSH1 0x2 ADD PUSH1 0x1 SWAP1 SLOAD SWAP1 PUSH2 0x100 EXP SWAP1 DIV PUSH1 0xFF AND ISZERO PUSH2 0xF9B JUMPI DUP2 DUP1 PUSH2 0xF97 SWAP1 PUSH2 0x21FF JUMP JUMPDEST SWAP3 POP POP JUMPDEST DUP1 DUP1 PUSH2 0xFA6 SWAP1 PUSH2 0x21FF JUMP JUMPDEST SWAP2 POP POP PUSH2 0xF21 JUMP JUMPDEST POP DUP1 SWAP2 POP POP SWAP1 JUMP JUMPDEST PUSH1 0x0 PUSH1 0x1 PUSH1 0x0 DUP5 PUSH20 0xFFFFFFFFFFFFFFFFFFFFFFFFFFFFFFFFFFFFFFFF AND PUSH20 0xFFFFFFFFFFFFFFFFFFFFFFFFFFFFFFFFFFFFFFFF AND DUP2 MSTORE PUSH1 0x20 ADD SWAP1 DUP2 MSTORE PUSH1 0x20 ADD PUSH1 0x0 KECCAK256 PUSH1 0x0 DUP4 PUSH20 0xFFFFFFFFFFFFFFFFFFFFFFFFFFFFFFFFFFFFFFFF AND PUSH20 0xFFFFFFFFFFFFFFFFFFFFFFFFFFFFFFFFFFFFFFFF AND DUP2 MSTORE PUSH1 0x20 ADD SWAP1 DUP2 MSTORE PUSH1 0x20 ADD PUSH1 0x0 KECCAK256 SLOAD SWAP1 POP SWAP3 SWAP2 POP POP JUMP JUMPDEST JUMP JUMPDEST JUMP JUMPDEST PUSH1 0x0 PUSH1 0x6 PUSH1 0x0 CALLER PUSH20 0xFFFFFFFFFFFFFFFFFFFFFFFFFFFFFFFFFFFFFFFF AND PUSH20 0xFFFFFFFFFFFFFFFFFFFFFFFFFFFFFFFFFFFFFFFF AND DUP2 MSTORE PUSH1 0x20 ADD SWAP1 DUP2 MSTORE PUSH1 0x20 ADD PUSH1 0x0 KECCAK256 SWAP1 POP PUSH1 0x1 DUP2 PUSH1 0x1 ADD PUSH1 0x0 PUSH2 0x100 EXP DUP2 SLOAD DUP2 PUSH1 0xFF MUL NOT AND SWAP1 DUP4 ISZERO ISZERO MUL OR SWAP1 SSTORE POP DUP3 DUP2 PUSH1 0x2 ADD DUP2 SWAP1 SSTORE POP DUP1 PUSH1 0x0 ADD SLOAD PUSH1 0x7 DUP5 DUP2 SLOAD DUP2 LT PUSH2 0x10E9 JUMPI PUSH32 0x4E487B7100000000000000000000000000000000000000000000000000000000 PUSH1 0x0 MSTORE PUSH1 0x32 PUSH1 0x4 MSTORE PUSH1 0x24 PUSH1 0x0 REVERT JUMPDEST SWAP1 PUSH1 0x0 MSTORE PUSH1 0x20 PUSH1 0x0 KECCAK256 SWAP1 PUSH1 0x3 MUL ADD PUSH1 0x1 ADD PUSH1 0x0 DUP3 DUP3 SLOAD PUSH2 0x1109 SWAP2 SWAP1 PUSH2 0x20D6 JUMP JUMPDEST SWAP3 POP POP DUP2 SWAP1 SSTORE POP POP POP POP JUMP JUMPDEST PUSH1 0x0 CALLER SWAP1 POP SWAP1 JUMP JUMPDEST PUSH1 0x0 PUSH20 0xFFFFFFFFFFFFFFFFFFFFFFFFFFFFFFFFFFFFFFFF AND DUP4 PUSH20 0xFFFFFFFFFFFFFFFFFFFFFFFFFFFFFFFFFFFFFFFF AND EQ ISZERO PUSH2 0x118D JUMPI PUSH1 0x40 MLOAD PUSH32 0x8C379A000000000000000000000000000000000000000000000000000000000 DUP2 MSTORE PUSH1 0x4 ADD PUSH2 0x1184 SWAP1 PUSH2 0x1F56 JUMP JUMPDEST PUSH1 0x40 MLOAD DUP1 SWAP2 SUB SWAP1 REVERT JUMPDEST PUSH1 0x0 PUSH20 0xFFFFFFFFFFFFFFFFFFFFFFFFFFFFFFFFFFFFFFFF AND DUP3 PUSH20 0xFFFFFFFFFFFFFFFFFFFFFFFFFFFFFFFFFFFFFFFF AND EQ ISZERO PUSH2 0x11FD JUMPI PUSH1 0x40 MLOAD PUSH32 0x8C379A000000000000000000000000000000000000000000000000000000000 DUP2 MSTORE PUSH1 0x4 ADD PUSH2 0x11F4 SWAP1 PUSH2 0x1EB6 JUMP JUMPDEST PUSH1 0x40 MLOAD DUP1 SWAP2 SUB SWAP1 REVERT JUMPDEST DUP1 PUSH1 0x1 PUSH1 0x0 DUP6 PUSH20 0xFFFFFFFFFFFFFFFFFFFFFFFFFFFFFFFFFFFFFFFF AND PUSH20 0xFFFFFFFFFFFFFFFFFFFFFFFFFFFFFFFFFFFFFFFF AND DUP2 MSTORE PUSH1 0x20 ADD SWAP1 DUP2 MSTORE PUSH1 0x20 ADD PUSH1 0x0 KECCAK256 PUSH1 0x0 DUP5 PUSH20 0xFFFFFFFFFFFFFFFFFFFFFFFFFFFFFFFFFFFFFFFF AND PUSH20 0xFFFFFFFFFFFFFFFFFFFFFFFFFFFFFFFFFFFFFFFF AND DUP2 MSTORE PUSH1 0x20 ADD SWAP1 DUP2 MSTORE PUSH1 0x20 ADD PUSH1 0x0 KECCAK256 DUP2 SWAP1 SSTORE POP DUP2 PUSH20 0xFFFFFFFFFFFFFFFFFFFFFFFFFFFFFFFFFFFFFFFF AND DUP4 PUSH20 0xFFFFFFFFFFFFFFFFFFFFFFFFFFFFFFFFFFFFFFFF AND PUSH32 0x8C5BE1E5EBEC7D5BD14F71427D1E84F3DD0314C0F7B2291E5B200AC8C7C3B925 DUP4 PUSH1 0x40 MLOAD PUSH2 0x12DB SWAP2 SWAP1 PUSH2 0x1F96 JUMP JUMPDEST PUSH1 0x40 MLOAD DUP1 SWAP2 SUB SWAP1 LOG3 POP POP POP JUMP JUMPDEST PUSH1 0x0 PUSH2 0x12F4 DUP5 DUP5 PUSH2 0xFB6 JUMP JUMPDEST SWAP1 POP PUSH32 0xFFFFFFFFFFFFFFFFFFFFFFFFFFFFFFFFFFFFFFFFFFFFFFFFFFFFFFFFFFFFFFFF DUP2 EQ PUSH2 0x136E JUMPI DUP2 DUP2 LT ISZERO PUSH2 0x1360 JUMPI PUSH1 0x40 MLOAD PUSH32 0x8C379A000000000000000000000000000000000000000000000000000000000 DUP2 MSTORE PUSH1 0x4 ADD PUSH2 0x1357 SWAP1 PUSH2 0x1ED6 JUMP JUMPDEST PUSH1 0x40 MLOAD DUP1 SWAP2 SUB SWAP1 REVERT JUMPDEST PUSH2 0x136D DUP5 DUP5 DUP5 DUP5 SUB PUSH2 0x111D JUMP JUMPDEST JUMPDEST POP POP POP POP JUMP JUMPDEST PUSH1 0x0 PUSH20 0xFFFFFFFFFFFFFFFFFFFFFFFFFFFFFFFFFFFFFFFF AND DUP4 PUSH20 0xFFFFFFFFFFFFFFFFFFFFFFFFFFFFFFFFFFFFFFFF AND EQ ISZERO PUSH2 0x13E4 JUMPI PUSH1 0x40 MLOAD PUSH32 0x8C379A000000000000000000000000000000000000000000000000000000000 DUP2 MSTORE PUSH1 0x4 ADD PUSH2 0x13DB SWAP1 PUSH2 0x1F16 JUMP JUMPDEST PUSH1 0x40 MLOAD DUP1 SWAP2 SUB SWAP1 REVERT JUMPDEST PUSH1 0x0 PUSH20 0xFFFFFFFFFFFFFFFFFFFFFFFFFFFFFFFFFFFFFFFF AND DUP3 PUSH20 0xFFFFFFFFFFFFFFFFFFFFFFFFFFFFFFFFFFFFFFFF AND EQ ISZERO PUSH2 0x1454 JUMPI PUSH1 0x40 MLOAD PUSH32 0x8C379A000000000000000000000000000000000000000000000000000000000 DUP2 MSTORE PUSH1 0x4 ADD PUSH2 0x144B SWAP1 PUSH2 0x1E76 JUMP JUMPDEST PUSH1 0x40 MLOAD DUP1 SWAP2 SUB SWAP1 REVERT JUMPDEST PUSH2 0x145F DUP4 DUP4 DUP4 PUSH2 0x15EC JUMP JUMPDEST PUSH1 0x0 DUP1 PUSH1 0x0 DUP6 PUSH20 0xFFFFFFFFFFFFFFFFFFFFFFFFFFFFFFFFFFFFFFFF AND PUSH20 0xFFFFFFFFFFFFFFFFFFFFFFFFFFFFFFFFFFFFFFFF AND DUP2 MSTORE PUSH1 0x20 ADD SWAP1 DUP2 MSTORE PUSH1 0x20 ADD PUSH1 0x0 KECCAK256 SLOAD SWAP1 POP DUP2 DUP2 LT ISZERO PUSH2 0x14E5 JUMPI PUSH1 0x40 MLOAD PUSH32 0x8C379A000000000000000000000000000000000000000000000000000000000 DUP2 MSTORE PUSH1 0x4 ADD PUSH2 0x14DC SWAP1 PUSH2 0x1EF6 JUMP JUMPDEST PUSH1 0x40 MLOAD DUP1 SWAP2 SUB SWAP1 REVERT JUMPDEST DUP2 DUP2 SUB PUSH1 0x0 DUP1 DUP7 PUSH20 0xFFFFFFFFFFFFFFFFFFFFFFFFFFFFFFFFFFFFFFFF AND PUSH20 0xFFFFFFFFFFFFFFFFFFFFFFFFFFFFFFFFFFFFFFFF AND DUP2 MSTORE PUSH1 0x20 ADD SWAP1 DUP2 MSTORE PUSH1 0x20 ADD PUSH1 0x0 KECCAK256 DUP2 SWAP1 SSTORE POP DUP2 PUSH1 0x0 DUP1 DUP6 PUSH20 0xFFFFFFFFFFFFFFFFFFFFFFFFFFFFFFFFFFFFFFFF AND PUSH20 0xFFFFFFFFFFFFFFFFFFFFFFFFFFFFFFFFFFFFFFFF AND DUP2 MSTORE PUSH1 0x20 ADD SWAP1 DUP2 MSTORE PUSH1 0x20 ADD PUSH1 0x0 KECCAK256 PUSH1 0x0 DUP3 DUP3 SLOAD ADD SWAP3 POP POP DUP2 SWAP1 SSTORE POP DUP3 PUSH20 0xFFFFFFFFFFFFFFFFFFFFFFFFFFFFFFFFFFFFFFFF AND DUP5 PUSH20 0xFFFFFFFFFFFFFFFFFFFFFFFFFFFFFFFFFFFFFFFF AND PUSH32 0xDDF252AD1BE2C89B69C2B068FC378DAA952BA7F163C4A11628F55A4DF523B3EF DUP5 PUSH1 0x40 MLOAD PUSH2 0x15D3 SWAP2 SWAP1 PUSH2 0x1F96 JUMP JUMPDEST PUSH1 0x40 MLOAD DUP1 SWAP2 SUB SWAP1 LOG3 PUSH2 0x15E6 DUP5 DUP5 DUP5 PUSH2 0x15F1 JUMP JUMPDEST POP POP POP POP JUMP JUMPDEST POP POP POP JUMP JUMPDEST POP POP POP JUMP JUMPDEST DUP3 DUP1 SLOAD PUSH2 0x1602 SWAP1 PUSH2 0x21CD JUMP JUMPDEST SWAP1 PUSH1 0x0 MSTORE PUSH1 0x20 PUSH1 0x0 KECCAK256 SWAP1 PUSH1 0x1F ADD PUSH1 0x20 SWAP1 DIV DUP2 ADD SWAP3 DUP3 PUSH2 0x1624 JUMPI PUSH1 0x0 DUP6 SSTORE PUSH2 0x166B JUMP JUMPDEST DUP3 PUSH1 0x1F LT PUSH2 0x163D JUMPI DUP1 MLOAD PUSH1 0xFF NOT AND DUP4 DUP1 ADD OR DUP6 SSTORE PUSH2 0x166B JUMP JUMPDEST DUP3 DUP1 ADD PUSH1 0x1 ADD DUP6 SSTORE DUP3 ISZERO PUSH2 0x166B JUMPI SWAP2 DUP3 ADD JUMPDEST DUP3 DUP2 GT ISZERO PUSH2 0x166A JUMPI DUP3 MLOAD DUP3 SSTORE SWAP2 PUSH1 0x20 ADD SWAP2 SWAP1 PUSH1 0x1 ADD SWAP1 PUSH2 0x164F JUMP JUMPDEST JUMPDEST POP SWAP1 POP PUSH2 0x1678 SWAP2 SWAP1 PUSH2 0x167C JUMP JUMPDEST POP SWAP1 JUMP JUMPDEST JUMPDEST DUP1 DUP3 GT ISZERO PUSH2 0x1695 JUMPI PUSH1 0x0 DUP2 PUSH1 0x0 SWAP1 SSTORE POP PUSH1 0x1 ADD PUSH2 0x167D JUMP JUMPDEST POP SWAP1 JUMP JUMPDEST PUSH1 0x0 PUSH2 0x16AC PUSH2 0x16A7 DUP5 PUSH2 0x2042 JUMP JUMPDEST PUSH2 0x2011 JUMP JUMPDEST SWAP1 POP DUP1 DUP4 DUP3 MSTORE PUSH1 0x20 DUP3 ADD SWAP1 POP DUP3 DUP6 PUSH1 0x20 DUP7 MUL DUP3 ADD GT ISZERO PUSH2 0x16CB JUMPI PUSH1 0x0 DUP1 REVERT JUMPDEST PUSH1 0x0 JUMPDEST DUP6 DUP2 LT ISZERO PUSH2 0x16FB JUMPI DUP2 PUSH2 0x16E1 DUP9 DUP3 PUSH2 0x17C1 JUMP JUMPDEST DUP5 MSTORE PUSH1 0x20 DUP5 ADD SWAP4 POP PUSH1 0x20 DUP4 ADD SWAP3 POP POP PUSH1 0x1 DUP2 ADD SWAP1 POP PUSH2 0x16CE JUMP JUMPDEST POP POP POP SWAP4 SWAP3 POP POP POP JUMP JUMPDEST PUSH1 0x0 PUSH2 0x1718 PUSH2 0x1713 DUP5 PUSH2 0x206E JUMP JUMPDEST PUSH2 0x2011 JUMP JUMPDEST SWAP1 POP DUP3 DUP2 MSTORE PUSH1 0x20 DUP2 ADD DUP5 DUP5 DUP5 ADD GT ISZERO PUSH2 0x1730 JUMPI PUSH1 0x0 DUP1 REVERT JUMPDEST PUSH2 0x173B DUP5 DUP3 DUP6 PUSH2 0x218B JUMP JUMPDEST POP SWAP4 SWAP3 POP POP POP JUMP JUMPDEST PUSH1 0x0 DUP2 CALLDATALOAD SWAP1 POP PUSH2 0x1752 DUP2 PUSH2 0x22E6 JUMP JUMPDEST SWAP3 SWAP2 POP POP JUMP JUMPDEST PUSH1 0x0 DUP3 PUSH1 0x1F DUP4 ADD SLT PUSH2 0x1769 JUMPI PUSH1 0x0 DUP1 REVERT JUMPDEST DUP2 CALLDATALOAD PUSH2 0x1779 DUP5 DUP3 PUSH1 0x20 DUP7 ADD PUSH2 0x1699 JUMP JUMPDEST SWAP2 POP POP SWAP3 SWAP2 POP POP JUMP JUMPDEST PUSH1 0x0 DUP2 CALLDATALOAD SWAP1 POP PUSH2 0x1791 DUP2 PUSH2 0x22FD JUMP JUMPDEST SWAP3 SWAP2 POP POP JUMP JUMPDEST PUSH1 0x0 DUP3 PUSH1 0x1F DUP4 ADD SLT PUSH2 0x17A8 JUMPI PUSH1 0x0 DUP1 REVERT JUMPDEST DUP2 CALLDATALOAD PUSH2 0x17B8 DUP5 DUP3 PUSH1 0x20 DUP7 ADD PUSH2 0x1705 JUMP JUMPDEST SWAP2 POP POP SWAP3 SWAP2 POP POP JUMP JUMPDEST PUSH1 0x0 DUP2 CALLDATALOAD SWAP1 POP PUSH2 0x17D0 DUP2 PUSH2 0x2314 JUMP JUMPDEST SWAP3 SWAP2 POP POP JUMP JUMPDEST PUSH1 0x0 PUSH1 0x20 DUP3 DUP5 SUB SLT ISZERO PUSH2 0x17E8 JUMPI PUSH1 0x0 DUP1 REVERT JUMPDEST PUSH1 0x0 PUSH2 0x17F6 DUP5 DUP3 DUP6 ADD PUSH2 0x1743 JUMP JUMPDEST SWAP2 POP POP SWAP3 SWAP2 POP POP JUMP JUMPDEST PUSH1 0x0 DUP1 PUSH1 0x40 DUP4 DUP6 SUB SLT ISZERO PUSH2 0x1812 JUMPI PUSH1 0x0 DUP1 REVERT JUMPDEST PUSH1 0x0 PUSH2 0x1820 DUP6 DUP3 DUP7 ADD PUSH2 0x1743 JUMP JUMPDEST SWAP3 POP POP PUSH1 0x20 PUSH2 0x1831 DUP6 DUP3 DUP7 ADD PUSH2 0x1743 JUMP JUMPDEST SWAP2 POP POP SWAP3 POP SWAP3 SWAP1 POP JUMP JUMPDEST PUSH1 0x0 DUP1 PUSH1 0x0 PUSH1 0x60 DUP5 DUP7 SUB SLT ISZERO PUSH2 0x1850 JUMPI PUSH1 0x0 DUP1 REVERT JUMPDEST PUSH1 0x0 PUSH2 0x185E DUP7 DUP3 DUP8 ADD PUSH2 0x1743 JUMP JUMPDEST SWAP4 POP POP PUSH1 0x20 PUSH2 0x186F DUP7 DUP3 DUP8 ADD PUSH2 0x1743 JUMP JUMPDEST SWAP3 POP POP PUSH1 0x40 PUSH2 0x1880 DUP7 DUP3 DUP8 ADD PUSH2 0x17C1 JUMP JUMPDEST SWAP2 POP POP SWAP3 POP SWAP3 POP SWAP3 JUMP JUMPDEST PUSH1 0x0 DUP1 PUSH1 0x40 DUP4 DUP6 SUB SLT ISZERO PUSH2 0x189D JUMPI PUSH1 0x0 DUP1 REVERT JUMPDEST PUSH1 0x0 PUSH2 0x18AB DUP6 DUP3 DUP7 ADD PUSH2 0x1743 JUMP JUMPDEST SWAP3 POP POP PUSH1 0x20 PUSH2 0x18BC DUP6 DUP3 DUP7 ADD PUSH2 0x17C1 JUMP JUMPDEST SWAP2 POP POP SWAP3 POP SWAP3 SWAP1 POP JUMP JUMPDEST PUSH1 0x0 DUP1 PUSH1 0x0 DUP1 PUSH1 0x80 DUP6 DUP8 SUB SLT ISZERO PUSH2 0x18DC JUMPI PUSH1 0x0 DUP1 REVERT JUMPDEST PUSH1 0x0 DUP6 ADD CALLDATALOAD PUSH8 0xFFFFFFFFFFFFFFFF DUP2 GT ISZERO PUSH2 0x18F6 JUMPI PUSH1 0x0 DUP1 REVERT JUMPDEST PUSH2 0x1902 DUP8 DUP3 DUP9 ADD PUSH2 0x1797 JUMP JUMPDEST SWAP5 POP POP PUSH1 0x20 PUSH2 0x1913 DUP8 DUP3 DUP9 ADD PUSH2 0x17C1 JUMP JUMPDEST SWAP4 POP POP PUSH1 0x40 DUP6 ADD CALLDATALOAD PUSH8 0xFFFFFFFFFFFFFFFF DUP2 GT ISZERO PUSH2 0x1930 JUMPI PUSH1 0x0 DUP1 REVERT JUMPDEST PUSH2 0x193C DUP8 DUP3 DUP9 ADD PUSH2 0x1758 JUMP JUMPDEST SWAP3 POP POP PUSH1 0x60 DUP6 ADD CALLDATALOAD PUSH8 0xFFFFFFFFFFFFFFFF DUP2 GT ISZERO PUSH2 0x1959 JUMPI PUSH1 0x0 DUP1 REVERT JUMPDEST PUSH2 0x1965 DUP8 DUP3 DUP9 ADD PUSH2 0x1758 JUMP JUMPDEST SWAP2 POP POP SWAP3 SWAP6 SWAP2 SWAP5 POP SWAP3 POP JUMP JUMPDEST PUSH1 0x0 PUSH1 0x20 DUP3 DUP5 SUB SLT ISZERO PUSH2 0x1983 JUMPI PUSH1 0x0 DUP1 REVERT JUMPDEST PUSH1 0x0 PUSH2 0x1991 DUP5 DUP3 DUP6 ADD PUSH2 0x17C1 JUMP JUMPDEST SWAP2 POP POP SWAP3 SWAP2 POP POP JUMP JUMPDEST PUSH1 0x0 DUP1 PUSH1 0x40 DUP4 DUP6 SUB SLT ISZERO PUSH2 0x19AD JUMPI PUSH1 0x0 DUP1 REVERT JUMPDEST PUSH1 0x0 PUSH2 0x19BB DUP6 DUP3 DUP7 ADD PUSH2 0x17C1 JUMP JUMPDEST SWAP3 POP POP PUSH1 0x20 PUSH2 0x19CC DUP6 DUP3 DUP7 ADD PUSH2 0x1782 JUMP JUMPDEST SWAP2 POP POP SWAP3 POP SWAP3 SWAP1 POP JUMP JUMPDEST PUSH2 0x19DF DUP2 PUSH2 0x212C JUMP JUMPDEST DUP3 MSTORE POP POP JUMP JUMPDEST PUSH2 0x19EE DUP2 PUSH2 0x213E JUMP JUMPDEST DUP3 MSTORE POP POP JUMP JUMPDEST PUSH2 0x19FD DUP2 PUSH2 0x214A JUMP JUMPDEST DUP3 MSTORE POP POP JUMP JUMPDEST PUSH1 0x0 PUSH2 0x1A0E DUP3 PUSH2 0x209E JUMP JUMPDEST PUSH2 0x1A18 DUP2 DUP6 PUSH2 0x20B4 JUMP JUMPDEST SWAP4 POP PUSH2 0x1A28 DUP2 DUP6 PUSH1 0x20 DUP7 ADD PUSH2 0x219A JUMP JUMPDEST PUSH2 0x1A31 DUP2 PUSH2 0x22D5 JUMP JUMPDEST DUP5 ADD SWAP2 POP POP SWAP3 SWAP2 POP POP JUMP JUMPDEST PUSH1 0x0 PUSH2 0x1A47 DUP3 PUSH2 0x20A9 JUMP JUMPDEST PUSH2 0x1A51 DUP2 DUP6 PUSH2 0x20C5 JUMP JUMPDEST SWAP4 POP PUSH2 0x1A61 DUP2 DUP6 PUSH1 0x20 DUP7 ADD PUSH2 0x219A JUMP JUMPDEST PUSH2 0x1A6A DUP2 PUSH2 0x22D5 JUMP JUMPDEST DUP5 ADD SWAP2 POP POP SWAP3 SWAP2 POP POP JUMP JUMPDEST PUSH1 0x0 PUSH2 0x1A82 PUSH1 0x23 DUP4 PUSH2 0x20C5 JUMP JUMPDEST SWAP2 POP PUSH32 0x45524332303A207472616E7366657220746F20746865207A65726F2061646472 PUSH1 0x0 DUP4 ADD MSTORE PUSH32 0x6573730000000000000000000000000000000000000000000000000000000000 PUSH1 0x20 DUP4 ADD MSTORE PUSH1 0x40 DUP3 ADD SWAP1 POP SWAP2 SWAP1 POP JUMP JUMPDEST PUSH1 0x0 PUSH2 0x1AE8 PUSH1 0x1C DUP4 PUSH2 0x20C5 JUMP JUMPDEST SWAP2 POP PUSH32 0x53656C662064656C65676174696F6E206E6F7420616C6C6F7765642100000000 PUSH1 0x0 DUP4 ADD MSTORE PUSH1 0x20 DUP3 ADD SWAP1 POP SWAP2 SWAP1 POP JUMP JUMPDEST PUSH1 0x0 PUSH2 0x1B28 PUSH1 0x22 DUP4 PUSH2 0x20C5 JUMP JUMPDEST SWAP2 POP PUSH32 0x45524332303A20617070726F766520746F20746865207A65726F206164647265 PUSH1 0x0 DUP4 ADD MSTORE PUSH32 0x7373000000000000000000000000000000000000000000000000000000000000 PUSH1 0x20 DUP4 ADD MSTORE PUSH1 0x40 DUP3 ADD SWAP1 POP SWAP2 SWAP1 POP JUMP JUMPDEST PUSH1 0x0 PUSH2 0x1B8E PUSH1 0x1D DUP4 PUSH2 0x20C5 JUMP JUMPDEST SWAP2 POP PUSH32 0x45524332303A20696E73756666696369656E7420616C6C6F77616E6365000000 PUSH1 0x0 DUP4 ADD MSTORE PUSH1 0x20 DUP3 ADD SWAP1 POP SWAP2 SWAP1 POP JUMP JUMPDEST PUSH1 0x0 PUSH2 0x1BCE PUSH1 0x26 DUP4 PUSH2 0x20C5 JUMP JUMPDEST SWAP2 POP PUSH32 0x45524332303A207472616E7366657220616D6F756E7420657863656564732062 PUSH1 0x0 DUP4 ADD MSTORE PUSH32 0x616C616E63650000000000000000000000000000000000000000000000000000 PUSH1 0x20 DUP4 ADD MSTORE PUSH1 0x40 DUP3 ADD SWAP1 POP SWAP2 SWAP1 POP JUMP JUMPDEST PUSH1 0x0 PUSH2 0x1C34 PUSH1 0x25 DUP4 PUSH2 0x20C5 JUMP JUMPDEST SWAP2 POP PUSH32 0x45524332303A207472616E736665722066726F6D20746865207A65726F206164 PUSH1 0x0 DUP4 ADD MSTORE PUSH32 0x6472657373000000000000000000000000000000000000000000000000000000 PUSH1 0x20 DUP4 ADD MSTORE PUSH1 0x40 DUP3 ADD SWAP1 POP SWAP2 SWAP1 POP JUMP JUMPDEST PUSH1 0x0 PUSH2 0x1C9A PUSH1 0x12 DUP4 PUSH2 0x20C5 JUMP JUMPDEST SWAP2 POP PUSH32 0x596F7520616C726561647920766F746564210000000000000000000000000000 PUSH1 0x0 DUP4 ADD MSTORE PUSH1 0x20 DUP3 ADD SWAP1 POP SWAP2 SWAP1 POP JUMP JUMPDEST PUSH1 0x0 PUSH2 0x1CDA PUSH1 0x24 DUP4 PUSH2 0x20C5 JUMP JUMPDEST SWAP2 POP PUSH32 0x45524332303A20617070726F76652066726F6D20746865207A65726F20616464 PUSH1 0x0 DUP4 ADD MSTORE PUSH32 0x7265737300000000000000000000000000000000000000000000000000000000 PUSH1 0x20 DUP4 ADD MSTORE PUSH1 0x40 DUP3 ADD SWAP1 POP SWAP2 SWAP1 POP JUMP JUMPDEST PUSH1 0x0 PUSH2 0x1D40 PUSH1 0x25 DUP4 PUSH2 0x20C5 JUMP JUMPDEST SWAP2 POP PUSH32 0x45524332303A2064656372656173656420616C6C6F77616E63652062656C6F77 PUSH1 0x0 DUP4 ADD MSTORE PUSH32 0x207A65726F000000000000000000000000000000000000000000000000000000 PUSH1 0x20 DUP4 ADD MSTORE PUSH1 0x40 DUP3 ADD SWAP1 POP SWAP2 SWAP1 POP JUMP JUMPDEST PUSH2 0x1DA2 DUP2 PUSH2 0x2174 JUMP JUMPDEST DUP3 MSTORE POP POP JUMP JUMPDEST PUSH2 0x1DB1 DUP2 PUSH2 0x217E JUMP JUMPDEST DUP3 MSTORE POP POP JUMP JUMPDEST PUSH1 0x0 PUSH1 0x20 DUP3 ADD SWAP1 POP PUSH2 0x1DCC PUSH1 0x0 DUP4 ADD DUP5 PUSH2 0x19D6 JUMP JUMPDEST SWAP3 SWAP2 POP POP JUMP JUMPDEST PUSH1 0x0 PUSH1 0x20 DUP3 ADD SWAP1 POP PUSH2 0x1DE7 PUSH1 0x0 DUP4 ADD DUP5 PUSH2 0x19E5 JUMP JUMPDEST SWAP3 SWAP2 POP POP JUMP JUMPDEST PUSH1 0x0 PUSH1 0x20 DUP3 ADD SWAP1 POP PUSH2 0x1E02 PUSH1 0x0 DUP4 ADD DUP5 PUSH2 0x19F4 JUMP JUMPDEST SWAP3 SWAP2 POP POP JUMP JUMPDEST PUSH1 0x0 PUSH1 0x80 DUP3 ADD SWAP1 POP DUP2 DUP2 SUB PUSH1 0x0 DUP4 ADD MSTORE PUSH2 0x1E22 DUP2 DUP8 PUSH2 0x1A03 JUMP JUMPDEST SWAP1 POP PUSH2 0x1E31 PUSH1 0x20 DUP4 ADD DUP7 PUSH2 0x1D99 JUMP JUMPDEST PUSH2 0x1E3E PUSH1 0x40 DUP4 ADD DUP6 PUSH2 0x19E5 JUMP JUMPDEST PUSH2 0x1E4B PUSH1 0x60 DUP4 ADD DUP5 PUSH2 0x19E5 JUMP JUMPDEST SWAP6 SWAP5 POP POP POP POP POP JUMP JUMPDEST PUSH1 0x0 PUSH1 0x20 DUP3 ADD SWAP1 POP DUP2 DUP2 SUB PUSH1 0x0 DUP4 ADD MSTORE PUSH2 0x1E6E DUP2 DUP5 PUSH2 0x1A3C JUMP JUMPDEST SWAP1 POP SWAP3 SWAP2 POP POP JUMP JUMPDEST PUSH1 0x0 PUSH1 0x20 DUP3 ADD SWAP1 POP DUP2 DUP2 SUB PUSH1 0x0 DUP4 ADD MSTORE PUSH2 0x1E8F DUP2 PUSH2 0x1A75 JUMP JUMPDEST SWAP1 POP SWAP2 SWAP1 POP JUMP JUMPDEST PUSH1 0x0 PUSH1 0x20 DUP3 ADD SWAP1 POP DUP2 DUP2 SUB PUSH1 0x0 DUP4 ADD MSTORE PUSH2 0x1EAF DUP2 PUSH2 0x1ADB JUMP JUMPDEST SWAP1 POP SWAP2 SWAP1 POP JUMP JUMPDEST PUSH1 0x0 PUSH1 0x20 DUP3 ADD SWAP1 POP DUP2 DUP2 SUB PUSH1 0x0 DUP4 ADD MSTORE PUSH2 0x1ECF DUP2 PUSH2 0x1B1B JUMP JUMPDEST SWAP1 POP SWAP2 SWAP1 POP JUMP JUMPDEST PUSH1 0x0 PUSH1 0x20 DUP3 ADD SWAP1 POP DUP2 DUP2 SUB PUSH1 0x0 DUP4 ADD MSTORE PUSH2 0x1EEF DUP2 PUSH2 0x1B81 JUMP JUMPDEST SWAP1 POP SWAP2 SWAP1 POP JUMP JUMPDEST PUSH1 0x0 PUSH1 0x20 DUP3 ADD SWAP1 POP DUP2 DUP2 SUB PUSH1 0x0 DUP4 ADD MSTORE PUSH2 0x1F0F DUP2 PUSH2 0x1BC1 JUMP JUMPDEST SWAP1 POP SWAP2 SWAP1 POP JUMP JUMPDEST PUSH1 0x0 PUSH1 0x20 DUP3 ADD SWAP1 POP DUP2 DUP2 SUB PUSH1 0x0 DUP4 ADD MSTORE PUSH2 0x1F2F DUP2 PUSH2 0x1C27 JUMP JUMPDEST SWAP1 POP SWAP2 SWAP1 POP JUMP JUMPDEST PUSH1 0x0 PUSH1 0x20 DUP3 ADD SWAP1 POP DUP2 DUP2 SUB PUSH1 0x0 DUP4 ADD MSTORE PUSH2 0x1F4F DUP2 PUSH2 0x1C8D JUMP JUMPDEST SWAP1 POP SWAP2 SWAP1 POP JUMP JUMPDEST PUSH1 0x0 PUSH1 0x20 DUP3 ADD SWAP1 POP DUP2 DUP2 SUB PUSH1 0x0 DUP4 ADD MSTORE PUSH2 0x1F6F DUP2 PUSH2 0x1CCD JUMP JUMPDEST SWAP1 POP SWAP2 SWAP1 POP JUMP JUMPDEST PUSH1 0x0 PUSH1 0x20 DUP3 ADD SWAP1 POP DUP2 DUP2 SUB PUSH1 0x0 DUP4 ADD MSTORE PUSH2 0x1F8F DUP2 PUSH2 0x1D33 JUMP JUMPDEST SWAP1 POP SWAP2 SWAP1 POP JUMP JUMPDEST PUSH1 0x0 PUSH1 0x20 DUP3 ADD SWAP1 POP PUSH2 0x1FAB PUSH1 0x0 DUP4 ADD DUP5 PUSH2 0x1D99 JUMP JUMPDEST SWAP3 SWAP2 POP POP JUMP JUMPDEST PUSH1 0x0 PUSH1 0x80 DUP3 ADD SWAP1 POP PUSH2 0x1FC6 PUSH1 0x0 DUP4 ADD DUP8 PUSH2 0x1D99 JUMP JUMPDEST PUSH2 0x1FD3 PUSH1 0x20 DUP4 ADD DUP7 PUSH2 0x19E5 JUMP JUMPDEST PUSH2 0x1FE0 PUSH1 0x40 DUP4 ADD DUP6 PUSH2 0x19D6 JUMP JUMPDEST PUSH2 0x1FED PUSH1 0x60 DUP4 ADD DUP5 PUSH2 0x1D99 JUMP JUMPDEST SWAP6 SWAP5 POP POP POP POP POP JUMP JUMPDEST PUSH1 0x0 PUSH1 0x20 DUP3 ADD SWAP1 POP PUSH2 0x200B PUSH1 0x0 DUP4 ADD DUP5 PUSH2 0x1DA8 JUMP JUMPDEST SWAP3 SWAP2 POP POP JUMP JUMPDEST PUSH1 0x0 PUSH1 0x40 MLOAD SWAP1 POP DUP2 DUP2 ADD DUP2 DUP2 LT PUSH8 0xFFFFFFFFFFFFFFFF DUP3 GT OR ISZERO PUSH2 0x2038 JUMPI PUSH2 0x2037 PUSH2 0x22A6 JUMP JUMPDEST JUMPDEST DUP1 PUSH1 0x40 MSTORE POP SWAP2 SWAP1 POP JUMP JUMPDEST PUSH1 0x0 PUSH8 0xFFFFFFFFFFFFFFFF DUP3 GT ISZERO PUSH2 0x205D JUMPI PUSH2 0x205C PUSH2 0x22A6 JUMP JUMPDEST JUMPDEST PUSH1 0x20 DUP3 MUL SWAP1 POP PUSH1 0x20 DUP2 ADD SWAP1 POP SWAP2 SWAP1 POP JUMP JUMPDEST PUSH1 0x0 PUSH8 0xFFFFFFFFFFFFFFFF DUP3 GT ISZERO PUSH2 0x2089 JUMPI PUSH2 0x2088 PUSH2 0x22A6 JUMP JUMPDEST JUMPDEST PUSH1 0x1F NOT PUSH1 0x1F DUP4 ADD AND SWAP1 POP PUSH1 0x20 DUP2 ADD SWAP1 POP SWAP2 SWAP1 POP JUMP JUMPDEST PUSH1 0x0 DUP2 MLOAD SWAP1 POP SWAP2 SWAP1 POP JUMP JUMPDEST PUSH1 0x0 DUP2 MLOAD SWAP1 POP SWAP2 SWAP1 POP JUMP JUMPDEST PUSH1 0x0 DUP3 DUP3 MSTORE PUSH1 0x20 DUP3 ADD SWAP1 POP SWAP3 SWAP2 POP POP JUMP JUMPDEST PUSH1 0x0 DUP3 DUP3 MSTORE PUSH1 0x20 DUP3 ADD SWAP1 POP SWAP3 SWAP2 POP POP JUMP JUMPDEST PUSH1 0x0 PUSH2 0x20E1 DUP3 PUSH2 0x2174 JUMP JUMPDEST SWAP2 POP PUSH2 0x20EC DUP4 PUSH2 0x2174 JUMP JUMPDEST SWAP3 POP DUP3 PUSH32 0xFFFFFFFFFFFFFFFFFFFFFFFFFFFFFFFFFFFFFFFFFFFFFFFFFFFFFFFFFFFFFFFF SUB DUP3 GT ISZERO PUSH2 0x2121 JUMPI PUSH2 0x2120 PUSH2 0x2248 JUMP JUMPDEST JUMPDEST DUP3 DUP3 ADD SWAP1 POP SWAP3 SWAP2 POP POP JUMP JUMPDEST PUSH1 0x0 PUSH2 0x2137 DUP3 PUSH2 0x2154 JUMP JUMPDEST SWAP1 POP SWAP2 SWAP1 POP JUMP JUMPDEST PUSH1 0x0 DUP2 ISZERO ISZERO SWAP1 POP SWAP2 SWAP1 POP JUMP JUMPDEST PUSH1 0x0 DUP2 SWAP1 POP SWAP2 SWAP1 POP JUMP JUMPDEST PUSH1 0x0 PUSH20 0xFFFFFFFFFFFFFFFFFFFFFFFFFFFFFFFFFFFFFFFF DUP3 AND SWAP1 POP SWAP2 SWAP1 POP JUMP JUMPDEST PUSH1 0x0 DUP2 SWAP1 POP SWAP2 SWAP1 POP JUMP JUMPDEST PUSH1 0x0 PUSH1 0xFF DUP3 AND SWAP1 POP SWAP2 SWAP1 POP JUMP JUMPDEST DUP3 DUP2 DUP4 CALLDATACOPY PUSH1 0x0 DUP4 DUP4 ADD MSTORE POP POP POP JUMP JUMPDEST PUSH1 0x0 JUMPDEST DUP4 DUP2 LT ISZERO PUSH2 0x21B8 JUMPI DUP1 DUP3 ADD MLOAD DUP2 DUP5 ADD MSTORE PUSH1 0x20 DUP2 ADD SWAP1 POP PUSH2 0x219D JUMP JUMPDEST DUP4 DUP2 GT ISZERO PUSH2 0x21C7 JUMPI PUSH1 0x0 DUP5 DUP5 ADD MSTORE JUMPDEST POP POP POP POP JUMP JUMPDEST PUSH1 0x0 PUSH1 0x2 DUP3 DIV SWAP1 POP PUSH1 0x1 DUP3 AND DUP1 PUSH2 0x21E5 JUMPI PUSH1 0x7F DUP3 AND SWAP2 POP JUMPDEST PUSH1 0x20 DUP3 LT DUP2 EQ ISZERO PUSH2 0x21F9 JUMPI PUSH2 0x21F8 PUSH2 0x2277 JUMP JUMPDEST JUMPDEST POP SWAP2 SWAP1 POP JUMP JUMPDEST PUSH1 0x0 PUSH2 0x220A DUP3 PUSH2 0x2174 JUMP JUMPDEST SWAP2 POP PUSH32 0xFFFFFFFFFFFFFFFFFFFFFFFFFFFFFFFFFFFFFFFFFFFFFFFFFFFFFFFFFFFFFFFF DUP3 EQ ISZERO PUSH2 0x223D JUMPI PUSH2 0x223C PUSH2 0x2248 JUMP JUMPDEST JUMPDEST PUSH1 0x1 DUP3 ADD SWAP1 POP SWAP2 SWAP1 POP JUMP JUMPDEST PUSH32 0x4E487B7100000000000000000000000000000000000000000000000000000000 PUSH1 0x0 MSTORE PUSH1 0x11 PUSH1 0x4 MSTORE PUSH1 0x24 PUSH1 0x0 REVERT JUMPDEST PUSH32 0x4E487B7100000000000000000000000000000000000000000000000000000000 PUSH1 0x0 MSTORE PUSH1 0x22 PUSH1 0x4 MSTORE PUSH1 0x24 PUSH1 0x0 REVERT JUMPDEST PUSH32 0x4E487B7100000000000000000000000000000000000000000000000000000000 PUSH1 0x0 MSTORE PUSH1 0x41 PUSH1 0x4 MSTORE PUSH1 0x24 PUSH1 0x0 REVERT JUMPDEST PUSH1 0x0 PUSH1 0x1F NOT PUSH1 0x1F DUP4 ADD AND SWAP1 POP SWAP2 SWAP1 POP JUMP JUMPDEST PUSH2 0x22EF DUP2 PUSH2 0x212C JUMP JUMPDEST DUP2 EQ PUSH2 0x22FA JUMPI PUSH1 0x0 DUP1 REVERT JUMPDEST POP JUMP JUMPDEST PUSH2 0x2306 DUP2 PUSH2 0x213E JUMP JUMPDEST DUP2 EQ PUSH2 0x2311 JUMPI PUSH1 0x0 DUP1 REVERT JUMPDEST POP JUMP JUMPDEST PUSH2 0x231D DUP2 PUSH2 0x2174 JUMP JUMPDEST DUP2 EQ PUSH2 0x2328 JUMPI PUSH1 0x0 DUP1 REVERT JUMPDEST POP JUMP INVALID LOG2 PUSH5 0x6970667358 0x22 SLT KECCAK256 MSTORE 0xB9 0x5D 0xB3 0xC2 DUP2 0xB6 0xAE BALANCE 0xDE 0xB0 0xD PUSH9 0x9E003A76C0232B0E45 SMOD EXTCODESIZE 0x2C 0x22 DUP14 0xC4 0x27 0xEC DELEGATECALL SWAP16 PUSH5 0x736F6C6343 STOP ADDMOD STOP STOP CALLER "
				},
				"gasEstimates": {
					"creation": {
						"codeDepositCost": "1811400",
						"executionCost": "infinite",
						"totalCost": "infinite"
					},
					"external": {
						"allowance(address,address)": "infinite",
						"approve(address,uint256)": "infinite",
						"balanceOf(address)": "1630",
						"decimals()": "389",
						"decreaseAllowance(address,uint256)": "infinite",
						"delegateVoteTo(address,uint256)": "infinite",
						"donateEther()": "infinite",
						"donateMyGovToken(uint256)": "infinite",
						"getEtherReceivedByProject()": "190",
						"getIsProjectFunded()": "212",
						"getNoOfFundedProjects()": "infinite",
						"getNoOfProjectProposals()": "1257",
						"getNoOfSurveys()": "1190",
						"getProjectInfo()": "211",
						"getProjectNextPayment()": "232",
						"getProjectOwner()": "254",
						"getSurveyInfo()": "233",
						"getSurveyOwner(uint256)": "733",
						"getSurveyResults()": "256",
						"increaseAllowance(address,uint256)": "infinite",
						"name()": "infinite",
						"proposals(uint256)": "infinite",
						"reserveProjectGrant()": "255",
						"submitProjectProposal(string,uint256,uint256[],uint256[])": "infinite",
						"submitSurvey()": "211",
						"surveys(uint256)": "2375",
						"symbol()": "infinite",
						"takeSurvey()": "213",
						"totalSupply()": "1205",
						"transfer(address,uint256)": "infinite",
						"transferFrom(address,address,uint256)": "infinite",
						"voteForProjectPayment()": "277",
						"voteForProjectProposal(uint256,bool)": "infinite",
						"voters(address)": "infinite",
						"withdrawProjectPayment()": "255"
					}
				},
				"methodIdentifiers": {
					"allowance(address,address)": "dd62ed3e",
					"approve(address,uint256)": "095ea7b3",
					"balanceOf(address)": "70a08231",
					"decimals()": "313ce567",
					"decreaseAllowance(address,uint256)": "a457c2d7",
					"delegateVoteTo(address,uint256)": "a1669b32",
					"donateEther()": "863451dd",
					"donateMyGovToken(uint256)": "39c94d2d",
					"getEtherReceivedByProject()": "164dfd3b",
					"getIsProjectFunded()": "35655237",
					"getNoOfFundedProjects()": "bf50556d",
					"getNoOfProjectProposals()": "23fd498b",
					"getNoOfSurveys()": "5d801b37",
					"getProjectInfo()": "67c897fe",
					"getProjectNextPayment()": "e00e03f9",
					"getProjectOwner()": "e6d68595",
					"getSurveyInfo()": "af60d560",
					"getSurveyOwner(uint256)": "875b5076",
					"getSurveyResults()": "8fbe3750",
					"increaseAllowance(address,uint256)": "39509351",
					"name()": "06fdde03",
					"proposals(uint256)": "013cf08b",
					"reserveProjectGrant()": "bafc462d",
					"submitProjectProposal(string,uint256,uint256[],uint256[])": "a5e898e1",
					"submitSurvey()": "97cfe54b",
					"surveys(uint256)": "86e68b90",
					"symbol()": "95d89b41",
					"takeSurvey()": "033cb2d3",
					"totalSupply()": "18160ddd",
					"transfer(address,uint256)": "a9059cbb",
					"transferFrom(address,address,uint256)": "23b872dd",
					"voteForProjectPayment()": "72a4e9ba",
					"voteForProjectProposal(uint256,bool)": "f22449ba",
					"voters(address)": "a3ec138d",
					"withdrawProjectPayment()": "70e1133c"
				}
			},
			"storageLayout": {
				"storage": [
					{
						"astId": 15,
						"contract": "contracts/MyGov.sol:MyGovToken",
						"label": "_balances",
						"offset": 0,
						"slot": "0",
						"type": "t_mapping(t_address,t_uint256)"
					},
					{
						"astId": 21,
						"contract": "contracts/MyGov.sol:MyGovToken",
						"label": "_allowances",
						"offset": 0,
						"slot": "1",
						"type": "t_mapping(t_address,t_mapping(t_address,t_uint256))"
					},
					{
						"astId": 23,
						"contract": "contracts/MyGov.sol:MyGovToken",
						"label": "_totalSupply",
						"offset": 0,
						"slot": "2",
						"type": "t_uint256"
					},
					{
						"astId": 25,
						"contract": "contracts/MyGov.sol:MyGovToken",
						"label": "_name",
						"offset": 0,
						"slot": "3",
						"type": "t_string_storage"
					},
					{
						"astId": 27,
						"contract": "contracts/MyGov.sol:MyGovToken",
						"label": "_symbol",
						"offset": 0,
						"slot": "4",
						"type": "t_string_storage"
					},
					{
						"astId": 771,
						"contract": "contracts/MyGov.sol:MyGovToken",
						"label": "tokenOwner",
						"offset": 0,
						"slot": "5",
						"type": "t_address_payable"
					},
					{
						"astId": 776,
						"contract": "contracts/MyGov.sol:MyGovToken",
						"label": "voters",
						"offset": 0,
						"slot": "6",
						"type": "t_mapping(t_address,t_struct(Voter)751_storage)"
					},
					{
						"astId": 780,
						"contract": "contracts/MyGov.sol:MyGovToken",
						"label": "proposals",
						"offset": 0,
						"slot": "7",
						"type": "t_array(t_struct(Proposal)760_storage)dyn_storage"
					},
					{
						"astId": 784,
						"contract": "contracts/MyGov.sol:MyGovToken",
						"label": "surveys",
						"offset": 0,
						"slot": "8",
						"type": "t_array(t_struct(Survey)769_storage)dyn_storage"
					}
				],
				"types": {
					"t_address": {
						"encoding": "inplace",
						"label": "address",
						"numberOfBytes": "20"
					},
					"t_address_payable": {
						"encoding": "inplace",
						"label": "address payable",
						"numberOfBytes": "20"
					},
					"t_array(t_bytes32)dyn_storage": {
						"base": "t_bytes32",
						"encoding": "dynamic_array",
						"label": "bytes32[]",
						"numberOfBytes": "32"
					},
					"t_array(t_struct(Proposal)760_storage)dyn_storage": {
						"base": "t_struct(Proposal)760_storage",
						"encoding": "dynamic_array",
						"label": "struct MyGovToken.Proposal[]",
						"numberOfBytes": "32"
					},
					"t_array(t_struct(Survey)769_storage)dyn_storage": {
						"base": "t_struct(Survey)769_storage",
						"encoding": "dynamic_array",
						"label": "struct MyGovToken.Survey[]",
						"numberOfBytes": "32"
					},
					"t_array(t_uint256)dyn_storage": {
						"base": "t_uint256",
						"encoding": "dynamic_array",
						"label": "uint256[]",
						"numberOfBytes": "32"
					},
					"t_bool": {
						"encoding": "inplace",
						"label": "bool",
						"numberOfBytes": "1"
					},
					"t_bytes32": {
						"encoding": "inplace",
						"label": "bytes32",
						"numberOfBytes": "32"
					},
					"t_bytes_storage": {
						"encoding": "bytes",
						"label": "bytes",
						"numberOfBytes": "32"
					},
					"t_mapping(t_address,t_mapping(t_address,t_uint256))": {
						"encoding": "mapping",
						"key": "t_address",
						"label": "mapping(address => mapping(address => uint256))",
						"numberOfBytes": "32",
						"value": "t_mapping(t_address,t_uint256)"
					},
					"t_mapping(t_address,t_struct(Voter)751_storage)": {
						"encoding": "mapping",
						"key": "t_address",
						"label": "mapping(address => struct MyGovToken.Voter)",
						"numberOfBytes": "32",
						"value": "t_struct(Voter)751_storage"
					},
					"t_mapping(t_address,t_uint256)": {
						"encoding": "mapping",
						"key": "t_address",
						"label": "mapping(address => uint256)",
						"numberOfBytes": "32",
						"value": "t_uint256"
					},
					"t_string_storage": {
						"encoding": "bytes",
						"label": "string",
						"numberOfBytes": "32"
					},
					"t_struct(Proposal)760_storage": {
						"encoding": "inplace",
						"label": "struct MyGovToken.Proposal",
						"members": [
							{
								"astId": 753,
								"contract": "contracts/MyGov.sol:MyGovToken",
								"label": "name",
								"offset": 0,
								"slot": "0",
								"type": "t_bytes_storage"
							},
							{
								"astId": 755,
								"contract": "contracts/MyGov.sol:MyGovToken",
								"label": "voteCount",
								"offset": 0,
								"slot": "1",
								"type": "t_uint256"
							},
							{
								"astId": 757,
								"contract": "contracts/MyGov.sol:MyGovToken",
								"label": "isWon",
								"offset": 0,
								"slot": "2",
								"type": "t_bool"
							},
							{
								"astId": 759,
								"contract": "contracts/MyGov.sol:MyGovToken",
								"label": "isFunded",
								"offset": 1,
								"slot": "2",
								"type": "t_bool"
							}
						],
						"numberOfBytes": "96"
					},
					"t_struct(Survey)769_storage": {
						"encoding": "inplace",
						"label": "struct MyGovToken.Survey",
						"members": [
							{
								"astId": 762,
								"contract": "contracts/MyGov.sol:MyGovToken",
								"label": "name",
								"offset": 0,
								"slot": "0",
								"type": "t_bytes32"
							},
							{
								"astId": 765,
								"contract": "contracts/MyGov.sol:MyGovToken",
								"label": "options",
								"offset": 0,
								"slot": "1",
								"type": "t_array(t_bytes32)dyn_storage"
							},
							{
								"astId": 768,
								"contract": "contracts/MyGov.sol:MyGovToken",
								"label": "results",
								"offset": 0,
								"slot": "2",
								"type": "t_array(t_uint256)dyn_storage"
							}
						],
						"numberOfBytes": "96"
					},
					"t_struct(Voter)751_storage": {
						"encoding": "inplace",
						"label": "struct MyGovToken.Voter",
						"members": [
							{
								"astId": 744,
								"contract": "contracts/MyGov.sol:MyGovToken",
								"label": "weight",
								"offset": 0,
								"slot": "0",
								"type": "t_uint256"
							},
							{
								"astId": 746,
								"contract": "contracts/MyGov.sol:MyGovToken",
								"label": "voted",
								"offset": 0,
								"slot": "1",
								"type": "t_bool"
							},
							{
								"astId": 748,
								"contract": "contracts/MyGov.sol:MyGovToken",
								"label": "delegate",
								"offset": 1,
								"slot": "1",
								"type": "t_address"
							},
							{
								"astId": 750,
								"contract": "contracts/MyGov.sol:MyGovToken",
								"label": "votedProposal",
								"offset": 0,
								"slot": "2",
								"type": "t_uint256"
							}
						],
						"numberOfBytes": "96"
					},
					"t_uint256": {
						"encoding": "inplace",
						"label": "uint256",
						"numberOfBytes": "32"
					}
				}
			},
			"userdoc": {
				"kind": "user",
				"methods": {},
				"version": 1
			}
		}
	}
}