{
	"contracts/MyGov.sol": {
		"MyGovToken": {
			"abi": [
				{
					"inputs": [
						{
							"internalType": "uint256",
							"name": "tokensupply",
							"type": "uint256"
						}
					],
					"stateMutability": "nonpayable",
					"type": "constructor"
				},
				{
					"anonymous": false,
					"inputs": [
						{
							"indexed": true,
							"internalType": "address",
							"name": "owner",
							"type": "address"
						},
						{
							"indexed": true,
							"internalType": "address",
							"name": "spender",
							"type": "address"
						},
						{
							"indexed": false,
							"internalType": "uint256",
							"name": "value",
							"type": "uint256"
						}
					],
					"name": "Approval",
					"type": "event"
				},
				{
					"anonymous": false,
					"inputs": [
						{
							"indexed": true,
							"internalType": "address",
							"name": "from",
							"type": "address"
						},
						{
							"indexed": true,
							"internalType": "address",
							"name": "to",
							"type": "address"
						},
						{
							"indexed": false,
							"internalType": "uint256",
							"name": "value",
							"type": "uint256"
						}
					],
					"name": "Transfer",
					"type": "event"
				},
				{
					"inputs": [
						{
							"internalType": "address",
							"name": "owner",
							"type": "address"
						},
						{
							"internalType": "address",
							"name": "spender",
							"type": "address"
						}
					],
					"name": "allowance",
					"outputs": [
						{
							"internalType": "uint256",
							"name": "",
							"type": "uint256"
						}
					],
					"stateMutability": "view",
					"type": "function"
				},
				{
					"inputs": [
						{
							"internalType": "address",
							"name": "spender",
							"type": "address"
						},
						{
							"internalType": "uint256",
							"name": "amount",
							"type": "uint256"
						}
					],
					"name": "approve",
					"outputs": [
						{
							"internalType": "bool",
							"name": "",
							"type": "bool"
						}
					],
					"stateMutability": "nonpayable",
					"type": "function"
				},
				{
					"inputs": [
						{
							"internalType": "address",
							"name": "account",
							"type": "address"
						}
					],
					"name": "balanceOf",
					"outputs": [
						{
							"internalType": "uint256",
							"name": "",
							"type": "uint256"
						}
					],
					"stateMutability": "view",
					"type": "function"
				},
				{
					"inputs": [],
					"name": "decimals",
					"outputs": [
						{
							"internalType": "uint8",
							"name": "",
							"type": "uint8"
						}
					],
					"stateMutability": "view",
					"type": "function"
				},
				{
					"inputs": [
						{
							"internalType": "address",
							"name": "spender",
							"type": "address"
						},
						{
							"internalType": "uint256",
							"name": "subtractedValue",
							"type": "uint256"
						}
					],
					"name": "decreaseAllowance",
					"outputs": [
						{
							"internalType": "bool",
							"name": "",
							"type": "bool"
						}
					],
					"stateMutability": "nonpayable",
					"type": "function"
				},
				{
					"inputs": [
						{
							"internalType": "address",
							"name": "memberaddr",
							"type": "address"
						},
						{
							"internalType": "uint256",
							"name": "projectid",
							"type": "uint256"
						}
					],
					"name": "delegateVoteTo",
					"outputs": [],
					"stateMutability": "nonpayable",
					"type": "function"
				},
				{
					"inputs": [],
					"name": "donateEther",
					"outputs": [],
					"stateMutability": "payable",
					"type": "function"
				},
				{
					"inputs": [
						{
							"internalType": "uint256",
							"name": "amount",
							"type": "uint256"
						}
					],
					"name": "donateMyGovToken",
					"outputs": [],
					"stateMutability": "nonpayable",
					"type": "function"
				},
				{
					"inputs": [],
					"name": "getEtherReceivedByProject",
					"outputs": [],
					"stateMutability": "nonpayable",
					"type": "function"
				},
				{
					"inputs": [],
					"name": "getIsProjectFunded",
					"outputs": [],
					"stateMutability": "nonpayable",
					"type": "function"
				},
				{
					"inputs": [],
					"name": "getNoOfFundedProjects",
					"outputs": [
						{
							"internalType": "uint256",
							"name": "numfunded",
							"type": "uint256"
						}
					],
					"stateMutability": "view",
					"type": "function"
				},
				{
					"inputs": [],
					"name": "getNoOfProjectProposals",
					"outputs": [
						{
							"internalType": "uint256",
							"name": "numofproposals",
							"type": "uint256"
						}
					],
					"stateMutability": "view",
					"type": "function"
				},
				{
					"inputs": [],
					"name": "getNoOfSurveys",
					"outputs": [
						{
							"internalType": "uint256",
							"name": "numsurveys",
							"type": "uint256"
						}
					],
					"stateMutability": "view",
					"type": "function"
				},
				{
					"inputs": [],
					"name": "getProjectInfo",
					"outputs": [],
					"stateMutability": "nonpayable",
					"type": "function"
				},
				{
					"inputs": [],
					"name": "getProjectNextPayment",
					"outputs": [],
					"stateMutability": "nonpayable",
					"type": "function"
				},
				{
					"inputs": [],
					"name": "getProjectOwner",
					"outputs": [],
					"stateMutability": "nonpayable",
					"type": "function"
				},
				{
					"inputs": [],
					"name": "getSurveyInfo",
					"outputs": [],
					"stateMutability": "nonpayable",
					"type": "function"
				},
				{
					"inputs": [
						{
							"internalType": "uint256",
							"name": "surveyid",
							"type": "uint256"
						}
					],
					"name": "getSurveyOwner",
					"outputs": [
						{
							"internalType": "address",
							"name": "surveyowner",
							"type": "address"
						}
					],
					"stateMutability": "view",
					"type": "function"
				},
				{
					"inputs": [],
					"name": "getSurveyResults",
					"outputs": [],
					"stateMutability": "nonpayable",
					"type": "function"
				},
				{
					"inputs": [
						{
							"internalType": "address",
							"name": "spender",
							"type": "address"
						},
						{
							"internalType": "uint256",
							"name": "addedValue",
							"type": "uint256"
						}
					],
					"name": "increaseAllowance",
					"outputs": [
						{
							"internalType": "bool",
							"name": "",
							"type": "bool"
						}
					],
					"stateMutability": "nonpayable",
					"type": "function"
				},
				{
					"inputs": [],
					"name": "name",
					"outputs": [
						{
							"internalType": "string",
							"name": "",
							"type": "string"
						}
					],
					"stateMutability": "view",
					"type": "function"
				},
				{
					"inputs": [
						{
							"internalType": "uint256",
							"name": "",
							"type": "uint256"
						}
					],
					"name": "proposals",
					"outputs": [
						{
							"internalType": "bytes",
							"name": "name",
							"type": "bytes"
						},
						{
							"internalType": "uint256",
							"name": "voteCount",
							"type": "uint256"
						},
						{
							"internalType": "bool",
							"name": "isWon",
							"type": "bool"
						},
						{
							"internalType": "bool",
							"name": "isFunded",
							"type": "bool"
						}
					],
					"stateMutability": "view",
					"type": "function"
				},
				{
					"inputs": [],
					"name": "reserveProjectGrant",
					"outputs": [],
					"stateMutability": "nonpayable",
					"type": "function"
				},
				{
					"inputs": [
						{
							"internalType": "string",
							"name": "ipfshash",
							"type": "string"
						},
						{
							"internalType": "uint256",
							"name": "votedeadline",
							"type": "uint256"
						},
						{
							"internalType": "uint256[]",
							"name": "paymentamounts",
							"type": "uint256[]"
						},
						{
							"internalType": "uint256[]",
							"name": "payschedule",
							"type": "uint256[]"
						}
					],
					"name": "submitProjectProposal",
					"outputs": [
						{
							"internalType": "uint256",
							"name": "projectid",
							"type": "uint256"
						}
					],
					"stateMutability": "nonpayable",
					"type": "function"
				},
				{
					"inputs": [
						{
							"internalType": "string",
							"name": "ipfshash",
							"type": "string"
						},
						{
							"internalType": "uint256",
							"name": "surveydeadline",
							"type": "uint256"
						},
						{
							"internalType": "uint256",
							"name": "numchoices",
							"type": "uint256"
						},
						{
							"internalType": "uint256",
							"name": "atmostchoice",
							"type": "uint256"
						}
					],
					"name": "submitSurvey",
					"outputs": [
						{
							"internalType": "uint256",
							"name": "surveyid",
							"type": "uint256"
						}
					],
					"stateMutability": "nonpayable",
					"type": "function"
				},
				{
					"inputs": [
						{
							"internalType": "uint256",
							"name": "",
							"type": "uint256"
						}
					],
					"name": "surveys",
					"outputs": [
						{
							"internalType": "bytes32",
							"name": "name",
							"type": "bytes32"
						}
					],
					"stateMutability": "view",
					"type": "function"
				},
				{
					"inputs": [],
					"name": "symbol",
					"outputs": [
						{
							"internalType": "string",
							"name": "",
							"type": "string"
						}
					],
					"stateMutability": "view",
					"type": "function"
				},
				{
					"inputs": [],
					"name": "takeSurvey",
					"outputs": [],
					"stateMutability": "nonpayable",
					"type": "function"
				},
				{
					"inputs": [],
					"name": "totalSupply",
					"outputs": [
						{
							"internalType": "uint256",
							"name": "",
							"type": "uint256"
						}
					],
					"stateMutability": "view",
					"type": "function"
				},
				{
					"inputs": [
						{
							"internalType": "address",
							"name": "to",
							"type": "address"
						},
						{
							"internalType": "uint256",
							"name": "amount",
							"type": "uint256"
						}
					],
					"name": "transfer",
					"outputs": [
						{
							"internalType": "bool",
							"name": "",
							"type": "bool"
						}
					],
					"stateMutability": "nonpayable",
					"type": "function"
				},
				{
					"inputs": [
						{
							"internalType": "address",
							"name": "from",
							"type": "address"
						},
						{
							"internalType": "address",
							"name": "to",
							"type": "address"
						},
						{
							"internalType": "uint256",
							"name": "amount",
							"type": "uint256"
						}
					],
					"name": "transferFrom",
					"outputs": [
						{
							"internalType": "bool",
							"name": "",
							"type": "bool"
						}
					],
					"stateMutability": "nonpayable",
					"type": "function"
				},
				{
					"inputs": [],
					"name": "voteForProjectPayment",
					"outputs": [],
					"stateMutability": "nonpayable",
					"type": "function"
				},
				{
					"inputs": [
						{
							"internalType": "uint256",
							"name": "projectid",
							"type": "uint256"
						},
						{
							"internalType": "bool",
							"name": "choice",
							"type": "bool"
						}
					],
					"name": "voteForProjectProposal",
					"outputs": [],
					"stateMutability": "nonpayable",
					"type": "function"
				},
				{
					"inputs": [
						{
							"internalType": "address",
							"name": "",
							"type": "address"
						}
					],
					"name": "voters",
					"outputs": [
						{
							"internalType": "uint256",
							"name": "weight",
							"type": "uint256"
						},
						{
							"internalType": "bool",
							"name": "voted",
							"type": "bool"
						},
						{
							"internalType": "address",
							"name": "delegate",
							"type": "address"
						},
						{
							"internalType": "uint256",
							"name": "votedProposal",
							"type": "uint256"
						}
					],
					"stateMutability": "view",
					"type": "function"
				},
				{
					"inputs": [],
					"name": "withdrawProjectPayment",
					"outputs": [],
					"stateMutability": "nonpayable",
					"type": "function"
				}
			],
			"devdoc": {
				"kind": "dev",
				"methods": {
					"allowance(address,address)": {
						"details": "See {IERC20-allowance}."
					},
					"approve(address,uint256)": {
						"details": "See {IERC20-approve}. NOTE: If `amount` is the maximum `uint256`, the allowance is not updated on `transferFrom`. This is semantically equivalent to an infinite approval. Requirements: - `spender` cannot be the zero address."
					},
					"balanceOf(address)": {
						"details": "See {IERC20-balanceOf}."
					},
					"decimals()": {
						"details": "Returns the number of decimals used to get its user representation. For example, if `decimals` equals `2`, a balance of `505` tokens should be displayed to a user as `5.05` (`505 / 10 ** 2`). Tokens usually opt for a value of 18, imitating the relationship between Ether and Wei. This is the value {ERC20} uses, unless this function is overridden; NOTE: This information is only used for _display_ purposes: it in no way affects any of the arithmetic of the contract, including {IERC20-balanceOf} and {IERC20-transfer}."
					},
					"decreaseAllowance(address,uint256)": {
						"details": "Atomically decreases the allowance granted to `spender` by the caller. This is an alternative to {approve} that can be used as a mitigation for problems described in {IERC20-approve}. Emits an {Approval} event indicating the updated allowance. Requirements: - `spender` cannot be the zero address. - `spender` must have allowance for the caller of at least `subtractedValue`."
					},
					"increaseAllowance(address,uint256)": {
						"details": "Atomically increases the allowance granted to `spender` by the caller. This is an alternative to {approve} that can be used as a mitigation for problems described in {IERC20-approve}. Emits an {Approval} event indicating the updated allowance. Requirements: - `spender` cannot be the zero address."
					},
					"name()": {
						"details": "Returns the name of the token."
					},
					"symbol()": {
						"details": "Returns the symbol of the token, usually a shorter version of the name."
					},
					"totalSupply()": {
						"details": "See {IERC20-totalSupply}."
					},
					"transfer(address,uint256)": {
						"details": "See {IERC20-transfer}. Requirements: - `to` cannot be the zero address. - the caller must have a balance of at least `amount`."
					},
					"transferFrom(address,address,uint256)": {
						"details": "See {IERC20-transferFrom}. Emits an {Approval} event indicating the updated allowance. This is not required by the EIP. See the note at the beginning of {ERC20}. NOTE: Does not update the allowance if the current allowance is the maximum `uint256`. Requirements: - `from` and `to` cannot be the zero address. - `from` must have a balance of at least `amount`. - the caller must have allowance for ``from``'s tokens of at least `amount`."
					}
				},
				"version": 1
			},
			"evm": {
				"assembly": "    /* \"contracts/MyGov.sol\":327:3979  contract MyGovToken is ERC20(\"MyGov Token\", \"MGT\"){... */\n  mstore(0x40, 0x80)\n    /* \"contracts/MyGov.sol\":388:516  constructor(uint tokensupply) {... */\n  callvalue\n  dup1\n  iszero\n  tag_1\n  jumpi\n  0x00\n  dup1\n  revert\ntag_1:\n  pop\n  mload(0x40)\n  sub(codesize, bytecodeSize)\n  dup1\n  bytecodeSize\n  dup4\n  codecopy\n  dup2\n  dup2\n  add\n  0x40\n  mstore\n  dup2\n  add\n  swap1\n  tag_2\n  swap2\n  swap1\n  tag_3\n  jump\t// in\ntag_2:\n    /* \"@openzeppelin/contracts/token/ERC20/ERC20.sol\":1976:2089  constructor(string memory name_, string memory symbol_) {... */\n  mload(0x40)\n  dup1\n  0x40\n  add\n  0x40\n  mstore\n  dup1\n  0x0b\n  dup2\n  mstore\n  0x20\n  add\n  0x4d79476f7620546f6b656e000000000000000000000000000000000000000000\n  dup2\n  mstore\n  pop\n  mload(0x40)\n  dup1\n  0x40\n  add\n  0x40\n  mstore\n  dup1\n  0x03\n  dup2\n  mstore\n  0x20\n  add\n  0x4d47540000000000000000000000000000000000000000000000000000000000\n  dup2\n  mstore\n  pop\n    /* \"@openzeppelin/contracts/token/ERC20/ERC20.sol\":2050:2055  name_ */\n  dup2\n    /* \"@openzeppelin/contracts/token/ERC20/ERC20.sol\":2042:2047  _name */\n  0x03\n    /* \"@openzeppelin/contracts/token/ERC20/ERC20.sol\":2042:2055  _name = name_ */\n  swap1\n  dup1\n  mload\n  swap1\n  0x20\n  add\n  swap1\n  tag_7\n  swap3\n  swap2\n  swap1\n  tag_8\n  jump\t// in\ntag_7:\n  pop\n    /* \"@openzeppelin/contracts/token/ERC20/ERC20.sol\":2075:2082  symbol_ */\n  dup1\n    /* \"@openzeppelin/contracts/token/ERC20/ERC20.sol\":2065:2072  _symbol */\n  0x04\n    /* \"@openzeppelin/contracts/token/ERC20/ERC20.sol\":2065:2082  _symbol = symbol_ */\n  swap1\n  dup1\n  mload\n  swap1\n  0x20\n  add\n  swap1\n  tag_9\n  swap3\n  swap2\n  swap1\n  tag_8\n  jump\t// in\ntag_9:\n  pop\n    /* \"@openzeppelin/contracts/token/ERC20/ERC20.sol\":1976:2089  constructor(string memory name_, string memory symbol_) {... */\n  pop\n  pop\n    /* \"contracts/MyGov.sol\":449:459  msg.sender */\n  caller\n    /* \"contracts/MyGov.sol\":428:438  tokenOwner */\n  0x05\n  0x00\n    /* \"contracts/MyGov.sol\":428:460  tokenOwner = payable(msg.sender) */\n  0x0100\n  exp\n  dup2\n  sload\n  dup2\n  0xffffffffffffffffffffffffffffffffffffffff\n  mul\n  not\n  and\n  swap1\n  dup4\n  0xffffffffffffffffffffffffffffffffffffffff\n  and\n  mul\n  or\n  swap1\n  sstore\n  pop\n    /* \"contracts/MyGov.sol\":470:509  _mint(msg.sender, tokensupply * 10**18) */\n  tag_11\n    /* \"contracts/MyGov.sol\":476:486  msg.sender */\n  caller\n    /* \"contracts/MyGov.sol\":502:508  10**18 */\n  0x0de0b6b3a7640000\n    /* \"contracts/MyGov.sol\":488:499  tokensupply */\n  dup4\n    /* \"contracts/MyGov.sol\":488:508  tokensupply * 10**18 */\n  tag_12\n  swap2\n  swap1\n  tag_13\n  jump\t// in\ntag_12:\n    /* \"contracts/MyGov.sol\":470:475  _mint */\n  shl(0x20, tag_14)\n    /* \"contracts/MyGov.sol\":470:509  _mint(msg.sender, tokensupply * 10**18) */\n  0x20\n  shr\n  jump\t// in\ntag_11:\n    /* \"contracts/MyGov.sol\":388:516  constructor(uint tokensupply) {... */\n  pop\n    /* \"contracts/MyGov.sol\":327:3979  contract MyGovToken is ERC20(\"MyGov Token\", \"MGT\"){... */\n  jump(tag_15)\n    /* \"@openzeppelin/contracts/token/ERC20/ERC20.sol\":8567:9102  function _mint(address account, uint256 amount) internal virtual {... */\ntag_14:\n    /* \"@openzeppelin/contracts/token/ERC20/ERC20.sol\":8669:8670  0 */\n  0x00\n    /* \"@openzeppelin/contracts/token/ERC20/ERC20.sol\":8650:8671  account != address(0) */\n  0xffffffffffffffffffffffffffffffffffffffff\n  and\n    /* \"@openzeppelin/contracts/token/ERC20/ERC20.sol\":8650:8657  account */\n  dup3\n    /* \"@openzeppelin/contracts/token/ERC20/ERC20.sol\":8650:8671  account != address(0) */\n  0xffffffffffffffffffffffffffffffffffffffff\n  and\n  eq\n  iszero\n    /* \"@openzeppelin/contracts/token/ERC20/ERC20.sol\":8642:8707  require(account != address(0), \"ERC20: mint to the zero address\") */\n  tag_17\n  jumpi\n  mload(0x40)\n  0x08c379a000000000000000000000000000000000000000000000000000000000\n  dup2\n  mstore\n  0x04\n  add\n  tag_18\n  swap1\n  tag_19\n  jump\t// in\ntag_18:\n  mload(0x40)\n  dup1\n  swap2\n  sub\n  swap1\n  revert\ntag_17:\n    /* \"@openzeppelin/contracts/token/ERC20/ERC20.sol\":8718:8767  _beforeTokenTransfer(address(0), account, amount) */\n  tag_20\n    /* \"@openzeppelin/contracts/token/ERC20/ERC20.sol\":8747:8748  0 */\n  0x00\n    /* \"@openzeppelin/contracts/token/ERC20/ERC20.sol\":8751:8758  account */\n  dup4\n    /* \"@openzeppelin/contracts/token/ERC20/ERC20.sol\":8760:8766  amount */\n  dup4\n    /* \"@openzeppelin/contracts/token/ERC20/ERC20.sol\":8718:8738  _beforeTokenTransfer */\n  shl(0x20, tag_21)\n    /* \"@openzeppelin/contracts/token/ERC20/ERC20.sol\":8718:8767  _beforeTokenTransfer(address(0), account, amount) */\n  0x20\n  shr\n  jump\t// in\ntag_20:\n    /* \"@openzeppelin/contracts/token/ERC20/ERC20.sol\":8794:8800  amount */\n  dup1\n    /* \"@openzeppelin/contracts/token/ERC20/ERC20.sol\":8778:8790  _totalSupply */\n  0x02\n  0x00\n    /* \"@openzeppelin/contracts/token/ERC20/ERC20.sol\":8778:8800  _totalSupply += amount */\n  dup3\n  dup3\n  sload\n  tag_22\n  swap2\n  swap1\n  tag_23\n  jump\t// in\ntag_22:\n  swap3\n  pop\n  pop\n  dup2\n  swap1\n  sstore\n  pop\n    /* \"@openzeppelin/contracts/token/ERC20/ERC20.sol\":8968:8974  amount */\n  dup1\n    /* \"@openzeppelin/contracts/token/ERC20/ERC20.sol\":8946:8955  _balances */\n  0x00\n    /* \"@openzeppelin/contracts/token/ERC20/ERC20.sol\":8946:8964  _balances[account] */\n  dup1\n    /* \"@openzeppelin/contracts/token/ERC20/ERC20.sol\":8956:8963  account */\n  dup5\n    /* \"@openzeppelin/contracts/token/ERC20/ERC20.sol\":8946:8964  _balances[account] */\n  0xffffffffffffffffffffffffffffffffffffffff\n  and\n  0xffffffffffffffffffffffffffffffffffffffff\n  and\n  dup2\n  mstore\n  0x20\n  add\n  swap1\n  dup2\n  mstore\n  0x20\n  add\n  0x00\n  keccak256\n  0x00\n    /* \"@openzeppelin/contracts/token/ERC20/ERC20.sol\":8946:8974  _balances[account] += amount */\n  dup3\n  dup3\n  sload\n  add\n  swap3\n  pop\n  pop\n  dup2\n  swap1\n  sstore\n  pop\n    /* \"@openzeppelin/contracts/token/ERC20/ERC20.sol\":9020:9027  account */\n  dup2\n    /* \"@openzeppelin/contracts/token/ERC20/ERC20.sol\":8999:9036  Transfer(address(0), account, amount) */\n  0xffffffffffffffffffffffffffffffffffffffff\n  and\n    /* \"@openzeppelin/contracts/token/ERC20/ERC20.sol\":9016:9017  0 */\n  0x00\n    /* \"@openzeppelin/contracts/token/ERC20/ERC20.sol\":8999:9036  Transfer(address(0), account, amount) */\n  0xffffffffffffffffffffffffffffffffffffffff\n  and\n  0xddf252ad1be2c89b69c2b068fc378daa952ba7f163c4a11628f55a4df523b3ef\n    /* \"@openzeppelin/contracts/token/ERC20/ERC20.sol\":9029:9035  amount */\n  dup4\n    /* \"@openzeppelin/contracts/token/ERC20/ERC20.sol\":8999:9036  Transfer(address(0), account, amount) */\n  mload(0x40)\n  tag_24\n  swap2\n  swap1\n  tag_25\n  jump\t// in\ntag_24:\n  mload(0x40)\n  dup1\n  swap2\n  sub\n  swap1\n  log3\n    /* \"@openzeppelin/contracts/token/ERC20/ERC20.sol\":9047:9095  _afterTokenTransfer(address(0), account, amount) */\n  tag_26\n    /* \"@openzeppelin/contracts/token/ERC20/ERC20.sol\":9075:9076  0 */\n  0x00\n    /* \"@openzeppelin/contracts/token/ERC20/ERC20.sol\":9079:9086  account */\n  dup4\n    /* \"@openzeppelin/contracts/token/ERC20/ERC20.sol\":9088:9094  amount */\n  dup4\n    /* \"@openzeppelin/contracts/token/ERC20/ERC20.sol\":9047:9066  _afterTokenTransfer */\n  shl(0x20, tag_27)\n    /* \"@openzeppelin/contracts/token/ERC20/ERC20.sol\":9047:9095  _afterTokenTransfer(address(0), account, amount) */\n  0x20\n  shr\n  jump\t// in\ntag_26:\n    /* \"@openzeppelin/contracts/token/ERC20/ERC20.sol\":8567:9102  function _mint(address account, uint256 amount) internal virtual {... */\n  pop\n  pop\n  jump\t// out\n    /* \"@openzeppelin/contracts/token/ERC20/ERC20.sol\":12180:12301  function _beforeTokenTransfer(... */\ntag_21:\n  pop\n  pop\n  pop\n  jump\t// out\n    /* \"@openzeppelin/contracts/token/ERC20/ERC20.sol\":12889:13009  function _afterTokenTransfer(... */\ntag_27:\n  pop\n  pop\n  pop\n  jump\t// out\n    /* \"contracts/MyGov.sol\":327:3979  contract MyGovToken is ERC20(\"MyGov Token\", \"MGT\"){... */\ntag_8:\n  dup3\n  dup1\n  sload\n  tag_30\n  swap1\n  tag_31\n  jump\t// in\ntag_30:\n  swap1\n  0x00\n  mstore\n  keccak256(0x00, 0x20)\n  swap1\n  0x1f\n  add\n  0x20\n  swap1\n  div\n  dup2\n  add\n  swap3\n  dup3\n  tag_33\n  jumpi\n  0x00\n  dup6\n  sstore\n  jump(tag_32)\ntag_33:\n  dup3\n  0x1f\n  lt\n  tag_34\n  jumpi\n  dup1\n  mload\n  not(0xff)\n  and\n  dup4\n  dup1\n  add\n  or\n  dup6\n  sstore\n  jump(tag_32)\ntag_34:\n  dup3\n  dup1\n  add\n  0x01\n  add\n  dup6\n  sstore\n  dup3\n  iszero\n  tag_32\n  jumpi\n  swap2\n  dup3\n  add\ntag_35:\n  dup3\n  dup2\n  gt\n  iszero\n  tag_36\n  jumpi\n  dup3\n  mload\n  dup3\n  sstore\n  swap2\n  0x20\n  add\n  swap2\n  swap1\n  0x01\n  add\n  swap1\n  jump(tag_35)\ntag_36:\ntag_32:\n  pop\n  swap1\n  pop\n  tag_37\n  swap2\n  swap1\n  tag_38\n  jump\t// in\ntag_37:\n  pop\n  swap1\n  jump\t// out\ntag_38:\ntag_39:\n  dup1\n  dup3\n  gt\n  iszero\n  tag_40\n  jumpi\n  0x00\n  dup2\n  0x00\n  swap1\n  sstore\n  pop\n  0x01\n  add\n  jump(tag_39)\ntag_40:\n  pop\n  swap1\n  jump\t// out\n    /* \"#utility.yul\":7:150   */\ntag_42:\n    /* \"#utility.yul\":64:69   */\n  0x00\n    /* \"#utility.yul\":95:101   */\n  dup2\n    /* \"#utility.yul\":89:102   */\n  mload\n    /* \"#utility.yul\":80:102   */\n  swap1\n  pop\n    /* \"#utility.yul\":111:144   */\n  tag_44\n    /* \"#utility.yul\":138:143   */\n  dup2\n    /* \"#utility.yul\":111:144   */\n  tag_45\n  jump\t// in\ntag_44:\n    /* \"#utility.yul\":7:150   */\n  swap3\n  swap2\n  pop\n  pop\n  jump\t// out\n    /* \"#utility.yul\":156:507   */\ntag_3:\n    /* \"#utility.yul\":226:232   */\n  0x00\n    /* \"#utility.yul\":275:277   */\n  0x20\n    /* \"#utility.yul\":263:272   */\n  dup3\n    /* \"#utility.yul\":254:261   */\n  dup5\n    /* \"#utility.yul\":250:273   */\n  sub\n    /* \"#utility.yul\":246:278   */\n  slt\n    /* \"#utility.yul\":243:362   */\n  iszero\n  tag_47\n  jumpi\n    /* \"#utility.yul\":281:360   */\n  tag_48\n  tag_49\n  jump\t// in\ntag_48:\n    /* \"#utility.yul\":243:362   */\ntag_47:\n    /* \"#utility.yul\":401:402   */\n  0x00\n    /* \"#utility.yul\":426:490   */\n  tag_50\n    /* \"#utility.yul\":482:489   */\n  dup5\n    /* \"#utility.yul\":473:479   */\n  dup3\n    /* \"#utility.yul\":462:471   */\n  dup6\n    /* \"#utility.yul\":458:480   */\n  add\n    /* \"#utility.yul\":426:490   */\n  tag_42\n  jump\t// in\ntag_50:\n    /* \"#utility.yul\":416:490   */\n  swap2\n  pop\n    /* \"#utility.yul\":372:500   */\n  pop\n    /* \"#utility.yul\":156:507   */\n  swap3\n  swap2\n  pop\n  pop\n  jump\t// out\n    /* \"#utility.yul\":513:879   */\ntag_51:\n    /* \"#utility.yul\":655:658   */\n  0x00\n    /* \"#utility.yul\":676:743   */\n  tag_53\n    /* \"#utility.yul\":740:742   */\n  0x1f\n    /* \"#utility.yul\":735:738   */\n  dup4\n    /* \"#utility.yul\":676:743   */\n  tag_54\n  jump\t// in\ntag_53:\n    /* \"#utility.yul\":669:743   */\n  swap2\n  pop\n    /* \"#utility.yul\":752:845   */\n  tag_55\n    /* \"#utility.yul\":841:844   */\n  dup3\n    /* \"#utility.yul\":752:845   */\n  tag_56\n  jump\t// in\ntag_55:\n    /* \"#utility.yul\":870:872   */\n  0x20\n    /* \"#utility.yul\":865:868   */\n  dup3\n    /* \"#utility.yul\":861:873   */\n  add\n    /* \"#utility.yul\":854:873   */\n  swap1\n  pop\n    /* \"#utility.yul\":513:879   */\n  swap2\n  swap1\n  pop\n  jump\t// out\n    /* \"#utility.yul\":885:1003   */\ntag_57:\n    /* \"#utility.yul\":972:996   */\n  tag_59\n    /* \"#utility.yul\":990:995   */\n  dup2\n    /* \"#utility.yul\":972:996   */\n  tag_60\n  jump\t// in\ntag_59:\n    /* \"#utility.yul\":967:970   */\n  dup3\n    /* \"#utility.yul\":960:997   */\n  mstore\n    /* \"#utility.yul\":885:1003   */\n  pop\n  pop\n  jump\t// out\n    /* \"#utility.yul\":1009:1428   */\ntag_19:\n    /* \"#utility.yul\":1175:1179   */\n  0x00\n    /* \"#utility.yul\":1213:1215   */\n  0x20\n    /* \"#utility.yul\":1202:1211   */\n  dup3\n    /* \"#utility.yul\":1198:1216   */\n  add\n    /* \"#utility.yul\":1190:1216   */\n  swap1\n  pop\n    /* \"#utility.yul\":1262:1271   */\n  dup2\n    /* \"#utility.yul\":1256:1260   */\n  dup2\n    /* \"#utility.yul\":1252:1272   */\n  sub\n    /* \"#utility.yul\":1248:1249   */\n  0x00\n    /* \"#utility.yul\":1237:1246   */\n  dup4\n    /* \"#utility.yul\":1233:1250   */\n  add\n    /* \"#utility.yul\":1226:1273   */\n  mstore\n    /* \"#utility.yul\":1290:1421   */\n  tag_62\n    /* \"#utility.yul\":1416:1420   */\n  dup2\n    /* \"#utility.yul\":1290:1421   */\n  tag_51\n  jump\t// in\ntag_62:\n    /* \"#utility.yul\":1282:1421   */\n  swap1\n  pop\n    /* \"#utility.yul\":1009:1428   */\n  swap2\n  swap1\n  pop\n  jump\t// out\n    /* \"#utility.yul\":1434:1656   */\ntag_25:\n    /* \"#utility.yul\":1527:1531   */\n  0x00\n    /* \"#utility.yul\":1565:1567   */\n  0x20\n    /* \"#utility.yul\":1554:1563   */\n  dup3\n    /* \"#utility.yul\":1550:1568   */\n  add\n    /* \"#utility.yul\":1542:1568   */\n  swap1\n  pop\n    /* \"#utility.yul\":1578:1649   */\n  tag_64\n    /* \"#utility.yul\":1646:1647   */\n  0x00\n    /* \"#utility.yul\":1635:1644   */\n  dup4\n    /* \"#utility.yul\":1631:1648   */\n  add\n    /* \"#utility.yul\":1622:1628   */\n  dup5\n    /* \"#utility.yul\":1578:1649   */\n  tag_57\n  jump\t// in\ntag_64:\n    /* \"#utility.yul\":1434:1656   */\n  swap3\n  swap2\n  pop\n  pop\n  jump\t// out\n    /* \"#utility.yul\":1743:1912   */\ntag_54:\n    /* \"#utility.yul\":1827:1838   */\n  0x00\n    /* \"#utility.yul\":1861:1867   */\n  dup3\n    /* \"#utility.yul\":1856:1859   */\n  dup3\n    /* \"#utility.yul\":1849:1868   */\n  mstore\n    /* \"#utility.yul\":1901:1905   */\n  0x20\n    /* \"#utility.yul\":1896:1899   */\n  dup3\n    /* \"#utility.yul\":1892:1906   */\n  add\n    /* \"#utility.yul\":1877:1906   */\n  swap1\n  pop\n    /* \"#utility.yul\":1743:1912   */\n  swap3\n  swap2\n  pop\n  pop\n  jump\t// out\n    /* \"#utility.yul\":1918:2223   */\ntag_23:\n    /* \"#utility.yul\":1958:1961   */\n  0x00\n    /* \"#utility.yul\":1977:1997   */\n  tag_69\n    /* \"#utility.yul\":1995:1996   */\n  dup3\n    /* \"#utility.yul\":1977:1997   */\n  tag_60\n  jump\t// in\ntag_69:\n    /* \"#utility.yul\":1972:1997   */\n  swap2\n  pop\n    /* \"#utility.yul\":2011:2031   */\n  tag_70\n    /* \"#utility.yul\":2029:2030   */\n  dup4\n    /* \"#utility.yul\":2011:2031   */\n  tag_60\n  jump\t// in\ntag_70:\n    /* \"#utility.yul\":2006:2031   */\n  swap3\n  pop\n    /* \"#utility.yul\":2165:2166   */\n  dup3\n    /* \"#utility.yul\":2097:2163   */\n  0xffffffffffffffffffffffffffffffffffffffffffffffffffffffffffffffff\n    /* \"#utility.yul\":2093:2167   */\n  sub\n    /* \"#utility.yul\":2090:2091   */\n  dup3\n    /* \"#utility.yul\":2087:2168   */\n  gt\n    /* \"#utility.yul\":2084:2191   */\n  iszero\n  tag_71\n  jumpi\n    /* \"#utility.yul\":2171:2189   */\n  tag_72\n  tag_73\n  jump\t// in\ntag_72:\n    /* \"#utility.yul\":2084:2191   */\ntag_71:\n    /* \"#utility.yul\":2215:2216   */\n  dup3\n    /* \"#utility.yul\":2212:2213   */\n  dup3\n    /* \"#utility.yul\":2208:2217   */\n  add\n    /* \"#utility.yul\":2201:2217   */\n  swap1\n  pop\n    /* \"#utility.yul\":1918:2223   */\n  swap3\n  swap2\n  pop\n  pop\n  jump\t// out\n    /* \"#utility.yul\":2229:2577   */\ntag_13:\n    /* \"#utility.yul\":2269:2276   */\n  0x00\n    /* \"#utility.yul\":2292:2312   */\n  tag_75\n    /* \"#utility.yul\":2310:2311   */\n  dup3\n    /* \"#utility.yul\":2292:2312   */\n  tag_60\n  jump\t// in\ntag_75:\n    /* \"#utility.yul\":2287:2312   */\n  swap2\n  pop\n    /* \"#utility.yul\":2326:2346   */\n  tag_76\n    /* \"#utility.yul\":2344:2345   */\n  dup4\n    /* \"#utility.yul\":2326:2346   */\n  tag_60\n  jump\t// in\ntag_76:\n    /* \"#utility.yul\":2321:2346   */\n  swap3\n  pop\n    /* \"#utility.yul\":2514:2515   */\n  dup2\n    /* \"#utility.yul\":2446:2512   */\n  0xffffffffffffffffffffffffffffffffffffffffffffffffffffffffffffffff\n    /* \"#utility.yul\":2442:2516   */\n  div\n    /* \"#utility.yul\":2439:2440   */\n  dup4\n    /* \"#utility.yul\":2436:2517   */\n  gt\n    /* \"#utility.yul\":2431:2432   */\n  dup3\n    /* \"#utility.yul\":2424:2433   */\n  iszero\n    /* \"#utility.yul\":2417:2434   */\n  iszero\n    /* \"#utility.yul\":2413:2518   */\n  and\n    /* \"#utility.yul\":2410:2541   */\n  iszero\n  tag_77\n  jumpi\n    /* \"#utility.yul\":2521:2539   */\n  tag_78\n  tag_73\n  jump\t// in\ntag_78:\n    /* \"#utility.yul\":2410:2541   */\ntag_77:\n    /* \"#utility.yul\":2569:2570   */\n  dup3\n    /* \"#utility.yul\":2566:2567   */\n  dup3\n    /* \"#utility.yul\":2562:2571   */\n  mul\n    /* \"#utility.yul\":2551:2571   */\n  swap1\n  pop\n    /* \"#utility.yul\":2229:2577   */\n  swap3\n  swap2\n  pop\n  pop\n  jump\t// out\n    /* \"#utility.yul\":2583:2660   */\ntag_60:\n    /* \"#utility.yul\":2620:2627   */\n  0x00\n    /* \"#utility.yul\":2649:2654   */\n  dup2\n    /* \"#utility.yul\":2638:2654   */\n  swap1\n  pop\n    /* \"#utility.yul\":2583:2660   */\n  swap2\n  swap1\n  pop\n  jump\t// out\n    /* \"#utility.yul\":2666:2986   */\ntag_31:\n    /* \"#utility.yul\":2710:2716   */\n  0x00\n    /* \"#utility.yul\":2747:2748   */\n  0x02\n    /* \"#utility.yul\":2741:2745   */\n  dup3\n    /* \"#utility.yul\":2737:2749   */\n  div\n    /* \"#utility.yul\":2727:2749   */\n  swap1\n  pop\n    /* \"#utility.yul\":2794:2795   */\n  0x01\n    /* \"#utility.yul\":2788:2792   */\n  dup3\n    /* \"#utility.yul\":2784:2796   */\n  and\n    /* \"#utility.yul\":2815:2833   */\n  dup1\n    /* \"#utility.yul\":2805:2886   */\n  tag_81\n  jumpi\n    /* \"#utility.yul\":2871:2875   */\n  0x7f\n    /* \"#utility.yul\":2863:2869   */\n  dup3\n    /* \"#utility.yul\":2859:2876   */\n  and\n    /* \"#utility.yul\":2849:2876   */\n  swap2\n  pop\n    /* \"#utility.yul\":2805:2886   */\ntag_81:\n    /* \"#utility.yul\":2933:2935   */\n  0x20\n    /* \"#utility.yul\":2925:2931   */\n  dup3\n    /* \"#utility.yul\":2922:2936   */\n  lt\n    /* \"#utility.yul\":2902:2920   */\n  dup2\n    /* \"#utility.yul\":2899:2937   */\n  eq\n    /* \"#utility.yul\":2896:2980   */\n  iszero\n  tag_82\n  jumpi\n    /* \"#utility.yul\":2952:2970   */\n  tag_83\n  tag_84\n  jump\t// in\ntag_83:\n    /* \"#utility.yul\":2896:2980   */\ntag_82:\n    /* \"#utility.yul\":2717:2986   */\n  pop\n    /* \"#utility.yul\":2666:2986   */\n  swap2\n  swap1\n  pop\n  jump\t// out\n    /* \"#utility.yul\":2992:3172   */\ntag_73:\n    /* \"#utility.yul\":3040:3117   */\n  0x4e487b7100000000000000000000000000000000000000000000000000000000\n    /* \"#utility.yul\":3037:3038   */\n  0x00\n    /* \"#utility.yul\":3030:3118   */\n  mstore\n    /* \"#utility.yul\":3137:3141   */\n  0x11\n    /* \"#utility.yul\":3134:3135   */\n  0x04\n    /* \"#utility.yul\":3127:3142   */\n  mstore\n    /* \"#utility.yul\":3161:3165   */\n  0x24\n    /* \"#utility.yul\":3158:3159   */\n  0x00\n    /* \"#utility.yul\":3151:3166   */\n  revert\n    /* \"#utility.yul\":3178:3358   */\ntag_84:\n    /* \"#utility.yul\":3226:3303   */\n  0x4e487b7100000000000000000000000000000000000000000000000000000000\n    /* \"#utility.yul\":3223:3224   */\n  0x00\n    /* \"#utility.yul\":3216:3304   */\n  mstore\n    /* \"#utility.yul\":3323:3327   */\n  0x22\n    /* \"#utility.yul\":3320:3321   */\n  0x04\n    /* \"#utility.yul\":3313:3328   */\n  mstore\n    /* \"#utility.yul\":3347:3351   */\n  0x24\n    /* \"#utility.yul\":3344:3345   */\n  0x00\n    /* \"#utility.yul\":3337:3352   */\n  revert\n    /* \"#utility.yul\":3487:3604   */\ntag_49:\n    /* \"#utility.yul\":3596:3597   */\n  0x00\n    /* \"#utility.yul\":3593:3594   */\n  dup1\n    /* \"#utility.yul\":3586:3598   */\n  revert\n    /* \"#utility.yul\":3610:3791   */\ntag_56:\n    /* \"#utility.yul\":3750:3783   */\n  0x45524332303a206d696e7420746f20746865207a65726f206164647265737300\n    /* \"#utility.yul\":3746:3747   */\n  0x00\n    /* \"#utility.yul\":3738:3744   */\n  dup3\n    /* \"#utility.yul\":3734:3748   */\n  add\n    /* \"#utility.yul\":3727:3784   */\n  mstore\n    /* \"#utility.yul\":3610:3791   */\n  pop\n  jump\t// out\n    /* \"#utility.yul\":3797:3919   */\ntag_45:\n    /* \"#utility.yul\":3870:3894   */\n  tag_92\n    /* \"#utility.yul\":3888:3893   */\n  dup2\n    /* \"#utility.yul\":3870:3894   */\n  tag_60\n  jump\t// in\ntag_92:\n    /* \"#utility.yul\":3863:3868   */\n  dup2\n    /* \"#utility.yul\":3860:3895   */\n  eq\n    /* \"#utility.yul\":3850:3913   */\n  tag_93\n  jumpi\n    /* \"#utility.yul\":3909:3910   */\n  0x00\n    /* \"#utility.yul\":3906:3907   */\n  dup1\n    /* \"#utility.yul\":3899:3911   */\n  revert\n    /* \"#utility.yul\":3850:3913   */\ntag_93:\n    /* \"#utility.yul\":3797:3919   */\n  pop\n  jump\t// out\n    /* \"contracts/MyGov.sol\":327:3979  contract MyGovToken is ERC20(\"MyGov Token\", \"MGT\"){... */\ntag_15:\n  dataSize(sub_0)\n  dup1\n  dataOffset(sub_0)\n  0x00\n  codecopy\n  0x00\n  return\nstop\n\nsub_0: assembly {\n        /* \"contracts/MyGov.sol\":327:3979  contract MyGovToken is ERC20(\"MyGov Token\", \"MGT\"){... */\n      mstore(0x40, 0x80)\n      jumpi(tag_1, lt(calldatasize, 0x04))\n      shr(0xe0, calldataload(0x00))\n      dup1\n      0x863451dd\n      gt\n      tag_37\n      jumpi\n      dup1\n      0xa9059cbb\n      gt\n      tag_38\n      jumpi\n      dup1\n      0xdd62ed3e\n      gt\n      tag_39\n      jumpi\n      dup1\n      0xdd62ed3e\n      eq\n      tag_32\n      jumpi\n      dup1\n      0xe00e03f9\n      eq\n      tag_33\n      jumpi\n      dup1\n      0xe6d68595\n      eq\n      tag_34\n      jumpi\n      dup1\n      0xef269ae3\n      eq\n      tag_35\n      jumpi\n      dup1\n      0xf22449ba\n      eq\n      tag_36\n      jumpi\n      jump(tag_1)\n    tag_39:\n      dup1\n      0xa9059cbb\n      eq\n      tag_28\n      jumpi\n      dup1\n      0xaf60d560\n      eq\n      tag_29\n      jumpi\n      dup1\n      0xbafc462d\n      eq\n      tag_30\n      jumpi\n      dup1\n      0xbf50556d\n      eq\n      tag_31\n      jumpi\n      jump(tag_1)\n    tag_38:\n      dup1\n      0x95d89b41\n      gt\n      tag_40\n      jumpi\n      dup1\n      0x95d89b41\n      eq\n      tag_23\n      jumpi\n      dup1\n      0xa1669b32\n      eq\n      tag_24\n      jumpi\n      dup1\n      0xa3ec138d\n      eq\n      tag_25\n      jumpi\n      dup1\n      0xa457c2d7\n      eq\n      tag_26\n      jumpi\n      dup1\n      0xa5e898e1\n      eq\n      tag_27\n      jumpi\n      jump(tag_1)\n    tag_40:\n      dup1\n      0x863451dd\n      eq\n      tag_19\n      jumpi\n      dup1\n      0x86e68b90\n      eq\n      tag_20\n      jumpi\n      dup1\n      0x875b5076\n      eq\n      tag_21\n      jumpi\n      dup1\n      0x8fbe3750\n      eq\n      tag_22\n      jumpi\n      jump(tag_1)\n    tag_37:\n      dup1\n      0x313ce567\n      gt\n      tag_41\n      jumpi\n      dup1\n      0x5d801b37\n      gt\n      tag_42\n      jumpi\n      dup1\n      0x5d801b37\n      eq\n      tag_14\n      jumpi\n      dup1\n      0x67c897fe\n      eq\n      tag_15\n      jumpi\n      dup1\n      0x70a08231\n      eq\n      tag_16\n      jumpi\n      dup1\n      0x70e1133c\n      eq\n      tag_17\n      jumpi\n      dup1\n      0x72a4e9ba\n      eq\n      tag_18\n      jumpi\n      jump(tag_1)\n    tag_42:\n      dup1\n      0x313ce567\n      eq\n      tag_10\n      jumpi\n      dup1\n      0x35655237\n      eq\n      tag_11\n      jumpi\n      dup1\n      0x39509351\n      eq\n      tag_12\n      jumpi\n      dup1\n      0x39c94d2d\n      eq\n      tag_13\n      jumpi\n      jump(tag_1)\n    tag_41:\n      dup1\n      0x164dfd3b\n      gt\n      tag_43\n      jumpi\n      dup1\n      0x164dfd3b\n      eq\n      tag_6\n      jumpi\n      dup1\n      0x18160ddd\n      eq\n      tag_7\n      jumpi\n      dup1\n      0x23b872dd\n      eq\n      tag_8\n      jumpi\n      dup1\n      0x23fd498b\n      eq\n      tag_9\n      jumpi\n      jump(tag_1)\n    tag_43:\n      dup1\n      0x013cf08b\n      eq\n      tag_2\n      jumpi\n      dup1\n      0x033cb2d3\n      eq\n      tag_3\n      jumpi\n      dup1\n      0x06fdde03\n      eq\n      tag_4\n      jumpi\n      dup1\n      0x095ea7b3\n      eq\n      tag_5\n      jumpi\n    tag_1:\n      0x00\n      dup1\n      revert\n        /* \"contracts/MyGov.sol\":936:963  Proposal[] public proposals */\n    tag_2:\n      callvalue\n      dup1\n      iszero\n      tag_44\n      jumpi\n      0x00\n      dup1\n      revert\n    tag_44:\n      pop\n      tag_45\n      0x04\n      dup1\n      calldatasize\n      sub\n      dup2\n      add\n      swap1\n      tag_46\n      swap2\n      swap1\n      tag_47\n      jump\t// in\n    tag_46:\n      tag_48\n      jump\t// in\n    tag_45:\n      mload(0x40)\n      tag_49\n      swap5\n      swap4\n      swap3\n      swap2\n      swap1\n      tag_50\n      jump\t// in\n    tag_49:\n      mload(0x40)\n      dup1\n      swap2\n      sub\n      swap1\n      return\n        /* \"contracts/MyGov.sol\":2523:2593  function takeSurvey()public{... */\n    tag_3:\n      callvalue\n      dup1\n      iszero\n      tag_51\n      jumpi\n      0x00\n      dup1\n      revert\n    tag_51:\n      pop\n      tag_52\n      tag_53\n      jump\t// in\n    tag_52:\n      stop\n        /* \"@openzeppelin/contracts/token/ERC20/ERC20.sol\":2154:2252  function name() public view virtual override returns (string memory) {... */\n    tag_4:\n      callvalue\n      dup1\n      iszero\n      tag_54\n      jumpi\n      0x00\n      dup1\n      revert\n    tag_54:\n      pop\n      tag_55\n      tag_56\n      jump\t// in\n    tag_55:\n      mload(0x40)\n      tag_57\n      swap2\n      swap1\n      tag_58\n      jump\t// in\n    tag_57:\n      mload(0x40)\n      dup1\n      swap2\n      sub\n      swap1\n      return\n        /* \"@openzeppelin/contracts/token/ERC20/ERC20.sol\":4431:4628  function approve(address spender, uint256 amount) public virtual override returns (bool) {... */\n    tag_5:\n      callvalue\n      dup1\n      iszero\n      tag_59\n      jumpi\n      0x00\n      dup1\n      revert\n    tag_59:\n      pop\n      tag_60\n      0x04\n      dup1\n      calldatasize\n      sub\n      dup2\n      add\n      swap1\n      tag_61\n      swap2\n      swap1\n      tag_62\n      jump\t// in\n    tag_61:\n      tag_63\n      jump\t// in\n    tag_60:\n      mload(0x40)\n      tag_64\n      swap2\n      swap1\n      tag_65\n      jump\t// in\n    tag_64:\n      mload(0x40)\n      dup1\n      swap2\n      sub\n      swap1\n      return\n        /* \"contracts/MyGov.sol\":3778:3863  function getEtherReceivedByProject()public{... */\n    tag_6:\n      callvalue\n      dup1\n      iszero\n      tag_66\n      jumpi\n      0x00\n      dup1\n      revert\n    tag_66:\n      pop\n      tag_67\n      tag_68\n      jump\t// in\n    tag_67:\n      stop\n        /* \"@openzeppelin/contracts/token/ERC20/ERC20.sol\":3242:3348  function totalSupply() public view virtual override returns (uint256) {... */\n    tag_7:\n      callvalue\n      dup1\n      iszero\n      tag_69\n      jumpi\n      0x00\n      dup1\n      revert\n    tag_69:\n      pop\n      tag_70\n      tag_71\n      jump\t// in\n    tag_70:\n      mload(0x40)\n      tag_72\n      swap2\n      swap1\n      tag_73\n      jump\t// in\n    tag_72:\n      mload(0x40)\n      dup1\n      swap2\n      sub\n      swap1\n      return\n        /* \"@openzeppelin/contracts/token/ERC20/ERC20.sol\":5190:5476  function transferFrom(... */\n    tag_8:\n      callvalue\n      dup1\n      iszero\n      tag_74\n      jumpi\n      0x00\n      dup1\n      revert\n    tag_74:\n      pop\n      tag_75\n      0x04\n      dup1\n      calldatasize\n      sub\n      dup2\n      add\n      swap1\n      tag_76\n      swap2\n      swap1\n      tag_77\n      jump\t// in\n    tag_76:\n      tag_78\n      jump\t// in\n    tag_75:\n      mload(0x40)\n      tag_79\n      swap2\n      swap1\n      tag_65\n      jump\t// in\n    tag_79:\n      mload(0x40)\n      dup1\n      swap2\n      sub\n      swap1\n      return\n        /* \"contracts/MyGov.sol\":3367:3493  function getNoOfProjectProposals() public view returns (uint numofproposals){... */\n    tag_9:\n      callvalue\n      dup1\n      iszero\n      tag_80\n      jumpi\n      0x00\n      dup1\n      revert\n    tag_80:\n      pop\n      tag_81\n      tag_82\n      jump\t// in\n    tag_81:\n      mload(0x40)\n      tag_83\n      swap2\n      swap1\n      tag_73\n      jump\t// in\n    tag_83:\n      mload(0x40)\n      dup1\n      swap2\n      sub\n      swap1\n      return\n        /* \"@openzeppelin/contracts/token/ERC20/ERC20.sol\":3091:3182  function decimals() public view virtual override returns (uint8) {... */\n    tag_10:\n      callvalue\n      dup1\n      iszero\n      tag_84\n      jumpi\n      0x00\n      dup1\n      revert\n    tag_84:\n      pop\n      tag_85\n      tag_86\n      jump\t// in\n    tag_85:\n      mload(0x40)\n      tag_87\n      swap2\n      swap1\n      tag_88\n      jump\t// in\n    tag_87:\n      mload(0x40)\n      dup1\n      swap2\n      sub\n      swap1\n      return\n        /* \"contracts/MyGov.sol\":3035:3113  function getIsProjectFunded()public{... */\n    tag_11:\n      callvalue\n      dup1\n      iszero\n      tag_89\n      jumpi\n      0x00\n      dup1\n      revert\n    tag_89:\n      pop\n      tag_90\n      tag_91\n      jump\t// in\n    tag_90:\n      stop\n        /* \"@openzeppelin/contracts/token/ERC20/ERC20.sol\":5871:6105  function increaseAllowance(address spender, uint256 addedValue) public virtual returns (bool) {... */\n    tag_12:\n      callvalue\n      dup1\n      iszero\n      tag_92\n      jumpi\n      0x00\n      dup1\n      revert\n    tag_92:\n      pop\n      tag_93\n      0x04\n      dup1\n      calldatasize\n      sub\n      dup2\n      add\n      swap1\n      tag_94\n      swap2\n      swap1\n      tag_62\n      jump\t// in\n    tag_94:\n      tag_95\n      jump\t// in\n    tag_93:\n      mload(0x40)\n      tag_96\n      swap2\n      swap1\n      tag_65\n      jump\t// in\n    tag_96:\n      mload(0x40)\n      dup1\n      swap2\n      sub\n      swap1\n      return\n        /* \"contracts/MyGov.sol\":1511:1602  function donateMyGovToken(uint amount) public {... */\n    tag_13:\n      callvalue\n      dup1\n      iszero\n      tag_97\n      jumpi\n      0x00\n      dup1\n      revert\n    tag_97:\n      pop\n      tag_98\n      0x04\n      dup1\n      calldatasize\n      sub\n      dup2\n      add\n      swap1\n      tag_99\n      swap2\n      swap1\n      tag_47\n      jump\t// in\n    tag_99:\n      tag_100\n      jump\t// in\n    tag_98:\n      stop\n        /* \"contracts/MyGov.sol\":3869:3977  function getNoOfSurveys() public view returns (uint numsurveys) {... */\n    tag_14:\n      callvalue\n      dup1\n      iszero\n      tag_101\n      jumpi\n      0x00\n      dup1\n      revert\n    tag_101:\n      pop\n      tag_102\n      tag_103\n      jump\t// in\n    tag_102:\n      mload(0x40)\n      tag_104\n      swap2\n      swap1\n      tag_73\n      jump\t// in\n    tag_104:\n      mload(0x40)\n      dup1\n      swap2\n      sub\n      swap1\n      return\n        /* \"contracts/MyGov.sol\":3287:3361  function getProjectInfo()public{... */\n    tag_15:\n      callvalue\n      dup1\n      iszero\n      tag_105\n      jumpi\n      0x00\n      dup1\n      revert\n    tag_105:\n      pop\n      tag_106\n      tag_107\n      jump\t// in\n    tag_106:\n      stop\n        /* \"@openzeppelin/contracts/token/ERC20/ERC20.sol\":3406:3531  function balanceOf(address account) public view virtual override returns (uint256) {... */\n    tag_16:\n      callvalue\n      dup1\n      iszero\n      tag_108\n      jumpi\n      0x00\n      dup1\n      revert\n    tag_108:\n      pop\n      tag_109\n      0x04\n      dup1\n      calldatasize\n      sub\n      dup2\n      add\n      swap1\n      tag_110\n      swap2\n      swap1\n      tag_111\n      jump\t// in\n    tag_110:\n      tag_112\n      jump\t// in\n    tag_109:\n      mload(0x40)\n      tag_113\n      swap2\n      swap1\n      tag_73\n      jump\t// in\n    tag_113:\n      mload(0x40)\n      dup1\n      swap2\n      sub\n      swap1\n      return\n        /* \"contracts/MyGov.sol\":2684:2766  function withdrawProjectPayment()public{... */\n    tag_17:\n      callvalue\n      dup1\n      iszero\n      tag_114\n      jumpi\n      0x00\n      dup1\n      revert\n    tag_114:\n      pop\n      tag_115\n      tag_116\n      jump\t// in\n    tag_115:\n      stop\n        /* \"contracts/MyGov.sol\":1868:1949  function voteForProjectPayment()public{... */\n    tag_18:\n      callvalue\n      dup1\n      iszero\n      tag_117\n      jumpi\n      0x00\n      dup1\n      revert\n    tag_117:\n      pop\n      tag_118\n      tag_119\n      jump\t// in\n    tag_118:\n      stop\n        /* \"contracts/MyGov.sol\":1424:1505  function donateEther() external payable {... */\n    tag_19:\n      tag_120\n      tag_121\n      jump\t// in\n    tag_120:\n      stop\n        /* \"contracts/MyGov.sol\":969:992  Survey[] public surveys */\n    tag_20:\n      callvalue\n      dup1\n      iszero\n      tag_122\n      jumpi\n      0x00\n      dup1\n      revert\n    tag_122:\n      pop\n      tag_123\n      0x04\n      dup1\n      calldatasize\n      sub\n      dup2\n      add\n      swap1\n      tag_124\n      swap2\n      swap1\n      tag_47\n      jump\t// in\n    tag_124:\n      tag_125\n      jump\t// in\n    tag_123:\n      mload(0x40)\n      tag_126\n      swap2\n      swap1\n      tag_127\n      jump\t// in\n    tag_126:\n      mload(0x40)\n      dup1\n      swap2\n      sub\n      swap1\n      return\n        /* \"contracts/MyGov.sol\":2933:3029  function getSurveyOwner(uint surveyid) public view returns(address surveyowner) {... */\n    tag_21:\n      callvalue\n      dup1\n      iszero\n      tag_128\n      jumpi\n      0x00\n      dup1\n      revert\n    tag_128:\n      pop\n      tag_129\n      0x04\n      dup1\n      calldatasize\n      sub\n      dup2\n      add\n      swap1\n      tag_130\n      swap2\n      swap1\n      tag_47\n      jump\t// in\n    tag_130:\n      tag_131\n      jump\t// in\n    tag_129:\n      mload(0x40)\n      tag_132\n      swap2\n      swap1\n      tag_133\n      jump\t// in\n    tag_132:\n      mload(0x40)\n      dup1\n      swap2\n      sub\n      swap1\n      return\n        /* \"contracts/MyGov.sol\":2772:2848  function getSurveyResults()public{... */\n    tag_22:\n      callvalue\n      dup1\n      iszero\n      tag_134\n      jumpi\n      0x00\n      dup1\n      revert\n    tag_134:\n      pop\n      tag_135\n      tag_136\n      jump\t// in\n    tag_135:\n      stop\n        /* \"@openzeppelin/contracts/token/ERC20/ERC20.sol\":2365:2467  function symbol() public view virtual override returns (string memory) {... */\n    tag_23:\n      callvalue\n      dup1\n      iszero\n      tag_137\n      jumpi\n      0x00\n      dup1\n      revert\n    tag_137:\n      pop\n      tag_138\n      tag_139\n      jump\t// in\n    tag_138:\n      mload(0x40)\n      tag_140\n      swap2\n      swap1\n      tag_58\n      jump\t// in\n    tag_140:\n      mload(0x40)\n      dup1\n      swap2\n      sub\n      swap1\n      return\n        /* \"contracts/MyGov.sol\":999:1418  function delegateVoteTo(address memberaddr, uint projectid) public {... */\n    tag_24:\n      callvalue\n      dup1\n      iszero\n      tag_141\n      jumpi\n      0x00\n      dup1\n      revert\n    tag_141:\n      pop\n      tag_142\n      0x04\n      dup1\n      calldatasize\n      sub\n      dup2\n      add\n      swap1\n      tag_143\n      swap2\n      swap1\n      tag_62\n      jump\t// in\n    tag_143:\n      tag_144\n      jump\t// in\n    tag_142:\n      stop\n        /* \"contracts/MyGov.sol\":891:930  mapping(address => Voter) public voters */\n    tag_25:\n      callvalue\n      dup1\n      iszero\n      tag_145\n      jumpi\n      0x00\n      dup1\n      revert\n    tag_145:\n      pop\n      tag_146\n      0x04\n      dup1\n      calldatasize\n      sub\n      dup2\n      add\n      swap1\n      tag_147\n      swap2\n      swap1\n      tag_111\n      jump\t// in\n    tag_147:\n      tag_148\n      jump\t// in\n    tag_146:\n      mload(0x40)\n      tag_149\n      swap5\n      swap4\n      swap3\n      swap2\n      swap1\n      tag_150\n      jump\t// in\n    tag_149:\n      mload(0x40)\n      dup1\n      swap2\n      sub\n      swap1\n      return\n        /* \"@openzeppelin/contracts/token/ERC20/ERC20.sol\":6592:7019  function decreaseAllowance(address spender, uint256 subtractedValue) public virtual returns (bool) {... */\n    tag_26:\n      callvalue\n      dup1\n      iszero\n      tag_151\n      jumpi\n      0x00\n      dup1\n      revert\n    tag_151:\n      pop\n      tag_152\n      0x04\n      dup1\n      calldatasize\n      sub\n      dup2\n      add\n      swap1\n      tag_153\n      swap2\n      swap1\n      tag_62\n      jump\t// in\n    tag_153:\n      tag_154\n      jump\t// in\n    tag_152:\n      mload(0x40)\n      tag_155\n      swap2\n      swap1\n      tag_65\n      jump\t// in\n    tag_155:\n      mload(0x40)\n      dup1\n      swap2\n      sub\n      swap1\n      return\n        /* \"contracts/MyGov.sol\":1955:2333  function submitProjectProposal(... */\n    tag_27:\n      callvalue\n      dup1\n      iszero\n      tag_156\n      jumpi\n      0x00\n      dup1\n      revert\n    tag_156:\n      pop\n      tag_157\n      0x04\n      dup1\n      calldatasize\n      sub\n      dup2\n      add\n      swap1\n      tag_158\n      swap2\n      swap1\n      tag_159\n      jump\t// in\n    tag_158:\n      tag_160\n      jump\t// in\n    tag_157:\n      mload(0x40)\n      tag_161\n      swap2\n      swap1\n      tag_73\n      jump\t// in\n    tag_161:\n      mload(0x40)\n      dup1\n      swap2\n      sub\n      swap1\n      return\n        /* \"@openzeppelin/contracts/token/ERC20/ERC20.sol\":3727:3916  function transfer(address to, uint256 amount) public virtual override returns (bool) {... */\n    tag_28:\n      callvalue\n      dup1\n      iszero\n      tag_162\n      jumpi\n      0x00\n      dup1\n      revert\n    tag_162:\n      pop\n      tag_163\n      0x04\n      dup1\n      calldatasize\n      sub\n      dup2\n      add\n      swap1\n      tag_164\n      swap2\n      swap1\n      tag_62\n      jump\t// in\n    tag_164:\n      tag_165\n      jump\t// in\n    tag_163:\n      mload(0x40)\n      tag_166\n      swap2\n      swap1\n      tag_65\n      jump\t// in\n    tag_166:\n      mload(0x40)\n      dup1\n      swap2\n      sub\n      swap1\n      return\n        /* \"contracts/MyGov.sol\":2854:2927  function getSurveyInfo()public{... */\n    tag_29:\n      callvalue\n      dup1\n      iszero\n      tag_167\n      jumpi\n      0x00\n      dup1\n      revert\n    tag_167:\n      pop\n      tag_168\n      tag_169\n      jump\t// in\n    tag_168:\n      stop\n        /* \"contracts/MyGov.sol\":2599:2678  function reserveProjectGrant()public{... */\n    tag_30:\n      callvalue\n      dup1\n      iszero\n      tag_170\n      jumpi\n      0x00\n      dup1\n      revert\n    tag_170:\n      pop\n      tag_171\n      tag_172\n      jump\t// in\n    tag_171:\n      stop\n        /* \"contracts/MyGov.sol\":3499:3772  function getNoOfFundedProjects() public view returns (uint numfunded){... */\n    tag_31:\n      callvalue\n      dup1\n      iszero\n      tag_173\n      jumpi\n      0x00\n      dup1\n      revert\n    tag_173:\n      pop\n      tag_174\n      tag_175\n      jump\t// in\n    tag_174:\n      mload(0x40)\n      tag_176\n      swap2\n      swap1\n      tag_73\n      jump\t// in\n    tag_176:\n      mload(0x40)\n      dup1\n      swap2\n      sub\n      swap1\n      return\n        /* \"@openzeppelin/contracts/token/ERC20/ERC20.sol\":3974:4123  function allowance(address owner, address spender) public view virtual override returns (uint256) {... */\n    tag_32:\n      callvalue\n      dup1\n      iszero\n      tag_177\n      jumpi\n      0x00\n      dup1\n      revert\n    tag_177:\n      pop\n      tag_178\n      0x04\n      dup1\n      calldatasize\n      sub\n      dup2\n      add\n      swap1\n      tag_179\n      swap2\n      swap1\n      tag_180\n      jump\t// in\n    tag_179:\n      tag_181\n      jump\t// in\n    tag_178:\n      mload(0x40)\n      tag_182\n      swap2\n      swap1\n      tag_73\n      jump\t// in\n    tag_182:\n      mload(0x40)\n      dup1\n      swap2\n      sub\n      swap1\n      return\n        /* \"contracts/MyGov.sol\":3119:3200  function getProjectNextPayment()public{... */\n    tag_33:\n      callvalue\n      dup1\n      iszero\n      tag_183\n      jumpi\n      0x00\n      dup1\n      revert\n    tag_183:\n      pop\n      tag_184\n      tag_185\n      jump\t// in\n    tag_184:\n      stop\n        /* \"contracts/MyGov.sol\":3206:3281  function getProjectOwner()public{... */\n    tag_34:\n      callvalue\n      dup1\n      iszero\n      tag_186\n      jumpi\n      0x00\n      dup1\n      revert\n    tag_186:\n      pop\n      tag_187\n      tag_188\n      jump\t// in\n    tag_187:\n      stop\n        /* \"contracts/MyGov.sol\":2339:2517  function submitSurvey(... */\n    tag_35:\n      callvalue\n      dup1\n      iszero\n      tag_189\n      jumpi\n      0x00\n      dup1\n      revert\n    tag_189:\n      pop\n      tag_190\n      0x04\n      dup1\n      calldatasize\n      sub\n      dup2\n      add\n      swap1\n      tag_191\n      swap2\n      swap1\n      tag_192\n      jump\t// in\n    tag_191:\n      tag_193\n      jump\t// in\n    tag_190:\n      mload(0x40)\n      tag_194\n      swap2\n      swap1\n      tag_73\n      jump\t// in\n    tag_194:\n      mload(0x40)\n      dup1\n      swap2\n      sub\n      swap1\n      return\n        /* \"contracts/MyGov.sol\":1608:1862  function voteForProjectProposal(uint projectid, bool choice) public {... */\n    tag_36:\n      callvalue\n      dup1\n      iszero\n      tag_195\n      jumpi\n      0x00\n      dup1\n      revert\n    tag_195:\n      pop\n      tag_196\n      0x04\n      dup1\n      calldatasize\n      sub\n      dup2\n      add\n      swap1\n      tag_197\n      swap2\n      swap1\n      tag_198\n      jump\t// in\n    tag_197:\n      tag_199\n      jump\t// in\n    tag_196:\n      stop\n        /* \"contracts/MyGov.sol\":936:963  Proposal[] public proposals */\n    tag_48:\n      0x07\n      dup2\n      dup2\n      sload\n      dup2\n      lt\n      tag_200\n      jumpi\n      0x00\n      dup1\n      revert\n    tag_200:\n      swap1\n      0x00\n      mstore\n      keccak256(0x00, 0x20)\n      swap1\n      0x03\n      mul\n      add\n      0x00\n      swap2\n      pop\n      swap1\n      pop\n      dup1\n      0x00\n      add\n      dup1\n      sload\n      tag_202\n      swap1\n      tag_203\n      jump\t// in\n    tag_202:\n      dup1\n      0x1f\n      add\n      0x20\n      dup1\n      swap2\n      div\n      mul\n      0x20\n      add\n      mload(0x40)\n      swap1\n      dup2\n      add\n      0x40\n      mstore\n      dup1\n      swap3\n      swap2\n      swap1\n      dup2\n      dup2\n      mstore\n      0x20\n      add\n      dup3\n      dup1\n      sload\n      tag_204\n      swap1\n      tag_203\n      jump\t// in\n    tag_204:\n      dup1\n      iszero\n      tag_205\n      jumpi\n      dup1\n      0x1f\n      lt\n      tag_206\n      jumpi\n      0x0100\n      dup1\n      dup4\n      sload\n      div\n      mul\n      dup4\n      mstore\n      swap2\n      0x20\n      add\n      swap2\n      jump(tag_205)\n    tag_206:\n      dup3\n      add\n      swap2\n      swap1\n      0x00\n      mstore\n      keccak256(0x00, 0x20)\n      swap1\n    tag_207:\n      dup2\n      sload\n      dup2\n      mstore\n      swap1\n      0x01\n      add\n      swap1\n      0x20\n      add\n      dup1\n      dup4\n      gt\n      tag_207\n      jumpi\n      dup3\n      swap1\n      sub\n      0x1f\n      and\n      dup3\n      add\n      swap2\n    tag_205:\n      pop\n      pop\n      pop\n      pop\n      pop\n      swap1\n      dup1\n      0x01\n      add\n      sload\n      swap1\n      dup1\n      0x02\n      add\n      0x00\n      swap1\n      sload\n      swap1\n      0x0100\n      exp\n      swap1\n      div\n      0xff\n      and\n      swap1\n      dup1\n      0x02\n      add\n      0x01\n      swap1\n      sload\n      swap1\n      0x0100\n      exp\n      swap1\n      div\n      0xff\n      and\n      swap1\n      pop\n      dup5\n      jump\t// out\n        /* \"contracts/MyGov.sol\":2523:2593  function takeSurvey()public{... */\n    tag_53:\n      jump\t// out\n        /* \"@openzeppelin/contracts/token/ERC20/ERC20.sol\":2154:2252  function name() public view virtual override returns (string memory) {... */\n    tag_56:\n        /* \"@openzeppelin/contracts/token/ERC20/ERC20.sol\":2208:2221  string memory */\n      0x60\n        /* \"@openzeppelin/contracts/token/ERC20/ERC20.sol\":2240:2245  _name */\n      0x03\n        /* \"@openzeppelin/contracts/token/ERC20/ERC20.sol\":2233:2245  return _name */\n      dup1\n      sload\n      tag_210\n      swap1\n      tag_203\n      jump\t// in\n    tag_210:\n      dup1\n      0x1f\n      add\n      0x20\n      dup1\n      swap2\n      div\n      mul\n      0x20\n      add\n      mload(0x40)\n      swap1\n      dup2\n      add\n      0x40\n      mstore\n      dup1\n      swap3\n      swap2\n      swap1\n      dup2\n      dup2\n      mstore\n      0x20\n      add\n      dup3\n      dup1\n      sload\n      tag_211\n      swap1\n      tag_203\n      jump\t// in\n    tag_211:\n      dup1\n      iszero\n      tag_212\n      jumpi\n      dup1\n      0x1f\n      lt\n      tag_213\n      jumpi\n      0x0100\n      dup1\n      dup4\n      sload\n      div\n      mul\n      dup4\n      mstore\n      swap2\n      0x20\n      add\n      swap2\n      jump(tag_212)\n    tag_213:\n      dup3\n      add\n      swap2\n      swap1\n      0x00\n      mstore\n      keccak256(0x00, 0x20)\n      swap1\n    tag_214:\n      dup2\n      sload\n      dup2\n      mstore\n      swap1\n      0x01\n      add\n      swap1\n      0x20\n      add\n      dup1\n      dup4\n      gt\n      tag_214\n      jumpi\n      dup3\n      swap1\n      sub\n      0x1f\n      and\n      dup3\n      add\n      swap2\n    tag_212:\n      pop\n      pop\n      pop\n      pop\n      pop\n      swap1\n      pop\n        /* \"@openzeppelin/contracts/token/ERC20/ERC20.sol\":2154:2252  function name() public view virtual override returns (string memory) {... */\n      swap1\n      jump\t// out\n        /* \"@openzeppelin/contracts/token/ERC20/ERC20.sol\":4431:4628  function approve(address spender, uint256 amount) public virtual override returns (bool) {... */\n    tag_63:\n        /* \"@openzeppelin/contracts/token/ERC20/ERC20.sol\":4514:4518  bool */\n      0x00\n        /* \"@openzeppelin/contracts/token/ERC20/ERC20.sol\":4530:4543  address owner */\n      dup1\n        /* \"@openzeppelin/contracts/token/ERC20/ERC20.sol\":4546:4558  _msgSender() */\n      tag_216\n        /* \"@openzeppelin/contracts/token/ERC20/ERC20.sol\":4546:4556  _msgSender */\n      tag_217\n        /* \"@openzeppelin/contracts/token/ERC20/ERC20.sol\":4546:4558  _msgSender() */\n      jump\t// in\n    tag_216:\n        /* \"@openzeppelin/contracts/token/ERC20/ERC20.sol\":4530:4558  address owner = _msgSender() */\n      swap1\n      pop\n        /* \"@openzeppelin/contracts/token/ERC20/ERC20.sol\":4568:4600  _approve(owner, spender, amount) */\n      tag_218\n        /* \"@openzeppelin/contracts/token/ERC20/ERC20.sol\":4577:4582  owner */\n      dup2\n        /* \"@openzeppelin/contracts/token/ERC20/ERC20.sol\":4584:4591  spender */\n      dup6\n        /* \"@openzeppelin/contracts/token/ERC20/ERC20.sol\":4593:4599  amount */\n      dup6\n        /* \"@openzeppelin/contracts/token/ERC20/ERC20.sol\":4568:4576  _approve */\n      tag_219\n        /* \"@openzeppelin/contracts/token/ERC20/ERC20.sol\":4568:4600  _approve(owner, spender, amount) */\n      jump\t// in\n    tag_218:\n        /* \"@openzeppelin/contracts/token/ERC20/ERC20.sol\":4617:4621  true */\n      0x01\n        /* \"@openzeppelin/contracts/token/ERC20/ERC20.sol\":4610:4621  return true */\n      swap2\n      pop\n      pop\n        /* \"@openzeppelin/contracts/token/ERC20/ERC20.sol\":4431:4628  function approve(address spender, uint256 amount) public virtual override returns (bool) {... */\n      swap3\n      swap2\n      pop\n      pop\n      jump\t// out\n        /* \"contracts/MyGov.sol\":3778:3863  function getEtherReceivedByProject()public{... */\n    tag_68:\n      jump\t// out\n        /* \"@openzeppelin/contracts/token/ERC20/ERC20.sol\":3242:3348  function totalSupply() public view virtual override returns (uint256) {... */\n    tag_71:\n        /* \"@openzeppelin/contracts/token/ERC20/ERC20.sol\":3303:3310  uint256 */\n      0x00\n        /* \"@openzeppelin/contracts/token/ERC20/ERC20.sol\":3329:3341  _totalSupply */\n      sload(0x02)\n        /* \"@openzeppelin/contracts/token/ERC20/ERC20.sol\":3322:3341  return _totalSupply */\n      swap1\n      pop\n        /* \"@openzeppelin/contracts/token/ERC20/ERC20.sol\":3242:3348  function totalSupply() public view virtual override returns (uint256) {... */\n      swap1\n      jump\t// out\n        /* \"@openzeppelin/contracts/token/ERC20/ERC20.sol\":5190:5476  function transferFrom(... */\n    tag_78:\n        /* \"@openzeppelin/contracts/token/ERC20/ERC20.sol\":5317:5321  bool */\n      0x00\n        /* \"@openzeppelin/contracts/token/ERC20/ERC20.sol\":5333:5348  address spender */\n      dup1\n        /* \"@openzeppelin/contracts/token/ERC20/ERC20.sol\":5351:5363  _msgSender() */\n      tag_223\n        /* \"@openzeppelin/contracts/token/ERC20/ERC20.sol\":5351:5361  _msgSender */\n      tag_217\n        /* \"@openzeppelin/contracts/token/ERC20/ERC20.sol\":5351:5363  _msgSender() */\n      jump\t// in\n    tag_223:\n        /* \"@openzeppelin/contracts/token/ERC20/ERC20.sol\":5333:5363  address spender = _msgSender() */\n      swap1\n      pop\n        /* \"@openzeppelin/contracts/token/ERC20/ERC20.sol\":5373:5411  _spendAllowance(from, spender, amount) */\n      tag_224\n        /* \"@openzeppelin/contracts/token/ERC20/ERC20.sol\":5389:5393  from */\n      dup6\n        /* \"@openzeppelin/contracts/token/ERC20/ERC20.sol\":5395:5402  spender */\n      dup3\n        /* \"@openzeppelin/contracts/token/ERC20/ERC20.sol\":5404:5410  amount */\n      dup6\n        /* \"@openzeppelin/contracts/token/ERC20/ERC20.sol\":5373:5388  _spendAllowance */\n      tag_225\n        /* \"@openzeppelin/contracts/token/ERC20/ERC20.sol\":5373:5411  _spendAllowance(from, spender, amount) */\n      jump\t// in\n    tag_224:\n        /* \"@openzeppelin/contracts/token/ERC20/ERC20.sol\":5421:5448  _transfer(from, to, amount) */\n      tag_226\n        /* \"@openzeppelin/contracts/token/ERC20/ERC20.sol\":5431:5435  from */\n      dup6\n        /* \"@openzeppelin/contracts/token/ERC20/ERC20.sol\":5437:5439  to */\n      dup6\n        /* \"@openzeppelin/contracts/token/ERC20/ERC20.sol\":5441:5447  amount */\n      dup6\n        /* \"@openzeppelin/contracts/token/ERC20/ERC20.sol\":5421:5430  _transfer */\n      tag_227\n        /* \"@openzeppelin/contracts/token/ERC20/ERC20.sol\":5421:5448  _transfer(from, to, amount) */\n      jump\t// in\n    tag_226:\n        /* \"@openzeppelin/contracts/token/ERC20/ERC20.sol\":5465:5469  true */\n      0x01\n        /* \"@openzeppelin/contracts/token/ERC20/ERC20.sol\":5458:5469  return true */\n      swap2\n      pop\n      pop\n        /* \"@openzeppelin/contracts/token/ERC20/ERC20.sol\":5190:5476  function transferFrom(... */\n      swap4\n      swap3\n      pop\n      pop\n      pop\n      jump\t// out\n        /* \"contracts/MyGov.sol\":3367:3493  function getNoOfProjectProposals() public view returns (uint numofproposals){... */\n    tag_82:\n        /* \"contracts/MyGov.sol\":3423:3442  uint numofproposals */\n      0x00\n        /* \"contracts/MyGov.sol\":3470:3479  proposals */\n      0x07\n        /* \"contracts/MyGov.sol\":3470:3486  proposals.length */\n      dup1\n      sload\n      swap1\n      pop\n        /* \"contracts/MyGov.sol\":3453:3486  numofproposals = proposals.length */\n      swap1\n      pop\n        /* \"contracts/MyGov.sol\":3367:3493  function getNoOfProjectProposals() public view returns (uint numofproposals){... */\n      swap1\n      jump\t// out\n        /* \"@openzeppelin/contracts/token/ERC20/ERC20.sol\":3091:3182  function decimals() public view virtual override returns (uint8) {... */\n    tag_86:\n        /* \"@openzeppelin/contracts/token/ERC20/ERC20.sol\":3149:3154  uint8 */\n      0x00\n        /* \"@openzeppelin/contracts/token/ERC20/ERC20.sol\":3173:3175  18 */\n      0x12\n        /* \"@openzeppelin/contracts/token/ERC20/ERC20.sol\":3166:3175  return 18 */\n      swap1\n      pop\n        /* \"@openzeppelin/contracts/token/ERC20/ERC20.sol\":3091:3182  function decimals() public view virtual override returns (uint8) {... */\n      swap1\n      jump\t// out\n        /* \"contracts/MyGov.sol\":3035:3113  function getIsProjectFunded()public{... */\n    tag_91:\n      jump\t// out\n        /* \"@openzeppelin/contracts/token/ERC20/ERC20.sol\":5871:6105  function increaseAllowance(address spender, uint256 addedValue) public virtual returns (bool) {... */\n    tag_95:\n        /* \"@openzeppelin/contracts/token/ERC20/ERC20.sol\":5959:5963  bool */\n      0x00\n        /* \"@openzeppelin/contracts/token/ERC20/ERC20.sol\":5975:5988  address owner */\n      dup1\n        /* \"@openzeppelin/contracts/token/ERC20/ERC20.sol\":5991:6003  _msgSender() */\n      tag_232\n        /* \"@openzeppelin/contracts/token/ERC20/ERC20.sol\":5991:6001  _msgSender */\n      tag_217\n        /* \"@openzeppelin/contracts/token/ERC20/ERC20.sol\":5991:6003  _msgSender() */\n      jump\t// in\n    tag_232:\n        /* \"@openzeppelin/contracts/token/ERC20/ERC20.sol\":5975:6003  address owner = _msgSender() */\n      swap1\n      pop\n        /* \"@openzeppelin/contracts/token/ERC20/ERC20.sol\":6013:6077  _approve(owner, spender, allowance(owner, spender) + addedValue) */\n      tag_233\n        /* \"@openzeppelin/contracts/token/ERC20/ERC20.sol\":6022:6027  owner */\n      dup2\n        /* \"@openzeppelin/contracts/token/ERC20/ERC20.sol\":6029:6036  spender */\n      dup6\n        /* \"@openzeppelin/contracts/token/ERC20/ERC20.sol\":6066:6076  addedValue */\n      dup6\n        /* \"@openzeppelin/contracts/token/ERC20/ERC20.sol\":6038:6063  allowance(owner, spender) */\n      tag_234\n        /* \"@openzeppelin/contracts/token/ERC20/ERC20.sol\":6048:6053  owner */\n      dup6\n        /* \"@openzeppelin/contracts/token/ERC20/ERC20.sol\":6055:6062  spender */\n      dup10\n        /* \"@openzeppelin/contracts/token/ERC20/ERC20.sol\":6038:6047  allowance */\n      tag_181\n        /* \"@openzeppelin/contracts/token/ERC20/ERC20.sol\":6038:6063  allowance(owner, spender) */\n      jump\t// in\n    tag_234:\n        /* \"@openzeppelin/contracts/token/ERC20/ERC20.sol\":6038:6076  allowance(owner, spender) + addedValue */\n      tag_235\n      swap2\n      swap1\n      tag_236\n      jump\t// in\n    tag_235:\n        /* \"@openzeppelin/contracts/token/ERC20/ERC20.sol\":6013:6021  _approve */\n      tag_219\n        /* \"@openzeppelin/contracts/token/ERC20/ERC20.sol\":6013:6077  _approve(owner, spender, allowance(owner, spender) + addedValue) */\n      jump\t// in\n    tag_233:\n        /* \"@openzeppelin/contracts/token/ERC20/ERC20.sol\":6094:6098  true */\n      0x01\n        /* \"@openzeppelin/contracts/token/ERC20/ERC20.sol\":6087:6098  return true */\n      swap2\n      pop\n      pop\n        /* \"@openzeppelin/contracts/token/ERC20/ERC20.sol\":5871:6105  function increaseAllowance(address spender, uint256 addedValue) public virtual returns (bool) {... */\n      swap3\n      swap2\n      pop\n      pop\n      jump\t// out\n        /* \"contracts/MyGov.sol\":1511:1602  function donateMyGovToken(uint amount) public {... */\n    tag_100:\n        /* \"contracts/MyGov.sol\":1567:1595  transfer(tokenOwner, amount) */\n      tag_238\n        /* \"contracts/MyGov.sol\":1576:1586  tokenOwner */\n      0x05\n      0x00\n      swap1\n      sload\n      swap1\n      0x0100\n      exp\n      swap1\n      div\n      0xffffffffffffffffffffffffffffffffffffffff\n      and\n        /* \"contracts/MyGov.sol\":1588:1594  amount */\n      dup3\n        /* \"contracts/MyGov.sol\":1567:1575  transfer */\n      tag_165\n        /* \"contracts/MyGov.sol\":1567:1595  transfer(tokenOwner, amount) */\n      jump\t// in\n    tag_238:\n      pop\n        /* \"contracts/MyGov.sol\":1511:1602  function donateMyGovToken(uint amount) public {... */\n      pop\n      jump\t// out\n        /* \"contracts/MyGov.sol\":3869:3977  function getNoOfSurveys() public view returns (uint numsurveys) {... */\n    tag_103:\n        /* \"contracts/MyGov.sol\":3916:3931  uint numsurveys */\n      0x00\n        /* \"contracts/MyGov.sol\":3956:3963  surveys */\n      0x08\n        /* \"contracts/MyGov.sol\":3956:3970  surveys.length */\n      dup1\n      sload\n      swap1\n      pop\n        /* \"contracts/MyGov.sol\":3943:3970  numsurveys = surveys.length */\n      swap1\n      pop\n        /* \"contracts/MyGov.sol\":3869:3977  function getNoOfSurveys() public view returns (uint numsurveys) {... */\n      swap1\n      jump\t// out\n        /* \"contracts/MyGov.sol\":3287:3361  function getProjectInfo()public{... */\n    tag_107:\n      jump\t// out\n        /* \"@openzeppelin/contracts/token/ERC20/ERC20.sol\":3406:3531  function balanceOf(address account) public view virtual override returns (uint256) {... */\n    tag_112:\n        /* \"@openzeppelin/contracts/token/ERC20/ERC20.sol\":3480:3487  uint256 */\n      0x00\n        /* \"@openzeppelin/contracts/token/ERC20/ERC20.sol\":3506:3515  _balances */\n      dup1\n        /* \"@openzeppelin/contracts/token/ERC20/ERC20.sol\":3506:3524  _balances[account] */\n      0x00\n        /* \"@openzeppelin/contracts/token/ERC20/ERC20.sol\":3516:3523  account */\n      dup4\n        /* \"@openzeppelin/contracts/token/ERC20/ERC20.sol\":3506:3524  _balances[account] */\n      0xffffffffffffffffffffffffffffffffffffffff\n      and\n      0xffffffffffffffffffffffffffffffffffffffff\n      and\n      dup2\n      mstore\n      0x20\n      add\n      swap1\n      dup2\n      mstore\n      0x20\n      add\n      0x00\n      keccak256\n      sload\n        /* \"@openzeppelin/contracts/token/ERC20/ERC20.sol\":3499:3524  return _balances[account] */\n      swap1\n      pop\n        /* \"@openzeppelin/contracts/token/ERC20/ERC20.sol\":3406:3531  function balanceOf(address account) public view virtual override returns (uint256) {... */\n      swap2\n      swap1\n      pop\n      jump\t// out\n        /* \"contracts/MyGov.sol\":2684:2766  function withdrawProjectPayment()public{... */\n    tag_116:\n      jump\t// out\n        /* \"contracts/MyGov.sol\":1868:1949  function voteForProjectPayment()public{... */\n    tag_119:\n      jump\t// out\n        /* \"contracts/MyGov.sol\":1424:1505  function donateEther() external payable {... */\n    tag_121:\n        /* \"contracts/MyGov.sol\":1474:1484  tokenOwner */\n      0x05\n      0x00\n      swap1\n      sload\n      swap1\n      0x0100\n      exp\n      swap1\n      div\n      0xffffffffffffffffffffffffffffffffffffffff\n      and\n        /* \"contracts/MyGov.sol\":1474:1493  tokenOwner.transfer */\n      0xffffffffffffffffffffffffffffffffffffffff\n      and\n        /* \"contracts/MyGov.sol\":1474:1498  tokenOwner.transfer(123) */\n      0x08fc\n        /* \"contracts/MyGov.sol\":1494:1497  123 */\n      0x7b\n        /* \"contracts/MyGov.sol\":1474:1498  tokenOwner.transfer(123) */\n      swap1\n      dup2\n      iszero\n      mul\n      swap1\n      mload(0x40)\n      0x00\n      mload(0x40)\n      dup1\n      dup4\n      sub\n      dup2\n      dup6\n      dup9\n      dup9\n      call\n      swap4\n      pop\n      pop\n      pop\n      pop\n      iszero\n      dup1\n      iszero\n      tag_246\n      jumpi\n      returndatasize\n      0x00\n      dup1\n      returndatacopy\n      revert(0x00, returndatasize)\n    tag_246:\n      pop\n        /* \"contracts/MyGov.sol\":1424:1505  function donateEther() external payable {... */\n      jump\t// out\n        /* \"contracts/MyGov.sol\":969:992  Survey[] public surveys */\n    tag_125:\n      0x08\n      dup2\n      dup2\n      sload\n      dup2\n      lt\n      tag_247\n      jumpi\n      0x00\n      dup1\n      revert\n    tag_247:\n      swap1\n      0x00\n      mstore\n      keccak256(0x00, 0x20)\n      swap1\n      0x03\n      mul\n      add\n      0x00\n      swap2\n      pop\n      swap1\n      pop\n      dup1\n      0x00\n      add\n      sload\n      swap1\n      pop\n      dup2\n      jump\t// out\n        /* \"contracts/MyGov.sol\":2933:3029  function getSurveyOwner(uint surveyid) public view returns(address surveyowner) {... */\n    tag_131:\n        /* \"contracts/MyGov.sol\":2992:3011  address surveyowner */\n      0x00\n        /* \"contracts/MyGov.sol\":2933:3029  function getSurveyOwner(uint surveyid) public view returns(address surveyowner) {... */\n      swap2\n      swap1\n      pop\n      jump\t// out\n        /* \"contracts/MyGov.sol\":2772:2848  function getSurveyResults()public{... */\n    tag_136:\n      jump\t// out\n        /* \"@openzeppelin/contracts/token/ERC20/ERC20.sol\":2365:2467  function symbol() public view virtual override returns (string memory) {... */\n    tag_139:\n        /* \"@openzeppelin/contracts/token/ERC20/ERC20.sol\":2421:2434  string memory */\n      0x60\n        /* \"@openzeppelin/contracts/token/ERC20/ERC20.sol\":2453:2460  _symbol */\n      0x04\n        /* \"@openzeppelin/contracts/token/ERC20/ERC20.sol\":2446:2460  return _symbol */\n      dup1\n      sload\n      tag_252\n      swap1\n      tag_203\n      jump\t// in\n    tag_252:\n      dup1\n      0x1f\n      add\n      0x20\n      dup1\n      swap2\n      div\n      mul\n      0x20\n      add\n      mload(0x40)\n      swap1\n      dup2\n      add\n      0x40\n      mstore\n      dup1\n      swap3\n      swap2\n      swap1\n      dup2\n      dup2\n      mstore\n      0x20\n      add\n      dup3\n      dup1\n      sload\n      tag_253\n      swap1\n      tag_203\n      jump\t// in\n    tag_253:\n      dup1\n      iszero\n      tag_254\n      jumpi\n      dup1\n      0x1f\n      lt\n      tag_255\n      jumpi\n      0x0100\n      dup1\n      dup4\n      sload\n      div\n      mul\n      dup4\n      mstore\n      swap2\n      0x20\n      add\n      swap2\n      jump(tag_254)\n    tag_255:\n      dup3\n      add\n      swap2\n      swap1\n      0x00\n      mstore\n      keccak256(0x00, 0x20)\n      swap1\n    tag_256:\n      dup2\n      sload\n      dup2\n      mstore\n      swap1\n      0x01\n      add\n      swap1\n      0x20\n      add\n      dup1\n      dup4\n      gt\n      tag_256\n      jumpi\n      dup3\n      swap1\n      sub\n      0x1f\n      and\n      dup3\n      add\n      swap2\n    tag_254:\n      pop\n      pop\n      pop\n      pop\n      pop\n      swap1\n      pop\n        /* \"@openzeppelin/contracts/token/ERC20/ERC20.sol\":2365:2467  function symbol() public view virtual override returns (string memory) {... */\n      swap1\n      jump\t// out\n        /* \"contracts/MyGov.sol\":999:1418  function delegateVoteTo(address memberaddr, uint projectid) public {... */\n    tag_144:\n        /* \"contracts/MyGov.sol\":1076:1096  Voter storage sender */\n      0x00\n        /* \"contracts/MyGov.sol\":1099:1105  voters */\n      0x06\n        /* \"contracts/MyGov.sol\":1099:1117  voters[msg.sender] */\n      0x00\n        /* \"contracts/MyGov.sol\":1106:1116  msg.sender */\n      caller\n        /* \"contracts/MyGov.sol\":1099:1117  voters[msg.sender] */\n      0xffffffffffffffffffffffffffffffffffffffff\n      and\n      0xffffffffffffffffffffffffffffffffffffffff\n      and\n      dup2\n      mstore\n      0x20\n      add\n      swap1\n      dup2\n      mstore\n      0x20\n      add\n      0x00\n      keccak256\n        /* \"contracts/MyGov.sol\":1076:1117  Voter storage sender = voters[msg.sender] */\n      swap1\n      pop\n        /* \"contracts/MyGov.sol\":1136:1142  sender */\n      dup1\n        /* \"contracts/MyGov.sol\":1136:1148  sender.voted */\n      0x01\n      add\n      0x00\n      swap1\n      sload\n      swap1\n      0x0100\n      exp\n      swap1\n      div\n      0xff\n      and\n        /* \"contracts/MyGov.sol\":1135:1148  !sender.voted */\n      iszero\n        /* \"contracts/MyGov.sol\":1127:1171  require(!sender.voted, \"You already voted!\") */\n      tag_258\n      jumpi\n      mload(0x40)\n      0x08c379a000000000000000000000000000000000000000000000000000000000\n      dup2\n      mstore\n      0x04\n      add\n      tag_259\n      swap1\n      tag_260\n      jump\t// in\n    tag_259:\n      mload(0x40)\n      dup1\n      swap2\n      sub\n      swap1\n      revert\n    tag_258:\n        /* \"contracts/MyGov.sol\":1203:1213  msg.sender */\n      caller\n        /* \"contracts/MyGov.sol\":1189:1213  memberaddr != msg.sender */\n      0xffffffffffffffffffffffffffffffffffffffff\n      and\n        /* \"contracts/MyGov.sol\":1189:1199  memberaddr */\n      dup4\n        /* \"contracts/MyGov.sol\":1189:1213  memberaddr != msg.sender */\n      0xffffffffffffffffffffffffffffffffffffffff\n      and\n      eq\n      iszero\n        /* \"contracts/MyGov.sol\":1181:1246  require(memberaddr != msg.sender, \"Self delegation not allowed!\") */\n      tag_261\n      jumpi\n      mload(0x40)\n      0x08c379a000000000000000000000000000000000000000000000000000000000\n      dup2\n      mstore\n      0x04\n      add\n      tag_262\n      swap1\n      tag_263\n      jump\t// in\n    tag_262:\n      mload(0x40)\n      dup1\n      swap2\n      sub\n      swap1\n      revert\n    tag_261:\n        /* \"contracts/MyGov.sol\":1272:1276  true */\n      0x01\n        /* \"contracts/MyGov.sol\":1257:1263  sender */\n      dup2\n        /* \"contracts/MyGov.sol\":1257:1269  sender.voted */\n      0x01\n      add\n      0x00\n        /* \"contracts/MyGov.sol\":1257:1276  sender.voted = true */\n      0x0100\n      exp\n      dup2\n      sload\n      dup2\n      0xff\n      mul\n      not\n      and\n      swap1\n      dup4\n      iszero\n      iszero\n      mul\n      or\n      swap1\n      sstore\n      pop\n        /* \"contracts/MyGov.sol\":1304:1314  memberaddr */\n      dup3\n        /* \"contracts/MyGov.sol\":1286:1292  sender */\n      dup2\n        /* \"contracts/MyGov.sol\":1286:1301  sender.delegate */\n      0x01\n      add\n      0x01\n        /* \"contracts/MyGov.sol\":1286:1314  sender.delegate = memberaddr */\n      0x0100\n      exp\n      dup2\n      sload\n      dup2\n      0xffffffffffffffffffffffffffffffffffffffff\n      mul\n      not\n      and\n      swap1\n      dup4\n      0xffffffffffffffffffffffffffffffffffffffff\n      and\n      mul\n      or\n      swap1\n      sstore\n      pop\n        /* \"contracts/MyGov.sol\":1325:1347  Voter storage delegate */\n      0x00\n        /* \"contracts/MyGov.sol\":1350:1356  voters */\n      0x06\n        /* \"contracts/MyGov.sol\":1350:1368  voters[memberaddr] */\n      0x00\n        /* \"contracts/MyGov.sol\":1357:1367  memberaddr */\n      dup6\n        /* \"contracts/MyGov.sol\":1350:1368  voters[memberaddr] */\n      0xffffffffffffffffffffffffffffffffffffffff\n      and\n      0xffffffffffffffffffffffffffffffffffffffff\n      and\n      dup2\n      mstore\n      0x20\n      add\n      swap1\n      dup2\n      mstore\n      0x20\n      add\n      0x00\n      keccak256\n        /* \"contracts/MyGov.sol\":1325:1368  Voter storage delegate = voters[memberaddr] */\n      swap1\n      pop\n        /* \"contracts/MyGov.sol\":1398:1404  sender */\n      dup2\n        /* \"contracts/MyGov.sol\":1398:1411  sender.weight */\n      0x00\n      add\n      sload\n        /* \"contracts/MyGov.sol\":1379:1387  delegate */\n      dup2\n        /* \"contracts/MyGov.sol\":1379:1394  delegate.weight */\n      0x00\n      add\n      0x00\n        /* \"contracts/MyGov.sol\":1379:1411  delegate.weight += sender.weight */\n      dup3\n      dup3\n      sload\n      tag_264\n      swap2\n      swap1\n      tag_236\n      jump\t// in\n    tag_264:\n      swap3\n      pop\n      pop\n      dup2\n      swap1\n      sstore\n      pop\n        /* \"contracts/MyGov.sol\":1066:1418  {... */\n      pop\n      pop\n        /* \"contracts/MyGov.sol\":999:1418  function delegateVoteTo(address memberaddr, uint projectid) public {... */\n      pop\n      pop\n      jump\t// out\n        /* \"contracts/MyGov.sol\":891:930  mapping(address => Voter) public voters */\n    tag_148:\n      mstore(0x20, 0x06)\n      dup1\n      0x00\n      mstore\n      keccak256(0x00, 0x40)\n      0x00\n      swap2\n      pop\n      swap1\n      pop\n      dup1\n      0x00\n      add\n      sload\n      swap1\n      dup1\n      0x01\n      add\n      0x00\n      swap1\n      sload\n      swap1\n      0x0100\n      exp\n      swap1\n      div\n      0xff\n      and\n      swap1\n      dup1\n      0x01\n      add\n      0x01\n      swap1\n      sload\n      swap1\n      0x0100\n      exp\n      swap1\n      div\n      0xffffffffffffffffffffffffffffffffffffffff\n      and\n      swap1\n      dup1\n      0x02\n      add\n      sload\n      swap1\n      pop\n      dup5\n      jump\t// out\n        /* \"@openzeppelin/contracts/token/ERC20/ERC20.sol\":6592:7019  function decreaseAllowance(address spender, uint256 subtractedValue) public virtual returns (bool) {... */\n    tag_154:\n        /* \"@openzeppelin/contracts/token/ERC20/ERC20.sol\":6685:6689  bool */\n      0x00\n        /* \"@openzeppelin/contracts/token/ERC20/ERC20.sol\":6701:6714  address owner */\n      dup1\n        /* \"@openzeppelin/contracts/token/ERC20/ERC20.sol\":6717:6729  _msgSender() */\n      tag_266\n        /* \"@openzeppelin/contracts/token/ERC20/ERC20.sol\":6717:6727  _msgSender */\n      tag_217\n        /* \"@openzeppelin/contracts/token/ERC20/ERC20.sol\":6717:6729  _msgSender() */\n      jump\t// in\n    tag_266:\n        /* \"@openzeppelin/contracts/token/ERC20/ERC20.sol\":6701:6729  address owner = _msgSender() */\n      swap1\n      pop\n        /* \"@openzeppelin/contracts/token/ERC20/ERC20.sol\":6739:6763  uint256 currentAllowance */\n      0x00\n        /* \"@openzeppelin/contracts/token/ERC20/ERC20.sol\":6766:6791  allowance(owner, spender) */\n      tag_267\n        /* \"@openzeppelin/contracts/token/ERC20/ERC20.sol\":6776:6781  owner */\n      dup3\n        /* \"@openzeppelin/contracts/token/ERC20/ERC20.sol\":6783:6790  spender */\n      dup7\n        /* \"@openzeppelin/contracts/token/ERC20/ERC20.sol\":6766:6775  allowance */\n      tag_181\n        /* \"@openzeppelin/contracts/token/ERC20/ERC20.sol\":6766:6791  allowance(owner, spender) */\n      jump\t// in\n    tag_267:\n        /* \"@openzeppelin/contracts/token/ERC20/ERC20.sol\":6739:6791  uint256 currentAllowance = allowance(owner, spender) */\n      swap1\n      pop\n        /* \"@openzeppelin/contracts/token/ERC20/ERC20.sol\":6829:6844  subtractedValue */\n      dup4\n        /* \"@openzeppelin/contracts/token/ERC20/ERC20.sol\":6809:6825  currentAllowance */\n      dup2\n        /* \"@openzeppelin/contracts/token/ERC20/ERC20.sol\":6809:6844  currentAllowance >= subtractedValue */\n      lt\n      iszero\n        /* \"@openzeppelin/contracts/token/ERC20/ERC20.sol\":6801:6886  require(currentAllowance >= subtractedValue, \"ERC20: decreased allowance below zero\") */\n      tag_268\n      jumpi\n      mload(0x40)\n      0x08c379a000000000000000000000000000000000000000000000000000000000\n      dup2\n      mstore\n      0x04\n      add\n      tag_269\n      swap1\n      tag_270\n      jump\t// in\n    tag_269:\n      mload(0x40)\n      dup1\n      swap2\n      sub\n      swap1\n      revert\n    tag_268:\n        /* \"@openzeppelin/contracts/token/ERC20/ERC20.sol\":6920:6980  _approve(owner, spender, currentAllowance - subtractedValue) */\n      tag_271\n        /* \"@openzeppelin/contracts/token/ERC20/ERC20.sol\":6929:6934  owner */\n      dup3\n        /* \"@openzeppelin/contracts/token/ERC20/ERC20.sol\":6936:6943  spender */\n      dup7\n        /* \"@openzeppelin/contracts/token/ERC20/ERC20.sol\":6964:6979  subtractedValue */\n      dup7\n        /* \"@openzeppelin/contracts/token/ERC20/ERC20.sol\":6945:6961  currentAllowance */\n      dup5\n        /* \"@openzeppelin/contracts/token/ERC20/ERC20.sol\":6945:6979  currentAllowance - subtractedValue */\n      sub\n        /* \"@openzeppelin/contracts/token/ERC20/ERC20.sol\":6920:6928  _approve */\n      tag_219\n        /* \"@openzeppelin/contracts/token/ERC20/ERC20.sol\":6920:6980  _approve(owner, spender, currentAllowance - subtractedValue) */\n      jump\t// in\n    tag_271:\n        /* \"@openzeppelin/contracts/token/ERC20/ERC20.sol\":7008:7012  true */\n      0x01\n        /* \"@openzeppelin/contracts/token/ERC20/ERC20.sol\":7001:7012  return true */\n      swap3\n      pop\n      pop\n      pop\n        /* \"@openzeppelin/contracts/token/ERC20/ERC20.sol\":6592:7019  function decreaseAllowance(address spender, uint256 subtractedValue) public virtual returns (bool) {... */\n      swap3\n      swap2\n      pop\n      pop\n      jump\t// out\n        /* \"contracts/MyGov.sol\":1955:2333  function submitProjectProposal(... */\n    tag_160:\n        /* \"contracts/MyGov.sol\":2144:2158  uint projectid */\n      0x00\n        /* \"contracts/MyGov.sol\":2169:2193  bytes memory nameinbytes */\n      dup1\n        /* \"contracts/MyGov.sol\":2202:2210  ipfshash */\n      dup6\n        /* \"contracts/MyGov.sol\":2169:2211  bytes memory nameinbytes = bytes(ipfshash) */\n      swap1\n      pop\n        /* \"contracts/MyGov.sol\":2221:2248  Proposal memory newProposal */\n      0x00\n        /* \"contracts/MyGov.sol\":2251:2289  Proposal(nameinbytes, 0, false, false) */\n      mload(0x40)\n      dup1\n      0x80\n      add\n      0x40\n      mstore\n      dup1\n        /* \"contracts/MyGov.sol\":2260:2271  nameinbytes */\n      dup4\n        /* \"contracts/MyGov.sol\":2251:2289  Proposal(nameinbytes, 0, false, false) */\n      dup2\n      mstore\n      0x20\n      add\n        /* \"contracts/MyGov.sol\":2273:2274  0 */\n      0x00\n        /* \"contracts/MyGov.sol\":2251:2289  Proposal(nameinbytes, 0, false, false) */\n      dup2\n      mstore\n      0x20\n      add\n        /* \"contracts/MyGov.sol\":2276:2281  false */\n      0x00\n        /* \"contracts/MyGov.sol\":2251:2289  Proposal(nameinbytes, 0, false, false) */\n      iszero\n      iszero\n      dup2\n      mstore\n      0x20\n      add\n        /* \"contracts/MyGov.sol\":2283:2288  false */\n      0x00\n        /* \"contracts/MyGov.sol\":2251:2289  Proposal(nameinbytes, 0, false, false) */\n      iszero\n      iszero\n      dup2\n      mstore\n      pop\n        /* \"contracts/MyGov.sol\":2221:2289  Proposal memory newProposal = Proposal(nameinbytes, 0, false, false) */\n      swap1\n      pop\n        /* \"contracts/MyGov.sol\":2299:2308  proposals */\n      0x07\n        /* \"contracts/MyGov.sol\":2314:2325  newProposal */\n      dup2\n        /* \"contracts/MyGov.sol\":2299:2326  proposals.push(newProposal) */\n      swap1\n      dup1\n      0x01\n      dup2\n      sload\n      add\n      dup1\n      dup3\n      sstore\n      dup1\n      swap2\n      pop\n      pop\n      0x01\n      swap1\n      sub\n      swap1\n      0x00\n      mstore\n      keccak256(0x00, 0x20)\n      swap1\n      0x03\n      mul\n      add\n      0x00\n      swap1\n      swap2\n      swap1\n      swap2\n      swap1\n      swap2\n      pop\n      0x00\n      dup3\n      add\n      mload\n      dup2\n      0x00\n      add\n      swap1\n      dup1\n      mload\n      swap1\n      0x20\n      add\n      swap1\n      tag_274\n      swap3\n      swap2\n      swap1\n      tag_275\n      jump\t// in\n    tag_274:\n      pop\n      0x20\n      dup3\n      add\n      mload\n      dup2\n      0x01\n      add\n      sstore\n      0x40\n      dup3\n      add\n      mload\n      dup2\n      0x02\n      add\n      exp(0x0100, 0x00)\n      dup2\n      sload\n      dup2\n      0xff\n      mul\n      not\n      and\n      swap1\n      dup4\n      iszero\n      iszero\n      mul\n      or\n      swap1\n      sstore\n      pop\n      0x60\n      dup3\n      add\n      mload\n      dup2\n      0x02\n      add\n      exp(0x0100, 0x01)\n      dup2\n      sload\n      dup2\n      0xff\n      mul\n      not\n      and\n      swap1\n      dup4\n      iszero\n      iszero\n      mul\n      or\n      swap1\n      sstore\n      pop\n      pop\n      pop\n        /* \"contracts/MyGov.sol\":2159:2333  {... */\n      pop\n      pop\n        /* \"contracts/MyGov.sol\":1955:2333  function submitProjectProposal(... */\n      swap5\n      swap4\n      pop\n      pop\n      pop\n      pop\n      jump\t// out\n        /* \"@openzeppelin/contracts/token/ERC20/ERC20.sol\":3727:3916  function transfer(address to, uint256 amount) public virtual override returns (bool) {... */\n    tag_165:\n        /* \"@openzeppelin/contracts/token/ERC20/ERC20.sol\":3806:3810  bool */\n      0x00\n        /* \"@openzeppelin/contracts/token/ERC20/ERC20.sol\":3822:3835  address owner */\n      dup1\n        /* \"@openzeppelin/contracts/token/ERC20/ERC20.sol\":3838:3850  _msgSender() */\n      tag_277\n        /* \"@openzeppelin/contracts/token/ERC20/ERC20.sol\":3838:3848  _msgSender */\n      tag_217\n        /* \"@openzeppelin/contracts/token/ERC20/ERC20.sol\":3838:3850  _msgSender() */\n      jump\t// in\n    tag_277:\n        /* \"@openzeppelin/contracts/token/ERC20/ERC20.sol\":3822:3850  address owner = _msgSender() */\n      swap1\n      pop\n        /* \"@openzeppelin/contracts/token/ERC20/ERC20.sol\":3860:3888  _transfer(owner, to, amount) */\n      tag_278\n        /* \"@openzeppelin/contracts/token/ERC20/ERC20.sol\":3870:3875  owner */\n      dup2\n        /* \"@openzeppelin/contracts/token/ERC20/ERC20.sol\":3877:3879  to */\n      dup6\n        /* \"@openzeppelin/contracts/token/ERC20/ERC20.sol\":3881:3887  amount */\n      dup6\n        /* \"@openzeppelin/contracts/token/ERC20/ERC20.sol\":3860:3869  _transfer */\n      tag_227\n        /* \"@openzeppelin/contracts/token/ERC20/ERC20.sol\":3860:3888  _transfer(owner, to, amount) */\n      jump\t// in\n    tag_278:\n        /* \"@openzeppelin/contracts/token/ERC20/ERC20.sol\":3905:3909  true */\n      0x01\n        /* \"@openzeppelin/contracts/token/ERC20/ERC20.sol\":3898:3909  return true */\n      swap2\n      pop\n      pop\n        /* \"@openzeppelin/contracts/token/ERC20/ERC20.sol\":3727:3916  function transfer(address to, uint256 amount) public virtual override returns (bool) {... */\n      swap3\n      swap2\n      pop\n      pop\n      jump\t// out\n        /* \"contracts/MyGov.sol\":2854:2927  function getSurveyInfo()public{... */\n    tag_169:\n      jump\t// out\n        /* \"contracts/MyGov.sol\":2599:2678  function reserveProjectGrant()public{... */\n    tag_172:\n      jump\t// out\n        /* \"contracts/MyGov.sol\":3499:3772  function getNoOfFundedProjects() public view returns (uint numfunded){... */\n    tag_175:\n        /* \"contracts/MyGov.sol\":3553:3567  uint numfunded */\n      0x00\n        /* \"contracts/MyGov.sol\":3578:3595  uint total_funded */\n      dup1\n        /* \"contracts/MyGov.sol\":3598:3599  0 */\n      0x00\n        /* \"contracts/MyGov.sol\":3578:3599  uint total_funded = 0 */\n      swap1\n      pop\n        /* \"contracts/MyGov.sol\":3613:3619  uint i */\n      0x00\n        /* \"contracts/MyGov.sol\":3609:3732  for(uint i = 0; i < proposals.length; i++){... */\n    tag_282:\n        /* \"contracts/MyGov.sol\":3629:3638  proposals */\n      0x07\n        /* \"contracts/MyGov.sol\":3629:3645  proposals.length */\n      dup1\n      sload\n      swap1\n      pop\n        /* \"contracts/MyGov.sol\":3625:3626  i */\n      dup2\n        /* \"contracts/MyGov.sol\":3625:3645  i < proposals.length */\n      lt\n        /* \"contracts/MyGov.sol\":3609:3732  for(uint i = 0; i < proposals.length; i++){... */\n      iszero\n      tag_283\n      jumpi\n        /* \"contracts/MyGov.sol\":3668:3677  proposals */\n      0x07\n        /* \"contracts/MyGov.sol\":3678:3679  i */\n      dup2\n        /* \"contracts/MyGov.sol\":3668:3680  proposals[i] */\n      dup2\n      sload\n      dup2\n      lt\n      tag_285\n      jumpi\n      tag_286\n      tag_287\n      jump\t// in\n    tag_286:\n    tag_285:\n      swap1\n      0x00\n      mstore\n      keccak256(0x00, 0x20)\n      swap1\n      0x03\n      mul\n      add\n        /* \"contracts/MyGov.sol\":3668:3689  proposals[i].isFunded */\n      0x02\n      add\n      0x01\n      swap1\n      sload\n      swap1\n      0x0100\n      exp\n      swap1\n      div\n      0xff\n      and\n        /* \"contracts/MyGov.sol\":3665:3721  if(proposals[i].isFunded)... */\n      iszero\n      tag_289\n      jumpi\n        /* \"contracts/MyGov.sol\":3707:3721  total_funded++ */\n      dup2\n      dup1\n      tag_290\n      swap1\n      tag_291\n      jump\t// in\n    tag_290:\n      swap3\n      pop\n      pop\n        /* \"contracts/MyGov.sol\":3665:3721  if(proposals[i].isFunded)... */\n    tag_289:\n        /* \"contracts/MyGov.sol\":3647:3650  i++ */\n      dup1\n      dup1\n      tag_292\n      swap1\n      tag_291\n      jump\t// in\n    tag_292:\n      swap2\n      pop\n      pop\n        /* \"contracts/MyGov.sol\":3609:3732  for(uint i = 0; i < proposals.length; i++){... */\n      jump(tag_282)\n    tag_283:\n      pop\n        /* \"contracts/MyGov.sol\":3753:3765  total_funded */\n      dup1\n        /* \"contracts/MyGov.sol\":3741:3765  numfunded = total_funded */\n      swap2\n      pop\n        /* \"contracts/MyGov.sol\":3568:3772  {... */\n      pop\n        /* \"contracts/MyGov.sol\":3499:3772  function getNoOfFundedProjects() public view returns (uint numfunded){... */\n      swap1\n      jump\t// out\n        /* \"@openzeppelin/contracts/token/ERC20/ERC20.sol\":3974:4123  function allowance(address owner, address spender) public view virtual override returns (uint256) {... */\n    tag_181:\n        /* \"@openzeppelin/contracts/token/ERC20/ERC20.sol\":4063:4070  uint256 */\n      0x00\n        /* \"@openzeppelin/contracts/token/ERC20/ERC20.sol\":4089:4100  _allowances */\n      0x01\n        /* \"@openzeppelin/contracts/token/ERC20/ERC20.sol\":4089:4107  _allowances[owner] */\n      0x00\n        /* \"@openzeppelin/contracts/token/ERC20/ERC20.sol\":4101:4106  owner */\n      dup5\n        /* \"@openzeppelin/contracts/token/ERC20/ERC20.sol\":4089:4107  _allowances[owner] */\n      0xffffffffffffffffffffffffffffffffffffffff\n      and\n      0xffffffffffffffffffffffffffffffffffffffff\n      and\n      dup2\n      mstore\n      0x20\n      add\n      swap1\n      dup2\n      mstore\n      0x20\n      add\n      0x00\n      keccak256\n        /* \"@openzeppelin/contracts/token/ERC20/ERC20.sol\":4089:4116  _allowances[owner][spender] */\n      0x00\n        /* \"@openzeppelin/contracts/token/ERC20/ERC20.sol\":4108:4115  spender */\n      dup4\n        /* \"@openzeppelin/contracts/token/ERC20/ERC20.sol\":4089:4116  _allowances[owner][spender] */\n      0xffffffffffffffffffffffffffffffffffffffff\n      and\n      0xffffffffffffffffffffffffffffffffffffffff\n      and\n      dup2\n      mstore\n      0x20\n      add\n      swap1\n      dup2\n      mstore\n      0x20\n      add\n      0x00\n      keccak256\n      sload\n        /* \"@openzeppelin/contracts/token/ERC20/ERC20.sol\":4082:4116  return _allowances[owner][spender] */\n      swap1\n      pop\n        /* \"@openzeppelin/contracts/token/ERC20/ERC20.sol\":3974:4123  function allowance(address owner, address spender) public view virtual override returns (uint256) {... */\n      swap3\n      swap2\n      pop\n      pop\n      jump\t// out\n        /* \"contracts/MyGov.sol\":3119:3200  function getProjectNextPayment()public{... */\n    tag_185:\n      jump\t// out\n        /* \"contracts/MyGov.sol\":3206:3281  function getProjectOwner()public{... */\n    tag_188:\n      jump\t// out\n        /* \"contracts/MyGov.sol\":2339:2517  function submitSurvey(... */\n    tag_193:\n        /* \"contracts/MyGov.sol\":2495:2508  uint surveyid */\n      0x00\n        /* \"contracts/MyGov.sol\":2339:2517  function submitSurvey(... */\n      swap5\n      swap4\n      pop\n      pop\n      pop\n      pop\n      jump\t// out\n        /* \"contracts/MyGov.sol\":1608:1862  function voteForProjectProposal(uint projectid, bool choice) public {... */\n    tag_199:\n        /* \"contracts/MyGov.sol\":1686:1706  Voter storage sender */\n      0x00\n        /* \"contracts/MyGov.sol\":1709:1715  voters */\n      0x06\n        /* \"contracts/MyGov.sol\":1709:1727  voters[msg.sender] */\n      0x00\n        /* \"contracts/MyGov.sol\":1716:1726  msg.sender */\n      caller\n        /* \"contracts/MyGov.sol\":1709:1727  voters[msg.sender] */\n      0xffffffffffffffffffffffffffffffffffffffff\n      and\n      0xffffffffffffffffffffffffffffffffffffffff\n      and\n      dup2\n      mstore\n      0x20\n      add\n      swap1\n      dup2\n      mstore\n      0x20\n      add\n      0x00\n      keccak256\n        /* \"contracts/MyGov.sol\":1686:1727  Voter storage sender = voters[msg.sender] */\n      swap1\n      pop\n        /* \"contracts/MyGov.sol\":1752:1756  true */\n      0x01\n        /* \"contracts/MyGov.sol\":1737:1743  sender */\n      dup2\n        /* \"contracts/MyGov.sol\":1737:1749  sender.voted */\n      0x01\n      add\n      0x00\n        /* \"contracts/MyGov.sol\":1737:1756  sender.voted = true */\n      0x0100\n      exp\n      dup2\n      sload\n      dup2\n      0xff\n      mul\n      not\n      and\n      swap1\n      dup4\n      iszero\n      iszero\n      mul\n      or\n      swap1\n      sstore\n      pop\n        /* \"contracts/MyGov.sol\":1789:1798  projectid */\n      dup3\n        /* \"contracts/MyGov.sol\":1766:1772  sender */\n      dup2\n        /* \"contracts/MyGov.sol\":1766:1786  sender.votedProposal */\n      0x02\n      add\n        /* \"contracts/MyGov.sol\":1766:1798  sender.votedProposal = projectid */\n      dup2\n      swap1\n      sstore\n      pop\n        /* \"contracts/MyGov.sol\":1842:1848  sender */\n      dup1\n        /* \"contracts/MyGov.sol\":1842:1855  sender.weight */\n      0x00\n      add\n      sload\n        /* \"contracts/MyGov.sol\":1808:1817  proposals */\n      0x07\n        /* \"contracts/MyGov.sol\":1818:1827  projectid */\n      dup5\n        /* \"contracts/MyGov.sol\":1808:1828  proposals[projectid] */\n      dup2\n      sload\n      dup2\n      lt\n      tag_298\n      jumpi\n      tag_299\n      tag_287\n      jump\t// in\n    tag_299:\n    tag_298:\n      swap1\n      0x00\n      mstore\n      keccak256(0x00, 0x20)\n      swap1\n      0x03\n      mul\n      add\n        /* \"contracts/MyGov.sol\":1808:1838  proposals[projectid].voteCount */\n      0x01\n      add\n      0x00\n        /* \"contracts/MyGov.sol\":1808:1855  proposals[projectid].voteCount += sender.weight */\n      dup3\n      dup3\n      sload\n      tag_301\n      swap2\n      swap1\n      tag_236\n      jump\t// in\n    tag_301:\n      swap3\n      pop\n      pop\n      dup2\n      swap1\n      sstore\n      pop\n        /* \"contracts/MyGov.sol\":1676:1862  {... */\n      pop\n        /* \"contracts/MyGov.sol\":1608:1862  function voteForProjectProposal(uint projectid, bool choice) public {... */\n      pop\n      pop\n      jump\t// out\n        /* \"@openzeppelin/contracts/utils/Context.sol\":640:736  function _msgSender() internal view virtual returns (address) {... */\n    tag_217:\n        /* \"@openzeppelin/contracts/utils/Context.sol\":693:700  address */\n      0x00\n        /* \"@openzeppelin/contracts/utils/Context.sol\":719:729  msg.sender */\n      caller\n        /* \"@openzeppelin/contracts/utils/Context.sol\":712:729  return msg.sender */\n      swap1\n      pop\n        /* \"@openzeppelin/contracts/utils/Context.sol\":640:736  function _msgSender() internal view virtual returns (address) {... */\n      swap1\n      jump\t// out\n        /* \"@openzeppelin/contracts/token/ERC20/ERC20.sol\":10504:10874  function _approve(... */\n    tag_219:\n        /* \"@openzeppelin/contracts/token/ERC20/ERC20.sol\":10652:10653  0 */\n      0x00\n        /* \"@openzeppelin/contracts/token/ERC20/ERC20.sol\":10635:10654  owner != address(0) */\n      0xffffffffffffffffffffffffffffffffffffffff\n      and\n        /* \"@openzeppelin/contracts/token/ERC20/ERC20.sol\":10635:10640  owner */\n      dup4\n        /* \"@openzeppelin/contracts/token/ERC20/ERC20.sol\":10635:10654  owner != address(0) */\n      0xffffffffffffffffffffffffffffffffffffffff\n      and\n      eq\n      iszero\n        /* \"@openzeppelin/contracts/token/ERC20/ERC20.sol\":10627:10695  require(owner != address(0), \"ERC20: approve from the zero address\") */\n      tag_304\n      jumpi\n      mload(0x40)\n      0x08c379a000000000000000000000000000000000000000000000000000000000\n      dup2\n      mstore\n      0x04\n      add\n      tag_305\n      swap1\n      tag_306\n      jump\t// in\n    tag_305:\n      mload(0x40)\n      dup1\n      swap2\n      sub\n      swap1\n      revert\n    tag_304:\n        /* \"@openzeppelin/contracts/token/ERC20/ERC20.sol\":10732:10733  0 */\n      0x00\n        /* \"@openzeppelin/contracts/token/ERC20/ERC20.sol\":10713:10734  spender != address(0) */\n      0xffffffffffffffffffffffffffffffffffffffff\n      and\n        /* \"@openzeppelin/contracts/token/ERC20/ERC20.sol\":10713:10720  spender */\n      dup3\n        /* \"@openzeppelin/contracts/token/ERC20/ERC20.sol\":10713:10734  spender != address(0) */\n      0xffffffffffffffffffffffffffffffffffffffff\n      and\n      eq\n      iszero\n        /* \"@openzeppelin/contracts/token/ERC20/ERC20.sol\":10705:10773  require(spender != address(0), \"ERC20: approve to the zero address\") */\n      tag_307\n      jumpi\n      mload(0x40)\n      0x08c379a000000000000000000000000000000000000000000000000000000000\n      dup2\n      mstore\n      0x04\n      add\n      tag_308\n      swap1\n      tag_309\n      jump\t// in\n    tag_308:\n      mload(0x40)\n      dup1\n      swap2\n      sub\n      swap1\n      revert\n    tag_307:\n        /* \"@openzeppelin/contracts/token/ERC20/ERC20.sol\":10814:10820  amount */\n      dup1\n        /* \"@openzeppelin/contracts/token/ERC20/ERC20.sol\":10784:10795  _allowances */\n      0x01\n        /* \"@openzeppelin/contracts/token/ERC20/ERC20.sol\":10784:10802  _allowances[owner] */\n      0x00\n        /* \"@openzeppelin/contracts/token/ERC20/ERC20.sol\":10796:10801  owner */\n      dup6\n        /* \"@openzeppelin/contracts/token/ERC20/ERC20.sol\":10784:10802  _allowances[owner] */\n      0xffffffffffffffffffffffffffffffffffffffff\n      and\n      0xffffffffffffffffffffffffffffffffffffffff\n      and\n      dup2\n      mstore\n      0x20\n      add\n      swap1\n      dup2\n      mstore\n      0x20\n      add\n      0x00\n      keccak256\n        /* \"@openzeppelin/contracts/token/ERC20/ERC20.sol\":10784:10811  _allowances[owner][spender] */\n      0x00\n        /* \"@openzeppelin/contracts/token/ERC20/ERC20.sol\":10803:10810  spender */\n      dup5\n        /* \"@openzeppelin/contracts/token/ERC20/ERC20.sol\":10784:10811  _allowances[owner][spender] */\n      0xffffffffffffffffffffffffffffffffffffffff\n      and\n      0xffffffffffffffffffffffffffffffffffffffff\n      and\n      dup2\n      mstore\n      0x20\n      add\n      swap1\n      dup2\n      mstore\n      0x20\n      add\n      0x00\n      keccak256\n        /* \"@openzeppelin/contracts/token/ERC20/ERC20.sol\":10784:10820  _allowances[owner][spender] = amount */\n      dup2\n      swap1\n      sstore\n      pop\n        /* \"@openzeppelin/contracts/token/ERC20/ERC20.sol\":10851:10858  spender */\n      dup2\n        /* \"@openzeppelin/contracts/token/ERC20/ERC20.sol\":10835:10867  Approval(owner, spender, amount) */\n      0xffffffffffffffffffffffffffffffffffffffff\n      and\n        /* \"@openzeppelin/contracts/token/ERC20/ERC20.sol\":10844:10849  owner */\n      dup4\n        /* \"@openzeppelin/contracts/token/ERC20/ERC20.sol\":10835:10867  Approval(owner, spender, amount) */\n      0xffffffffffffffffffffffffffffffffffffffff\n      and\n      0x8c5be1e5ebec7d5bd14f71427d1e84f3dd0314c0f7b2291e5b200ac8c7c3b925\n        /* \"@openzeppelin/contracts/token/ERC20/ERC20.sol\":10860:10866  amount */\n      dup4\n        /* \"@openzeppelin/contracts/token/ERC20/ERC20.sol\":10835:10867  Approval(owner, spender, amount) */\n      mload(0x40)\n      tag_310\n      swap2\n      swap1\n      tag_73\n      jump\t// in\n    tag_310:\n      mload(0x40)\n      dup1\n      swap2\n      sub\n      swap1\n      log3\n        /* \"@openzeppelin/contracts/token/ERC20/ERC20.sol\":10504:10874  function _approve(... */\n      pop\n      pop\n      pop\n      jump\t// out\n        /* \"@openzeppelin/contracts/token/ERC20/ERC20.sol\":11155:11596  function _spendAllowance(... */\n    tag_225:\n        /* \"@openzeppelin/contracts/token/ERC20/ERC20.sol\":11285:11309  uint256 currentAllowance */\n      0x00\n        /* \"@openzeppelin/contracts/token/ERC20/ERC20.sol\":11312:11337  allowance(owner, spender) */\n      tag_312\n        /* \"@openzeppelin/contracts/token/ERC20/ERC20.sol\":11322:11327  owner */\n      dup5\n        /* \"@openzeppelin/contracts/token/ERC20/ERC20.sol\":11329:11336  spender */\n      dup5\n        /* \"@openzeppelin/contracts/token/ERC20/ERC20.sol\":11312:11321  allowance */\n      tag_181\n        /* \"@openzeppelin/contracts/token/ERC20/ERC20.sol\":11312:11337  allowance(owner, spender) */\n      jump\t// in\n    tag_312:\n        /* \"@openzeppelin/contracts/token/ERC20/ERC20.sol\":11285:11337  uint256 currentAllowance = allowance(owner, spender) */\n      swap1\n      pop\n        /* \"@openzeppelin/contracts/token/ERC20/ERC20.sol\":11371:11388  type(uint256).max */\n      0xffffffffffffffffffffffffffffffffffffffffffffffffffffffffffffffff\n        /* \"@openzeppelin/contracts/token/ERC20/ERC20.sol\":11351:11367  currentAllowance */\n      dup2\n        /* \"@openzeppelin/contracts/token/ERC20/ERC20.sol\":11351:11388  currentAllowance != type(uint256).max */\n      eq\n        /* \"@openzeppelin/contracts/token/ERC20/ERC20.sol\":11347:11590  if (currentAllowance != type(uint256).max) {... */\n      tag_313\n      jumpi\n        /* \"@openzeppelin/contracts/token/ERC20/ERC20.sol\":11432:11438  amount */\n      dup2\n        /* \"@openzeppelin/contracts/token/ERC20/ERC20.sol\":11412:11428  currentAllowance */\n      dup2\n        /* \"@openzeppelin/contracts/token/ERC20/ERC20.sol\":11412:11438  currentAllowance >= amount */\n      lt\n      iszero\n        /* \"@openzeppelin/contracts/token/ERC20/ERC20.sol\":11404:11472  require(currentAllowance >= amount, \"ERC20: insufficient allowance\") */\n      tag_314\n      jumpi\n      mload(0x40)\n      0x08c379a000000000000000000000000000000000000000000000000000000000\n      dup2\n      mstore\n      0x04\n      add\n      tag_315\n      swap1\n      tag_316\n      jump\t// in\n    tag_315:\n      mload(0x40)\n      dup1\n      swap2\n      sub\n      swap1\n      revert\n    tag_314:\n        /* \"@openzeppelin/contracts/token/ERC20/ERC20.sol\":11514:11565  _approve(owner, spender, currentAllowance - amount) */\n      tag_317\n        /* \"@openzeppelin/contracts/token/ERC20/ERC20.sol\":11523:11528  owner */\n      dup5\n        /* \"@openzeppelin/contracts/token/ERC20/ERC20.sol\":11530:11537  spender */\n      dup5\n        /* \"@openzeppelin/contracts/token/ERC20/ERC20.sol\":11558:11564  amount */\n      dup5\n        /* \"@openzeppelin/contracts/token/ERC20/ERC20.sol\":11539:11555  currentAllowance */\n      dup5\n        /* \"@openzeppelin/contracts/token/ERC20/ERC20.sol\":11539:11564  currentAllowance - amount */\n      sub\n        /* \"@openzeppelin/contracts/token/ERC20/ERC20.sol\":11514:11522  _approve */\n      tag_219\n        /* \"@openzeppelin/contracts/token/ERC20/ERC20.sol\":11514:11565  _approve(owner, spender, currentAllowance - amount) */\n      jump\t// in\n    tag_317:\n        /* \"@openzeppelin/contracts/token/ERC20/ERC20.sol\":11347:11590  if (currentAllowance != type(uint256).max) {... */\n    tag_313:\n        /* \"@openzeppelin/contracts/token/ERC20/ERC20.sol\":11275:11596  {... */\n      pop\n        /* \"@openzeppelin/contracts/token/ERC20/ERC20.sol\":11155:11596  function _spendAllowance(... */\n      pop\n      pop\n      pop\n      jump\t// out\n        /* \"@openzeppelin/contracts/token/ERC20/ERC20.sol\":7473:8291  function _transfer(... */\n    tag_227:\n        /* \"@openzeppelin/contracts/token/ERC20/ERC20.sol\":7615:7616  0 */\n      0x00\n        /* \"@openzeppelin/contracts/token/ERC20/ERC20.sol\":7599:7617  from != address(0) */\n      0xffffffffffffffffffffffffffffffffffffffff\n      and\n        /* \"@openzeppelin/contracts/token/ERC20/ERC20.sol\":7599:7603  from */\n      dup4\n        /* \"@openzeppelin/contracts/token/ERC20/ERC20.sol\":7599:7617  from != address(0) */\n      0xffffffffffffffffffffffffffffffffffffffff\n      and\n      eq\n      iszero\n        /* \"@openzeppelin/contracts/token/ERC20/ERC20.sol\":7591:7659  require(from != address(0), \"ERC20: transfer from the zero address\") */\n      tag_319\n      jumpi\n      mload(0x40)\n      0x08c379a000000000000000000000000000000000000000000000000000000000\n      dup2\n      mstore\n      0x04\n      add\n      tag_320\n      swap1\n      tag_321\n      jump\t// in\n    tag_320:\n      mload(0x40)\n      dup1\n      swap2\n      sub\n      swap1\n      revert\n    tag_319:\n        /* \"@openzeppelin/contracts/token/ERC20/ERC20.sol\":7691:7692  0 */\n      0x00\n        /* \"@openzeppelin/contracts/token/ERC20/ERC20.sol\":7677:7693  to != address(0) */\n      0xffffffffffffffffffffffffffffffffffffffff\n      and\n        /* \"@openzeppelin/contracts/token/ERC20/ERC20.sol\":7677:7679  to */\n      dup3\n        /* \"@openzeppelin/contracts/token/ERC20/ERC20.sol\":7677:7693  to != address(0) */\n      0xffffffffffffffffffffffffffffffffffffffff\n      and\n      eq\n      iszero\n        /* \"@openzeppelin/contracts/token/ERC20/ERC20.sol\":7669:7733  require(to != address(0), \"ERC20: transfer to the zero address\") */\n      tag_322\n      jumpi\n      mload(0x40)\n      0x08c379a000000000000000000000000000000000000000000000000000000000\n      dup2\n      mstore\n      0x04\n      add\n      tag_323\n      swap1\n      tag_324\n      jump\t// in\n    tag_323:\n      mload(0x40)\n      dup1\n      swap2\n      sub\n      swap1\n      revert\n    tag_322:\n        /* \"@openzeppelin/contracts/token/ERC20/ERC20.sol\":7744:7782  _beforeTokenTransfer(from, to, amount) */\n      tag_325\n        /* \"@openzeppelin/contracts/token/ERC20/ERC20.sol\":7765:7769  from */\n      dup4\n        /* \"@openzeppelin/contracts/token/ERC20/ERC20.sol\":7771:7773  to */\n      dup4\n        /* \"@openzeppelin/contracts/token/ERC20/ERC20.sol\":7775:7781  amount */\n      dup4\n        /* \"@openzeppelin/contracts/token/ERC20/ERC20.sol\":7744:7764  _beforeTokenTransfer */\n      tag_326\n        /* \"@openzeppelin/contracts/token/ERC20/ERC20.sol\":7744:7782  _beforeTokenTransfer(from, to, amount) */\n      jump\t// in\n    tag_325:\n        /* \"@openzeppelin/contracts/token/ERC20/ERC20.sol\":7793:7812  uint256 fromBalance */\n      0x00\n        /* \"@openzeppelin/contracts/token/ERC20/ERC20.sol\":7815:7824  _balances */\n      dup1\n        /* \"@openzeppelin/contracts/token/ERC20/ERC20.sol\":7815:7830  _balances[from] */\n      0x00\n        /* \"@openzeppelin/contracts/token/ERC20/ERC20.sol\":7825:7829  from */\n      dup6\n        /* \"@openzeppelin/contracts/token/ERC20/ERC20.sol\":7815:7830  _balances[from] */\n      0xffffffffffffffffffffffffffffffffffffffff\n      and\n      0xffffffffffffffffffffffffffffffffffffffff\n      and\n      dup2\n      mstore\n      0x20\n      add\n      swap1\n      dup2\n      mstore\n      0x20\n      add\n      0x00\n      keccak256\n      sload\n        /* \"@openzeppelin/contracts/token/ERC20/ERC20.sol\":7793:7830  uint256 fromBalance = _balances[from] */\n      swap1\n      pop\n        /* \"@openzeppelin/contracts/token/ERC20/ERC20.sol\":7863:7869  amount */\n      dup2\n        /* \"@openzeppelin/contracts/token/ERC20/ERC20.sol\":7848:7859  fromBalance */\n      dup2\n        /* \"@openzeppelin/contracts/token/ERC20/ERC20.sol\":7848:7869  fromBalance >= amount */\n      lt\n      iszero\n        /* \"@openzeppelin/contracts/token/ERC20/ERC20.sol\":7840:7912  require(fromBalance >= amount, \"ERC20: transfer amount exceeds balance\") */\n      tag_327\n      jumpi\n      mload(0x40)\n      0x08c379a000000000000000000000000000000000000000000000000000000000\n      dup2\n      mstore\n      0x04\n      add\n      tag_328\n      swap1\n      tag_329\n      jump\t// in\n    tag_328:\n      mload(0x40)\n      dup1\n      swap2\n      sub\n      swap1\n      revert\n    tag_327:\n        /* \"@openzeppelin/contracts/token/ERC20/ERC20.sol\":7978:7984  amount */\n      dup2\n        /* \"@openzeppelin/contracts/token/ERC20/ERC20.sol\":7964:7975  fromBalance */\n      dup2\n        /* \"@openzeppelin/contracts/token/ERC20/ERC20.sol\":7964:7984  fromBalance - amount */\n      sub\n        /* \"@openzeppelin/contracts/token/ERC20/ERC20.sol\":7946:7955  _balances */\n      0x00\n        /* \"@openzeppelin/contracts/token/ERC20/ERC20.sol\":7946:7961  _balances[from] */\n      dup1\n        /* \"@openzeppelin/contracts/token/ERC20/ERC20.sol\":7956:7960  from */\n      dup7\n        /* \"@openzeppelin/contracts/token/ERC20/ERC20.sol\":7946:7961  _balances[from] */\n      0xffffffffffffffffffffffffffffffffffffffff\n      and\n      0xffffffffffffffffffffffffffffffffffffffff\n      and\n      dup2\n      mstore\n      0x20\n      add\n      swap1\n      dup2\n      mstore\n      0x20\n      add\n      0x00\n      keccak256\n        /* \"@openzeppelin/contracts/token/ERC20/ERC20.sol\":7946:7984  _balances[from] = fromBalance - amount */\n      dup2\n      swap1\n      sstore\n      pop\n        /* \"@openzeppelin/contracts/token/ERC20/ERC20.sol\":8178:8184  amount */\n      dup2\n        /* \"@openzeppelin/contracts/token/ERC20/ERC20.sol\":8161:8170  _balances */\n      0x00\n        /* \"@openzeppelin/contracts/token/ERC20/ERC20.sol\":8161:8174  _balances[to] */\n      dup1\n        /* \"@openzeppelin/contracts/token/ERC20/ERC20.sol\":8171:8173  to */\n      dup6\n        /* \"@openzeppelin/contracts/token/ERC20/ERC20.sol\":8161:8174  _balances[to] */\n      0xffffffffffffffffffffffffffffffffffffffff\n      and\n      0xffffffffffffffffffffffffffffffffffffffff\n      and\n      dup2\n      mstore\n      0x20\n      add\n      swap1\n      dup2\n      mstore\n      0x20\n      add\n      0x00\n      keccak256\n      0x00\n        /* \"@openzeppelin/contracts/token/ERC20/ERC20.sol\":8161:8184  _balances[to] += amount */\n      dup3\n      dup3\n      sload\n      add\n      swap3\n      pop\n      pop\n      dup2\n      swap1\n      sstore\n      pop\n        /* \"@openzeppelin/contracts/token/ERC20/ERC20.sol\":8225:8227  to */\n      dup3\n        /* \"@openzeppelin/contracts/token/ERC20/ERC20.sol\":8210:8236  Transfer(from, to, amount) */\n      0xffffffffffffffffffffffffffffffffffffffff\n      and\n        /* \"@openzeppelin/contracts/token/ERC20/ERC20.sol\":8219:8223  from */\n      dup5\n        /* \"@openzeppelin/contracts/token/ERC20/ERC20.sol\":8210:8236  Transfer(from, to, amount) */\n      0xffffffffffffffffffffffffffffffffffffffff\n      and\n      0xddf252ad1be2c89b69c2b068fc378daa952ba7f163c4a11628f55a4df523b3ef\n        /* \"@openzeppelin/contracts/token/ERC20/ERC20.sol\":8229:8235  amount */\n      dup5\n        /* \"@openzeppelin/contracts/token/ERC20/ERC20.sol\":8210:8236  Transfer(from, to, amount) */\n      mload(0x40)\n      tag_330\n      swap2\n      swap1\n      tag_73\n      jump\t// in\n    tag_330:\n      mload(0x40)\n      dup1\n      swap2\n      sub\n      swap1\n      log3\n        /* \"@openzeppelin/contracts/token/ERC20/ERC20.sol\":8247:8284  _afterTokenTransfer(from, to, amount) */\n      tag_331\n        /* \"@openzeppelin/contracts/token/ERC20/ERC20.sol\":8267:8271  from */\n      dup5\n        /* \"@openzeppelin/contracts/token/ERC20/ERC20.sol\":8273:8275  to */\n      dup5\n        /* \"@openzeppelin/contracts/token/ERC20/ERC20.sol\":8277:8283  amount */\n      dup5\n        /* \"@openzeppelin/contracts/token/ERC20/ERC20.sol\":8247:8266  _afterTokenTransfer */\n      tag_332\n        /* \"@openzeppelin/contracts/token/ERC20/ERC20.sol\":8247:8284  _afterTokenTransfer(from, to, amount) */\n      jump\t// in\n    tag_331:\n        /* \"@openzeppelin/contracts/token/ERC20/ERC20.sol\":7581:8291  {... */\n      pop\n        /* \"@openzeppelin/contracts/token/ERC20/ERC20.sol\":7473:8291  function _transfer(... */\n      pop\n      pop\n      pop\n      jump\t// out\n        /* \"@openzeppelin/contracts/token/ERC20/ERC20.sol\":12180:12301  function _beforeTokenTransfer(... */\n    tag_326:\n      pop\n      pop\n      pop\n      jump\t// out\n        /* \"@openzeppelin/contracts/token/ERC20/ERC20.sol\":12889:13009  function _afterTokenTransfer(... */\n    tag_332:\n      pop\n      pop\n      pop\n      jump\t// out\n    tag_275:\n      dup3\n      dup1\n      sload\n      tag_335\n      swap1\n      tag_203\n      jump\t// in\n    tag_335:\n      swap1\n      0x00\n      mstore\n      keccak256(0x00, 0x20)\n      swap1\n      0x1f\n      add\n      0x20\n      swap1\n      div\n      dup2\n      add\n      swap3\n      dup3\n      tag_337\n      jumpi\n      0x00\n      dup6\n      sstore\n      jump(tag_336)\n    tag_337:\n      dup3\n      0x1f\n      lt\n      tag_338\n      jumpi\n      dup1\n      mload\n      not(0xff)\n      and\n      dup4\n      dup1\n      add\n      or\n      dup6\n      sstore\n      jump(tag_336)\n    tag_338:\n      dup3\n      dup1\n      add\n      0x01\n      add\n      dup6\n      sstore\n      dup3\n      iszero\n      tag_336\n      jumpi\n      swap2\n      dup3\n      add\n    tag_339:\n      dup3\n      dup2\n      gt\n      iszero\n      tag_340\n      jumpi\n      dup3\n      mload\n      dup3\n      sstore\n      swap2\n      0x20\n      add\n      swap2\n      swap1\n      0x01\n      add\n      swap1\n      jump(tag_339)\n    tag_340:\n    tag_336:\n      pop\n      swap1\n      pop\n      tag_341\n      swap2\n      swap1\n      tag_342\n      jump\t// in\n    tag_341:\n      pop\n      swap1\n      jump\t// out\n    tag_342:\n    tag_343:\n      dup1\n      dup3\n      gt\n      iszero\n      tag_344\n      jumpi\n      0x00\n      dup2\n      0x00\n      swap1\n      sstore\n      pop\n      0x01\n      add\n      jump(tag_343)\n    tag_344:\n      pop\n      swap1\n      jump\t// out\n        /* \"#utility.yul\":24:746   */\n    tag_346:\n        /* \"#utility.yul\":120:125   */\n      0x00\n        /* \"#utility.yul\":145:226   */\n      tag_348\n        /* \"#utility.yul\":161:225   */\n      tag_349\n        /* \"#utility.yul\":218:224   */\n      dup5\n        /* \"#utility.yul\":161:225   */\n      tag_350\n      jump\t// in\n    tag_349:\n        /* \"#utility.yul\":145:226   */\n      tag_351\n      jump\t// in\n    tag_348:\n        /* \"#utility.yul\":136:226   */\n      swap1\n      pop\n        /* \"#utility.yul\":246:251   */\n      dup1\n        /* \"#utility.yul\":275:281   */\n      dup4\n        /* \"#utility.yul\":268:273   */\n      dup3\n        /* \"#utility.yul\":261:282   */\n      mstore\n        /* \"#utility.yul\":309:313   */\n      0x20\n        /* \"#utility.yul\":302:307   */\n      dup3\n        /* \"#utility.yul\":298:314   */\n      add\n        /* \"#utility.yul\":291:314   */\n      swap1\n      pop\n        /* \"#utility.yul\":335:341   */\n      dup3\n        /* \"#utility.yul\":385:388   */\n      dup6\n        /* \"#utility.yul\":377:381   */\n      0x20\n        /* \"#utility.yul\":369:375   */\n      dup7\n        /* \"#utility.yul\":365:382   */\n      mul\n        /* \"#utility.yul\":360:363   */\n      dup3\n        /* \"#utility.yul\":356:383   */\n      add\n        /* \"#utility.yul\":353:389   */\n      gt\n        /* \"#utility.yul\":350:493   */\n      iszero\n      tag_352\n      jumpi\n        /* \"#utility.yul\":404:483   */\n      tag_353\n      tag_354\n      jump\t// in\n    tag_353:\n        /* \"#utility.yul\":350:493   */\n    tag_352:\n        /* \"#utility.yul\":517:518   */\n      0x00\n        /* \"#utility.yul\":502:740   */\n    tag_355:\n        /* \"#utility.yul\":527:533   */\n      dup6\n        /* \"#utility.yul\":524:525   */\n      dup2\n        /* \"#utility.yul\":521:534   */\n      lt\n        /* \"#utility.yul\":502:740   */\n      iszero\n      tag_357\n      jumpi\n        /* \"#utility.yul\":595:598   */\n      dup2\n        /* \"#utility.yul\":624:661   */\n      tag_358\n        /* \"#utility.yul\":657:660   */\n      dup9\n        /* \"#utility.yul\":645:655   */\n      dup3\n        /* \"#utility.yul\":624:661   */\n      tag_359\n      jump\t// in\n    tag_358:\n        /* \"#utility.yul\":619:622   */\n      dup5\n        /* \"#utility.yul\":612:662   */\n      mstore\n        /* \"#utility.yul\":691:695   */\n      0x20\n        /* \"#utility.yul\":686:689   */\n      dup5\n        /* \"#utility.yul\":682:696   */\n      add\n        /* \"#utility.yul\":675:696   */\n      swap4\n      pop\n        /* \"#utility.yul\":725:729   */\n      0x20\n        /* \"#utility.yul\":720:723   */\n      dup4\n        /* \"#utility.yul\":716:730   */\n      add\n        /* \"#utility.yul\":709:730   */\n      swap3\n      pop\n        /* \"#utility.yul\":562:740   */\n      pop\n        /* \"#utility.yul\":549:550   */\n      0x01\n        /* \"#utility.yul\":546:547   */\n      dup2\n        /* \"#utility.yul\":542:551   */\n      add\n        /* \"#utility.yul\":537:551   */\n      swap1\n      pop\n        /* \"#utility.yul\":502:740   */\n      jump(tag_355)\n    tag_357:\n        /* \"#utility.yul\":506:520   */\n      pop\n        /* \"#utility.yul\":126:746   */\n      pop\n      pop\n        /* \"#utility.yul\":24:746   */\n      swap4\n      swap3\n      pop\n      pop\n      pop\n      jump\t// out\n        /* \"#utility.yul\":752:1164   */\n    tag_360:\n        /* \"#utility.yul\":830:835   */\n      0x00\n        /* \"#utility.yul\":855:921   */\n      tag_362\n        /* \"#utility.yul\":871:920   */\n      tag_363\n        /* \"#utility.yul\":913:919   */\n      dup5\n        /* \"#utility.yul\":871:920   */\n      tag_364\n      jump\t// in\n    tag_363:\n        /* \"#utility.yul\":855:921   */\n      tag_351\n      jump\t// in\n    tag_362:\n        /* \"#utility.yul\":846:921   */\n      swap1\n      pop\n        /* \"#utility.yul\":944:950   */\n      dup3\n        /* \"#utility.yul\":937:942   */\n      dup2\n        /* \"#utility.yul\":930:951   */\n      mstore\n        /* \"#utility.yul\":982:986   */\n      0x20\n        /* \"#utility.yul\":975:980   */\n      dup2\n        /* \"#utility.yul\":971:987   */\n      add\n        /* \"#utility.yul\":1020:1023   */\n      dup5\n        /* \"#utility.yul\":1011:1017   */\n      dup5\n        /* \"#utility.yul\":1006:1009   */\n      dup5\n        /* \"#utility.yul\":1002:1018   */\n      add\n        /* \"#utility.yul\":999:1024   */\n      gt\n        /* \"#utility.yul\":996:1108   */\n      iszero\n      tag_365\n      jumpi\n        /* \"#utility.yul\":1027:1106   */\n      tag_366\n      tag_367\n      jump\t// in\n    tag_366:\n        /* \"#utility.yul\":996:1108   */\n    tag_365:\n        /* \"#utility.yul\":1117:1158   */\n      tag_368\n        /* \"#utility.yul\":1151:1157   */\n      dup5\n        /* \"#utility.yul\":1146:1149   */\n      dup3\n        /* \"#utility.yul\":1141:1144   */\n      dup6\n        /* \"#utility.yul\":1117:1158   */\n      tag_369\n      jump\t// in\n    tag_368:\n        /* \"#utility.yul\":836:1164   */\n      pop\n        /* \"#utility.yul\":752:1164   */\n      swap4\n      swap3\n      pop\n      pop\n      pop\n      jump\t// out\n        /* \"#utility.yul\":1170:1309   */\n    tag_370:\n        /* \"#utility.yul\":1216:1221   */\n      0x00\n        /* \"#utility.yul\":1254:1260   */\n      dup2\n        /* \"#utility.yul\":1241:1261   */\n      calldataload\n        /* \"#utility.yul\":1232:1261   */\n      swap1\n      pop\n        /* \"#utility.yul\":1270:1303   */\n      tag_372\n        /* \"#utility.yul\":1297:1302   */\n      dup2\n        /* \"#utility.yul\":1270:1303   */\n      tag_373\n      jump\t// in\n    tag_372:\n        /* \"#utility.yul\":1170:1309   */\n      swap3\n      swap2\n      pop\n      pop\n      jump\t// out\n        /* \"#utility.yul\":1332:1702   */\n    tag_374:\n        /* \"#utility.yul\":1403:1408   */\n      0x00\n        /* \"#utility.yul\":1452:1455   */\n      dup3\n        /* \"#utility.yul\":1445:1449   */\n      0x1f\n        /* \"#utility.yul\":1437:1443   */\n      dup4\n        /* \"#utility.yul\":1433:1450   */\n      add\n        /* \"#utility.yul\":1429:1456   */\n      slt\n        /* \"#utility.yul\":1419:1541   */\n      tag_376\n      jumpi\n        /* \"#utility.yul\":1460:1539   */\n      tag_377\n      tag_378\n      jump\t// in\n    tag_377:\n        /* \"#utility.yul\":1419:1541   */\n    tag_376:\n        /* \"#utility.yul\":1577:1583   */\n      dup2\n        /* \"#utility.yul\":1564:1584   */\n      calldataload\n        /* \"#utility.yul\":1602:1696   */\n      tag_379\n        /* \"#utility.yul\":1692:1695   */\n      dup5\n        /* \"#utility.yul\":1684:1690   */\n      dup3\n        /* \"#utility.yul\":1677:1681   */\n      0x20\n        /* \"#utility.yul\":1669:1675   */\n      dup7\n        /* \"#utility.yul\":1665:1682   */\n      add\n        /* \"#utility.yul\":1602:1696   */\n      tag_346\n      jump\t// in\n    tag_379:\n        /* \"#utility.yul\":1593:1696   */\n      swap2\n      pop\n        /* \"#utility.yul\":1409:1702   */\n      pop\n        /* \"#utility.yul\":1332:1702   */\n      swap3\n      swap2\n      pop\n      pop\n      jump\t// out\n        /* \"#utility.yul\":1708:1841   */\n    tag_380:\n        /* \"#utility.yul\":1751:1756   */\n      0x00\n        /* \"#utility.yul\":1789:1795   */\n      dup2\n        /* \"#utility.yul\":1776:1796   */\n      calldataload\n        /* \"#utility.yul\":1767:1796   */\n      swap1\n      pop\n        /* \"#utility.yul\":1805:1835   */\n      tag_382\n        /* \"#utility.yul\":1829:1834   */\n      dup2\n        /* \"#utility.yul\":1805:1835   */\n      tag_383\n      jump\t// in\n    tag_382:\n        /* \"#utility.yul\":1708:1841   */\n      swap3\n      swap2\n      pop\n      pop\n      jump\t// out\n        /* \"#utility.yul\":1861:2201   */\n    tag_384:\n        /* \"#utility.yul\":1917:1922   */\n      0x00\n        /* \"#utility.yul\":1966:1969   */\n      dup3\n        /* \"#utility.yul\":1959:1963   */\n      0x1f\n        /* \"#utility.yul\":1951:1957   */\n      dup4\n        /* \"#utility.yul\":1947:1964   */\n      add\n        /* \"#utility.yul\":1943:1970   */\n      slt\n        /* \"#utility.yul\":1933:2055   */\n      tag_386\n      jumpi\n        /* \"#utility.yul\":1974:2053   */\n      tag_387\n      tag_378\n      jump\t// in\n    tag_387:\n        /* \"#utility.yul\":1933:2055   */\n    tag_386:\n        /* \"#utility.yul\":2091:2097   */\n      dup2\n        /* \"#utility.yul\":2078:2098   */\n      calldataload\n        /* \"#utility.yul\":2116:2195   */\n      tag_388\n        /* \"#utility.yul\":2191:2194   */\n      dup5\n        /* \"#utility.yul\":2183:2189   */\n      dup3\n        /* \"#utility.yul\":2176:2180   */\n      0x20\n        /* \"#utility.yul\":2168:2174   */\n      dup7\n        /* \"#utility.yul\":2164:2181   */\n      add\n        /* \"#utility.yul\":2116:2195   */\n      tag_360\n      jump\t// in\n    tag_388:\n        /* \"#utility.yul\":2107:2195   */\n      swap2\n      pop\n        /* \"#utility.yul\":1923:2201   */\n      pop\n        /* \"#utility.yul\":1861:2201   */\n      swap3\n      swap2\n      pop\n      pop\n      jump\t// out\n        /* \"#utility.yul\":2207:2346   */\n    tag_359:\n        /* \"#utility.yul\":2253:2258   */\n      0x00\n        /* \"#utility.yul\":2291:2297   */\n      dup2\n        /* \"#utility.yul\":2278:2298   */\n      calldataload\n        /* \"#utility.yul\":2269:2298   */\n      swap1\n      pop\n        /* \"#utility.yul\":2307:2340   */\n      tag_390\n        /* \"#utility.yul\":2334:2339   */\n      dup2\n        /* \"#utility.yul\":2307:2340   */\n      tag_391\n      jump\t// in\n    tag_390:\n        /* \"#utility.yul\":2207:2346   */\n      swap3\n      swap2\n      pop\n      pop\n      jump\t// out\n        /* \"#utility.yul\":2352:2681   */\n    tag_111:\n        /* \"#utility.yul\":2411:2417   */\n      0x00\n        /* \"#utility.yul\":2460:2462   */\n      0x20\n        /* \"#utility.yul\":2448:2457   */\n      dup3\n        /* \"#utility.yul\":2439:2446   */\n      dup5\n        /* \"#utility.yul\":2435:2458   */\n      sub\n        /* \"#utility.yul\":2431:2463   */\n      slt\n        /* \"#utility.yul\":2428:2547   */\n      iszero\n      tag_393\n      jumpi\n        /* \"#utility.yul\":2466:2545   */\n      tag_394\n      tag_395\n      jump\t// in\n    tag_394:\n        /* \"#utility.yul\":2428:2547   */\n    tag_393:\n        /* \"#utility.yul\":2586:2587   */\n      0x00\n        /* \"#utility.yul\":2611:2664   */\n      tag_396\n        /* \"#utility.yul\":2656:2663   */\n      dup5\n        /* \"#utility.yul\":2647:2653   */\n      dup3\n        /* \"#utility.yul\":2636:2645   */\n      dup6\n        /* \"#utility.yul\":2632:2654   */\n      add\n        /* \"#utility.yul\":2611:2664   */\n      tag_370\n      jump\t// in\n    tag_396:\n        /* \"#utility.yul\":2601:2664   */\n      swap2\n      pop\n        /* \"#utility.yul\":2557:2674   */\n      pop\n        /* \"#utility.yul\":2352:2681   */\n      swap3\n      swap2\n      pop\n      pop\n      jump\t// out\n        /* \"#utility.yul\":2687:3161   */\n    tag_180:\n        /* \"#utility.yul\":2755:2761   */\n      0x00\n        /* \"#utility.yul\":2763:2769   */\n      dup1\n        /* \"#utility.yul\":2812:2814   */\n      0x40\n        /* \"#utility.yul\":2800:2809   */\n      dup4\n        /* \"#utility.yul\":2791:2798   */\n      dup6\n        /* \"#utility.yul\":2787:2810   */\n      sub\n        /* \"#utility.yul\":2783:2815   */\n      slt\n        /* \"#utility.yul\":2780:2899   */\n      iszero\n      tag_398\n      jumpi\n        /* \"#utility.yul\":2818:2897   */\n      tag_399\n      tag_395\n      jump\t// in\n    tag_399:\n        /* \"#utility.yul\":2780:2899   */\n    tag_398:\n        /* \"#utility.yul\":2938:2939   */\n      0x00\n        /* \"#utility.yul\":2963:3016   */\n      tag_400\n        /* \"#utility.yul\":3008:3015   */\n      dup6\n        /* \"#utility.yul\":2999:3005   */\n      dup3\n        /* \"#utility.yul\":2988:2997   */\n      dup7\n        /* \"#utility.yul\":2984:3006   */\n      add\n        /* \"#utility.yul\":2963:3016   */\n      tag_370\n      jump\t// in\n    tag_400:\n        /* \"#utility.yul\":2953:3016   */\n      swap3\n      pop\n        /* \"#utility.yul\":2909:3026   */\n      pop\n        /* \"#utility.yul\":3065:3067   */\n      0x20\n        /* \"#utility.yul\":3091:3144   */\n      tag_401\n        /* \"#utility.yul\":3136:3143   */\n      dup6\n        /* \"#utility.yul\":3127:3133   */\n      dup3\n        /* \"#utility.yul\":3116:3125   */\n      dup7\n        /* \"#utility.yul\":3112:3134   */\n      add\n        /* \"#utility.yul\":3091:3144   */\n      tag_370\n      jump\t// in\n    tag_401:\n        /* \"#utility.yul\":3081:3144   */\n      swap2\n      pop\n        /* \"#utility.yul\":3036:3154   */\n      pop\n        /* \"#utility.yul\":2687:3161   */\n      swap3\n      pop\n      swap3\n      swap1\n      pop\n      jump\t// out\n        /* \"#utility.yul\":3167:3786   */\n    tag_77:\n        /* \"#utility.yul\":3244:3250   */\n      0x00\n        /* \"#utility.yul\":3252:3258   */\n      dup1\n        /* \"#utility.yul\":3260:3266   */\n      0x00\n        /* \"#utility.yul\":3309:3311   */\n      0x60\n        /* \"#utility.yul\":3297:3306   */\n      dup5\n        /* \"#utility.yul\":3288:3295   */\n      dup7\n        /* \"#utility.yul\":3284:3307   */\n      sub\n        /* \"#utility.yul\":3280:3312   */\n      slt\n        /* \"#utility.yul\":3277:3396   */\n      iszero\n      tag_403\n      jumpi\n        /* \"#utility.yul\":3315:3394   */\n      tag_404\n      tag_395\n      jump\t// in\n    tag_404:\n        /* \"#utility.yul\":3277:3396   */\n    tag_403:\n        /* \"#utility.yul\":3435:3436   */\n      0x00\n        /* \"#utility.yul\":3460:3513   */\n      tag_405\n        /* \"#utility.yul\":3505:3512   */\n      dup7\n        /* \"#utility.yul\":3496:3502   */\n      dup3\n        /* \"#utility.yul\":3485:3494   */\n      dup8\n        /* \"#utility.yul\":3481:3503   */\n      add\n        /* \"#utility.yul\":3460:3513   */\n      tag_370\n      jump\t// in\n    tag_405:\n        /* \"#utility.yul\":3450:3513   */\n      swap4\n      pop\n        /* \"#utility.yul\":3406:3523   */\n      pop\n        /* \"#utility.yul\":3562:3564   */\n      0x20\n        /* \"#utility.yul\":3588:3641   */\n      tag_406\n        /* \"#utility.yul\":3633:3640   */\n      dup7\n        /* \"#utility.yul\":3624:3630   */\n      dup3\n        /* \"#utility.yul\":3613:3622   */\n      dup8\n        /* \"#utility.yul\":3609:3631   */\n      add\n        /* \"#utility.yul\":3588:3641   */\n      tag_370\n      jump\t// in\n    tag_406:\n        /* \"#utility.yul\":3578:3641   */\n      swap3\n      pop\n        /* \"#utility.yul\":3533:3651   */\n      pop\n        /* \"#utility.yul\":3690:3692   */\n      0x40\n        /* \"#utility.yul\":3716:3769   */\n      tag_407\n        /* \"#utility.yul\":3761:3768   */\n      dup7\n        /* \"#utility.yul\":3752:3758   */\n      dup3\n        /* \"#utility.yul\":3741:3750   */\n      dup8\n        /* \"#utility.yul\":3737:3759   */\n      add\n        /* \"#utility.yul\":3716:3769   */\n      tag_359\n      jump\t// in\n    tag_407:\n        /* \"#utility.yul\":3706:3769   */\n      swap2\n      pop\n        /* \"#utility.yul\":3661:3779   */\n      pop\n        /* \"#utility.yul\":3167:3786   */\n      swap3\n      pop\n      swap3\n      pop\n      swap3\n      jump\t// out\n        /* \"#utility.yul\":3792:4266   */\n    tag_62:\n        /* \"#utility.yul\":3860:3866   */\n      0x00\n        /* \"#utility.yul\":3868:3874   */\n      dup1\n        /* \"#utility.yul\":3917:3919   */\n      0x40\n        /* \"#utility.yul\":3905:3914   */\n      dup4\n        /* \"#utility.yul\":3896:3903   */\n      dup6\n        /* \"#utility.yul\":3892:3915   */\n      sub\n        /* \"#utility.yul\":3888:3920   */\n      slt\n        /* \"#utility.yul\":3885:4004   */\n      iszero\n      tag_409\n      jumpi\n        /* \"#utility.yul\":3923:4002   */\n      tag_410\n      tag_395\n      jump\t// in\n    tag_410:\n        /* \"#utility.yul\":3885:4004   */\n    tag_409:\n        /* \"#utility.yul\":4043:4044   */\n      0x00\n        /* \"#utility.yul\":4068:4121   */\n      tag_411\n        /* \"#utility.yul\":4113:4120   */\n      dup6\n        /* \"#utility.yul\":4104:4110   */\n      dup3\n        /* \"#utility.yul\":4093:4102   */\n      dup7\n        /* \"#utility.yul\":4089:4111   */\n      add\n        /* \"#utility.yul\":4068:4121   */\n      tag_370\n      jump\t// in\n    tag_411:\n        /* \"#utility.yul\":4058:4121   */\n      swap3\n      pop\n        /* \"#utility.yul\":4014:4131   */\n      pop\n        /* \"#utility.yul\":4170:4172   */\n      0x20\n        /* \"#utility.yul\":4196:4249   */\n      tag_412\n        /* \"#utility.yul\":4241:4248   */\n      dup6\n        /* \"#utility.yul\":4232:4238   */\n      dup3\n        /* \"#utility.yul\":4221:4230   */\n      dup7\n        /* \"#utility.yul\":4217:4239   */\n      add\n        /* \"#utility.yul\":4196:4249   */\n      tag_359\n      jump\t// in\n    tag_412:\n        /* \"#utility.yul\":4186:4249   */\n      swap2\n      pop\n        /* \"#utility.yul\":4141:4259   */\n      pop\n        /* \"#utility.yul\":3792:4266   */\n      swap3\n      pop\n      swap3\n      swap1\n      pop\n      jump\t// out\n        /* \"#utility.yul\":4272:5637   */\n    tag_159:\n        /* \"#utility.yul\":4418:4424   */\n      0x00\n        /* \"#utility.yul\":4426:4432   */\n      dup1\n        /* \"#utility.yul\":4434:4440   */\n      0x00\n        /* \"#utility.yul\":4442:4448   */\n      dup1\n        /* \"#utility.yul\":4491:4494   */\n      0x80\n        /* \"#utility.yul\":4479:4488   */\n      dup6\n        /* \"#utility.yul\":4470:4477   */\n      dup8\n        /* \"#utility.yul\":4466:4489   */\n      sub\n        /* \"#utility.yul\":4462:4495   */\n      slt\n        /* \"#utility.yul\":4459:4579   */\n      iszero\n      tag_414\n      jumpi\n        /* \"#utility.yul\":4498:4577   */\n      tag_415\n      tag_395\n      jump\t// in\n    tag_415:\n        /* \"#utility.yul\":4459:4579   */\n    tag_414:\n        /* \"#utility.yul\":4646:4647   */\n      0x00\n        /* \"#utility.yul\":4635:4644   */\n      dup6\n        /* \"#utility.yul\":4631:4648   */\n      add\n        /* \"#utility.yul\":4618:4649   */\n      calldataload\n        /* \"#utility.yul\":4676:4694   */\n      0xffffffffffffffff\n        /* \"#utility.yul\":4668:4674   */\n      dup2\n        /* \"#utility.yul\":4665:4695   */\n      gt\n        /* \"#utility.yul\":4662:4779   */\n      iszero\n      tag_416\n      jumpi\n        /* \"#utility.yul\":4698:4777   */\n      tag_417\n      tag_418\n      jump\t// in\n    tag_417:\n        /* \"#utility.yul\":4662:4779   */\n    tag_416:\n        /* \"#utility.yul\":4803:4866   */\n      tag_419\n        /* \"#utility.yul\":4858:4865   */\n      dup8\n        /* \"#utility.yul\":4849:4855   */\n      dup3\n        /* \"#utility.yul\":4838:4847   */\n      dup9\n        /* \"#utility.yul\":4834:4856   */\n      add\n        /* \"#utility.yul\":4803:4866   */\n      tag_384\n      jump\t// in\n    tag_419:\n        /* \"#utility.yul\":4793:4866   */\n      swap5\n      pop\n        /* \"#utility.yul\":4589:4876   */\n      pop\n        /* \"#utility.yul\":4915:4917   */\n      0x20\n        /* \"#utility.yul\":4941:4994   */\n      tag_420\n        /* \"#utility.yul\":4986:4993   */\n      dup8\n        /* \"#utility.yul\":4977:4983   */\n      dup3\n        /* \"#utility.yul\":4966:4975   */\n      dup9\n        /* \"#utility.yul\":4962:4984   */\n      add\n        /* \"#utility.yul\":4941:4994   */\n      tag_359\n      jump\t// in\n    tag_420:\n        /* \"#utility.yul\":4931:4994   */\n      swap4\n      pop\n        /* \"#utility.yul\":4886:5004   */\n      pop\n        /* \"#utility.yul\":5071:5073   */\n      0x40\n        /* \"#utility.yul\":5060:5069   */\n      dup6\n        /* \"#utility.yul\":5056:5074   */\n      add\n        /* \"#utility.yul\":5043:5075   */\n      calldataload\n        /* \"#utility.yul\":5102:5120   */\n      0xffffffffffffffff\n        /* \"#utility.yul\":5094:5100   */\n      dup2\n        /* \"#utility.yul\":5091:5121   */\n      gt\n        /* \"#utility.yul\":5088:5205   */\n      iszero\n      tag_421\n      jumpi\n        /* \"#utility.yul\":5124:5203   */\n      tag_422\n      tag_418\n      jump\t// in\n    tag_422:\n        /* \"#utility.yul\":5088:5205   */\n    tag_421:\n        /* \"#utility.yul\":5229:5307   */\n      tag_423\n        /* \"#utility.yul\":5299:5306   */\n      dup8\n        /* \"#utility.yul\":5290:5296   */\n      dup3\n        /* \"#utility.yul\":5279:5288   */\n      dup9\n        /* \"#utility.yul\":5275:5297   */\n      add\n        /* \"#utility.yul\":5229:5307   */\n      tag_374\n      jump\t// in\n    tag_423:\n        /* \"#utility.yul\":5219:5307   */\n      swap3\n      pop\n        /* \"#utility.yul\":5014:5317   */\n      pop\n        /* \"#utility.yul\":5384:5386   */\n      0x60\n        /* \"#utility.yul\":5373:5382   */\n      dup6\n        /* \"#utility.yul\":5369:5387   */\n      add\n        /* \"#utility.yul\":5356:5388   */\n      calldataload\n        /* \"#utility.yul\":5415:5433   */\n      0xffffffffffffffff\n        /* \"#utility.yul\":5407:5413   */\n      dup2\n        /* \"#utility.yul\":5404:5434   */\n      gt\n        /* \"#utility.yul\":5401:5518   */\n      iszero\n      tag_424\n      jumpi\n        /* \"#utility.yul\":5437:5516   */\n      tag_425\n      tag_418\n      jump\t// in\n    tag_425:\n        /* \"#utility.yul\":5401:5518   */\n    tag_424:\n        /* \"#utility.yul\":5542:5620   */\n      tag_426\n        /* \"#utility.yul\":5612:5619   */\n      dup8\n        /* \"#utility.yul\":5603:5609   */\n      dup3\n        /* \"#utility.yul\":5592:5601   */\n      dup9\n        /* \"#utility.yul\":5588:5610   */\n      add\n        /* \"#utility.yul\":5542:5620   */\n      tag_374\n      jump\t// in\n    tag_426:\n        /* \"#utility.yul\":5532:5620   */\n      swap2\n      pop\n        /* \"#utility.yul\":5327:5630   */\n      pop\n        /* \"#utility.yul\":4272:5637   */\n      swap3\n      swap6\n      swap2\n      swap5\n      pop\n      swap3\n      pop\n      jump\t// out\n        /* \"#utility.yul\":5643:6588   */\n    tag_192:\n        /* \"#utility.yul\":5739:5745   */\n      0x00\n        /* \"#utility.yul\":5747:5753   */\n      dup1\n        /* \"#utility.yul\":5755:5761   */\n      0x00\n        /* \"#utility.yul\":5763:5769   */\n      dup1\n        /* \"#utility.yul\":5812:5815   */\n      0x80\n        /* \"#utility.yul\":5800:5809   */\n      dup6\n        /* \"#utility.yul\":5791:5798   */\n      dup8\n        /* \"#utility.yul\":5787:5810   */\n      sub\n        /* \"#utility.yul\":5783:5816   */\n      slt\n        /* \"#utility.yul\":5780:5900   */\n      iszero\n      tag_428\n      jumpi\n        /* \"#utility.yul\":5819:5898   */\n      tag_429\n      tag_395\n      jump\t// in\n    tag_429:\n        /* \"#utility.yul\":5780:5900   */\n    tag_428:\n        /* \"#utility.yul\":5967:5968   */\n      0x00\n        /* \"#utility.yul\":5956:5965   */\n      dup6\n        /* \"#utility.yul\":5952:5969   */\n      add\n        /* \"#utility.yul\":5939:5970   */\n      calldataload\n        /* \"#utility.yul\":5997:6015   */\n      0xffffffffffffffff\n        /* \"#utility.yul\":5989:5995   */\n      dup2\n        /* \"#utility.yul\":5986:6016   */\n      gt\n        /* \"#utility.yul\":5983:6100   */\n      iszero\n      tag_430\n      jumpi\n        /* \"#utility.yul\":6019:6098   */\n      tag_431\n      tag_418\n      jump\t// in\n    tag_431:\n        /* \"#utility.yul\":5983:6100   */\n    tag_430:\n        /* \"#utility.yul\":6124:6187   */\n      tag_432\n        /* \"#utility.yul\":6179:6186   */\n      dup8\n        /* \"#utility.yul\":6170:6176   */\n      dup3\n        /* \"#utility.yul\":6159:6168   */\n      dup9\n        /* \"#utility.yul\":6155:6177   */\n      add\n        /* \"#utility.yul\":6124:6187   */\n      tag_384\n      jump\t// in\n    tag_432:\n        /* \"#utility.yul\":6114:6187   */\n      swap5\n      pop\n        /* \"#utility.yul\":5910:6197   */\n      pop\n        /* \"#utility.yul\":6236:6238   */\n      0x20\n        /* \"#utility.yul\":6262:6315   */\n      tag_433\n        /* \"#utility.yul\":6307:6314   */\n      dup8\n        /* \"#utility.yul\":6298:6304   */\n      dup3\n        /* \"#utility.yul\":6287:6296   */\n      dup9\n        /* \"#utility.yul\":6283:6305   */\n      add\n        /* \"#utility.yul\":6262:6315   */\n      tag_359\n      jump\t// in\n    tag_433:\n        /* \"#utility.yul\":6252:6315   */\n      swap4\n      pop\n        /* \"#utility.yul\":6207:6325   */\n      pop\n        /* \"#utility.yul\":6364:6366   */\n      0x40\n        /* \"#utility.yul\":6390:6443   */\n      tag_434\n        /* \"#utility.yul\":6435:6442   */\n      dup8\n        /* \"#utility.yul\":6426:6432   */\n      dup3\n        /* \"#utility.yul\":6415:6424   */\n      dup9\n        /* \"#utility.yul\":6411:6433   */\n      add\n        /* \"#utility.yul\":6390:6443   */\n      tag_359\n      jump\t// in\n    tag_434:\n        /* \"#utility.yul\":6380:6443   */\n      swap3\n      pop\n        /* \"#utility.yul\":6335:6453   */\n      pop\n        /* \"#utility.yul\":6492:6494   */\n      0x60\n        /* \"#utility.yul\":6518:6571   */\n      tag_435\n        /* \"#utility.yul\":6563:6570   */\n      dup8\n        /* \"#utility.yul\":6554:6560   */\n      dup3\n        /* \"#utility.yul\":6543:6552   */\n      dup9\n        /* \"#utility.yul\":6539:6561   */\n      add\n        /* \"#utility.yul\":6518:6571   */\n      tag_359\n      jump\t// in\n    tag_435:\n        /* \"#utility.yul\":6508:6571   */\n      swap2\n      pop\n        /* \"#utility.yul\":6463:6581   */\n      pop\n        /* \"#utility.yul\":5643:6588   */\n      swap3\n      swap6\n      swap2\n      swap5\n      pop\n      swap3\n      pop\n      jump\t// out\n        /* \"#utility.yul\":6594:6923   */\n    tag_47:\n        /* \"#utility.yul\":6653:6659   */\n      0x00\n        /* \"#utility.yul\":6702:6704   */\n      0x20\n        /* \"#utility.yul\":6690:6699   */\n      dup3\n        /* \"#utility.yul\":6681:6688   */\n      dup5\n        /* \"#utility.yul\":6677:6700   */\n      sub\n        /* \"#utility.yul\":6673:6705   */\n      slt\n        /* \"#utility.yul\":6670:6789   */\n      iszero\n      tag_437\n      jumpi\n        /* \"#utility.yul\":6708:6787   */\n      tag_438\n      tag_395\n      jump\t// in\n    tag_438:\n        /* \"#utility.yul\":6670:6789   */\n    tag_437:\n        /* \"#utility.yul\":6828:6829   */\n      0x00\n        /* \"#utility.yul\":6853:6906   */\n      tag_439\n        /* \"#utility.yul\":6898:6905   */\n      dup5\n        /* \"#utility.yul\":6889:6895   */\n      dup3\n        /* \"#utility.yul\":6878:6887   */\n      dup6\n        /* \"#utility.yul\":6874:6896   */\n      add\n        /* \"#utility.yul\":6853:6906   */\n      tag_359\n      jump\t// in\n    tag_439:\n        /* \"#utility.yul\":6843:6906   */\n      swap2\n      pop\n        /* \"#utility.yul\":6799:6916   */\n      pop\n        /* \"#utility.yul\":6594:6923   */\n      swap3\n      swap2\n      pop\n      pop\n      jump\t// out\n        /* \"#utility.yul\":6929:7397   */\n    tag_198:\n        /* \"#utility.yul\":6994:7000   */\n      0x00\n        /* \"#utility.yul\":7002:7008   */\n      dup1\n        /* \"#utility.yul\":7051:7053   */\n      0x40\n        /* \"#utility.yul\":7039:7048   */\n      dup4\n        /* \"#utility.yul\":7030:7037   */\n      dup6\n        /* \"#utility.yul\":7026:7049   */\n      sub\n        /* \"#utility.yul\":7022:7054   */\n      slt\n        /* \"#utility.yul\":7019:7138   */\n      iszero\n      tag_441\n      jumpi\n        /* \"#utility.yul\":7057:7136   */\n      tag_442\n      tag_395\n      jump\t// in\n    tag_442:\n        /* \"#utility.yul\":7019:7138   */\n    tag_441:\n        /* \"#utility.yul\":7177:7178   */\n      0x00\n        /* \"#utility.yul\":7202:7255   */\n      tag_443\n        /* \"#utility.yul\":7247:7254   */\n      dup6\n        /* \"#utility.yul\":7238:7244   */\n      dup3\n        /* \"#utility.yul\":7227:7236   */\n      dup7\n        /* \"#utility.yul\":7223:7245   */\n      add\n        /* \"#utility.yul\":7202:7255   */\n      tag_359\n      jump\t// in\n    tag_443:\n        /* \"#utility.yul\":7192:7255   */\n      swap3\n      pop\n        /* \"#utility.yul\":7148:7265   */\n      pop\n        /* \"#utility.yul\":7304:7306   */\n      0x20\n        /* \"#utility.yul\":7330:7380   */\n      tag_444\n        /* \"#utility.yul\":7372:7379   */\n      dup6\n        /* \"#utility.yul\":7363:7369   */\n      dup3\n        /* \"#utility.yul\":7352:7361   */\n      dup7\n        /* \"#utility.yul\":7348:7370   */\n      add\n        /* \"#utility.yul\":7330:7380   */\n      tag_380\n      jump\t// in\n    tag_444:\n        /* \"#utility.yul\":7320:7380   */\n      swap2\n      pop\n        /* \"#utility.yul\":7275:7390   */\n      pop\n        /* \"#utility.yul\":6929:7397   */\n      swap3\n      pop\n      swap3\n      swap1\n      pop\n      jump\t// out\n        /* \"#utility.yul\":7403:7521   */\n    tag_445:\n        /* \"#utility.yul\":7490:7514   */\n      tag_447\n        /* \"#utility.yul\":7508:7513   */\n      dup2\n        /* \"#utility.yul\":7490:7514   */\n      tag_448\n      jump\t// in\n    tag_447:\n        /* \"#utility.yul\":7485:7488   */\n      dup3\n        /* \"#utility.yul\":7478:7515   */\n      mstore\n        /* \"#utility.yul\":7403:7521   */\n      pop\n      pop\n      jump\t// out\n        /* \"#utility.yul\":7527:7636   */\n    tag_449:\n        /* \"#utility.yul\":7608:7629   */\n      tag_451\n        /* \"#utility.yul\":7623:7628   */\n      dup2\n        /* \"#utility.yul\":7608:7629   */\n      tag_452\n      jump\t// in\n    tag_451:\n        /* \"#utility.yul\":7603:7606   */\n      dup3\n        /* \"#utility.yul\":7596:7630   */\n      mstore\n        /* \"#utility.yul\":7527:7636   */\n      pop\n      pop\n      jump\t// out\n        /* \"#utility.yul\":7642:7760   */\n    tag_453:\n        /* \"#utility.yul\":7729:7753   */\n      tag_455\n        /* \"#utility.yul\":7747:7752   */\n      dup2\n        /* \"#utility.yul\":7729:7753   */\n      tag_456\n      jump\t// in\n    tag_455:\n        /* \"#utility.yul\":7724:7727   */\n      dup3\n        /* \"#utility.yul\":7717:7754   */\n      mstore\n        /* \"#utility.yul\":7642:7760   */\n      pop\n      pop\n      jump\t// out\n        /* \"#utility.yul\":7766:8126   */\n    tag_457:\n        /* \"#utility.yul\":7852:7855   */\n      0x00\n        /* \"#utility.yul\":7880:7918   */\n      tag_459\n        /* \"#utility.yul\":7912:7917   */\n      dup3\n        /* \"#utility.yul\":7880:7918   */\n      tag_460\n      jump\t// in\n    tag_459:\n        /* \"#utility.yul\":7934:8004   */\n      tag_461\n        /* \"#utility.yul\":7997:8003   */\n      dup2\n        /* \"#utility.yul\":7992:7995   */\n      dup6\n        /* \"#utility.yul\":7934:8004   */\n      tag_462\n      jump\t// in\n    tag_461:\n        /* \"#utility.yul\":7927:8004   */\n      swap4\n      pop\n        /* \"#utility.yul\":8013:8065   */\n      tag_463\n        /* \"#utility.yul\":8058:8064   */\n      dup2\n        /* \"#utility.yul\":8053:8056   */\n      dup6\n        /* \"#utility.yul\":8046:8050   */\n      0x20\n        /* \"#utility.yul\":8039:8044   */\n      dup7\n        /* \"#utility.yul\":8035:8051   */\n      add\n        /* \"#utility.yul\":8013:8065   */\n      tag_464\n      jump\t// in\n    tag_463:\n        /* \"#utility.yul\":8090:8119   */\n      tag_465\n        /* \"#utility.yul\":8112:8118   */\n      dup2\n        /* \"#utility.yul\":8090:8119   */\n      tag_466\n      jump\t// in\n    tag_465:\n        /* \"#utility.yul\":8085:8088   */\n      dup5\n        /* \"#utility.yul\":8081:8120   */\n      add\n        /* \"#utility.yul\":8074:8120   */\n      swap2\n      pop\n        /* \"#utility.yul\":7856:8126   */\n      pop\n        /* \"#utility.yul\":7766:8126   */\n      swap3\n      swap2\n      pop\n      pop\n      jump\t// out\n        /* \"#utility.yul\":8132:8496   */\n    tag_467:\n        /* \"#utility.yul\":8220:8223   */\n      0x00\n        /* \"#utility.yul\":8248:8287   */\n      tag_469\n        /* \"#utility.yul\":8281:8286   */\n      dup3\n        /* \"#utility.yul\":8248:8287   */\n      tag_470\n      jump\t// in\n    tag_469:\n        /* \"#utility.yul\":8303:8374   */\n      tag_471\n        /* \"#utility.yul\":8367:8373   */\n      dup2\n        /* \"#utility.yul\":8362:8365   */\n      dup6\n        /* \"#utility.yul\":8303:8374   */\n      tag_472\n      jump\t// in\n    tag_471:\n        /* \"#utility.yul\":8296:8374   */\n      swap4\n      pop\n        /* \"#utility.yul\":8383:8435   */\n      tag_473\n        /* \"#utility.yul\":8428:8434   */\n      dup2\n        /* \"#utility.yul\":8423:8426   */\n      dup6\n        /* \"#utility.yul\":8416:8420   */\n      0x20\n        /* \"#utility.yul\":8409:8414   */\n      dup7\n        /* \"#utility.yul\":8405:8421   */\n      add\n        /* \"#utility.yul\":8383:8435   */\n      tag_464\n      jump\t// in\n    tag_473:\n        /* \"#utility.yul\":8460:8489   */\n      tag_474\n        /* \"#utility.yul\":8482:8488   */\n      dup2\n        /* \"#utility.yul\":8460:8489   */\n      tag_466\n      jump\t// in\n    tag_474:\n        /* \"#utility.yul\":8455:8458   */\n      dup5\n        /* \"#utility.yul\":8451:8490   */\n      add\n        /* \"#utility.yul\":8444:8490   */\n      swap2\n      pop\n        /* \"#utility.yul\":8224:8496   */\n      pop\n        /* \"#utility.yul\":8132:8496   */\n      swap3\n      swap2\n      pop\n      pop\n      jump\t// out\n        /* \"#utility.yul\":8502:8868   */\n    tag_475:\n        /* \"#utility.yul\":8644:8647   */\n      0x00\n        /* \"#utility.yul\":8665:8732   */\n      tag_477\n        /* \"#utility.yul\":8729:8731   */\n      0x23\n        /* \"#utility.yul\":8724:8727   */\n      dup4\n        /* \"#utility.yul\":8665:8732   */\n      tag_472\n      jump\t// in\n    tag_477:\n        /* \"#utility.yul\":8658:8732   */\n      swap2\n      pop\n        /* \"#utility.yul\":8741:8834   */\n      tag_478\n        /* \"#utility.yul\":8830:8833   */\n      dup3\n        /* \"#utility.yul\":8741:8834   */\n      tag_479\n      jump\t// in\n    tag_478:\n        /* \"#utility.yul\":8859:8861   */\n      0x40\n        /* \"#utility.yul\":8854:8857   */\n      dup3\n        /* \"#utility.yul\":8850:8862   */\n      add\n        /* \"#utility.yul\":8843:8862   */\n      swap1\n      pop\n        /* \"#utility.yul\":8502:8868   */\n      swap2\n      swap1\n      pop\n      jump\t// out\n        /* \"#utility.yul\":8874:9240   */\n    tag_480:\n        /* \"#utility.yul\":9016:9019   */\n      0x00\n        /* \"#utility.yul\":9037:9104   */\n      tag_482\n        /* \"#utility.yul\":9101:9103   */\n      0x1c\n        /* \"#utility.yul\":9096:9099   */\n      dup4\n        /* \"#utility.yul\":9037:9104   */\n      tag_472\n      jump\t// in\n    tag_482:\n        /* \"#utility.yul\":9030:9104   */\n      swap2\n      pop\n        /* \"#utility.yul\":9113:9206   */\n      tag_483\n        /* \"#utility.yul\":9202:9205   */\n      dup3\n        /* \"#utility.yul\":9113:9206   */\n      tag_484\n      jump\t// in\n    tag_483:\n        /* \"#utility.yul\":9231:9233   */\n      0x20\n        /* \"#utility.yul\":9226:9229   */\n      dup3\n        /* \"#utility.yul\":9222:9234   */\n      add\n        /* \"#utility.yul\":9215:9234   */\n      swap1\n      pop\n        /* \"#utility.yul\":8874:9240   */\n      swap2\n      swap1\n      pop\n      jump\t// out\n        /* \"#utility.yul\":9246:9612   */\n    tag_485:\n        /* \"#utility.yul\":9388:9391   */\n      0x00\n        /* \"#utility.yul\":9409:9476   */\n      tag_487\n        /* \"#utility.yul\":9473:9475   */\n      0x22\n        /* \"#utility.yul\":9468:9471   */\n      dup4\n        /* \"#utility.yul\":9409:9476   */\n      tag_472\n      jump\t// in\n    tag_487:\n        /* \"#utility.yul\":9402:9476   */\n      swap2\n      pop\n        /* \"#utility.yul\":9485:9578   */\n      tag_488\n        /* \"#utility.yul\":9574:9577   */\n      dup3\n        /* \"#utility.yul\":9485:9578   */\n      tag_489\n      jump\t// in\n    tag_488:\n        /* \"#utility.yul\":9603:9605   */\n      0x40\n        /* \"#utility.yul\":9598:9601   */\n      dup3\n        /* \"#utility.yul\":9594:9606   */\n      add\n        /* \"#utility.yul\":9587:9606   */\n      swap1\n      pop\n        /* \"#utility.yul\":9246:9612   */\n      swap2\n      swap1\n      pop\n      jump\t// out\n        /* \"#utility.yul\":9618:9984   */\n    tag_490:\n        /* \"#utility.yul\":9760:9763   */\n      0x00\n        /* \"#utility.yul\":9781:9848   */\n      tag_492\n        /* \"#utility.yul\":9845:9847   */\n      0x1d\n        /* \"#utility.yul\":9840:9843   */\n      dup4\n        /* \"#utility.yul\":9781:9848   */\n      tag_472\n      jump\t// in\n    tag_492:\n        /* \"#utility.yul\":9774:9848   */\n      swap2\n      pop\n        /* \"#utility.yul\":9857:9950   */\n      tag_493\n        /* \"#utility.yul\":9946:9949   */\n      dup3\n        /* \"#utility.yul\":9857:9950   */\n      tag_494\n      jump\t// in\n    tag_493:\n        /* \"#utility.yul\":9975:9977   */\n      0x20\n        /* \"#utility.yul\":9970:9973   */\n      dup3\n        /* \"#utility.yul\":9966:9978   */\n      add\n        /* \"#utility.yul\":9959:9978   */\n      swap1\n      pop\n        /* \"#utility.yul\":9618:9984   */\n      swap2\n      swap1\n      pop\n      jump\t// out\n        /* \"#utility.yul\":9990:10356   */\n    tag_495:\n        /* \"#utility.yul\":10132:10135   */\n      0x00\n        /* \"#utility.yul\":10153:10220   */\n      tag_497\n        /* \"#utility.yul\":10217:10219   */\n      0x26\n        /* \"#utility.yul\":10212:10215   */\n      dup4\n        /* \"#utility.yul\":10153:10220   */\n      tag_472\n      jump\t// in\n    tag_497:\n        /* \"#utility.yul\":10146:10220   */\n      swap2\n      pop\n        /* \"#utility.yul\":10229:10322   */\n      tag_498\n        /* \"#utility.yul\":10318:10321   */\n      dup3\n        /* \"#utility.yul\":10229:10322   */\n      tag_499\n      jump\t// in\n    tag_498:\n        /* \"#utility.yul\":10347:10349   */\n      0x40\n        /* \"#utility.yul\":10342:10345   */\n      dup3\n        /* \"#utility.yul\":10338:10350   */\n      add\n        /* \"#utility.yul\":10331:10350   */\n      swap1\n      pop\n        /* \"#utility.yul\":9990:10356   */\n      swap2\n      swap1\n      pop\n      jump\t// out\n        /* \"#utility.yul\":10362:10728   */\n    tag_500:\n        /* \"#utility.yul\":10504:10507   */\n      0x00\n        /* \"#utility.yul\":10525:10592   */\n      tag_502\n        /* \"#utility.yul\":10589:10591   */\n      0x25\n        /* \"#utility.yul\":10584:10587   */\n      dup4\n        /* \"#utility.yul\":10525:10592   */\n      tag_472\n      jump\t// in\n    tag_502:\n        /* \"#utility.yul\":10518:10592   */\n      swap2\n      pop\n        /* \"#utility.yul\":10601:10694   */\n      tag_503\n        /* \"#utility.yul\":10690:10693   */\n      dup3\n        /* \"#utility.yul\":10601:10694   */\n      tag_504\n      jump\t// in\n    tag_503:\n        /* \"#utility.yul\":10719:10721   */\n      0x40\n        /* \"#utility.yul\":10714:10717   */\n      dup3\n        /* \"#utility.yul\":10710:10722   */\n      add\n        /* \"#utility.yul\":10703:10722   */\n      swap1\n      pop\n        /* \"#utility.yul\":10362:10728   */\n      swap2\n      swap1\n      pop\n      jump\t// out\n        /* \"#utility.yul\":10734:11100   */\n    tag_505:\n        /* \"#utility.yul\":10876:10879   */\n      0x00\n        /* \"#utility.yul\":10897:10964   */\n      tag_507\n        /* \"#utility.yul\":10961:10963   */\n      0x12\n        /* \"#utility.yul\":10956:10959   */\n      dup4\n        /* \"#utility.yul\":10897:10964   */\n      tag_472\n      jump\t// in\n    tag_507:\n        /* \"#utility.yul\":10890:10964   */\n      swap2\n      pop\n        /* \"#utility.yul\":10973:11066   */\n      tag_508\n        /* \"#utility.yul\":11062:11065   */\n      dup3\n        /* \"#utility.yul\":10973:11066   */\n      tag_509\n      jump\t// in\n    tag_508:\n        /* \"#utility.yul\":11091:11093   */\n      0x20\n        /* \"#utility.yul\":11086:11089   */\n      dup3\n        /* \"#utility.yul\":11082:11094   */\n      add\n        /* \"#utility.yul\":11075:11094   */\n      swap1\n      pop\n        /* \"#utility.yul\":10734:11100   */\n      swap2\n      swap1\n      pop\n      jump\t// out\n        /* \"#utility.yul\":11106:11472   */\n    tag_510:\n        /* \"#utility.yul\":11248:11251   */\n      0x00\n        /* \"#utility.yul\":11269:11336   */\n      tag_512\n        /* \"#utility.yul\":11333:11335   */\n      0x24\n        /* \"#utility.yul\":11328:11331   */\n      dup4\n        /* \"#utility.yul\":11269:11336   */\n      tag_472\n      jump\t// in\n    tag_512:\n        /* \"#utility.yul\":11262:11336   */\n      swap2\n      pop\n        /* \"#utility.yul\":11345:11438   */\n      tag_513\n        /* \"#utility.yul\":11434:11437   */\n      dup3\n        /* \"#utility.yul\":11345:11438   */\n      tag_514\n      jump\t// in\n    tag_513:\n        /* \"#utility.yul\":11463:11465   */\n      0x40\n        /* \"#utility.yul\":11458:11461   */\n      dup3\n        /* \"#utility.yul\":11454:11466   */\n      add\n        /* \"#utility.yul\":11447:11466   */\n      swap1\n      pop\n        /* \"#utility.yul\":11106:11472   */\n      swap2\n      swap1\n      pop\n      jump\t// out\n        /* \"#utility.yul\":11478:11844   */\n    tag_515:\n        /* \"#utility.yul\":11620:11623   */\n      0x00\n        /* \"#utility.yul\":11641:11708   */\n      tag_517\n        /* \"#utility.yul\":11705:11707   */\n      0x25\n        /* \"#utility.yul\":11700:11703   */\n      dup4\n        /* \"#utility.yul\":11641:11708   */\n      tag_472\n      jump\t// in\n    tag_517:\n        /* \"#utility.yul\":11634:11708   */\n      swap2\n      pop\n        /* \"#utility.yul\":11717:11810   */\n      tag_518\n        /* \"#utility.yul\":11806:11809   */\n      dup3\n        /* \"#utility.yul\":11717:11810   */\n      tag_519\n      jump\t// in\n    tag_518:\n        /* \"#utility.yul\":11835:11837   */\n      0x40\n        /* \"#utility.yul\":11830:11833   */\n      dup3\n        /* \"#utility.yul\":11826:11838   */\n      add\n        /* \"#utility.yul\":11819:11838   */\n      swap1\n      pop\n        /* \"#utility.yul\":11478:11844   */\n      swap2\n      swap1\n      pop\n      jump\t// out\n        /* \"#utility.yul\":11850:11968   */\n    tag_520:\n        /* \"#utility.yul\":11937:11961   */\n      tag_522\n        /* \"#utility.yul\":11955:11960   */\n      dup2\n        /* \"#utility.yul\":11937:11961   */\n      tag_523\n      jump\t// in\n    tag_522:\n        /* \"#utility.yul\":11932:11935   */\n      dup3\n        /* \"#utility.yul\":11925:11962   */\n      mstore\n        /* \"#utility.yul\":11850:11968   */\n      pop\n      pop\n      jump\t// out\n        /* \"#utility.yul\":11974:12086   */\n    tag_524:\n        /* \"#utility.yul\":12057:12079   */\n      tag_526\n        /* \"#utility.yul\":12073:12078   */\n      dup2\n        /* \"#utility.yul\":12057:12079   */\n      tag_527\n      jump\t// in\n    tag_526:\n        /* \"#utility.yul\":12052:12055   */\n      dup3\n        /* \"#utility.yul\":12045:12080   */\n      mstore\n        /* \"#utility.yul\":11974:12086   */\n      pop\n      pop\n      jump\t// out\n        /* \"#utility.yul\":12092:12314   */\n    tag_133:\n        /* \"#utility.yul\":12185:12189   */\n      0x00\n        /* \"#utility.yul\":12223:12225   */\n      0x20\n        /* \"#utility.yul\":12212:12221   */\n      dup3\n        /* \"#utility.yul\":12208:12226   */\n      add\n        /* \"#utility.yul\":12200:12226   */\n      swap1\n      pop\n        /* \"#utility.yul\":12236:12307   */\n      tag_529\n        /* \"#utility.yul\":12304:12305   */\n      0x00\n        /* \"#utility.yul\":12293:12302   */\n      dup4\n        /* \"#utility.yul\":12289:12306   */\n      add\n        /* \"#utility.yul\":12280:12286   */\n      dup5\n        /* \"#utility.yul\":12236:12307   */\n      tag_445\n      jump\t// in\n    tag_529:\n        /* \"#utility.yul\":12092:12314   */\n      swap3\n      swap2\n      pop\n      pop\n      jump\t// out\n        /* \"#utility.yul\":12320:12530   */\n    tag_65:\n        /* \"#utility.yul\":12407:12411   */\n      0x00\n        /* \"#utility.yul\":12445:12447   */\n      0x20\n        /* \"#utility.yul\":12434:12443   */\n      dup3\n        /* \"#utility.yul\":12430:12448   */\n      add\n        /* \"#utility.yul\":12422:12448   */\n      swap1\n      pop\n        /* \"#utility.yul\":12458:12523   */\n      tag_531\n        /* \"#utility.yul\":12520:12521   */\n      0x00\n        /* \"#utility.yul\":12509:12518   */\n      dup4\n        /* \"#utility.yul\":12505:12522   */\n      add\n        /* \"#utility.yul\":12496:12502   */\n      dup5\n        /* \"#utility.yul\":12458:12523   */\n      tag_449\n      jump\t// in\n    tag_531:\n        /* \"#utility.yul\":12320:12530   */\n      swap3\n      swap2\n      pop\n      pop\n      jump\t// out\n        /* \"#utility.yul\":12536:12758   */\n    tag_127:\n        /* \"#utility.yul\":12629:12633   */\n      0x00\n        /* \"#utility.yul\":12667:12669   */\n      0x20\n        /* \"#utility.yul\":12656:12665   */\n      dup3\n        /* \"#utility.yul\":12652:12670   */\n      add\n        /* \"#utility.yul\":12644:12670   */\n      swap1\n      pop\n        /* \"#utility.yul\":12680:12751   */\n      tag_533\n        /* \"#utility.yul\":12748:12749   */\n      0x00\n        /* \"#utility.yul\":12737:12746   */\n      dup4\n        /* \"#utility.yul\":12733:12750   */\n      add\n        /* \"#utility.yul\":12724:12730   */\n      dup5\n        /* \"#utility.yul\":12680:12751   */\n      tag_453\n      jump\t// in\n    tag_533:\n        /* \"#utility.yul\":12536:12758   */\n      swap3\n      swap2\n      pop\n      pop\n      jump\t// out\n        /* \"#utility.yul\":12764:13380   */\n    tag_50:\n        /* \"#utility.yul\":12947:12951   */\n      0x00\n        /* \"#utility.yul\":12985:12988   */\n      0x80\n        /* \"#utility.yul\":12974:12983   */\n      dup3\n        /* \"#utility.yul\":12970:12989   */\n      add\n        /* \"#utility.yul\":12962:12989   */\n      swap1\n      pop\n        /* \"#utility.yul\":13035:13044   */\n      dup2\n        /* \"#utility.yul\":13029:13033   */\n      dup2\n        /* \"#utility.yul\":13025:13045   */\n      sub\n        /* \"#utility.yul\":13021:13022   */\n      0x00\n        /* \"#utility.yul\":13010:13019   */\n      dup4\n        /* \"#utility.yul\":13006:13023   */\n      add\n        /* \"#utility.yul\":12999:13046   */\n      mstore\n        /* \"#utility.yul\":13063:13139   */\n      tag_535\n        /* \"#utility.yul\":13134:13138   */\n      dup2\n        /* \"#utility.yul\":13125:13131   */\n      dup8\n        /* \"#utility.yul\":13063:13139   */\n      tag_457\n      jump\t// in\n    tag_535:\n        /* \"#utility.yul\":13055:13139   */\n      swap1\n      pop\n        /* \"#utility.yul\":13149:13221   */\n      tag_536\n        /* \"#utility.yul\":13217:13219   */\n      0x20\n        /* \"#utility.yul\":13206:13215   */\n      dup4\n        /* \"#utility.yul\":13202:13220   */\n      add\n        /* \"#utility.yul\":13193:13199   */\n      dup7\n        /* \"#utility.yul\":13149:13221   */\n      tag_520\n      jump\t// in\n    tag_536:\n        /* \"#utility.yul\":13231:13297   */\n      tag_537\n        /* \"#utility.yul\":13293:13295   */\n      0x40\n        /* \"#utility.yul\":13282:13291   */\n      dup4\n        /* \"#utility.yul\":13278:13296   */\n      add\n        /* \"#utility.yul\":13269:13275   */\n      dup6\n        /* \"#utility.yul\":13231:13297   */\n      tag_449\n      jump\t// in\n    tag_537:\n        /* \"#utility.yul\":13307:13373   */\n      tag_538\n        /* \"#utility.yul\":13369:13371   */\n      0x60\n        /* \"#utility.yul\":13358:13367   */\n      dup4\n        /* \"#utility.yul\":13354:13372   */\n      add\n        /* \"#utility.yul\":13345:13351   */\n      dup5\n        /* \"#utility.yul\":13307:13373   */\n      tag_449\n      jump\t// in\n    tag_538:\n        /* \"#utility.yul\":12764:13380   */\n      swap6\n      swap5\n      pop\n      pop\n      pop\n      pop\n      pop\n      jump\t// out\n        /* \"#utility.yul\":13386:13699   */\n    tag_58:\n        /* \"#utility.yul\":13499:13503   */\n      0x00\n        /* \"#utility.yul\":13537:13539   */\n      0x20\n        /* \"#utility.yul\":13526:13535   */\n      dup3\n        /* \"#utility.yul\":13522:13540   */\n      add\n        /* \"#utility.yul\":13514:13540   */\n      swap1\n      pop\n        /* \"#utility.yul\":13586:13595   */\n      dup2\n        /* \"#utility.yul\":13580:13584   */\n      dup2\n        /* \"#utility.yul\":13576:13596   */\n      sub\n        /* \"#utility.yul\":13572:13573   */\n      0x00\n        /* \"#utility.yul\":13561:13570   */\n      dup4\n        /* \"#utility.yul\":13557:13574   */\n      add\n        /* \"#utility.yul\":13550:13597   */\n      mstore\n        /* \"#utility.yul\":13614:13692   */\n      tag_540\n        /* \"#utility.yul\":13687:13691   */\n      dup2\n        /* \"#utility.yul\":13678:13684   */\n      dup5\n        /* \"#utility.yul\":13614:13692   */\n      tag_467\n      jump\t// in\n    tag_540:\n        /* \"#utility.yul\":13606:13692   */\n      swap1\n      pop\n        /* \"#utility.yul\":13386:13699   */\n      swap3\n      swap2\n      pop\n      pop\n      jump\t// out\n        /* \"#utility.yul\":13705:14124   */\n    tag_324:\n        /* \"#utility.yul\":13871:13875   */\n      0x00\n        /* \"#utility.yul\":13909:13911   */\n      0x20\n        /* \"#utility.yul\":13898:13907   */\n      dup3\n        /* \"#utility.yul\":13894:13912   */\n      add\n        /* \"#utility.yul\":13886:13912   */\n      swap1\n      pop\n        /* \"#utility.yul\":13958:13967   */\n      dup2\n        /* \"#utility.yul\":13952:13956   */\n      dup2\n        /* \"#utility.yul\":13948:13968   */\n      sub\n        /* \"#utility.yul\":13944:13945   */\n      0x00\n        /* \"#utility.yul\":13933:13942   */\n      dup4\n        /* \"#utility.yul\":13929:13946   */\n      add\n        /* \"#utility.yul\":13922:13969   */\n      mstore\n        /* \"#utility.yul\":13986:14117   */\n      tag_542\n        /* \"#utility.yul\":14112:14116   */\n      dup2\n        /* \"#utility.yul\":13986:14117   */\n      tag_475\n      jump\t// in\n    tag_542:\n        /* \"#utility.yul\":13978:14117   */\n      swap1\n      pop\n        /* \"#utility.yul\":13705:14124   */\n      swap2\n      swap1\n      pop\n      jump\t// out\n        /* \"#utility.yul\":14130:14549   */\n    tag_263:\n        /* \"#utility.yul\":14296:14300   */\n      0x00\n        /* \"#utility.yul\":14334:14336   */\n      0x20\n        /* \"#utility.yul\":14323:14332   */\n      dup3\n        /* \"#utility.yul\":14319:14337   */\n      add\n        /* \"#utility.yul\":14311:14337   */\n      swap1\n      pop\n        /* \"#utility.yul\":14383:14392   */\n      dup2\n        /* \"#utility.yul\":14377:14381   */\n      dup2\n        /* \"#utility.yul\":14373:14393   */\n      sub\n        /* \"#utility.yul\":14369:14370   */\n      0x00\n        /* \"#utility.yul\":14358:14367   */\n      dup4\n        /* \"#utility.yul\":14354:14371   */\n      add\n        /* \"#utility.yul\":14347:14394   */\n      mstore\n        /* \"#utility.yul\":14411:14542   */\n      tag_544\n        /* \"#utility.yul\":14537:14541   */\n      dup2\n        /* \"#utility.yul\":14411:14542   */\n      tag_480\n      jump\t// in\n    tag_544:\n        /* \"#utility.yul\":14403:14542   */\n      swap1\n      pop\n        /* \"#utility.yul\":14130:14549   */\n      swap2\n      swap1\n      pop\n      jump\t// out\n        /* \"#utility.yul\":14555:14974   */\n    tag_309:\n        /* \"#utility.yul\":14721:14725   */\n      0x00\n        /* \"#utility.yul\":14759:14761   */\n      0x20\n        /* \"#utility.yul\":14748:14757   */\n      dup3\n        /* \"#utility.yul\":14744:14762   */\n      add\n        /* \"#utility.yul\":14736:14762   */\n      swap1\n      pop\n        /* \"#utility.yul\":14808:14817   */\n      dup2\n        /* \"#utility.yul\":14802:14806   */\n      dup2\n        /* \"#utility.yul\":14798:14818   */\n      sub\n        /* \"#utility.yul\":14794:14795   */\n      0x00\n        /* \"#utility.yul\":14783:14792   */\n      dup4\n        /* \"#utility.yul\":14779:14796   */\n      add\n        /* \"#utility.yul\":14772:14819   */\n      mstore\n        /* \"#utility.yul\":14836:14967   */\n      tag_546\n        /* \"#utility.yul\":14962:14966   */\n      dup2\n        /* \"#utility.yul\":14836:14967   */\n      tag_485\n      jump\t// in\n    tag_546:\n        /* \"#utility.yul\":14828:14967   */\n      swap1\n      pop\n        /* \"#utility.yul\":14555:14974   */\n      swap2\n      swap1\n      pop\n      jump\t// out\n        /* \"#utility.yul\":14980:15399   */\n    tag_316:\n        /* \"#utility.yul\":15146:15150   */\n      0x00\n        /* \"#utility.yul\":15184:15186   */\n      0x20\n        /* \"#utility.yul\":15173:15182   */\n      dup3\n        /* \"#utility.yul\":15169:15187   */\n      add\n        /* \"#utility.yul\":15161:15187   */\n      swap1\n      pop\n        /* \"#utility.yul\":15233:15242   */\n      dup2\n        /* \"#utility.yul\":15227:15231   */\n      dup2\n        /* \"#utility.yul\":15223:15243   */\n      sub\n        /* \"#utility.yul\":15219:15220   */\n      0x00\n        /* \"#utility.yul\":15208:15217   */\n      dup4\n        /* \"#utility.yul\":15204:15221   */\n      add\n        /* \"#utility.yul\":15197:15244   */\n      mstore\n        /* \"#utility.yul\":15261:15392   */\n      tag_548\n        /* \"#utility.yul\":15387:15391   */\n      dup2\n        /* \"#utility.yul\":15261:15392   */\n      tag_490\n      jump\t// in\n    tag_548:\n        /* \"#utility.yul\":15253:15392   */\n      swap1\n      pop\n        /* \"#utility.yul\":14980:15399   */\n      swap2\n      swap1\n      pop\n      jump\t// out\n        /* \"#utility.yul\":15405:15824   */\n    tag_329:\n        /* \"#utility.yul\":15571:15575   */\n      0x00\n        /* \"#utility.yul\":15609:15611   */\n      0x20\n        /* \"#utility.yul\":15598:15607   */\n      dup3\n        /* \"#utility.yul\":15594:15612   */\n      add\n        /* \"#utility.yul\":15586:15612   */\n      swap1\n      pop\n        /* \"#utility.yul\":15658:15667   */\n      dup2\n        /* \"#utility.yul\":15652:15656   */\n      dup2\n        /* \"#utility.yul\":15648:15668   */\n      sub\n        /* \"#utility.yul\":15644:15645   */\n      0x00\n        /* \"#utility.yul\":15633:15642   */\n      dup4\n        /* \"#utility.yul\":15629:15646   */\n      add\n        /* \"#utility.yul\":15622:15669   */\n      mstore\n        /* \"#utility.yul\":15686:15817   */\n      tag_550\n        /* \"#utility.yul\":15812:15816   */\n      dup2\n        /* \"#utility.yul\":15686:15817   */\n      tag_495\n      jump\t// in\n    tag_550:\n        /* \"#utility.yul\":15678:15817   */\n      swap1\n      pop\n        /* \"#utility.yul\":15405:15824   */\n      swap2\n      swap1\n      pop\n      jump\t// out\n        /* \"#utility.yul\":15830:16249   */\n    tag_321:\n        /* \"#utility.yul\":15996:16000   */\n      0x00\n        /* \"#utility.yul\":16034:16036   */\n      0x20\n        /* \"#utility.yul\":16023:16032   */\n      dup3\n        /* \"#utility.yul\":16019:16037   */\n      add\n        /* \"#utility.yul\":16011:16037   */\n      swap1\n      pop\n        /* \"#utility.yul\":16083:16092   */\n      dup2\n        /* \"#utility.yul\":16077:16081   */\n      dup2\n        /* \"#utility.yul\":16073:16093   */\n      sub\n        /* \"#utility.yul\":16069:16070   */\n      0x00\n        /* \"#utility.yul\":16058:16067   */\n      dup4\n        /* \"#utility.yul\":16054:16071   */\n      add\n        /* \"#utility.yul\":16047:16094   */\n      mstore\n        /* \"#utility.yul\":16111:16242   */\n      tag_552\n        /* \"#utility.yul\":16237:16241   */\n      dup2\n        /* \"#utility.yul\":16111:16242   */\n      tag_500\n      jump\t// in\n    tag_552:\n        /* \"#utility.yul\":16103:16242   */\n      swap1\n      pop\n        /* \"#utility.yul\":15830:16249   */\n      swap2\n      swap1\n      pop\n      jump\t// out\n        /* \"#utility.yul\":16255:16674   */\n    tag_260:\n        /* \"#utility.yul\":16421:16425   */\n      0x00\n        /* \"#utility.yul\":16459:16461   */\n      0x20\n        /* \"#utility.yul\":16448:16457   */\n      dup3\n        /* \"#utility.yul\":16444:16462   */\n      add\n        /* \"#utility.yul\":16436:16462   */\n      swap1\n      pop\n        /* \"#utility.yul\":16508:16517   */\n      dup2\n        /* \"#utility.yul\":16502:16506   */\n      dup2\n        /* \"#utility.yul\":16498:16518   */\n      sub\n        /* \"#utility.yul\":16494:16495   */\n      0x00\n        /* \"#utility.yul\":16483:16492   */\n      dup4\n        /* \"#utility.yul\":16479:16496   */\n      add\n        /* \"#utility.yul\":16472:16519   */\n      mstore\n        /* \"#utility.yul\":16536:16667   */\n      tag_554\n        /* \"#utility.yul\":16662:16666   */\n      dup2\n        /* \"#utility.yul\":16536:16667   */\n      tag_505\n      jump\t// in\n    tag_554:\n        /* \"#utility.yul\":16528:16667   */\n      swap1\n      pop\n        /* \"#utility.yul\":16255:16674   */\n      swap2\n      swap1\n      pop\n      jump\t// out\n        /* \"#utility.yul\":16680:17099   */\n    tag_306:\n        /* \"#utility.yul\":16846:16850   */\n      0x00\n        /* \"#utility.yul\":16884:16886   */\n      0x20\n        /* \"#utility.yul\":16873:16882   */\n      dup3\n        /* \"#utility.yul\":16869:16887   */\n      add\n        /* \"#utility.yul\":16861:16887   */\n      swap1\n      pop\n        /* \"#utility.yul\":16933:16942   */\n      dup2\n        /* \"#utility.yul\":16927:16931   */\n      dup2\n        /* \"#utility.yul\":16923:16943   */\n      sub\n        /* \"#utility.yul\":16919:16920   */\n      0x00\n        /* \"#utility.yul\":16908:16917   */\n      dup4\n        /* \"#utility.yul\":16904:16921   */\n      add\n        /* \"#utility.yul\":16897:16944   */\n      mstore\n        /* \"#utility.yul\":16961:17092   */\n      tag_556\n        /* \"#utility.yul\":17087:17091   */\n      dup2\n        /* \"#utility.yul\":16961:17092   */\n      tag_510\n      jump\t// in\n    tag_556:\n        /* \"#utility.yul\":16953:17092   */\n      swap1\n      pop\n        /* \"#utility.yul\":16680:17099   */\n      swap2\n      swap1\n      pop\n      jump\t// out\n        /* \"#utility.yul\":17105:17524   */\n    tag_270:\n        /* \"#utility.yul\":17271:17275   */\n      0x00\n        /* \"#utility.yul\":17309:17311   */\n      0x20\n        /* \"#utility.yul\":17298:17307   */\n      dup3\n        /* \"#utility.yul\":17294:17312   */\n      add\n        /* \"#utility.yul\":17286:17312   */\n      swap1\n      pop\n        /* \"#utility.yul\":17358:17367   */\n      dup2\n        /* \"#utility.yul\":17352:17356   */\n      dup2\n        /* \"#utility.yul\":17348:17368   */\n      sub\n        /* \"#utility.yul\":17344:17345   */\n      0x00\n        /* \"#utility.yul\":17333:17342   */\n      dup4\n        /* \"#utility.yul\":17329:17346   */\n      add\n        /* \"#utility.yul\":17322:17369   */\n      mstore\n        /* \"#utility.yul\":17386:17517   */\n      tag_558\n        /* \"#utility.yul\":17512:17516   */\n      dup2\n        /* \"#utility.yul\":17386:17517   */\n      tag_515\n      jump\t// in\n    tag_558:\n        /* \"#utility.yul\":17378:17517   */\n      swap1\n      pop\n        /* \"#utility.yul\":17105:17524   */\n      swap2\n      swap1\n      pop\n      jump\t// out\n        /* \"#utility.yul\":17530:17752   */\n    tag_73:\n        /* \"#utility.yul\":17623:17627   */\n      0x00\n        /* \"#utility.yul\":17661:17663   */\n      0x20\n        /* \"#utility.yul\":17650:17659   */\n      dup3\n        /* \"#utility.yul\":17646:17664   */\n      add\n        /* \"#utility.yul\":17638:17664   */\n      swap1\n      pop\n        /* \"#utility.yul\":17674:17745   */\n      tag_560\n        /* \"#utility.yul\":17742:17743   */\n      0x00\n        /* \"#utility.yul\":17731:17740   */\n      dup4\n        /* \"#utility.yul\":17727:17744   */\n      add\n        /* \"#utility.yul\":17718:17724   */\n      dup5\n        /* \"#utility.yul\":17674:17745   */\n      tag_520\n      jump\t// in\n    tag_560:\n        /* \"#utility.yul\":17530:17752   */\n      swap3\n      swap2\n      pop\n      pop\n      jump\t// out\n        /* \"#utility.yul\":17758:18299   */\n    tag_150:\n        /* \"#utility.yul\":17929:17933   */\n      0x00\n        /* \"#utility.yul\":17967:17970   */\n      0x80\n        /* \"#utility.yul\":17956:17965   */\n      dup3\n        /* \"#utility.yul\":17952:17971   */\n      add\n        /* \"#utility.yul\":17944:17971   */\n      swap1\n      pop\n        /* \"#utility.yul\":17981:18052   */\n      tag_562\n        /* \"#utility.yul\":18049:18050   */\n      0x00\n        /* \"#utility.yul\":18038:18047   */\n      dup4\n        /* \"#utility.yul\":18034:18051   */\n      add\n        /* \"#utility.yul\":18025:18031   */\n      dup8\n        /* \"#utility.yul\":17981:18052   */\n      tag_520\n      jump\t// in\n    tag_562:\n        /* \"#utility.yul\":18062:18128   */\n      tag_563\n        /* \"#utility.yul\":18124:18126   */\n      0x20\n        /* \"#utility.yul\":18113:18122   */\n      dup4\n        /* \"#utility.yul\":18109:18127   */\n      add\n        /* \"#utility.yul\":18100:18106   */\n      dup7\n        /* \"#utility.yul\":18062:18128   */\n      tag_449\n      jump\t// in\n    tag_563:\n        /* \"#utility.yul\":18138:18210   */\n      tag_564\n        /* \"#utility.yul\":18206:18208   */\n      0x40\n        /* \"#utility.yul\":18195:18204   */\n      dup4\n        /* \"#utility.yul\":18191:18209   */\n      add\n        /* \"#utility.yul\":18182:18188   */\n      dup6\n        /* \"#utility.yul\":18138:18210   */\n      tag_445\n      jump\t// in\n    tag_564:\n        /* \"#utility.yul\":18220:18292   */\n      tag_565\n        /* \"#utility.yul\":18288:18290   */\n      0x60\n        /* \"#utility.yul\":18277:18286   */\n      dup4\n        /* \"#utility.yul\":18273:18291   */\n      add\n        /* \"#utility.yul\":18264:18270   */\n      dup5\n        /* \"#utility.yul\":18220:18292   */\n      tag_520\n      jump\t// in\n    tag_565:\n        /* \"#utility.yul\":17758:18299   */\n      swap6\n      swap5\n      pop\n      pop\n      pop\n      pop\n      pop\n      jump\t// out\n        /* \"#utility.yul\":18305:18519   */\n    tag_88:\n        /* \"#utility.yul\":18394:18398   */\n      0x00\n        /* \"#utility.yul\":18432:18434   */\n      0x20\n        /* \"#utility.yul\":18421:18430   */\n      dup3\n        /* \"#utility.yul\":18417:18435   */\n      add\n        /* \"#utility.yul\":18409:18435   */\n      swap1\n      pop\n        /* \"#utility.yul\":18445:18512   */\n      tag_567\n        /* \"#utility.yul\":18509:18510   */\n      0x00\n        /* \"#utility.yul\":18498:18507   */\n      dup4\n        /* \"#utility.yul\":18494:18511   */\n      add\n        /* \"#utility.yul\":18485:18491   */\n      dup5\n        /* \"#utility.yul\":18445:18512   */\n      tag_524\n      jump\t// in\n    tag_567:\n        /* \"#utility.yul\":18305:18519   */\n      swap3\n      swap2\n      pop\n      pop\n      jump\t// out\n        /* \"#utility.yul\":18525:18654   */\n    tag_351:\n        /* \"#utility.yul\":18559:18565   */\n      0x00\n        /* \"#utility.yul\":18586:18606   */\n      tag_569\n      tag_570\n      jump\t// in\n    tag_569:\n        /* \"#utility.yul\":18576:18606   */\n      swap1\n      pop\n        /* \"#utility.yul\":18615:18648   */\n      tag_571\n        /* \"#utility.yul\":18643:18647   */\n      dup3\n        /* \"#utility.yul\":18635:18641   */\n      dup3\n        /* \"#utility.yul\":18615:18648   */\n      tag_572\n      jump\t// in\n    tag_571:\n        /* \"#utility.yul\":18525:18654   */\n      swap2\n      swap1\n      pop\n      jump\t// out\n        /* \"#utility.yul\":18660:18735   */\n    tag_570:\n        /* \"#utility.yul\":18693:18699   */\n      0x00\n        /* \"#utility.yul\":18726:18728   */\n      0x40\n        /* \"#utility.yul\":18720:18729   */\n      mload\n        /* \"#utility.yul\":18710:18729   */\n      swap1\n      pop\n        /* \"#utility.yul\":18660:18735   */\n      swap1\n      jump\t// out\n        /* \"#utility.yul\":18741:19052   */\n    tag_350:\n        /* \"#utility.yul\":18818:18822   */\n      0x00\n        /* \"#utility.yul\":18908:18926   */\n      0xffffffffffffffff\n        /* \"#utility.yul\":18900:18906   */\n      dup3\n        /* \"#utility.yul\":18897:18927   */\n      gt\n        /* \"#utility.yul\":18894:18950   */\n      iszero\n      tag_575\n      jumpi\n        /* \"#utility.yul\":18930:18948   */\n      tag_576\n      tag_577\n      jump\t// in\n    tag_576:\n        /* \"#utility.yul\":18894:18950   */\n    tag_575:\n        /* \"#utility.yul\":18980:18984   */\n      0x20\n        /* \"#utility.yul\":18972:18978   */\n      dup3\n        /* \"#utility.yul\":18968:18985   */\n      mul\n        /* \"#utility.yul\":18960:18985   */\n      swap1\n      pop\n        /* \"#utility.yul\":19040:19044   */\n      0x20\n        /* \"#utility.yul\":19034:19038   */\n      dup2\n        /* \"#utility.yul\":19030:19045   */\n      add\n        /* \"#utility.yul\":19022:19045   */\n      swap1\n      pop\n        /* \"#utility.yul\":18741:19052   */\n      swap2\n      swap1\n      pop\n      jump\t// out\n        /* \"#utility.yul\":19058:19366   */\n    tag_364:\n        /* \"#utility.yul\":19120:19124   */\n      0x00\n        /* \"#utility.yul\":19210:19228   */\n      0xffffffffffffffff\n        /* \"#utility.yul\":19202:19208   */\n      dup3\n        /* \"#utility.yul\":19199:19229   */\n      gt\n        /* \"#utility.yul\":19196:19252   */\n      iszero\n      tag_579\n      jumpi\n        /* \"#utility.yul\":19232:19250   */\n      tag_580\n      tag_577\n      jump\t// in\n    tag_580:\n        /* \"#utility.yul\":19196:19252   */\n    tag_579:\n        /* \"#utility.yul\":19270:19299   */\n      tag_581\n        /* \"#utility.yul\":19292:19298   */\n      dup3\n        /* \"#utility.yul\":19270:19299   */\n      tag_466\n      jump\t// in\n    tag_581:\n        /* \"#utility.yul\":19262:19299   */\n      swap1\n      pop\n        /* \"#utility.yul\":19354:19358   */\n      0x20\n        /* \"#utility.yul\":19348:19352   */\n      dup2\n        /* \"#utility.yul\":19344:19359   */\n      add\n        /* \"#utility.yul\":19336:19359   */\n      swap1\n      pop\n        /* \"#utility.yul\":19058:19366   */\n      swap2\n      swap1\n      pop\n      jump\t// out\n        /* \"#utility.yul\":19372:19470   */\n    tag_460:\n        /* \"#utility.yul\":19423:19429   */\n      0x00\n        /* \"#utility.yul\":19457:19462   */\n      dup2\n        /* \"#utility.yul\":19451:19463   */\n      mload\n        /* \"#utility.yul\":19441:19463   */\n      swap1\n      pop\n        /* \"#utility.yul\":19372:19470   */\n      swap2\n      swap1\n      pop\n      jump\t// out\n        /* \"#utility.yul\":19476:19575   */\n    tag_470:\n        /* \"#utility.yul\":19528:19534   */\n      0x00\n        /* \"#utility.yul\":19562:19567   */\n      dup2\n        /* \"#utility.yul\":19556:19568   */\n      mload\n        /* \"#utility.yul\":19546:19568   */\n      swap1\n      pop\n        /* \"#utility.yul\":19476:19575   */\n      swap2\n      swap1\n      pop\n      jump\t// out\n        /* \"#utility.yul\":19581:19749   */\n    tag_462:\n        /* \"#utility.yul\":19664:19675   */\n      0x00\n        /* \"#utility.yul\":19698:19704   */\n      dup3\n        /* \"#utility.yul\":19693:19696   */\n      dup3\n        /* \"#utility.yul\":19686:19705   */\n      mstore\n        /* \"#utility.yul\":19738:19742   */\n      0x20\n        /* \"#utility.yul\":19733:19736   */\n      dup3\n        /* \"#utility.yul\":19729:19743   */\n      add\n        /* \"#utility.yul\":19714:19743   */\n      swap1\n      pop\n        /* \"#utility.yul\":19581:19749   */\n      swap3\n      swap2\n      pop\n      pop\n      jump\t// out\n        /* \"#utility.yul\":19755:19924   */\n    tag_472:\n        /* \"#utility.yul\":19839:19850   */\n      0x00\n        /* \"#utility.yul\":19873:19879   */\n      dup3\n        /* \"#utility.yul\":19868:19871   */\n      dup3\n        /* \"#utility.yul\":19861:19880   */\n      mstore\n        /* \"#utility.yul\":19913:19917   */\n      0x20\n        /* \"#utility.yul\":19908:19911   */\n      dup3\n        /* \"#utility.yul\":19904:19918   */\n      add\n        /* \"#utility.yul\":19889:19918   */\n      swap1\n      pop\n        /* \"#utility.yul\":19755:19924   */\n      swap3\n      swap2\n      pop\n      pop\n      jump\t// out\n        /* \"#utility.yul\":19930:20235   */\n    tag_236:\n        /* \"#utility.yul\":19970:19973   */\n      0x00\n        /* \"#utility.yul\":19989:20009   */\n      tag_587\n        /* \"#utility.yul\":20007:20008   */\n      dup3\n        /* \"#utility.yul\":19989:20009   */\n      tag_523\n      jump\t// in\n    tag_587:\n        /* \"#utility.yul\":19984:20009   */\n      swap2\n      pop\n        /* \"#utility.yul\":20023:20043   */\n      tag_588\n        /* \"#utility.yul\":20041:20042   */\n      dup4\n        /* \"#utility.yul\":20023:20043   */\n      tag_523\n      jump\t// in\n    tag_588:\n        /* \"#utility.yul\":20018:20043   */\n      swap3\n      pop\n        /* \"#utility.yul\":20177:20178   */\n      dup3\n        /* \"#utility.yul\":20109:20175   */\n      0xffffffffffffffffffffffffffffffffffffffffffffffffffffffffffffffff\n        /* \"#utility.yul\":20105:20179   */\n      sub\n        /* \"#utility.yul\":20102:20103   */\n      dup3\n        /* \"#utility.yul\":20099:20180   */\n      gt\n        /* \"#utility.yul\":20096:20203   */\n      iszero\n      tag_589\n      jumpi\n        /* \"#utility.yul\":20183:20201   */\n      tag_590\n      tag_591\n      jump\t// in\n    tag_590:\n        /* \"#utility.yul\":20096:20203   */\n    tag_589:\n        /* \"#utility.yul\":20227:20228   */\n      dup3\n        /* \"#utility.yul\":20224:20225   */\n      dup3\n        /* \"#utility.yul\":20220:20229   */\n      add\n        /* \"#utility.yul\":20213:20229   */\n      swap1\n      pop\n        /* \"#utility.yul\":19930:20235   */\n      swap3\n      swap2\n      pop\n      pop\n      jump\t// out\n        /* \"#utility.yul\":20241:20337   */\n    tag_448:\n        /* \"#utility.yul\":20278:20285   */\n      0x00\n        /* \"#utility.yul\":20307:20331   */\n      tag_593\n        /* \"#utility.yul\":20325:20330   */\n      dup3\n        /* \"#utility.yul\":20307:20331   */\n      tag_594\n      jump\t// in\n    tag_593:\n        /* \"#utility.yul\":20296:20331   */\n      swap1\n      pop\n        /* \"#utility.yul\":20241:20337   */\n      swap2\n      swap1\n      pop\n      jump\t// out\n        /* \"#utility.yul\":20343:20433   */\n    tag_452:\n        /* \"#utility.yul\":20377:20384   */\n      0x00\n        /* \"#utility.yul\":20420:20425   */\n      dup2\n        /* \"#utility.yul\":20413:20426   */\n      iszero\n        /* \"#utility.yul\":20406:20427   */\n      iszero\n        /* \"#utility.yul\":20395:20427   */\n      swap1\n      pop\n        /* \"#utility.yul\":20343:20433   */\n      swap2\n      swap1\n      pop\n      jump\t// out\n        /* \"#utility.yul\":20439:20516   */\n    tag_456:\n        /* \"#utility.yul\":20476:20483   */\n      0x00\n        /* \"#utility.yul\":20505:20510   */\n      dup2\n        /* \"#utility.yul\":20494:20510   */\n      swap1\n      pop\n        /* \"#utility.yul\":20439:20516   */\n      swap2\n      swap1\n      pop\n      jump\t// out\n        /* \"#utility.yul\":20522:20648   */\n    tag_594:\n        /* \"#utility.yul\":20559:20566   */\n      0x00\n        /* \"#utility.yul\":20599:20641   */\n      0xffffffffffffffffffffffffffffffffffffffff\n        /* \"#utility.yul\":20592:20597   */\n      dup3\n        /* \"#utility.yul\":20588:20642   */\n      and\n        /* \"#utility.yul\":20577:20642   */\n      swap1\n      pop\n        /* \"#utility.yul\":20522:20648   */\n      swap2\n      swap1\n      pop\n      jump\t// out\n        /* \"#utility.yul\":20654:20731   */\n    tag_523:\n        /* \"#utility.yul\":20691:20698   */\n      0x00\n        /* \"#utility.yul\":20720:20725   */\n      dup2\n        /* \"#utility.yul\":20709:20725   */\n      swap1\n      pop\n        /* \"#utility.yul\":20654:20731   */\n      swap2\n      swap1\n      pop\n      jump\t// out\n        /* \"#utility.yul\":20737:20823   */\n    tag_527:\n        /* \"#utility.yul\":20772:20779   */\n      0x00\n        /* \"#utility.yul\":20812:20816   */\n      0xff\n        /* \"#utility.yul\":20805:20810   */\n      dup3\n        /* \"#utility.yul\":20801:20817   */\n      and\n        /* \"#utility.yul\":20790:20817   */\n      swap1\n      pop\n        /* \"#utility.yul\":20737:20823   */\n      swap2\n      swap1\n      pop\n      jump\t// out\n        /* \"#utility.yul\":20829:20983   */\n    tag_369:\n        /* \"#utility.yul\":20913:20919   */\n      dup3\n        /* \"#utility.yul\":20908:20911   */\n      dup2\n        /* \"#utility.yul\":20903:20906   */\n      dup4\n        /* \"#utility.yul\":20890:20920   */\n      calldatacopy\n        /* \"#utility.yul\":20975:20976   */\n      0x00\n        /* \"#utility.yul\":20966:20972   */\n      dup4\n        /* \"#utility.yul\":20961:20964   */\n      dup4\n        /* \"#utility.yul\":20957:20973   */\n      add\n        /* \"#utility.yul\":20950:20977   */\n      mstore\n        /* \"#utility.yul\":20829:20983   */\n      pop\n      pop\n      pop\n      jump\t// out\n        /* \"#utility.yul\":20989:21296   */\n    tag_464:\n        /* \"#utility.yul\":21057:21058   */\n      0x00\n        /* \"#utility.yul\":21067:21180   */\n    tag_602:\n        /* \"#utility.yul\":21081:21087   */\n      dup4\n        /* \"#utility.yul\":21078:21079   */\n      dup2\n        /* \"#utility.yul\":21075:21088   */\n      lt\n        /* \"#utility.yul\":21067:21180   */\n      iszero\n      tag_604\n      jumpi\n        /* \"#utility.yul\":21166:21167   */\n      dup1\n        /* \"#utility.yul\":21161:21164   */\n      dup3\n        /* \"#utility.yul\":21157:21168   */\n      add\n        /* \"#utility.yul\":21151:21169   */\n      mload\n        /* \"#utility.yul\":21147:21148   */\n      dup2\n        /* \"#utility.yul\":21142:21145   */\n      dup5\n        /* \"#utility.yul\":21138:21149   */\n      add\n        /* \"#utility.yul\":21131:21170   */\n      mstore\n        /* \"#utility.yul\":21103:21105   */\n      0x20\n        /* \"#utility.yul\":21100:21101   */\n      dup2\n        /* \"#utility.yul\":21096:21106   */\n      add\n        /* \"#utility.yul\":21091:21106   */\n      swap1\n      pop\n        /* \"#utility.yul\":21067:21180   */\n      jump(tag_602)\n    tag_604:\n        /* \"#utility.yul\":21198:21204   */\n      dup4\n        /* \"#utility.yul\":21195:21196   */\n      dup2\n        /* \"#utility.yul\":21192:21205   */\n      gt\n        /* \"#utility.yul\":21189:21290   */\n      iszero\n      tag_605\n      jumpi\n        /* \"#utility.yul\":21278:21279   */\n      0x00\n        /* \"#utility.yul\":21269:21275   */\n      dup5\n        /* \"#utility.yul\":21264:21267   */\n      dup5\n        /* \"#utility.yul\":21260:21276   */\n      add\n        /* \"#utility.yul\":21253:21280   */\n      mstore\n        /* \"#utility.yul\":21189:21290   */\n    tag_605:\n        /* \"#utility.yul\":21038:21296   */\n      pop\n        /* \"#utility.yul\":20989:21296   */\n      pop\n      pop\n      pop\n      jump\t// out\n        /* \"#utility.yul\":21302:21622   */\n    tag_203:\n        /* \"#utility.yul\":21346:21352   */\n      0x00\n        /* \"#utility.yul\":21383:21384   */\n      0x02\n        /* \"#utility.yul\":21377:21381   */\n      dup3\n        /* \"#utility.yul\":21373:21385   */\n      div\n        /* \"#utility.yul\":21363:21385   */\n      swap1\n      pop\n        /* \"#utility.yul\":21430:21431   */\n      0x01\n        /* \"#utility.yul\":21424:21428   */\n      dup3\n        /* \"#utility.yul\":21420:21432   */\n      and\n        /* \"#utility.yul\":21451:21469   */\n      dup1\n        /* \"#utility.yul\":21441:21522   */\n      tag_607\n      jumpi\n        /* \"#utility.yul\":21507:21511   */\n      0x7f\n        /* \"#utility.yul\":21499:21505   */\n      dup3\n        /* \"#utility.yul\":21495:21512   */\n      and\n        /* \"#utility.yul\":21485:21512   */\n      swap2\n      pop\n        /* \"#utility.yul\":21441:21522   */\n    tag_607:\n        /* \"#utility.yul\":21569:21571   */\n      0x20\n        /* \"#utility.yul\":21561:21567   */\n      dup3\n        /* \"#utility.yul\":21558:21572   */\n      lt\n        /* \"#utility.yul\":21538:21556   */\n      dup2\n        /* \"#utility.yul\":21535:21573   */\n      eq\n        /* \"#utility.yul\":21532:21616   */\n      iszero\n      tag_608\n      jumpi\n        /* \"#utility.yul\":21588:21606   */\n      tag_609\n      tag_610\n      jump\t// in\n    tag_609:\n        /* \"#utility.yul\":21532:21616   */\n    tag_608:\n        /* \"#utility.yul\":21353:21622   */\n      pop\n        /* \"#utility.yul\":21302:21622   */\n      swap2\n      swap1\n      pop\n      jump\t// out\n        /* \"#utility.yul\":21628:21909   */\n    tag_572:\n        /* \"#utility.yul\":21711:21738   */\n      tag_612\n        /* \"#utility.yul\":21733:21737   */\n      dup3\n        /* \"#utility.yul\":21711:21738   */\n      tag_466\n      jump\t// in\n    tag_612:\n        /* \"#utility.yul\":21703:21709   */\n      dup2\n        /* \"#utility.yul\":21699:21739   */\n      add\n        /* \"#utility.yul\":21841:21847   */\n      dup2\n        /* \"#utility.yul\":21829:21839   */\n      dup2\n        /* \"#utility.yul\":21826:21848   */\n      lt\n        /* \"#utility.yul\":21805:21823   */\n      0xffffffffffffffff\n        /* \"#utility.yul\":21793:21803   */\n      dup3\n        /* \"#utility.yul\":21790:21824   */\n      gt\n        /* \"#utility.yul\":21787:21849   */\n      or\n        /* \"#utility.yul\":21784:21872   */\n      iszero\n      tag_613\n      jumpi\n        /* \"#utility.yul\":21852:21870   */\n      tag_614\n      tag_577\n      jump\t// in\n    tag_614:\n        /* \"#utility.yul\":21784:21872   */\n    tag_613:\n        /* \"#utility.yul\":21892:21902   */\n      dup1\n        /* \"#utility.yul\":21888:21890   */\n      0x40\n        /* \"#utility.yul\":21881:21903   */\n      mstore\n        /* \"#utility.yul\":21671:21909   */\n      pop\n        /* \"#utility.yul\":21628:21909   */\n      pop\n      pop\n      jump\t// out\n        /* \"#utility.yul\":21915:22148   */\n    tag_291:\n        /* \"#utility.yul\":21954:21957   */\n      0x00\n        /* \"#utility.yul\":21977:22001   */\n      tag_616\n        /* \"#utility.yul\":21995:22000   */\n      dup3\n        /* \"#utility.yul\":21977:22001   */\n      tag_523\n      jump\t// in\n    tag_616:\n        /* \"#utility.yul\":21968:22001   */\n      swap2\n      pop\n        /* \"#utility.yul\":22023:22089   */\n      0xffffffffffffffffffffffffffffffffffffffffffffffffffffffffffffffff\n        /* \"#utility.yul\":22016:22021   */\n      dup3\n        /* \"#utility.yul\":22013:22090   */\n      eq\n        /* \"#utility.yul\":22010:22113   */\n      iszero\n      tag_617\n      jumpi\n        /* \"#utility.yul\":22093:22111   */\n      tag_618\n      tag_591\n      jump\t// in\n    tag_618:\n        /* \"#utility.yul\":22010:22113   */\n    tag_617:\n        /* \"#utility.yul\":22140:22141   */\n      0x01\n        /* \"#utility.yul\":22133:22138   */\n      dup3\n        /* \"#utility.yul\":22129:22142   */\n      add\n        /* \"#utility.yul\":22122:22142   */\n      swap1\n      pop\n        /* \"#utility.yul\":21915:22148   */\n      swap2\n      swap1\n      pop\n      jump\t// out\n        /* \"#utility.yul\":22154:22334   */\n    tag_591:\n        /* \"#utility.yul\":22202:22279   */\n      0x4e487b7100000000000000000000000000000000000000000000000000000000\n        /* \"#utility.yul\":22199:22200   */\n      0x00\n        /* \"#utility.yul\":22192:22280   */\n      mstore\n        /* \"#utility.yul\":22299:22303   */\n      0x11\n        /* \"#utility.yul\":22296:22297   */\n      0x04\n        /* \"#utility.yul\":22289:22304   */\n      mstore\n        /* \"#utility.yul\":22323:22327   */\n      0x24\n        /* \"#utility.yul\":22320:22321   */\n      0x00\n        /* \"#utility.yul\":22313:22328   */\n      revert\n        /* \"#utility.yul\":22340:22520   */\n    tag_610:\n        /* \"#utility.yul\":22388:22465   */\n      0x4e487b7100000000000000000000000000000000000000000000000000000000\n        /* \"#utility.yul\":22385:22386   */\n      0x00\n        /* \"#utility.yul\":22378:22466   */\n      mstore\n        /* \"#utility.yul\":22485:22489   */\n      0x22\n        /* \"#utility.yul\":22482:22483   */\n      0x04\n        /* \"#utility.yul\":22475:22490   */\n      mstore\n        /* \"#utility.yul\":22509:22513   */\n      0x24\n        /* \"#utility.yul\":22506:22507   */\n      0x00\n        /* \"#utility.yul\":22499:22514   */\n      revert\n        /* \"#utility.yul\":22526:22706   */\n    tag_287:\n        /* \"#utility.yul\":22574:22651   */\n      0x4e487b7100000000000000000000000000000000000000000000000000000000\n        /* \"#utility.yul\":22571:22572   */\n      0x00\n        /* \"#utility.yul\":22564:22652   */\n      mstore\n        /* \"#utility.yul\":22671:22675   */\n      0x32\n        /* \"#utility.yul\":22668:22669   */\n      0x04\n        /* \"#utility.yul\":22661:22676   */\n      mstore\n        /* \"#utility.yul\":22695:22699   */\n      0x24\n        /* \"#utility.yul\":22692:22693   */\n      0x00\n        /* \"#utility.yul\":22685:22700   */\n      revert\n        /* \"#utility.yul\":22712:22892   */\n    tag_577:\n        /* \"#utility.yul\":22760:22837   */\n      0x4e487b7100000000000000000000000000000000000000000000000000000000\n        /* \"#utility.yul\":22757:22758   */\n      0x00\n        /* \"#utility.yul\":22750:22838   */\n      mstore\n        /* \"#utility.yul\":22857:22861   */\n      0x41\n        /* \"#utility.yul\":22854:22855   */\n      0x04\n        /* \"#utility.yul\":22847:22862   */\n      mstore\n        /* \"#utility.yul\":22881:22885   */\n      0x24\n        /* \"#utility.yul\":22878:22879   */\n      0x00\n        /* \"#utility.yul\":22871:22886   */\n      revert\n        /* \"#utility.yul\":22898:23015   */\n    tag_378:\n        /* \"#utility.yul\":23007:23008   */\n      0x00\n        /* \"#utility.yul\":23004:23005   */\n      dup1\n        /* \"#utility.yul\":22997:23009   */\n      revert\n        /* \"#utility.yul\":23021:23138   */\n    tag_354:\n        /* \"#utility.yul\":23130:23131   */\n      0x00\n        /* \"#utility.yul\":23127:23128   */\n      dup1\n        /* \"#utility.yul\":23120:23132   */\n      revert\n        /* \"#utility.yul\":23144:23261   */\n    tag_367:\n        /* \"#utility.yul\":23253:23254   */\n      0x00\n        /* \"#utility.yul\":23250:23251   */\n      dup1\n        /* \"#utility.yul\":23243:23255   */\n      revert\n        /* \"#utility.yul\":23267:23384   */\n    tag_418:\n        /* \"#utility.yul\":23376:23377   */\n      0x00\n        /* \"#utility.yul\":23373:23374   */\n      dup1\n        /* \"#utility.yul\":23366:23378   */\n      revert\n        /* \"#utility.yul\":23390:23507   */\n    tag_395:\n        /* \"#utility.yul\":23499:23500   */\n      0x00\n        /* \"#utility.yul\":23496:23497   */\n      dup1\n        /* \"#utility.yul\":23489:23501   */\n      revert\n        /* \"#utility.yul\":23513:23615   */\n    tag_466:\n        /* \"#utility.yul\":23554:23560   */\n      0x00\n        /* \"#utility.yul\":23605:23607   */\n      0x1f\n        /* \"#utility.yul\":23601:23608   */\n      not\n        /* \"#utility.yul\":23596:23598   */\n      0x1f\n        /* \"#utility.yul\":23589:23594   */\n      dup4\n        /* \"#utility.yul\":23585:23599   */\n      add\n        /* \"#utility.yul\":23581:23609   */\n      and\n        /* \"#utility.yul\":23571:23609   */\n      swap1\n      pop\n        /* \"#utility.yul\":23513:23615   */\n      swap2\n      swap1\n      pop\n      jump\t// out\n        /* \"#utility.yul\":23621:23843   */\n    tag_479:\n        /* \"#utility.yul\":23761:23795   */\n      0x45524332303a207472616e7366657220746f20746865207a65726f2061646472\n        /* \"#utility.yul\":23757:23758   */\n      0x00\n        /* \"#utility.yul\":23749:23755   */\n      dup3\n        /* \"#utility.yul\":23745:23759   */\n      add\n        /* \"#utility.yul\":23738:23796   */\n      mstore\n        /* \"#utility.yul\":23830:23835   */\n      0x6573730000000000000000000000000000000000000000000000000000000000\n        /* \"#utility.yul\":23825:23827   */\n      0x20\n        /* \"#utility.yul\":23817:23823   */\n      dup3\n        /* \"#utility.yul\":23813:23828   */\n      add\n        /* \"#utility.yul\":23806:23836   */\n      mstore\n        /* \"#utility.yul\":23621:23843   */\n      pop\n      jump\t// out\n        /* \"#utility.yul\":23849:24027   */\n    tag_484:\n        /* \"#utility.yul\":23989:24019   */\n      0x53656c662064656c65676174696f6e206e6f7420616c6c6f7765642100000000\n        /* \"#utility.yul\":23985:23986   */\n      0x00\n        /* \"#utility.yul\":23977:23983   */\n      dup3\n        /* \"#utility.yul\":23973:23987   */\n      add\n        /* \"#utility.yul\":23966:24020   */\n      mstore\n        /* \"#utility.yul\":23849:24027   */\n      pop\n      jump\t// out\n        /* \"#utility.yul\":24033:24254   */\n    tag_489:\n        /* \"#utility.yul\":24173:24207   */\n      0x45524332303a20617070726f766520746f20746865207a65726f206164647265\n        /* \"#utility.yul\":24169:24170   */\n      0x00\n        /* \"#utility.yul\":24161:24167   */\n      dup3\n        /* \"#utility.yul\":24157:24171   */\n      add\n        /* \"#utility.yul\":24150:24208   */\n      mstore\n        /* \"#utility.yul\":24242:24246   */\n      0x7373000000000000000000000000000000000000000000000000000000000000\n        /* \"#utility.yul\":24237:24239   */\n      0x20\n        /* \"#utility.yul\":24229:24235   */\n      dup3\n        /* \"#utility.yul\":24225:24240   */\n      add\n        /* \"#utility.yul\":24218:24247   */\n      mstore\n        /* \"#utility.yul\":24033:24254   */\n      pop\n      jump\t// out\n        /* \"#utility.yul\":24260:24439   */\n    tag_494:\n        /* \"#utility.yul\":24400:24431   */\n      0x45524332303a20696e73756666696369656e7420616c6c6f77616e6365000000\n        /* \"#utility.yul\":24396:24397   */\n      0x00\n        /* \"#utility.yul\":24388:24394   */\n      dup3\n        /* \"#utility.yul\":24384:24398   */\n      add\n        /* \"#utility.yul\":24377:24432   */\n      mstore\n        /* \"#utility.yul\":24260:24439   */\n      pop\n      jump\t// out\n        /* \"#utility.yul\":24445:24670   */\n    tag_499:\n        /* \"#utility.yul\":24585:24619   */\n      0x45524332303a207472616e7366657220616d6f756e7420657863656564732062\n        /* \"#utility.yul\":24581:24582   */\n      0x00\n        /* \"#utility.yul\":24573:24579   */\n      dup3\n        /* \"#utility.yul\":24569:24583   */\n      add\n        /* \"#utility.yul\":24562:24620   */\n      mstore\n        /* \"#utility.yul\":24654:24662   */\n      0x616c616e63650000000000000000000000000000000000000000000000000000\n        /* \"#utility.yul\":24649:24651   */\n      0x20\n        /* \"#utility.yul\":24641:24647   */\n      dup3\n        /* \"#utility.yul\":24637:24652   */\n      add\n        /* \"#utility.yul\":24630:24663   */\n      mstore\n        /* \"#utility.yul\":24445:24670   */\n      pop\n      jump\t// out\n        /* \"#utility.yul\":24676:24900   */\n    tag_504:\n        /* \"#utility.yul\":24816:24850   */\n      0x45524332303a207472616e736665722066726f6d20746865207a65726f206164\n        /* \"#utility.yul\":24812:24813   */\n      0x00\n        /* \"#utility.yul\":24804:24810   */\n      dup3\n        /* \"#utility.yul\":24800:24814   */\n      add\n        /* \"#utility.yul\":24793:24851   */\n      mstore\n        /* \"#utility.yul\":24885:24892   */\n      0x6472657373000000000000000000000000000000000000000000000000000000\n        /* \"#utility.yul\":24880:24882   */\n      0x20\n        /* \"#utility.yul\":24872:24878   */\n      dup3\n        /* \"#utility.yul\":24868:24883   */\n      add\n        /* \"#utility.yul\":24861:24893   */\n      mstore\n        /* \"#utility.yul\":24676:24900   */\n      pop\n      jump\t// out\n        /* \"#utility.yul\":24906:25074   */\n    tag_509:\n        /* \"#utility.yul\":25046:25066   */\n      0x596f7520616c726561647920766f746564210000000000000000000000000000\n        /* \"#utility.yul\":25042:25043   */\n      0x00\n        /* \"#utility.yul\":25034:25040   */\n      dup3\n        /* \"#utility.yul\":25030:25044   */\n      add\n        /* \"#utility.yul\":25023:25067   */\n      mstore\n        /* \"#utility.yul\":24906:25074   */\n      pop\n      jump\t// out\n        /* \"#utility.yul\":25080:25303   */\n    tag_514:\n        /* \"#utility.yul\":25220:25254   */\n      0x45524332303a20617070726f76652066726f6d20746865207a65726f20616464\n        /* \"#utility.yul\":25216:25217   */\n      0x00\n        /* \"#utility.yul\":25208:25214   */\n      dup3\n        /* \"#utility.yul\":25204:25218   */\n      add\n        /* \"#utility.yul\":25197:25255   */\n      mstore\n        /* \"#utility.yul\":25289:25295   */\n      0x7265737300000000000000000000000000000000000000000000000000000000\n        /* \"#utility.yul\":25284:25286   */\n      0x20\n        /* \"#utility.yul\":25276:25282   */\n      dup3\n        /* \"#utility.yul\":25272:25287   */\n      add\n        /* \"#utility.yul\":25265:25296   */\n      mstore\n        /* \"#utility.yul\":25080:25303   */\n      pop\n      jump\t// out\n        /* \"#utility.yul\":25309:25533   */\n    tag_519:\n        /* \"#utility.yul\":25449:25483   */\n      0x45524332303a2064656372656173656420616c6c6f77616e63652062656c6f77\n        /* \"#utility.yul\":25445:25446   */\n      0x00\n        /* \"#utility.yul\":25437:25443   */\n      dup3\n        /* \"#utility.yul\":25433:25447   */\n      add\n        /* \"#utility.yul\":25426:25484   */\n      mstore\n        /* \"#utility.yul\":25518:25525   */\n      0x207a65726f000000000000000000000000000000000000000000000000000000\n        /* \"#utility.yul\":25513:25515   */\n      0x20\n        /* \"#utility.yul\":25505:25511   */\n      dup3\n        /* \"#utility.yul\":25501:25516   */\n      add\n        /* \"#utility.yul\":25494:25526   */\n      mstore\n        /* \"#utility.yul\":25309:25533   */\n      pop\n      jump\t// out\n        /* \"#utility.yul\":25539:25661   */\n    tag_373:\n        /* \"#utility.yul\":25612:25636   */\n      tag_639\n        /* \"#utility.yul\":25630:25635   */\n      dup2\n        /* \"#utility.yul\":25612:25636   */\n      tag_448\n      jump\t// in\n    tag_639:\n        /* \"#utility.yul\":25605:25610   */\n      dup2\n        /* \"#utility.yul\":25602:25637   */\n      eq\n        /* \"#utility.yul\":25592:25655   */\n      tag_640\n      jumpi\n        /* \"#utility.yul\":25651:25652   */\n      0x00\n        /* \"#utility.yul\":25648:25649   */\n      dup1\n        /* \"#utility.yul\":25641:25653   */\n      revert\n        /* \"#utility.yul\":25592:25655   */\n    tag_640:\n        /* \"#utility.yul\":25539:25661   */\n      pop\n      jump\t// out\n        /* \"#utility.yul\":25667:25783   */\n    tag_383:\n        /* \"#utility.yul\":25737:25758   */\n      tag_642\n        /* \"#utility.yul\":25752:25757   */\n      dup2\n        /* \"#utility.yul\":25737:25758   */\n      tag_452\n      jump\t// in\n    tag_642:\n        /* \"#utility.yul\":25730:25735   */\n      dup2\n        /* \"#utility.yul\":25727:25759   */\n      eq\n        /* \"#utility.yul\":25717:25777   */\n      tag_643\n      jumpi\n        /* \"#utility.yul\":25773:25774   */\n      0x00\n        /* \"#utility.yul\":25770:25771   */\n      dup1\n        /* \"#utility.yul\":25763:25775   */\n      revert\n        /* \"#utility.yul\":25717:25777   */\n    tag_643:\n        /* \"#utility.yul\":25667:25783   */\n      pop\n      jump\t// out\n        /* \"#utility.yul\":25789:25911   */\n    tag_391:\n        /* \"#utility.yul\":25862:25886   */\n      tag_645\n        /* \"#utility.yul\":25880:25885   */\n      dup2\n        /* \"#utility.yul\":25862:25886   */\n      tag_523\n      jump\t// in\n    tag_645:\n        /* \"#utility.yul\":25855:25860   */\n      dup2\n        /* \"#utility.yul\":25852:25887   */\n      eq\n        /* \"#utility.yul\":25842:25905   */\n      tag_646\n      jumpi\n        /* \"#utility.yul\":25901:25902   */\n      0x00\n        /* \"#utility.yul\":25898:25899   */\n      dup1\n        /* \"#utility.yul\":25891:25903   */\n      revert\n        /* \"#utility.yul\":25842:25905   */\n    tag_646:\n        /* \"#utility.yul\":25789:25911   */\n      pop\n      jump\t// out\n\n    auxdata: 0xa264697066735822122072ea685062c505108fe3b1d8d9f93864bdc87a9cae18a5570f90de68224ae6f264736f6c63430008070033\n}\n",
				"bytecode": {
					"linkReferences": {},
					"object": "60806040523480156200001157600080fd5b5060405162002ae238038062002ae2833981810160405281019062000037919062000385565b6040518060400160405280600b81526020017f4d79476f7620546f6b656e0000000000000000000000000000000000000000008152506040518060400160405280600381526020017f4d475400000000000000000000000000000000000000000000000000000000008152508160039080519060200190620000bb929190620002be565b508060049080519060200190620000d4929190620002be565b50505033600560006101000a81548173ffffffffffffffffffffffffffffffffffffffff021916908373ffffffffffffffffffffffffffffffffffffffff1602179055506200013f33670de0b6b3a7640000836200013391906200049c565b6200014660201b60201c565b50620005e3565b600073ffffffffffffffffffffffffffffffffffffffff168273ffffffffffffffffffffffffffffffffffffffff161415620001b9576040517f08c379a0000000000000000000000000000000000000000000000000000000008152600401620001b090620003ef565b60405180910390fd5b620001cd60008383620002b460201b60201c565b8060026000828254620001e191906200043f565b92505081905550806000808473ffffffffffffffffffffffffffffffffffffffff1673ffffffffffffffffffffffffffffffffffffffff168152602001908152602001600020600082825401925050819055508173ffffffffffffffffffffffffffffffffffffffff16600073ffffffffffffffffffffffffffffffffffffffff167fddf252ad1be2c89b69c2b068fc378daa952ba7f163c4a11628f55a4df523b3ef8360405162000294919062000411565b60405180910390a3620002b060008383620002b960201b60201c565b5050565b505050565b505050565b828054620002cc9062000507565b90600052602060002090601f016020900481019282620002f057600085556200033c565b82601f106200030b57805160ff19168380011785556200033c565b828001600101855582156200033c579182015b828111156200033b5782518255916020019190600101906200031e565b5b5090506200034b91906200034f565b5090565b5b808211156200036a57600081600090555060010162000350565b5090565b6000815190506200037f81620005c9565b92915050565b6000602082840312156200039e576200039d6200059b565b5b6000620003ae848285016200036e565b91505092915050565b6000620003c6601f836200042e565b9150620003d382620005a0565b602082019050919050565b620003e981620004fd565b82525050565b600060208201905081810360008301526200040a81620003b7565b9050919050565b6000602082019050620004286000830184620003de565b92915050565b600082825260208201905092915050565b60006200044c82620004fd565b91506200045983620004fd565b9250827fffffffffffffffffffffffffffffffffffffffffffffffffffffffffffffffff038211156200049157620004906200053d565b5b828201905092915050565b6000620004a982620004fd565b9150620004b683620004fd565b9250817fffffffffffffffffffffffffffffffffffffffffffffffffffffffffffffffff0483118215151615620004f257620004f16200053d565b5b828202905092915050565b6000819050919050565b600060028204905060018216806200052057607f821691505b602082108114156200053757620005366200056c565b5b50919050565b7f4e487b7100000000000000000000000000000000000000000000000000000000600052601160045260246000fd5b7f4e487b7100000000000000000000000000000000000000000000000000000000600052602260045260246000fd5b600080fd5b7f45524332303a206d696e7420746f20746865207a65726f206164647265737300600082015250565b620005d481620004fd565b8114620005e057600080fd5b50565b6124ef80620005f36000396000f3fe6080604052600436106102045760003560e01c8063863451dd11610118578063a9059cbb116100a0578063dd62ed3e1161006f578063dd62ed3e14610706578063e00e03f914610743578063e6d685951461075a578063ef269ae314610771578063f22449ba146107ae57610204565b8063a9059cbb14610670578063af60d560146106ad578063bafc462d146106c4578063bf50556d146106db57610204565b806395d89b41116100e757806395d89b4114610562578063a1669b321461058d578063a3ec138d146105b6578063a457c2d7146105f6578063a5e898e11461063357610204565b8063863451dd146104c757806386e68b90146104d1578063875b50761461050e5780638fbe37501461054b57610204565b8063313ce5671161019b5780635d801b371161016a5780635d801b371461041a57806367c897fe1461044557806370a082311461045c57806370e1133c1461049957806372a4e9ba146104b057610204565b8063313ce56714610372578063356552371461039d57806339509351146103b457806339c94d2d146103f157610204565b8063164dfd3b116101d7578063164dfd3b146102c857806318160ddd146102df57806323b872dd1461030a57806323fd498b1461034757610204565b8063013cf08b14610209578063033cb2d31461024957806306fdde0314610260578063095ea7b31461028b575b600080fd5b34801561021557600080fd5b50610230600480360381019061022b9190611a1d565b6107d7565b6040516102409493929190611cd3565b60405180910390f35b34801561025557600080fd5b5061025e6108b9565b005b34801561026c57600080fd5b506102756108bb565b6040516102829190611d1f565b60405180910390f35b34801561029757600080fd5b506102b260048036038101906102ad919061189f565b61094d565b6040516102bf9190611c9d565b60405180910390f35b3480156102d457600080fd5b506102dd610970565b005b3480156102eb57600080fd5b506102f4610972565b6040516103019190611e61565b60405180910390f35b34801561031657600080fd5b50610331600480360381019061032c919061184c565b61097c565b60405161033e9190611c9d565b60405180910390f35b34801561035357600080fd5b5061035c6109ab565b6040516103699190611e61565b60405180910390f35b34801561037e57600080fd5b506103876109b8565b6040516103949190611ec1565b60405180910390f35b3480156103a957600080fd5b506103b26109c1565b005b3480156103c057600080fd5b506103db60048036038101906103d6919061189f565b6109c3565b6040516103e89190611c9d565b60405180910390f35b3480156103fd57600080fd5b5061041860048036038101906104139190611a1d565b6109fa565b005b34801561042657600080fd5b5061042f610a2a565b60405161043c9190611e61565b60405180910390f35b34801561045157600080fd5b5061045a610a37565b005b34801561046857600080fd5b50610483600480360381019061047e91906117df565b610a39565b6040516104909190611e61565b60405180910390f35b3480156104a557600080fd5b506104ae610a81565b005b3480156104bc57600080fd5b506104c5610a83565b005b6104cf610a85565b005b3480156104dd57600080fd5b506104f860048036038101906104f39190611a1d565b610af1565b6040516105059190611cb8565b60405180910390f35b34801561051a57600080fd5b5061053560048036038101906105309190611a1d565b610b1f565b6040516105429190611c82565b60405180910390f35b34801561055757600080fd5b50610560610b26565b005b34801561056e57600080fd5b50610577610b28565b6040516105849190611d1f565b60405180910390f35b34801561059957600080fd5b506105b460048036038101906105af919061189f565b610bba565b005b3480156105c257600080fd5b506105dd60048036038101906105d891906117df565b610d86565b6040516105ed9493929190611e7c565b60405180910390f35b34801561060257600080fd5b5061061d6004803603810190610618919061189f565b610de3565b60405161062a9190611c9d565b60405180910390f35b34801561063f57600080fd5b5061065a600480360381019061065591906118df565b610e5a565b6040516106679190611e61565b60405180910390f35b34801561067c57600080fd5b506106976004803603810190610692919061189f565b610f2b565b6040516106a49190611c9d565b60405180910390f35b3480156106b957600080fd5b506106c2610f4e565b005b3480156106d057600080fd5b506106d9610f50565b005b3480156106e757600080fd5b506106f0610f52565b6040516106fd9190611e61565b60405180910390f35b34801561071257600080fd5b5061072d6004803603810190610728919061180c565b610fcb565b60405161073a9190611e61565b60405180910390f35b34801561074f57600080fd5b50610758611052565b005b34801561076657600080fd5b5061076f611054565b005b34801561077d57600080fd5b506107986004803603810190610793919061199a565b611056565b6040516107a59190611e61565b60405180910390f35b3480156107ba57600080fd5b506107d560048036038101906107d09190611a4a565b611060565b005b600781815481106107e757600080fd5b906000526020600020906003020160009150905080600001805461080a9061208d565b80601f01602080910402602001604051908101604052809291908181526020018280546108369061208d565b80156108835780601f1061085857610100808354040283529160200191610883565b820191906000526020600020905b81548152906001019060200180831161086657829003601f168201915b5050505050908060010154908060020160009054906101000a900460ff16908060020160019054906101000a900460ff16905084565b565b6060600380546108ca9061208d565b80601f01602080910402602001604051908101604052809291908181526020018280546108f69061208d565b80156109435780601f1061091857610100808354040283529160200191610943565b820191906000526020600020905b81548152906001019060200180831161092657829003601f168201915b5050505050905090565b60008061095861110e565b9050610965818585611116565b600191505092915050565b565b6000600254905090565b60008061098761110e565b90506109948582856112e1565b61099f85858561136d565b60019150509392505050565b6000600780549050905090565b60006012905090565b565b6000806109ce61110e565b90506109ef8185856109e08589610fcb565b6109ea9190611f96565b611116565b600191505092915050565b610a26600560009054906101000a900473ffffffffffffffffffffffffffffffffffffffff1682610f2b565b5050565b6000600880549050905090565b565b60008060008373ffffffffffffffffffffffffffffffffffffffff1673ffffffffffffffffffffffffffffffffffffffff168152602001908152602001600020549050919050565b565b565b600560009054906101000a900473ffffffffffffffffffffffffffffffffffffffff1673ffffffffffffffffffffffffffffffffffffffff166108fc607b9081150290604051600060405180830381858888f19350505050158015610aee573d6000803e3d6000fd5b50565b60088181548110610b0157600080fd5b90600052602060002090600302016000915090508060000154905081565b6000919050565b565b606060048054610b379061208d565b80601f0160208091040260200160405190810160405280929190818152602001828054610b639061208d565b8015610bb05780601f10610b8557610100808354040283529160200191610bb0565b820191906000526020600020905b815481529060010190602001808311610b9357829003601f168201915b5050505050905090565b6000600660003373ffffffffffffffffffffffffffffffffffffffff1673ffffffffffffffffffffffffffffffffffffffff16815260200190815260200160002090508060010160009054906101000a900460ff1615610c4f576040517f08c379a0000000000000000000000000000000000000000000000000000000008152600401610c4690611e01565b60405180910390fd5b3373ffffffffffffffffffffffffffffffffffffffff168373ffffffffffffffffffffffffffffffffffffffff161415610cbe576040517f08c379a0000000000000000000000000000000000000000000000000000000008152600401610cb590611d61565b60405180910390fd5b60018160010160006101000a81548160ff021916908315150217905550828160010160016101000a81548173ffffffffffffffffffffffffffffffffffffffff021916908373ffffffffffffffffffffffffffffffffffffffff1602179055506000600660008573ffffffffffffffffffffffffffffffffffffffff1673ffffffffffffffffffffffffffffffffffffffff16815260200190815260200160002090508160000154816000016000828254610d799190611f96565b9250508190555050505050565b60066020528060005260406000206000915090508060000154908060010160009054906101000a900460ff16908060010160019054906101000a900473ffffffffffffffffffffffffffffffffffffffff16908060020154905084565b600080610dee61110e565b90506000610dfc8286610fcb565b905083811015610e41576040517f08c379a0000000000000000000000000000000000000000000000000000000008152600401610e3890611e41565b60405180910390fd5b610e4e8286868403611116565b60019250505092915050565b600080859050600060405180608001604052808381526020016000815260200160001515815260200160001515815250905060078190806001815401808255809150506001900390600052602060002090600302016000909190919091506000820151816000019080519060200190610ed49291906115ef565b506020820151816001015560408201518160020160006101000a81548160ff02191690831515021790555060608201518160020160016101000a81548160ff02191690831515021790555050505050949350505050565b600080610f3661110e565b9050610f4381858561136d565b600191505092915050565b565b565b6000806000905060005b600780549050811015610fc35760078181548110610f7d57610f7c612197565b5b906000526020600020906003020160020160019054906101000a900460ff1615610fb0578180610fac906120f0565b9250505b8080610fbb906120f0565b915050610f5c565b508091505090565b6000600160008473ffffffffffffffffffffffffffffffffffffffff1673ffffffffffffffffffffffffffffffffffffffff16815260200190815260200160002060008373ffffffffffffffffffffffffffffffffffffffff1673ffffffffffffffffffffffffffffffffffffffff16815260200190815260200160002054905092915050565b565b565b6000949350505050565b6000600660003373ffffffffffffffffffffffffffffffffffffffff1673ffffffffffffffffffffffffffffffffffffffff168152602001908152602001600020905060018160010160006101000a81548160ff0219169083151502179055508281600201819055508060000154600784815481106110e2576110e1612197565b5b906000526020600020906003020160010160008282546111029190611f96565b92505081905550505050565b600033905090565b600073ffffffffffffffffffffffffffffffffffffffff168373ffffffffffffffffffffffffffffffffffffffff161415611186576040517f08c379a000000000000000000000000000000000000000000000000000000000815260040161117d90611e21565b60405180910390fd5b600073ffffffffffffffffffffffffffffffffffffffff168273ffffffffffffffffffffffffffffffffffffffff1614156111f6576040517f08c379a00000000000000000000000000000000000000000000000000000000081526004016111ed90611d81565b60405180910390fd5b80600160008573ffffffffffffffffffffffffffffffffffffffff1673ffffffffffffffffffffffffffffffffffffffff16815260200190815260200160002060008473ffffffffffffffffffffffffffffffffffffffff1673ffffffffffffffffffffffffffffffffffffffff168152602001908152602001600020819055508173ffffffffffffffffffffffffffffffffffffffff168373ffffffffffffffffffffffffffffffffffffffff167f8c5be1e5ebec7d5bd14f71427d1e84f3dd0314c0f7b2291e5b200ac8c7c3b925836040516112d49190611e61565b60405180910390a3505050565b60006112ed8484610fcb565b90507fffffffffffffffffffffffffffffffffffffffffffffffffffffffffffffffff81146113675781811015611359576040517f08c379a000000000000000000000000000000000000000000000000000000000815260040161135090611da1565b60405180910390fd5b6113668484848403611116565b5b50505050565b600073ffffffffffffffffffffffffffffffffffffffff168373ffffffffffffffffffffffffffffffffffffffff1614156113dd576040517f08c379a00000000000000000000000000000000000000000000000000000000081526004016113d490611de1565b60405180910390fd5b600073ffffffffffffffffffffffffffffffffffffffff168273ffffffffffffffffffffffffffffffffffffffff16141561144d576040517f08c379a000000000000000000000000000000000000000000000000000000000815260040161144490611d41565b60405180910390fd5b6114588383836115e5565b60008060008573ffffffffffffffffffffffffffffffffffffffff1673ffffffffffffffffffffffffffffffffffffffff168152602001908152602001600020549050818110156114de576040517f08c379a00000000000000000000000000000000000000000000000000000000081526004016114d590611dc1565b60405180910390fd5b8181036000808673ffffffffffffffffffffffffffffffffffffffff1673ffffffffffffffffffffffffffffffffffffffff16815260200190815260200160002081905550816000808573ffffffffffffffffffffffffffffffffffffffff1673ffffffffffffffffffffffffffffffffffffffff168152602001908152602001600020600082825401925050819055508273ffffffffffffffffffffffffffffffffffffffff168473ffffffffffffffffffffffffffffffffffffffff167fddf252ad1be2c89b69c2b068fc378daa952ba7f163c4a11628f55a4df523b3ef846040516115cc9190611e61565b60405180910390a36115df8484846115ea565b50505050565b505050565b505050565b8280546115fb9061208d565b90600052602060002090601f01602090048101928261161d5760008555611664565b82601f1061163657805160ff1916838001178555611664565b82800160010185558215611664579182015b82811115611663578251825591602001919060010190611648565b5b5090506116719190611675565b5090565b5b8082111561168e576000816000905550600101611676565b5090565b60006116a56116a084611f01565b611edc565b905080838252602082019050828560208602820111156116c8576116c76121fa565b5b60005b858110156116f857816116de88826117ca565b8452602084019350602083019250506001810190506116cb565b5050509392505050565b600061171561171084611f2d565b611edc565b905082815260208101848484011115611731576117306121ff565b5b61173c84828561204b565b509392505050565b60008135905061175381612474565b92915050565b600082601f83011261176e5761176d6121f5565b5b813561177e848260208601611692565b91505092915050565b6000813590506117968161248b565b92915050565b600082601f8301126117b1576117b06121f5565b5b81356117c1848260208601611702565b91505092915050565b6000813590506117d9816124a2565b92915050565b6000602082840312156117f5576117f4612209565b5b600061180384828501611744565b91505092915050565b6000806040838503121561182357611822612209565b5b600061183185828601611744565b925050602061184285828601611744565b9150509250929050565b60008060006060848603121561186557611864612209565b5b600061187386828701611744565b935050602061188486828701611744565b9250506040611895868287016117ca565b9150509250925092565b600080604083850312156118b6576118b5612209565b5b60006118c485828601611744565b92505060206118d5858286016117ca565b9150509250929050565b600080600080608085870312156118f9576118f8612209565b5b600085013567ffffffffffffffff81111561191757611916612204565b5b6119238782880161179c565b9450506020611934878288016117ca565b935050604085013567ffffffffffffffff81111561195557611954612204565b5b61196187828801611759565b925050606085013567ffffffffffffffff81111561198257611981612204565b5b61198e87828801611759565b91505092959194509250565b600080600080608085870312156119b4576119b3612209565b5b600085013567ffffffffffffffff8111156119d2576119d1612204565b5b6119de8782880161179c565b94505060206119ef878288016117ca565b9350506040611a00878288016117ca565b9250506060611a11878288016117ca565b91505092959194509250565b600060208284031215611a3357611a32612209565b5b6000611a41848285016117ca565b91505092915050565b60008060408385031215611a6157611a60612209565b5b6000611a6f858286016117ca565b9250506020611a8085828601611787565b9150509250929050565b611a9381611fec565b82525050565b611aa281611ffe565b82525050565b611ab18161200a565b82525050565b6000611ac282611f5e565b611acc8185611f74565b9350611adc81856020860161205a565b611ae58161220e565b840191505092915050565b6000611afb82611f69565b611b058185611f85565b9350611b1581856020860161205a565b611b1e8161220e565b840191505092915050565b6000611b36602383611f85565b9150611b418261221f565b604082019050919050565b6000611b59601c83611f85565b9150611b648261226e565b602082019050919050565b6000611b7c602283611f85565b9150611b8782612297565b604082019050919050565b6000611b9f601d83611f85565b9150611baa826122e6565b602082019050919050565b6000611bc2602683611f85565b9150611bcd8261230f565b604082019050919050565b6000611be5602583611f85565b9150611bf08261235e565b604082019050919050565b6000611c08601283611f85565b9150611c13826123ad565b602082019050919050565b6000611c2b602483611f85565b9150611c36826123d6565b604082019050919050565b6000611c4e602583611f85565b9150611c5982612425565b604082019050919050565b611c6d81612034565b82525050565b611c7c8161203e565b82525050565b6000602082019050611c976000830184611a8a565b92915050565b6000602082019050611cb26000830184611a99565b92915050565b6000602082019050611ccd6000830184611aa8565b92915050565b60006080820190508181036000830152611ced8187611ab7565b9050611cfc6020830186611c64565b611d096040830185611a99565b611d166060830184611a99565b95945050505050565b60006020820190508181036000830152611d398184611af0565b905092915050565b60006020820190508181036000830152611d5a81611b29565b9050919050565b60006020820190508181036000830152611d7a81611b4c565b9050919050565b60006020820190508181036000830152611d9a81611b6f565b9050919050565b60006020820190508181036000830152611dba81611b92565b9050919050565b60006020820190508181036000830152611dda81611bb5565b9050919050565b60006020820190508181036000830152611dfa81611bd8565b9050919050565b60006020820190508181036000830152611e1a81611bfb565b9050919050565b60006020820190508181036000830152611e3a81611c1e565b9050919050565b60006020820190508181036000830152611e5a81611c41565b9050919050565b6000602082019050611e766000830184611c64565b92915050565b6000608082019050611e916000830187611c64565b611e9e6020830186611a99565b611eab6040830185611a8a565b611eb86060830184611c64565b95945050505050565b6000602082019050611ed66000830184611c73565b92915050565b6000611ee6611ef7565b9050611ef282826120bf565b919050565b6000604051905090565b600067ffffffffffffffff821115611f1c57611f1b6121c6565b5b602082029050602081019050919050565b600067ffffffffffffffff821115611f4857611f476121c6565b5b611f518261220e565b9050602081019050919050565b600081519050919050565b600081519050919050565b600082825260208201905092915050565b600082825260208201905092915050565b6000611fa182612034565b9150611fac83612034565b9250827fffffffffffffffffffffffffffffffffffffffffffffffffffffffffffffffff03821115611fe157611fe0612139565b5b828201905092915050565b6000611ff782612014565b9050919050565b60008115159050919050565b6000819050919050565b600073ffffffffffffffffffffffffffffffffffffffff82169050919050565b6000819050919050565b600060ff82169050919050565b82818337600083830152505050565b60005b8381101561207857808201518184015260208101905061205d565b83811115612087576000848401525b50505050565b600060028204905060018216806120a557607f821691505b602082108114156120b9576120b8612168565b5b50919050565b6120c88261220e565b810181811067ffffffffffffffff821117156120e7576120e66121c6565b5b80604052505050565b60006120fb82612034565b91507fffffffffffffffffffffffffffffffffffffffffffffffffffffffffffffffff82141561212e5761212d612139565b5b600182019050919050565b7f4e487b7100000000000000000000000000000000000000000000000000000000600052601160045260246000fd5b7f4e487b7100000000000000000000000000000000000000000000000000000000600052602260045260246000fd5b7f4e487b7100000000000000000000000000000000000000000000000000000000600052603260045260246000fd5b7f4e487b7100000000000000000000000000000000000000000000000000000000600052604160045260246000fd5b600080fd5b600080fd5b600080fd5b600080fd5b600080fd5b6000601f19601f8301169050919050565b7f45524332303a207472616e7366657220746f20746865207a65726f206164647260008201527f6573730000000000000000000000000000000000000000000000000000000000602082015250565b7f53656c662064656c65676174696f6e206e6f7420616c6c6f7765642100000000600082015250565b7f45524332303a20617070726f766520746f20746865207a65726f20616464726560008201527f7373000000000000000000000000000000000000000000000000000000000000602082015250565b7f45524332303a20696e73756666696369656e7420616c6c6f77616e6365000000600082015250565b7f45524332303a207472616e7366657220616d6f756e742065786365656473206260008201527f616c616e63650000000000000000000000000000000000000000000000000000602082015250565b7f45524332303a207472616e736665722066726f6d20746865207a65726f20616460008201527f6472657373000000000000000000000000000000000000000000000000000000602082015250565b7f596f7520616c726561647920766f746564210000000000000000000000000000600082015250565b7f45524332303a20617070726f76652066726f6d20746865207a65726f2061646460008201527f7265737300000000000000000000000000000000000000000000000000000000602082015250565b7f45524332303a2064656372656173656420616c6c6f77616e63652062656c6f7760008201527f207a65726f000000000000000000000000000000000000000000000000000000602082015250565b61247d81611fec565b811461248857600080fd5b50565b61249481611ffe565b811461249f57600080fd5b50565b6124ab81612034565b81146124b657600080fd5b5056fea264697066735822122072ea685062c505108fe3b1d8d9f93864bdc87a9cae18a5570f90de68224ae6f264736f6c63430008070033",
					"opcodes": "PUSH1 0x80 PUSH1 0x40 MSTORE CALLVALUE DUP1 ISZERO PUSH3 0x11 JUMPI PUSH1 0x0 DUP1 REVERT JUMPDEST POP PUSH1 0x40 MLOAD PUSH3 0x2AE2 CODESIZE SUB DUP1 PUSH3 0x2AE2 DUP4 CODECOPY DUP2 DUP2 ADD PUSH1 0x40 MSTORE DUP2 ADD SWAP1 PUSH3 0x37 SWAP2 SWAP1 PUSH3 0x385 JUMP JUMPDEST PUSH1 0x40 MLOAD DUP1 PUSH1 0x40 ADD PUSH1 0x40 MSTORE DUP1 PUSH1 0xB DUP2 MSTORE PUSH1 0x20 ADD PUSH32 0x4D79476F7620546F6B656E000000000000000000000000000000000000000000 DUP2 MSTORE POP PUSH1 0x40 MLOAD DUP1 PUSH1 0x40 ADD PUSH1 0x40 MSTORE DUP1 PUSH1 0x3 DUP2 MSTORE PUSH1 0x20 ADD PUSH32 0x4D47540000000000000000000000000000000000000000000000000000000000 DUP2 MSTORE POP DUP2 PUSH1 0x3 SWAP1 DUP1 MLOAD SWAP1 PUSH1 0x20 ADD SWAP1 PUSH3 0xBB SWAP3 SWAP2 SWAP1 PUSH3 0x2BE JUMP JUMPDEST POP DUP1 PUSH1 0x4 SWAP1 DUP1 MLOAD SWAP1 PUSH1 0x20 ADD SWAP1 PUSH3 0xD4 SWAP3 SWAP2 SWAP1 PUSH3 0x2BE JUMP JUMPDEST POP POP POP CALLER PUSH1 0x5 PUSH1 0x0 PUSH2 0x100 EXP DUP2 SLOAD DUP2 PUSH20 0xFFFFFFFFFFFFFFFFFFFFFFFFFFFFFFFFFFFFFFFF MUL NOT AND SWAP1 DUP4 PUSH20 0xFFFFFFFFFFFFFFFFFFFFFFFFFFFFFFFFFFFFFFFF AND MUL OR SWAP1 SSTORE POP PUSH3 0x13F CALLER PUSH8 0xDE0B6B3A7640000 DUP4 PUSH3 0x133 SWAP2 SWAP1 PUSH3 0x49C JUMP JUMPDEST PUSH3 0x146 PUSH1 0x20 SHL PUSH1 0x20 SHR JUMP JUMPDEST POP PUSH3 0x5E3 JUMP JUMPDEST PUSH1 0x0 PUSH20 0xFFFFFFFFFFFFFFFFFFFFFFFFFFFFFFFFFFFFFFFF AND DUP3 PUSH20 0xFFFFFFFFFFFFFFFFFFFFFFFFFFFFFFFFFFFFFFFF AND EQ ISZERO PUSH3 0x1B9 JUMPI PUSH1 0x40 MLOAD PUSH32 0x8C379A000000000000000000000000000000000000000000000000000000000 DUP2 MSTORE PUSH1 0x4 ADD PUSH3 0x1B0 SWAP1 PUSH3 0x3EF JUMP JUMPDEST PUSH1 0x40 MLOAD DUP1 SWAP2 SUB SWAP1 REVERT JUMPDEST PUSH3 0x1CD PUSH1 0x0 DUP4 DUP4 PUSH3 0x2B4 PUSH1 0x20 SHL PUSH1 0x20 SHR JUMP JUMPDEST DUP1 PUSH1 0x2 PUSH1 0x0 DUP3 DUP3 SLOAD PUSH3 0x1E1 SWAP2 SWAP1 PUSH3 0x43F JUMP JUMPDEST SWAP3 POP POP DUP2 SWAP1 SSTORE POP DUP1 PUSH1 0x0 DUP1 DUP5 PUSH20 0xFFFFFFFFFFFFFFFFFFFFFFFFFFFFFFFFFFFFFFFF AND PUSH20 0xFFFFFFFFFFFFFFFFFFFFFFFFFFFFFFFFFFFFFFFF AND DUP2 MSTORE PUSH1 0x20 ADD SWAP1 DUP2 MSTORE PUSH1 0x20 ADD PUSH1 0x0 KECCAK256 PUSH1 0x0 DUP3 DUP3 SLOAD ADD SWAP3 POP POP DUP2 SWAP1 SSTORE POP DUP2 PUSH20 0xFFFFFFFFFFFFFFFFFFFFFFFFFFFFFFFFFFFFFFFF AND PUSH1 0x0 PUSH20 0xFFFFFFFFFFFFFFFFFFFFFFFFFFFFFFFFFFFFFFFF AND PUSH32 0xDDF252AD1BE2C89B69C2B068FC378DAA952BA7F163C4A11628F55A4DF523B3EF DUP4 PUSH1 0x40 MLOAD PUSH3 0x294 SWAP2 SWAP1 PUSH3 0x411 JUMP JUMPDEST PUSH1 0x40 MLOAD DUP1 SWAP2 SUB SWAP1 LOG3 PUSH3 0x2B0 PUSH1 0x0 DUP4 DUP4 PUSH3 0x2B9 PUSH1 0x20 SHL PUSH1 0x20 SHR JUMP JUMPDEST POP POP JUMP JUMPDEST POP POP POP JUMP JUMPDEST POP POP POP JUMP JUMPDEST DUP3 DUP1 SLOAD PUSH3 0x2CC SWAP1 PUSH3 0x507 JUMP JUMPDEST SWAP1 PUSH1 0x0 MSTORE PUSH1 0x20 PUSH1 0x0 KECCAK256 SWAP1 PUSH1 0x1F ADD PUSH1 0x20 SWAP1 DIV DUP2 ADD SWAP3 DUP3 PUSH3 0x2F0 JUMPI PUSH1 0x0 DUP6 SSTORE PUSH3 0x33C JUMP JUMPDEST DUP3 PUSH1 0x1F LT PUSH3 0x30B JUMPI DUP1 MLOAD PUSH1 0xFF NOT AND DUP4 DUP1 ADD OR DUP6 SSTORE PUSH3 0x33C JUMP JUMPDEST DUP3 DUP1 ADD PUSH1 0x1 ADD DUP6 SSTORE DUP3 ISZERO PUSH3 0x33C JUMPI SWAP2 DUP3 ADD JUMPDEST DUP3 DUP2 GT ISZERO PUSH3 0x33B JUMPI DUP3 MLOAD DUP3 SSTORE SWAP2 PUSH1 0x20 ADD SWAP2 SWAP1 PUSH1 0x1 ADD SWAP1 PUSH3 0x31E JUMP JUMPDEST JUMPDEST POP SWAP1 POP PUSH3 0x34B SWAP2 SWAP1 PUSH3 0x34F JUMP JUMPDEST POP SWAP1 JUMP JUMPDEST JUMPDEST DUP1 DUP3 GT ISZERO PUSH3 0x36A JUMPI PUSH1 0x0 DUP2 PUSH1 0x0 SWAP1 SSTORE POP PUSH1 0x1 ADD PUSH3 0x350 JUMP JUMPDEST POP SWAP1 JUMP JUMPDEST PUSH1 0x0 DUP2 MLOAD SWAP1 POP PUSH3 0x37F DUP2 PUSH3 0x5C9 JUMP JUMPDEST SWAP3 SWAP2 POP POP JUMP JUMPDEST PUSH1 0x0 PUSH1 0x20 DUP3 DUP5 SUB SLT ISZERO PUSH3 0x39E JUMPI PUSH3 0x39D PUSH3 0x59B JUMP JUMPDEST JUMPDEST PUSH1 0x0 PUSH3 0x3AE DUP5 DUP3 DUP6 ADD PUSH3 0x36E JUMP JUMPDEST SWAP2 POP POP SWAP3 SWAP2 POP POP JUMP JUMPDEST PUSH1 0x0 PUSH3 0x3C6 PUSH1 0x1F DUP4 PUSH3 0x42E JUMP JUMPDEST SWAP2 POP PUSH3 0x3D3 DUP3 PUSH3 0x5A0 JUMP JUMPDEST PUSH1 0x20 DUP3 ADD SWAP1 POP SWAP2 SWAP1 POP JUMP JUMPDEST PUSH3 0x3E9 DUP2 PUSH3 0x4FD JUMP JUMPDEST DUP3 MSTORE POP POP JUMP JUMPDEST PUSH1 0x0 PUSH1 0x20 DUP3 ADD SWAP1 POP DUP2 DUP2 SUB PUSH1 0x0 DUP4 ADD MSTORE PUSH3 0x40A DUP2 PUSH3 0x3B7 JUMP JUMPDEST SWAP1 POP SWAP2 SWAP1 POP JUMP JUMPDEST PUSH1 0x0 PUSH1 0x20 DUP3 ADD SWAP1 POP PUSH3 0x428 PUSH1 0x0 DUP4 ADD DUP5 PUSH3 0x3DE JUMP JUMPDEST SWAP3 SWAP2 POP POP JUMP JUMPDEST PUSH1 0x0 DUP3 DUP3 MSTORE PUSH1 0x20 DUP3 ADD SWAP1 POP SWAP3 SWAP2 POP POP JUMP JUMPDEST PUSH1 0x0 PUSH3 0x44C DUP3 PUSH3 0x4FD JUMP JUMPDEST SWAP2 POP PUSH3 0x459 DUP4 PUSH3 0x4FD JUMP JUMPDEST SWAP3 POP DUP3 PUSH32 0xFFFFFFFFFFFFFFFFFFFFFFFFFFFFFFFFFFFFFFFFFFFFFFFFFFFFFFFFFFFFFFFF SUB DUP3 GT ISZERO PUSH3 0x491 JUMPI PUSH3 0x490 PUSH3 0x53D JUMP JUMPDEST JUMPDEST DUP3 DUP3 ADD SWAP1 POP SWAP3 SWAP2 POP POP JUMP JUMPDEST PUSH1 0x0 PUSH3 0x4A9 DUP3 PUSH3 0x4FD JUMP JUMPDEST SWAP2 POP PUSH3 0x4B6 DUP4 PUSH3 0x4FD JUMP JUMPDEST SWAP3 POP DUP2 PUSH32 0xFFFFFFFFFFFFFFFFFFFFFFFFFFFFFFFFFFFFFFFFFFFFFFFFFFFFFFFFFFFFFFFF DIV DUP4 GT DUP3 ISZERO ISZERO AND ISZERO PUSH3 0x4F2 JUMPI PUSH3 0x4F1 PUSH3 0x53D JUMP JUMPDEST JUMPDEST DUP3 DUP3 MUL SWAP1 POP SWAP3 SWAP2 POP POP JUMP JUMPDEST PUSH1 0x0 DUP2 SWAP1 POP SWAP2 SWAP1 POP JUMP JUMPDEST PUSH1 0x0 PUSH1 0x2 DUP3 DIV SWAP1 POP PUSH1 0x1 DUP3 AND DUP1 PUSH3 0x520 JUMPI PUSH1 0x7F DUP3 AND SWAP2 POP JUMPDEST PUSH1 0x20 DUP3 LT DUP2 EQ ISZERO PUSH3 0x537 JUMPI PUSH3 0x536 PUSH3 0x56C JUMP JUMPDEST JUMPDEST POP SWAP2 SWAP1 POP JUMP JUMPDEST PUSH32 0x4E487B7100000000000000000000000000000000000000000000000000000000 PUSH1 0x0 MSTORE PUSH1 0x11 PUSH1 0x4 MSTORE PUSH1 0x24 PUSH1 0x0 REVERT JUMPDEST PUSH32 0x4E487B7100000000000000000000000000000000000000000000000000000000 PUSH1 0x0 MSTORE PUSH1 0x22 PUSH1 0x4 MSTORE PUSH1 0x24 PUSH1 0x0 REVERT JUMPDEST PUSH1 0x0 DUP1 REVERT JUMPDEST PUSH32 0x45524332303A206D696E7420746F20746865207A65726F206164647265737300 PUSH1 0x0 DUP3 ADD MSTORE POP JUMP JUMPDEST PUSH3 0x5D4 DUP2 PUSH3 0x4FD JUMP JUMPDEST DUP2 EQ PUSH3 0x5E0 JUMPI PUSH1 0x0 DUP1 REVERT JUMPDEST POP JUMP JUMPDEST PUSH2 0x24EF DUP1 PUSH3 0x5F3 PUSH1 0x0 CODECOPY PUSH1 0x0 RETURN INVALID PUSH1 0x80 PUSH1 0x40 MSTORE PUSH1 0x4 CALLDATASIZE LT PUSH2 0x204 JUMPI PUSH1 0x0 CALLDATALOAD PUSH1 0xE0 SHR DUP1 PUSH4 0x863451DD GT PUSH2 0x118 JUMPI DUP1 PUSH4 0xA9059CBB GT PUSH2 0xA0 JUMPI DUP1 PUSH4 0xDD62ED3E GT PUSH2 0x6F JUMPI DUP1 PUSH4 0xDD62ED3E EQ PUSH2 0x706 JUMPI DUP1 PUSH4 0xE00E03F9 EQ PUSH2 0x743 JUMPI DUP1 PUSH4 0xE6D68595 EQ PUSH2 0x75A JUMPI DUP1 PUSH4 0xEF269AE3 EQ PUSH2 0x771 JUMPI DUP1 PUSH4 0xF22449BA EQ PUSH2 0x7AE JUMPI PUSH2 0x204 JUMP JUMPDEST DUP1 PUSH4 0xA9059CBB EQ PUSH2 0x670 JUMPI DUP1 PUSH4 0xAF60D560 EQ PUSH2 0x6AD JUMPI DUP1 PUSH4 0xBAFC462D EQ PUSH2 0x6C4 JUMPI DUP1 PUSH4 0xBF50556D EQ PUSH2 0x6DB JUMPI PUSH2 0x204 JUMP JUMPDEST DUP1 PUSH4 0x95D89B41 GT PUSH2 0xE7 JUMPI DUP1 PUSH4 0x95D89B41 EQ PUSH2 0x562 JUMPI DUP1 PUSH4 0xA1669B32 EQ PUSH2 0x58D JUMPI DUP1 PUSH4 0xA3EC138D EQ PUSH2 0x5B6 JUMPI DUP1 PUSH4 0xA457C2D7 EQ PUSH2 0x5F6 JUMPI DUP1 PUSH4 0xA5E898E1 EQ PUSH2 0x633 JUMPI PUSH2 0x204 JUMP JUMPDEST DUP1 PUSH4 0x863451DD EQ PUSH2 0x4C7 JUMPI DUP1 PUSH4 0x86E68B90 EQ PUSH2 0x4D1 JUMPI DUP1 PUSH4 0x875B5076 EQ PUSH2 0x50E JUMPI DUP1 PUSH4 0x8FBE3750 EQ PUSH2 0x54B JUMPI PUSH2 0x204 JUMP JUMPDEST DUP1 PUSH4 0x313CE567 GT PUSH2 0x19B JUMPI DUP1 PUSH4 0x5D801B37 GT PUSH2 0x16A JUMPI DUP1 PUSH4 0x5D801B37 EQ PUSH2 0x41A JUMPI DUP1 PUSH4 0x67C897FE EQ PUSH2 0x445 JUMPI DUP1 PUSH4 0x70A08231 EQ PUSH2 0x45C JUMPI DUP1 PUSH4 0x70E1133C EQ PUSH2 0x499 JUMPI DUP1 PUSH4 0x72A4E9BA EQ PUSH2 0x4B0 JUMPI PUSH2 0x204 JUMP JUMPDEST DUP1 PUSH4 0x313CE567 EQ PUSH2 0x372 JUMPI DUP1 PUSH4 0x35655237 EQ PUSH2 0x39D JUMPI DUP1 PUSH4 0x39509351 EQ PUSH2 0x3B4 JUMPI DUP1 PUSH4 0x39C94D2D EQ PUSH2 0x3F1 JUMPI PUSH2 0x204 JUMP JUMPDEST DUP1 PUSH4 0x164DFD3B GT PUSH2 0x1D7 JUMPI DUP1 PUSH4 0x164DFD3B EQ PUSH2 0x2C8 JUMPI DUP1 PUSH4 0x18160DDD EQ PUSH2 0x2DF JUMPI DUP1 PUSH4 0x23B872DD EQ PUSH2 0x30A JUMPI DUP1 PUSH4 0x23FD498B EQ PUSH2 0x347 JUMPI PUSH2 0x204 JUMP JUMPDEST DUP1 PUSH4 0x13CF08B EQ PUSH2 0x209 JUMPI DUP1 PUSH4 0x33CB2D3 EQ PUSH2 0x249 JUMPI DUP1 PUSH4 0x6FDDE03 EQ PUSH2 0x260 JUMPI DUP1 PUSH4 0x95EA7B3 EQ PUSH2 0x28B JUMPI JUMPDEST PUSH1 0x0 DUP1 REVERT JUMPDEST CALLVALUE DUP1 ISZERO PUSH2 0x215 JUMPI PUSH1 0x0 DUP1 REVERT JUMPDEST POP PUSH2 0x230 PUSH1 0x4 DUP1 CALLDATASIZE SUB DUP2 ADD SWAP1 PUSH2 0x22B SWAP2 SWAP1 PUSH2 0x1A1D JUMP JUMPDEST PUSH2 0x7D7 JUMP JUMPDEST PUSH1 0x40 MLOAD PUSH2 0x240 SWAP5 SWAP4 SWAP3 SWAP2 SWAP1 PUSH2 0x1CD3 JUMP JUMPDEST PUSH1 0x40 MLOAD DUP1 SWAP2 SUB SWAP1 RETURN JUMPDEST CALLVALUE DUP1 ISZERO PUSH2 0x255 JUMPI PUSH1 0x0 DUP1 REVERT JUMPDEST POP PUSH2 0x25E PUSH2 0x8B9 JUMP JUMPDEST STOP JUMPDEST CALLVALUE DUP1 ISZERO PUSH2 0x26C JUMPI PUSH1 0x0 DUP1 REVERT JUMPDEST POP PUSH2 0x275 PUSH2 0x8BB JUMP JUMPDEST PUSH1 0x40 MLOAD PUSH2 0x282 SWAP2 SWAP1 PUSH2 0x1D1F JUMP JUMPDEST PUSH1 0x40 MLOAD DUP1 SWAP2 SUB SWAP1 RETURN JUMPDEST CALLVALUE DUP1 ISZERO PUSH2 0x297 JUMPI PUSH1 0x0 DUP1 REVERT JUMPDEST POP PUSH2 0x2B2 PUSH1 0x4 DUP1 CALLDATASIZE SUB DUP2 ADD SWAP1 PUSH2 0x2AD SWAP2 SWAP1 PUSH2 0x189F JUMP JUMPDEST PUSH2 0x94D JUMP JUMPDEST PUSH1 0x40 MLOAD PUSH2 0x2BF SWAP2 SWAP1 PUSH2 0x1C9D JUMP JUMPDEST PUSH1 0x40 MLOAD DUP1 SWAP2 SUB SWAP1 RETURN JUMPDEST CALLVALUE DUP1 ISZERO PUSH2 0x2D4 JUMPI PUSH1 0x0 DUP1 REVERT JUMPDEST POP PUSH2 0x2DD PUSH2 0x970 JUMP JUMPDEST STOP JUMPDEST CALLVALUE DUP1 ISZERO PUSH2 0x2EB JUMPI PUSH1 0x0 DUP1 REVERT JUMPDEST POP PUSH2 0x2F4 PUSH2 0x972 JUMP JUMPDEST PUSH1 0x40 MLOAD PUSH2 0x301 SWAP2 SWAP1 PUSH2 0x1E61 JUMP JUMPDEST PUSH1 0x40 MLOAD DUP1 SWAP2 SUB SWAP1 RETURN JUMPDEST CALLVALUE DUP1 ISZERO PUSH2 0x316 JUMPI PUSH1 0x0 DUP1 REVERT JUMPDEST POP PUSH2 0x331 PUSH1 0x4 DUP1 CALLDATASIZE SUB DUP2 ADD SWAP1 PUSH2 0x32C SWAP2 SWAP1 PUSH2 0x184C JUMP JUMPDEST PUSH2 0x97C JUMP JUMPDEST PUSH1 0x40 MLOAD PUSH2 0x33E SWAP2 SWAP1 PUSH2 0x1C9D JUMP JUMPDEST PUSH1 0x40 MLOAD DUP1 SWAP2 SUB SWAP1 RETURN JUMPDEST CALLVALUE DUP1 ISZERO PUSH2 0x353 JUMPI PUSH1 0x0 DUP1 REVERT JUMPDEST POP PUSH2 0x35C PUSH2 0x9AB JUMP JUMPDEST PUSH1 0x40 MLOAD PUSH2 0x369 SWAP2 SWAP1 PUSH2 0x1E61 JUMP JUMPDEST PUSH1 0x40 MLOAD DUP1 SWAP2 SUB SWAP1 RETURN JUMPDEST CALLVALUE DUP1 ISZERO PUSH2 0x37E JUMPI PUSH1 0x0 DUP1 REVERT JUMPDEST POP PUSH2 0x387 PUSH2 0x9B8 JUMP JUMPDEST PUSH1 0x40 MLOAD PUSH2 0x394 SWAP2 SWAP1 PUSH2 0x1EC1 JUMP JUMPDEST PUSH1 0x40 MLOAD DUP1 SWAP2 SUB SWAP1 RETURN JUMPDEST CALLVALUE DUP1 ISZERO PUSH2 0x3A9 JUMPI PUSH1 0x0 DUP1 REVERT JUMPDEST POP PUSH2 0x3B2 PUSH2 0x9C1 JUMP JUMPDEST STOP JUMPDEST CALLVALUE DUP1 ISZERO PUSH2 0x3C0 JUMPI PUSH1 0x0 DUP1 REVERT JUMPDEST POP PUSH2 0x3DB PUSH1 0x4 DUP1 CALLDATASIZE SUB DUP2 ADD SWAP1 PUSH2 0x3D6 SWAP2 SWAP1 PUSH2 0x189F JUMP JUMPDEST PUSH2 0x9C3 JUMP JUMPDEST PUSH1 0x40 MLOAD PUSH2 0x3E8 SWAP2 SWAP1 PUSH2 0x1C9D JUMP JUMPDEST PUSH1 0x40 MLOAD DUP1 SWAP2 SUB SWAP1 RETURN JUMPDEST CALLVALUE DUP1 ISZERO PUSH2 0x3FD JUMPI PUSH1 0x0 DUP1 REVERT JUMPDEST POP PUSH2 0x418 PUSH1 0x4 DUP1 CALLDATASIZE SUB DUP2 ADD SWAP1 PUSH2 0x413 SWAP2 SWAP1 PUSH2 0x1A1D JUMP JUMPDEST PUSH2 0x9FA JUMP JUMPDEST STOP JUMPDEST CALLVALUE DUP1 ISZERO PUSH2 0x426 JUMPI PUSH1 0x0 DUP1 REVERT JUMPDEST POP PUSH2 0x42F PUSH2 0xA2A JUMP JUMPDEST PUSH1 0x40 MLOAD PUSH2 0x43C SWAP2 SWAP1 PUSH2 0x1E61 JUMP JUMPDEST PUSH1 0x40 MLOAD DUP1 SWAP2 SUB SWAP1 RETURN JUMPDEST CALLVALUE DUP1 ISZERO PUSH2 0x451 JUMPI PUSH1 0x0 DUP1 REVERT JUMPDEST POP PUSH2 0x45A PUSH2 0xA37 JUMP JUMPDEST STOP JUMPDEST CALLVALUE DUP1 ISZERO PUSH2 0x468 JUMPI PUSH1 0x0 DUP1 REVERT JUMPDEST POP PUSH2 0x483 PUSH1 0x4 DUP1 CALLDATASIZE SUB DUP2 ADD SWAP1 PUSH2 0x47E SWAP2 SWAP1 PUSH2 0x17DF JUMP JUMPDEST PUSH2 0xA39 JUMP JUMPDEST PUSH1 0x40 MLOAD PUSH2 0x490 SWAP2 SWAP1 PUSH2 0x1E61 JUMP JUMPDEST PUSH1 0x40 MLOAD DUP1 SWAP2 SUB SWAP1 RETURN JUMPDEST CALLVALUE DUP1 ISZERO PUSH2 0x4A5 JUMPI PUSH1 0x0 DUP1 REVERT JUMPDEST POP PUSH2 0x4AE PUSH2 0xA81 JUMP JUMPDEST STOP JUMPDEST CALLVALUE DUP1 ISZERO PUSH2 0x4BC JUMPI PUSH1 0x0 DUP1 REVERT JUMPDEST POP PUSH2 0x4C5 PUSH2 0xA83 JUMP JUMPDEST STOP JUMPDEST PUSH2 0x4CF PUSH2 0xA85 JUMP JUMPDEST STOP JUMPDEST CALLVALUE DUP1 ISZERO PUSH2 0x4DD JUMPI PUSH1 0x0 DUP1 REVERT JUMPDEST POP PUSH2 0x4F8 PUSH1 0x4 DUP1 CALLDATASIZE SUB DUP2 ADD SWAP1 PUSH2 0x4F3 SWAP2 SWAP1 PUSH2 0x1A1D JUMP JUMPDEST PUSH2 0xAF1 JUMP JUMPDEST PUSH1 0x40 MLOAD PUSH2 0x505 SWAP2 SWAP1 PUSH2 0x1CB8 JUMP JUMPDEST PUSH1 0x40 MLOAD DUP1 SWAP2 SUB SWAP1 RETURN JUMPDEST CALLVALUE DUP1 ISZERO PUSH2 0x51A JUMPI PUSH1 0x0 DUP1 REVERT JUMPDEST POP PUSH2 0x535 PUSH1 0x4 DUP1 CALLDATASIZE SUB DUP2 ADD SWAP1 PUSH2 0x530 SWAP2 SWAP1 PUSH2 0x1A1D JUMP JUMPDEST PUSH2 0xB1F JUMP JUMPDEST PUSH1 0x40 MLOAD PUSH2 0x542 SWAP2 SWAP1 PUSH2 0x1C82 JUMP JUMPDEST PUSH1 0x40 MLOAD DUP1 SWAP2 SUB SWAP1 RETURN JUMPDEST CALLVALUE DUP1 ISZERO PUSH2 0x557 JUMPI PUSH1 0x0 DUP1 REVERT JUMPDEST POP PUSH2 0x560 PUSH2 0xB26 JUMP JUMPDEST STOP JUMPDEST CALLVALUE DUP1 ISZERO PUSH2 0x56E JUMPI PUSH1 0x0 DUP1 REVERT JUMPDEST POP PUSH2 0x577 PUSH2 0xB28 JUMP JUMPDEST PUSH1 0x40 MLOAD PUSH2 0x584 SWAP2 SWAP1 PUSH2 0x1D1F JUMP JUMPDEST PUSH1 0x40 MLOAD DUP1 SWAP2 SUB SWAP1 RETURN JUMPDEST CALLVALUE DUP1 ISZERO PUSH2 0x599 JUMPI PUSH1 0x0 DUP1 REVERT JUMPDEST POP PUSH2 0x5B4 PUSH1 0x4 DUP1 CALLDATASIZE SUB DUP2 ADD SWAP1 PUSH2 0x5AF SWAP2 SWAP1 PUSH2 0x189F JUMP JUMPDEST PUSH2 0xBBA JUMP JUMPDEST STOP JUMPDEST CALLVALUE DUP1 ISZERO PUSH2 0x5C2 JUMPI PUSH1 0x0 DUP1 REVERT JUMPDEST POP PUSH2 0x5DD PUSH1 0x4 DUP1 CALLDATASIZE SUB DUP2 ADD SWAP1 PUSH2 0x5D8 SWAP2 SWAP1 PUSH2 0x17DF JUMP JUMPDEST PUSH2 0xD86 JUMP JUMPDEST PUSH1 0x40 MLOAD PUSH2 0x5ED SWAP5 SWAP4 SWAP3 SWAP2 SWAP1 PUSH2 0x1E7C JUMP JUMPDEST PUSH1 0x40 MLOAD DUP1 SWAP2 SUB SWAP1 RETURN JUMPDEST CALLVALUE DUP1 ISZERO PUSH2 0x602 JUMPI PUSH1 0x0 DUP1 REVERT JUMPDEST POP PUSH2 0x61D PUSH1 0x4 DUP1 CALLDATASIZE SUB DUP2 ADD SWAP1 PUSH2 0x618 SWAP2 SWAP1 PUSH2 0x189F JUMP JUMPDEST PUSH2 0xDE3 JUMP JUMPDEST PUSH1 0x40 MLOAD PUSH2 0x62A SWAP2 SWAP1 PUSH2 0x1C9D JUMP JUMPDEST PUSH1 0x40 MLOAD DUP1 SWAP2 SUB SWAP1 RETURN JUMPDEST CALLVALUE DUP1 ISZERO PUSH2 0x63F JUMPI PUSH1 0x0 DUP1 REVERT JUMPDEST POP PUSH2 0x65A PUSH1 0x4 DUP1 CALLDATASIZE SUB DUP2 ADD SWAP1 PUSH2 0x655 SWAP2 SWAP1 PUSH2 0x18DF JUMP JUMPDEST PUSH2 0xE5A JUMP JUMPDEST PUSH1 0x40 MLOAD PUSH2 0x667 SWAP2 SWAP1 PUSH2 0x1E61 JUMP JUMPDEST PUSH1 0x40 MLOAD DUP1 SWAP2 SUB SWAP1 RETURN JUMPDEST CALLVALUE DUP1 ISZERO PUSH2 0x67C JUMPI PUSH1 0x0 DUP1 REVERT JUMPDEST POP PUSH2 0x697 PUSH1 0x4 DUP1 CALLDATASIZE SUB DUP2 ADD SWAP1 PUSH2 0x692 SWAP2 SWAP1 PUSH2 0x189F JUMP JUMPDEST PUSH2 0xF2B JUMP JUMPDEST PUSH1 0x40 MLOAD PUSH2 0x6A4 SWAP2 SWAP1 PUSH2 0x1C9D JUMP JUMPDEST PUSH1 0x40 MLOAD DUP1 SWAP2 SUB SWAP1 RETURN JUMPDEST CALLVALUE DUP1 ISZERO PUSH2 0x6B9 JUMPI PUSH1 0x0 DUP1 REVERT JUMPDEST POP PUSH2 0x6C2 PUSH2 0xF4E JUMP JUMPDEST STOP JUMPDEST CALLVALUE DUP1 ISZERO PUSH2 0x6D0 JUMPI PUSH1 0x0 DUP1 REVERT JUMPDEST POP PUSH2 0x6D9 PUSH2 0xF50 JUMP JUMPDEST STOP JUMPDEST CALLVALUE DUP1 ISZERO PUSH2 0x6E7 JUMPI PUSH1 0x0 DUP1 REVERT JUMPDEST POP PUSH2 0x6F0 PUSH2 0xF52 JUMP JUMPDEST PUSH1 0x40 MLOAD PUSH2 0x6FD SWAP2 SWAP1 PUSH2 0x1E61 JUMP JUMPDEST PUSH1 0x40 MLOAD DUP1 SWAP2 SUB SWAP1 RETURN JUMPDEST CALLVALUE DUP1 ISZERO PUSH2 0x712 JUMPI PUSH1 0x0 DUP1 REVERT JUMPDEST POP PUSH2 0x72D PUSH1 0x4 DUP1 CALLDATASIZE SUB DUP2 ADD SWAP1 PUSH2 0x728 SWAP2 SWAP1 PUSH2 0x180C JUMP JUMPDEST PUSH2 0xFCB JUMP JUMPDEST PUSH1 0x40 MLOAD PUSH2 0x73A SWAP2 SWAP1 PUSH2 0x1E61 JUMP JUMPDEST PUSH1 0x40 MLOAD DUP1 SWAP2 SUB SWAP1 RETURN JUMPDEST CALLVALUE DUP1 ISZERO PUSH2 0x74F JUMPI PUSH1 0x0 DUP1 REVERT JUMPDEST POP PUSH2 0x758 PUSH2 0x1052 JUMP JUMPDEST STOP JUMPDEST CALLVALUE DUP1 ISZERO PUSH2 0x766 JUMPI PUSH1 0x0 DUP1 REVERT JUMPDEST POP PUSH2 0x76F PUSH2 0x1054 JUMP JUMPDEST STOP JUMPDEST CALLVALUE DUP1 ISZERO PUSH2 0x77D JUMPI PUSH1 0x0 DUP1 REVERT JUMPDEST POP PUSH2 0x798 PUSH1 0x4 DUP1 CALLDATASIZE SUB DUP2 ADD SWAP1 PUSH2 0x793 SWAP2 SWAP1 PUSH2 0x199A JUMP JUMPDEST PUSH2 0x1056 JUMP JUMPDEST PUSH1 0x40 MLOAD PUSH2 0x7A5 SWAP2 SWAP1 PUSH2 0x1E61 JUMP JUMPDEST PUSH1 0x40 MLOAD DUP1 SWAP2 SUB SWAP1 RETURN JUMPDEST CALLVALUE DUP1 ISZERO PUSH2 0x7BA JUMPI PUSH1 0x0 DUP1 REVERT JUMPDEST POP PUSH2 0x7D5 PUSH1 0x4 DUP1 CALLDATASIZE SUB DUP2 ADD SWAP1 PUSH2 0x7D0 SWAP2 SWAP1 PUSH2 0x1A4A JUMP JUMPDEST PUSH2 0x1060 JUMP JUMPDEST STOP JUMPDEST PUSH1 0x7 DUP2 DUP2 SLOAD DUP2 LT PUSH2 0x7E7 JUMPI PUSH1 0x0 DUP1 REVERT JUMPDEST SWAP1 PUSH1 0x0 MSTORE PUSH1 0x20 PUSH1 0x0 KECCAK256 SWAP1 PUSH1 0x3 MUL ADD PUSH1 0x0 SWAP2 POP SWAP1 POP DUP1 PUSH1 0x0 ADD DUP1 SLOAD PUSH2 0x80A SWAP1 PUSH2 0x208D JUMP JUMPDEST DUP1 PUSH1 0x1F ADD PUSH1 0x20 DUP1 SWAP2 DIV MUL PUSH1 0x20 ADD PUSH1 0x40 MLOAD SWAP1 DUP2 ADD PUSH1 0x40 MSTORE DUP1 SWAP3 SWAP2 SWAP1 DUP2 DUP2 MSTORE PUSH1 0x20 ADD DUP3 DUP1 SLOAD PUSH2 0x836 SWAP1 PUSH2 0x208D JUMP JUMPDEST DUP1 ISZERO PUSH2 0x883 JUMPI DUP1 PUSH1 0x1F LT PUSH2 0x858 JUMPI PUSH2 0x100 DUP1 DUP4 SLOAD DIV MUL DUP4 MSTORE SWAP2 PUSH1 0x20 ADD SWAP2 PUSH2 0x883 JUMP JUMPDEST DUP3 ADD SWAP2 SWAP1 PUSH1 0x0 MSTORE PUSH1 0x20 PUSH1 0x0 KECCAK256 SWAP1 JUMPDEST DUP2 SLOAD DUP2 MSTORE SWAP1 PUSH1 0x1 ADD SWAP1 PUSH1 0x20 ADD DUP1 DUP4 GT PUSH2 0x866 JUMPI DUP3 SWAP1 SUB PUSH1 0x1F AND DUP3 ADD SWAP2 JUMPDEST POP POP POP POP POP SWAP1 DUP1 PUSH1 0x1 ADD SLOAD SWAP1 DUP1 PUSH1 0x2 ADD PUSH1 0x0 SWAP1 SLOAD SWAP1 PUSH2 0x100 EXP SWAP1 DIV PUSH1 0xFF AND SWAP1 DUP1 PUSH1 0x2 ADD PUSH1 0x1 SWAP1 SLOAD SWAP1 PUSH2 0x100 EXP SWAP1 DIV PUSH1 0xFF AND SWAP1 POP DUP5 JUMP JUMPDEST JUMP JUMPDEST PUSH1 0x60 PUSH1 0x3 DUP1 SLOAD PUSH2 0x8CA SWAP1 PUSH2 0x208D JUMP JUMPDEST DUP1 PUSH1 0x1F ADD PUSH1 0x20 DUP1 SWAP2 DIV MUL PUSH1 0x20 ADD PUSH1 0x40 MLOAD SWAP1 DUP2 ADD PUSH1 0x40 MSTORE DUP1 SWAP3 SWAP2 SWAP1 DUP2 DUP2 MSTORE PUSH1 0x20 ADD DUP3 DUP1 SLOAD PUSH2 0x8F6 SWAP1 PUSH2 0x208D JUMP JUMPDEST DUP1 ISZERO PUSH2 0x943 JUMPI DUP1 PUSH1 0x1F LT PUSH2 0x918 JUMPI PUSH2 0x100 DUP1 DUP4 SLOAD DIV MUL DUP4 MSTORE SWAP2 PUSH1 0x20 ADD SWAP2 PUSH2 0x943 JUMP JUMPDEST DUP3 ADD SWAP2 SWAP1 PUSH1 0x0 MSTORE PUSH1 0x20 PUSH1 0x0 KECCAK256 SWAP1 JUMPDEST DUP2 SLOAD DUP2 MSTORE SWAP1 PUSH1 0x1 ADD SWAP1 PUSH1 0x20 ADD DUP1 DUP4 GT PUSH2 0x926 JUMPI DUP3 SWAP1 SUB PUSH1 0x1F AND DUP3 ADD SWAP2 JUMPDEST POP POP POP POP POP SWAP1 POP SWAP1 JUMP JUMPDEST PUSH1 0x0 DUP1 PUSH2 0x958 PUSH2 0x110E JUMP JUMPDEST SWAP1 POP PUSH2 0x965 DUP2 DUP6 DUP6 PUSH2 0x1116 JUMP JUMPDEST PUSH1 0x1 SWAP2 POP POP SWAP3 SWAP2 POP POP JUMP JUMPDEST JUMP JUMPDEST PUSH1 0x0 PUSH1 0x2 SLOAD SWAP1 POP SWAP1 JUMP JUMPDEST PUSH1 0x0 DUP1 PUSH2 0x987 PUSH2 0x110E JUMP JUMPDEST SWAP1 POP PUSH2 0x994 DUP6 DUP3 DUP6 PUSH2 0x12E1 JUMP JUMPDEST PUSH2 0x99F DUP6 DUP6 DUP6 PUSH2 0x136D JUMP JUMPDEST PUSH1 0x1 SWAP2 POP POP SWAP4 SWAP3 POP POP POP JUMP JUMPDEST PUSH1 0x0 PUSH1 0x7 DUP1 SLOAD SWAP1 POP SWAP1 POP SWAP1 JUMP JUMPDEST PUSH1 0x0 PUSH1 0x12 SWAP1 POP SWAP1 JUMP JUMPDEST JUMP JUMPDEST PUSH1 0x0 DUP1 PUSH2 0x9CE PUSH2 0x110E JUMP JUMPDEST SWAP1 POP PUSH2 0x9EF DUP2 DUP6 DUP6 PUSH2 0x9E0 DUP6 DUP10 PUSH2 0xFCB JUMP JUMPDEST PUSH2 0x9EA SWAP2 SWAP1 PUSH2 0x1F96 JUMP JUMPDEST PUSH2 0x1116 JUMP JUMPDEST PUSH1 0x1 SWAP2 POP POP SWAP3 SWAP2 POP POP JUMP JUMPDEST PUSH2 0xA26 PUSH1 0x5 PUSH1 0x0 SWAP1 SLOAD SWAP1 PUSH2 0x100 EXP SWAP1 DIV PUSH20 0xFFFFFFFFFFFFFFFFFFFFFFFFFFFFFFFFFFFFFFFF AND DUP3 PUSH2 0xF2B JUMP JUMPDEST POP POP JUMP JUMPDEST PUSH1 0x0 PUSH1 0x8 DUP1 SLOAD SWAP1 POP SWAP1 POP SWAP1 JUMP JUMPDEST JUMP JUMPDEST PUSH1 0x0 DUP1 PUSH1 0x0 DUP4 PUSH20 0xFFFFFFFFFFFFFFFFFFFFFFFFFFFFFFFFFFFFFFFF AND PUSH20 0xFFFFFFFFFFFFFFFFFFFFFFFFFFFFFFFFFFFFFFFF AND DUP2 MSTORE PUSH1 0x20 ADD SWAP1 DUP2 MSTORE PUSH1 0x20 ADD PUSH1 0x0 KECCAK256 SLOAD SWAP1 POP SWAP2 SWAP1 POP JUMP JUMPDEST JUMP JUMPDEST JUMP JUMPDEST PUSH1 0x5 PUSH1 0x0 SWAP1 SLOAD SWAP1 PUSH2 0x100 EXP SWAP1 DIV PUSH20 0xFFFFFFFFFFFFFFFFFFFFFFFFFFFFFFFFFFFFFFFF AND PUSH20 0xFFFFFFFFFFFFFFFFFFFFFFFFFFFFFFFFFFFFFFFF AND PUSH2 0x8FC PUSH1 0x7B SWAP1 DUP2 ISZERO MUL SWAP1 PUSH1 0x40 MLOAD PUSH1 0x0 PUSH1 0x40 MLOAD DUP1 DUP4 SUB DUP2 DUP6 DUP9 DUP9 CALL SWAP4 POP POP POP POP ISZERO DUP1 ISZERO PUSH2 0xAEE JUMPI RETURNDATASIZE PUSH1 0x0 DUP1 RETURNDATACOPY RETURNDATASIZE PUSH1 0x0 REVERT JUMPDEST POP JUMP JUMPDEST PUSH1 0x8 DUP2 DUP2 SLOAD DUP2 LT PUSH2 0xB01 JUMPI PUSH1 0x0 DUP1 REVERT JUMPDEST SWAP1 PUSH1 0x0 MSTORE PUSH1 0x20 PUSH1 0x0 KECCAK256 SWAP1 PUSH1 0x3 MUL ADD PUSH1 0x0 SWAP2 POP SWAP1 POP DUP1 PUSH1 0x0 ADD SLOAD SWAP1 POP DUP2 JUMP JUMPDEST PUSH1 0x0 SWAP2 SWAP1 POP JUMP JUMPDEST JUMP JUMPDEST PUSH1 0x60 PUSH1 0x4 DUP1 SLOAD PUSH2 0xB37 SWAP1 PUSH2 0x208D JUMP JUMPDEST DUP1 PUSH1 0x1F ADD PUSH1 0x20 DUP1 SWAP2 DIV MUL PUSH1 0x20 ADD PUSH1 0x40 MLOAD SWAP1 DUP2 ADD PUSH1 0x40 MSTORE DUP1 SWAP3 SWAP2 SWAP1 DUP2 DUP2 MSTORE PUSH1 0x20 ADD DUP3 DUP1 SLOAD PUSH2 0xB63 SWAP1 PUSH2 0x208D JUMP JUMPDEST DUP1 ISZERO PUSH2 0xBB0 JUMPI DUP1 PUSH1 0x1F LT PUSH2 0xB85 JUMPI PUSH2 0x100 DUP1 DUP4 SLOAD DIV MUL DUP4 MSTORE SWAP2 PUSH1 0x20 ADD SWAP2 PUSH2 0xBB0 JUMP JUMPDEST DUP3 ADD SWAP2 SWAP1 PUSH1 0x0 MSTORE PUSH1 0x20 PUSH1 0x0 KECCAK256 SWAP1 JUMPDEST DUP2 SLOAD DUP2 MSTORE SWAP1 PUSH1 0x1 ADD SWAP1 PUSH1 0x20 ADD DUP1 DUP4 GT PUSH2 0xB93 JUMPI DUP3 SWAP1 SUB PUSH1 0x1F AND DUP3 ADD SWAP2 JUMPDEST POP POP POP POP POP SWAP1 POP SWAP1 JUMP JUMPDEST PUSH1 0x0 PUSH1 0x6 PUSH1 0x0 CALLER PUSH20 0xFFFFFFFFFFFFFFFFFFFFFFFFFFFFFFFFFFFFFFFF AND PUSH20 0xFFFFFFFFFFFFFFFFFFFFFFFFFFFFFFFFFFFFFFFF AND DUP2 MSTORE PUSH1 0x20 ADD SWAP1 DUP2 MSTORE PUSH1 0x20 ADD PUSH1 0x0 KECCAK256 SWAP1 POP DUP1 PUSH1 0x1 ADD PUSH1 0x0 SWAP1 SLOAD SWAP1 PUSH2 0x100 EXP SWAP1 DIV PUSH1 0xFF AND ISZERO PUSH2 0xC4F JUMPI PUSH1 0x40 MLOAD PUSH32 0x8C379A000000000000000000000000000000000000000000000000000000000 DUP2 MSTORE PUSH1 0x4 ADD PUSH2 0xC46 SWAP1 PUSH2 0x1E01 JUMP JUMPDEST PUSH1 0x40 MLOAD DUP1 SWAP2 SUB SWAP1 REVERT JUMPDEST CALLER PUSH20 0xFFFFFFFFFFFFFFFFFFFFFFFFFFFFFFFFFFFFFFFF AND DUP4 PUSH20 0xFFFFFFFFFFFFFFFFFFFFFFFFFFFFFFFFFFFFFFFF AND EQ ISZERO PUSH2 0xCBE JUMPI PUSH1 0x40 MLOAD PUSH32 0x8C379A000000000000000000000000000000000000000000000000000000000 DUP2 MSTORE PUSH1 0x4 ADD PUSH2 0xCB5 SWAP1 PUSH2 0x1D61 JUMP JUMPDEST PUSH1 0x40 MLOAD DUP1 SWAP2 SUB SWAP1 REVERT JUMPDEST PUSH1 0x1 DUP2 PUSH1 0x1 ADD PUSH1 0x0 PUSH2 0x100 EXP DUP2 SLOAD DUP2 PUSH1 0xFF MUL NOT AND SWAP1 DUP4 ISZERO ISZERO MUL OR SWAP1 SSTORE POP DUP3 DUP2 PUSH1 0x1 ADD PUSH1 0x1 PUSH2 0x100 EXP DUP2 SLOAD DUP2 PUSH20 0xFFFFFFFFFFFFFFFFFFFFFFFFFFFFFFFFFFFFFFFF MUL NOT AND SWAP1 DUP4 PUSH20 0xFFFFFFFFFFFFFFFFFFFFFFFFFFFFFFFFFFFFFFFF AND MUL OR SWAP1 SSTORE POP PUSH1 0x0 PUSH1 0x6 PUSH1 0x0 DUP6 PUSH20 0xFFFFFFFFFFFFFFFFFFFFFFFFFFFFFFFFFFFFFFFF AND PUSH20 0xFFFFFFFFFFFFFFFFFFFFFFFFFFFFFFFFFFFFFFFF AND DUP2 MSTORE PUSH1 0x20 ADD SWAP1 DUP2 MSTORE PUSH1 0x20 ADD PUSH1 0x0 KECCAK256 SWAP1 POP DUP2 PUSH1 0x0 ADD SLOAD DUP2 PUSH1 0x0 ADD PUSH1 0x0 DUP3 DUP3 SLOAD PUSH2 0xD79 SWAP2 SWAP1 PUSH2 0x1F96 JUMP JUMPDEST SWAP3 POP POP DUP2 SWAP1 SSTORE POP POP POP POP POP JUMP JUMPDEST PUSH1 0x6 PUSH1 0x20 MSTORE DUP1 PUSH1 0x0 MSTORE PUSH1 0x40 PUSH1 0x0 KECCAK256 PUSH1 0x0 SWAP2 POP SWAP1 POP DUP1 PUSH1 0x0 ADD SLOAD SWAP1 DUP1 PUSH1 0x1 ADD PUSH1 0x0 SWAP1 SLOAD SWAP1 PUSH2 0x100 EXP SWAP1 DIV PUSH1 0xFF AND SWAP1 DUP1 PUSH1 0x1 ADD PUSH1 0x1 SWAP1 SLOAD SWAP1 PUSH2 0x100 EXP SWAP1 DIV PUSH20 0xFFFFFFFFFFFFFFFFFFFFFFFFFFFFFFFFFFFFFFFF AND SWAP1 DUP1 PUSH1 0x2 ADD SLOAD SWAP1 POP DUP5 JUMP JUMPDEST PUSH1 0x0 DUP1 PUSH2 0xDEE PUSH2 0x110E JUMP JUMPDEST SWAP1 POP PUSH1 0x0 PUSH2 0xDFC DUP3 DUP7 PUSH2 0xFCB JUMP JUMPDEST SWAP1 POP DUP4 DUP2 LT ISZERO PUSH2 0xE41 JUMPI PUSH1 0x40 MLOAD PUSH32 0x8C379A000000000000000000000000000000000000000000000000000000000 DUP2 MSTORE PUSH1 0x4 ADD PUSH2 0xE38 SWAP1 PUSH2 0x1E41 JUMP JUMPDEST PUSH1 0x40 MLOAD DUP1 SWAP2 SUB SWAP1 REVERT JUMPDEST PUSH2 0xE4E DUP3 DUP7 DUP7 DUP5 SUB PUSH2 0x1116 JUMP JUMPDEST PUSH1 0x1 SWAP3 POP POP POP SWAP3 SWAP2 POP POP JUMP JUMPDEST PUSH1 0x0 DUP1 DUP6 SWAP1 POP PUSH1 0x0 PUSH1 0x40 MLOAD DUP1 PUSH1 0x80 ADD PUSH1 0x40 MSTORE DUP1 DUP4 DUP2 MSTORE PUSH1 0x20 ADD PUSH1 0x0 DUP2 MSTORE PUSH1 0x20 ADD PUSH1 0x0 ISZERO ISZERO DUP2 MSTORE PUSH1 0x20 ADD PUSH1 0x0 ISZERO ISZERO DUP2 MSTORE POP SWAP1 POP PUSH1 0x7 DUP2 SWAP1 DUP1 PUSH1 0x1 DUP2 SLOAD ADD DUP1 DUP3 SSTORE DUP1 SWAP2 POP POP PUSH1 0x1 SWAP1 SUB SWAP1 PUSH1 0x0 MSTORE PUSH1 0x20 PUSH1 0x0 KECCAK256 SWAP1 PUSH1 0x3 MUL ADD PUSH1 0x0 SWAP1 SWAP2 SWAP1 SWAP2 SWAP1 SWAP2 POP PUSH1 0x0 DUP3 ADD MLOAD DUP2 PUSH1 0x0 ADD SWAP1 DUP1 MLOAD SWAP1 PUSH1 0x20 ADD SWAP1 PUSH2 0xED4 SWAP3 SWAP2 SWAP1 PUSH2 0x15EF JUMP JUMPDEST POP PUSH1 0x20 DUP3 ADD MLOAD DUP2 PUSH1 0x1 ADD SSTORE PUSH1 0x40 DUP3 ADD MLOAD DUP2 PUSH1 0x2 ADD PUSH1 0x0 PUSH2 0x100 EXP DUP2 SLOAD DUP2 PUSH1 0xFF MUL NOT AND SWAP1 DUP4 ISZERO ISZERO MUL OR SWAP1 SSTORE POP PUSH1 0x60 DUP3 ADD MLOAD DUP2 PUSH1 0x2 ADD PUSH1 0x1 PUSH2 0x100 EXP DUP2 SLOAD DUP2 PUSH1 0xFF MUL NOT AND SWAP1 DUP4 ISZERO ISZERO MUL OR SWAP1 SSTORE POP POP POP POP POP SWAP5 SWAP4 POP POP POP POP JUMP JUMPDEST PUSH1 0x0 DUP1 PUSH2 0xF36 PUSH2 0x110E JUMP JUMPDEST SWAP1 POP PUSH2 0xF43 DUP2 DUP6 DUP6 PUSH2 0x136D JUMP JUMPDEST PUSH1 0x1 SWAP2 POP POP SWAP3 SWAP2 POP POP JUMP JUMPDEST JUMP JUMPDEST JUMP JUMPDEST PUSH1 0x0 DUP1 PUSH1 0x0 SWAP1 POP PUSH1 0x0 JUMPDEST PUSH1 0x7 DUP1 SLOAD SWAP1 POP DUP2 LT ISZERO PUSH2 0xFC3 JUMPI PUSH1 0x7 DUP2 DUP2 SLOAD DUP2 LT PUSH2 0xF7D JUMPI PUSH2 0xF7C PUSH2 0x2197 JUMP JUMPDEST JUMPDEST SWAP1 PUSH1 0x0 MSTORE PUSH1 0x20 PUSH1 0x0 KECCAK256 SWAP1 PUSH1 0x3 MUL ADD PUSH1 0x2 ADD PUSH1 0x1 SWAP1 SLOAD SWAP1 PUSH2 0x100 EXP SWAP1 DIV PUSH1 0xFF AND ISZERO PUSH2 0xFB0 JUMPI DUP2 DUP1 PUSH2 0xFAC SWAP1 PUSH2 0x20F0 JUMP JUMPDEST SWAP3 POP POP JUMPDEST DUP1 DUP1 PUSH2 0xFBB SWAP1 PUSH2 0x20F0 JUMP JUMPDEST SWAP2 POP POP PUSH2 0xF5C JUMP JUMPDEST POP DUP1 SWAP2 POP POP SWAP1 JUMP JUMPDEST PUSH1 0x0 PUSH1 0x1 PUSH1 0x0 DUP5 PUSH20 0xFFFFFFFFFFFFFFFFFFFFFFFFFFFFFFFFFFFFFFFF AND PUSH20 0xFFFFFFFFFFFFFFFFFFFFFFFFFFFFFFFFFFFFFFFF AND DUP2 MSTORE PUSH1 0x20 ADD SWAP1 DUP2 MSTORE PUSH1 0x20 ADD PUSH1 0x0 KECCAK256 PUSH1 0x0 DUP4 PUSH20 0xFFFFFFFFFFFFFFFFFFFFFFFFFFFFFFFFFFFFFFFF AND PUSH20 0xFFFFFFFFFFFFFFFFFFFFFFFFFFFFFFFFFFFFFFFF AND DUP2 MSTORE PUSH1 0x20 ADD SWAP1 DUP2 MSTORE PUSH1 0x20 ADD PUSH1 0x0 KECCAK256 SLOAD SWAP1 POP SWAP3 SWAP2 POP POP JUMP JUMPDEST JUMP JUMPDEST JUMP JUMPDEST PUSH1 0x0 SWAP5 SWAP4 POP POP POP POP JUMP JUMPDEST PUSH1 0x0 PUSH1 0x6 PUSH1 0x0 CALLER PUSH20 0xFFFFFFFFFFFFFFFFFFFFFFFFFFFFFFFFFFFFFFFF AND PUSH20 0xFFFFFFFFFFFFFFFFFFFFFFFFFFFFFFFFFFFFFFFF AND DUP2 MSTORE PUSH1 0x20 ADD SWAP1 DUP2 MSTORE PUSH1 0x20 ADD PUSH1 0x0 KECCAK256 SWAP1 POP PUSH1 0x1 DUP2 PUSH1 0x1 ADD PUSH1 0x0 PUSH2 0x100 EXP DUP2 SLOAD DUP2 PUSH1 0xFF MUL NOT AND SWAP1 DUP4 ISZERO ISZERO MUL OR SWAP1 SSTORE POP DUP3 DUP2 PUSH1 0x2 ADD DUP2 SWAP1 SSTORE POP DUP1 PUSH1 0x0 ADD SLOAD PUSH1 0x7 DUP5 DUP2 SLOAD DUP2 LT PUSH2 0x10E2 JUMPI PUSH2 0x10E1 PUSH2 0x2197 JUMP JUMPDEST JUMPDEST SWAP1 PUSH1 0x0 MSTORE PUSH1 0x20 PUSH1 0x0 KECCAK256 SWAP1 PUSH1 0x3 MUL ADD PUSH1 0x1 ADD PUSH1 0x0 DUP3 DUP3 SLOAD PUSH2 0x1102 SWAP2 SWAP1 PUSH2 0x1F96 JUMP JUMPDEST SWAP3 POP POP DUP2 SWAP1 SSTORE POP POP POP POP JUMP JUMPDEST PUSH1 0x0 CALLER SWAP1 POP SWAP1 JUMP JUMPDEST PUSH1 0x0 PUSH20 0xFFFFFFFFFFFFFFFFFFFFFFFFFFFFFFFFFFFFFFFF AND DUP4 PUSH20 0xFFFFFFFFFFFFFFFFFFFFFFFFFFFFFFFFFFFFFFFF AND EQ ISZERO PUSH2 0x1186 JUMPI PUSH1 0x40 MLOAD PUSH32 0x8C379A000000000000000000000000000000000000000000000000000000000 DUP2 MSTORE PUSH1 0x4 ADD PUSH2 0x117D SWAP1 PUSH2 0x1E21 JUMP JUMPDEST PUSH1 0x40 MLOAD DUP1 SWAP2 SUB SWAP1 REVERT JUMPDEST PUSH1 0x0 PUSH20 0xFFFFFFFFFFFFFFFFFFFFFFFFFFFFFFFFFFFFFFFF AND DUP3 PUSH20 0xFFFFFFFFFFFFFFFFFFFFFFFFFFFFFFFFFFFFFFFF AND EQ ISZERO PUSH2 0x11F6 JUMPI PUSH1 0x40 MLOAD PUSH32 0x8C379A000000000000000000000000000000000000000000000000000000000 DUP2 MSTORE PUSH1 0x4 ADD PUSH2 0x11ED SWAP1 PUSH2 0x1D81 JUMP JUMPDEST PUSH1 0x40 MLOAD DUP1 SWAP2 SUB SWAP1 REVERT JUMPDEST DUP1 PUSH1 0x1 PUSH1 0x0 DUP6 PUSH20 0xFFFFFFFFFFFFFFFFFFFFFFFFFFFFFFFFFFFFFFFF AND PUSH20 0xFFFFFFFFFFFFFFFFFFFFFFFFFFFFFFFFFFFFFFFF AND DUP2 MSTORE PUSH1 0x20 ADD SWAP1 DUP2 MSTORE PUSH1 0x20 ADD PUSH1 0x0 KECCAK256 PUSH1 0x0 DUP5 PUSH20 0xFFFFFFFFFFFFFFFFFFFFFFFFFFFFFFFFFFFFFFFF AND PUSH20 0xFFFFFFFFFFFFFFFFFFFFFFFFFFFFFFFFFFFFFFFF AND DUP2 MSTORE PUSH1 0x20 ADD SWAP1 DUP2 MSTORE PUSH1 0x20 ADD PUSH1 0x0 KECCAK256 DUP2 SWAP1 SSTORE POP DUP2 PUSH20 0xFFFFFFFFFFFFFFFFFFFFFFFFFFFFFFFFFFFFFFFF AND DUP4 PUSH20 0xFFFFFFFFFFFFFFFFFFFFFFFFFFFFFFFFFFFFFFFF AND PUSH32 0x8C5BE1E5EBEC7D5BD14F71427D1E84F3DD0314C0F7B2291E5B200AC8C7C3B925 DUP4 PUSH1 0x40 MLOAD PUSH2 0x12D4 SWAP2 SWAP1 PUSH2 0x1E61 JUMP JUMPDEST PUSH1 0x40 MLOAD DUP1 SWAP2 SUB SWAP1 LOG3 POP POP POP JUMP JUMPDEST PUSH1 0x0 PUSH2 0x12ED DUP5 DUP5 PUSH2 0xFCB JUMP JUMPDEST SWAP1 POP PUSH32 0xFFFFFFFFFFFFFFFFFFFFFFFFFFFFFFFFFFFFFFFFFFFFFFFFFFFFFFFFFFFFFFFF DUP2 EQ PUSH2 0x1367 JUMPI DUP2 DUP2 LT ISZERO PUSH2 0x1359 JUMPI PUSH1 0x40 MLOAD PUSH32 0x8C379A000000000000000000000000000000000000000000000000000000000 DUP2 MSTORE PUSH1 0x4 ADD PUSH2 0x1350 SWAP1 PUSH2 0x1DA1 JUMP JUMPDEST PUSH1 0x40 MLOAD DUP1 SWAP2 SUB SWAP1 REVERT JUMPDEST PUSH2 0x1366 DUP5 DUP5 DUP5 DUP5 SUB PUSH2 0x1116 JUMP JUMPDEST JUMPDEST POP POP POP POP JUMP JUMPDEST PUSH1 0x0 PUSH20 0xFFFFFFFFFFFFFFFFFFFFFFFFFFFFFFFFFFFFFFFF AND DUP4 PUSH20 0xFFFFFFFFFFFFFFFFFFFFFFFFFFFFFFFFFFFFFFFF AND EQ ISZERO PUSH2 0x13DD JUMPI PUSH1 0x40 MLOAD PUSH32 0x8C379A000000000000000000000000000000000000000000000000000000000 DUP2 MSTORE PUSH1 0x4 ADD PUSH2 0x13D4 SWAP1 PUSH2 0x1DE1 JUMP JUMPDEST PUSH1 0x40 MLOAD DUP1 SWAP2 SUB SWAP1 REVERT JUMPDEST PUSH1 0x0 PUSH20 0xFFFFFFFFFFFFFFFFFFFFFFFFFFFFFFFFFFFFFFFF AND DUP3 PUSH20 0xFFFFFFFFFFFFFFFFFFFFFFFFFFFFFFFFFFFFFFFF AND EQ ISZERO PUSH2 0x144D JUMPI PUSH1 0x40 MLOAD PUSH32 0x8C379A000000000000000000000000000000000000000000000000000000000 DUP2 MSTORE PUSH1 0x4 ADD PUSH2 0x1444 SWAP1 PUSH2 0x1D41 JUMP JUMPDEST PUSH1 0x40 MLOAD DUP1 SWAP2 SUB SWAP1 REVERT JUMPDEST PUSH2 0x1458 DUP4 DUP4 DUP4 PUSH2 0x15E5 JUMP JUMPDEST PUSH1 0x0 DUP1 PUSH1 0x0 DUP6 PUSH20 0xFFFFFFFFFFFFFFFFFFFFFFFFFFFFFFFFFFFFFFFF AND PUSH20 0xFFFFFFFFFFFFFFFFFFFFFFFFFFFFFFFFFFFFFFFF AND DUP2 MSTORE PUSH1 0x20 ADD SWAP1 DUP2 MSTORE PUSH1 0x20 ADD PUSH1 0x0 KECCAK256 SLOAD SWAP1 POP DUP2 DUP2 LT ISZERO PUSH2 0x14DE JUMPI PUSH1 0x40 MLOAD PUSH32 0x8C379A000000000000000000000000000000000000000000000000000000000 DUP2 MSTORE PUSH1 0x4 ADD PUSH2 0x14D5 SWAP1 PUSH2 0x1DC1 JUMP JUMPDEST PUSH1 0x40 MLOAD DUP1 SWAP2 SUB SWAP1 REVERT JUMPDEST DUP2 DUP2 SUB PUSH1 0x0 DUP1 DUP7 PUSH20 0xFFFFFFFFFFFFFFFFFFFFFFFFFFFFFFFFFFFFFFFF AND PUSH20 0xFFFFFFFFFFFFFFFFFFFFFFFFFFFFFFFFFFFFFFFF AND DUP2 MSTORE PUSH1 0x20 ADD SWAP1 DUP2 MSTORE PUSH1 0x20 ADD PUSH1 0x0 KECCAK256 DUP2 SWAP1 SSTORE POP DUP2 PUSH1 0x0 DUP1 DUP6 PUSH20 0xFFFFFFFFFFFFFFFFFFFFFFFFFFFFFFFFFFFFFFFF AND PUSH20 0xFFFFFFFFFFFFFFFFFFFFFFFFFFFFFFFFFFFFFFFF AND DUP2 MSTORE PUSH1 0x20 ADD SWAP1 DUP2 MSTORE PUSH1 0x20 ADD PUSH1 0x0 KECCAK256 PUSH1 0x0 DUP3 DUP3 SLOAD ADD SWAP3 POP POP DUP2 SWAP1 SSTORE POP DUP3 PUSH20 0xFFFFFFFFFFFFFFFFFFFFFFFFFFFFFFFFFFFFFFFF AND DUP5 PUSH20 0xFFFFFFFFFFFFFFFFFFFFFFFFFFFFFFFFFFFFFFFF AND PUSH32 0xDDF252AD1BE2C89B69C2B068FC378DAA952BA7F163C4A11628F55A4DF523B3EF DUP5 PUSH1 0x40 MLOAD PUSH2 0x15CC SWAP2 SWAP1 PUSH2 0x1E61 JUMP JUMPDEST PUSH1 0x40 MLOAD DUP1 SWAP2 SUB SWAP1 LOG3 PUSH2 0x15DF DUP5 DUP5 DUP5 PUSH2 0x15EA JUMP JUMPDEST POP POP POP POP JUMP JUMPDEST POP POP POP JUMP JUMPDEST POP POP POP JUMP JUMPDEST DUP3 DUP1 SLOAD PUSH2 0x15FB SWAP1 PUSH2 0x208D JUMP JUMPDEST SWAP1 PUSH1 0x0 MSTORE PUSH1 0x20 PUSH1 0x0 KECCAK256 SWAP1 PUSH1 0x1F ADD PUSH1 0x20 SWAP1 DIV DUP2 ADD SWAP3 DUP3 PUSH2 0x161D JUMPI PUSH1 0x0 DUP6 SSTORE PUSH2 0x1664 JUMP JUMPDEST DUP3 PUSH1 0x1F LT PUSH2 0x1636 JUMPI DUP1 MLOAD PUSH1 0xFF NOT AND DUP4 DUP1 ADD OR DUP6 SSTORE PUSH2 0x1664 JUMP JUMPDEST DUP3 DUP1 ADD PUSH1 0x1 ADD DUP6 SSTORE DUP3 ISZERO PUSH2 0x1664 JUMPI SWAP2 DUP3 ADD JUMPDEST DUP3 DUP2 GT ISZERO PUSH2 0x1663 JUMPI DUP3 MLOAD DUP3 SSTORE SWAP2 PUSH1 0x20 ADD SWAP2 SWAP1 PUSH1 0x1 ADD SWAP1 PUSH2 0x1648 JUMP JUMPDEST JUMPDEST POP SWAP1 POP PUSH2 0x1671 SWAP2 SWAP1 PUSH2 0x1675 JUMP JUMPDEST POP SWAP1 JUMP JUMPDEST JUMPDEST DUP1 DUP3 GT ISZERO PUSH2 0x168E JUMPI PUSH1 0x0 DUP2 PUSH1 0x0 SWAP1 SSTORE POP PUSH1 0x1 ADD PUSH2 0x1676 JUMP JUMPDEST POP SWAP1 JUMP JUMPDEST PUSH1 0x0 PUSH2 0x16A5 PUSH2 0x16A0 DUP5 PUSH2 0x1F01 JUMP JUMPDEST PUSH2 0x1EDC JUMP JUMPDEST SWAP1 POP DUP1 DUP4 DUP3 MSTORE PUSH1 0x20 DUP3 ADD SWAP1 POP DUP3 DUP6 PUSH1 0x20 DUP7 MUL DUP3 ADD GT ISZERO PUSH2 0x16C8 JUMPI PUSH2 0x16C7 PUSH2 0x21FA JUMP JUMPDEST JUMPDEST PUSH1 0x0 JUMPDEST DUP6 DUP2 LT ISZERO PUSH2 0x16F8 JUMPI DUP2 PUSH2 0x16DE DUP9 DUP3 PUSH2 0x17CA JUMP JUMPDEST DUP5 MSTORE PUSH1 0x20 DUP5 ADD SWAP4 POP PUSH1 0x20 DUP4 ADD SWAP3 POP POP PUSH1 0x1 DUP2 ADD SWAP1 POP PUSH2 0x16CB JUMP JUMPDEST POP POP POP SWAP4 SWAP3 POP POP POP JUMP JUMPDEST PUSH1 0x0 PUSH2 0x1715 PUSH2 0x1710 DUP5 PUSH2 0x1F2D JUMP JUMPDEST PUSH2 0x1EDC JUMP JUMPDEST SWAP1 POP DUP3 DUP2 MSTORE PUSH1 0x20 DUP2 ADD DUP5 DUP5 DUP5 ADD GT ISZERO PUSH2 0x1731 JUMPI PUSH2 0x1730 PUSH2 0x21FF JUMP JUMPDEST JUMPDEST PUSH2 0x173C DUP5 DUP3 DUP6 PUSH2 0x204B JUMP JUMPDEST POP SWAP4 SWAP3 POP POP POP JUMP JUMPDEST PUSH1 0x0 DUP2 CALLDATALOAD SWAP1 POP PUSH2 0x1753 DUP2 PUSH2 0x2474 JUMP JUMPDEST SWAP3 SWAP2 POP POP JUMP JUMPDEST PUSH1 0x0 DUP3 PUSH1 0x1F DUP4 ADD SLT PUSH2 0x176E JUMPI PUSH2 0x176D PUSH2 0x21F5 JUMP JUMPDEST JUMPDEST DUP2 CALLDATALOAD PUSH2 0x177E DUP5 DUP3 PUSH1 0x20 DUP7 ADD PUSH2 0x1692 JUMP JUMPDEST SWAP2 POP POP SWAP3 SWAP2 POP POP JUMP JUMPDEST PUSH1 0x0 DUP2 CALLDATALOAD SWAP1 POP PUSH2 0x1796 DUP2 PUSH2 0x248B JUMP JUMPDEST SWAP3 SWAP2 POP POP JUMP JUMPDEST PUSH1 0x0 DUP3 PUSH1 0x1F DUP4 ADD SLT PUSH2 0x17B1 JUMPI PUSH2 0x17B0 PUSH2 0x21F5 JUMP JUMPDEST JUMPDEST DUP2 CALLDATALOAD PUSH2 0x17C1 DUP5 DUP3 PUSH1 0x20 DUP7 ADD PUSH2 0x1702 JUMP JUMPDEST SWAP2 POP POP SWAP3 SWAP2 POP POP JUMP JUMPDEST PUSH1 0x0 DUP2 CALLDATALOAD SWAP1 POP PUSH2 0x17D9 DUP2 PUSH2 0x24A2 JUMP JUMPDEST SWAP3 SWAP2 POP POP JUMP JUMPDEST PUSH1 0x0 PUSH1 0x20 DUP3 DUP5 SUB SLT ISZERO PUSH2 0x17F5 JUMPI PUSH2 0x17F4 PUSH2 0x2209 JUMP JUMPDEST JUMPDEST PUSH1 0x0 PUSH2 0x1803 DUP5 DUP3 DUP6 ADD PUSH2 0x1744 JUMP JUMPDEST SWAP2 POP POP SWAP3 SWAP2 POP POP JUMP JUMPDEST PUSH1 0x0 DUP1 PUSH1 0x40 DUP4 DUP6 SUB SLT ISZERO PUSH2 0x1823 JUMPI PUSH2 0x1822 PUSH2 0x2209 JUMP JUMPDEST JUMPDEST PUSH1 0x0 PUSH2 0x1831 DUP6 DUP3 DUP7 ADD PUSH2 0x1744 JUMP JUMPDEST SWAP3 POP POP PUSH1 0x20 PUSH2 0x1842 DUP6 DUP3 DUP7 ADD PUSH2 0x1744 JUMP JUMPDEST SWAP2 POP POP SWAP3 POP SWAP3 SWAP1 POP JUMP JUMPDEST PUSH1 0x0 DUP1 PUSH1 0x0 PUSH1 0x60 DUP5 DUP7 SUB SLT ISZERO PUSH2 0x1865 JUMPI PUSH2 0x1864 PUSH2 0x2209 JUMP JUMPDEST JUMPDEST PUSH1 0x0 PUSH2 0x1873 DUP7 DUP3 DUP8 ADD PUSH2 0x1744 JUMP JUMPDEST SWAP4 POP POP PUSH1 0x20 PUSH2 0x1884 DUP7 DUP3 DUP8 ADD PUSH2 0x1744 JUMP JUMPDEST SWAP3 POP POP PUSH1 0x40 PUSH2 0x1895 DUP7 DUP3 DUP8 ADD PUSH2 0x17CA JUMP JUMPDEST SWAP2 POP POP SWAP3 POP SWAP3 POP SWAP3 JUMP JUMPDEST PUSH1 0x0 DUP1 PUSH1 0x40 DUP4 DUP6 SUB SLT ISZERO PUSH2 0x18B6 JUMPI PUSH2 0x18B5 PUSH2 0x2209 JUMP JUMPDEST JUMPDEST PUSH1 0x0 PUSH2 0x18C4 DUP6 DUP3 DUP7 ADD PUSH2 0x1744 JUMP JUMPDEST SWAP3 POP POP PUSH1 0x20 PUSH2 0x18D5 DUP6 DUP3 DUP7 ADD PUSH2 0x17CA JUMP JUMPDEST SWAP2 POP POP SWAP3 POP SWAP3 SWAP1 POP JUMP JUMPDEST PUSH1 0x0 DUP1 PUSH1 0x0 DUP1 PUSH1 0x80 DUP6 DUP8 SUB SLT ISZERO PUSH2 0x18F9 JUMPI PUSH2 0x18F8 PUSH2 0x2209 JUMP JUMPDEST JUMPDEST PUSH1 0x0 DUP6 ADD CALLDATALOAD PUSH8 0xFFFFFFFFFFFFFFFF DUP2 GT ISZERO PUSH2 0x1917 JUMPI PUSH2 0x1916 PUSH2 0x2204 JUMP JUMPDEST JUMPDEST PUSH2 0x1923 DUP8 DUP3 DUP9 ADD PUSH2 0x179C JUMP JUMPDEST SWAP5 POP POP PUSH1 0x20 PUSH2 0x1934 DUP8 DUP3 DUP9 ADD PUSH2 0x17CA JUMP JUMPDEST SWAP4 POP POP PUSH1 0x40 DUP6 ADD CALLDATALOAD PUSH8 0xFFFFFFFFFFFFFFFF DUP2 GT ISZERO PUSH2 0x1955 JUMPI PUSH2 0x1954 PUSH2 0x2204 JUMP JUMPDEST JUMPDEST PUSH2 0x1961 DUP8 DUP3 DUP9 ADD PUSH2 0x1759 JUMP JUMPDEST SWAP3 POP POP PUSH1 0x60 DUP6 ADD CALLDATALOAD PUSH8 0xFFFFFFFFFFFFFFFF DUP2 GT ISZERO PUSH2 0x1982 JUMPI PUSH2 0x1981 PUSH2 0x2204 JUMP JUMPDEST JUMPDEST PUSH2 0x198E DUP8 DUP3 DUP9 ADD PUSH2 0x1759 JUMP JUMPDEST SWAP2 POP POP SWAP3 SWAP6 SWAP2 SWAP5 POP SWAP3 POP JUMP JUMPDEST PUSH1 0x0 DUP1 PUSH1 0x0 DUP1 PUSH1 0x80 DUP6 DUP8 SUB SLT ISZERO PUSH2 0x19B4 JUMPI PUSH2 0x19B3 PUSH2 0x2209 JUMP JUMPDEST JUMPDEST PUSH1 0x0 DUP6 ADD CALLDATALOAD PUSH8 0xFFFFFFFFFFFFFFFF DUP2 GT ISZERO PUSH2 0x19D2 JUMPI PUSH2 0x19D1 PUSH2 0x2204 JUMP JUMPDEST JUMPDEST PUSH2 0x19DE DUP8 DUP3 DUP9 ADD PUSH2 0x179C JUMP JUMPDEST SWAP5 POP POP PUSH1 0x20 PUSH2 0x19EF DUP8 DUP3 DUP9 ADD PUSH2 0x17CA JUMP JUMPDEST SWAP4 POP POP PUSH1 0x40 PUSH2 0x1A00 DUP8 DUP3 DUP9 ADD PUSH2 0x17CA JUMP JUMPDEST SWAP3 POP POP PUSH1 0x60 PUSH2 0x1A11 DUP8 DUP3 DUP9 ADD PUSH2 0x17CA JUMP JUMPDEST SWAP2 POP POP SWAP3 SWAP6 SWAP2 SWAP5 POP SWAP3 POP JUMP JUMPDEST PUSH1 0x0 PUSH1 0x20 DUP3 DUP5 SUB SLT ISZERO PUSH2 0x1A33 JUMPI PUSH2 0x1A32 PUSH2 0x2209 JUMP JUMPDEST JUMPDEST PUSH1 0x0 PUSH2 0x1A41 DUP5 DUP3 DUP6 ADD PUSH2 0x17CA JUMP JUMPDEST SWAP2 POP POP SWAP3 SWAP2 POP POP JUMP JUMPDEST PUSH1 0x0 DUP1 PUSH1 0x40 DUP4 DUP6 SUB SLT ISZERO PUSH2 0x1A61 JUMPI PUSH2 0x1A60 PUSH2 0x2209 JUMP JUMPDEST JUMPDEST PUSH1 0x0 PUSH2 0x1A6F DUP6 DUP3 DUP7 ADD PUSH2 0x17CA JUMP JUMPDEST SWAP3 POP POP PUSH1 0x20 PUSH2 0x1A80 DUP6 DUP3 DUP7 ADD PUSH2 0x1787 JUMP JUMPDEST SWAP2 POP POP SWAP3 POP SWAP3 SWAP1 POP JUMP JUMPDEST PUSH2 0x1A93 DUP2 PUSH2 0x1FEC JUMP JUMPDEST DUP3 MSTORE POP POP JUMP JUMPDEST PUSH2 0x1AA2 DUP2 PUSH2 0x1FFE JUMP JUMPDEST DUP3 MSTORE POP POP JUMP JUMPDEST PUSH2 0x1AB1 DUP2 PUSH2 0x200A JUMP JUMPDEST DUP3 MSTORE POP POP JUMP JUMPDEST PUSH1 0x0 PUSH2 0x1AC2 DUP3 PUSH2 0x1F5E JUMP JUMPDEST PUSH2 0x1ACC DUP2 DUP6 PUSH2 0x1F74 JUMP JUMPDEST SWAP4 POP PUSH2 0x1ADC DUP2 DUP6 PUSH1 0x20 DUP7 ADD PUSH2 0x205A JUMP JUMPDEST PUSH2 0x1AE5 DUP2 PUSH2 0x220E JUMP JUMPDEST DUP5 ADD SWAP2 POP POP SWAP3 SWAP2 POP POP JUMP JUMPDEST PUSH1 0x0 PUSH2 0x1AFB DUP3 PUSH2 0x1F69 JUMP JUMPDEST PUSH2 0x1B05 DUP2 DUP6 PUSH2 0x1F85 JUMP JUMPDEST SWAP4 POP PUSH2 0x1B15 DUP2 DUP6 PUSH1 0x20 DUP7 ADD PUSH2 0x205A JUMP JUMPDEST PUSH2 0x1B1E DUP2 PUSH2 0x220E JUMP JUMPDEST DUP5 ADD SWAP2 POP POP SWAP3 SWAP2 POP POP JUMP JUMPDEST PUSH1 0x0 PUSH2 0x1B36 PUSH1 0x23 DUP4 PUSH2 0x1F85 JUMP JUMPDEST SWAP2 POP PUSH2 0x1B41 DUP3 PUSH2 0x221F JUMP JUMPDEST PUSH1 0x40 DUP3 ADD SWAP1 POP SWAP2 SWAP1 POP JUMP JUMPDEST PUSH1 0x0 PUSH2 0x1B59 PUSH1 0x1C DUP4 PUSH2 0x1F85 JUMP JUMPDEST SWAP2 POP PUSH2 0x1B64 DUP3 PUSH2 0x226E JUMP JUMPDEST PUSH1 0x20 DUP3 ADD SWAP1 POP SWAP2 SWAP1 POP JUMP JUMPDEST PUSH1 0x0 PUSH2 0x1B7C PUSH1 0x22 DUP4 PUSH2 0x1F85 JUMP JUMPDEST SWAP2 POP PUSH2 0x1B87 DUP3 PUSH2 0x2297 JUMP JUMPDEST PUSH1 0x40 DUP3 ADD SWAP1 POP SWAP2 SWAP1 POP JUMP JUMPDEST PUSH1 0x0 PUSH2 0x1B9F PUSH1 0x1D DUP4 PUSH2 0x1F85 JUMP JUMPDEST SWAP2 POP PUSH2 0x1BAA DUP3 PUSH2 0x22E6 JUMP JUMPDEST PUSH1 0x20 DUP3 ADD SWAP1 POP SWAP2 SWAP1 POP JUMP JUMPDEST PUSH1 0x0 PUSH2 0x1BC2 PUSH1 0x26 DUP4 PUSH2 0x1F85 JUMP JUMPDEST SWAP2 POP PUSH2 0x1BCD DUP3 PUSH2 0x230F JUMP JUMPDEST PUSH1 0x40 DUP3 ADD SWAP1 POP SWAP2 SWAP1 POP JUMP JUMPDEST PUSH1 0x0 PUSH2 0x1BE5 PUSH1 0x25 DUP4 PUSH2 0x1F85 JUMP JUMPDEST SWAP2 POP PUSH2 0x1BF0 DUP3 PUSH2 0x235E JUMP JUMPDEST PUSH1 0x40 DUP3 ADD SWAP1 POP SWAP2 SWAP1 POP JUMP JUMPDEST PUSH1 0x0 PUSH2 0x1C08 PUSH1 0x12 DUP4 PUSH2 0x1F85 JUMP JUMPDEST SWAP2 POP PUSH2 0x1C13 DUP3 PUSH2 0x23AD JUMP JUMPDEST PUSH1 0x20 DUP3 ADD SWAP1 POP SWAP2 SWAP1 POP JUMP JUMPDEST PUSH1 0x0 PUSH2 0x1C2B PUSH1 0x24 DUP4 PUSH2 0x1F85 JUMP JUMPDEST SWAP2 POP PUSH2 0x1C36 DUP3 PUSH2 0x23D6 JUMP JUMPDEST PUSH1 0x40 DUP3 ADD SWAP1 POP SWAP2 SWAP1 POP JUMP JUMPDEST PUSH1 0x0 PUSH2 0x1C4E PUSH1 0x25 DUP4 PUSH2 0x1F85 JUMP JUMPDEST SWAP2 POP PUSH2 0x1C59 DUP3 PUSH2 0x2425 JUMP JUMPDEST PUSH1 0x40 DUP3 ADD SWAP1 POP SWAP2 SWAP1 POP JUMP JUMPDEST PUSH2 0x1C6D DUP2 PUSH2 0x2034 JUMP JUMPDEST DUP3 MSTORE POP POP JUMP JUMPDEST PUSH2 0x1C7C DUP2 PUSH2 0x203E JUMP JUMPDEST DUP3 MSTORE POP POP JUMP JUMPDEST PUSH1 0x0 PUSH1 0x20 DUP3 ADD SWAP1 POP PUSH2 0x1C97 PUSH1 0x0 DUP4 ADD DUP5 PUSH2 0x1A8A JUMP JUMPDEST SWAP3 SWAP2 POP POP JUMP JUMPDEST PUSH1 0x0 PUSH1 0x20 DUP3 ADD SWAP1 POP PUSH2 0x1CB2 PUSH1 0x0 DUP4 ADD DUP5 PUSH2 0x1A99 JUMP JUMPDEST SWAP3 SWAP2 POP POP JUMP JUMPDEST PUSH1 0x0 PUSH1 0x20 DUP3 ADD SWAP1 POP PUSH2 0x1CCD PUSH1 0x0 DUP4 ADD DUP5 PUSH2 0x1AA8 JUMP JUMPDEST SWAP3 SWAP2 POP POP JUMP JUMPDEST PUSH1 0x0 PUSH1 0x80 DUP3 ADD SWAP1 POP DUP2 DUP2 SUB PUSH1 0x0 DUP4 ADD MSTORE PUSH2 0x1CED DUP2 DUP8 PUSH2 0x1AB7 JUMP JUMPDEST SWAP1 POP PUSH2 0x1CFC PUSH1 0x20 DUP4 ADD DUP7 PUSH2 0x1C64 JUMP JUMPDEST PUSH2 0x1D09 PUSH1 0x40 DUP4 ADD DUP6 PUSH2 0x1A99 JUMP JUMPDEST PUSH2 0x1D16 PUSH1 0x60 DUP4 ADD DUP5 PUSH2 0x1A99 JUMP JUMPDEST SWAP6 SWAP5 POP POP POP POP POP JUMP JUMPDEST PUSH1 0x0 PUSH1 0x20 DUP3 ADD SWAP1 POP DUP2 DUP2 SUB PUSH1 0x0 DUP4 ADD MSTORE PUSH2 0x1D39 DUP2 DUP5 PUSH2 0x1AF0 JUMP JUMPDEST SWAP1 POP SWAP3 SWAP2 POP POP JUMP JUMPDEST PUSH1 0x0 PUSH1 0x20 DUP3 ADD SWAP1 POP DUP2 DUP2 SUB PUSH1 0x0 DUP4 ADD MSTORE PUSH2 0x1D5A DUP2 PUSH2 0x1B29 JUMP JUMPDEST SWAP1 POP SWAP2 SWAP1 POP JUMP JUMPDEST PUSH1 0x0 PUSH1 0x20 DUP3 ADD SWAP1 POP DUP2 DUP2 SUB PUSH1 0x0 DUP4 ADD MSTORE PUSH2 0x1D7A DUP2 PUSH2 0x1B4C JUMP JUMPDEST SWAP1 POP SWAP2 SWAP1 POP JUMP JUMPDEST PUSH1 0x0 PUSH1 0x20 DUP3 ADD SWAP1 POP DUP2 DUP2 SUB PUSH1 0x0 DUP4 ADD MSTORE PUSH2 0x1D9A DUP2 PUSH2 0x1B6F JUMP JUMPDEST SWAP1 POP SWAP2 SWAP1 POP JUMP JUMPDEST PUSH1 0x0 PUSH1 0x20 DUP3 ADD SWAP1 POP DUP2 DUP2 SUB PUSH1 0x0 DUP4 ADD MSTORE PUSH2 0x1DBA DUP2 PUSH2 0x1B92 JUMP JUMPDEST SWAP1 POP SWAP2 SWAP1 POP JUMP JUMPDEST PUSH1 0x0 PUSH1 0x20 DUP3 ADD SWAP1 POP DUP2 DUP2 SUB PUSH1 0x0 DUP4 ADD MSTORE PUSH2 0x1DDA DUP2 PUSH2 0x1BB5 JUMP JUMPDEST SWAP1 POP SWAP2 SWAP1 POP JUMP JUMPDEST PUSH1 0x0 PUSH1 0x20 DUP3 ADD SWAP1 POP DUP2 DUP2 SUB PUSH1 0x0 DUP4 ADD MSTORE PUSH2 0x1DFA DUP2 PUSH2 0x1BD8 JUMP JUMPDEST SWAP1 POP SWAP2 SWAP1 POP JUMP JUMPDEST PUSH1 0x0 PUSH1 0x20 DUP3 ADD SWAP1 POP DUP2 DUP2 SUB PUSH1 0x0 DUP4 ADD MSTORE PUSH2 0x1E1A DUP2 PUSH2 0x1BFB JUMP JUMPDEST SWAP1 POP SWAP2 SWAP1 POP JUMP JUMPDEST PUSH1 0x0 PUSH1 0x20 DUP3 ADD SWAP1 POP DUP2 DUP2 SUB PUSH1 0x0 DUP4 ADD MSTORE PUSH2 0x1E3A DUP2 PUSH2 0x1C1E JUMP JUMPDEST SWAP1 POP SWAP2 SWAP1 POP JUMP JUMPDEST PUSH1 0x0 PUSH1 0x20 DUP3 ADD SWAP1 POP DUP2 DUP2 SUB PUSH1 0x0 DUP4 ADD MSTORE PUSH2 0x1E5A DUP2 PUSH2 0x1C41 JUMP JUMPDEST SWAP1 POP SWAP2 SWAP1 POP JUMP JUMPDEST PUSH1 0x0 PUSH1 0x20 DUP3 ADD SWAP1 POP PUSH2 0x1E76 PUSH1 0x0 DUP4 ADD DUP5 PUSH2 0x1C64 JUMP JUMPDEST SWAP3 SWAP2 POP POP JUMP JUMPDEST PUSH1 0x0 PUSH1 0x80 DUP3 ADD SWAP1 POP PUSH2 0x1E91 PUSH1 0x0 DUP4 ADD DUP8 PUSH2 0x1C64 JUMP JUMPDEST PUSH2 0x1E9E PUSH1 0x20 DUP4 ADD DUP7 PUSH2 0x1A99 JUMP JUMPDEST PUSH2 0x1EAB PUSH1 0x40 DUP4 ADD DUP6 PUSH2 0x1A8A JUMP JUMPDEST PUSH2 0x1EB8 PUSH1 0x60 DUP4 ADD DUP5 PUSH2 0x1C64 JUMP JUMPDEST SWAP6 SWAP5 POP POP POP POP POP JUMP JUMPDEST PUSH1 0x0 PUSH1 0x20 DUP3 ADD SWAP1 POP PUSH2 0x1ED6 PUSH1 0x0 DUP4 ADD DUP5 PUSH2 0x1C73 JUMP JUMPDEST SWAP3 SWAP2 POP POP JUMP JUMPDEST PUSH1 0x0 PUSH2 0x1EE6 PUSH2 0x1EF7 JUMP JUMPDEST SWAP1 POP PUSH2 0x1EF2 DUP3 DUP3 PUSH2 0x20BF JUMP JUMPDEST SWAP2 SWAP1 POP JUMP JUMPDEST PUSH1 0x0 PUSH1 0x40 MLOAD SWAP1 POP SWAP1 JUMP JUMPDEST PUSH1 0x0 PUSH8 0xFFFFFFFFFFFFFFFF DUP3 GT ISZERO PUSH2 0x1F1C JUMPI PUSH2 0x1F1B PUSH2 0x21C6 JUMP JUMPDEST JUMPDEST PUSH1 0x20 DUP3 MUL SWAP1 POP PUSH1 0x20 DUP2 ADD SWAP1 POP SWAP2 SWAP1 POP JUMP JUMPDEST PUSH1 0x0 PUSH8 0xFFFFFFFFFFFFFFFF DUP3 GT ISZERO PUSH2 0x1F48 JUMPI PUSH2 0x1F47 PUSH2 0x21C6 JUMP JUMPDEST JUMPDEST PUSH2 0x1F51 DUP3 PUSH2 0x220E JUMP JUMPDEST SWAP1 POP PUSH1 0x20 DUP2 ADD SWAP1 POP SWAP2 SWAP1 POP JUMP JUMPDEST PUSH1 0x0 DUP2 MLOAD SWAP1 POP SWAP2 SWAP1 POP JUMP JUMPDEST PUSH1 0x0 DUP2 MLOAD SWAP1 POP SWAP2 SWAP1 POP JUMP JUMPDEST PUSH1 0x0 DUP3 DUP3 MSTORE PUSH1 0x20 DUP3 ADD SWAP1 POP SWAP3 SWAP2 POP POP JUMP JUMPDEST PUSH1 0x0 DUP3 DUP3 MSTORE PUSH1 0x20 DUP3 ADD SWAP1 POP SWAP3 SWAP2 POP POP JUMP JUMPDEST PUSH1 0x0 PUSH2 0x1FA1 DUP3 PUSH2 0x2034 JUMP JUMPDEST SWAP2 POP PUSH2 0x1FAC DUP4 PUSH2 0x2034 JUMP JUMPDEST SWAP3 POP DUP3 PUSH32 0xFFFFFFFFFFFFFFFFFFFFFFFFFFFFFFFFFFFFFFFFFFFFFFFFFFFFFFFFFFFFFFFF SUB DUP3 GT ISZERO PUSH2 0x1FE1 JUMPI PUSH2 0x1FE0 PUSH2 0x2139 JUMP JUMPDEST JUMPDEST DUP3 DUP3 ADD SWAP1 POP SWAP3 SWAP2 POP POP JUMP JUMPDEST PUSH1 0x0 PUSH2 0x1FF7 DUP3 PUSH2 0x2014 JUMP JUMPDEST SWAP1 POP SWAP2 SWAP1 POP JUMP JUMPDEST PUSH1 0x0 DUP2 ISZERO ISZERO SWAP1 POP SWAP2 SWAP1 POP JUMP JUMPDEST PUSH1 0x0 DUP2 SWAP1 POP SWAP2 SWAP1 POP JUMP JUMPDEST PUSH1 0x0 PUSH20 0xFFFFFFFFFFFFFFFFFFFFFFFFFFFFFFFFFFFFFFFF DUP3 AND SWAP1 POP SWAP2 SWAP1 POP JUMP JUMPDEST PUSH1 0x0 DUP2 SWAP1 POP SWAP2 SWAP1 POP JUMP JUMPDEST PUSH1 0x0 PUSH1 0xFF DUP3 AND SWAP1 POP SWAP2 SWAP1 POP JUMP JUMPDEST DUP3 DUP2 DUP4 CALLDATACOPY PUSH1 0x0 DUP4 DUP4 ADD MSTORE POP POP POP JUMP JUMPDEST PUSH1 0x0 JUMPDEST DUP4 DUP2 LT ISZERO PUSH2 0x2078 JUMPI DUP1 DUP3 ADD MLOAD DUP2 DUP5 ADD MSTORE PUSH1 0x20 DUP2 ADD SWAP1 POP PUSH2 0x205D JUMP JUMPDEST DUP4 DUP2 GT ISZERO PUSH2 0x2087 JUMPI PUSH1 0x0 DUP5 DUP5 ADD MSTORE JUMPDEST POP POP POP POP JUMP JUMPDEST PUSH1 0x0 PUSH1 0x2 DUP3 DIV SWAP1 POP PUSH1 0x1 DUP3 AND DUP1 PUSH2 0x20A5 JUMPI PUSH1 0x7F DUP3 AND SWAP2 POP JUMPDEST PUSH1 0x20 DUP3 LT DUP2 EQ ISZERO PUSH2 0x20B9 JUMPI PUSH2 0x20B8 PUSH2 0x2168 JUMP JUMPDEST JUMPDEST POP SWAP2 SWAP1 POP JUMP JUMPDEST PUSH2 0x20C8 DUP3 PUSH2 0x220E JUMP JUMPDEST DUP2 ADD DUP2 DUP2 LT PUSH8 0xFFFFFFFFFFFFFFFF DUP3 GT OR ISZERO PUSH2 0x20E7 JUMPI PUSH2 0x20E6 PUSH2 0x21C6 JUMP JUMPDEST JUMPDEST DUP1 PUSH1 0x40 MSTORE POP POP POP JUMP JUMPDEST PUSH1 0x0 PUSH2 0x20FB DUP3 PUSH2 0x2034 JUMP JUMPDEST SWAP2 POP PUSH32 0xFFFFFFFFFFFFFFFFFFFFFFFFFFFFFFFFFFFFFFFFFFFFFFFFFFFFFFFFFFFFFFFF DUP3 EQ ISZERO PUSH2 0x212E JUMPI PUSH2 0x212D PUSH2 0x2139 JUMP JUMPDEST JUMPDEST PUSH1 0x1 DUP3 ADD SWAP1 POP SWAP2 SWAP1 POP JUMP JUMPDEST PUSH32 0x4E487B7100000000000000000000000000000000000000000000000000000000 PUSH1 0x0 MSTORE PUSH1 0x11 PUSH1 0x4 MSTORE PUSH1 0x24 PUSH1 0x0 REVERT JUMPDEST PUSH32 0x4E487B7100000000000000000000000000000000000000000000000000000000 PUSH1 0x0 MSTORE PUSH1 0x22 PUSH1 0x4 MSTORE PUSH1 0x24 PUSH1 0x0 REVERT JUMPDEST PUSH32 0x4E487B7100000000000000000000000000000000000000000000000000000000 PUSH1 0x0 MSTORE PUSH1 0x32 PUSH1 0x4 MSTORE PUSH1 0x24 PUSH1 0x0 REVERT JUMPDEST PUSH32 0x4E487B7100000000000000000000000000000000000000000000000000000000 PUSH1 0x0 MSTORE PUSH1 0x41 PUSH1 0x4 MSTORE PUSH1 0x24 PUSH1 0x0 REVERT JUMPDEST PUSH1 0x0 DUP1 REVERT JUMPDEST PUSH1 0x0 DUP1 REVERT JUMPDEST PUSH1 0x0 DUP1 REVERT JUMPDEST PUSH1 0x0 DUP1 REVERT JUMPDEST PUSH1 0x0 DUP1 REVERT JUMPDEST PUSH1 0x0 PUSH1 0x1F NOT PUSH1 0x1F DUP4 ADD AND SWAP1 POP SWAP2 SWAP1 POP JUMP JUMPDEST PUSH32 0x45524332303A207472616E7366657220746F20746865207A65726F2061646472 PUSH1 0x0 DUP3 ADD MSTORE PUSH32 0x6573730000000000000000000000000000000000000000000000000000000000 PUSH1 0x20 DUP3 ADD MSTORE POP JUMP JUMPDEST PUSH32 0x53656C662064656C65676174696F6E206E6F7420616C6C6F7765642100000000 PUSH1 0x0 DUP3 ADD MSTORE POP JUMP JUMPDEST PUSH32 0x45524332303A20617070726F766520746F20746865207A65726F206164647265 PUSH1 0x0 DUP3 ADD MSTORE PUSH32 0x7373000000000000000000000000000000000000000000000000000000000000 PUSH1 0x20 DUP3 ADD MSTORE POP JUMP JUMPDEST PUSH32 0x45524332303A20696E73756666696369656E7420616C6C6F77616E6365000000 PUSH1 0x0 DUP3 ADD MSTORE POP JUMP JUMPDEST PUSH32 0x45524332303A207472616E7366657220616D6F756E7420657863656564732062 PUSH1 0x0 DUP3 ADD MSTORE PUSH32 0x616C616E63650000000000000000000000000000000000000000000000000000 PUSH1 0x20 DUP3 ADD MSTORE POP JUMP JUMPDEST PUSH32 0x45524332303A207472616E736665722066726F6D20746865207A65726F206164 PUSH1 0x0 DUP3 ADD MSTORE PUSH32 0x6472657373000000000000000000000000000000000000000000000000000000 PUSH1 0x20 DUP3 ADD MSTORE POP JUMP JUMPDEST PUSH32 0x596F7520616C726561647920766F746564210000000000000000000000000000 PUSH1 0x0 DUP3 ADD MSTORE POP JUMP JUMPDEST PUSH32 0x45524332303A20617070726F76652066726F6D20746865207A65726F20616464 PUSH1 0x0 DUP3 ADD MSTORE PUSH32 0x7265737300000000000000000000000000000000000000000000000000000000 PUSH1 0x20 DUP3 ADD MSTORE POP JUMP JUMPDEST PUSH32 0x45524332303A2064656372656173656420616C6C6F77616E63652062656C6F77 PUSH1 0x0 DUP3 ADD MSTORE PUSH32 0x207A65726F000000000000000000000000000000000000000000000000000000 PUSH1 0x20 DUP3 ADD MSTORE POP JUMP JUMPDEST PUSH2 0x247D DUP2 PUSH2 0x1FEC JUMP JUMPDEST DUP2 EQ PUSH2 0x2488 JUMPI PUSH1 0x0 DUP1 REVERT JUMPDEST POP JUMP JUMPDEST PUSH2 0x2494 DUP2 PUSH2 0x1FFE JUMP JUMPDEST DUP2 EQ PUSH2 0x249F JUMPI PUSH1 0x0 DUP1 REVERT JUMPDEST POP JUMP JUMPDEST PUSH2 0x24AB DUP2 PUSH2 0x2034 JUMP JUMPDEST DUP2 EQ PUSH2 0x24B6 JUMPI PUSH1 0x0 DUP1 REVERT JUMPDEST POP JUMP INVALID LOG2 PUSH5 0x6970667358 0x22 SLT KECCAK256 PUSH19 0xEA685062C505108FE3B1D8D9F93864BDC87A9C 0xAE XOR 0xA5 JUMPI 0xF SWAP1 0xDE PUSH9 0x224AE6F264736F6C63 NUMBER STOP ADDMOD SMOD STOP CALLER "
				},
				"gasEstimates": {
					"creation": {
						"codeDepositCost": "1891000",
						"executionCost": "infinite",
						"totalCost": "infinite"
					},
					"external": {
						"allowance(address,address)": "infinite",
						"approve(address,uint256)": "infinite",
						"balanceOf(address)": "2930",
						"decimals()": "389",
						"decreaseAllowance(address,uint256)": "infinite",
						"delegateVoteTo(address,uint256)": "infinite",
						"donateEther()": "infinite",
						"donateMyGovToken(uint256)": "infinite",
						"getEtherReceivedByProject()": "190",
						"getIsProjectFunded()": "212",
						"getNoOfFundedProjects()": "infinite",
						"getNoOfProjectProposals()": "2557",
						"getNoOfSurveys()": "2490",
						"getProjectInfo()": "211",
						"getProjectNextPayment()": "210",
						"getProjectOwner()": "232",
						"getSurveyInfo()": "211",
						"getSurveyOwner(uint256)": "733",
						"getSurveyResults()": "256",
						"increaseAllowance(address,uint256)": "infinite",
						"name()": "infinite",
						"proposals(uint256)": "infinite",
						"reserveProjectGrant()": "233",
						"submitProjectProposal(string,uint256,uint256[],uint256[])": "infinite",
						"submitSurvey(string,uint256,uint256,uint256)": "infinite",
						"surveys(uint256)": "4975",
						"symbol()": "infinite",
						"takeSurvey()": "213",
						"totalSupply()": "2505",
						"transfer(address,uint256)": "infinite",
						"transferFrom(address,address,uint256)": "infinite",
						"voteForProjectPayment()": "277",
						"voteForProjectProposal(uint256,bool)": "infinite",
						"voters(address)": "infinite",
						"withdrawProjectPayment()": "255"
					}
				},
				"methodIdentifiers": {
					"allowance(address,address)": "dd62ed3e",
					"approve(address,uint256)": "095ea7b3",
					"balanceOf(address)": "70a08231",
					"decimals()": "313ce567",
					"decreaseAllowance(address,uint256)": "a457c2d7",
					"delegateVoteTo(address,uint256)": "a1669b32",
					"donateEther()": "863451dd",
					"donateMyGovToken(uint256)": "39c94d2d",
					"getEtherReceivedByProject()": "164dfd3b",
					"getIsProjectFunded()": "35655237",
					"getNoOfFundedProjects()": "bf50556d",
					"getNoOfProjectProposals()": "23fd498b",
					"getNoOfSurveys()": "5d801b37",
					"getProjectInfo()": "67c897fe",
					"getProjectNextPayment()": "e00e03f9",
					"getProjectOwner()": "e6d68595",
					"getSurveyInfo()": "af60d560",
					"getSurveyOwner(uint256)": "875b5076",
					"getSurveyResults()": "8fbe3750",
					"increaseAllowance(address,uint256)": "39509351",
					"name()": "06fdde03",
					"proposals(uint256)": "013cf08b",
					"reserveProjectGrant()": "bafc462d",
					"submitProjectProposal(string,uint256,uint256[],uint256[])": "a5e898e1",
					"submitSurvey(string,uint256,uint256,uint256)": "ef269ae3",
					"surveys(uint256)": "86e68b90",
					"symbol()": "95d89b41",
					"takeSurvey()": "033cb2d3",
					"totalSupply()": "18160ddd",
					"transfer(address,uint256)": "a9059cbb",
					"transferFrom(address,address,uint256)": "23b872dd",
					"voteForProjectPayment()": "72a4e9ba",
					"voteForProjectProposal(uint256,bool)": "f22449ba",
					"voters(address)": "a3ec138d",
					"withdrawProjectPayment()": "70e1133c"
				}
			},
			"storageLayout": {
				"storage": [
					{
						"astId": 15,
						"contract": "contracts/MyGov.sol:MyGovToken",
						"label": "_balances",
						"offset": 0,
						"slot": "0",
						"type": "t_mapping(t_address,t_uint256)"
					},
					{
						"astId": 21,
						"contract": "contracts/MyGov.sol:MyGovToken",
						"label": "_allowances",
						"offset": 0,
						"slot": "1",
						"type": "t_mapping(t_address,t_mapping(t_address,t_uint256))"
					},
					{
						"astId": 23,
						"contract": "contracts/MyGov.sol:MyGovToken",
						"label": "_totalSupply",
						"offset": 0,
						"slot": "2",
						"type": "t_uint256"
					},
					{
						"astId": 25,
						"contract": "contracts/MyGov.sol:MyGovToken",
						"label": "_name",
						"offset": 0,
						"slot": "3",
						"type": "t_string_storage"
					},
					{
						"astId": 27,
						"contract": "contracts/MyGov.sol:MyGovToken",
						"label": "_symbol",
						"offset": 0,
						"slot": "4",
						"type": "t_string_storage"
					},
					{
						"astId": 771,
						"contract": "contracts/MyGov.sol:MyGovToken",
						"label": "tokenOwner",
						"offset": 0,
						"slot": "5",
						"type": "t_address_payable"
					},
					{
						"astId": 776,
						"contract": "contracts/MyGov.sol:MyGovToken",
						"label": "voters",
						"offset": 0,
						"slot": "6",
						"type": "t_mapping(t_address,t_struct(Voter)751_storage)"
					},
					{
						"astId": 780,
						"contract": "contracts/MyGov.sol:MyGovToken",
						"label": "proposals",
						"offset": 0,
						"slot": "7",
						"type": "t_array(t_struct(Proposal)760_storage)dyn_storage"
					},
					{
						"astId": 784,
						"contract": "contracts/MyGov.sol:MyGovToken",
						"label": "surveys",
						"offset": 0,
						"slot": "8",
						"type": "t_array(t_struct(Survey)769_storage)dyn_storage"
					}
				],
				"types": {
					"t_address": {
						"encoding": "inplace",
						"label": "address",
						"numberOfBytes": "20"
					},
					"t_address_payable": {
						"encoding": "inplace",
						"label": "address payable",
						"numberOfBytes": "20"
					},
					"t_array(t_bytes32)dyn_storage": {
						"base": "t_bytes32",
						"encoding": "dynamic_array",
						"label": "bytes32[]",
						"numberOfBytes": "32"
					},
					"t_array(t_struct(Proposal)760_storage)dyn_storage": {
						"base": "t_struct(Proposal)760_storage",
						"encoding": "dynamic_array",
						"label": "struct MyGovToken.Proposal[]",
						"numberOfBytes": "32"
					},
					"t_array(t_struct(Survey)769_storage)dyn_storage": {
						"base": "t_struct(Survey)769_storage",
						"encoding": "dynamic_array",
						"label": "struct MyGovToken.Survey[]",
						"numberOfBytes": "32"
					},
					"t_array(t_uint256)dyn_storage": {
						"base": "t_uint256",
						"encoding": "dynamic_array",
						"label": "uint256[]",
						"numberOfBytes": "32"
					},
					"t_bool": {
						"encoding": "inplace",
						"label": "bool",
						"numberOfBytes": "1"
					},
					"t_bytes32": {
						"encoding": "inplace",
						"label": "bytes32",
						"numberOfBytes": "32"
					},
					"t_bytes_storage": {
						"encoding": "bytes",
						"label": "bytes",
						"numberOfBytes": "32"
					},
					"t_mapping(t_address,t_mapping(t_address,t_uint256))": {
						"encoding": "mapping",
						"key": "t_address",
						"label": "mapping(address => mapping(address => uint256))",
						"numberOfBytes": "32",
						"value": "t_mapping(t_address,t_uint256)"
					},
					"t_mapping(t_address,t_struct(Voter)751_storage)": {
						"encoding": "mapping",
						"key": "t_address",
						"label": "mapping(address => struct MyGovToken.Voter)",
						"numberOfBytes": "32",
						"value": "t_struct(Voter)751_storage"
					},
					"t_mapping(t_address,t_uint256)": {
						"encoding": "mapping",
						"key": "t_address",
						"label": "mapping(address => uint256)",
						"numberOfBytes": "32",
						"value": "t_uint256"
					},
					"t_string_storage": {
						"encoding": "bytes",
						"label": "string",
						"numberOfBytes": "32"
					},
					"t_struct(Proposal)760_storage": {
						"encoding": "inplace",
						"label": "struct MyGovToken.Proposal",
						"members": [
							{
								"astId": 753,
								"contract": "contracts/MyGov.sol:MyGovToken",
								"label": "name",
								"offset": 0,
								"slot": "0",
								"type": "t_bytes_storage"
							},
							{
								"astId": 755,
								"contract": "contracts/MyGov.sol:MyGovToken",
								"label": "voteCount",
								"offset": 0,
								"slot": "1",
								"type": "t_uint256"
							},
							{
								"astId": 757,
								"contract": "contracts/MyGov.sol:MyGovToken",
								"label": "isWon",
								"offset": 0,
								"slot": "2",
								"type": "t_bool"
							},
							{
								"astId": 759,
								"contract": "contracts/MyGov.sol:MyGovToken",
								"label": "isFunded",
								"offset": 1,
								"slot": "2",
								"type": "t_bool"
							}
						],
						"numberOfBytes": "96"
					},
					"t_struct(Survey)769_storage": {
						"encoding": "inplace",
						"label": "struct MyGovToken.Survey",
						"members": [
							{
								"astId": 762,
								"contract": "contracts/MyGov.sol:MyGovToken",
								"label": "name",
								"offset": 0,
								"slot": "0",
								"type": "t_bytes32"
							},
							{
								"astId": 765,
								"contract": "contracts/MyGov.sol:MyGovToken",
								"label": "options",
								"offset": 0,
								"slot": "1",
								"type": "t_array(t_bytes32)dyn_storage"
							},
							{
								"astId": 768,
								"contract": "contracts/MyGov.sol:MyGovToken",
								"label": "results",
								"offset": 0,
								"slot": "2",
								"type": "t_array(t_uint256)dyn_storage"
							}
						],
						"numberOfBytes": "96"
					},
					"t_struct(Voter)751_storage": {
						"encoding": "inplace",
						"label": "struct MyGovToken.Voter",
						"members": [
							{
								"astId": 744,
								"contract": "contracts/MyGov.sol:MyGovToken",
								"label": "weight",
								"offset": 0,
								"slot": "0",
								"type": "t_uint256"
							},
							{
								"astId": 746,
								"contract": "contracts/MyGov.sol:MyGovToken",
								"label": "voted",
								"offset": 0,
								"slot": "1",
								"type": "t_bool"
							},
							{
								"astId": 748,
								"contract": "contracts/MyGov.sol:MyGovToken",
								"label": "delegate",
								"offset": 1,
								"slot": "1",
								"type": "t_address"
							},
							{
								"astId": 750,
								"contract": "contracts/MyGov.sol:MyGovToken",
								"label": "votedProposal",
								"offset": 0,
								"slot": "2",
								"type": "t_uint256"
							}
						],
						"numberOfBytes": "96"
					},
					"t_uint256": {
						"encoding": "inplace",
						"label": "uint256",
						"numberOfBytes": "32"
					}
				}
			},
			"userdoc": {
				"kind": "user",
				"methods": {},
				"version": 1
			}
		}
	}
}